{
  "_format": "hh-sol-artifact-1",
  "contractName": "TokenizedProfileMultiPositionLiquidityLocker",
  "sourceName": "contracts/TokenizedProfileMultiPositionLiquidityLocker.sol",
  "abi": [
    {
      "inputs": [
        {
          "internalType": "address",
          "name": "_positionManager",
          "type": "address"
        },
        {
          "internalType": "address",
          "name": "_feeCollector",
          "type": "address"
        }
      ],
      "stateMutability": "nonpayable",
      "type": "constructor"
    },
    {
      "inputs": [
        {
          "internalType": "address",
          "name": "owner",
          "type": "address"
        }
      ],
      "name": "OwnableInvalidOwner",
      "type": "error"
    },
    {
      "inputs": [
        {
          "internalType": "address",
          "name": "account",
          "type": "address"
        }
      ],
      "name": "OwnableUnauthorizedAccount",
      "type": "error"
    },
    {
      "anonymous": false,
      "inputs": [
        {
          "indexed": true,
          "internalType": "address",
          "name": "owner",
          "type": "address"
        },
        {
          "indexed": false,
          "internalType": "uint256",
          "name": "count",
          "type": "uint256"
        },
        {
          "indexed": false,
          "internalType": "uint256",
          "name": "totalAmount0",
          "type": "uint256"
        },
        {
          "indexed": false,
          "internalType": "uint256",
          "name": "totalAmount1",
          "type": "uint256"
        }
      ],
      "name": "BatchFeesCollected",
      "type": "event"
    },
    {
      "anonymous": false,
      "inputs": [
        {
          "indexed": true,
          "internalType": "uint256",
          "name": "tokenId",
          "type": "uint256"
        },
        {
          "indexed": false,
          "internalType": "address",
          "name": "token0",
          "type": "address"
        },
        {
          "indexed": false,
          "internalType": "address",
          "name": "token1",
          "type": "address"
        },
        {
          "indexed": false,
          "internalType": "uint256",
          "name": "amount0",
          "type": "uint256"
        },
        {
          "indexed": false,
          "internalType": "uint256",
          "name": "amount1",
          "type": "uint256"
        }
      ],
      "name": "FeesCollected",
      "type": "event"
    },
    {
      "anonymous": false,
      "inputs": [
        {
          "indexed": true,
          "internalType": "address",
          "name": "previousOwner",
          "type": "address"
        },
        {
          "indexed": true,
          "internalType": "address",
          "name": "newOwner",
          "type": "address"
        }
      ],
      "name": "OwnershipTransferred",
      "type": "event"
    },
    {
      "anonymous": false,
      "inputs": [
        {
          "indexed": true,
          "internalType": "address",
          "name": "owner",
          "type": "address"
        },
        {
          "indexed": true,
          "internalType": "uint256",
          "name": "tokenId",
          "type": "uint256"
        },
        {
          "indexed": false,
          "internalType": "uint64",
          "name": "unlockTime",
          "type": "uint64"
        }
      ],
      "name": "PositionLocked",
      "type": "event"
    },
    {
      "anonymous": false,
      "inputs": [
        {
          "indexed": true,
          "internalType": "address",
          "name": "owner",
          "type": "address"
        },
        {
          "indexed": true,
          "internalType": "uint256",
          "name": "tokenId",
          "type": "uint256"
        },
        {
          "indexed": true,
          "internalType": "address",
          "name": "recipient",
          "type": "address"
        }
      ],
      "name": "PositionWithdrawn",
      "type": "event"
    },
    {
      "anonymous": false,
      "inputs": [
        {
          "indexed": false,
          "internalType": "uint256",
          "name": "count",
          "type": "uint256"
        },
        {
          "indexed": false,
          "internalType": "uint256",
          "name": "totalAmount0",
          "type": "uint256"
        },
        {
          "indexed": false,
          "internalType": "uint256",
          "name": "totalAmount1",
          "type": "uint256"
        }
      ],
      "name": "ProtocolBatchFeesCollected",
      "type": "event"
    },
    {
      "anonymous": false,
      "inputs": [
        {
          "indexed": true,
          "internalType": "address",
          "name": "from",
          "type": "address"
        },
        {
          "indexed": false,
          "internalType": "uint256",
          "name": "tokenId",
          "type": "uint256"
        }
      ],
      "name": "Received",
      "type": "event"
    },
    {
      "inputs": [],
      "name": "PROTOCOL_ADDRESS",
      "outputs": [
        {
          "internalType": "address",
          "name": "",
          "type": "address"
        }
      ],
      "stateMutability": "view",
      "type": "function"
    },
    {
      "inputs": [
        {
          "internalType": "uint256",
          "name": "",
          "type": "uint256"
        }
      ],
      "name": "allTokenIds",
      "outputs": [
        {
          "internalType": "uint256",
          "name": "",
          "type": "uint256"
        }
      ],
      "stateMutability": "view",
      "type": "function"
    },
    {
      "inputs": [],
      "name": "collectAllFees",
      "outputs": [
        {
          "internalType": "uint256",
          "name": "positionsCount",
          "type": "uint256"
        },
        {
          "internalType": "uint256",
          "name": "totalAmount0",
          "type": "uint256"
        },
        {
          "internalType": "uint256",
          "name": "totalAmount1",
          "type": "uint256"
        }
      ],
      "stateMutability": "nonpayable",
      "type": "function"
    },
    {
      "inputs": [
        {
          "internalType": "uint256",
          "name": "tokenId",
          "type": "uint256"
        }
      ],
      "name": "collectFees",
      "outputs": [
        {
          "internalType": "uint256",
          "name": "amount0",
          "type": "uint256"
        },
        {
          "internalType": "uint256",
          "name": "amount1",
          "type": "uint256"
        }
      ],
      "stateMutability": "nonpayable",
      "type": "function"
    },
    {
      "inputs": [
        {
          "internalType": "uint256[]",
          "name": "tokenIds",
          "type": "uint256[]"
        }
      ],
      "name": "collectSelectedFees",
      "outputs": [
        {
          "internalType": "uint256",
          "name": "processedCount",
          "type": "uint256"
        },
        {
          "internalType": "uint256",
          "name": "totalAmount0",
          "type": "uint256"
        },
        {
          "internalType": "uint256",
          "name": "totalAmount1",
          "type": "uint256"
        }
      ],
      "stateMutability": "nonpayable",
      "type": "function"
    },
    {
      "inputs": [],
      "name": "defaultLockingPeriod",
      "outputs": [
        {
          "internalType": "uint64",
          "name": "",
          "type": "uint64"
        }
      ],
      "stateMutability": "view",
      "type": "function"
    },
    {
      "inputs": [],
      "name": "defaultLpFeesCut",
      "outputs": [
        {
          "internalType": "uint16",
          "name": "",
          "type": "uint16"
        }
      ],
      "stateMutability": "view",
      "type": "function"
    },
    {
      "inputs": [],
      "name": "feeCollector",
      "outputs": [
        {
          "internalType": "address",
          "name": "",
          "type": "address"
        }
      ],
      "stateMutability": "view",
      "type": "function"
    },
    {
      "inputs": [],
      "name": "getAllPositions",
      "outputs": [
        {
          "internalType": "uint256[]",
          "name": "",
          "type": "uint256[]"
        }
      ],
      "stateMutability": "view",
      "type": "function"
    },
    {
      "inputs": [
        {
          "internalType": "address",
          "name": "user",
          "type": "address"
        }
      ],
      "name": "getPositionsForUser",
      "outputs": [
        {
          "internalType": "uint256[]",
          "name": "",
          "type": "uint256[]"
        }
      ],
      "stateMutability": "view",
      "type": "function"
    },
    {
      "inputs": [
        {
          "internalType": "uint256",
          "name": "tokenId",
          "type": "uint256"
        },
        {
          "internalType": "address",
          "name": "owner",
          "type": "address"
        },
        {
          "internalType": "uint64",
          "name": "unlockTime",
          "type": "uint64"
        },
        {
          "internalType": "uint16",
          "name": "lpFeesCut",
          "type": "uint16"
        }
      ],
      "name": "initializePosition",
      "outputs": [],
      "stateMutability": "nonpayable",
      "type": "function"
    },
    {
      "inputs": [
        {
          "internalType": "address",
          "name": "user",
          "type": "address"
        },
        {
          "internalType": "uint256",
          "name": "tokenId",
          "type": "uint256"
        }
      ],
      "name": "isPositionOwner",
      "outputs": [
        {
          "internalType": "bool",
          "name": "",
          "type": "bool"
        }
      ],
      "stateMutability": "view",
      "type": "function"
    },
    {
      "inputs": [
        {
          "internalType": "address",
          "name": "",
          "type": "address"
        },
        {
          "internalType": "address",
          "name": "from",
          "type": "address"
        },
        {
          "internalType": "uint256",
          "name": "id",
          "type": "uint256"
        },
        {
          "internalType": "bytes",
          "name": "",
          "type": "bytes"
        }
      ],
      "name": "onERC721Received",
      "outputs": [
        {
          "internalType": "bytes4",
          "name": "",
          "type": "bytes4"
        }
      ],
      "stateMutability": "nonpayable",
      "type": "function"
    },
    {
      "inputs": [],
      "name": "owner",
      "outputs": [
        {
          "internalType": "address",
          "name": "",
          "type": "address"
        }
      ],
      "stateMutability": "view",
      "type": "function"
    },
    {
      "inputs": [],
      "name": "positionManager",
      "outputs": [
        {
          "internalType": "address",
          "name": "",
          "type": "address"
        }
      ],
      "stateMutability": "view",
      "type": "function"
    },
    {
      "inputs": [
        {
          "internalType": "uint256",
          "name": "",
          "type": "uint256"
        }
      ],
      "name": "positions",
      "outputs": [
        {
          "internalType": "address",
          "name": "owner",
          "type": "address"
        },
        {
          "internalType": "uint64",
          "name": "unlockTime",
          "type": "uint64"
        },
        {
          "internalType": "uint16",
          "name": "lpFeesCut",
          "type": "uint16"
        },
        {
          "internalType": "bool",
          "name": "initialized",
          "type": "bool"
        }
      ],
      "stateMutability": "view",
      "type": "function"
    },
    {
      "inputs": [],
      "name": "protocolCollectAllFees",
      "outputs": [
        {
          "internalType": "uint256",
          "name": "processedCount",
          "type": "uint256"
        },
        {
          "internalType": "uint256",
          "name": "totalAmount0",
          "type": "uint256"
        },
        {
          "internalType": "uint256",
          "name": "totalAmount1",
          "type": "uint256"
        }
      ],
      "stateMutability": "nonpayable",
      "type": "function"
    },
    {
      "inputs": [
        {
          "internalType": "uint256",
          "name": "startIndex",
          "type": "uint256"
        },
        {
          "internalType": "uint256",
          "name": "count",
          "type": "uint256"
        }
      ],
      "name": "protocolCollectFeesBatch",
      "outputs": [
        {
          "internalType": "uint256",
          "name": "processedCount",
          "type": "uint256"
        },
        {
          "internalType": "uint256",
          "name": "totalAmount0",
          "type": "uint256"
        },
        {
          "internalType": "uint256",
          "name": "totalAmount1",
          "type": "uint256"
        }
      ],
      "stateMutability": "nonpayable",
      "type": "function"
    },
    {
      "inputs": [],
      "name": "renounceOwnership",
      "outputs": [],
      "stateMutability": "nonpayable",
      "type": "function"
    },
    {
      "inputs": [
        {
          "internalType": "address",
          "name": "newOwner",
          "type": "address"
        }
      ],
      "name": "transferOwnership",
      "outputs": [],
      "stateMutability": "nonpayable",
      "type": "function"
    },
    {
      "inputs": [
        {
          "internalType": "uint64",
          "name": "_defaultLockingPeriod",
          "type": "uint64"
        }
      ],
      "name": "updateDefaultLockingPeriod",
      "outputs": [],
      "stateMutability": "nonpayable",
      "type": "function"
    },
    {
      "inputs": [
        {
          "internalType": "uint16",
          "name": "_defaultLpFeesCut",
          "type": "uint16"
        }
      ],
      "name": "updateDefaultLpFeesCut",
      "outputs": [],
      "stateMutability": "nonpayable",
      "type": "function"
    },
    {
      "inputs": [
        {
          "internalType": "address",
          "name": "_feeCollector",
          "type": "address"
        }
      ],
      "name": "updateFeeCollector",
      "outputs": [],
      "stateMutability": "nonpayable",
      "type": "function"
    },
    {
      "inputs": [
        {
          "internalType": "address",
          "name": "",
          "type": "address"
        },
        {
          "internalType": "uint256",
          "name": "",
          "type": "uint256"
        }
      ],
      "name": "userTokenIds",
      "outputs": [
        {
          "internalType": "uint256",
          "name": "",
          "type": "uint256"
        }
      ],
      "stateMutability": "view",
      "type": "function"
    },
    {
      "inputs": [
        {
          "internalType": "uint256",
          "name": "tokenId",
          "type": "uint256"
        },
        {
          "internalType": "address",
          "name": "recipient",
          "type": "address"
        }
      ],
      "name": "withdraw",
      "outputs": [],
      "stateMutability": "nonpayable",
      "type": "function"
    }
  ],
  "bytecode": "0x6080346100f157601f61189c38819003918201601f19168301916001600160401b038311848410176100f65780849260409485528339810103126100f157610052602061004b8361010c565b920161010c565b33156100d857600080546001600160a01b03198082163390811784556040519591946001600160a01b039490938516907f8be0079c531659141344cd1fd0a4f28419497f9722a3daafe3b4186f6b6457e09080a36001548364784ce0007d60a21b92169061ffff60f01b1617176001551690600254161760025561177b90816101218239f35b604051631e4fbdf760e01b815260006004820152602490fd5b600080fd5b634e487b7160e01b600052604160045260246000fd5b51906001600160a01b03821682036100f15756fe6040608081526004908136101561001557600080fd5b600091823560e01c8062f714ce14610d6e57806302a2647114610d25578063150b7a0214610c7f57806318f56a0a14610c055780632722feee14610bd65780632bde2bfc14610b955780633aa10f1f14610b3a578063402adba914610a355780634751dbaa14610a0f578063686f2c90146108cc578063715018a614610872578063791b98bc146108495780637d07b2d21461081f57806387b7f85c146106c857806389853f54146104e85780638da5cb5b146104c05780638eaa826b146103bf57806399fbab8814610362578063b17acdcd14610338578063c415b95c1461030f578063c6d6fe3c1461028b578063cc17e15d14610234578063d2c35ce8146101f1578063d406d751146101c15763f2fde38b1461013357600080fd5b346101bd5760203660031901126101bd5761014c610f49565b90610155610fff565b6001600160a01b039182169283156101a7575050600054826001600160601b0360a01b821617600055167f8be0079c531659141344cd1fd0a4f28419497f9722a3daafe3b4186f6b6457e0600080a380f35b51631e4fbdf760e01b8152908101849052602490fd5b8280fd5b5050346101ed57816003193601126101ed5760209067ffffffffffffffff60015460b01c169051908152f35b5080fd5b83346102315760203660031901126102315761020b610f49565b610213610fff565b60018060a01b03166001600160601b0360a01b600254161760025580f35b80fd5b50913461023157816003193601126102315761024e610f49565b6001600160a01b0316815260209290925280822080546024359390841015610231575060209261027d91610fe7565b91905490519160031b1c8152f35b5090346101bd576020918260031936011261030b576001600160a01b036102b0610f49565b16845282528083209281518093808654928381520195835280832092905b8282106102f4576102f086866102e6828b038361105d565b5191829182610f5f565b0390f35b8354875295860195600193840193909101906102ce565b8380fd5b5050346101ed57816003193601126101ed5760025490516001600160a01b039091168152602090f35b50823461023157602036600319011261023157506103569035611163565b82519182526020820152f35b50346101bd5760203660031901126101bd578160809360ff923581526003602052205482519260018060a01b038216845267ffffffffffffffff8260a01c16602085015261ffff8260e01c169084015260f01c1615156060820152f35b8284346102315780600319360112610231576103f073eaf75b465f791b24c3b3e17a2f4793a67e3941fd3314611700565b8091819060055492805b848110610462575050805183815260208101859052604081018390526102f09291907f905b697b9e75982167ab0f854b5e635381b1fa298c7378f6e10cfa100bb3eb6c9080606081015b0390a151938493846040919493926060820195825260208201520152565b61046b81610f9a565b9054600391821b1c9081845260205260ff8484205460f01c16610498575b50610493906116c0565b6103fa565b6104939194966104b36104ad6104b993611163565b926116e3565b976116e3565b9390610489565b5050346101ed57816003193601126101ed57905490516001600160a01b039091168152602090f35b509190346101ed5760803660031901126101ed57823590610507610f33565b9060443567ffffffffffffffff81168091036106c3576064359161ffff83168093036106c3578486526020926003845260ff8288205460f01c1661068a578151906105518261102b565b60018060a01b038096169586835285830191858352848401908152606084019160018352898b5260038852858b2094511684549367ffffffffffffffff60a01b905160a01b169161ffff60e01b905160e01b169260ff60f01b9051151560f01b169360ff60f81b1617171717905583865286835280862096875468010000000000000000988982101561067557906105ee91600182018155610fe7565b919080549260031b60001993848a831b921b19161790556005549889101561066057506106458860017f7d345a92d35fdf554c440af4b60798f695891412ae3cbf945cd363d3a5f66d289798999a01600555610f9a565b819291549060031b9189831b921b191617905551908152a380f35b604190634e487b7160e01b6000525260246000fd5b604183634e487b7160e01b6000525260246000fd5b815162461bcd60e51b81528089018590526013602482015272105b1c9958591e481a5b9a5d1a585b1a5e9959606a1b6044820152606490fd5b600080fd5b508290346101ed576020806003193601126101bd5781359367ffffffffffffffff9283861161081b573660238701121561081b5785013592831161030b576024850194602436918560051b01011161030b57838092815b85811061078a575050815184815260208101869052604081018490526102f09392915033907fff4c59c9e84f6b776e123703d71d152c38901d63ec1c580b0f8c3e80dd885ca59080606081015b0390a251938493846040919493926060820195825260208201520152565b61079581878a6116f0565b3583528760038084523360018060a01b0387872054161490816107f7575b506107c8575b506107c3906116c0565b61071f565b8195976107e86104ad6107e26107c3958b6107ee966116f0565b35611163565b986116e3565b949050876107b9565b9161080591508884916116f0565b35845282528760ff8585205460f01c168a6107b3565b8480fd5b50346101bd5760203660031901126101bd573591600554831015610231575061027d602092610f9a565b5050346101ed57816003193601126101ed5760015490516001600160a01b039091168152602090f35b833461023157806003193601126102315761088b610fff565b600080546001600160a01b0319811682556001600160a01b03167f8be0079c531659141344cd1fd0a4f28419497f9722a3daafe3b4186f6b6457e08280a380f35b50823461023157806003193601126102315780928133815260209384528181208251808287829454938481520190855287852092855b898282106109f9575050506109199250038261105d565b805194825b86811061096f5787876102f0888880517fff4c59c9e84f6b776e123703d71d152c38901d63ec1c580b0f8c3e80dd885ca533918061076c868a8a846040919493926060820195825260208201520152565b61097981846116cf565b5184526003808352858520546001600160a01b0316331490816109d8575b506109ab575b6109a6906116c0565b61091e565b94966109d06109a6916109ca6104ad6109c48a886116cf565b51611163565b996116e3565b95905061099d565b90506109e482856116cf565b518552825260ff8585205460f01c1689610997565b8554845260019586019587955093019201610902565b5050346101ed57816003193601126101ed5760209061ffff60015460a01c169051908152f35b508290346101ed57826003193601126101ed573590610a6973eaf75b465f791b24c3b3e17a2f4793a67e3941fd3314611700565b809281610a78602435856116e3565b90600554808311610b32575b50610a8f858361113e565b945b828110610ae0575050815184815260208101869052604081018490526102f0939291507f905b697b9e75982167ab0f854b5e635381b1fa298c7378f6e10cfa100bb3eb6c908060608101610444565b610ae981610f9a565b9054600391821b1c9081845260205260ff8584205460f01c16610b16575b50610b11906116c0565b610a91565b610b119195976107e86104ad610b2b93611163565b9490610b07565b915086610a84565b8382346101ed5760203660031901126101ed573567ffffffffffffffff811681036106c357610b67610fff565b6001805467ffffffffffffffff60b01b191660b09290921b67ffffffffffffffff60b01b1691909117905580f35b5050346101ed57806003193601126101ed579081602092610bb4610f49565b60243584526003855292205490516001600160a01b0392831691909216148152f35b5050346101ed57816003193601126101ed576020905173eaf75b465f791b24c3b3e17a2f4793a67e3941fd8152f35b8284346102315780600319360112610231578151918291600554808552602080950194600583527f036b6384b5eca791c62761152d0c79bb0604c104a5fb6f4eb0703f3154bb3db092905b828210610c68576102f086866102e6828b038361105d565b835487529586019560019384019390910190610c50565b50346101bd5760803660031901126101bd57610c99610f49565b50610ca2610f33565b906064359067ffffffffffffffff90818311610d215736602384011215610d215782013590811161081b57369101602401116101bd5781516044358152602093506001600160a01b03909116907f88a5966d370b9919b20f3e2c13ff65706f196a4e32cc2c12bf57088f88525874908490a251630a85bd0160e11b8152f35b8580fd5b8382346101ed5760203660031901126101ed573561ffff811681036106c357610d4c610fff565b6001805461ffff60a01b191660a09290921b61ffff60a01b1691909117905580f35b50346101bd57816003193601126101bd57803590610d8a610f33565b92610daa73eaf75b465f791b24c3b3e17a2f4793a67e3941fd3314611700565b828552600360205280852090805191610dc28361102b565b549260018060a01b03938481168452846020850197610e0b60ff67ffffffffffffffff94858160a01c168c5261ffff8160e01c16888a015260f01c16151580606089015261107f565b16968715610efc575181164210610eca5790879291868452600360205283838120558560015416803b1561081b5784906064855180978193632142170760e11b835230888401528d60248401528c60448401525af18015610ec057610e98575b5050505051167f119d930f8a790cc06b4421b32d0bf3093c05fc6e0dd49435f3e89db43bafaa118480a480f35b8398949811610ead5750529338808080610e6b565b634e487b7160e01b845260419052602483fd5b83513d8b823e3d90fd5b506020606492519162461bcd60e51b8352820152600c60248201526b14dd1a5b1b081b1bd8dad95960a21b6044820152fd5b835162461bcd60e51b81526020818501526011602482015270125b9d985b1a59081c9958da5c1a595b9d607a1b6044820152606490fd5b602435906001600160a01b03821682036106c357565b600435906001600160a01b03821682036106c357565b6020908160408183019282815285518094520193019160005b828110610f86575050505090565b835185529381019392810192600101610f78565b600554811015610fd15760056000527f036b6384b5eca791c62761152d0c79bb0604c104a5fb6f4eb0703f3154bb3db00190600090565b634e487b7160e01b600052603260045260246000fd5b8054821015610fd15760005260206000200190600090565b6000546001600160a01b0316330361101357565b60405163118cdaa760e01b8152336004820152602490fd5b6080810190811067ffffffffffffffff82111761104757604052565b634e487b7160e01b600052604160045260246000fd5b90601f8019910116810190811067ffffffffffffffff82111761104757604052565b1561108657565b60405162461bcd60e51b815260206004820152601860248201527f506f736974696f6e206e6f7420696e697469616c697a656400000000000000006044820152606490fd5b51906001600160a01b03821682036106c357565b51908160020b82036106c357565b51906001600160801b03821682036106c357565b9061ffff8092166103e80391821161111557565b634e487b7160e01b600052601160045260246000fd5b8181029291811591840414171561111557565b9190820391821161111557565b908160209103126106c3575180151581036106c35790565b9081600052600360205260406000206111c560ff604051926111848461102b565b546001600160a01b038116845260a081901c67ffffffffffffffff16602085015260e081901c61ffff16604085015260f01c1615156060830181905261107f565b73eaf75b465f791b24c3b3e17a2f4793a67e3941fd3303611675575b60018060a01b036001541692604051916111fa8361102b565b81835230602084019081526001600160801b03604080860182815260608701838152825163fc6f786560e01b81529751600489015293516001600160a01b0316602488015251821660448701529151166064850152836084816000895af194851561141b5760009360009661163a575b5083158681611631575b506116235760405191829163133f757160e31b83528460048401528260246101809586935afa91821561141b57600093600093611568575b50506103e890816112cf61ffff6112c881604086015116611101565b168861112b565b04916112ed61ffff6112e681604086015116611101565b168a61112b565b046112f8838861113e565b91611303828b61113e565b93806114ff575b5081611491575b505080611427575b5080611371575b50604080516001600160a01b0393841681529290911660208301528101839052606081018590527f529bba57bdb8378bb850b7bd9677f1e8fc38dba3d309fda743a7b2921d534a0a90608090a29190565b60025460405163a9059cbb60e01b81526001600160a01b0390911660048201526024810191909152916020838060448101038160006001600160a01b0387165af191821561141b577f529bba57bdb8378bb850b7bd9677f1e8fc38dba3d309fda743a7b2921d534a0a936080936113ec575b50915091611320565b61140d9060203d602011611414575b611405818361105d565b81019061114b565b50386113e3565b503d6113fb565b6040513d6000823e3d90fd5b60025460405163a9059cbb60e01b81526001600160a01b03909116600482015260248101919091526020818060448101038160006001600160a01b0389165af1801561141b57156113195761148a9060203d60201161141457611405818361105d565b5038611319565b5160405163a9059cbb60e01b81526001600160a01b03909116600482015260248101919091526020818060448101038160006001600160a01b0389165af1801561141b576114e0575b80611311565b6114f89060203d60201161141457611405818361105d565b50386114da565b815160405163a9059cbb60e01b81526001600160a01b03909116600482015260248101919091526020818060448101038160006001600160a01b038c165af1801561141b571561130a576115619060203d60201161141457611405818361105d565b503861130a565b819450809293503d831161161c575b611581818361105d565b810103126106c35781516001600160601b038116036106c3576115a6602083016110cb565b506115b3604083016110cb565b6115bf606084016110cb565b92608081015162ffffff8116036106c357610160816115e360a061161294016110df565b506115f060c082016110df565b506115fd60e082016110ed565b5061160b61014082016110ed565b50016110ed565b50919038806112ac565b503d611577565b505050509050600090600090565b90501538611274565b935094506040833d60401161166d575b816116576040938361105d565b810103126106c35760208351930151943861126a565b3d915061164a565b80516001600160a01b031633146111e15760405162461bcd60e51b81526020600482015260126024820152712737ba103837b9b4ba34b7b71037bbb732b960711b6044820152606490fd5b60001981146111155760010190565b8051821015610fd15760209160051b010190565b9190820180921161111557565b9190811015610fd15760051b0190565b1561170757565b60405162461bcd60e51b815260206004820152601660248201527513db9b1e481c1c9bdd1bd8dbdb0818d85b8818d85b1b60521b6044820152606490fdfea2646970667358221220263459c0e9ad56b98b8e1feb0f1566512ff051c62415fcb6565c46b811aeed0964736f6c63430008140033",
  "linkReferences": {},
  "deployedLinkReferences": {}
}