{
  "_format": "hh-sol-artifact-1",
  "contractName": "MockUniswapV3Factory",
  "sourceName": "contracts/mock/MockUniswapV3Factory.sol",
  "abi": [
    {
      "inputs": [],
      "stateMutability": "nonpayable",
      "type": "constructor"
    },
    {
      "anonymous": false,
      "inputs": [
        {
          "indexed": true,
          "internalType": "uint24",
          "name": "fee",
          "type": "uint24"
        },
        {
          "indexed": true,
          "internalType": "int24",
          "name": "tickSpacing",
          "type": "int24"
        }
      ],
      "name": "FeeAmountEnabled",
      "type": "event"
    },
    {
      "anonymous": false,
      "inputs": [
        {
          "indexed": true,
          "internalType": "address",
          "name": "oldOwner",
          "type": "address"
        },
        {
          "indexed": true,
          "internalType": "address",
          "name": "newOwner",
          "type": "address"
        }
      ],
      "name": "OwnerChanged",
      "type": "event"
    },
    {
      "anonymous": false,
      "inputs": [
        {
          "indexed": true,
          "internalType": "address",
          "name": "token0",
          "type": "address"
        },
        {
          "indexed": true,
          "internalType": "address",
          "name": "token1",
          "type": "address"
        },
        {
          "indexed": true,
          "internalType": "uint24",
          "name": "fee",
          "type": "uint24"
        },
        {
          "indexed": false,
          "internalType": "int24",
          "name": "tickSpacing",
          "type": "int24"
        },
        {
          "indexed": false,
          "internalType": "address",
          "name": "pool",
          "type": "address"
        }
      ],
      "name": "PoolCreated",
      "type": "event"
    },
    {
      "anonymous": false,
      "inputs": [
        {
          "indexed": true,
          "internalType": "address",
          "name": "token0",
          "type": "address"
        },
        {
          "indexed": true,
          "internalType": "address",
          "name": "token1",
          "type": "address"
        },
        {
          "indexed": false,
          "internalType": "uint24",
          "name": "fee",
          "type": "uint24"
        },
        {
          "indexed": false,
          "internalType": "address",
          "name": "pool",
          "type": "address"
        }
      ],
      "name": "PoolCreated",
      "type": "event"
    },
    {
      "inputs": [
        {
          "internalType": "address",
          "name": "tokenA",
          "type": "address"
        },
        {
          "internalType": "address",
          "name": "tokenB",
          "type": "address"
        },
        {
          "internalType": "uint24",
          "name": "fee",
          "type": "uint24"
        }
      ],
      "name": "createPool",
      "outputs": [
        {
          "internalType": "address",
          "name": "pool",
          "type": "address"
        }
      ],
      "stateMutability": "nonpayable",
      "type": "function"
    },
    {
      "inputs": [
        {
          "internalType": "uint24",
          "name": "",
          "type": "uint24"
        },
        {
          "internalType": "int24",
          "name": "",
          "type": "int24"
        }
      ],
      "name": "enableFeeAmount",
      "outputs": [],
      "stateMutability": "nonpayable",
      "type": "function"
    },
    {
      "inputs": [
        {
          "internalType": "uint24",
          "name": "",
          "type": "uint24"
        }
      ],
      "name": "feeAmountTickSpacing",
      "outputs": [
        {
          "internalType": "int24",
          "name": "",
          "type": "int24"
        }
      ],
      "stateMutability": "pure",
      "type": "function"
    },
    {
      "inputs": [
        {
          "internalType": "address",
          "name": "",
          "type": "address"
        },
        {
          "internalType": "address",
          "name": "",
          "type": "address"
        },
        {
          "internalType": "uint24",
          "name": "",
          "type": "uint24"
        }
      ],
      "name": "getPool",
      "outputs": [
        {
          "internalType": "address",
          "name": "",
          "type": "address"
        }
      ],
      "stateMutability": "view",
      "type": "function"
    },
    {
      "inputs": [],
      "name": "owner",
      "outputs": [
        {
          "internalType": "address",
          "name": "",
          "type": "address"
        }
      ],
      "stateMutability": "view",
      "type": "function"
    },
    {
      "inputs": [
        {
          "internalType": "address",
          "name": "_newOwner",
          "type": "address"
        }
      ],
      "name": "setOwner",
      "outputs": [],
      "stateMutability": "nonpayable",
      "type": "function"
    }
  ],
  "bytecode": "0x6080806040523461002857600180546001600160a01b03191633179055610dbd908161002e8239f35b600080fdfe604060808152600436101561001357600080fd5b6000803560e01c806313af4035146103685780631698ee821461030557806322afcccb146102df5780638a7c195f146102a15780638da5cb5b146102745763a16712951461006057600080fd5b34610271576060366003190112610271576100796103b6565b916100826103d1565b61008a6103e7565b6001600160a01b039482861681871680821461023a578792911115610234575b169081156102015781855260209585875280858720941693848752875262ffffff85872092169182875287528085872054166101c757845161093f8082019082821067ffffffffffffffff8311176101b35760609183916104498339868152878b820152858982015203019087f080156101a9579185917f97d23878912fda7f82bd5a8502f2c6e9086f5a4728f9054627788b3162f86ced931696848152808952828120868252895282812082825289528783808320926bffffffffffffffffffffffff60a01b938385825416179055888152808c528181208882528c528181208582528c52209182541617905581519081528688820152a351908152f35b85513d88823e3d90fd5b634e487b7160e01b89526041600452602489fd5b845162461bcd60e51b8152600481018890526013602482015272506f6f6c20616c72656164792065786973747360681b6044820152606490fd5b835162461bcd60e51b815260206004820152600c60248201526b5a65726f206164647265737360a01b6044820152606490fd5b926100aa565b855162461bcd60e51b815260206004820152601060248201526f4964656e746963616c20746f6b656e7360801b6044820152606490fd5b80fd5b50903461029d578160031936011261029d5760015490516001600160a01b039091168152602090f35b5080fd5b50903461029d57366003190112610271576102ba6103f9565b506024358060020b03610271576102dc60018060a01b0360015416331461040b565b80f35b50903461029d57602036600319011261029d576020906102fd6103f9565b5051603c8152f35b50903461029d57606036600319011261029d57602091816103246103b6565b9161032d6103d1565b6103356103e7565b6001600160a01b039485168352828752838320918516835290865282822062ffffff909116825285522054915191168152f35b5034610271576020366003190112610271576103826103b6565b600154906001600160a01b039061039c338385161461040b565b16906bffffffffffffffffffffffff60a01b161760015580f35b600435906001600160a01b03821682036103cc57565b600080fd5b602435906001600160a01b03821682036103cc57565b6044359062ffffff821682036103cc57565b6004359062ffffff821682036103cc57565b1561041257565b60405162461bcd60e51b815260206004820152600e60248201526d139bdd08185d5d1a1bdc9a5e995960921b6044820152606490fdfe610100346100a757601f61093f38819003918201601f19168301916001600160401b038311848410176100ac578084926060946040528339810103126100a757610048816100c2565b906040610057602083016100c2565b9101519162ffffff831683036100a75760a05260c05260e0523360805260405161086890816100d7823960805181610272015260a0518161070c015260c05181610212015260e051816101d90152f35b600080fd5b634e487b7160e01b600052604160045260246000fd5b51906001600160a01b03821682036100a75756fe60806040908082526004918236101561001757600080fd5b600092833560e01c9283630dfe1681146106f857508263128acb08146106a15782631a686502146106865782631ad8b03b14610667578263252c09d71461063a57826332148f67146106195782633850c7bd146105db5782633c8a7d8d1461057757826346141319146101b8578263490e6cbc146105375782634f1eb3d8146104e1578263514ea4bf146104ae5782635339c2961461048757826370cf754a146104655782638206a4d11461043b57826385b6672914610405578263883bdbfd1461031357508163a34123a7146102d9578163a38807f2146102a1578163c45a01551461025d578163d0c93a7c14610241578163d21220a7146101fd578163ddca3f43146101bd578163f3058399146101b8578163f30dba9314610165575063f637731d1461014557600080fd5b346101625760203660031901126101625761015e61073b565b5080f35b80fd5b9050346101b45760203660031901126101b457610100916101846107a4565b50808251928184528160208501528301528060608301528060808301528060a08301528060c083015260e0820152f35b5080fd5b6107e0565b9050346101b457816003193601126101b4576020905162ffffff7f0000000000000000000000000000000000000000000000000000000000000000168152f35b9050346101b457816003193601126101b457517f00000000000000000000000000000000000000000000000000000000000000006001600160a01b03168152602090f35b9050346101b457816003193601126101b45760209051603c8152f35b9050346101b457816003193601126101b457517f00000000000000000000000000000000000000000000000000000000000000006001600160a01b03168152602090f35b9050346101b457806003193601126101b4576060916102be6107a4565b506102c7610784565b50815191818352816020840152820152f35b8234610162576060366003190112610162576102f36107a4565b506102fc610784565b506103056107ca565b508151908082526020820152f35b8382346101b4576020928360031936011261040157803567ffffffffffffffff918282116103fd57366023830112156103fd578101359182116103f957602490369260051b0101116101b457916103686107fc565b91600191828452808401908036833761037f6107fc565b848152818101968236893780519681880191885251809152606087019390855b8181106103e357505050858303868301525180835291810195925b8281106103c75785870386f35b83516001600160a01b03168752958101959281019284016103ba565b825160060b86529484019491840191870161039f565b8380fd5b8480fd5b8280fd5b5082346101625760603660031901126101625761042061073b565b506024356001600160801b03811603610162576103056107ca565b915034610401573660031901126101b4573560ff8116036101625760243560ff8116036101625780f35b8382346101b457816003193601126101b457602090516001600160801b038152f35b9091503461040157602036600319011261040157358060010b036101b45751908152602090f35b8382346101b45760203660031901126101b4578160a0928251928184528160208501528301528060608301526080820152f35b5082346101625760a0366003190112610162576104fc61073b565b50610505610784565b5061050e610794565b506105176107b4565b506084356001600160801b03811603610162578151908082526020820152f35b8390346101b45760803660031901126101b45761055261073b565b506064359067ffffffffffffffff82116104015761057291369101610756565b505080f35b8390346101b45760a03660031901126101b45761059261073b565b5061059b610784565b506105a4610794565b506105ad6107b4565b5060843567ffffffffffffffff8111610401576105cc91369101610756565b50508151908082526020820152f35b8382346101b457816003193601126101b4578160e0928251928184528160208501528301528060608301528060808301528060a083015260c0820152f35b8390346101b45760203660031901126101b4573561ffff8116036101625780f35b8382346101b45760203660031901126101b457816080928251928184528160208501528301526060820152f35b5082346101625780600319360112610162578151908082526020820152f35b8382346101b457816003193601126101b45751908152602090f35b8390346101b45760a03660031901126101b4576106bc61073b565b50602435801515036101b4576064356001600160a01b038116036101b45760843567ffffffffffffffff8111610401576105cc91369101610756565b8490346101b457816003193601126101b4577f00000000000000000000000000000000000000000000000000000000000000006001600160a01b03168152602090f35b600435906001600160a01b038216820361075157565b600080fd5b9181601f840112156107515782359167ffffffffffffffff8311610751576020838186019501011161075157565b602435908160020b820361075157565b604435908160020b820361075157565b600435908160020b820361075157565b606435906001600160801b038216820361075157565b604435906001600160801b038216820361075157565b3461075157600036600319011261075157602060405160008152f35b604051906040820182811067ffffffffffffffff82111761081c57604052565b634e487b7160e01b600052604160045260246000fdfea2646970667358221220fab5f632dd52618072602c5470fed2d6a67a70def89cfdd4e626ec70eaa08c0b64736f6c63430008140033a26469706673582212207815155aaec607f21ce5b3e1ba2e79736b37c21c21a13ba016dd47907c1341e664736f6c63430008140033",
  "linkReferences": {},
  "deployedLinkReferences": {}
}