{
  "contracts/TokenFactory.sol": {
    "TokenFactory": {
      "abi": [
        {
          "inputs": [
            {
              "internalType": "address",
              "name": "_devAddress",
              "type": "address"
            },
            {
              "internalType": "address",
              "name": "_positionManager",
              "type": "address"
            },
            {
              "internalType": "address",
              "name": "_uniswapV3Factory",
              "type": "address"
            },
            {
              "internalType": "address",
              "name": "_weth",
              "type": "address"
            }
          ],
          "stateMutability": "nonpayable",
          "type": "constructor"
        },
        {
          "inputs": [
            {
              "internalType": "address",
              "name": "owner",
              "type": "address"
            }
          ],
          "name": "OwnableInvalidOwner",
          "type": "error"
        },
        {
          "inputs": [
            {
              "internalType": "address",
              "name": "account",
              "type": "address"
            }
          ],
          "name": "OwnableUnauthorizedAccount",
          "type": "error"
        },
        {
          "anonymous": false,
          "inputs": [
            {
              "indexed": false,
              "internalType": "string",
              "name": "message",
              "type": "string"
            },
            {
              "indexed": false,
              "internalType": "uint256",
              "name": "value",
              "type": "uint256"
            }
          ],
          "name": "Debug",
          "type": "event"
        },
        {
          "anonymous": false,
          "inputs": [
            {
              "indexed": true,
              "internalType": "address",
              "name": "tokenAddress",
              "type": "address"
            },
            {
              "indexed": false,
              "internalType": "uint256",
              "name": "tokenId",
              "type": "uint256"
            },
            {
              "indexed": false,
              "internalType": "uint256",
              "name": "amountToken",
              "type": "uint256"
            },
            {
              "indexed": false,
              "internalType": "uint256",
              "name": "amountETH",
              "type": "uint256"
            }
          ],
          "name": "LiquidityAdded",
          "type": "event"
        },
        {
          "anonymous": false,
          "inputs": [
            {
              "indexed": true,
              "internalType": "address",
              "name": "previousOwner",
              "type": "address"
            },
            {
              "indexed": true,
              "internalType": "address",
              "name": "newOwner",
              "type": "address"
            }
          ],
          "name": "OwnershipTransferred",
          "type": "event"
        },
        {
          "anonymous": false,
          "inputs": [
            {
              "indexed": true,
              "internalType": "address",
              "name": "tokenAddress",
              "type": "address"
            },
            {
              "indexed": true,
              "internalType": "address",
              "name": "owner",
              "type": "address"
            },
            {
              "indexed": false,
              "internalType": "string",
              "name": "name",
              "type": "string"
            },
            {
              "indexed": false,
              "internalType": "string",
              "name": "symbol",
              "type": "string"
            },
            {
              "indexed": false,
              "internalType": "string",
              "name": "handle",
              "type": "string"
            },
            {
              "indexed": false,
              "internalType": "string",
              "name": "platform",
              "type": "string"
            },
            {
              "indexed": false,
              "internalType": "string",
              "name": "profileUrl",
              "type": "string"
            }
          ],
          "name": "TokenDeployed",
          "type": "event"
        },
        {
          "inputs": [],
          "name": "FEE_TIER",
          "outputs": [
            {
              "internalType": "uint24",
              "name": "",
              "type": "uint24"
            }
          ],
          "stateMutability": "view",
          "type": "function"
        },
        {
          "inputs": [
            {
              "internalType": "uint256",
              "name": "",
              "type": "uint256"
            }
          ],
          "name": "allTokens",
          "outputs": [
            {
              "internalType": "address",
              "name": "",
              "type": "address"
            }
          ],
          "stateMutability": "view",
          "type": "function"
        },
        {
          "inputs": [
            {
              "internalType": "string",
              "name": "name",
              "type": "string"
            },
            {
              "internalType": "string",
              "name": "symbol",
              "type": "string"
            },
            {
              "internalType": "address",
              "name": "tokenOwner",
              "type": "address"
            },
            {
              "internalType": "string",
              "name": "handle",
              "type": "string"
            },
            {
              "internalType": "string",
              "name": "platform",
              "type": "string"
            },
            {
              "internalType": "string",
              "name": "profileUrl",
              "type": "string"
            }
          ],
          "name": "deployToken",
          "outputs": [
            {
              "internalType": "address",
              "name": "",
              "type": "address"
            }
          ],
          "stateMutability": "payable",
          "type": "function"
        },
        {
          "inputs": [],
          "name": "devAddress",
          "outputs": [
            {
              "internalType": "address",
              "name": "",
              "type": "address"
            }
          ],
          "stateMutability": "view",
          "type": "function"
        },
        {
          "inputs": [],
          "name": "getAllTokens",
          "outputs": [
            {
              "internalType": "address[]",
              "name": "",
              "type": "address[]"
            }
          ],
          "stateMutability": "view",
          "type": "function"
        },
        {
          "inputs": [],
          "name": "owner",
          "outputs": [
            {
              "internalType": "address",
              "name": "",
              "type": "address"
            }
          ],
          "stateMutability": "view",
          "type": "function"
        },
        {
          "inputs": [],
          "name": "positionManager",
          "outputs": [
            {
              "internalType": "address",
              "name": "",
              "type": "address"
            }
          ],
          "stateMutability": "view",
          "type": "function"
        },
        {
          "inputs": [],
          "name": "renounceOwnership",
          "outputs": [],
          "stateMutability": "nonpayable",
          "type": "function"
        },
        {
          "inputs": [
            {
              "internalType": "address",
              "name": "newOwner",
              "type": "address"
            }
          ],
          "name": "transferOwnership",
          "outputs": [],
          "stateMutability": "nonpayable",
          "type": "function"
        },
        {
          "inputs": [],
          "name": "uniswapV3Factory",
          "outputs": [
            {
              "internalType": "address",
              "name": "",
              "type": "address"
            }
          ],
          "stateMutability": "view",
          "type": "function"
        },
        {
          "inputs": [
            {
              "internalType": "address",
              "name": "",
              "type": "address"
            }
          ],
          "name": "userToToken",
          "outputs": [
            {
              "internalType": "address",
              "name": "",
              "type": "address"
            }
          ],
          "stateMutability": "view",
          "type": "function"
        },
        {
          "inputs": [],
          "name": "weth",
          "outputs": [
            {
              "internalType": "address",
              "name": "",
              "type": "address"
            }
          ],
          "stateMutability": "view",
          "type": "function"
        },
        {
          "inputs": [],
          "name": "withdrawETH",
          "outputs": [],
          "stateMutability": "nonpayable",
          "type": "function"
        },
        {
          "stateMutability": "payable",
          "type": "receive"
        }
      ],
      "evm": {
        "bytecode": {
          "linkReferences": {},
          "object": "6080346200024d57601f620036e838819003918201601f191683019291906001600160401b03841183851017620002525781608092849260409687528339810103126200024d57620000518162000268565b906020916200006283830162000268565b916200007e60606200007687840162000268565b920162000268565b91331562000235576000549060018060a01b031994338684161760005587519260018060a01b03928391823391167f8be0079c531659141344cd1fd0a4f28419497f9722a3daafe3b4186f6b6457e0600080a316928315620001f357508116928315620001b15781169384156200016d57169485156200012a575083600154161760015582600254161760025581600354161760035560045416176004555161346a90816200027e8239f35b60649087519062461bcd60e51b82526004820152601460248201527f496e76616c6964205745544820616464726573730000000000000000000000006044820152fd5b875162461bcd60e51b815260048101889052601760248201527f496e76616c696420666163746f727920616464726573730000000000000000006044820152606490fd5b60648789519062461bcd60e51b825280600483015260248201527f496e76616c696420706f736974696f6e206d616e6167657220616464726573736044820152fd5b62461bcd60e51b815260048101889052601360248201527f496e76616c6964206465762061646472657373000000000000000000000000006044820152606490fd5b8551631e4fbdf760e01b815260006004820152602490fd5b600080fd5b634e487b7160e01b600052604160045260246000fd5b51906001600160a01b03821682036200024d5756fe60808060405260043610156200001f575b5036156200001d57600080fd5b005b600090813560e01c90816328d249fe1462001263575080632a5c792a14620011955780633ad10ef6146200116a5780633fc8cef3146200113f5780634c69a6c914620011205780635b54918214620010f5578063634282af14620010ac578063715018a6146200104e578063791b98bc14620010235780638da5cb5b1462000ffa578063e086e5ec1462000f71578063f2fde38b1462000ee45763fe658a1703620000105760c036600319011262000ee15760043567ffffffffffffffff811162000edd57620000f49036906004016200135f565b60243567ffffffffffffffff811162000bfc57620001179036906004016200135f565b604435916001600160a01b038316830362000ed95760643567ffffffffffffffff811162000ed5576200014f9036906004016200135f565b9060843567ffffffffffffffff811162000ed157620001739036906004016200135f565b9060a43567ffffffffffffffff811162000ecd57620001979036906004016200135f565b90620001a2620013bb565b600080516020620034158339815191526080604051604081526015604082015274436865636b696e6720726571756972656d656e747360581b6060820152346020820152a16001600160a01b038681168852600560205260408820541662000e7d576001600160a01b0386161562000e425766038d7ea4c68000341062000dfd576000805160206200341583398151915260806040516040815260156040820152742232b83637bcb4b7339029b7b1b4b0b62a37b5b2b760591b6060820152896020820152a1600154600254604051916001600160a01b03908116911667ffffffffffffffff611fc984019081119084111762000de9576200033c6200032584936200035393611fc96200144c8739610100611fc9870152620002e9620002d2610100611fc98901018a620013e8565b611fc9880181036020611fc98a0101528d620013e8565b918d60018060a01b03166040611fc9890101526060611fc9880101526080611fc987010152611fc98501810360a0611fc98701015289620013e8565b611fc98401810360c0611fc98601015287620013e8565b611fc98301810360e0611fc98501015285620013e8565b039088f0801562000dde576001600160a01b03878116895260056020526040892080546001600160a01b0319169290911691821790556006549096906801000000000000000081101562000dca57806001620003b39201600655620012bc565b81546001600160a01b0360039290921b91821b19169089901b1790556040516318160ddd60e01b81526020816004818b5afa90811562000a4457899162000d91575b5060a060008051602062003415833981519152916040519060408252602360408301527f5472616e7366657272696e6720746f6b656e7320746f20546f6b656e466163746060830152626f727960e81b60808301526020820152a16040516318160ddd60e01b8152936020856004818b5afa94851562000a4457899562000d57575b506000805160206200341583398151915260a060405160408152602f60408201527f417070726f76696e6720746f6b656e7320666f72204e6f6e66756e6769626c6560608201526e2837b9b4ba34b7b726b0b730b3b2b960891b6080820152876020820152a160025460405163095ea7b360e01b81526001600160a01b039091166004820152602481018690526020816044818d8d5af190811562000d4c578a9162000d0a575b501562000cd35760008051602062003415833981519152608060405160408152601760408201527f436865636b696e6720706f6f6c206578697374656e636500000000000000000060608201528b6020820152a160018060a01b03600454169489899680826040805162000592816200130a565b8281528260208201520152808c1162000cc8575b5062000610602060405199620005bc8b6200130a565b6001600160a01b03908116808c52938116828c01819052610bb86040808e018290526003549051630b4c774160e11b8152600481019790975260248701929092526044860152169291829081906064820190565b0381855afa90811562000cbd57839162000c99575b506001600160a01b03161562000a87575b50506000805160206200341583398151915260806040516040815260116040820152704d696e74696e67206c697175696469747960781b6060820152346020820152a160025486516020909701516001600160a01b039182169782168b8114939290911691831562000a7f5780935b1562000a7957508b5b61012c4201421162000a6557604051908161016081011067ffffffffffffffff6101608401111762000a4f576080946101409461016494610160850160405284526020840152610bb860408401526102571960608401526102588684015260a083015260c08201528c60e08201528c6101008201528b61012082015261012c4201838201526040519889938492634418b22b60e11b845260018060a01b03815116600485015260018060a01b03602082015116602485015262ffffff6040820151166044850152606081015160020b60648501528681015160020b608485015260a081015160a485015260c081015160c485015260e081015160e485015261010081015161010485015260018060a01b0361012082015116610124850152015161014483015234905af195861562000a445789978a968b98620009d2575b5060008051602062003415833981519152608060405160408152601960408201527f53657474696e6720706f736974696f6e20746f6b656e2049440000000000000060608201528b6020820152a1893b15620009a0578a80808c60248d604051948593849263f71b668160e01b845260048401525af18015620009c757620009af575b5050893b15620009a05760405163f2fde38b60e01b81526001600160a01b03851660048201528b81602481838f5af18015620009a45762000988575b50888888888d7f71367ae73260b1c5a8e707d05a95834f62c68d3275284ce234e59a685fa7dc296200092760209b6200096d849c62000953869d620009457f64b83944e79c3ce8d4c297411de637c3e102d064677aac0c163976ebdcd6f50e9e6200093660609f604051998a9960a08b5260a08b0190620013e8565b9089820360208b0152620013e8565b908782036040890152620013e8565b908582038e870152620013e8565b83810360808501526001600160a01b0390911696620013e8565b0390a3604051928352878301526040820152a2604051908152f35b620009948c9162001327565b620009a0578a620008ab565b8a80fd5b6040513d8e823e3d90fd5b620009ba9062001327565b620009a0578a386200086f565b6040513d84823e3d90fd5b9850965094506080873d60801162000a3b575b81620009f4608093836200133c565b8101031262000a375786519460208801516fffffffffffffffffffffffffffffffff81160362000a3357606060408901519801519597959638620007ec565b8980fd5b8880fd5b3d9150620009e5565b6040513d8b823e3d90fd5b634e487b7160e01b600052604160045260246000fd5b634e487b7160e01b8d52601160045260248dfd5b620006ae565b8c93620006a5565b62000b0b9160209160008051602062003415833981519152608060405160408152600d60408201526c10dc99585d1a5b99c81c1bdbdb609a1b60608201528486820152a18951838b015160405163a167129560e01b81526001600160a01b03928316600482015291166024820152610bb86044820152938492839182906064820190565b03925af1801562000bf15762000c75575b506003548651602080890151604051630b4c774160e11b81526001600160a01b0393841660048201529083166024820152610bb8604482015292909183916064918391165afa90811562000bf1578b9162000c3f575b508a90600160c01b90600160bf1b5b82811062000c0057506001600160a01b0381163b1562000bfc5760405163f637731d60e01b81526001600160a01b0392831660048201529291839160249183918591165af1801562000bf15762000bdb575b8a9062000636565b62000be9909a919a62001327565b983862000bd3565b6040513d8d823e3d90fd5b8280fd5b9250905081801562000c2b5780600160c01b0490810180911162000a655760011c908c929162000b81565b634e487b7160e01b8d52601260045260248dfd5b62000c66915060203d60201162000c6d575b62000c5d81836200133c565b8101906200142a565b3862000b72565b503d62000c51565b62000c919060203d60201162000c6d5762000c5d81836200133c565b503862000b1c565b62000cb6915060203d60201162000c6d5762000c5d81836200133c565b3862000625565b6040513d85823e3d90fd5b9750508938620005a6565b60405162461bcd60e51b815260206004820152600f60248201526e105c1c1c9bdd985b0819985a5b1959608a1b6044820152606490fd5b90506020813d60201162000d43575b8162000d28602093836200133c565b8101031262000a335751801515810362000a3357386200051e565b3d915062000d19565b6040513d8c823e3d90fd5b9094506020813d60201162000d88575b8162000d76602093836200133c565b8101031262000a375751933862000477565b3d915062000d67565b90506020813d60201162000dc1575b8162000daf602093836200133c565b8101031262000a37575160a0620003f5565b3d915062000da0565b634e487b7160e01b89526041600452602489fd5b6040513d89823e3d90fd5b634e487b7160e01b8a52604160045260248afd5b60405162461bcd60e51b815260206004820152601e60248201527f496e73756666696369656e742045544820666f72206c697175696469747900006044820152606490fd5b60405162461bcd60e51b815260206004820152601360248201527224b73b30b634b2103a37b5b2b71037bbb732b960691b6044820152606490fd5b60405162461bcd60e51b815260206004820152602260248201527f546f6b656e20616c72656164792065786973747320666f72207468697320757360448201526132b960f11b6064820152608490fd5b8680fd5b8580fd5b8480fd5b8380fd5b5080fd5b80fd5b503462000ee157602036600319011262000ee15762000f02620012a0565b62000f0c620013bb565b6001600160a01b0390811690811562000f585782546001600160a01b0319811683178455167f8be0079c531659141344cd1fd0a4f28419497f9722a3daafe3b4186f6b6457e08380a380f35b604051631e4fbdf760e01b815260048101849052602490fd5b503462000ee1578060031936011262000ee15762000f8e620013bb565b47801562000fc057815482918291829182916001600160a01b031682f11562000fb45780f35b604051903d90823e3d90fd5b60405162461bcd60e51b81526020600482015260126024820152714e6f2045544820746f20776974686472617760701b6044820152606490fd5b503462000ee1578060031936011262000ee157546040516001600160a01b039091168152602090f35b503462000ee1578060031936011262000ee1576002546040516001600160a01b039091168152602090f35b503462000ee1578060031936011262000ee1576200106b620013bb565b80546001600160a01b03198116825581906001600160a01b03167f8be0079c531659141344cd1fd0a4f28419497f9722a3daafe3b4186f6b6457e08280a380f35b503462000ee157602036600319011262000ee1576004359060065482101562000ee1576020620010dc83620012bc565b905460405160039290921b1c6001600160a01b03168152f35b503462000ee1578060031936011262000ee1576003546040516001600160a01b039091168152602090f35b503462000ee1578060031936011262000ee1576020604051610bb88152f35b503462000ee1578060031936011262000ee1576004546040516001600160a01b039091168152602090f35b503462000ee1578060031936011262000ee1576001546040516001600160a01b039091168152602090f35b503462000ee1578060031936011262000ee15760405180916006549081835260208093018092600683527ff652222313e28459528d920b65115c16c04f3efc82aaedc97be59f3f377c0d3f90835b818110620012455750505084620011fc9103856200133c565b60405193838594850191818652518092526040850193925b8281106200122457505050500390f35b83516001600160a01b03168552869550938101939281019260010162001214565b82546001600160a01b031684529286019260019283019201620011e3565b90503462000edd57602036600319011262000edd576020916001600160a01b03906040908262001292620012a0565b168152600585522054168152f35b600435906001600160a01b0382168203620012b757565b600080fd5b600654811015620012f45760066000527ff652222313e28459528d920b65115c16c04f3efc82aaedc97be59f3f377c0d3f0190600090565b634e487b7160e01b600052603260045260246000fd5b6060810190811067ffffffffffffffff82111762000a4f57604052565b67ffffffffffffffff811162000a4f57604052565b90601f8019910116810190811067ffffffffffffffff82111762000a4f57604052565b81601f82011215620012b75780359067ffffffffffffffff821162000a4f576040519262001398601f8401601f1916602001856200133c565b82845260208383010111620012b757816000926020809301838601378301015290565b6000546001600160a01b03163303620013d057565b60405163118cdaa760e01b8152336004820152602490fd5b919082519283825260005b84811062001415575050826000602080949584010152601f8019910116010190565b602081830181015184830182015201620013f3565b90816020910312620012b757516001600160a01b0381168103620012b7579056fe6040608081523462000a645762001fc9803803806200001e8162000a69565b92833981016101008282031262000a645781516001600160401b03811162000a6457816200004e91840162000ab4565b60208301519091906001600160401b03811162000a6457816200007391850162000ab4565b6200008085850162000b0b565b6200008e6060860162000b0b565b906200009d6080870162000b0b565b60a08701519093906001600160401b03811162000a645785620000c291890162000ab4565b60c08801519097906001600160401b03811162000a645786620000e791830162000ab4565b60e08201519096906001600160401b03811162000a64576200010a920162000ab4565b865190966001600160401b038211620005fe5760035490600182811c9216801562000a59575b6020831014620005dd5781601f849311620009e4575b50602090601f831160011462000959576000926200094d575b50508160011b916000199060031b1c1916176003555b8051906001600160401b038211620005fe5760045490600182811c9216801562000942575b6020831014620005dd5781601f849311620008cd575b50602090601f8311600114620008425760009262000836575b50508160011b916000199060031b1c1916176004555b33156200081e57600580546001600160a01b031980821633908117909355946001600160a01b03948593919284929083167f8be0079c531659141344cd1fd0a4f28419497f9722a3daafe3b4186f6b6457e0600080a3168560065416176006551683600754161760075560025469d3c21bcecceda100000090818101809111620008085760025533600052600060205287600020818154019055875190815260007fddf252ad1be2c89b69c2b068fc378daa952ba7f163c4a11628f55a4df523b3ef60203393a31680600052600960205285600020600160ff19825416179055600a5468010000000000000000811015620005fe576001810180600a55811015620007f257600a6000527fc65a7bb8d6351c1cf70c95a316cc6a92839c986682d98bc35f958f4883f9d2a80180549092161790558351606081016001600160401b03811182821017620005fe5785528381526020810182815290850183815284519091906001600160401b038111620005fe57600d54600181811c91168015620007e7575b6020821014620005dd57601f81116200078e575b50806020601f8211600114620007155760009162000709575b508160011b916000199060031b1c191617600d555b518051906001600160401b038211620005fe57600e5490600182811c92168015620006fe575b6020831014620005dd5781601f8493116200069a575b50602090601f8311600114620006205760009262000614575b50508160011b916000199060031b1c191617600e555b518051906001600160401b038211620005fe57600f54600181811c91168015620005f3575b6020821014620005dd57601f811162000584575b50602090601f8311600114620004ea5760008051602062001f49833981519152959383620004cd94620004b09794620004bf94600092620004de575b50508160011b916000199060031b1c191617600f555b875195869560608752606087019062000b20565b90858203602087015262000b20565b908382038785015262000b20565b0390a151611401908162000b488239f35b01519050388062000486565b600f600090815260008051602062001fa9833981519152929190601f198516905b8181106200056b575084620004b09794620004bf9460008051602062001f498339815191529a9894620004cd986001951062000551575b505050811b01600f556200049c565b015160001960f88460031b161c1916905538808062000542565b929360206001819287860151815501950193016200050b565b600f60005260008051602062001fa9833981519152601f840160051c81019160208510620005d2575b601f0160051c01905b818110620005c557506200044a565b60008155600101620005b6565b9091508190620005ad565b634e487b7160e01b600052602260045260246000fd5b90607f169062000436565b634e487b7160e01b600052604160045260246000fd5b015190503880620003fb565b600e600090815260008051602062001f698339815191529350601f198516905b81811062000681575090846001959493921062000667575b505050811b01600e5562000411565b015160001960f88460031b161c1916905538808062000658565b9293602060018192878601518155019501930162000640565b600e60005290915060008051602062001f69833981519152601f840160051c81019160208510620006f3575b90601f859493920160051c01905b818110620006e35750620003e2565b60008155849350600101620006d4565b9091508190620006c6565b91607f1691620003cc565b90508601513862000391565b600d6000908152925060008051602062001f89833981519152905b601f198316841062000775576001935082601f198116106200075b575b5050811b01600d55620003a6565b88015160001960f88460031b161c1916905538806200074d565b8881015182556020938401936001909201910162000730565b600d60005260008051602062001f89833981519152601f830160051c81019160208410620007dc575b601f0160051c01905b818110620007cf575062000378565b60008155600101620007c0565b9091508190620007b7565b90607f169062000364565b634e487b7160e01b600052603260045260246000fd5b634e487b7160e01b600052601160045260246000fd5b8651631e4fbdf760e01b815260006004820152602490fd5b015190503880620001c9565b600460009081527f8a35acfbc15ff81a39ae7d344fd709f28e8600b4aa8c65c6b64bfe7fe36bd19b9350601f198516905b818110620008b457509084600195949392106200089a575b505050811b01600455620001df565b015160001960f88460031b161c191690553880806200088b565b9293602060018192878601518155019501930162000873565b60046000529091507f8a35acfbc15ff81a39ae7d344fd709f28e8600b4aa8c65c6b64bfe7fe36bd19b601f840160051c8101916020851062000937575b90601f859493920160051c01905b818110620009275750620001b0565b6000815584935060010162000918565b90915081906200090a565b91607f16916200019a565b0151905038806200015f565b600360009081527fc2575a0e9e593c00f959f8c92f12db2869c3395a3b0502d05e2516446f71f85b9350601f198516905b818110620009cb5750908460019594939210620009b1575b505050811b0160035562000175565b015160001960f88460031b161c19169055388080620009a2565b929360206001819287860151815501950193016200098a565b60036000529091507fc2575a0e9e593c00f959f8c92f12db2869c3395a3b0502d05e2516446f71f85b601f840160051c8101916020851062000a4e575b90601f859493920160051c01905b81811062000a3e575062000146565b6000815584935060010162000a2f565b909150819062000a21565b91607f169162000130565b600080fd5b6040519190601f01601f191682016001600160401b03811183821017620005fe57604052565b60005b83811062000aa35750506000910152565b818101518382015260200162000a92565b81601f8201121562000a645780516001600160401b038111620005fe5762000ae6601f8201601f191660200162000a69565b928184526020828401011162000a645762000b08916020808501910162000a8f565b90565b51906001600160a01b038216820362000a6457565b9060209162000b3b8151809281855285808601910162000a8f565b601f01601f191601019056fe60806040818152600480361015610021575b505050361561001f57600080fd5b005b600091823560e01c93846306fdde0314610e0c57508363095ea7b314610d6357836318160ddd14610d4457836323b872dd14610c525783632a11ced014610bfc578363313ce56714610be0578363372500ab14610a135783633ad10ef6146109ea578363436a88c1146109ce5783635dab0fe3146101745783635f96684b146106e357836370a08231146106ac578363715018a61461064f578363791b98bc1461062657836385033762146105a25783638da5cb5b1461057957836393427cd51461042357836395d89b4114610463578363a8fb7d4014610423578363a9059cbb146103f2578363bd834345146103ba578363ca0c80451461039b578363ceefe5d11461037c578363d4d7b19a1461033e578363d73792a914610322578363dd62ed3e146102d5578363f2fde38b14610246578363f71b6681146101795750505063f963812d1461017457388080610011565b610f70565b3461024257602036600319011261024257813591610195611251565b6008546102095782156101d45750816020917f0f32eddaeca0b96600faf4afdc67f1929ecfc35985aba1f8de8825d24b5e5d619360085551908152a180f35b6020606492519162461bcd60e51b8352820152601060248201526f125b9d985b1a59081d1bdad95b88125160821b6044820152fd5b6020606492519162461bcd60e51b83528201526014602482015273141bdcda5d1a5bdb88185b1c9958591e481cd95d60621b6044820152fd5b8280fd5b903461024257602036600319011261024257610260610f3f565b90610269611251565b6001600160a01b039182169283156102bf575050600554826bffffffffffffffffffffffff60a01b821617600555167f8be0079c531659141344cd1fd0a4f28419497f9722a3daafe3b4186f6b6457e08380a380f35b51631e4fbdf760e01b8152908101849052602490fd5b90503461031e578060031936011261031e57806020926102f3610f3f565b6102fb610f5a565b6001600160a01b0391821683526001865283832091168252845220549051908152f35b5080fd5b90503461031e578160031936011261031e576020905160648152f35b90503461031e57602036600319011261031e5760209160ff9082906001600160a01b03610369610f3f565b1681526009855220541690519015158152f35b90503461031e578160031936011261031e576020906008549051908152f35b90503461031e578160031936011261031e57602090600b549051908152f35b90503461031e57602036600319011261031e5760209181906001600160a01b036103e2610f3f565b168152600c845220549051908152f35b90503461031e578060031936011261031e5760209061041c610412610f3f565b602435903361127d565b5160018152f35b82346104605780600319360112610460575061043d610ffe565b61045c6104486110e9565b9261045161119d565b905193849384610f8c565b0390f35b80fd5b823461046057806003193601126104605781519181845492600184811c9181861695861561056f575b602096878510811461055c579087899a92868b999a9b5291826000146105325750506001146104d7575b858861045c896104c8848a0385610fc6565b51928284938452830190610eff565b815286935091907f8a35acfbc15ff81a39ae7d344fd709f28e8600b4aa8c65c6b64bfe7fe36bd19b5b82841061051a57505050820101816104c861045c886104b6565b8054848a018601528895508794909301928101610500565b60ff19168882015294151560051b870190940194508593506104c8925061045c91508990506104b6565b634e487b7160e01b835260228a52602483fd5b92607f169261048c565b90503461031e578160031936011261031e5760055490516001600160a01b039091168152602090f35b9034610242576020366003190112610242576105bc610f3f565b6105c4611251565b6001600160a01b03169182156105f15750506bffffffffffffffffffffffff60a01b600654161760065580f35b906020606492519162461bcd60e51b8352820152600f60248201526e496e76616c6964206164647265737360881b6044820152fd5b90503461031e578160031936011261031e5760075490516001600160a01b039091168152602090f35b8234610460578060031936011261046057610668611251565b600580546001600160a01b0319811690915581906001600160a01b03167f8be0079c531659141344cd1fd0a4f28419497f9722a3daafe3b4186f6b6457e08280a380f35b90503461031e57602036600319011261031e5760209181906001600160a01b036106d4610f3f565b16815280845220549051908152f35b82903461031e578160031936011261031e576106fd611251565b6008549081156109995760075481516001600160a01b0393918416916080820167ffffffffffffffff8111838210176109865784928697989492608492855281528860208201933085528583016fffffffffffffffffffffffffffffffff9081815281606086019181835289519c8d998a9863fc6f786560e01b8a52518d8a01525116602488015251166044860152511660648401525af1801561097c5785938691610943575b504793801580159061093a575b61091d575b505082159283156107c5578580f35b6028810281810460281485171561090a5760649004936014820291820460141417156108f7576064900493858080808785600554165af161080461137e565b50156108b457858080878194600654165af161081e61137e565b5015610872575091817f312c5308f42848705a866c73dec11fd0783c2d64aac6a97e94467062ad3f405893610857606094600b5461135b565b600b558051928284526020840152820152a181808080808580f35b6020606492519162461bcd60e51b8352820152601960248201527f4661696c656420746f2073656e642045544820746f20646576000000000000006044820152fd5b506020606492519162461bcd60e51b8352820152601b60248201527f4661696c656420746f2073656e642045544820746f206f776e657200000000006044820152fd5b634e487b7160e01b865260118252602486fd5b634e487b7160e01b875260118352602487fd5b61093292949161092c9161135b565b9061135b565b9185806107b6565b508115156107b1565b809450838092503d8311610975575b61095c8183610fc6565b810103126109715760208351930151866107a4565b8480fd5b503d610952565b82513d87823e3d90fd5b634e487b7160e01b875260418852602487fd5b5162461bcd60e51b8152602081850152601060248201526f141bdcda5d1a5bdb881b9bdd081cd95d60821b6044820152606490fd5b90503461031e578160031936011261031e576020905160148152f35b90503461031e578160031936011261031e5760065490516001600160a01b039091168152602090f35b346102425782600319360112610242573383526020908382528084205415610bb057600b548015610b77576002543386528584528286205480830292830403610b64578015610b515790610a7391338752600c85528387205491046113be565b928315610b1a57338552600c8352818520610a8f85825461135b565b9055610a9d84600b546113be565b600b558480808087335af1610ab061137e565b5015610ae45750907ffc30cddea38e2bf4d6ea7d3f9ed3b6ad7f176419f4963bd81318067a4aee73fe91519283523392a280f35b82606492519162461bcd60e51b8352820152601260248201527108cc2d2d8cac840e8de40e6cadcc8408aa8960731b6044820152fd5b82606492519162461bcd60e51b835282015260136024820152724e6f207265776172647320746f20636c61696d60681b6044820152fd5b634e487b7160e01b865260128552602486fd5b634e487b7160e01b865260118552602486fd5b505162461bcd60e51b81529182015260146024820152734e6f207265776172647320617661696c61626c6560601b604482015260649150fd5b5162461bcd60e51b815291820152600c60248201526b2737ba1030903437b63232b960a11b604482015260649150fd5b90503461031e578160031936011261031e576020905160128152f35b90346102425760203660031901126102425735600a5481101561024257600a6020935260018060a01b03907fc65a7bb8d6351c1cf70c95a316cc6a92839c986682d98bc35f958f4883f9d2a80154169051908152f35b913461046057606036600319011261046057610c6c610f3f565b610c74610f5a565b916044359360018060a01b038316808352600160205286832033845260205286832054916000198310610cb0575b60208861041c89898961127d565b868310610d18578115610d01573315610cea5750825260016020908152868320338452815291869020908590039055829061041c87610ca2565b8751634a1406b160e11b8152908101849052602490fd5b875163e602df0560e01b8152908101849052602490fd5b8751637dc7a0d960e11b8152339181019182526020820193909352604081018790528291506060010390fd5b90503461031e578160031936011261031e576020906002549051908152f35b9034610242578160031936011261024257610d7c610f3f565b602435903315610df5576001600160a01b0316918215610dde57508083602095338152600187528181208582528752205582519081527f8c5be1e5ebec7d5bd14f71427d1e84f3dd0314c0f7b2291e5b200ac8c7c3b925843392a35160018152f35b8351634a1406b160e11b8152908101859052602490fd5b835163e602df0560e01b8152808401869052602490fd5b9192903461031e578160031936011261031e578160035492600184811c91818616958615610ef5575b602096878510811461055c578899509688969785829a529182600014610ece575050600114610e72575b50505061045c92916104c8910385610fc6565b9190869350600383527fc2575a0e9e593c00f959f8c92f12db2869c3395a3b0502d05e2516446f71f85b5b828410610eb657505050820101816104c861045c610e5f565b8054848a018601528895508794909301928101610e9d565b60ff19168782015293151560051b860190930193508492506104c8915061045c9050610e5f565b92607f1692610e35565b919082519283825260005b848110610f2b575050826000602080949584010152601f8019910116010190565b602081830181015184830182015201610f0a565b600435906001600160a01b0382168203610f5557565b600080fd5b602435906001600160a01b0382168203610f5557565b34610f55576000366003190112610f5557602060405160288152f35b91610fb590610fa7610fc39593606086526060860190610eff565b908482036020860152610eff565b916040818403910152610eff565b90565b90601f8019910116810190811067ffffffffffffffff821117610fe857604052565b634e487b7160e01b600052604160045260246000fd5b604051906000600d5490600182811c908084169384156110df575b60209485841081146110cb57838852879493929181156110ab575060011461104c575b505061104a92500383610fc6565b565b90939150600d6000527fd7b6990105719101dabeb77144f2a3385c8033acd3af97e9423a695e81ad1eb5936000915b81831061109357505061104a9350820101388061103c565b8554888401850152948501948794509183019161107b565b91505061104a94925060ff191682840152151560051b820101388061103c565b634e487b7160e01b85526022600452602485fd5b91607f1691611019565b604051906000600e5490600182811c90808416938415611193575b60209485841081146110cb57838852879493929181156110ab575060011461113457505061104a92500383610fc6565b90939150600e6000527fbb7b4a454dc3493923482f07822329ed19e8244eff582cc204f8554c3620c3fd936000915b81831061117b57505061104a9350820101388061103c565b85548884018501529485019487945091830191611163565b91607f1691611104565b604051906000600f5490600182811c90808416938415611247575b60209485841081146110cb57838852879493929181156110ab57506001146111e857505061104a92500383610fc6565b90939150600f6000527f8d1108e10bcb7c27dddfc02ed9d693a074039d026cf4ea4240b40f7d581ac802936000915b81831061122f57505061104a9350820101388061103c565b85548884018501529485019487945091830191611217565b91607f16916111b8565b6005546001600160a01b0316330361126557565b60405163118cdaa760e01b8152336004820152602490fd5b916001600160a01b03808416928315611342571692831561132957600090838252816020526040822054908382106112f7575091604082827fddf252ad1be2c89b69c2b068fc378daa952ba7f163c4a11628f55a4df523b3ef958760209652828652038282205586815220818154019055604051908152a3565b60405163391434e360e21b81526001600160a01b03919091166004820152602481019190915260448101839052606490fd5b60405163ec442f0560e01b815260006004820152602490fd5b604051634b637e8f60e11b815260006004820152602490fd5b9190820180921161136857565b634e487b7160e01b600052601160045260246000fd5b3d156113b9573d9067ffffffffffffffff8211610fe857604051916113ad601f8201601f191660200184610fc6565b82523d6000602084013e565b606090565b919082039182116113685756fea2646970667358221220e66a7f31f58e15d3692faf2c8bb579f3bdc6597c274397e5fd03389176edf4ba64736f6c6343000814003341105f733c92e731673db8d7877f039f0cce3bc6436d38e5c37bce47f2a4b149bb7b4a454dc3493923482f07822329ed19e8244eff582cc204f8554c3620c3fdd7b6990105719101dabeb77144f2a3385c8033acd3af97e9423a695e81ad1eb58d1108e10bcb7c27dddfc02ed9d693a074039d026cf4ea4240b40f7d581ac8023c5ad147104e56be34a9176a6692f7df8d2f4b29a5af06bc6b98970d329d6577a26469706673582212200bbb7d6b965427f2f97700fa300a70b5a17761106fc60547d2a272a2a52a517f64736f6c63430008140033",
          "opcodes": "PUSH1 0x80 CALLVALUE PUSH3 0x24D JUMPI PUSH1 0x1F PUSH3 0x36E8 CODESIZE DUP2 SWAP1 SUB SWAP2 DUP3 ADD PUSH1 0x1F NOT AND DUP4 ADD SWAP3 SWAP2 SWAP1 PUSH1 0x1 PUSH1 0x1 PUSH1 0x40 SHL SUB DUP5 GT DUP4 DUP6 LT OR PUSH3 0x252 JUMPI DUP2 PUSH1 0x80 SWAP3 DUP5 SWAP3 PUSH1 0x40 SWAP7 DUP8 MSTORE DUP4 CODECOPY DUP2 ADD SUB SLT PUSH3 0x24D JUMPI PUSH3 0x51 DUP2 PUSH3 0x268 JUMP JUMPDEST SWAP1 PUSH1 0x20 SWAP2 PUSH3 0x62 DUP4 DUP4 ADD PUSH3 0x268 JUMP JUMPDEST SWAP2 PUSH3 0x7E PUSH1 0x60 PUSH3 0x76 DUP8 DUP5 ADD PUSH3 0x268 JUMP JUMPDEST SWAP3 ADD PUSH3 0x268 JUMP JUMPDEST SWAP2 CALLER ISZERO PUSH3 0x235 JUMPI PUSH1 0x0 SLOAD SWAP1 PUSH1 0x1 DUP1 PUSH1 0xA0 SHL SUB NOT SWAP5 CALLER DUP7 DUP5 AND OR PUSH1 0x0 SSTORE DUP8 MLOAD SWAP3 PUSH1 0x1 DUP1 PUSH1 0xA0 SHL SUB SWAP3 DUP4 SWAP2 DUP3 CALLER SWAP2 AND PUSH32 0x8BE0079C531659141344CD1FD0A4F28419497F9722A3DAAFE3B4186F6B6457E0 PUSH1 0x0 DUP1 LOG3 AND SWAP3 DUP4 ISZERO PUSH3 0x1F3 JUMPI POP DUP2 AND SWAP3 DUP4 ISZERO PUSH3 0x1B1 JUMPI DUP2 AND SWAP4 DUP5 ISZERO PUSH3 0x16D JUMPI AND SWAP5 DUP6 ISZERO PUSH3 0x12A JUMPI POP DUP4 PUSH1 0x1 SLOAD AND OR PUSH1 0x1 SSTORE DUP3 PUSH1 0x2 SLOAD AND OR PUSH1 0x2 SSTORE DUP2 PUSH1 0x3 SLOAD AND OR PUSH1 0x3 SSTORE PUSH1 0x4 SLOAD AND OR PUSH1 0x4 SSTORE MLOAD PUSH2 0x346A SWAP1 DUP2 PUSH3 0x27E DUP3 CODECOPY RETURN JUMPDEST PUSH1 0x64 SWAP1 DUP8 MLOAD SWAP1 PUSH3 0x461BCD PUSH1 0xE5 SHL DUP3 MSTORE PUSH1 0x4 DUP3 ADD MSTORE PUSH1 0x14 PUSH1 0x24 DUP3 ADD MSTORE PUSH32 0x496E76616C696420574554482061646472657373000000000000000000000000 PUSH1 0x44 DUP3 ADD MSTORE REVERT JUMPDEST DUP8 MLOAD PUSH3 0x461BCD PUSH1 0xE5 SHL DUP2 MSTORE PUSH1 0x4 DUP2 ADD DUP9 SWAP1 MSTORE PUSH1 0x17 PUSH1 0x24 DUP3 ADD MSTORE PUSH32 0x496E76616C696420666163746F72792061646472657373000000000000000000 PUSH1 0x44 DUP3 ADD MSTORE PUSH1 0x64 SWAP1 REVERT JUMPDEST PUSH1 0x64 DUP8 DUP10 MLOAD SWAP1 PUSH3 0x461BCD PUSH1 0xE5 SHL DUP3 MSTORE DUP1 PUSH1 0x4 DUP4 ADD MSTORE PUSH1 0x24 DUP3 ADD MSTORE PUSH32 0x496E76616C696420706F736974696F6E206D616E616765722061646472657373 PUSH1 0x44 DUP3 ADD MSTORE REVERT JUMPDEST PUSH3 0x461BCD PUSH1 0xE5 SHL DUP2 MSTORE PUSH1 0x4 DUP2 ADD DUP9 SWAP1 MSTORE PUSH1 0x13 PUSH1 0x24 DUP3 ADD MSTORE PUSH32 0x496E76616C696420646576206164647265737300000000000000000000000000 PUSH1 0x44 DUP3 ADD MSTORE PUSH1 0x64 SWAP1 REVERT JUMPDEST DUP6 MLOAD PUSH4 0x1E4FBDF7 PUSH1 0xE0 SHL DUP2 MSTORE PUSH1 0x0 PUSH1 0x4 DUP3 ADD MSTORE PUSH1 0x24 SWAP1 REVERT JUMPDEST PUSH1 0x0 DUP1 REVERT JUMPDEST PUSH4 0x4E487B71 PUSH1 0xE0 SHL PUSH1 0x0 MSTORE PUSH1 0x41 PUSH1 0x4 MSTORE PUSH1 0x24 PUSH1 0x0 REVERT JUMPDEST MLOAD SWAP1 PUSH1 0x1 PUSH1 0x1 PUSH1 0xA0 SHL SUB DUP3 AND DUP3 SUB PUSH3 0x24D JUMPI JUMP INVALID PUSH1 0x80 DUP1 PUSH1 0x40 MSTORE PUSH1 0x4 CALLDATASIZE LT ISZERO PUSH3 0x1F JUMPI JUMPDEST POP CALLDATASIZE ISZERO PUSH3 0x1D JUMPI PUSH1 0x0 DUP1 REVERT JUMPDEST STOP JUMPDEST PUSH1 0x0 SWAP1 DUP2 CALLDATALOAD PUSH1 0xE0 SHR SWAP1 DUP2 PUSH4 0x28D249FE EQ PUSH3 0x1263 JUMPI POP DUP1 PUSH4 0x2A5C792A EQ PUSH3 0x1195 JUMPI DUP1 PUSH4 0x3AD10EF6 EQ PUSH3 0x116A JUMPI DUP1 PUSH4 0x3FC8CEF3 EQ PUSH3 0x113F JUMPI DUP1 PUSH4 0x4C69A6C9 EQ PUSH3 0x1120 JUMPI DUP1 PUSH4 0x5B549182 EQ PUSH3 0x10F5 JUMPI DUP1 PUSH4 0x634282AF EQ PUSH3 0x10AC JUMPI DUP1 PUSH4 0x715018A6 EQ PUSH3 0x104E JUMPI DUP1 PUSH4 0x791B98BC EQ PUSH3 0x1023 JUMPI DUP1 PUSH4 0x8DA5CB5B EQ PUSH3 0xFFA JUMPI DUP1 PUSH4 0xE086E5EC EQ PUSH3 0xF71 JUMPI DUP1 PUSH4 0xF2FDE38B EQ PUSH3 0xEE4 JUMPI PUSH4 0xFE658A17 SUB PUSH3 0x10 JUMPI PUSH1 0xC0 CALLDATASIZE PUSH1 0x3 NOT ADD SLT PUSH3 0xEE1 JUMPI PUSH1 0x4 CALLDATALOAD PUSH8 0xFFFFFFFFFFFFFFFF DUP2 GT PUSH3 0xEDD JUMPI PUSH3 0xF4 SWAP1 CALLDATASIZE SWAP1 PUSH1 0x4 ADD PUSH3 0x135F JUMP JUMPDEST PUSH1 0x24 CALLDATALOAD PUSH8 0xFFFFFFFFFFFFFFFF DUP2 GT PUSH3 0xBFC JUMPI PUSH3 0x117 SWAP1 CALLDATASIZE SWAP1 PUSH1 0x4 ADD PUSH3 0x135F JUMP JUMPDEST PUSH1 0x44 CALLDATALOAD SWAP2 PUSH1 0x1 PUSH1 0x1 PUSH1 0xA0 SHL SUB DUP4 AND DUP4 SUB PUSH3 0xED9 JUMPI PUSH1 0x64 CALLDATALOAD PUSH8 0xFFFFFFFFFFFFFFFF DUP2 GT PUSH3 0xED5 JUMPI PUSH3 0x14F SWAP1 CALLDATASIZE SWAP1 PUSH1 0x4 ADD PUSH3 0x135F JUMP JUMPDEST SWAP1 PUSH1 0x84 CALLDATALOAD PUSH8 0xFFFFFFFFFFFFFFFF DUP2 GT PUSH3 0xED1 JUMPI PUSH3 0x173 SWAP1 CALLDATASIZE SWAP1 PUSH1 0x4 ADD PUSH3 0x135F JUMP JUMPDEST SWAP1 PUSH1 0xA4 CALLDATALOAD PUSH8 0xFFFFFFFFFFFFFFFF DUP2 GT PUSH3 0xECD JUMPI PUSH3 0x197 SWAP1 CALLDATASIZE SWAP1 PUSH1 0x4 ADD PUSH3 0x135F JUMP JUMPDEST SWAP1 PUSH3 0x1A2 PUSH3 0x13BB JUMP JUMPDEST PUSH1 0x0 DUP1 MLOAD PUSH1 0x20 PUSH3 0x3415 DUP4 CODECOPY DUP2 MLOAD SWAP2 MSTORE PUSH1 0x80 PUSH1 0x40 MLOAD PUSH1 0x40 DUP2 MSTORE PUSH1 0x15 PUSH1 0x40 DUP3 ADD MSTORE PUSH21 0x436865636B696E6720726571756972656D656E7473 PUSH1 0x58 SHL PUSH1 0x60 DUP3 ADD MSTORE CALLVALUE PUSH1 0x20 DUP3 ADD MSTORE LOG1 PUSH1 0x1 PUSH1 0x1 PUSH1 0xA0 SHL SUB DUP7 DUP2 AND DUP9 MSTORE PUSH1 0x5 PUSH1 0x20 MSTORE PUSH1 0x40 DUP9 KECCAK256 SLOAD AND PUSH3 0xE7D JUMPI PUSH1 0x1 PUSH1 0x1 PUSH1 0xA0 SHL SUB DUP7 AND ISZERO PUSH3 0xE42 JUMPI PUSH7 0x38D7EA4C68000 CALLVALUE LT PUSH3 0xDFD JUMPI PUSH1 0x0 DUP1 MLOAD PUSH1 0x20 PUSH3 0x3415 DUP4 CODECOPY DUP2 MLOAD SWAP2 MSTORE PUSH1 0x80 PUSH1 0x40 MLOAD PUSH1 0x40 DUP2 MSTORE PUSH1 0x15 PUSH1 0x40 DUP3 ADD MSTORE PUSH21 0x2232B83637BCB4B7339029B7B1B4B0B62A37B5B2B7 PUSH1 0x59 SHL PUSH1 0x60 DUP3 ADD MSTORE DUP10 PUSH1 0x20 DUP3 ADD MSTORE LOG1 PUSH1 0x1 SLOAD PUSH1 0x2 SLOAD PUSH1 0x40 MLOAD SWAP2 PUSH1 0x1 PUSH1 0x1 PUSH1 0xA0 SHL SUB SWAP1 DUP2 AND SWAP2 AND PUSH8 0xFFFFFFFFFFFFFFFF PUSH2 0x1FC9 DUP5 ADD SWAP1 DUP2 GT SWAP1 DUP5 GT OR PUSH3 0xDE9 JUMPI PUSH3 0x33C PUSH3 0x325 DUP5 SWAP4 PUSH3 0x353 SWAP4 PUSH2 0x1FC9 PUSH3 0x144C DUP8 CODECOPY PUSH2 0x100 PUSH2 0x1FC9 DUP8 ADD MSTORE PUSH3 0x2E9 PUSH3 0x2D2 PUSH2 0x100 PUSH2 0x1FC9 DUP10 ADD ADD DUP11 PUSH3 0x13E8 JUMP JUMPDEST PUSH2 0x1FC9 DUP9 ADD DUP2 SUB PUSH1 0x20 PUSH2 0x1FC9 DUP11 ADD ADD MSTORE DUP14 PUSH3 0x13E8 JUMP JUMPDEST SWAP2 DUP14 PUSH1 0x1 DUP1 PUSH1 0xA0 SHL SUB AND PUSH1 0x40 PUSH2 0x1FC9 DUP10 ADD ADD MSTORE PUSH1 0x60 PUSH2 0x1FC9 DUP9 ADD ADD MSTORE PUSH1 0x80 PUSH2 0x1FC9 DUP8 ADD ADD MSTORE PUSH2 0x1FC9 DUP6 ADD DUP2 SUB PUSH1 0xA0 PUSH2 0x1FC9 DUP8 ADD ADD MSTORE DUP10 PUSH3 0x13E8 JUMP JUMPDEST PUSH2 0x1FC9 DUP5 ADD DUP2 SUB PUSH1 0xC0 PUSH2 0x1FC9 DUP7 ADD ADD MSTORE DUP8 PUSH3 0x13E8 JUMP JUMPDEST PUSH2 0x1FC9 DUP4 ADD DUP2 SUB PUSH1 0xE0 PUSH2 0x1FC9 DUP6 ADD ADD MSTORE DUP6 PUSH3 0x13E8 JUMP JUMPDEST SUB SWAP1 DUP9 CREATE DUP1 ISZERO PUSH3 0xDDE JUMPI PUSH1 0x1 PUSH1 0x1 PUSH1 0xA0 SHL SUB DUP8 DUP2 AND DUP10 MSTORE PUSH1 0x5 PUSH1 0x20 MSTORE PUSH1 0x40 DUP10 KECCAK256 DUP1 SLOAD PUSH1 0x1 PUSH1 0x1 PUSH1 0xA0 SHL SUB NOT AND SWAP3 SWAP1 SWAP2 AND SWAP2 DUP3 OR SWAP1 SSTORE PUSH1 0x6 SLOAD SWAP1 SWAP7 SWAP1 PUSH9 0x10000000000000000 DUP2 LT ISZERO PUSH3 0xDCA JUMPI DUP1 PUSH1 0x1 PUSH3 0x3B3 SWAP3 ADD PUSH1 0x6 SSTORE PUSH3 0x12BC JUMP JUMPDEST DUP2 SLOAD PUSH1 0x1 PUSH1 0x1 PUSH1 0xA0 SHL SUB PUSH1 0x3 SWAP3 SWAP1 SWAP3 SHL SWAP2 DUP3 SHL NOT AND SWAP1 DUP10 SWAP1 SHL OR SWAP1 SSTORE PUSH1 0x40 MLOAD PUSH4 0x18160DDD PUSH1 0xE0 SHL DUP2 MSTORE PUSH1 0x20 DUP2 PUSH1 0x4 DUP2 DUP12 GAS STATICCALL SWAP1 DUP2 ISZERO PUSH3 0xA44 JUMPI DUP10 SWAP2 PUSH3 0xD91 JUMPI JUMPDEST POP PUSH1 0xA0 PUSH1 0x0 DUP1 MLOAD PUSH1 0x20 PUSH3 0x3415 DUP4 CODECOPY DUP2 MLOAD SWAP2 MSTORE SWAP2 PUSH1 0x40 MLOAD SWAP1 PUSH1 0x40 DUP3 MSTORE PUSH1 0x23 PUSH1 0x40 DUP4 ADD MSTORE PUSH32 0x5472616E7366657272696E6720746F6B656E7320746F20546F6B656E46616374 PUSH1 0x60 DUP4 ADD MSTORE PUSH3 0x6F7279 PUSH1 0xE8 SHL PUSH1 0x80 DUP4 ADD MSTORE PUSH1 0x20 DUP3 ADD MSTORE LOG1 PUSH1 0x40 MLOAD PUSH4 0x18160DDD PUSH1 0xE0 SHL DUP2 MSTORE SWAP4 PUSH1 0x20 DUP6 PUSH1 0x4 DUP2 DUP12 GAS STATICCALL SWAP5 DUP6 ISZERO PUSH3 0xA44 JUMPI DUP10 SWAP6 PUSH3 0xD57 JUMPI JUMPDEST POP PUSH1 0x0 DUP1 MLOAD PUSH1 0x20 PUSH3 0x3415 DUP4 CODECOPY DUP2 MLOAD SWAP2 MSTORE PUSH1 0xA0 PUSH1 0x40 MLOAD PUSH1 0x40 DUP2 MSTORE PUSH1 0x2F PUSH1 0x40 DUP3 ADD MSTORE PUSH32 0x417070726F76696E6720746F6B656E7320666F72204E6F6E66756E6769626C65 PUSH1 0x60 DUP3 ADD MSTORE PUSH15 0x2837B9B4BA34B7B726B0B730B3B2B9 PUSH1 0x89 SHL PUSH1 0x80 DUP3 ADD MSTORE DUP8 PUSH1 0x20 DUP3 ADD MSTORE LOG1 PUSH1 0x2 SLOAD PUSH1 0x40 MLOAD PUSH4 0x95EA7B3 PUSH1 0xE0 SHL DUP2 MSTORE PUSH1 0x1 PUSH1 0x1 PUSH1 0xA0 SHL SUB SWAP1 SWAP2 AND PUSH1 0x4 DUP3 ADD MSTORE PUSH1 0x24 DUP2 ADD DUP7 SWAP1 MSTORE PUSH1 0x20 DUP2 PUSH1 0x44 DUP2 DUP14 DUP14 GAS CALL SWAP1 DUP2 ISZERO PUSH3 0xD4C JUMPI DUP11 SWAP2 PUSH3 0xD0A JUMPI JUMPDEST POP ISZERO PUSH3 0xCD3 JUMPI PUSH1 0x0 DUP1 MLOAD PUSH1 0x20 PUSH3 0x3415 DUP4 CODECOPY DUP2 MLOAD SWAP2 MSTORE PUSH1 0x80 PUSH1 0x40 MLOAD PUSH1 0x40 DUP2 MSTORE PUSH1 0x17 PUSH1 0x40 DUP3 ADD MSTORE PUSH32 0x436865636B696E6720706F6F6C206578697374656E6365000000000000000000 PUSH1 0x60 DUP3 ADD MSTORE DUP12 PUSH1 0x20 DUP3 ADD MSTORE LOG1 PUSH1 0x1 DUP1 PUSH1 0xA0 SHL SUB PUSH1 0x4 SLOAD AND SWAP5 DUP10 DUP10 SWAP7 DUP1 DUP3 PUSH1 0x40 DUP1 MLOAD PUSH3 0x592 DUP2 PUSH3 0x130A JUMP JUMPDEST DUP3 DUP2 MSTORE DUP3 PUSH1 0x20 DUP3 ADD MSTORE ADD MSTORE DUP1 DUP13 GT PUSH3 0xCC8 JUMPI JUMPDEST POP PUSH3 0x610 PUSH1 0x20 PUSH1 0x40 MLOAD SWAP10 PUSH3 0x5BC DUP12 PUSH3 0x130A JUMP JUMPDEST PUSH1 0x1 PUSH1 0x1 PUSH1 0xA0 SHL SUB SWAP1 DUP2 AND DUP1 DUP13 MSTORE SWAP4 DUP2 AND DUP3 DUP13 ADD DUP2 SWAP1 MSTORE PUSH2 0xBB8 PUSH1 0x40 DUP1 DUP15 ADD DUP3 SWAP1 MSTORE PUSH1 0x3 SLOAD SWAP1 MLOAD PUSH4 0xB4C7741 PUSH1 0xE1 SHL DUP2 MSTORE PUSH1 0x4 DUP2 ADD SWAP8 SWAP1 SWAP8 MSTORE PUSH1 0x24 DUP8 ADD SWAP3 SWAP1 SWAP3 MSTORE PUSH1 0x44 DUP7 ADD MSTORE AND SWAP3 SWAP2 DUP3 SWAP1 DUP2 SWAP1 PUSH1 0x64 DUP3 ADD SWAP1 JUMP JUMPDEST SUB DUP2 DUP6 GAS STATICCALL SWAP1 DUP2 ISZERO PUSH3 0xCBD JUMPI DUP4 SWAP2 PUSH3 0xC99 JUMPI JUMPDEST POP PUSH1 0x1 PUSH1 0x1 PUSH1 0xA0 SHL SUB AND ISZERO PUSH3 0xA87 JUMPI JUMPDEST POP POP PUSH1 0x0 DUP1 MLOAD PUSH1 0x20 PUSH3 0x3415 DUP4 CODECOPY DUP2 MLOAD SWAP2 MSTORE PUSH1 0x80 PUSH1 0x40 MLOAD PUSH1 0x40 DUP2 MSTORE PUSH1 0x11 PUSH1 0x40 DUP3 ADD MSTORE PUSH17 0x4D696E74696E67206C6971756964697479 PUSH1 0x78 SHL PUSH1 0x60 DUP3 ADD MSTORE CALLVALUE PUSH1 0x20 DUP3 ADD MSTORE LOG1 PUSH1 0x2 SLOAD DUP7 MLOAD PUSH1 0x20 SWAP1 SWAP8 ADD MLOAD PUSH1 0x1 PUSH1 0x1 PUSH1 0xA0 SHL SUB SWAP2 DUP3 AND SWAP8 DUP3 AND DUP12 DUP2 EQ SWAP4 SWAP3 SWAP1 SWAP2 AND SWAP2 DUP4 ISZERO PUSH3 0xA7F JUMPI DUP1 SWAP4 JUMPDEST ISZERO PUSH3 0xA79 JUMPI POP DUP12 JUMPDEST PUSH2 0x12C TIMESTAMP ADD TIMESTAMP GT PUSH3 0xA65 JUMPI PUSH1 0x40 MLOAD SWAP1 DUP2 PUSH2 0x160 DUP2 ADD LT PUSH8 0xFFFFFFFFFFFFFFFF PUSH2 0x160 DUP5 ADD GT OR PUSH3 0xA4F JUMPI PUSH1 0x80 SWAP5 PUSH2 0x140 SWAP5 PUSH2 0x164 SWAP5 PUSH2 0x160 DUP6 ADD PUSH1 0x40 MSTORE DUP5 MSTORE PUSH1 0x20 DUP5 ADD MSTORE PUSH2 0xBB8 PUSH1 0x40 DUP5 ADD MSTORE PUSH2 0x257 NOT PUSH1 0x60 DUP5 ADD MSTORE PUSH2 0x258 DUP7 DUP5 ADD MSTORE PUSH1 0xA0 DUP4 ADD MSTORE PUSH1 0xC0 DUP3 ADD MSTORE DUP13 PUSH1 0xE0 DUP3 ADD MSTORE DUP13 PUSH2 0x100 DUP3 ADD MSTORE DUP12 PUSH2 0x120 DUP3 ADD MSTORE PUSH2 0x12C TIMESTAMP ADD DUP4 DUP3 ADD MSTORE PUSH1 0x40 MLOAD SWAP9 DUP10 SWAP4 DUP5 SWAP3 PUSH4 0x4418B22B PUSH1 0xE1 SHL DUP5 MSTORE PUSH1 0x1 DUP1 PUSH1 0xA0 SHL SUB DUP2 MLOAD AND PUSH1 0x4 DUP6 ADD MSTORE PUSH1 0x1 DUP1 PUSH1 0xA0 SHL SUB PUSH1 0x20 DUP3 ADD MLOAD AND PUSH1 0x24 DUP6 ADD MSTORE PUSH3 0xFFFFFF PUSH1 0x40 DUP3 ADD MLOAD AND PUSH1 0x44 DUP6 ADD MSTORE PUSH1 0x60 DUP2 ADD MLOAD PUSH1 0x2 SIGNEXTEND PUSH1 0x64 DUP6 ADD MSTORE DUP7 DUP2 ADD MLOAD PUSH1 0x2 SIGNEXTEND PUSH1 0x84 DUP6 ADD MSTORE PUSH1 0xA0 DUP2 ADD MLOAD PUSH1 0xA4 DUP6 ADD MSTORE PUSH1 0xC0 DUP2 ADD MLOAD PUSH1 0xC4 DUP6 ADD MSTORE PUSH1 0xE0 DUP2 ADD MLOAD PUSH1 0xE4 DUP6 ADD MSTORE PUSH2 0x100 DUP2 ADD MLOAD PUSH2 0x104 DUP6 ADD MSTORE PUSH1 0x1 DUP1 PUSH1 0xA0 SHL SUB PUSH2 0x120 DUP3 ADD MLOAD AND PUSH2 0x124 DUP6 ADD MSTORE ADD MLOAD PUSH2 0x144 DUP4 ADD MSTORE CALLVALUE SWAP1 GAS CALL SWAP6 DUP7 ISZERO PUSH3 0xA44 JUMPI DUP10 SWAP8 DUP11 SWAP7 DUP12 SWAP9 PUSH3 0x9D2 JUMPI JUMPDEST POP PUSH1 0x0 DUP1 MLOAD PUSH1 0x20 PUSH3 0x3415 DUP4 CODECOPY DUP2 MLOAD SWAP2 MSTORE PUSH1 0x80 PUSH1 0x40 MLOAD PUSH1 0x40 DUP2 MSTORE PUSH1 0x19 PUSH1 0x40 DUP3 ADD MSTORE PUSH32 0x53657474696E6720706F736974696F6E20746F6B656E20494400000000000000 PUSH1 0x60 DUP3 ADD MSTORE DUP12 PUSH1 0x20 DUP3 ADD MSTORE LOG1 DUP10 EXTCODESIZE ISZERO PUSH3 0x9A0 JUMPI DUP11 DUP1 DUP1 DUP13 PUSH1 0x24 DUP14 PUSH1 0x40 MLOAD SWAP5 DUP6 SWAP4 DUP5 SWAP3 PUSH4 0xF71B6681 PUSH1 0xE0 SHL DUP5 MSTORE PUSH1 0x4 DUP5 ADD MSTORE GAS CALL DUP1 ISZERO PUSH3 0x9C7 JUMPI PUSH3 0x9AF JUMPI JUMPDEST POP POP DUP10 EXTCODESIZE ISZERO PUSH3 0x9A0 JUMPI PUSH1 0x40 MLOAD PUSH4 0xF2FDE38B PUSH1 0xE0 SHL DUP2 MSTORE PUSH1 0x1 PUSH1 0x1 PUSH1 0xA0 SHL SUB DUP6 AND PUSH1 0x4 DUP3 ADD MSTORE DUP12 DUP2 PUSH1 0x24 DUP2 DUP4 DUP16 GAS CALL DUP1 ISZERO PUSH3 0x9A4 JUMPI PUSH3 0x988 JUMPI JUMPDEST POP DUP9 DUP9 DUP9 DUP9 DUP14 PUSH32 0x71367AE73260B1C5A8E707D05A95834F62C68D3275284CE234E59A685FA7DC29 PUSH3 0x927 PUSH1 0x20 SWAP12 PUSH3 0x96D DUP5 SWAP13 PUSH3 0x953 DUP7 SWAP14 PUSH3 0x945 PUSH32 0x64B83944E79C3CE8D4C297411DE637C3E102D064677AAC0C163976EBDCD6F50E SWAP15 PUSH3 0x936 PUSH1 0x60 SWAP16 PUSH1 0x40 MLOAD SWAP10 DUP11 SWAP10 PUSH1 0xA0 DUP12 MSTORE PUSH1 0xA0 DUP12 ADD SWAP1 PUSH3 0x13E8 JUMP JUMPDEST SWAP1 DUP10 DUP3 SUB PUSH1 0x20 DUP12 ADD MSTORE PUSH3 0x13E8 JUMP JUMPDEST SWAP1 DUP8 DUP3 SUB PUSH1 0x40 DUP10 ADD MSTORE PUSH3 0x13E8 JUMP JUMPDEST SWAP1 DUP6 DUP3 SUB DUP15 DUP8 ADD MSTORE PUSH3 0x13E8 JUMP JUMPDEST DUP4 DUP2 SUB PUSH1 0x80 DUP6 ADD MSTORE PUSH1 0x1 PUSH1 0x1 PUSH1 0xA0 SHL SUB SWAP1 SWAP2 AND SWAP7 PUSH3 0x13E8 JUMP JUMPDEST SUB SWAP1 LOG3 PUSH1 0x40 MLOAD SWAP3 DUP4 MSTORE DUP8 DUP4 ADD MSTORE PUSH1 0x40 DUP3 ADD MSTORE LOG2 PUSH1 0x40 MLOAD SWAP1 DUP2 MSTORE RETURN JUMPDEST PUSH3 0x994 DUP13 SWAP2 PUSH3 0x1327 JUMP JUMPDEST PUSH3 0x9A0 JUMPI DUP11 PUSH3 0x8AB JUMP JUMPDEST DUP11 DUP1 REVERT JUMPDEST PUSH1 0x40 MLOAD RETURNDATASIZE DUP15 DUP3 RETURNDATACOPY RETURNDATASIZE SWAP1 REVERT JUMPDEST PUSH3 0x9BA SWAP1 PUSH3 0x1327 JUMP JUMPDEST PUSH3 0x9A0 JUMPI DUP11 CODESIZE PUSH3 0x86F JUMP JUMPDEST PUSH1 0x40 MLOAD RETURNDATASIZE DUP5 DUP3 RETURNDATACOPY RETURNDATASIZE SWAP1 REVERT JUMPDEST SWAP9 POP SWAP7 POP SWAP5 POP PUSH1 0x80 DUP8 RETURNDATASIZE PUSH1 0x80 GT PUSH3 0xA3B JUMPI JUMPDEST DUP2 PUSH3 0x9F4 PUSH1 0x80 SWAP4 DUP4 PUSH3 0x133C JUMP JUMPDEST DUP2 ADD SUB SLT PUSH3 0xA37 JUMPI DUP7 MLOAD SWAP5 PUSH1 0x20 DUP9 ADD MLOAD PUSH16 0xFFFFFFFFFFFFFFFFFFFFFFFFFFFFFFFF DUP2 AND SUB PUSH3 0xA33 JUMPI PUSH1 0x60 PUSH1 0x40 DUP10 ADD MLOAD SWAP9 ADD MLOAD SWAP6 SWAP8 SWAP6 SWAP7 CODESIZE PUSH3 0x7EC JUMP JUMPDEST DUP10 DUP1 REVERT JUMPDEST DUP9 DUP1 REVERT JUMPDEST RETURNDATASIZE SWAP2 POP PUSH3 0x9E5 JUMP JUMPDEST PUSH1 0x40 MLOAD RETURNDATASIZE DUP12 DUP3 RETURNDATACOPY RETURNDATASIZE SWAP1 REVERT JUMPDEST PUSH4 0x4E487B71 PUSH1 0xE0 SHL PUSH1 0x0 MSTORE PUSH1 0x41 PUSH1 0x4 MSTORE PUSH1 0x24 PUSH1 0x0 REVERT JUMPDEST PUSH4 0x4E487B71 PUSH1 0xE0 SHL DUP14 MSTORE PUSH1 0x11 PUSH1 0x4 MSTORE PUSH1 0x24 DUP14 REVERT JUMPDEST PUSH3 0x6AE JUMP JUMPDEST DUP13 SWAP4 PUSH3 0x6A5 JUMP JUMPDEST PUSH3 0xB0B SWAP2 PUSH1 0x20 SWAP2 PUSH1 0x0 DUP1 MLOAD PUSH1 0x20 PUSH3 0x3415 DUP4 CODECOPY DUP2 MLOAD SWAP2 MSTORE PUSH1 0x80 PUSH1 0x40 MLOAD PUSH1 0x40 DUP2 MSTORE PUSH1 0xD PUSH1 0x40 DUP3 ADD MSTORE PUSH13 0x10DC99585D1A5B99C81C1BDBDB PUSH1 0x9A SHL PUSH1 0x60 DUP3 ADD MSTORE DUP5 DUP7 DUP3 ADD MSTORE LOG1 DUP10 MLOAD DUP4 DUP12 ADD MLOAD PUSH1 0x40 MLOAD PUSH4 0xA1671295 PUSH1 0xE0 SHL DUP2 MSTORE PUSH1 0x1 PUSH1 0x1 PUSH1 0xA0 SHL SUB SWAP3 DUP4 AND PUSH1 0x4 DUP3 ADD MSTORE SWAP2 AND PUSH1 0x24 DUP3 ADD MSTORE PUSH2 0xBB8 PUSH1 0x44 DUP3 ADD MSTORE SWAP4 DUP5 SWAP3 DUP4 SWAP2 DUP3 SWAP1 PUSH1 0x64 DUP3 ADD SWAP1 JUMP JUMPDEST SUB SWAP3 GAS CALL DUP1 ISZERO PUSH3 0xBF1 JUMPI PUSH3 0xC75 JUMPI JUMPDEST POP PUSH1 0x3 SLOAD DUP7 MLOAD PUSH1 0x20 DUP1 DUP10 ADD MLOAD PUSH1 0x40 MLOAD PUSH4 0xB4C7741 PUSH1 0xE1 SHL DUP2 MSTORE PUSH1 0x1 PUSH1 0x1 PUSH1 0xA0 SHL SUB SWAP4 DUP5 AND PUSH1 0x4 DUP3 ADD MSTORE SWAP1 DUP4 AND PUSH1 0x24 DUP3 ADD MSTORE PUSH2 0xBB8 PUSH1 0x44 DUP3 ADD MSTORE SWAP3 SWAP1 SWAP2 DUP4 SWAP2 PUSH1 0x64 SWAP2 DUP4 SWAP2 AND GAS STATICCALL SWAP1 DUP2 ISZERO PUSH3 0xBF1 JUMPI DUP12 SWAP2 PUSH3 0xC3F JUMPI JUMPDEST POP DUP11 SWAP1 PUSH1 0x1 PUSH1 0xC0 SHL SWAP1 PUSH1 0x1 PUSH1 0xBF SHL JUMPDEST DUP3 DUP2 LT PUSH3 0xC00 JUMPI POP PUSH1 0x1 PUSH1 0x1 PUSH1 0xA0 SHL SUB DUP2 AND EXTCODESIZE ISZERO PUSH3 0xBFC JUMPI PUSH1 0x40 MLOAD PUSH4 0xF637731D PUSH1 0xE0 SHL DUP2 MSTORE PUSH1 0x1 PUSH1 0x1 PUSH1 0xA0 SHL SUB SWAP3 DUP4 AND PUSH1 0x4 DUP3 ADD MSTORE SWAP3 SWAP2 DUP4 SWAP2 PUSH1 0x24 SWAP2 DUP4 SWAP2 DUP6 SWAP2 AND GAS CALL DUP1 ISZERO PUSH3 0xBF1 JUMPI PUSH3 0xBDB JUMPI JUMPDEST DUP11 SWAP1 PUSH3 0x636 JUMP JUMPDEST PUSH3 0xBE9 SWAP1 SWAP11 SWAP2 SWAP11 PUSH3 0x1327 JUMP JUMPDEST SWAP9 CODESIZE PUSH3 0xBD3 JUMP JUMPDEST PUSH1 0x40 MLOAD RETURNDATASIZE DUP14 DUP3 RETURNDATACOPY RETURNDATASIZE SWAP1 REVERT JUMPDEST DUP3 DUP1 REVERT JUMPDEST SWAP3 POP SWAP1 POP DUP2 DUP1 ISZERO PUSH3 0xC2B JUMPI DUP1 PUSH1 0x1 PUSH1 0xC0 SHL DIV SWAP1 DUP2 ADD DUP1 SWAP2 GT PUSH3 0xA65 JUMPI PUSH1 0x1 SHR SWAP1 DUP13 SWAP3 SWAP2 PUSH3 0xB81 JUMP JUMPDEST PUSH4 0x4E487B71 PUSH1 0xE0 SHL DUP14 MSTORE PUSH1 0x12 PUSH1 0x4 MSTORE PUSH1 0x24 DUP14 REVERT JUMPDEST PUSH3 0xC66 SWAP2 POP PUSH1 0x20 RETURNDATASIZE PUSH1 0x20 GT PUSH3 0xC6D JUMPI JUMPDEST PUSH3 0xC5D DUP2 DUP4 PUSH3 0x133C JUMP JUMPDEST DUP2 ADD SWAP1 PUSH3 0x142A JUMP JUMPDEST CODESIZE PUSH3 0xB72 JUMP JUMPDEST POP RETURNDATASIZE PUSH3 0xC51 JUMP JUMPDEST PUSH3 0xC91 SWAP1 PUSH1 0x20 RETURNDATASIZE PUSH1 0x20 GT PUSH3 0xC6D JUMPI PUSH3 0xC5D DUP2 DUP4 PUSH3 0x133C JUMP JUMPDEST POP CODESIZE PUSH3 0xB1C JUMP JUMPDEST PUSH3 0xCB6 SWAP2 POP PUSH1 0x20 RETURNDATASIZE PUSH1 0x20 GT PUSH3 0xC6D JUMPI PUSH3 0xC5D DUP2 DUP4 PUSH3 0x133C JUMP JUMPDEST CODESIZE PUSH3 0x625 JUMP JUMPDEST PUSH1 0x40 MLOAD RETURNDATASIZE DUP6 DUP3 RETURNDATACOPY RETURNDATASIZE SWAP1 REVERT JUMPDEST SWAP8 POP POP DUP10 CODESIZE PUSH3 0x5A6 JUMP JUMPDEST PUSH1 0x40 MLOAD PUSH3 0x461BCD PUSH1 0xE5 SHL DUP2 MSTORE PUSH1 0x20 PUSH1 0x4 DUP3 ADD MSTORE PUSH1 0xF PUSH1 0x24 DUP3 ADD MSTORE PUSH15 0x105C1C1C9BDD985B0819985A5B1959 PUSH1 0x8A SHL PUSH1 0x44 DUP3 ADD MSTORE PUSH1 0x64 SWAP1 REVERT JUMPDEST SWAP1 POP PUSH1 0x20 DUP2 RETURNDATASIZE PUSH1 0x20 GT PUSH3 0xD43 JUMPI JUMPDEST DUP2 PUSH3 0xD28 PUSH1 0x20 SWAP4 DUP4 PUSH3 0x133C JUMP JUMPDEST DUP2 ADD SUB SLT PUSH3 0xA33 JUMPI MLOAD DUP1 ISZERO ISZERO DUP2 SUB PUSH3 0xA33 JUMPI CODESIZE PUSH3 0x51E JUMP JUMPDEST RETURNDATASIZE SWAP2 POP PUSH3 0xD19 JUMP JUMPDEST PUSH1 0x40 MLOAD RETURNDATASIZE DUP13 DUP3 RETURNDATACOPY RETURNDATASIZE SWAP1 REVERT JUMPDEST SWAP1 SWAP5 POP PUSH1 0x20 DUP2 RETURNDATASIZE PUSH1 0x20 GT PUSH3 0xD88 JUMPI JUMPDEST DUP2 PUSH3 0xD76 PUSH1 0x20 SWAP4 DUP4 PUSH3 0x133C JUMP JUMPDEST DUP2 ADD SUB SLT PUSH3 0xA37 JUMPI MLOAD SWAP4 CODESIZE PUSH3 0x477 JUMP JUMPDEST RETURNDATASIZE SWAP2 POP PUSH3 0xD67 JUMP JUMPDEST SWAP1 POP PUSH1 0x20 DUP2 RETURNDATASIZE PUSH1 0x20 GT PUSH3 0xDC1 JUMPI JUMPDEST DUP2 PUSH3 0xDAF PUSH1 0x20 SWAP4 DUP4 PUSH3 0x133C JUMP JUMPDEST DUP2 ADD SUB SLT PUSH3 0xA37 JUMPI MLOAD PUSH1 0xA0 PUSH3 0x3F5 JUMP JUMPDEST RETURNDATASIZE SWAP2 POP PUSH3 0xDA0 JUMP JUMPDEST PUSH4 0x4E487B71 PUSH1 0xE0 SHL DUP10 MSTORE PUSH1 0x41 PUSH1 0x4 MSTORE PUSH1 0x24 DUP10 REVERT JUMPDEST PUSH1 0x40 MLOAD RETURNDATASIZE DUP10 DUP3 RETURNDATACOPY RETURNDATASIZE SWAP1 REVERT JUMPDEST PUSH4 0x4E487B71 PUSH1 0xE0 SHL DUP11 MSTORE PUSH1 0x41 PUSH1 0x4 MSTORE PUSH1 0x24 DUP11 REVERT JUMPDEST PUSH1 0x40 MLOAD PUSH3 0x461BCD PUSH1 0xE5 SHL DUP2 MSTORE PUSH1 0x20 PUSH1 0x4 DUP3 ADD MSTORE PUSH1 0x1E PUSH1 0x24 DUP3 ADD MSTORE PUSH32 0x496E73756666696369656E742045544820666F72206C69717569646974790000 PUSH1 0x44 DUP3 ADD MSTORE PUSH1 0x64 SWAP1 REVERT JUMPDEST PUSH1 0x40 MLOAD PUSH3 0x461BCD PUSH1 0xE5 SHL DUP2 MSTORE PUSH1 0x20 PUSH1 0x4 DUP3 ADD MSTORE PUSH1 0x13 PUSH1 0x24 DUP3 ADD MSTORE PUSH19 0x24B73B30B634B2103A37B5B2B71037BBB732B9 PUSH1 0x69 SHL PUSH1 0x44 DUP3 ADD MSTORE PUSH1 0x64 SWAP1 REVERT JUMPDEST PUSH1 0x40 MLOAD PUSH3 0x461BCD PUSH1 0xE5 SHL DUP2 MSTORE PUSH1 0x20 PUSH1 0x4 DUP3 ADD MSTORE PUSH1 0x22 PUSH1 0x24 DUP3 ADD MSTORE PUSH32 0x546F6B656E20616C72656164792065786973747320666F722074686973207573 PUSH1 0x44 DUP3 ADD MSTORE PUSH2 0x32B9 PUSH1 0xF1 SHL PUSH1 0x64 DUP3 ADD MSTORE PUSH1 0x84 SWAP1 REVERT JUMPDEST DUP7 DUP1 REVERT JUMPDEST DUP6 DUP1 REVERT JUMPDEST DUP5 DUP1 REVERT JUMPDEST DUP4 DUP1 REVERT JUMPDEST POP DUP1 REVERT JUMPDEST DUP1 REVERT JUMPDEST POP CALLVALUE PUSH3 0xEE1 JUMPI PUSH1 0x20 CALLDATASIZE PUSH1 0x3 NOT ADD SLT PUSH3 0xEE1 JUMPI PUSH3 0xF02 PUSH3 0x12A0 JUMP JUMPDEST PUSH3 0xF0C PUSH3 0x13BB JUMP JUMPDEST PUSH1 0x1 PUSH1 0x1 PUSH1 0xA0 SHL SUB SWAP1 DUP2 AND SWAP1 DUP2 ISZERO PUSH3 0xF58 JUMPI DUP3 SLOAD PUSH1 0x1 PUSH1 0x1 PUSH1 0xA0 SHL SUB NOT DUP2 AND DUP4 OR DUP5 SSTORE AND PUSH32 0x8BE0079C531659141344CD1FD0A4F28419497F9722A3DAAFE3B4186F6B6457E0 DUP4 DUP1 LOG3 DUP1 RETURN JUMPDEST PUSH1 0x40 MLOAD PUSH4 0x1E4FBDF7 PUSH1 0xE0 SHL DUP2 MSTORE PUSH1 0x4 DUP2 ADD DUP5 SWAP1 MSTORE PUSH1 0x24 SWAP1 REVERT JUMPDEST POP CALLVALUE PUSH3 0xEE1 JUMPI DUP1 PUSH1 0x3 NOT CALLDATASIZE ADD SLT PUSH3 0xEE1 JUMPI PUSH3 0xF8E PUSH3 0x13BB JUMP JUMPDEST SELFBALANCE DUP1 ISZERO PUSH3 0xFC0 JUMPI DUP2 SLOAD DUP3 SWAP2 DUP3 SWAP2 DUP3 SWAP2 DUP3 SWAP2 PUSH1 0x1 PUSH1 0x1 PUSH1 0xA0 SHL SUB AND DUP3 CALL ISZERO PUSH3 0xFB4 JUMPI DUP1 RETURN JUMPDEST PUSH1 0x40 MLOAD SWAP1 RETURNDATASIZE SWAP1 DUP3 RETURNDATACOPY RETURNDATASIZE SWAP1 REVERT JUMPDEST PUSH1 0x40 MLOAD PUSH3 0x461BCD PUSH1 0xE5 SHL DUP2 MSTORE PUSH1 0x20 PUSH1 0x4 DUP3 ADD MSTORE PUSH1 0x12 PUSH1 0x24 DUP3 ADD MSTORE PUSH18 0x4E6F2045544820746F207769746864726177 PUSH1 0x70 SHL PUSH1 0x44 DUP3 ADD MSTORE PUSH1 0x64 SWAP1 REVERT JUMPDEST POP CALLVALUE PUSH3 0xEE1 JUMPI DUP1 PUSH1 0x3 NOT CALLDATASIZE ADD SLT PUSH3 0xEE1 JUMPI SLOAD PUSH1 0x40 MLOAD PUSH1 0x1 PUSH1 0x1 PUSH1 0xA0 SHL SUB SWAP1 SWAP2 AND DUP2 MSTORE PUSH1 0x20 SWAP1 RETURN JUMPDEST POP CALLVALUE PUSH3 0xEE1 JUMPI DUP1 PUSH1 0x3 NOT CALLDATASIZE ADD SLT PUSH3 0xEE1 JUMPI PUSH1 0x2 SLOAD PUSH1 0x40 MLOAD PUSH1 0x1 PUSH1 0x1 PUSH1 0xA0 SHL SUB SWAP1 SWAP2 AND DUP2 MSTORE PUSH1 0x20 SWAP1 RETURN JUMPDEST POP CALLVALUE PUSH3 0xEE1 JUMPI DUP1 PUSH1 0x3 NOT CALLDATASIZE ADD SLT PUSH3 0xEE1 JUMPI PUSH3 0x106B PUSH3 0x13BB JUMP JUMPDEST DUP1 SLOAD PUSH1 0x1 PUSH1 0x1 PUSH1 0xA0 SHL SUB NOT DUP2 AND DUP3 SSTORE DUP2 SWAP1 PUSH1 0x1 PUSH1 0x1 PUSH1 0xA0 SHL SUB AND PUSH32 0x8BE0079C531659141344CD1FD0A4F28419497F9722A3DAAFE3B4186F6B6457E0 DUP3 DUP1 LOG3 DUP1 RETURN JUMPDEST POP CALLVALUE PUSH3 0xEE1 JUMPI PUSH1 0x20 CALLDATASIZE PUSH1 0x3 NOT ADD SLT PUSH3 0xEE1 JUMPI PUSH1 0x4 CALLDATALOAD SWAP1 PUSH1 0x6 SLOAD DUP3 LT ISZERO PUSH3 0xEE1 JUMPI PUSH1 0x20 PUSH3 0x10DC DUP4 PUSH3 0x12BC JUMP JUMPDEST SWAP1 SLOAD PUSH1 0x40 MLOAD PUSH1 0x3 SWAP3 SWAP1 SWAP3 SHL SHR PUSH1 0x1 PUSH1 0x1 PUSH1 0xA0 SHL SUB AND DUP2 MSTORE RETURN JUMPDEST POP CALLVALUE PUSH3 0xEE1 JUMPI DUP1 PUSH1 0x3 NOT CALLDATASIZE ADD SLT PUSH3 0xEE1 JUMPI PUSH1 0x3 SLOAD PUSH1 0x40 MLOAD PUSH1 0x1 PUSH1 0x1 PUSH1 0xA0 SHL SUB SWAP1 SWAP2 AND DUP2 MSTORE PUSH1 0x20 SWAP1 RETURN JUMPDEST POP CALLVALUE PUSH3 0xEE1 JUMPI DUP1 PUSH1 0x3 NOT CALLDATASIZE ADD SLT PUSH3 0xEE1 JUMPI PUSH1 0x20 PUSH1 0x40 MLOAD PUSH2 0xBB8 DUP2 MSTORE RETURN JUMPDEST POP CALLVALUE PUSH3 0xEE1 JUMPI DUP1 PUSH1 0x3 NOT CALLDATASIZE ADD SLT PUSH3 0xEE1 JUMPI PUSH1 0x4 SLOAD PUSH1 0x40 MLOAD PUSH1 0x1 PUSH1 0x1 PUSH1 0xA0 SHL SUB SWAP1 SWAP2 AND DUP2 MSTORE PUSH1 0x20 SWAP1 RETURN JUMPDEST POP CALLVALUE PUSH3 0xEE1 JUMPI DUP1 PUSH1 0x3 NOT CALLDATASIZE ADD SLT PUSH3 0xEE1 JUMPI PUSH1 0x1 SLOAD PUSH1 0x40 MLOAD PUSH1 0x1 PUSH1 0x1 PUSH1 0xA0 SHL SUB SWAP1 SWAP2 AND DUP2 MSTORE PUSH1 0x20 SWAP1 RETURN JUMPDEST POP CALLVALUE PUSH3 0xEE1 JUMPI DUP1 PUSH1 0x3 NOT CALLDATASIZE ADD SLT PUSH3 0xEE1 JUMPI PUSH1 0x40 MLOAD DUP1 SWAP2 PUSH1 0x6 SLOAD SWAP1 DUP2 DUP4 MSTORE PUSH1 0x20 DUP1 SWAP4 ADD DUP1 SWAP3 PUSH1 0x6 DUP4 MSTORE PUSH32 0xF652222313E28459528D920B65115C16C04F3EFC82AAEDC97BE59F3F377C0D3F SWAP1 DUP4 JUMPDEST DUP2 DUP2 LT PUSH3 0x1245 JUMPI POP POP POP DUP5 PUSH3 0x11FC SWAP2 SUB DUP6 PUSH3 0x133C JUMP JUMPDEST PUSH1 0x40 MLOAD SWAP4 DUP4 DUP6 SWAP5 DUP6 ADD SWAP2 DUP2 DUP7 MSTORE MLOAD DUP1 SWAP3 MSTORE PUSH1 0x40 DUP6 ADD SWAP4 SWAP3 JUMPDEST DUP3 DUP2 LT PUSH3 0x1224 JUMPI POP POP POP POP SUB SWAP1 RETURN JUMPDEST DUP4 MLOAD PUSH1 0x1 PUSH1 0x1 PUSH1 0xA0 SHL SUB AND DUP6 MSTORE DUP7 SWAP6 POP SWAP4 DUP2 ADD SWAP4 SWAP3 DUP2 ADD SWAP3 PUSH1 0x1 ADD PUSH3 0x1214 JUMP JUMPDEST DUP3 SLOAD PUSH1 0x1 PUSH1 0x1 PUSH1 0xA0 SHL SUB AND DUP5 MSTORE SWAP3 DUP7 ADD SWAP3 PUSH1 0x1 SWAP3 DUP4 ADD SWAP3 ADD PUSH3 0x11E3 JUMP JUMPDEST SWAP1 POP CALLVALUE PUSH3 0xEDD JUMPI PUSH1 0x20 CALLDATASIZE PUSH1 0x3 NOT ADD SLT PUSH3 0xEDD JUMPI PUSH1 0x20 SWAP2 PUSH1 0x1 PUSH1 0x1 PUSH1 0xA0 SHL SUB SWAP1 PUSH1 0x40 SWAP1 DUP3 PUSH3 0x1292 PUSH3 0x12A0 JUMP JUMPDEST AND DUP2 MSTORE PUSH1 0x5 DUP6 MSTORE KECCAK256 SLOAD AND DUP2 MSTORE RETURN JUMPDEST PUSH1 0x4 CALLDATALOAD SWAP1 PUSH1 0x1 PUSH1 0x1 PUSH1 0xA0 SHL SUB DUP3 AND DUP3 SUB PUSH3 0x12B7 JUMPI JUMP JUMPDEST PUSH1 0x0 DUP1 REVERT JUMPDEST PUSH1 0x6 SLOAD DUP2 LT ISZERO PUSH3 0x12F4 JUMPI PUSH1 0x6 PUSH1 0x0 MSTORE PUSH32 0xF652222313E28459528D920B65115C16C04F3EFC82AAEDC97BE59F3F377C0D3F ADD SWAP1 PUSH1 0x0 SWAP1 JUMP JUMPDEST PUSH4 0x4E487B71 PUSH1 0xE0 SHL PUSH1 0x0 MSTORE PUSH1 0x32 PUSH1 0x4 MSTORE PUSH1 0x24 PUSH1 0x0 REVERT JUMPDEST PUSH1 0x60 DUP2 ADD SWAP1 DUP2 LT PUSH8 0xFFFFFFFFFFFFFFFF DUP3 GT OR PUSH3 0xA4F JUMPI PUSH1 0x40 MSTORE JUMP JUMPDEST PUSH8 0xFFFFFFFFFFFFFFFF DUP2 GT PUSH3 0xA4F JUMPI PUSH1 0x40 MSTORE JUMP JUMPDEST SWAP1 PUSH1 0x1F DUP1 NOT SWAP2 ADD AND DUP2 ADD SWAP1 DUP2 LT PUSH8 0xFFFFFFFFFFFFFFFF DUP3 GT OR PUSH3 0xA4F JUMPI PUSH1 0x40 MSTORE JUMP JUMPDEST DUP2 PUSH1 0x1F DUP3 ADD SLT ISZERO PUSH3 0x12B7 JUMPI DUP1 CALLDATALOAD SWAP1 PUSH8 0xFFFFFFFFFFFFFFFF DUP3 GT PUSH3 0xA4F JUMPI PUSH1 0x40 MLOAD SWAP3 PUSH3 0x1398 PUSH1 0x1F DUP5 ADD PUSH1 0x1F NOT AND PUSH1 0x20 ADD DUP6 PUSH3 0x133C JUMP JUMPDEST DUP3 DUP5 MSTORE PUSH1 0x20 DUP4 DUP4 ADD ADD GT PUSH3 0x12B7 JUMPI DUP2 PUSH1 0x0 SWAP3 PUSH1 0x20 DUP1 SWAP4 ADD DUP4 DUP7 ADD CALLDATACOPY DUP4 ADD ADD MSTORE SWAP1 JUMP JUMPDEST PUSH1 0x0 SLOAD PUSH1 0x1 PUSH1 0x1 PUSH1 0xA0 SHL SUB AND CALLER SUB PUSH3 0x13D0 JUMPI JUMP JUMPDEST PUSH1 0x40 MLOAD PUSH4 0x118CDAA7 PUSH1 0xE0 SHL DUP2 MSTORE CALLER PUSH1 0x4 DUP3 ADD MSTORE PUSH1 0x24 SWAP1 REVERT JUMPDEST SWAP2 SWAP1 DUP3 MLOAD SWAP3 DUP4 DUP3 MSTORE PUSH1 0x0 JUMPDEST DUP5 DUP2 LT PUSH3 0x1415 JUMPI POP POP DUP3 PUSH1 0x0 PUSH1 0x20 DUP1 SWAP5 SWAP6 DUP5 ADD ADD MSTORE PUSH1 0x1F DUP1 NOT SWAP2 ADD AND ADD ADD SWAP1 JUMP JUMPDEST PUSH1 0x20 DUP2 DUP4 ADD DUP2 ADD MLOAD DUP5 DUP4 ADD DUP3 ADD MSTORE ADD PUSH3 0x13F3 JUMP JUMPDEST SWAP1 DUP2 PUSH1 0x20 SWAP2 SUB SLT PUSH3 0x12B7 JUMPI MLOAD PUSH1 0x1 PUSH1 0x1 PUSH1 0xA0 SHL SUB DUP2 AND DUP2 SUB PUSH3 0x12B7 JUMPI SWAP1 JUMP INVALID PUSH1 0x40 PUSH1 0x80 DUP2 MSTORE CALLVALUE PUSH3 0xA64 JUMPI PUSH3 0x1FC9 DUP1 CODESIZE SUB DUP1 PUSH3 0x1E DUP2 PUSH3 0xA69 JUMP JUMPDEST SWAP3 DUP4 CODECOPY DUP2 ADD PUSH2 0x100 DUP3 DUP3 SUB SLT PUSH3 0xA64 JUMPI DUP2 MLOAD PUSH1 0x1 PUSH1 0x1 PUSH1 0x40 SHL SUB DUP2 GT PUSH3 0xA64 JUMPI DUP2 PUSH3 0x4E SWAP2 DUP5 ADD PUSH3 0xAB4 JUMP JUMPDEST PUSH1 0x20 DUP4 ADD MLOAD SWAP1 SWAP2 SWAP1 PUSH1 0x1 PUSH1 0x1 PUSH1 0x40 SHL SUB DUP2 GT PUSH3 0xA64 JUMPI DUP2 PUSH3 0x73 SWAP2 DUP6 ADD PUSH3 0xAB4 JUMP JUMPDEST PUSH3 0x80 DUP6 DUP6 ADD PUSH3 0xB0B JUMP JUMPDEST PUSH3 0x8E PUSH1 0x60 DUP7 ADD PUSH3 0xB0B JUMP JUMPDEST SWAP1 PUSH3 0x9D PUSH1 0x80 DUP8 ADD PUSH3 0xB0B JUMP JUMPDEST PUSH1 0xA0 DUP8 ADD MLOAD SWAP1 SWAP4 SWAP1 PUSH1 0x1 PUSH1 0x1 PUSH1 0x40 SHL SUB DUP2 GT PUSH3 0xA64 JUMPI DUP6 PUSH3 0xC2 SWAP2 DUP10 ADD PUSH3 0xAB4 JUMP JUMPDEST PUSH1 0xC0 DUP9 ADD MLOAD SWAP1 SWAP8 SWAP1 PUSH1 0x1 PUSH1 0x1 PUSH1 0x40 SHL SUB DUP2 GT PUSH3 0xA64 JUMPI DUP7 PUSH3 0xE7 SWAP2 DUP4 ADD PUSH3 0xAB4 JUMP JUMPDEST PUSH1 0xE0 DUP3 ADD MLOAD SWAP1 SWAP7 SWAP1 PUSH1 0x1 PUSH1 0x1 PUSH1 0x40 SHL SUB DUP2 GT PUSH3 0xA64 JUMPI PUSH3 0x10A SWAP3 ADD PUSH3 0xAB4 JUMP JUMPDEST DUP7 MLOAD SWAP1 SWAP7 PUSH1 0x1 PUSH1 0x1 PUSH1 0x40 SHL SUB DUP3 GT PUSH3 0x5FE JUMPI PUSH1 0x3 SLOAD SWAP1 PUSH1 0x1 DUP3 DUP2 SHR SWAP3 AND DUP1 ISZERO PUSH3 0xA59 JUMPI JUMPDEST PUSH1 0x20 DUP4 LT EQ PUSH3 0x5DD JUMPI DUP2 PUSH1 0x1F DUP5 SWAP4 GT PUSH3 0x9E4 JUMPI JUMPDEST POP PUSH1 0x20 SWAP1 PUSH1 0x1F DUP4 GT PUSH1 0x1 EQ PUSH3 0x959 JUMPI PUSH1 0x0 SWAP3 PUSH3 0x94D JUMPI JUMPDEST POP POP DUP2 PUSH1 0x1 SHL SWAP2 PUSH1 0x0 NOT SWAP1 PUSH1 0x3 SHL SHR NOT AND OR PUSH1 0x3 SSTORE JUMPDEST DUP1 MLOAD SWAP1 PUSH1 0x1 PUSH1 0x1 PUSH1 0x40 SHL SUB DUP3 GT PUSH3 0x5FE JUMPI PUSH1 0x4 SLOAD SWAP1 PUSH1 0x1 DUP3 DUP2 SHR SWAP3 AND DUP1 ISZERO PUSH3 0x942 JUMPI JUMPDEST PUSH1 0x20 DUP4 LT EQ PUSH3 0x5DD JUMPI DUP2 PUSH1 0x1F DUP5 SWAP4 GT PUSH3 0x8CD JUMPI JUMPDEST POP PUSH1 0x20 SWAP1 PUSH1 0x1F DUP4 GT PUSH1 0x1 EQ PUSH3 0x842 JUMPI PUSH1 0x0 SWAP3 PUSH3 0x836 JUMPI JUMPDEST POP POP DUP2 PUSH1 0x1 SHL SWAP2 PUSH1 0x0 NOT SWAP1 PUSH1 0x3 SHL SHR NOT AND OR PUSH1 0x4 SSTORE JUMPDEST CALLER ISZERO PUSH3 0x81E JUMPI PUSH1 0x5 DUP1 SLOAD PUSH1 0x1 PUSH1 0x1 PUSH1 0xA0 SHL SUB NOT DUP1 DUP3 AND CALLER SWAP1 DUP2 OR SWAP1 SWAP4 SSTORE SWAP5 PUSH1 0x1 PUSH1 0x1 PUSH1 0xA0 SHL SUB SWAP5 DUP6 SWAP4 SWAP2 SWAP3 DUP5 SWAP3 SWAP1 DUP4 AND PUSH32 0x8BE0079C531659141344CD1FD0A4F28419497F9722A3DAAFE3B4186F6B6457E0 PUSH1 0x0 DUP1 LOG3 AND DUP6 PUSH1 0x6 SLOAD AND OR PUSH1 0x6 SSTORE AND DUP4 PUSH1 0x7 SLOAD AND OR PUSH1 0x7 SSTORE PUSH1 0x2 SLOAD PUSH10 0xD3C21BCECCEDA1000000 SWAP1 DUP2 DUP2 ADD DUP1 SWAP2 GT PUSH3 0x808 JUMPI PUSH1 0x2 SSTORE CALLER PUSH1 0x0 MSTORE PUSH1 0x0 PUSH1 0x20 MSTORE DUP8 PUSH1 0x0 KECCAK256 DUP2 DUP2 SLOAD ADD SWAP1 SSTORE DUP8 MLOAD SWAP1 DUP2 MSTORE PUSH1 0x0 PUSH32 0xDDF252AD1BE2C89B69C2B068FC378DAA952BA7F163C4A11628F55A4DF523B3EF PUSH1 0x20 CALLER SWAP4 LOG3 AND DUP1 PUSH1 0x0 MSTORE PUSH1 0x9 PUSH1 0x20 MSTORE DUP6 PUSH1 0x0 KECCAK256 PUSH1 0x1 PUSH1 0xFF NOT DUP3 SLOAD AND OR SWAP1 SSTORE PUSH1 0xA SLOAD PUSH9 0x10000000000000000 DUP2 LT ISZERO PUSH3 0x5FE JUMPI PUSH1 0x1 DUP2 ADD DUP1 PUSH1 0xA SSTORE DUP2 LT ISZERO PUSH3 0x7F2 JUMPI PUSH1 0xA PUSH1 0x0 MSTORE PUSH32 0xC65A7BB8D6351C1CF70C95A316CC6A92839C986682D98BC35F958F4883F9D2A8 ADD DUP1 SLOAD SWAP1 SWAP3 AND OR SWAP1 SSTORE DUP4 MLOAD PUSH1 0x60 DUP2 ADD PUSH1 0x1 PUSH1 0x1 PUSH1 0x40 SHL SUB DUP2 GT DUP3 DUP3 LT OR PUSH3 0x5FE JUMPI DUP6 MSTORE DUP4 DUP2 MSTORE PUSH1 0x20 DUP2 ADD DUP3 DUP2 MSTORE SWAP1 DUP6 ADD DUP4 DUP2 MSTORE DUP5 MLOAD SWAP1 SWAP2 SWAP1 PUSH1 0x1 PUSH1 0x1 PUSH1 0x40 SHL SUB DUP2 GT PUSH3 0x5FE JUMPI PUSH1 0xD SLOAD PUSH1 0x1 DUP2 DUP2 SHR SWAP2 AND DUP1 ISZERO PUSH3 0x7E7 JUMPI JUMPDEST PUSH1 0x20 DUP3 LT EQ PUSH3 0x5DD JUMPI PUSH1 0x1F DUP2 GT PUSH3 0x78E JUMPI JUMPDEST POP DUP1 PUSH1 0x20 PUSH1 0x1F DUP3 GT PUSH1 0x1 EQ PUSH3 0x715 JUMPI PUSH1 0x0 SWAP2 PUSH3 0x709 JUMPI JUMPDEST POP DUP2 PUSH1 0x1 SHL SWAP2 PUSH1 0x0 NOT SWAP1 PUSH1 0x3 SHL SHR NOT AND OR PUSH1 0xD SSTORE JUMPDEST MLOAD DUP1 MLOAD SWAP1 PUSH1 0x1 PUSH1 0x1 PUSH1 0x40 SHL SUB DUP3 GT PUSH3 0x5FE JUMPI PUSH1 0xE SLOAD SWAP1 PUSH1 0x1 DUP3 DUP2 SHR SWAP3 AND DUP1 ISZERO PUSH3 0x6FE JUMPI JUMPDEST PUSH1 0x20 DUP4 LT EQ PUSH3 0x5DD JUMPI DUP2 PUSH1 0x1F DUP5 SWAP4 GT PUSH3 0x69A JUMPI JUMPDEST POP PUSH1 0x20 SWAP1 PUSH1 0x1F DUP4 GT PUSH1 0x1 EQ PUSH3 0x620 JUMPI PUSH1 0x0 SWAP3 PUSH3 0x614 JUMPI JUMPDEST POP POP DUP2 PUSH1 0x1 SHL SWAP2 PUSH1 0x0 NOT SWAP1 PUSH1 0x3 SHL SHR NOT AND OR PUSH1 0xE SSTORE JUMPDEST MLOAD DUP1 MLOAD SWAP1 PUSH1 0x1 PUSH1 0x1 PUSH1 0x40 SHL SUB DUP3 GT PUSH3 0x5FE JUMPI PUSH1 0xF SLOAD PUSH1 0x1 DUP2 DUP2 SHR SWAP2 AND DUP1 ISZERO PUSH3 0x5F3 JUMPI JUMPDEST PUSH1 0x20 DUP3 LT EQ PUSH3 0x5DD JUMPI PUSH1 0x1F DUP2 GT PUSH3 0x584 JUMPI JUMPDEST POP PUSH1 0x20 SWAP1 PUSH1 0x1F DUP4 GT PUSH1 0x1 EQ PUSH3 0x4EA JUMPI PUSH1 0x0 DUP1 MLOAD PUSH1 0x20 PUSH3 0x1F49 DUP4 CODECOPY DUP2 MLOAD SWAP2 MSTORE SWAP6 SWAP4 DUP4 PUSH3 0x4CD SWAP5 PUSH3 0x4B0 SWAP8 SWAP5 PUSH3 0x4BF SWAP5 PUSH1 0x0 SWAP3 PUSH3 0x4DE JUMPI JUMPDEST POP POP DUP2 PUSH1 0x1 SHL SWAP2 PUSH1 0x0 NOT SWAP1 PUSH1 0x3 SHL SHR NOT AND OR PUSH1 0xF SSTORE JUMPDEST DUP8 MLOAD SWAP6 DUP7 SWAP6 PUSH1 0x60 DUP8 MSTORE PUSH1 0x60 DUP8 ADD SWAP1 PUSH3 0xB20 JUMP JUMPDEST SWAP1 DUP6 DUP3 SUB PUSH1 0x20 DUP8 ADD MSTORE PUSH3 0xB20 JUMP JUMPDEST SWAP1 DUP4 DUP3 SUB DUP8 DUP6 ADD MSTORE PUSH3 0xB20 JUMP JUMPDEST SUB SWAP1 LOG1 MLOAD PUSH2 0x1401 SWAP1 DUP2 PUSH3 0xB48 DUP3 CODECOPY RETURN JUMPDEST ADD MLOAD SWAP1 POP CODESIZE DUP1 PUSH3 0x486 JUMP JUMPDEST PUSH1 0xF PUSH1 0x0 SWAP1 DUP2 MSTORE PUSH1 0x0 DUP1 MLOAD PUSH1 0x20 PUSH3 0x1FA9 DUP4 CODECOPY DUP2 MLOAD SWAP2 MSTORE SWAP3 SWAP2 SWAP1 PUSH1 0x1F NOT DUP6 AND SWAP1 JUMPDEST DUP2 DUP2 LT PUSH3 0x56B JUMPI POP DUP5 PUSH3 0x4B0 SWAP8 SWAP5 PUSH3 0x4BF SWAP5 PUSH1 0x0 DUP1 MLOAD PUSH1 0x20 PUSH3 0x1F49 DUP4 CODECOPY DUP2 MLOAD SWAP2 MSTORE SWAP11 SWAP9 SWAP5 PUSH3 0x4CD SWAP9 PUSH1 0x1 SWAP6 LT PUSH3 0x551 JUMPI JUMPDEST POP POP POP DUP2 SHL ADD PUSH1 0xF SSTORE PUSH3 0x49C JUMP JUMPDEST ADD MLOAD PUSH1 0x0 NOT PUSH1 0xF8 DUP5 PUSH1 0x3 SHL AND SHR NOT AND SWAP1 SSTORE CODESIZE DUP1 DUP1 PUSH3 0x542 JUMP JUMPDEST SWAP3 SWAP4 PUSH1 0x20 PUSH1 0x1 DUP2 SWAP3 DUP8 DUP7 ADD MLOAD DUP2 SSTORE ADD SWAP6 ADD SWAP4 ADD PUSH3 0x50B JUMP JUMPDEST PUSH1 0xF PUSH1 0x0 MSTORE PUSH1 0x0 DUP1 MLOAD PUSH1 0x20 PUSH3 0x1FA9 DUP4 CODECOPY DUP2 MLOAD SWAP2 MSTORE PUSH1 0x1F DUP5 ADD PUSH1 0x5 SHR DUP2 ADD SWAP2 PUSH1 0x20 DUP6 LT PUSH3 0x5D2 JUMPI JUMPDEST PUSH1 0x1F ADD PUSH1 0x5 SHR ADD SWAP1 JUMPDEST DUP2 DUP2 LT PUSH3 0x5C5 JUMPI POP PUSH3 0x44A JUMP JUMPDEST PUSH1 0x0 DUP2 SSTORE PUSH1 0x1 ADD PUSH3 0x5B6 JUMP JUMPDEST SWAP1 SWAP2 POP DUP2 SWAP1 PUSH3 0x5AD JUMP JUMPDEST PUSH4 0x4E487B71 PUSH1 0xE0 SHL PUSH1 0x0 MSTORE PUSH1 0x22 PUSH1 0x4 MSTORE PUSH1 0x24 PUSH1 0x0 REVERT JUMPDEST SWAP1 PUSH1 0x7F AND SWAP1 PUSH3 0x436 JUMP JUMPDEST PUSH4 0x4E487B71 PUSH1 0xE0 SHL PUSH1 0x0 MSTORE PUSH1 0x41 PUSH1 0x4 MSTORE PUSH1 0x24 PUSH1 0x0 REVERT JUMPDEST ADD MLOAD SWAP1 POP CODESIZE DUP1 PUSH3 0x3FB JUMP JUMPDEST PUSH1 0xE PUSH1 0x0 SWAP1 DUP2 MSTORE PUSH1 0x0 DUP1 MLOAD PUSH1 0x20 PUSH3 0x1F69 DUP4 CODECOPY DUP2 MLOAD SWAP2 MSTORE SWAP4 POP PUSH1 0x1F NOT DUP6 AND SWAP1 JUMPDEST DUP2 DUP2 LT PUSH3 0x681 JUMPI POP SWAP1 DUP5 PUSH1 0x1 SWAP6 SWAP5 SWAP4 SWAP3 LT PUSH3 0x667 JUMPI JUMPDEST POP POP POP DUP2 SHL ADD PUSH1 0xE SSTORE PUSH3 0x411 JUMP JUMPDEST ADD MLOAD PUSH1 0x0 NOT PUSH1 0xF8 DUP5 PUSH1 0x3 SHL AND SHR NOT AND SWAP1 SSTORE CODESIZE DUP1 DUP1 PUSH3 0x658 JUMP JUMPDEST SWAP3 SWAP4 PUSH1 0x20 PUSH1 0x1 DUP2 SWAP3 DUP8 DUP7 ADD MLOAD DUP2 SSTORE ADD SWAP6 ADD SWAP4 ADD PUSH3 0x640 JUMP JUMPDEST PUSH1 0xE PUSH1 0x0 MSTORE SWAP1 SWAP2 POP PUSH1 0x0 DUP1 MLOAD PUSH1 0x20 PUSH3 0x1F69 DUP4 CODECOPY DUP2 MLOAD SWAP2 MSTORE PUSH1 0x1F DUP5 ADD PUSH1 0x5 SHR DUP2 ADD SWAP2 PUSH1 0x20 DUP6 LT PUSH3 0x6F3 JUMPI JUMPDEST SWAP1 PUSH1 0x1F DUP6 SWAP5 SWAP4 SWAP3 ADD PUSH1 0x5 SHR ADD SWAP1 JUMPDEST DUP2 DUP2 LT PUSH3 0x6E3 JUMPI POP PUSH3 0x3E2 JUMP JUMPDEST PUSH1 0x0 DUP2 SSTORE DUP5 SWAP4 POP PUSH1 0x1 ADD PUSH3 0x6D4 JUMP JUMPDEST SWAP1 SWAP2 POP DUP2 SWAP1 PUSH3 0x6C6 JUMP JUMPDEST SWAP2 PUSH1 0x7F AND SWAP2 PUSH3 0x3CC JUMP JUMPDEST SWAP1 POP DUP7 ADD MLOAD CODESIZE PUSH3 0x391 JUMP JUMPDEST PUSH1 0xD PUSH1 0x0 SWAP1 DUP2 MSTORE SWAP3 POP PUSH1 0x0 DUP1 MLOAD PUSH1 0x20 PUSH3 0x1F89 DUP4 CODECOPY DUP2 MLOAD SWAP2 MSTORE SWAP1 JUMPDEST PUSH1 0x1F NOT DUP4 AND DUP5 LT PUSH3 0x775 JUMPI PUSH1 0x1 SWAP4 POP DUP3 PUSH1 0x1F NOT DUP2 AND LT PUSH3 0x75B JUMPI JUMPDEST POP POP DUP2 SHL ADD PUSH1 0xD SSTORE PUSH3 0x3A6 JUMP JUMPDEST DUP9 ADD MLOAD PUSH1 0x0 NOT PUSH1 0xF8 DUP5 PUSH1 0x3 SHL AND SHR NOT AND SWAP1 SSTORE CODESIZE DUP1 PUSH3 0x74D JUMP JUMPDEST DUP9 DUP2 ADD MLOAD DUP3 SSTORE PUSH1 0x20 SWAP4 DUP5 ADD SWAP4 PUSH1 0x1 SWAP1 SWAP3 ADD SWAP2 ADD PUSH3 0x730 JUMP JUMPDEST PUSH1 0xD PUSH1 0x0 MSTORE PUSH1 0x0 DUP1 MLOAD PUSH1 0x20 PUSH3 0x1F89 DUP4 CODECOPY DUP2 MLOAD SWAP2 MSTORE PUSH1 0x1F DUP4 ADD PUSH1 0x5 SHR DUP2 ADD SWAP2 PUSH1 0x20 DUP5 LT PUSH3 0x7DC JUMPI JUMPDEST PUSH1 0x1F ADD PUSH1 0x5 SHR ADD SWAP1 JUMPDEST DUP2 DUP2 LT PUSH3 0x7CF JUMPI POP PUSH3 0x378 JUMP JUMPDEST PUSH1 0x0 DUP2 SSTORE PUSH1 0x1 ADD PUSH3 0x7C0 JUMP JUMPDEST SWAP1 SWAP2 POP DUP2 SWAP1 PUSH3 0x7B7 JUMP JUMPDEST SWAP1 PUSH1 0x7F AND SWAP1 PUSH3 0x364 JUMP JUMPDEST PUSH4 0x4E487B71 PUSH1 0xE0 SHL PUSH1 0x0 MSTORE PUSH1 0x32 PUSH1 0x4 MSTORE PUSH1 0x24 PUSH1 0x0 REVERT JUMPDEST PUSH4 0x4E487B71 PUSH1 0xE0 SHL PUSH1 0x0 MSTORE PUSH1 0x11 PUSH1 0x4 MSTORE PUSH1 0x24 PUSH1 0x0 REVERT JUMPDEST DUP7 MLOAD PUSH4 0x1E4FBDF7 PUSH1 0xE0 SHL DUP2 MSTORE PUSH1 0x0 PUSH1 0x4 DUP3 ADD MSTORE PUSH1 0x24 SWAP1 REVERT JUMPDEST ADD MLOAD SWAP1 POP CODESIZE DUP1 PUSH3 0x1C9 JUMP JUMPDEST PUSH1 0x4 PUSH1 0x0 SWAP1 DUP2 MSTORE PUSH32 0x8A35ACFBC15FF81A39AE7D344FD709F28E8600B4AA8C65C6B64BFE7FE36BD19B SWAP4 POP PUSH1 0x1F NOT DUP6 AND SWAP1 JUMPDEST DUP2 DUP2 LT PUSH3 0x8B4 JUMPI POP SWAP1 DUP5 PUSH1 0x1 SWAP6 SWAP5 SWAP4 SWAP3 LT PUSH3 0x89A JUMPI JUMPDEST POP POP POP DUP2 SHL ADD PUSH1 0x4 SSTORE PUSH3 0x1DF JUMP JUMPDEST ADD MLOAD PUSH1 0x0 NOT PUSH1 0xF8 DUP5 PUSH1 0x3 SHL AND SHR NOT AND SWAP1 SSTORE CODESIZE DUP1 DUP1 PUSH3 0x88B JUMP JUMPDEST SWAP3 SWAP4 PUSH1 0x20 PUSH1 0x1 DUP2 SWAP3 DUP8 DUP7 ADD MLOAD DUP2 SSTORE ADD SWAP6 ADD SWAP4 ADD PUSH3 0x873 JUMP JUMPDEST PUSH1 0x4 PUSH1 0x0 MSTORE SWAP1 SWAP2 POP PUSH32 0x8A35ACFBC15FF81A39AE7D344FD709F28E8600B4AA8C65C6B64BFE7FE36BD19B PUSH1 0x1F DUP5 ADD PUSH1 0x5 SHR DUP2 ADD SWAP2 PUSH1 0x20 DUP6 LT PUSH3 0x937 JUMPI JUMPDEST SWAP1 PUSH1 0x1F DUP6 SWAP5 SWAP4 SWAP3 ADD PUSH1 0x5 SHR ADD SWAP1 JUMPDEST DUP2 DUP2 LT PUSH3 0x927 JUMPI POP PUSH3 0x1B0 JUMP JUMPDEST PUSH1 0x0 DUP2 SSTORE DUP5 SWAP4 POP PUSH1 0x1 ADD PUSH3 0x918 JUMP JUMPDEST SWAP1 SWAP2 POP DUP2 SWAP1 PUSH3 0x90A JUMP JUMPDEST SWAP2 PUSH1 0x7F AND SWAP2 PUSH3 0x19A JUMP JUMPDEST ADD MLOAD SWAP1 POP CODESIZE DUP1 PUSH3 0x15F JUMP JUMPDEST PUSH1 0x3 PUSH1 0x0 SWAP1 DUP2 MSTORE PUSH32 0xC2575A0E9E593C00F959F8C92F12DB2869C3395A3B0502D05E2516446F71F85B SWAP4 POP PUSH1 0x1F NOT DUP6 AND SWAP1 JUMPDEST DUP2 DUP2 LT PUSH3 0x9CB JUMPI POP SWAP1 DUP5 PUSH1 0x1 SWAP6 SWAP5 SWAP4 SWAP3 LT PUSH3 0x9B1 JUMPI JUMPDEST POP POP POP DUP2 SHL ADD PUSH1 0x3 SSTORE PUSH3 0x175 JUMP JUMPDEST ADD MLOAD PUSH1 0x0 NOT PUSH1 0xF8 DUP5 PUSH1 0x3 SHL AND SHR NOT AND SWAP1 SSTORE CODESIZE DUP1 DUP1 PUSH3 0x9A2 JUMP JUMPDEST SWAP3 SWAP4 PUSH1 0x20 PUSH1 0x1 DUP2 SWAP3 DUP8 DUP7 ADD MLOAD DUP2 SSTORE ADD SWAP6 ADD SWAP4 ADD PUSH3 0x98A JUMP JUMPDEST PUSH1 0x3 PUSH1 0x0 MSTORE SWAP1 SWAP2 POP PUSH32 0xC2575A0E9E593C00F959F8C92F12DB2869C3395A3B0502D05E2516446F71F85B PUSH1 0x1F DUP5 ADD PUSH1 0x5 SHR DUP2 ADD SWAP2 PUSH1 0x20 DUP6 LT PUSH3 0xA4E JUMPI JUMPDEST SWAP1 PUSH1 0x1F DUP6 SWAP5 SWAP4 SWAP3 ADD PUSH1 0x5 SHR ADD SWAP1 JUMPDEST DUP2 DUP2 LT PUSH3 0xA3E JUMPI POP PUSH3 0x146 JUMP JUMPDEST PUSH1 0x0 DUP2 SSTORE DUP5 SWAP4 POP PUSH1 0x1 ADD PUSH3 0xA2F JUMP JUMPDEST SWAP1 SWAP2 POP DUP2 SWAP1 PUSH3 0xA21 JUMP JUMPDEST SWAP2 PUSH1 0x7F AND SWAP2 PUSH3 0x130 JUMP JUMPDEST PUSH1 0x0 DUP1 REVERT JUMPDEST PUSH1 0x40 MLOAD SWAP2 SWAP1 PUSH1 0x1F ADD PUSH1 0x1F NOT AND DUP3 ADD PUSH1 0x1 PUSH1 0x1 PUSH1 0x40 SHL SUB DUP2 GT DUP4 DUP3 LT OR PUSH3 0x5FE JUMPI PUSH1 0x40 MSTORE JUMP JUMPDEST PUSH1 0x0 JUMPDEST DUP4 DUP2 LT PUSH3 0xAA3 JUMPI POP POP PUSH1 0x0 SWAP2 ADD MSTORE JUMP JUMPDEST DUP2 DUP2 ADD MLOAD DUP4 DUP3 ADD MSTORE PUSH1 0x20 ADD PUSH3 0xA92 JUMP JUMPDEST DUP2 PUSH1 0x1F DUP3 ADD SLT ISZERO PUSH3 0xA64 JUMPI DUP1 MLOAD PUSH1 0x1 PUSH1 0x1 PUSH1 0x40 SHL SUB DUP2 GT PUSH3 0x5FE JUMPI PUSH3 0xAE6 PUSH1 0x1F DUP3 ADD PUSH1 0x1F NOT AND PUSH1 0x20 ADD PUSH3 0xA69 JUMP JUMPDEST SWAP3 DUP2 DUP5 MSTORE PUSH1 0x20 DUP3 DUP5 ADD ADD GT PUSH3 0xA64 JUMPI PUSH3 0xB08 SWAP2 PUSH1 0x20 DUP1 DUP6 ADD SWAP2 ADD PUSH3 0xA8F JUMP JUMPDEST SWAP1 JUMP JUMPDEST MLOAD SWAP1 PUSH1 0x1 PUSH1 0x1 PUSH1 0xA0 SHL SUB DUP3 AND DUP3 SUB PUSH3 0xA64 JUMPI JUMP JUMPDEST SWAP1 PUSH1 0x20 SWAP2 PUSH3 0xB3B DUP2 MLOAD DUP1 SWAP3 DUP2 DUP6 MSTORE DUP6 DUP1 DUP7 ADD SWAP2 ADD PUSH3 0xA8F JUMP JUMPDEST PUSH1 0x1F ADD PUSH1 0x1F NOT AND ADD ADD SWAP1 JUMP INVALID PUSH1 0x80 PUSH1 0x40 DUP2 DUP2 MSTORE PUSH1 0x4 DUP1 CALLDATASIZE LT ISZERO PUSH2 0x21 JUMPI JUMPDEST POP POP POP CALLDATASIZE ISZERO PUSH2 0x1F JUMPI PUSH1 0x0 DUP1 REVERT JUMPDEST STOP JUMPDEST PUSH1 0x0 SWAP2 DUP3 CALLDATALOAD PUSH1 0xE0 SHR SWAP4 DUP5 PUSH4 0x6FDDE03 EQ PUSH2 0xE0C JUMPI POP DUP4 PUSH4 0x95EA7B3 EQ PUSH2 0xD63 JUMPI DUP4 PUSH4 0x18160DDD EQ PUSH2 0xD44 JUMPI DUP4 PUSH4 0x23B872DD EQ PUSH2 0xC52 JUMPI DUP4 PUSH4 0x2A11CED0 EQ PUSH2 0xBFC JUMPI DUP4 PUSH4 0x313CE567 EQ PUSH2 0xBE0 JUMPI DUP4 PUSH4 0x372500AB EQ PUSH2 0xA13 JUMPI DUP4 PUSH4 0x3AD10EF6 EQ PUSH2 0x9EA JUMPI DUP4 PUSH4 0x436A88C1 EQ PUSH2 0x9CE JUMPI DUP4 PUSH4 0x5DAB0FE3 EQ PUSH2 0x174 JUMPI DUP4 PUSH4 0x5F96684B EQ PUSH2 0x6E3 JUMPI DUP4 PUSH4 0x70A08231 EQ PUSH2 0x6AC JUMPI DUP4 PUSH4 0x715018A6 EQ PUSH2 0x64F JUMPI DUP4 PUSH4 0x791B98BC EQ PUSH2 0x626 JUMPI DUP4 PUSH4 0x85033762 EQ PUSH2 0x5A2 JUMPI DUP4 PUSH4 0x8DA5CB5B EQ PUSH2 0x579 JUMPI DUP4 PUSH4 0x93427CD5 EQ PUSH2 0x423 JUMPI DUP4 PUSH4 0x95D89B41 EQ PUSH2 0x463 JUMPI DUP4 PUSH4 0xA8FB7D40 EQ PUSH2 0x423 JUMPI DUP4 PUSH4 0xA9059CBB EQ PUSH2 0x3F2 JUMPI DUP4 PUSH4 0xBD834345 EQ PUSH2 0x3BA JUMPI DUP4 PUSH4 0xCA0C8045 EQ PUSH2 0x39B JUMPI DUP4 PUSH4 0xCEEFE5D1 EQ PUSH2 0x37C JUMPI DUP4 PUSH4 0xD4D7B19A EQ PUSH2 0x33E JUMPI DUP4 PUSH4 0xD73792A9 EQ PUSH2 0x322 JUMPI DUP4 PUSH4 0xDD62ED3E EQ PUSH2 0x2D5 JUMPI DUP4 PUSH4 0xF2FDE38B EQ PUSH2 0x246 JUMPI DUP4 PUSH4 0xF71B6681 EQ PUSH2 0x179 JUMPI POP POP POP PUSH4 0xF963812D EQ PUSH2 0x174 JUMPI CODESIZE DUP1 DUP1 PUSH2 0x11 JUMP JUMPDEST PUSH2 0xF70 JUMP JUMPDEST CALLVALUE PUSH2 0x242 JUMPI PUSH1 0x20 CALLDATASIZE PUSH1 0x3 NOT ADD SLT PUSH2 0x242 JUMPI DUP2 CALLDATALOAD SWAP2 PUSH2 0x195 PUSH2 0x1251 JUMP JUMPDEST PUSH1 0x8 SLOAD PUSH2 0x209 JUMPI DUP3 ISZERO PUSH2 0x1D4 JUMPI POP DUP2 PUSH1 0x20 SWAP2 PUSH32 0xF32EDDAECA0B96600FAF4AFDC67F1929ECFC35985ABA1F8DE8825D24B5E5D61 SWAP4 PUSH1 0x8 SSTORE MLOAD SWAP1 DUP2 MSTORE LOG1 DUP1 RETURN JUMPDEST PUSH1 0x20 PUSH1 0x64 SWAP3 MLOAD SWAP2 PUSH3 0x461BCD PUSH1 0xE5 SHL DUP4 MSTORE DUP3 ADD MSTORE PUSH1 0x10 PUSH1 0x24 DUP3 ADD MSTORE PUSH16 0x125B9D985B1A59081D1BDAD95B881251 PUSH1 0x82 SHL PUSH1 0x44 DUP3 ADD MSTORE REVERT JUMPDEST PUSH1 0x20 PUSH1 0x64 SWAP3 MLOAD SWAP2 PUSH3 0x461BCD PUSH1 0xE5 SHL DUP4 MSTORE DUP3 ADD MSTORE PUSH1 0x14 PUSH1 0x24 DUP3 ADD MSTORE PUSH20 0x141BDCDA5D1A5BDB88185B1C9958591E481CD95D PUSH1 0x62 SHL PUSH1 0x44 DUP3 ADD MSTORE REVERT JUMPDEST DUP3 DUP1 REVERT JUMPDEST SWAP1 CALLVALUE PUSH2 0x242 JUMPI PUSH1 0x20 CALLDATASIZE PUSH1 0x3 NOT ADD SLT PUSH2 0x242 JUMPI PUSH2 0x260 PUSH2 0xF3F JUMP JUMPDEST SWAP1 PUSH2 0x269 PUSH2 0x1251 JUMP JUMPDEST PUSH1 0x1 PUSH1 0x1 PUSH1 0xA0 SHL SUB SWAP2 DUP3 AND SWAP3 DUP4 ISZERO PUSH2 0x2BF JUMPI POP POP PUSH1 0x5 SLOAD DUP3 PUSH12 0xFFFFFFFFFFFFFFFFFFFFFFFF PUSH1 0xA0 SHL DUP3 AND OR PUSH1 0x5 SSTORE AND PUSH32 0x8BE0079C531659141344CD1FD0A4F28419497F9722A3DAAFE3B4186F6B6457E0 DUP4 DUP1 LOG3 DUP1 RETURN JUMPDEST MLOAD PUSH4 0x1E4FBDF7 PUSH1 0xE0 SHL DUP2 MSTORE SWAP1 DUP2 ADD DUP5 SWAP1 MSTORE PUSH1 0x24 SWAP1 REVERT JUMPDEST SWAP1 POP CALLVALUE PUSH2 0x31E JUMPI DUP1 PUSH1 0x3 NOT CALLDATASIZE ADD SLT PUSH2 0x31E JUMPI DUP1 PUSH1 0x20 SWAP3 PUSH2 0x2F3 PUSH2 0xF3F JUMP JUMPDEST PUSH2 0x2FB PUSH2 0xF5A JUMP JUMPDEST PUSH1 0x1 PUSH1 0x1 PUSH1 0xA0 SHL SUB SWAP2 DUP3 AND DUP4 MSTORE PUSH1 0x1 DUP7 MSTORE DUP4 DUP4 KECCAK256 SWAP2 AND DUP3 MSTORE DUP5 MSTORE KECCAK256 SLOAD SWAP1 MLOAD SWAP1 DUP2 MSTORE RETURN JUMPDEST POP DUP1 REVERT JUMPDEST SWAP1 POP CALLVALUE PUSH2 0x31E JUMPI DUP2 PUSH1 0x3 NOT CALLDATASIZE ADD SLT PUSH2 0x31E JUMPI PUSH1 0x20 SWAP1 MLOAD PUSH1 0x64 DUP2 MSTORE RETURN JUMPDEST SWAP1 POP CALLVALUE PUSH2 0x31E JUMPI PUSH1 0x20 CALLDATASIZE PUSH1 0x3 NOT ADD SLT PUSH2 0x31E JUMPI PUSH1 0x20 SWAP2 PUSH1 0xFF SWAP1 DUP3 SWAP1 PUSH1 0x1 PUSH1 0x1 PUSH1 0xA0 SHL SUB PUSH2 0x369 PUSH2 0xF3F JUMP JUMPDEST AND DUP2 MSTORE PUSH1 0x9 DUP6 MSTORE KECCAK256 SLOAD AND SWAP1 MLOAD SWAP1 ISZERO ISZERO DUP2 MSTORE RETURN JUMPDEST SWAP1 POP CALLVALUE PUSH2 0x31E JUMPI DUP2 PUSH1 0x3 NOT CALLDATASIZE ADD SLT PUSH2 0x31E JUMPI PUSH1 0x20 SWAP1 PUSH1 0x8 SLOAD SWAP1 MLOAD SWAP1 DUP2 MSTORE RETURN JUMPDEST SWAP1 POP CALLVALUE PUSH2 0x31E JUMPI DUP2 PUSH1 0x3 NOT CALLDATASIZE ADD SLT PUSH2 0x31E JUMPI PUSH1 0x20 SWAP1 PUSH1 0xB SLOAD SWAP1 MLOAD SWAP1 DUP2 MSTORE RETURN JUMPDEST SWAP1 POP CALLVALUE PUSH2 0x31E JUMPI PUSH1 0x20 CALLDATASIZE PUSH1 0x3 NOT ADD SLT PUSH2 0x31E JUMPI PUSH1 0x20 SWAP2 DUP2 SWAP1 PUSH1 0x1 PUSH1 0x1 PUSH1 0xA0 SHL SUB PUSH2 0x3E2 PUSH2 0xF3F JUMP JUMPDEST AND DUP2 MSTORE PUSH1 0xC DUP5 MSTORE KECCAK256 SLOAD SWAP1 MLOAD SWAP1 DUP2 MSTORE RETURN JUMPDEST SWAP1 POP CALLVALUE PUSH2 0x31E JUMPI DUP1 PUSH1 0x3 NOT CALLDATASIZE ADD SLT PUSH2 0x31E JUMPI PUSH1 0x20 SWAP1 PUSH2 0x41C PUSH2 0x412 PUSH2 0xF3F JUMP JUMPDEST PUSH1 0x24 CALLDATALOAD SWAP1 CALLER PUSH2 0x127D JUMP JUMPDEST MLOAD PUSH1 0x1 DUP2 MSTORE RETURN JUMPDEST DUP3 CALLVALUE PUSH2 0x460 JUMPI DUP1 PUSH1 0x3 NOT CALLDATASIZE ADD SLT PUSH2 0x460 JUMPI POP PUSH2 0x43D PUSH2 0xFFE JUMP JUMPDEST PUSH2 0x45C PUSH2 0x448 PUSH2 0x10E9 JUMP JUMPDEST SWAP3 PUSH2 0x451 PUSH2 0x119D JUMP JUMPDEST SWAP1 MLOAD SWAP4 DUP5 SWAP4 DUP5 PUSH2 0xF8C JUMP JUMPDEST SUB SWAP1 RETURN JUMPDEST DUP1 REVERT JUMPDEST DUP3 CALLVALUE PUSH2 0x460 JUMPI DUP1 PUSH1 0x3 NOT CALLDATASIZE ADD SLT PUSH2 0x460 JUMPI DUP2 MLOAD SWAP2 DUP2 DUP5 SLOAD SWAP3 PUSH1 0x1 DUP5 DUP2 SHR SWAP2 DUP2 DUP7 AND SWAP6 DUP7 ISZERO PUSH2 0x56F JUMPI JUMPDEST PUSH1 0x20 SWAP7 DUP8 DUP6 LT DUP2 EQ PUSH2 0x55C JUMPI SWAP1 DUP8 DUP10 SWAP11 SWAP3 DUP7 DUP12 SWAP10 SWAP11 SWAP12 MSTORE SWAP2 DUP3 PUSH1 0x0 EQ PUSH2 0x532 JUMPI POP POP PUSH1 0x1 EQ PUSH2 0x4D7 JUMPI JUMPDEST DUP6 DUP9 PUSH2 0x45C DUP10 PUSH2 0x4C8 DUP5 DUP11 SUB DUP6 PUSH2 0xFC6 JUMP JUMPDEST MLOAD SWAP3 DUP3 DUP5 SWAP4 DUP5 MSTORE DUP4 ADD SWAP1 PUSH2 0xEFF JUMP JUMPDEST DUP2 MSTORE DUP7 SWAP4 POP SWAP2 SWAP1 PUSH32 0x8A35ACFBC15FF81A39AE7D344FD709F28E8600B4AA8C65C6B64BFE7FE36BD19B JUMPDEST DUP3 DUP5 LT PUSH2 0x51A JUMPI POP POP POP DUP3 ADD ADD DUP2 PUSH2 0x4C8 PUSH2 0x45C DUP9 PUSH2 0x4B6 JUMP JUMPDEST DUP1 SLOAD DUP5 DUP11 ADD DUP7 ADD MSTORE DUP9 SWAP6 POP DUP8 SWAP5 SWAP1 SWAP4 ADD SWAP3 DUP2 ADD PUSH2 0x500 JUMP JUMPDEST PUSH1 0xFF NOT AND DUP9 DUP3 ADD MSTORE SWAP5 ISZERO ISZERO PUSH1 0x5 SHL DUP8 ADD SWAP1 SWAP5 ADD SWAP5 POP DUP6 SWAP4 POP PUSH2 0x4C8 SWAP3 POP PUSH2 0x45C SWAP2 POP DUP10 SWAP1 POP PUSH2 0x4B6 JUMP JUMPDEST PUSH4 0x4E487B71 PUSH1 0xE0 SHL DUP4 MSTORE PUSH1 0x22 DUP11 MSTORE PUSH1 0x24 DUP4 REVERT JUMPDEST SWAP3 PUSH1 0x7F AND SWAP3 PUSH2 0x48C JUMP JUMPDEST SWAP1 POP CALLVALUE PUSH2 0x31E JUMPI DUP2 PUSH1 0x3 NOT CALLDATASIZE ADD SLT PUSH2 0x31E JUMPI PUSH1 0x5 SLOAD SWAP1 MLOAD PUSH1 0x1 PUSH1 0x1 PUSH1 0xA0 SHL SUB SWAP1 SWAP2 AND DUP2 MSTORE PUSH1 0x20 SWAP1 RETURN JUMPDEST SWAP1 CALLVALUE PUSH2 0x242 JUMPI PUSH1 0x20 CALLDATASIZE PUSH1 0x3 NOT ADD SLT PUSH2 0x242 JUMPI PUSH2 0x5BC PUSH2 0xF3F JUMP JUMPDEST PUSH2 0x5C4 PUSH2 0x1251 JUMP JUMPDEST PUSH1 0x1 PUSH1 0x1 PUSH1 0xA0 SHL SUB AND SWAP2 DUP3 ISZERO PUSH2 0x5F1 JUMPI POP POP PUSH12 0xFFFFFFFFFFFFFFFFFFFFFFFF PUSH1 0xA0 SHL PUSH1 0x6 SLOAD AND OR PUSH1 0x6 SSTORE DUP1 RETURN JUMPDEST SWAP1 PUSH1 0x20 PUSH1 0x64 SWAP3 MLOAD SWAP2 PUSH3 0x461BCD PUSH1 0xE5 SHL DUP4 MSTORE DUP3 ADD MSTORE PUSH1 0xF PUSH1 0x24 DUP3 ADD MSTORE PUSH15 0x496E76616C69642061646472657373 PUSH1 0x88 SHL PUSH1 0x44 DUP3 ADD MSTORE REVERT JUMPDEST SWAP1 POP CALLVALUE PUSH2 0x31E JUMPI DUP2 PUSH1 0x3 NOT CALLDATASIZE ADD SLT PUSH2 0x31E JUMPI PUSH1 0x7 SLOAD SWAP1 MLOAD PUSH1 0x1 PUSH1 0x1 PUSH1 0xA0 SHL SUB SWAP1 SWAP2 AND DUP2 MSTORE PUSH1 0x20 SWAP1 RETURN JUMPDEST DUP3 CALLVALUE PUSH2 0x460 JUMPI DUP1 PUSH1 0x3 NOT CALLDATASIZE ADD SLT PUSH2 0x460 JUMPI PUSH2 0x668 PUSH2 0x1251 JUMP JUMPDEST PUSH1 0x5 DUP1 SLOAD PUSH1 0x1 PUSH1 0x1 PUSH1 0xA0 SHL SUB NOT DUP2 AND SWAP1 SWAP2 SSTORE DUP2 SWAP1 PUSH1 0x1 PUSH1 0x1 PUSH1 0xA0 SHL SUB AND PUSH32 0x8BE0079C531659141344CD1FD0A4F28419497F9722A3DAAFE3B4186F6B6457E0 DUP3 DUP1 LOG3 DUP1 RETURN JUMPDEST SWAP1 POP CALLVALUE PUSH2 0x31E JUMPI PUSH1 0x20 CALLDATASIZE PUSH1 0x3 NOT ADD SLT PUSH2 0x31E JUMPI PUSH1 0x20 SWAP2 DUP2 SWAP1 PUSH1 0x1 PUSH1 0x1 PUSH1 0xA0 SHL SUB PUSH2 0x6D4 PUSH2 0xF3F JUMP JUMPDEST AND DUP2 MSTORE DUP1 DUP5 MSTORE KECCAK256 SLOAD SWAP1 MLOAD SWAP1 DUP2 MSTORE RETURN JUMPDEST DUP3 SWAP1 CALLVALUE PUSH2 0x31E JUMPI DUP2 PUSH1 0x3 NOT CALLDATASIZE ADD SLT PUSH2 0x31E JUMPI PUSH2 0x6FD PUSH2 0x1251 JUMP JUMPDEST PUSH1 0x8 SLOAD SWAP1 DUP2 ISZERO PUSH2 0x999 JUMPI PUSH1 0x7 SLOAD DUP2 MLOAD PUSH1 0x1 PUSH1 0x1 PUSH1 0xA0 SHL SUB SWAP4 SWAP2 DUP5 AND SWAP2 PUSH1 0x80 DUP3 ADD PUSH8 0xFFFFFFFFFFFFFFFF DUP2 GT DUP4 DUP3 LT OR PUSH2 0x986 JUMPI DUP5 SWAP3 DUP7 SWAP8 SWAP9 SWAP5 SWAP3 PUSH1 0x84 SWAP3 DUP6 MSTORE DUP2 MSTORE DUP9 PUSH1 0x20 DUP3 ADD SWAP4 ADDRESS DUP6 MSTORE DUP6 DUP4 ADD PUSH16 0xFFFFFFFFFFFFFFFFFFFFFFFFFFFFFFFF SWAP1 DUP2 DUP2 MSTORE DUP2 PUSH1 0x60 DUP7 ADD SWAP2 DUP2 DUP4 MSTORE DUP10 MLOAD SWAP13 DUP14 SWAP10 DUP11 SWAP9 PUSH4 0xFC6F7865 PUSH1 0xE0 SHL DUP11 MSTORE MLOAD DUP14 DUP11 ADD MSTORE MLOAD AND PUSH1 0x24 DUP9 ADD MSTORE MLOAD AND PUSH1 0x44 DUP7 ADD MSTORE MLOAD AND PUSH1 0x64 DUP5 ADD MSTORE GAS CALL DUP1 ISZERO PUSH2 0x97C JUMPI DUP6 SWAP4 DUP7 SWAP2 PUSH2 0x943 JUMPI JUMPDEST POP SELFBALANCE SWAP4 DUP1 ISZERO DUP1 ISZERO SWAP1 PUSH2 0x93A JUMPI JUMPDEST PUSH2 0x91D JUMPI JUMPDEST POP POP DUP3 ISZERO SWAP3 DUP4 ISZERO PUSH2 0x7C5 JUMPI DUP6 DUP1 RETURN JUMPDEST PUSH1 0x28 DUP2 MUL DUP2 DUP2 DIV PUSH1 0x28 EQ DUP6 OR ISZERO PUSH2 0x90A JUMPI PUSH1 0x64 SWAP1 DIV SWAP4 PUSH1 0x14 DUP3 MUL SWAP2 DUP3 DIV PUSH1 0x14 EQ OR ISZERO PUSH2 0x8F7 JUMPI PUSH1 0x64 SWAP1 DIV SWAP4 DUP6 DUP1 DUP1 DUP1 DUP8 DUP6 PUSH1 0x5 SLOAD AND GAS CALL PUSH2 0x804 PUSH2 0x137E JUMP JUMPDEST POP ISZERO PUSH2 0x8B4 JUMPI DUP6 DUP1 DUP1 DUP8 DUP2 SWAP5 PUSH1 0x6 SLOAD AND GAS CALL PUSH2 0x81E PUSH2 0x137E JUMP JUMPDEST POP ISZERO PUSH2 0x872 JUMPI POP SWAP2 DUP2 PUSH32 0x312C5308F42848705A866C73DEC11FD0783C2D64AAC6A97E94467062AD3F4058 SWAP4 PUSH2 0x857 PUSH1 0x60 SWAP5 PUSH1 0xB SLOAD PUSH2 0x135B JUMP JUMPDEST PUSH1 0xB SSTORE DUP1 MLOAD SWAP3 DUP3 DUP5 MSTORE PUSH1 0x20 DUP5 ADD MSTORE DUP3 ADD MSTORE LOG1 DUP2 DUP1 DUP1 DUP1 DUP1 DUP6 DUP1 RETURN JUMPDEST PUSH1 0x20 PUSH1 0x64 SWAP3 MLOAD SWAP2 PUSH3 0x461BCD PUSH1 0xE5 SHL DUP4 MSTORE DUP3 ADD MSTORE PUSH1 0x19 PUSH1 0x24 DUP3 ADD MSTORE PUSH32 0x4661696C656420746F2073656E642045544820746F2064657600000000000000 PUSH1 0x44 DUP3 ADD MSTORE REVERT JUMPDEST POP PUSH1 0x20 PUSH1 0x64 SWAP3 MLOAD SWAP2 PUSH3 0x461BCD PUSH1 0xE5 SHL DUP4 MSTORE DUP3 ADD MSTORE PUSH1 0x1B PUSH1 0x24 DUP3 ADD MSTORE PUSH32 0x4661696C656420746F2073656E642045544820746F206F776E65720000000000 PUSH1 0x44 DUP3 ADD MSTORE REVERT JUMPDEST PUSH4 0x4E487B71 PUSH1 0xE0 SHL DUP7 MSTORE PUSH1 0x11 DUP3 MSTORE PUSH1 0x24 DUP7 REVERT JUMPDEST PUSH4 0x4E487B71 PUSH1 0xE0 SHL DUP8 MSTORE PUSH1 0x11 DUP4 MSTORE PUSH1 0x24 DUP8 REVERT JUMPDEST PUSH2 0x932 SWAP3 SWAP5 SWAP2 PUSH2 0x92C SWAP2 PUSH2 0x135B JUMP JUMPDEST SWAP1 PUSH2 0x135B JUMP JUMPDEST SWAP2 DUP6 DUP1 PUSH2 0x7B6 JUMP JUMPDEST POP DUP2 ISZERO ISZERO PUSH2 0x7B1 JUMP JUMPDEST DUP1 SWAP5 POP DUP4 DUP1 SWAP3 POP RETURNDATASIZE DUP4 GT PUSH2 0x975 JUMPI JUMPDEST PUSH2 0x95C DUP2 DUP4 PUSH2 0xFC6 JUMP JUMPDEST DUP2 ADD SUB SLT PUSH2 0x971 JUMPI PUSH1 0x20 DUP4 MLOAD SWAP4 ADD MLOAD DUP7 PUSH2 0x7A4 JUMP JUMPDEST DUP5 DUP1 REVERT JUMPDEST POP RETURNDATASIZE PUSH2 0x952 JUMP JUMPDEST DUP3 MLOAD RETURNDATASIZE DUP8 DUP3 RETURNDATACOPY RETURNDATASIZE SWAP1 REVERT JUMPDEST PUSH4 0x4E487B71 PUSH1 0xE0 SHL DUP8 MSTORE PUSH1 0x41 DUP9 MSTORE PUSH1 0x24 DUP8 REVERT JUMPDEST MLOAD PUSH3 0x461BCD PUSH1 0xE5 SHL DUP2 MSTORE PUSH1 0x20 DUP2 DUP6 ADD MSTORE PUSH1 0x10 PUSH1 0x24 DUP3 ADD MSTORE PUSH16 0x141BDCDA5D1A5BDB881B9BDD081CD95D PUSH1 0x82 SHL PUSH1 0x44 DUP3 ADD MSTORE PUSH1 0x64 SWAP1 REVERT JUMPDEST SWAP1 POP CALLVALUE PUSH2 0x31E JUMPI DUP2 PUSH1 0x3 NOT CALLDATASIZE ADD SLT PUSH2 0x31E JUMPI PUSH1 0x20 SWAP1 MLOAD PUSH1 0x14 DUP2 MSTORE RETURN JUMPDEST SWAP1 POP CALLVALUE PUSH2 0x31E JUMPI DUP2 PUSH1 0x3 NOT CALLDATASIZE ADD SLT PUSH2 0x31E JUMPI PUSH1 0x6 SLOAD SWAP1 MLOAD PUSH1 0x1 PUSH1 0x1 PUSH1 0xA0 SHL SUB SWAP1 SWAP2 AND DUP2 MSTORE PUSH1 0x20 SWAP1 RETURN JUMPDEST CALLVALUE PUSH2 0x242 JUMPI DUP3 PUSH1 0x3 NOT CALLDATASIZE ADD SLT PUSH2 0x242 JUMPI CALLER DUP4 MSTORE PUSH1 0x20 SWAP1 DUP4 DUP3 MSTORE DUP1 DUP5 KECCAK256 SLOAD ISZERO PUSH2 0xBB0 JUMPI PUSH1 0xB SLOAD DUP1 ISZERO PUSH2 0xB77 JUMPI PUSH1 0x2 SLOAD CALLER DUP7 MSTORE DUP6 DUP5 MSTORE DUP3 DUP7 KECCAK256 SLOAD DUP1 DUP4 MUL SWAP3 DUP4 DIV SUB PUSH2 0xB64 JUMPI DUP1 ISZERO PUSH2 0xB51 JUMPI SWAP1 PUSH2 0xA73 SWAP2 CALLER DUP8 MSTORE PUSH1 0xC DUP6 MSTORE DUP4 DUP8 KECCAK256 SLOAD SWAP2 DIV PUSH2 0x13BE JUMP JUMPDEST SWAP3 DUP4 ISZERO PUSH2 0xB1A JUMPI CALLER DUP6 MSTORE PUSH1 0xC DUP4 MSTORE DUP2 DUP6 KECCAK256 PUSH2 0xA8F DUP6 DUP3 SLOAD PUSH2 0x135B JUMP JUMPDEST SWAP1 SSTORE PUSH2 0xA9D DUP5 PUSH1 0xB SLOAD PUSH2 0x13BE JUMP JUMPDEST PUSH1 0xB SSTORE DUP5 DUP1 DUP1 DUP1 DUP8 CALLER GAS CALL PUSH2 0xAB0 PUSH2 0x137E JUMP JUMPDEST POP ISZERO PUSH2 0xAE4 JUMPI POP SWAP1 PUSH32 0xFC30CDDEA38E2BF4D6EA7D3F9ED3B6AD7F176419F4963BD81318067A4AEE73FE SWAP2 MLOAD SWAP3 DUP4 MSTORE CALLER SWAP3 LOG2 DUP1 RETURN JUMPDEST DUP3 PUSH1 0x64 SWAP3 MLOAD SWAP2 PUSH3 0x461BCD PUSH1 0xE5 SHL DUP4 MSTORE DUP3 ADD MSTORE PUSH1 0x12 PUSH1 0x24 DUP3 ADD MSTORE PUSH18 0x8CC2D2D8CAC840E8DE40E6CADCC8408AA89 PUSH1 0x73 SHL PUSH1 0x44 DUP3 ADD MSTORE REVERT JUMPDEST DUP3 PUSH1 0x64 SWAP3 MLOAD SWAP2 PUSH3 0x461BCD PUSH1 0xE5 SHL DUP4 MSTORE DUP3 ADD MSTORE PUSH1 0x13 PUSH1 0x24 DUP3 ADD MSTORE PUSH19 0x4E6F207265776172647320746F20636C61696D PUSH1 0x68 SHL PUSH1 0x44 DUP3 ADD MSTORE REVERT JUMPDEST PUSH4 0x4E487B71 PUSH1 0xE0 SHL DUP7 MSTORE PUSH1 0x12 DUP6 MSTORE PUSH1 0x24 DUP7 REVERT JUMPDEST PUSH4 0x4E487B71 PUSH1 0xE0 SHL DUP7 MSTORE PUSH1 0x11 DUP6 MSTORE PUSH1 0x24 DUP7 REVERT JUMPDEST POP MLOAD PUSH3 0x461BCD PUSH1 0xE5 SHL DUP2 MSTORE SWAP2 DUP3 ADD MSTORE PUSH1 0x14 PUSH1 0x24 DUP3 ADD MSTORE PUSH20 0x4E6F207265776172647320617661696C61626C65 PUSH1 0x60 SHL PUSH1 0x44 DUP3 ADD MSTORE PUSH1 0x64 SWAP2 POP REVERT JUMPDEST MLOAD PUSH3 0x461BCD PUSH1 0xE5 SHL DUP2 MSTORE SWAP2 DUP3 ADD MSTORE PUSH1 0xC PUSH1 0x24 DUP3 ADD MSTORE PUSH12 0x2737BA1030903437B63232B9 PUSH1 0xA1 SHL PUSH1 0x44 DUP3 ADD MSTORE PUSH1 0x64 SWAP2 POP REVERT JUMPDEST SWAP1 POP CALLVALUE PUSH2 0x31E JUMPI DUP2 PUSH1 0x3 NOT CALLDATASIZE ADD SLT PUSH2 0x31E JUMPI PUSH1 0x20 SWAP1 MLOAD PUSH1 0x12 DUP2 MSTORE RETURN JUMPDEST SWAP1 CALLVALUE PUSH2 0x242 JUMPI PUSH1 0x20 CALLDATASIZE PUSH1 0x3 NOT ADD SLT PUSH2 0x242 JUMPI CALLDATALOAD PUSH1 0xA SLOAD DUP2 LT ISZERO PUSH2 0x242 JUMPI PUSH1 0xA PUSH1 0x20 SWAP4 MSTORE PUSH1 0x1 DUP1 PUSH1 0xA0 SHL SUB SWAP1 PUSH32 0xC65A7BB8D6351C1CF70C95A316CC6A92839C986682D98BC35F958F4883F9D2A8 ADD SLOAD AND SWAP1 MLOAD SWAP1 DUP2 MSTORE RETURN JUMPDEST SWAP2 CALLVALUE PUSH2 0x460 JUMPI PUSH1 0x60 CALLDATASIZE PUSH1 0x3 NOT ADD SLT PUSH2 0x460 JUMPI PUSH2 0xC6C PUSH2 0xF3F JUMP JUMPDEST PUSH2 0xC74 PUSH2 0xF5A JUMP JUMPDEST SWAP2 PUSH1 0x44 CALLDATALOAD SWAP4 PUSH1 0x1 DUP1 PUSH1 0xA0 SHL SUB DUP4 AND DUP1 DUP4 MSTORE PUSH1 0x1 PUSH1 0x20 MSTORE DUP7 DUP4 KECCAK256 CALLER DUP5 MSTORE PUSH1 0x20 MSTORE DUP7 DUP4 KECCAK256 SLOAD SWAP2 PUSH1 0x0 NOT DUP4 LT PUSH2 0xCB0 JUMPI JUMPDEST PUSH1 0x20 DUP9 PUSH2 0x41C DUP10 DUP10 DUP10 PUSH2 0x127D JUMP JUMPDEST DUP7 DUP4 LT PUSH2 0xD18 JUMPI DUP2 ISZERO PUSH2 0xD01 JUMPI CALLER ISZERO PUSH2 0xCEA JUMPI POP DUP3 MSTORE PUSH1 0x1 PUSH1 0x20 SWAP1 DUP2 MSTORE DUP7 DUP4 KECCAK256 CALLER DUP5 MSTORE DUP2 MSTORE SWAP2 DUP7 SWAP1 KECCAK256 SWAP1 DUP6 SWAP1 SUB SWAP1 SSTORE DUP3 SWAP1 PUSH2 0x41C DUP8 PUSH2 0xCA2 JUMP JUMPDEST DUP8 MLOAD PUSH4 0x4A1406B1 PUSH1 0xE1 SHL DUP2 MSTORE SWAP1 DUP2 ADD DUP5 SWAP1 MSTORE PUSH1 0x24 SWAP1 REVERT JUMPDEST DUP8 MLOAD PUSH4 0xE602DF05 PUSH1 0xE0 SHL DUP2 MSTORE SWAP1 DUP2 ADD DUP5 SWAP1 MSTORE PUSH1 0x24 SWAP1 REVERT JUMPDEST DUP8 MLOAD PUSH4 0x7DC7A0D9 PUSH1 0xE1 SHL DUP2 MSTORE CALLER SWAP2 DUP2 ADD SWAP2 DUP3 MSTORE PUSH1 0x20 DUP3 ADD SWAP4 SWAP1 SWAP4 MSTORE PUSH1 0x40 DUP2 ADD DUP8 SWAP1 MSTORE DUP3 SWAP2 POP PUSH1 0x60 ADD SUB SWAP1 REVERT JUMPDEST SWAP1 POP CALLVALUE PUSH2 0x31E JUMPI DUP2 PUSH1 0x3 NOT CALLDATASIZE ADD SLT PUSH2 0x31E JUMPI PUSH1 0x20 SWAP1 PUSH1 0x2 SLOAD SWAP1 MLOAD SWAP1 DUP2 MSTORE RETURN JUMPDEST SWAP1 CALLVALUE PUSH2 0x242 JUMPI DUP2 PUSH1 0x3 NOT CALLDATASIZE ADD SLT PUSH2 0x242 JUMPI PUSH2 0xD7C PUSH2 0xF3F JUMP JUMPDEST PUSH1 0x24 CALLDATALOAD SWAP1 CALLER ISZERO PUSH2 0xDF5 JUMPI PUSH1 0x1 PUSH1 0x1 PUSH1 0xA0 SHL SUB AND SWAP2 DUP3 ISZERO PUSH2 0xDDE JUMPI POP DUP1 DUP4 PUSH1 0x20 SWAP6 CALLER DUP2 MSTORE PUSH1 0x1 DUP8 MSTORE DUP2 DUP2 KECCAK256 DUP6 DUP3 MSTORE DUP8 MSTORE KECCAK256 SSTORE DUP3 MLOAD SWAP1 DUP2 MSTORE PUSH32 0x8C5BE1E5EBEC7D5BD14F71427D1E84F3DD0314C0F7B2291E5B200AC8C7C3B925 DUP5 CALLER SWAP3 LOG3 MLOAD PUSH1 0x1 DUP2 MSTORE RETURN JUMPDEST DUP4 MLOAD PUSH4 0x4A1406B1 PUSH1 0xE1 SHL DUP2 MSTORE SWAP1 DUP2 ADD DUP6 SWAP1 MSTORE PUSH1 0x24 SWAP1 REVERT JUMPDEST DUP4 MLOAD PUSH4 0xE602DF05 PUSH1 0xE0 SHL DUP2 MSTORE DUP1 DUP5 ADD DUP7 SWAP1 MSTORE PUSH1 0x24 SWAP1 REVERT JUMPDEST SWAP2 SWAP3 SWAP1 CALLVALUE PUSH2 0x31E JUMPI DUP2 PUSH1 0x3 NOT CALLDATASIZE ADD SLT PUSH2 0x31E JUMPI DUP2 PUSH1 0x3 SLOAD SWAP3 PUSH1 0x1 DUP5 DUP2 SHR SWAP2 DUP2 DUP7 AND SWAP6 DUP7 ISZERO PUSH2 0xEF5 JUMPI JUMPDEST PUSH1 0x20 SWAP7 DUP8 DUP6 LT DUP2 EQ PUSH2 0x55C JUMPI DUP9 SWAP10 POP SWAP7 DUP9 SWAP7 SWAP8 DUP6 DUP3 SWAP11 MSTORE SWAP2 DUP3 PUSH1 0x0 EQ PUSH2 0xECE JUMPI POP POP PUSH1 0x1 EQ PUSH2 0xE72 JUMPI JUMPDEST POP POP POP PUSH2 0x45C SWAP3 SWAP2 PUSH2 0x4C8 SWAP2 SUB DUP6 PUSH2 0xFC6 JUMP JUMPDEST SWAP2 SWAP1 DUP7 SWAP4 POP PUSH1 0x3 DUP4 MSTORE PUSH32 0xC2575A0E9E593C00F959F8C92F12DB2869C3395A3B0502D05E2516446F71F85B JUMPDEST DUP3 DUP5 LT PUSH2 0xEB6 JUMPI POP POP POP DUP3 ADD ADD DUP2 PUSH2 0x4C8 PUSH2 0x45C PUSH2 0xE5F JUMP JUMPDEST DUP1 SLOAD DUP5 DUP11 ADD DUP7 ADD MSTORE DUP9 SWAP6 POP DUP8 SWAP5 SWAP1 SWAP4 ADD SWAP3 DUP2 ADD PUSH2 0xE9D JUMP JUMPDEST PUSH1 0xFF NOT AND DUP8 DUP3 ADD MSTORE SWAP4 ISZERO ISZERO PUSH1 0x5 SHL DUP7 ADD SWAP1 SWAP4 ADD SWAP4 POP DUP5 SWAP3 POP PUSH2 0x4C8 SWAP2 POP PUSH2 0x45C SWAP1 POP PUSH2 0xE5F JUMP JUMPDEST SWAP3 PUSH1 0x7F AND SWAP3 PUSH2 0xE35 JUMP JUMPDEST SWAP2 SWAP1 DUP3 MLOAD SWAP3 DUP4 DUP3 MSTORE PUSH1 0x0 JUMPDEST DUP5 DUP2 LT PUSH2 0xF2B JUMPI POP POP DUP3 PUSH1 0x0 PUSH1 0x20 DUP1 SWAP5 SWAP6 DUP5 ADD ADD MSTORE PUSH1 0x1F DUP1 NOT SWAP2 ADD AND ADD ADD SWAP1 JUMP JUMPDEST PUSH1 0x20 DUP2 DUP4 ADD DUP2 ADD MLOAD DUP5 DUP4 ADD DUP3 ADD MSTORE ADD PUSH2 0xF0A JUMP JUMPDEST PUSH1 0x4 CALLDATALOAD SWAP1 PUSH1 0x1 PUSH1 0x1 PUSH1 0xA0 SHL SUB DUP3 AND DUP3 SUB PUSH2 0xF55 JUMPI JUMP JUMPDEST PUSH1 0x0 DUP1 REVERT JUMPDEST PUSH1 0x24 CALLDATALOAD SWAP1 PUSH1 0x1 PUSH1 0x1 PUSH1 0xA0 SHL SUB DUP3 AND DUP3 SUB PUSH2 0xF55 JUMPI JUMP JUMPDEST CALLVALUE PUSH2 0xF55 JUMPI PUSH1 0x0 CALLDATASIZE PUSH1 0x3 NOT ADD SLT PUSH2 0xF55 JUMPI PUSH1 0x20 PUSH1 0x40 MLOAD PUSH1 0x28 DUP2 MSTORE RETURN JUMPDEST SWAP2 PUSH2 0xFB5 SWAP1 PUSH2 0xFA7 PUSH2 0xFC3 SWAP6 SWAP4 PUSH1 0x60 DUP7 MSTORE PUSH1 0x60 DUP7 ADD SWAP1 PUSH2 0xEFF JUMP JUMPDEST SWAP1 DUP5 DUP3 SUB PUSH1 0x20 DUP7 ADD MSTORE PUSH2 0xEFF JUMP JUMPDEST SWAP2 PUSH1 0x40 DUP2 DUP5 SUB SWAP2 ADD MSTORE PUSH2 0xEFF JUMP JUMPDEST SWAP1 JUMP JUMPDEST SWAP1 PUSH1 0x1F DUP1 NOT SWAP2 ADD AND DUP2 ADD SWAP1 DUP2 LT PUSH8 0xFFFFFFFFFFFFFFFF DUP3 GT OR PUSH2 0xFE8 JUMPI PUSH1 0x40 MSTORE JUMP JUMPDEST PUSH4 0x4E487B71 PUSH1 0xE0 SHL PUSH1 0x0 MSTORE PUSH1 0x41 PUSH1 0x4 MSTORE PUSH1 0x24 PUSH1 0x0 REVERT JUMPDEST PUSH1 0x40 MLOAD SWAP1 PUSH1 0x0 PUSH1 0xD SLOAD SWAP1 PUSH1 0x1 DUP3 DUP2 SHR SWAP1 DUP1 DUP5 AND SWAP4 DUP5 ISZERO PUSH2 0x10DF JUMPI JUMPDEST PUSH1 0x20 SWAP5 DUP6 DUP5 LT DUP2 EQ PUSH2 0x10CB JUMPI DUP4 DUP9 MSTORE DUP8 SWAP5 SWAP4 SWAP3 SWAP2 DUP2 ISZERO PUSH2 0x10AB JUMPI POP PUSH1 0x1 EQ PUSH2 0x104C JUMPI JUMPDEST POP POP PUSH2 0x104A SWAP3 POP SUB DUP4 PUSH2 0xFC6 JUMP JUMPDEST JUMP JUMPDEST SWAP1 SWAP4 SWAP2 POP PUSH1 0xD PUSH1 0x0 MSTORE PUSH32 0xD7B6990105719101DABEB77144F2A3385C8033ACD3AF97E9423A695E81AD1EB5 SWAP4 PUSH1 0x0 SWAP2 JUMPDEST DUP2 DUP4 LT PUSH2 0x1093 JUMPI POP POP PUSH2 0x104A SWAP4 POP DUP3 ADD ADD CODESIZE DUP1 PUSH2 0x103C JUMP JUMPDEST DUP6 SLOAD DUP9 DUP5 ADD DUP6 ADD MSTORE SWAP5 DUP6 ADD SWAP5 DUP8 SWAP5 POP SWAP2 DUP4 ADD SWAP2 PUSH2 0x107B JUMP JUMPDEST SWAP2 POP POP PUSH2 0x104A SWAP5 SWAP3 POP PUSH1 0xFF NOT AND DUP3 DUP5 ADD MSTORE ISZERO ISZERO PUSH1 0x5 SHL DUP3 ADD ADD CODESIZE DUP1 PUSH2 0x103C JUMP JUMPDEST PUSH4 0x4E487B71 PUSH1 0xE0 SHL DUP6 MSTORE PUSH1 0x22 PUSH1 0x4 MSTORE PUSH1 0x24 DUP6 REVERT JUMPDEST SWAP2 PUSH1 0x7F AND SWAP2 PUSH2 0x1019 JUMP JUMPDEST PUSH1 0x40 MLOAD SWAP1 PUSH1 0x0 PUSH1 0xE SLOAD SWAP1 PUSH1 0x1 DUP3 DUP2 SHR SWAP1 DUP1 DUP5 AND SWAP4 DUP5 ISZERO PUSH2 0x1193 JUMPI JUMPDEST PUSH1 0x20 SWAP5 DUP6 DUP5 LT DUP2 EQ PUSH2 0x10CB JUMPI DUP4 DUP9 MSTORE DUP8 SWAP5 SWAP4 SWAP3 SWAP2 DUP2 ISZERO PUSH2 0x10AB JUMPI POP PUSH1 0x1 EQ PUSH2 0x1134 JUMPI POP POP PUSH2 0x104A SWAP3 POP SUB DUP4 PUSH2 0xFC6 JUMP JUMPDEST SWAP1 SWAP4 SWAP2 POP PUSH1 0xE PUSH1 0x0 MSTORE PUSH32 0xBB7B4A454DC3493923482F07822329ED19E8244EFF582CC204F8554C3620C3FD SWAP4 PUSH1 0x0 SWAP2 JUMPDEST DUP2 DUP4 LT PUSH2 0x117B JUMPI POP POP PUSH2 0x104A SWAP4 POP DUP3 ADD ADD CODESIZE DUP1 PUSH2 0x103C JUMP JUMPDEST DUP6 SLOAD DUP9 DUP5 ADD DUP6 ADD MSTORE SWAP5 DUP6 ADD SWAP5 DUP8 SWAP5 POP SWAP2 DUP4 ADD SWAP2 PUSH2 0x1163 JUMP JUMPDEST SWAP2 PUSH1 0x7F AND SWAP2 PUSH2 0x1104 JUMP JUMPDEST PUSH1 0x40 MLOAD SWAP1 PUSH1 0x0 PUSH1 0xF SLOAD SWAP1 PUSH1 0x1 DUP3 DUP2 SHR SWAP1 DUP1 DUP5 AND SWAP4 DUP5 ISZERO PUSH2 0x1247 JUMPI JUMPDEST PUSH1 0x20 SWAP5 DUP6 DUP5 LT DUP2 EQ PUSH2 0x10CB JUMPI DUP4 DUP9 MSTORE DUP8 SWAP5 SWAP4 SWAP3 SWAP2 DUP2 ISZERO PUSH2 0x10AB JUMPI POP PUSH1 0x1 EQ PUSH2 0x11E8 JUMPI POP POP PUSH2 0x104A SWAP3 POP SUB DUP4 PUSH2 0xFC6 JUMP JUMPDEST SWAP1 SWAP4 SWAP2 POP PUSH1 0xF PUSH1 0x0 MSTORE PUSH32 0x8D1108E10BCB7C27DDDFC02ED9D693A074039D026CF4EA4240B40F7D581AC802 SWAP4 PUSH1 0x0 SWAP2 JUMPDEST DUP2 DUP4 LT PUSH2 0x122F JUMPI POP POP PUSH2 0x104A SWAP4 POP DUP3 ADD ADD CODESIZE DUP1 PUSH2 0x103C JUMP JUMPDEST DUP6 SLOAD DUP9 DUP5 ADD DUP6 ADD MSTORE SWAP5 DUP6 ADD SWAP5 DUP8 SWAP5 POP SWAP2 DUP4 ADD SWAP2 PUSH2 0x1217 JUMP JUMPDEST SWAP2 PUSH1 0x7F AND SWAP2 PUSH2 0x11B8 JUMP JUMPDEST PUSH1 0x5 SLOAD PUSH1 0x1 PUSH1 0x1 PUSH1 0xA0 SHL SUB AND CALLER SUB PUSH2 0x1265 JUMPI JUMP JUMPDEST PUSH1 0x40 MLOAD PUSH4 0x118CDAA7 PUSH1 0xE0 SHL DUP2 MSTORE CALLER PUSH1 0x4 DUP3 ADD MSTORE PUSH1 0x24 SWAP1 REVERT JUMPDEST SWAP2 PUSH1 0x1 PUSH1 0x1 PUSH1 0xA0 SHL SUB DUP1 DUP5 AND SWAP3 DUP4 ISZERO PUSH2 0x1342 JUMPI AND SWAP3 DUP4 ISZERO PUSH2 0x1329 JUMPI PUSH1 0x0 SWAP1 DUP4 DUP3 MSTORE DUP2 PUSH1 0x20 MSTORE PUSH1 0x40 DUP3 KECCAK256 SLOAD SWAP1 DUP4 DUP3 LT PUSH2 0x12F7 JUMPI POP SWAP2 PUSH1 0x40 DUP3 DUP3 PUSH32 0xDDF252AD1BE2C89B69C2B068FC378DAA952BA7F163C4A11628F55A4DF523B3EF SWAP6 DUP8 PUSH1 0x20 SWAP7 MSTORE DUP3 DUP7 MSTORE SUB DUP3 DUP3 KECCAK256 SSTORE DUP7 DUP2 MSTORE KECCAK256 DUP2 DUP2 SLOAD ADD SWAP1 SSTORE PUSH1 0x40 MLOAD SWAP1 DUP2 MSTORE LOG3 JUMP JUMPDEST PUSH1 0x40 MLOAD PUSH4 0x391434E3 PUSH1 0xE2 SHL DUP2 MSTORE PUSH1 0x1 PUSH1 0x1 PUSH1 0xA0 SHL SUB SWAP2 SWAP1 SWAP2 AND PUSH1 0x4 DUP3 ADD MSTORE PUSH1 0x24 DUP2 ADD SWAP2 SWAP1 SWAP2 MSTORE PUSH1 0x44 DUP2 ADD DUP4 SWAP1 MSTORE PUSH1 0x64 SWAP1 REVERT JUMPDEST PUSH1 0x40 MLOAD PUSH4 0xEC442F05 PUSH1 0xE0 SHL DUP2 MSTORE PUSH1 0x0 PUSH1 0x4 DUP3 ADD MSTORE PUSH1 0x24 SWAP1 REVERT JUMPDEST PUSH1 0x40 MLOAD PUSH4 0x4B637E8F PUSH1 0xE1 SHL DUP2 MSTORE PUSH1 0x0 PUSH1 0x4 DUP3 ADD MSTORE PUSH1 0x24 SWAP1 REVERT JUMPDEST SWAP2 SWAP1 DUP3 ADD DUP1 SWAP3 GT PUSH2 0x1368 JUMPI JUMP JUMPDEST PUSH4 0x4E487B71 PUSH1 0xE0 SHL PUSH1 0x0 MSTORE PUSH1 0x11 PUSH1 0x4 MSTORE PUSH1 0x24 PUSH1 0x0 REVERT JUMPDEST RETURNDATASIZE ISZERO PUSH2 0x13B9 JUMPI RETURNDATASIZE SWAP1 PUSH8 0xFFFFFFFFFFFFFFFF DUP3 GT PUSH2 0xFE8 JUMPI PUSH1 0x40 MLOAD SWAP2 PUSH2 0x13AD PUSH1 0x1F DUP3 ADD PUSH1 0x1F NOT AND PUSH1 0x20 ADD DUP5 PUSH2 0xFC6 JUMP JUMPDEST DUP3 MSTORE RETURNDATASIZE PUSH1 0x0 PUSH1 0x20 DUP5 ADD RETURNDATACOPY JUMP JUMPDEST PUSH1 0x60 SWAP1 JUMP JUMPDEST SWAP2 SWAP1 DUP3 SUB SWAP2 DUP3 GT PUSH2 0x1368 JUMPI JUMP INVALID LOG2 PUSH5 0x6970667358 0x22 SLT KECCAK256 0xE6 PUSH11 0x7F31F58E15D3692FAF2C8B 0xB5 PUSH26 0xF3BDC6597C274397E5FD03389176EDF4BA64736F6C6343000814 STOP CALLER COINBASE LT PUSH0 PUSH20 0x3C92E731673DB8D7877F039F0CCE3BC6436D38E5 0xC3 PUSH28 0xCE47F2A4B149BB7B4A454DC3493923482F07822329ED19E8244EFF58 0x2C 0xC2 DIV 0xF8 SSTORE 0x4C CALLDATASIZE KECCAK256 0xC3 REVERT 0xD7 0xB6 SWAP10 ADD SDIV PUSH18 0x9101DABEB77144F2A3385C8033ACD3AF97E9 TIMESTAMP GASPRICE PUSH10 0x5E81AD1EB58D1108E10B 0xCB PUSH29 0x27DDDFC02ED9D693A074039D026CF4EA4240B40F7D581AC8023C5AD147 LT 0x4E JUMP 0xBE CALLVALUE 0xA9 OR PUSH11 0x6692F7DF8D2F4B29A5AF06 0xBC PUSH12 0x98970D329D6577A264697066 PUSH20 0x582212200BBB7D6B965427F2F97700FA300A70B5 LOG1 PUSH24 0x61106FC60547D2A272A2A52A517F64736F6C634300081400 CALLER "
        },
        "methodIdentifiers": {
          "FEE_TIER()": "4c69a6c9",
          "allTokens(uint256)": "634282af",
          "deployToken(string,string,address,string,string,string)": "fe658a17",
          "devAddress()": "3ad10ef6",
          "getAllTokens()": "2a5c792a",
          "owner()": "8da5cb5b",
          "positionManager()": "791b98bc",
          "renounceOwnership()": "715018a6",
          "transferOwnership(address)": "f2fde38b",
          "uniswapV3Factory()": "5b549182",
          "userToToken(address)": "28d249fe",
          "weth()": "3fc8cef3",
          "withdrawETH()": "e086e5ec"
        }
      }
    }
  }
}