{
  "contracts/SocialToken.sol": {
    "SocialToken": {
      "abi": [
        {
          "inputs": [
            {
              "internalType": "string",
              "name": "name",
              "type": "string"
            },
            {
              "internalType": "string",
              "name": "symbol",
              "type": "string"
            },
            {
              "internalType": "address",
              "name": "initialOwner",
              "type": "address"
            },
            {
              "internalType": "address",
              "name": "_devAddress",
              "type": "address"
            },
            {
              "internalType": "address",
              "name": "_positionManager",
              "type": "address"
            },
            {
              "internalType": "string",
              "name": "_handle",
              "type": "string"
            },
            {
              "internalType": "string",
              "name": "_platform",
              "type": "string"
            },
            {
              "internalType": "string",
              "name": "_profileUrl",
              "type": "string"
            }
          ],
          "stateMutability": "nonpayable",
          "type": "constructor"
        },
        {
          "inputs": [
            {
              "internalType": "address",
              "name": "spender",
              "type": "address"
            },
            {
              "internalType": "uint256",
              "name": "allowance",
              "type": "uint256"
            },
            {
              "internalType": "uint256",
              "name": "needed",
              "type": "uint256"
            }
          ],
          "name": "ERC20InsufficientAllowance",
          "type": "error"
        },
        {
          "inputs": [
            {
              "internalType": "address",
              "name": "sender",
              "type": "address"
            },
            {
              "internalType": "uint256",
              "name": "balance",
              "type": "uint256"
            },
            {
              "internalType": "uint256",
              "name": "needed",
              "type": "uint256"
            }
          ],
          "name": "ERC20InsufficientBalance",
          "type": "error"
        },
        {
          "inputs": [
            {
              "internalType": "address",
              "name": "approver",
              "type": "address"
            }
          ],
          "name": "ERC20InvalidApprover",
          "type": "error"
        },
        {
          "inputs": [
            {
              "internalType": "address",
              "name": "receiver",
              "type": "address"
            }
          ],
          "name": "ERC20InvalidReceiver",
          "type": "error"
        },
        {
          "inputs": [
            {
              "internalType": "address",
              "name": "sender",
              "type": "address"
            }
          ],
          "name": "ERC20InvalidSender",
          "type": "error"
        },
        {
          "inputs": [
            {
              "internalType": "address",
              "name": "spender",
              "type": "address"
            }
          ],
          "name": "ERC20InvalidSpender",
          "type": "error"
        },
        {
          "inputs": [
            {
              "internalType": "address",
              "name": "owner",
              "type": "address"
            }
          ],
          "name": "OwnableInvalidOwner",
          "type": "error"
        },
        {
          "inputs": [
            {
              "internalType": "address",
              "name": "account",
              "type": "address"
            }
          ],
          "name": "OwnableUnauthorizedAccount",
          "type": "error"
        },
        {
          "anonymous": false,
          "inputs": [
            {
              "indexed": true,
              "internalType": "address",
              "name": "owner",
              "type": "address"
            },
            {
              "indexed": true,
              "internalType": "address",
              "name": "spender",
              "type": "address"
            },
            {
              "indexed": false,
              "internalType": "uint256",
              "name": "value",
              "type": "uint256"
            }
          ],
          "name": "Approval",
          "type": "event"
        },
        {
          "anonymous": false,
          "inputs": [
            {
              "indexed": false,
              "internalType": "uint256",
              "name": "ownerFee",
              "type": "uint256"
            },
            {
              "indexed": false,
              "internalType": "uint256",
              "name": "devFee",
              "type": "uint256"
            },
            {
              "indexed": false,
              "internalType": "uint256",
              "name": "holderFee",
              "type": "uint256"
            }
          ],
          "name": "FeesDistributed",
          "type": "event"
        },
        {
          "anonymous": false,
          "inputs": [
            {
              "indexed": true,
              "internalType": "address",
              "name": "previousOwner",
              "type": "address"
            },
            {
              "indexed": true,
              "internalType": "address",
              "name": "newOwner",
              "type": "address"
            }
          ],
          "name": "OwnershipTransferred",
          "type": "event"
        },
        {
          "anonymous": false,
          "inputs": [
            {
              "indexed": false,
              "internalType": "uint256",
              "name": "tokenId",
              "type": "uint256"
            }
          ],
          "name": "PositionSet",
          "type": "event"
        },
        {
          "anonymous": false,
          "inputs": [
            {
              "indexed": true,
              "internalType": "address",
              "name": "holder",
              "type": "address"
            },
            {
              "indexed": false,
              "internalType": "uint256",
              "name": "amount",
              "type": "uint256"
            }
          ],
          "name": "RewardsClaimed",
          "type": "event"
        },
        {
          "anonymous": false,
          "inputs": [
            {
              "indexed": false,
              "internalType": "string",
              "name": "handle",
              "type": "string"
            },
            {
              "indexed": false,
              "internalType": "string",
              "name": "platform",
              "type": "string"
            },
            {
              "indexed": false,
              "internalType": "string",
              "name": "profileUrl",
              "type": "string"
            }
          ],
          "name": "SocialProfileSet",
          "type": "event"
        },
        {
          "anonymous": false,
          "inputs": [
            {
              "indexed": true,
              "internalType": "address",
              "name": "from",
              "type": "address"
            },
            {
              "indexed": true,
              "internalType": "address",
              "name": "to",
              "type": "address"
            },
            {
              "indexed": false,
              "internalType": "uint256",
              "name": "value",
              "type": "uint256"
            }
          ],
          "name": "Transfer",
          "type": "event"
        },
        {
          "inputs": [],
          "name": "DEV_FEE",
          "outputs": [
            {
              "internalType": "uint256",
              "name": "",
              "type": "uint256"
            }
          ],
          "stateMutability": "view",
          "type": "function"
        },
        {
          "inputs": [],
          "name": "FEE_DENOMINATOR",
          "outputs": [
            {
              "internalType": "uint256",
              "name": "",
              "type": "uint256"
            }
          ],
          "stateMutability": "view",
          "type": "function"
        },
        {
          "inputs": [],
          "name": "HOLDER_FEE",
          "outputs": [
            {
              "internalType": "uint256",
              "name": "",
              "type": "uint256"
            }
          ],
          "stateMutability": "view",
          "type": "function"
        },
        {
          "inputs": [],
          "name": "OWNER_FEE",
          "outputs": [
            {
              "internalType": "uint256",
              "name": "",
              "type": "uint256"
            }
          ],
          "stateMutability": "view",
          "type": "function"
        },
        {
          "inputs": [
            {
              "internalType": "address",
              "name": "owner",
              "type": "address"
            },
            {
              "internalType": "address",
              "name": "spender",
              "type": "address"
            }
          ],
          "name": "allowance",
          "outputs": [
            {
              "internalType": "uint256",
              "name": "",
              "type": "uint256"
            }
          ],
          "stateMutability": "view",
          "type": "function"
        },
        {
          "inputs": [
            {
              "internalType": "address",
              "name": "spender",
              "type": "address"
            },
            {
              "internalType": "uint256",
              "name": "value",
              "type": "uint256"
            }
          ],
          "name": "approve",
          "outputs": [
            {
              "internalType": "bool",
              "name": "",
              "type": "bool"
            }
          ],
          "stateMutability": "nonpayable",
          "type": "function"
        },
        {
          "inputs": [
            {
              "internalType": "address",
              "name": "account",
              "type": "address"
            }
          ],
          "name": "balanceOf",
          "outputs": [
            {
              "internalType": "uint256",
              "name": "",
              "type": "uint256"
            }
          ],
          "stateMutability": "view",
          "type": "function"
        },
        {
          "inputs": [],
          "name": "claimRewards",
          "outputs": [],
          "stateMutability": "nonpayable",
          "type": "function"
        },
        {
          "inputs": [
            {
              "internalType": "address",
              "name": "",
              "type": "address"
            }
          ],
          "name": "claimedRewards",
          "outputs": [
            {
              "internalType": "uint256",
              "name": "",
              "type": "uint256"
            }
          ],
          "stateMutability": "view",
          "type": "function"
        },
        {
          "inputs": [],
          "name": "decimals",
          "outputs": [
            {
              "internalType": "uint8",
              "name": "",
              "type": "uint8"
            }
          ],
          "stateMutability": "view",
          "type": "function"
        },
        {
          "inputs": [],
          "name": "devAddress",
          "outputs": [
            {
              "internalType": "address",
              "name": "",
              "type": "address"
            }
          ],
          "stateMutability": "view",
          "type": "function"
        },
        {
          "inputs": [],
          "name": "distributeLPFees",
          "outputs": [],
          "stateMutability": "nonpayable",
          "type": "function"
        },
        {
          "inputs": [],
          "name": "getSocialProfile",
          "outputs": [
            {
              "internalType": "string",
              "name": "handle",
              "type": "string"
            },
            {
              "internalType": "string",
              "name": "platform",
              "type": "string"
            },
            {
              "internalType": "string",
              "name": "profileUrl",
              "type": "string"
            }
          ],
          "stateMutability": "view",
          "type": "function"
        },
        {
          "inputs": [
            {
              "internalType": "uint256",
              "name": "",
              "type": "uint256"
            }
          ],
          "name": "holders",
          "outputs": [
            {
              "internalType": "address",
              "name": "",
              "type": "address"
            }
          ],
          "stateMutability": "view",
          "type": "function"
        },
        {
          "inputs": [
            {
              "internalType": "address",
              "name": "",
              "type": "address"
            }
          ],
          "name": "isHolder",
          "outputs": [
            {
              "internalType": "bool",
              "name": "",
              "type": "bool"
            }
          ],
          "stateMutability": "view",
          "type": "function"
        },
        {
          "inputs": [],
          "name": "name",
          "outputs": [
            {
              "internalType": "string",
              "name": "",
              "type": "string"
            }
          ],
          "stateMutability": "view",
          "type": "function"
        },
        {
          "inputs": [],
          "name": "owner",
          "outputs": [
            {
              "internalType": "address",
              "name": "",
              "type": "address"
            }
          ],
          "stateMutability": "view",
          "type": "function"
        },
        {
          "inputs": [],
          "name": "positionManager",
          "outputs": [
            {
              "internalType": "address",
              "name": "",
              "type": "address"
            }
          ],
          "stateMutability": "view",
          "type": "function"
        },
        {
          "inputs": [],
          "name": "positionTokenId",
          "outputs": [
            {
              "internalType": "uint256",
              "name": "",
              "type": "uint256"
            }
          ],
          "stateMutability": "view",
          "type": "function"
        },
        {
          "inputs": [],
          "name": "renounceOwnership",
          "outputs": [],
          "stateMutability": "nonpayable",
          "type": "function"
        },
        {
          "inputs": [
            {
              "internalType": "uint256",
              "name": "_tokenId",
              "type": "uint256"
            }
          ],
          "name": "setPositionTokenId",
          "outputs": [],
          "stateMutability": "nonpayable",
          "type": "function"
        },
        {
          "inputs": [],
          "name": "socialProfile",
          "outputs": [
            {
              "internalType": "string",
              "name": "handle",
              "type": "string"
            },
            {
              "internalType": "string",
              "name": "platform",
              "type": "string"
            },
            {
              "internalType": "string",
              "name": "profileUrl",
              "type": "string"
            }
          ],
          "stateMutability": "view",
          "type": "function"
        },
        {
          "inputs": [],
          "name": "symbol",
          "outputs": [
            {
              "internalType": "string",
              "name": "",
              "type": "string"
            }
          ],
          "stateMutability": "view",
          "type": "function"
        },
        {
          "inputs": [],
          "name": "totalHolderRewards",
          "outputs": [
            {
              "internalType": "uint256",
              "name": "",
              "type": "uint256"
            }
          ],
          "stateMutability": "view",
          "type": "function"
        },
        {
          "inputs": [],
          "name": "totalSupply",
          "outputs": [
            {
              "internalType": "uint256",
              "name": "",
              "type": "uint256"
            }
          ],
          "stateMutability": "view",
          "type": "function"
        },
        {
          "inputs": [
            {
              "internalType": "address",
              "name": "to",
              "type": "address"
            },
            {
              "internalType": "uint256",
              "name": "value",
              "type": "uint256"
            }
          ],
          "name": "transfer",
          "outputs": [
            {
              "internalType": "bool",
              "name": "",
              "type": "bool"
            }
          ],
          "stateMutability": "nonpayable",
          "type": "function"
        },
        {
          "inputs": [
            {
              "internalType": "address",
              "name": "from",
              "type": "address"
            },
            {
              "internalType": "address",
              "name": "to",
              "type": "address"
            },
            {
              "internalType": "uint256",
              "name": "value",
              "type": "uint256"
            }
          ],
          "name": "transferFrom",
          "outputs": [
            {
              "internalType": "bool",
              "name": "",
              "type": "bool"
            }
          ],
          "stateMutability": "nonpayable",
          "type": "function"
        },
        {
          "inputs": [
            {
              "internalType": "address",
              "name": "newOwner",
              "type": "address"
            }
          ],
          "name": "transferOwnership",
          "outputs": [],
          "stateMutability": "nonpayable",
          "type": "function"
        },
        {
          "inputs": [
            {
              "internalType": "address",
              "name": "newDevAddress",
              "type": "address"
            }
          ],
          "name": "updateDevAddress",
          "outputs": [],
          "stateMutability": "nonpayable",
          "type": "function"
        },
        {
          "stateMutability": "payable",
          "type": "receive"
        }
      ],
      "evm": {
        "bytecode": {
          "linkReferences": {},
          "object": "6040608081523462000a645762001fc9803803806200001e8162000a69565b92833981016101008282031262000a645781516001600160401b03811162000a6457816200004e91840162000ab4565b60208301519091906001600160401b03811162000a6457816200007391850162000ab4565b6200008085850162000b0b565b6200008e6060860162000b0b565b906200009d6080870162000b0b565b60a08701519093906001600160401b03811162000a645785620000c291890162000ab4565b60c08801519097906001600160401b03811162000a645786620000e791830162000ab4565b60e08201519096906001600160401b03811162000a64576200010a920162000ab4565b865190966001600160401b038211620005fe5760035490600182811c9216801562000a59575b6020831014620005dd5781601f849311620009e4575b50602090601f831160011462000959576000926200094d575b50508160011b916000199060031b1c1916176003555b8051906001600160401b038211620005fe5760045490600182811c9216801562000942575b6020831014620005dd5781601f849311620008cd575b50602090601f8311600114620008425760009262000836575b50508160011b916000199060031b1c1916176004555b33156200081e57600580546001600160a01b031980821633908117909355946001600160a01b03948593919284929083167f8be0079c531659141344cd1fd0a4f28419497f9722a3daafe3b4186f6b6457e0600080a3168560065416176006551683600754161760075560025469d3c21bcecceda100000090818101809111620008085760025533600052600060205287600020818154019055875190815260007fddf252ad1be2c89b69c2b068fc378daa952ba7f163c4a11628f55a4df523b3ef60203393a31680600052600960205285600020600160ff19825416179055600a5468010000000000000000811015620005fe576001810180600a55811015620007f257600a6000527fc65a7bb8d6351c1cf70c95a316cc6a92839c986682d98bc35f958f4883f9d2a80180549092161790558351606081016001600160401b03811182821017620005fe5785528381526020810182815290850183815284519091906001600160401b038111620005fe57600d54600181811c91168015620007e7575b6020821014620005dd57601f81116200078e575b50806020601f8211600114620007155760009162000709575b508160011b916000199060031b1c191617600d555b518051906001600160401b038211620005fe57600e5490600182811c92168015620006fe575b6020831014620005dd5781601f8493116200069a575b50602090601f8311600114620006205760009262000614575b50508160011b916000199060031b1c191617600e555b518051906001600160401b038211620005fe57600f54600181811c91168015620005f3575b6020821014620005dd57601f811162000584575b50602090601f8311600114620004ea5760008051602062001f49833981519152959383620004cd94620004b09794620004bf94600092620004de575b50508160011b916000199060031b1c191617600f555b875195869560608752606087019062000b20565b90858203602087015262000b20565b908382038785015262000b20565b0390a151611401908162000b488239f35b01519050388062000486565b600f600090815260008051602062001fa9833981519152929190601f198516905b8181106200056b575084620004b09794620004bf9460008051602062001f498339815191529a9894620004cd986001951062000551575b505050811b01600f556200049c565b015160001960f88460031b161c1916905538808062000542565b929360206001819287860151815501950193016200050b565b600f60005260008051602062001fa9833981519152601f840160051c81019160208510620005d2575b601f0160051c01905b818110620005c557506200044a565b60008155600101620005b6565b9091508190620005ad565b634e487b7160e01b600052602260045260246000fd5b90607f169062000436565b634e487b7160e01b600052604160045260246000fd5b015190503880620003fb565b600e600090815260008051602062001f698339815191529350601f198516905b81811062000681575090846001959493921062000667575b505050811b01600e5562000411565b015160001960f88460031b161c1916905538808062000658565b9293602060018192878601518155019501930162000640565b600e60005290915060008051602062001f69833981519152601f840160051c81019160208510620006f3575b90601f859493920160051c01905b818110620006e35750620003e2565b60008155849350600101620006d4565b9091508190620006c6565b91607f1691620003cc565b90508601513862000391565b600d6000908152925060008051602062001f89833981519152905b601f198316841062000775576001935082601f198116106200075b575b5050811b01600d55620003a6565b88015160001960f88460031b161c1916905538806200074d565b8881015182556020938401936001909201910162000730565b600d60005260008051602062001f89833981519152601f830160051c81019160208410620007dc575b601f0160051c01905b818110620007cf575062000378565b60008155600101620007c0565b9091508190620007b7565b90607f169062000364565b634e487b7160e01b600052603260045260246000fd5b634e487b7160e01b600052601160045260246000fd5b8651631e4fbdf760e01b815260006004820152602490fd5b015190503880620001c9565b600460009081527f8a35acfbc15ff81a39ae7d344fd709f28e8600b4aa8c65c6b64bfe7fe36bd19b9350601f198516905b818110620008b457509084600195949392106200089a575b505050811b01600455620001df565b015160001960f88460031b161c191690553880806200088b565b9293602060018192878601518155019501930162000873565b60046000529091507f8a35acfbc15ff81a39ae7d344fd709f28e8600b4aa8c65c6b64bfe7fe36bd19b601f840160051c8101916020851062000937575b90601f859493920160051c01905b818110620009275750620001b0565b6000815584935060010162000918565b90915081906200090a565b91607f16916200019a565b0151905038806200015f565b600360009081527fc2575a0e9e593c00f959f8c92f12db2869c3395a3b0502d05e2516446f71f85b9350601f198516905b818110620009cb5750908460019594939210620009b1575b505050811b0160035562000175565b015160001960f88460031b161c19169055388080620009a2565b929360206001819287860151815501950193016200098a565b60036000529091507fc2575a0e9e593c00f959f8c92f12db2869c3395a3b0502d05e2516446f71f85b601f840160051c8101916020851062000a4e575b90601f859493920160051c01905b81811062000a3e575062000146565b6000815584935060010162000a2f565b909150819062000a21565b91607f169162000130565b600080fd5b6040519190601f01601f191682016001600160401b03811183821017620005fe57604052565b60005b83811062000aa35750506000910152565b818101518382015260200162000a92565b81601f8201121562000a645780516001600160401b038111620005fe5762000ae6601f8201601f191660200162000a69565b928184526020828401011162000a645762000b08916020808501910162000a8f565b90565b51906001600160a01b038216820362000a6457565b9060209162000b3b8151809281855285808601910162000a8f565b601f01601f191601019056fe60806040818152600480361015610021575b505050361561001f57600080fd5b005b600091823560e01c93846306fdde0314610e0c57508363095ea7b314610d6357836318160ddd14610d4457836323b872dd14610c525783632a11ced014610bfc578363313ce56714610be0578363372500ab14610a135783633ad10ef6146109ea578363436a88c1146109ce5783635dab0fe3146101745783635f96684b146106e357836370a08231146106ac578363715018a61461064f578363791b98bc1461062657836385033762146105a25783638da5cb5b1461057957836393427cd51461042357836395d89b4114610463578363a8fb7d4014610423578363a9059cbb146103f2578363bd834345146103ba578363ca0c80451461039b578363ceefe5d11461037c578363d4d7b19a1461033e578363d73792a914610322578363dd62ed3e146102d5578363f2fde38b14610246578363f71b6681146101795750505063f963812d1461017457388080610011565b610f70565b3461024257602036600319011261024257813591610195611251565b6008546102095782156101d45750816020917f0f32eddaeca0b96600faf4afdc67f1929ecfc35985aba1f8de8825d24b5e5d619360085551908152a180f35b6020606492519162461bcd60e51b8352820152601060248201526f125b9d985b1a59081d1bdad95b88125160821b6044820152fd5b6020606492519162461bcd60e51b83528201526014602482015273141bdcda5d1a5bdb88185b1c9958591e481cd95d60621b6044820152fd5b8280fd5b903461024257602036600319011261024257610260610f3f565b90610269611251565b6001600160a01b039182169283156102bf575050600554826bffffffffffffffffffffffff60a01b821617600555167f8be0079c531659141344cd1fd0a4f28419497f9722a3daafe3b4186f6b6457e08380a380f35b51631e4fbdf760e01b8152908101849052602490fd5b90503461031e578060031936011261031e57806020926102f3610f3f565b6102fb610f5a565b6001600160a01b0391821683526001865283832091168252845220549051908152f35b5080fd5b90503461031e578160031936011261031e576020905160648152f35b90503461031e57602036600319011261031e5760209160ff9082906001600160a01b03610369610f3f565b1681526009855220541690519015158152f35b90503461031e578160031936011261031e576020906008549051908152f35b90503461031e578160031936011261031e57602090600b549051908152f35b90503461031e57602036600319011261031e5760209181906001600160a01b036103e2610f3f565b168152600c845220549051908152f35b90503461031e578060031936011261031e5760209061041c610412610f3f565b602435903361127d565b5160018152f35b82346104605780600319360112610460575061043d610ffe565b61045c6104486110e9565b9261045161119d565b905193849384610f8c565b0390f35b80fd5b823461046057806003193601126104605781519181845492600184811c9181861695861561056f575b602096878510811461055c579087899a92868b999a9b5291826000146105325750506001146104d7575b858861045c896104c8848a0385610fc6565b51928284938452830190610eff565b815286935091907f8a35acfbc15ff81a39ae7d344fd709f28e8600b4aa8c65c6b64bfe7fe36bd19b5b82841061051a57505050820101816104c861045c886104b6565b8054848a018601528895508794909301928101610500565b60ff19168882015294151560051b870190940194508593506104c8925061045c91508990506104b6565b634e487b7160e01b835260228a52602483fd5b92607f169261048c565b90503461031e578160031936011261031e5760055490516001600160a01b039091168152602090f35b9034610242576020366003190112610242576105bc610f3f565b6105c4611251565b6001600160a01b03169182156105f15750506bffffffffffffffffffffffff60a01b600654161760065580f35b906020606492519162461bcd60e51b8352820152600f60248201526e496e76616c6964206164647265737360881b6044820152fd5b90503461031e578160031936011261031e5760075490516001600160a01b039091168152602090f35b8234610460578060031936011261046057610668611251565b600580546001600160a01b0319811690915581906001600160a01b03167f8be0079c531659141344cd1fd0a4f28419497f9722a3daafe3b4186f6b6457e08280a380f35b90503461031e57602036600319011261031e5760209181906001600160a01b036106d4610f3f565b16815280845220549051908152f35b82903461031e578160031936011261031e576106fd611251565b6008549081156109995760075481516001600160a01b0393918416916080820167ffffffffffffffff8111838210176109865784928697989492608492855281528860208201933085528583016fffffffffffffffffffffffffffffffff9081815281606086019181835289519c8d998a9863fc6f786560e01b8a52518d8a01525116602488015251166044860152511660648401525af1801561097c5785938691610943575b504793801580159061093a575b61091d575b505082159283156107c5578580f35b6028810281810460281485171561090a5760649004936014820291820460141417156108f7576064900493858080808785600554165af161080461137e565b50156108b457858080878194600654165af161081e61137e565b5015610872575091817f312c5308f42848705a866c73dec11fd0783c2d64aac6a97e94467062ad3f405893610857606094600b5461135b565b600b558051928284526020840152820152a181808080808580f35b6020606492519162461bcd60e51b8352820152601960248201527f4661696c656420746f2073656e642045544820746f20646576000000000000006044820152fd5b506020606492519162461bcd60e51b8352820152601b60248201527f4661696c656420746f2073656e642045544820746f206f776e657200000000006044820152fd5b634e487b7160e01b865260118252602486fd5b634e487b7160e01b875260118352602487fd5b61093292949161092c9161135b565b9061135b565b9185806107b6565b508115156107b1565b809450838092503d8311610975575b61095c8183610fc6565b810103126109715760208351930151866107a4565b8480fd5b503d610952565b82513d87823e3d90fd5b634e487b7160e01b875260418852602487fd5b5162461bcd60e51b8152602081850152601060248201526f141bdcda5d1a5bdb881b9bdd081cd95d60821b6044820152606490fd5b90503461031e578160031936011261031e576020905160148152f35b90503461031e578160031936011261031e5760065490516001600160a01b039091168152602090f35b346102425782600319360112610242573383526020908382528084205415610bb057600b548015610b77576002543386528584528286205480830292830403610b64578015610b515790610a7391338752600c85528387205491046113be565b928315610b1a57338552600c8352818520610a8f85825461135b565b9055610a9d84600b546113be565b600b558480808087335af1610ab061137e565b5015610ae45750907ffc30cddea38e2bf4d6ea7d3f9ed3b6ad7f176419f4963bd81318067a4aee73fe91519283523392a280f35b82606492519162461bcd60e51b8352820152601260248201527108cc2d2d8cac840e8de40e6cadcc8408aa8960731b6044820152fd5b82606492519162461bcd60e51b835282015260136024820152724e6f207265776172647320746f20636c61696d60681b6044820152fd5b634e487b7160e01b865260128552602486fd5b634e487b7160e01b865260118552602486fd5b505162461bcd60e51b81529182015260146024820152734e6f207265776172647320617661696c61626c6560601b604482015260649150fd5b5162461bcd60e51b815291820152600c60248201526b2737ba1030903437b63232b960a11b604482015260649150fd5b90503461031e578160031936011261031e576020905160128152f35b90346102425760203660031901126102425735600a5481101561024257600a6020935260018060a01b03907fc65a7bb8d6351c1cf70c95a316cc6a92839c986682d98bc35f958f4883f9d2a80154169051908152f35b913461046057606036600319011261046057610c6c610f3f565b610c74610f5a565b916044359360018060a01b038316808352600160205286832033845260205286832054916000198310610cb0575b60208861041c89898961127d565b868310610d18578115610d01573315610cea5750825260016020908152868320338452815291869020908590039055829061041c87610ca2565b8751634a1406b160e11b8152908101849052602490fd5b875163e602df0560e01b8152908101849052602490fd5b8751637dc7a0d960e11b8152339181019182526020820193909352604081018790528291506060010390fd5b90503461031e578160031936011261031e576020906002549051908152f35b9034610242578160031936011261024257610d7c610f3f565b602435903315610df5576001600160a01b0316918215610dde57508083602095338152600187528181208582528752205582519081527f8c5be1e5ebec7d5bd14f71427d1e84f3dd0314c0f7b2291e5b200ac8c7c3b925843392a35160018152f35b8351634a1406b160e11b8152908101859052602490fd5b835163e602df0560e01b8152808401869052602490fd5b9192903461031e578160031936011261031e578160035492600184811c91818616958615610ef5575b602096878510811461055c578899509688969785829a529182600014610ece575050600114610e72575b50505061045c92916104c8910385610fc6565b9190869350600383527fc2575a0e9e593c00f959f8c92f12db2869c3395a3b0502d05e2516446f71f85b5b828410610eb657505050820101816104c861045c610e5f565b8054848a018601528895508794909301928101610e9d565b60ff19168782015293151560051b860190930193508492506104c8915061045c9050610e5f565b92607f1692610e35565b919082519283825260005b848110610f2b575050826000602080949584010152601f8019910116010190565b602081830181015184830182015201610f0a565b600435906001600160a01b0382168203610f5557565b600080fd5b602435906001600160a01b0382168203610f5557565b34610f55576000366003190112610f5557602060405160288152f35b91610fb590610fa7610fc39593606086526060860190610eff565b908482036020860152610eff565b916040818403910152610eff565b90565b90601f8019910116810190811067ffffffffffffffff821117610fe857604052565b634e487b7160e01b600052604160045260246000fd5b604051906000600d5490600182811c908084169384156110df575b60209485841081146110cb57838852879493929181156110ab575060011461104c575b505061104a92500383610fc6565b565b90939150600d6000527fd7b6990105719101dabeb77144f2a3385c8033acd3af97e9423a695e81ad1eb5936000915b81831061109357505061104a9350820101388061103c565b8554888401850152948501948794509183019161107b565b91505061104a94925060ff191682840152151560051b820101388061103c565b634e487b7160e01b85526022600452602485fd5b91607f1691611019565b604051906000600e5490600182811c90808416938415611193575b60209485841081146110cb57838852879493929181156110ab575060011461113457505061104a92500383610fc6565b90939150600e6000527fbb7b4a454dc3493923482f07822329ed19e8244eff582cc204f8554c3620c3fd936000915b81831061117b57505061104a9350820101388061103c565b85548884018501529485019487945091830191611163565b91607f1691611104565b604051906000600f5490600182811c90808416938415611247575b60209485841081146110cb57838852879493929181156110ab57506001146111e857505061104a92500383610fc6565b90939150600f6000527f8d1108e10bcb7c27dddfc02ed9d693a074039d026cf4ea4240b40f7d581ac802936000915b81831061122f57505061104a9350820101388061103c565b85548884018501529485019487945091830191611217565b91607f16916111b8565b6005546001600160a01b0316330361126557565b60405163118cdaa760e01b8152336004820152602490fd5b916001600160a01b03808416928315611342571692831561132957600090838252816020526040822054908382106112f7575091604082827fddf252ad1be2c89b69c2b068fc378daa952ba7f163c4a11628f55a4df523b3ef958760209652828652038282205586815220818154019055604051908152a3565b60405163391434e360e21b81526001600160a01b03919091166004820152602481019190915260448101839052606490fd5b60405163ec442f0560e01b815260006004820152602490fd5b604051634b637e8f60e11b815260006004820152602490fd5b9190820180921161136857565b634e487b7160e01b600052601160045260246000fd5b3d156113b9573d9067ffffffffffffffff8211610fe857604051916113ad601f8201601f191660200184610fc6565b82523d6000602084013e565b606090565b919082039182116113685756fea2646970667358221220e66a7f31f58e15d3692faf2c8bb579f3bdc6597c274397e5fd03389176edf4ba64736f6c6343000814003341105f733c92e731673db8d7877f039f0cce3bc6436d38e5c37bce47f2a4b149bb7b4a454dc3493923482f07822329ed19e8244eff582cc204f8554c3620c3fdd7b6990105719101dabeb77144f2a3385c8033acd3af97e9423a695e81ad1eb58d1108e10bcb7c27dddfc02ed9d693a074039d026cf4ea4240b40f7d581ac802",
          "opcodes": "PUSH1 0x40 PUSH1 0x80 DUP2 MSTORE CALLVALUE PUSH3 0xA64 JUMPI PUSH3 0x1FC9 DUP1 CODESIZE SUB DUP1 PUSH3 0x1E DUP2 PUSH3 0xA69 JUMP JUMPDEST SWAP3 DUP4 CODECOPY DUP2 ADD PUSH2 0x100 DUP3 DUP3 SUB SLT PUSH3 0xA64 JUMPI DUP2 MLOAD PUSH1 0x1 PUSH1 0x1 PUSH1 0x40 SHL SUB DUP2 GT PUSH3 0xA64 JUMPI DUP2 PUSH3 0x4E SWAP2 DUP5 ADD PUSH3 0xAB4 JUMP JUMPDEST PUSH1 0x20 DUP4 ADD MLOAD SWAP1 SWAP2 SWAP1 PUSH1 0x1 PUSH1 0x1 PUSH1 0x40 SHL SUB DUP2 GT PUSH3 0xA64 JUMPI DUP2 PUSH3 0x73 SWAP2 DUP6 ADD PUSH3 0xAB4 JUMP JUMPDEST PUSH3 0x80 DUP6 DUP6 ADD PUSH3 0xB0B JUMP JUMPDEST PUSH3 0x8E PUSH1 0x60 DUP7 ADD PUSH3 0xB0B JUMP JUMPDEST SWAP1 PUSH3 0x9D PUSH1 0x80 DUP8 ADD PUSH3 0xB0B JUMP JUMPDEST PUSH1 0xA0 DUP8 ADD MLOAD SWAP1 SWAP4 SWAP1 PUSH1 0x1 PUSH1 0x1 PUSH1 0x40 SHL SUB DUP2 GT PUSH3 0xA64 JUMPI DUP6 PUSH3 0xC2 SWAP2 DUP10 ADD PUSH3 0xAB4 JUMP JUMPDEST PUSH1 0xC0 DUP9 ADD MLOAD SWAP1 SWAP8 SWAP1 PUSH1 0x1 PUSH1 0x1 PUSH1 0x40 SHL SUB DUP2 GT PUSH3 0xA64 JUMPI DUP7 PUSH3 0xE7 SWAP2 DUP4 ADD PUSH3 0xAB4 JUMP JUMPDEST PUSH1 0xE0 DUP3 ADD MLOAD SWAP1 SWAP7 SWAP1 PUSH1 0x1 PUSH1 0x1 PUSH1 0x40 SHL SUB DUP2 GT PUSH3 0xA64 JUMPI PUSH3 0x10A SWAP3 ADD PUSH3 0xAB4 JUMP JUMPDEST DUP7 MLOAD SWAP1 SWAP7 PUSH1 0x1 PUSH1 0x1 PUSH1 0x40 SHL SUB DUP3 GT PUSH3 0x5FE JUMPI PUSH1 0x3 SLOAD SWAP1 PUSH1 0x1 DUP3 DUP2 SHR SWAP3 AND DUP1 ISZERO PUSH3 0xA59 JUMPI JUMPDEST PUSH1 0x20 DUP4 LT EQ PUSH3 0x5DD JUMPI DUP2 PUSH1 0x1F DUP5 SWAP4 GT PUSH3 0x9E4 JUMPI JUMPDEST POP PUSH1 0x20 SWAP1 PUSH1 0x1F DUP4 GT PUSH1 0x1 EQ PUSH3 0x959 JUMPI PUSH1 0x0 SWAP3 PUSH3 0x94D JUMPI JUMPDEST POP POP DUP2 PUSH1 0x1 SHL SWAP2 PUSH1 0x0 NOT SWAP1 PUSH1 0x3 SHL SHR NOT AND OR PUSH1 0x3 SSTORE JUMPDEST DUP1 MLOAD SWAP1 PUSH1 0x1 PUSH1 0x1 PUSH1 0x40 SHL SUB DUP3 GT PUSH3 0x5FE JUMPI PUSH1 0x4 SLOAD SWAP1 PUSH1 0x1 DUP3 DUP2 SHR SWAP3 AND DUP1 ISZERO PUSH3 0x942 JUMPI JUMPDEST PUSH1 0x20 DUP4 LT EQ PUSH3 0x5DD JUMPI DUP2 PUSH1 0x1F DUP5 SWAP4 GT PUSH3 0x8CD JUMPI JUMPDEST POP PUSH1 0x20 SWAP1 PUSH1 0x1F DUP4 GT PUSH1 0x1 EQ PUSH3 0x842 JUMPI PUSH1 0x0 SWAP3 PUSH3 0x836 JUMPI JUMPDEST POP POP DUP2 PUSH1 0x1 SHL SWAP2 PUSH1 0x0 NOT SWAP1 PUSH1 0x3 SHL SHR NOT AND OR PUSH1 0x4 SSTORE JUMPDEST CALLER ISZERO PUSH3 0x81E JUMPI PUSH1 0x5 DUP1 SLOAD PUSH1 0x1 PUSH1 0x1 PUSH1 0xA0 SHL SUB NOT DUP1 DUP3 AND CALLER SWAP1 DUP2 OR SWAP1 SWAP4 SSTORE SWAP5 PUSH1 0x1 PUSH1 0x1 PUSH1 0xA0 SHL SUB SWAP5 DUP6 SWAP4 SWAP2 SWAP3 DUP5 SWAP3 SWAP1 DUP4 AND PUSH32 0x8BE0079C531659141344CD1FD0A4F28419497F9722A3DAAFE3B4186F6B6457E0 PUSH1 0x0 DUP1 LOG3 AND DUP6 PUSH1 0x6 SLOAD AND OR PUSH1 0x6 SSTORE AND DUP4 PUSH1 0x7 SLOAD AND OR PUSH1 0x7 SSTORE PUSH1 0x2 SLOAD PUSH10 0xD3C21BCECCEDA1000000 SWAP1 DUP2 DUP2 ADD DUP1 SWAP2 GT PUSH3 0x808 JUMPI PUSH1 0x2 SSTORE CALLER PUSH1 0x0 MSTORE PUSH1 0x0 PUSH1 0x20 MSTORE DUP8 PUSH1 0x0 KECCAK256 DUP2 DUP2 SLOAD ADD SWAP1 SSTORE DUP8 MLOAD SWAP1 DUP2 MSTORE PUSH1 0x0 PUSH32 0xDDF252AD1BE2C89B69C2B068FC378DAA952BA7F163C4A11628F55A4DF523B3EF PUSH1 0x20 CALLER SWAP4 LOG3 AND DUP1 PUSH1 0x0 MSTORE PUSH1 0x9 PUSH1 0x20 MSTORE DUP6 PUSH1 0x0 KECCAK256 PUSH1 0x1 PUSH1 0xFF NOT DUP3 SLOAD AND OR SWAP1 SSTORE PUSH1 0xA SLOAD PUSH9 0x10000000000000000 DUP2 LT ISZERO PUSH3 0x5FE JUMPI PUSH1 0x1 DUP2 ADD DUP1 PUSH1 0xA SSTORE DUP2 LT ISZERO PUSH3 0x7F2 JUMPI PUSH1 0xA PUSH1 0x0 MSTORE PUSH32 0xC65A7BB8D6351C1CF70C95A316CC6A92839C986682D98BC35F958F4883F9D2A8 ADD DUP1 SLOAD SWAP1 SWAP3 AND OR SWAP1 SSTORE DUP4 MLOAD PUSH1 0x60 DUP2 ADD PUSH1 0x1 PUSH1 0x1 PUSH1 0x40 SHL SUB DUP2 GT DUP3 DUP3 LT OR PUSH3 0x5FE JUMPI DUP6 MSTORE DUP4 DUP2 MSTORE PUSH1 0x20 DUP2 ADD DUP3 DUP2 MSTORE SWAP1 DUP6 ADD DUP4 DUP2 MSTORE DUP5 MLOAD SWAP1 SWAP2 SWAP1 PUSH1 0x1 PUSH1 0x1 PUSH1 0x40 SHL SUB DUP2 GT PUSH3 0x5FE JUMPI PUSH1 0xD SLOAD PUSH1 0x1 DUP2 DUP2 SHR SWAP2 AND DUP1 ISZERO PUSH3 0x7E7 JUMPI JUMPDEST PUSH1 0x20 DUP3 LT EQ PUSH3 0x5DD JUMPI PUSH1 0x1F DUP2 GT PUSH3 0x78E JUMPI JUMPDEST POP DUP1 PUSH1 0x20 PUSH1 0x1F DUP3 GT PUSH1 0x1 EQ PUSH3 0x715 JUMPI PUSH1 0x0 SWAP2 PUSH3 0x709 JUMPI JUMPDEST POP DUP2 PUSH1 0x1 SHL SWAP2 PUSH1 0x0 NOT SWAP1 PUSH1 0x3 SHL SHR NOT AND OR PUSH1 0xD SSTORE JUMPDEST MLOAD DUP1 MLOAD SWAP1 PUSH1 0x1 PUSH1 0x1 PUSH1 0x40 SHL SUB DUP3 GT PUSH3 0x5FE JUMPI PUSH1 0xE SLOAD SWAP1 PUSH1 0x1 DUP3 DUP2 SHR SWAP3 AND DUP1 ISZERO PUSH3 0x6FE JUMPI JUMPDEST PUSH1 0x20 DUP4 LT EQ PUSH3 0x5DD JUMPI DUP2 PUSH1 0x1F DUP5 SWAP4 GT PUSH3 0x69A JUMPI JUMPDEST POP PUSH1 0x20 SWAP1 PUSH1 0x1F DUP4 GT PUSH1 0x1 EQ PUSH3 0x620 JUMPI PUSH1 0x0 SWAP3 PUSH3 0x614 JUMPI JUMPDEST POP POP DUP2 PUSH1 0x1 SHL SWAP2 PUSH1 0x0 NOT SWAP1 PUSH1 0x3 SHL SHR NOT AND OR PUSH1 0xE SSTORE JUMPDEST MLOAD DUP1 MLOAD SWAP1 PUSH1 0x1 PUSH1 0x1 PUSH1 0x40 SHL SUB DUP3 GT PUSH3 0x5FE JUMPI PUSH1 0xF SLOAD PUSH1 0x1 DUP2 DUP2 SHR SWAP2 AND DUP1 ISZERO PUSH3 0x5F3 JUMPI JUMPDEST PUSH1 0x20 DUP3 LT EQ PUSH3 0x5DD JUMPI PUSH1 0x1F DUP2 GT PUSH3 0x584 JUMPI JUMPDEST POP PUSH1 0x20 SWAP1 PUSH1 0x1F DUP4 GT PUSH1 0x1 EQ PUSH3 0x4EA JUMPI PUSH1 0x0 DUP1 MLOAD PUSH1 0x20 PUSH3 0x1F49 DUP4 CODECOPY DUP2 MLOAD SWAP2 MSTORE SWAP6 SWAP4 DUP4 PUSH3 0x4CD SWAP5 PUSH3 0x4B0 SWAP8 SWAP5 PUSH3 0x4BF SWAP5 PUSH1 0x0 SWAP3 PUSH3 0x4DE JUMPI JUMPDEST POP POP DUP2 PUSH1 0x1 SHL SWAP2 PUSH1 0x0 NOT SWAP1 PUSH1 0x3 SHL SHR NOT AND OR PUSH1 0xF SSTORE JUMPDEST DUP8 MLOAD SWAP6 DUP7 SWAP6 PUSH1 0x60 DUP8 MSTORE PUSH1 0x60 DUP8 ADD SWAP1 PUSH3 0xB20 JUMP JUMPDEST SWAP1 DUP6 DUP3 SUB PUSH1 0x20 DUP8 ADD MSTORE PUSH3 0xB20 JUMP JUMPDEST SWAP1 DUP4 DUP3 SUB DUP8 DUP6 ADD MSTORE PUSH3 0xB20 JUMP JUMPDEST SUB SWAP1 LOG1 MLOAD PUSH2 0x1401 SWAP1 DUP2 PUSH3 0xB48 DUP3 CODECOPY RETURN JUMPDEST ADD MLOAD SWAP1 POP CODESIZE DUP1 PUSH3 0x486 JUMP JUMPDEST PUSH1 0xF PUSH1 0x0 SWAP1 DUP2 MSTORE PUSH1 0x0 DUP1 MLOAD PUSH1 0x20 PUSH3 0x1FA9 DUP4 CODECOPY DUP2 MLOAD SWAP2 MSTORE SWAP3 SWAP2 SWAP1 PUSH1 0x1F NOT DUP6 AND SWAP1 JUMPDEST DUP2 DUP2 LT PUSH3 0x56B JUMPI POP DUP5 PUSH3 0x4B0 SWAP8 SWAP5 PUSH3 0x4BF SWAP5 PUSH1 0x0 DUP1 MLOAD PUSH1 0x20 PUSH3 0x1F49 DUP4 CODECOPY DUP2 MLOAD SWAP2 MSTORE SWAP11 SWAP9 SWAP5 PUSH3 0x4CD SWAP9 PUSH1 0x1 SWAP6 LT PUSH3 0x551 JUMPI JUMPDEST POP POP POP DUP2 SHL ADD PUSH1 0xF SSTORE PUSH3 0x49C JUMP JUMPDEST ADD MLOAD PUSH1 0x0 NOT PUSH1 0xF8 DUP5 PUSH1 0x3 SHL AND SHR NOT AND SWAP1 SSTORE CODESIZE DUP1 DUP1 PUSH3 0x542 JUMP JUMPDEST SWAP3 SWAP4 PUSH1 0x20 PUSH1 0x1 DUP2 SWAP3 DUP8 DUP7 ADD MLOAD DUP2 SSTORE ADD SWAP6 ADD SWAP4 ADD PUSH3 0x50B JUMP JUMPDEST PUSH1 0xF PUSH1 0x0 MSTORE PUSH1 0x0 DUP1 MLOAD PUSH1 0x20 PUSH3 0x1FA9 DUP4 CODECOPY DUP2 MLOAD SWAP2 MSTORE PUSH1 0x1F DUP5 ADD PUSH1 0x5 SHR DUP2 ADD SWAP2 PUSH1 0x20 DUP6 LT PUSH3 0x5D2 JUMPI JUMPDEST PUSH1 0x1F ADD PUSH1 0x5 SHR ADD SWAP1 JUMPDEST DUP2 DUP2 LT PUSH3 0x5C5 JUMPI POP PUSH3 0x44A JUMP JUMPDEST PUSH1 0x0 DUP2 SSTORE PUSH1 0x1 ADD PUSH3 0x5B6 JUMP JUMPDEST SWAP1 SWAP2 POP DUP2 SWAP1 PUSH3 0x5AD JUMP JUMPDEST PUSH4 0x4E487B71 PUSH1 0xE0 SHL PUSH1 0x0 MSTORE PUSH1 0x22 PUSH1 0x4 MSTORE PUSH1 0x24 PUSH1 0x0 REVERT JUMPDEST SWAP1 PUSH1 0x7F AND SWAP1 PUSH3 0x436 JUMP JUMPDEST PUSH4 0x4E487B71 PUSH1 0xE0 SHL PUSH1 0x0 MSTORE PUSH1 0x41 PUSH1 0x4 MSTORE PUSH1 0x24 PUSH1 0x0 REVERT JUMPDEST ADD MLOAD SWAP1 POP CODESIZE DUP1 PUSH3 0x3FB JUMP JUMPDEST PUSH1 0xE PUSH1 0x0 SWAP1 DUP2 MSTORE PUSH1 0x0 DUP1 MLOAD PUSH1 0x20 PUSH3 0x1F69 DUP4 CODECOPY DUP2 MLOAD SWAP2 MSTORE SWAP4 POP PUSH1 0x1F NOT DUP6 AND SWAP1 JUMPDEST DUP2 DUP2 LT PUSH3 0x681 JUMPI POP SWAP1 DUP5 PUSH1 0x1 SWAP6 SWAP5 SWAP4 SWAP3 LT PUSH3 0x667 JUMPI JUMPDEST POP POP POP DUP2 SHL ADD PUSH1 0xE SSTORE PUSH3 0x411 JUMP JUMPDEST ADD MLOAD PUSH1 0x0 NOT PUSH1 0xF8 DUP5 PUSH1 0x3 SHL AND SHR NOT AND SWAP1 SSTORE CODESIZE DUP1 DUP1 PUSH3 0x658 JUMP JUMPDEST SWAP3 SWAP4 PUSH1 0x20 PUSH1 0x1 DUP2 SWAP3 DUP8 DUP7 ADD MLOAD DUP2 SSTORE ADD SWAP6 ADD SWAP4 ADD PUSH3 0x640 JUMP JUMPDEST PUSH1 0xE PUSH1 0x0 MSTORE SWAP1 SWAP2 POP PUSH1 0x0 DUP1 MLOAD PUSH1 0x20 PUSH3 0x1F69 DUP4 CODECOPY DUP2 MLOAD SWAP2 MSTORE PUSH1 0x1F DUP5 ADD PUSH1 0x5 SHR DUP2 ADD SWAP2 PUSH1 0x20 DUP6 LT PUSH3 0x6F3 JUMPI JUMPDEST SWAP1 PUSH1 0x1F DUP6 SWAP5 SWAP4 SWAP3 ADD PUSH1 0x5 SHR ADD SWAP1 JUMPDEST DUP2 DUP2 LT PUSH3 0x6E3 JUMPI POP PUSH3 0x3E2 JUMP JUMPDEST PUSH1 0x0 DUP2 SSTORE DUP5 SWAP4 POP PUSH1 0x1 ADD PUSH3 0x6D4 JUMP JUMPDEST SWAP1 SWAP2 POP DUP2 SWAP1 PUSH3 0x6C6 JUMP JUMPDEST SWAP2 PUSH1 0x7F AND SWAP2 PUSH3 0x3CC JUMP JUMPDEST SWAP1 POP DUP7 ADD MLOAD CODESIZE PUSH3 0x391 JUMP JUMPDEST PUSH1 0xD PUSH1 0x0 SWAP1 DUP2 MSTORE SWAP3 POP PUSH1 0x0 DUP1 MLOAD PUSH1 0x20 PUSH3 0x1F89 DUP4 CODECOPY DUP2 MLOAD SWAP2 MSTORE SWAP1 JUMPDEST PUSH1 0x1F NOT DUP4 AND DUP5 LT PUSH3 0x775 JUMPI PUSH1 0x1 SWAP4 POP DUP3 PUSH1 0x1F NOT DUP2 AND LT PUSH3 0x75B JUMPI JUMPDEST POP POP DUP2 SHL ADD PUSH1 0xD SSTORE PUSH3 0x3A6 JUMP JUMPDEST DUP9 ADD MLOAD PUSH1 0x0 NOT PUSH1 0xF8 DUP5 PUSH1 0x3 SHL AND SHR NOT AND SWAP1 SSTORE CODESIZE DUP1 PUSH3 0x74D JUMP JUMPDEST DUP9 DUP2 ADD MLOAD DUP3 SSTORE PUSH1 0x20 SWAP4 DUP5 ADD SWAP4 PUSH1 0x1 SWAP1 SWAP3 ADD SWAP2 ADD PUSH3 0x730 JUMP JUMPDEST PUSH1 0xD PUSH1 0x0 MSTORE PUSH1 0x0 DUP1 MLOAD PUSH1 0x20 PUSH3 0x1F89 DUP4 CODECOPY DUP2 MLOAD SWAP2 MSTORE PUSH1 0x1F DUP4 ADD PUSH1 0x5 SHR DUP2 ADD SWAP2 PUSH1 0x20 DUP5 LT PUSH3 0x7DC JUMPI JUMPDEST PUSH1 0x1F ADD PUSH1 0x5 SHR ADD SWAP1 JUMPDEST DUP2 DUP2 LT PUSH3 0x7CF JUMPI POP PUSH3 0x378 JUMP JUMPDEST PUSH1 0x0 DUP2 SSTORE PUSH1 0x1 ADD PUSH3 0x7C0 JUMP JUMPDEST SWAP1 SWAP2 POP DUP2 SWAP1 PUSH3 0x7B7 JUMP JUMPDEST SWAP1 PUSH1 0x7F AND SWAP1 PUSH3 0x364 JUMP JUMPDEST PUSH4 0x4E487B71 PUSH1 0xE0 SHL PUSH1 0x0 MSTORE PUSH1 0x32 PUSH1 0x4 MSTORE PUSH1 0x24 PUSH1 0x0 REVERT JUMPDEST PUSH4 0x4E487B71 PUSH1 0xE0 SHL PUSH1 0x0 MSTORE PUSH1 0x11 PUSH1 0x4 MSTORE PUSH1 0x24 PUSH1 0x0 REVERT JUMPDEST DUP7 MLOAD PUSH4 0x1E4FBDF7 PUSH1 0xE0 SHL DUP2 MSTORE PUSH1 0x0 PUSH1 0x4 DUP3 ADD MSTORE PUSH1 0x24 SWAP1 REVERT JUMPDEST ADD MLOAD SWAP1 POP CODESIZE DUP1 PUSH3 0x1C9 JUMP JUMPDEST PUSH1 0x4 PUSH1 0x0 SWAP1 DUP2 MSTORE PUSH32 0x8A35ACFBC15FF81A39AE7D344FD709F28E8600B4AA8C65C6B64BFE7FE36BD19B SWAP4 POP PUSH1 0x1F NOT DUP6 AND SWAP1 JUMPDEST DUP2 DUP2 LT PUSH3 0x8B4 JUMPI POP SWAP1 DUP5 PUSH1 0x1 SWAP6 SWAP5 SWAP4 SWAP3 LT PUSH3 0x89A JUMPI JUMPDEST POP POP POP DUP2 SHL ADD PUSH1 0x4 SSTORE PUSH3 0x1DF JUMP JUMPDEST ADD MLOAD PUSH1 0x0 NOT PUSH1 0xF8 DUP5 PUSH1 0x3 SHL AND SHR NOT AND SWAP1 SSTORE CODESIZE DUP1 DUP1 PUSH3 0x88B JUMP JUMPDEST SWAP3 SWAP4 PUSH1 0x20 PUSH1 0x1 DUP2 SWAP3 DUP8 DUP7 ADD MLOAD DUP2 SSTORE ADD SWAP6 ADD SWAP4 ADD PUSH3 0x873 JUMP JUMPDEST PUSH1 0x4 PUSH1 0x0 MSTORE SWAP1 SWAP2 POP PUSH32 0x8A35ACFBC15FF81A39AE7D344FD709F28E8600B4AA8C65C6B64BFE7FE36BD19B PUSH1 0x1F DUP5 ADD PUSH1 0x5 SHR DUP2 ADD SWAP2 PUSH1 0x20 DUP6 LT PUSH3 0x937 JUMPI JUMPDEST SWAP1 PUSH1 0x1F DUP6 SWAP5 SWAP4 SWAP3 ADD PUSH1 0x5 SHR ADD SWAP1 JUMPDEST DUP2 DUP2 LT PUSH3 0x927 JUMPI POP PUSH3 0x1B0 JUMP JUMPDEST PUSH1 0x0 DUP2 SSTORE DUP5 SWAP4 POP PUSH1 0x1 ADD PUSH3 0x918 JUMP JUMPDEST SWAP1 SWAP2 POP DUP2 SWAP1 PUSH3 0x90A JUMP JUMPDEST SWAP2 PUSH1 0x7F AND SWAP2 PUSH3 0x19A JUMP JUMPDEST ADD MLOAD SWAP1 POP CODESIZE DUP1 PUSH3 0x15F JUMP JUMPDEST PUSH1 0x3 PUSH1 0x0 SWAP1 DUP2 MSTORE PUSH32 0xC2575A0E9E593C00F959F8C92F12DB2869C3395A3B0502D05E2516446F71F85B SWAP4 POP PUSH1 0x1F NOT DUP6 AND SWAP1 JUMPDEST DUP2 DUP2 LT PUSH3 0x9CB JUMPI POP SWAP1 DUP5 PUSH1 0x1 SWAP6 SWAP5 SWAP4 SWAP3 LT PUSH3 0x9B1 JUMPI JUMPDEST POP POP POP DUP2 SHL ADD PUSH1 0x3 SSTORE PUSH3 0x175 JUMP JUMPDEST ADD MLOAD PUSH1 0x0 NOT PUSH1 0xF8 DUP5 PUSH1 0x3 SHL AND SHR NOT AND SWAP1 SSTORE CODESIZE DUP1 DUP1 PUSH3 0x9A2 JUMP JUMPDEST SWAP3 SWAP4 PUSH1 0x20 PUSH1 0x1 DUP2 SWAP3 DUP8 DUP7 ADD MLOAD DUP2 SSTORE ADD SWAP6 ADD SWAP4 ADD PUSH3 0x98A JUMP JUMPDEST PUSH1 0x3 PUSH1 0x0 MSTORE SWAP1 SWAP2 POP PUSH32 0xC2575A0E9E593C00F959F8C92F12DB2869C3395A3B0502D05E2516446F71F85B PUSH1 0x1F DUP5 ADD PUSH1 0x5 SHR DUP2 ADD SWAP2 PUSH1 0x20 DUP6 LT PUSH3 0xA4E JUMPI JUMPDEST SWAP1 PUSH1 0x1F DUP6 SWAP5 SWAP4 SWAP3 ADD PUSH1 0x5 SHR ADD SWAP1 JUMPDEST DUP2 DUP2 LT PUSH3 0xA3E JUMPI POP PUSH3 0x146 JUMP JUMPDEST PUSH1 0x0 DUP2 SSTORE DUP5 SWAP4 POP PUSH1 0x1 ADD PUSH3 0xA2F JUMP JUMPDEST SWAP1 SWAP2 POP DUP2 SWAP1 PUSH3 0xA21 JUMP JUMPDEST SWAP2 PUSH1 0x7F AND SWAP2 PUSH3 0x130 JUMP JUMPDEST PUSH1 0x0 DUP1 REVERT JUMPDEST PUSH1 0x40 MLOAD SWAP2 SWAP1 PUSH1 0x1F ADD PUSH1 0x1F NOT AND DUP3 ADD PUSH1 0x1 PUSH1 0x1 PUSH1 0x40 SHL SUB DUP2 GT DUP4 DUP3 LT OR PUSH3 0x5FE JUMPI PUSH1 0x40 MSTORE JUMP JUMPDEST PUSH1 0x0 JUMPDEST DUP4 DUP2 LT PUSH3 0xAA3 JUMPI POP POP PUSH1 0x0 SWAP2 ADD MSTORE JUMP JUMPDEST DUP2 DUP2 ADD MLOAD DUP4 DUP3 ADD MSTORE PUSH1 0x20 ADD PUSH3 0xA92 JUMP JUMPDEST DUP2 PUSH1 0x1F DUP3 ADD SLT ISZERO PUSH3 0xA64 JUMPI DUP1 MLOAD PUSH1 0x1 PUSH1 0x1 PUSH1 0x40 SHL SUB DUP2 GT PUSH3 0x5FE JUMPI PUSH3 0xAE6 PUSH1 0x1F DUP3 ADD PUSH1 0x1F NOT AND PUSH1 0x20 ADD PUSH3 0xA69 JUMP JUMPDEST SWAP3 DUP2 DUP5 MSTORE PUSH1 0x20 DUP3 DUP5 ADD ADD GT PUSH3 0xA64 JUMPI PUSH3 0xB08 SWAP2 PUSH1 0x20 DUP1 DUP6 ADD SWAP2 ADD PUSH3 0xA8F JUMP JUMPDEST SWAP1 JUMP JUMPDEST MLOAD SWAP1 PUSH1 0x1 PUSH1 0x1 PUSH1 0xA0 SHL SUB DUP3 AND DUP3 SUB PUSH3 0xA64 JUMPI JUMP JUMPDEST SWAP1 PUSH1 0x20 SWAP2 PUSH3 0xB3B DUP2 MLOAD DUP1 SWAP3 DUP2 DUP6 MSTORE DUP6 DUP1 DUP7 ADD SWAP2 ADD PUSH3 0xA8F JUMP JUMPDEST PUSH1 0x1F ADD PUSH1 0x1F NOT AND ADD ADD SWAP1 JUMP INVALID PUSH1 0x80 PUSH1 0x40 DUP2 DUP2 MSTORE PUSH1 0x4 DUP1 CALLDATASIZE LT ISZERO PUSH2 0x21 JUMPI JUMPDEST POP POP POP CALLDATASIZE ISZERO PUSH2 0x1F JUMPI PUSH1 0x0 DUP1 REVERT JUMPDEST STOP JUMPDEST PUSH1 0x0 SWAP2 DUP3 CALLDATALOAD PUSH1 0xE0 SHR SWAP4 DUP5 PUSH4 0x6FDDE03 EQ PUSH2 0xE0C JUMPI POP DUP4 PUSH4 0x95EA7B3 EQ PUSH2 0xD63 JUMPI DUP4 PUSH4 0x18160DDD EQ PUSH2 0xD44 JUMPI DUP4 PUSH4 0x23B872DD EQ PUSH2 0xC52 JUMPI DUP4 PUSH4 0x2A11CED0 EQ PUSH2 0xBFC JUMPI DUP4 PUSH4 0x313CE567 EQ PUSH2 0xBE0 JUMPI DUP4 PUSH4 0x372500AB EQ PUSH2 0xA13 JUMPI DUP4 PUSH4 0x3AD10EF6 EQ PUSH2 0x9EA JUMPI DUP4 PUSH4 0x436A88C1 EQ PUSH2 0x9CE JUMPI DUP4 PUSH4 0x5DAB0FE3 EQ PUSH2 0x174 JUMPI DUP4 PUSH4 0x5F96684B EQ PUSH2 0x6E3 JUMPI DUP4 PUSH4 0x70A08231 EQ PUSH2 0x6AC JUMPI DUP4 PUSH4 0x715018A6 EQ PUSH2 0x64F JUMPI DUP4 PUSH4 0x791B98BC EQ PUSH2 0x626 JUMPI DUP4 PUSH4 0x85033762 EQ PUSH2 0x5A2 JUMPI DUP4 PUSH4 0x8DA5CB5B EQ PUSH2 0x579 JUMPI DUP4 PUSH4 0x93427CD5 EQ PUSH2 0x423 JUMPI DUP4 PUSH4 0x95D89B41 EQ PUSH2 0x463 JUMPI DUP4 PUSH4 0xA8FB7D40 EQ PUSH2 0x423 JUMPI DUP4 PUSH4 0xA9059CBB EQ PUSH2 0x3F2 JUMPI DUP4 PUSH4 0xBD834345 EQ PUSH2 0x3BA JUMPI DUP4 PUSH4 0xCA0C8045 EQ PUSH2 0x39B JUMPI DUP4 PUSH4 0xCEEFE5D1 EQ PUSH2 0x37C JUMPI DUP4 PUSH4 0xD4D7B19A EQ PUSH2 0x33E JUMPI DUP4 PUSH4 0xD73792A9 EQ PUSH2 0x322 JUMPI DUP4 PUSH4 0xDD62ED3E EQ PUSH2 0x2D5 JUMPI DUP4 PUSH4 0xF2FDE38B EQ PUSH2 0x246 JUMPI DUP4 PUSH4 0xF71B6681 EQ PUSH2 0x179 JUMPI POP POP POP PUSH4 0xF963812D EQ PUSH2 0x174 JUMPI CODESIZE DUP1 DUP1 PUSH2 0x11 JUMP JUMPDEST PUSH2 0xF70 JUMP JUMPDEST CALLVALUE PUSH2 0x242 JUMPI PUSH1 0x20 CALLDATASIZE PUSH1 0x3 NOT ADD SLT PUSH2 0x242 JUMPI DUP2 CALLDATALOAD SWAP2 PUSH2 0x195 PUSH2 0x1251 JUMP JUMPDEST PUSH1 0x8 SLOAD PUSH2 0x209 JUMPI DUP3 ISZERO PUSH2 0x1D4 JUMPI POP DUP2 PUSH1 0x20 SWAP2 PUSH32 0xF32EDDAECA0B96600FAF4AFDC67F1929ECFC35985ABA1F8DE8825D24B5E5D61 SWAP4 PUSH1 0x8 SSTORE MLOAD SWAP1 DUP2 MSTORE LOG1 DUP1 RETURN JUMPDEST PUSH1 0x20 PUSH1 0x64 SWAP3 MLOAD SWAP2 PUSH3 0x461BCD PUSH1 0xE5 SHL DUP4 MSTORE DUP3 ADD MSTORE PUSH1 0x10 PUSH1 0x24 DUP3 ADD MSTORE PUSH16 0x125B9D985B1A59081D1BDAD95B881251 PUSH1 0x82 SHL PUSH1 0x44 DUP3 ADD MSTORE REVERT JUMPDEST PUSH1 0x20 PUSH1 0x64 SWAP3 MLOAD SWAP2 PUSH3 0x461BCD PUSH1 0xE5 SHL DUP4 MSTORE DUP3 ADD MSTORE PUSH1 0x14 PUSH1 0x24 DUP3 ADD MSTORE PUSH20 0x141BDCDA5D1A5BDB88185B1C9958591E481CD95D PUSH1 0x62 SHL PUSH1 0x44 DUP3 ADD MSTORE REVERT JUMPDEST DUP3 DUP1 REVERT JUMPDEST SWAP1 CALLVALUE PUSH2 0x242 JUMPI PUSH1 0x20 CALLDATASIZE PUSH1 0x3 NOT ADD SLT PUSH2 0x242 JUMPI PUSH2 0x260 PUSH2 0xF3F JUMP JUMPDEST SWAP1 PUSH2 0x269 PUSH2 0x1251 JUMP JUMPDEST PUSH1 0x1 PUSH1 0x1 PUSH1 0xA0 SHL SUB SWAP2 DUP3 AND SWAP3 DUP4 ISZERO PUSH2 0x2BF JUMPI POP POP PUSH1 0x5 SLOAD DUP3 PUSH12 0xFFFFFFFFFFFFFFFFFFFFFFFF PUSH1 0xA0 SHL DUP3 AND OR PUSH1 0x5 SSTORE AND PUSH32 0x8BE0079C531659141344CD1FD0A4F28419497F9722A3DAAFE3B4186F6B6457E0 DUP4 DUP1 LOG3 DUP1 RETURN JUMPDEST MLOAD PUSH4 0x1E4FBDF7 PUSH1 0xE0 SHL DUP2 MSTORE SWAP1 DUP2 ADD DUP5 SWAP1 MSTORE PUSH1 0x24 SWAP1 REVERT JUMPDEST SWAP1 POP CALLVALUE PUSH2 0x31E JUMPI DUP1 PUSH1 0x3 NOT CALLDATASIZE ADD SLT PUSH2 0x31E JUMPI DUP1 PUSH1 0x20 SWAP3 PUSH2 0x2F3 PUSH2 0xF3F JUMP JUMPDEST PUSH2 0x2FB PUSH2 0xF5A JUMP JUMPDEST PUSH1 0x1 PUSH1 0x1 PUSH1 0xA0 SHL SUB SWAP2 DUP3 AND DUP4 MSTORE PUSH1 0x1 DUP7 MSTORE DUP4 DUP4 KECCAK256 SWAP2 AND DUP3 MSTORE DUP5 MSTORE KECCAK256 SLOAD SWAP1 MLOAD SWAP1 DUP2 MSTORE RETURN JUMPDEST POP DUP1 REVERT JUMPDEST SWAP1 POP CALLVALUE PUSH2 0x31E JUMPI DUP2 PUSH1 0x3 NOT CALLDATASIZE ADD SLT PUSH2 0x31E JUMPI PUSH1 0x20 SWAP1 MLOAD PUSH1 0x64 DUP2 MSTORE RETURN JUMPDEST SWAP1 POP CALLVALUE PUSH2 0x31E JUMPI PUSH1 0x20 CALLDATASIZE PUSH1 0x3 NOT ADD SLT PUSH2 0x31E JUMPI PUSH1 0x20 SWAP2 PUSH1 0xFF SWAP1 DUP3 SWAP1 PUSH1 0x1 PUSH1 0x1 PUSH1 0xA0 SHL SUB PUSH2 0x369 PUSH2 0xF3F JUMP JUMPDEST AND DUP2 MSTORE PUSH1 0x9 DUP6 MSTORE KECCAK256 SLOAD AND SWAP1 MLOAD SWAP1 ISZERO ISZERO DUP2 MSTORE RETURN JUMPDEST SWAP1 POP CALLVALUE PUSH2 0x31E JUMPI DUP2 PUSH1 0x3 NOT CALLDATASIZE ADD SLT PUSH2 0x31E JUMPI PUSH1 0x20 SWAP1 PUSH1 0x8 SLOAD SWAP1 MLOAD SWAP1 DUP2 MSTORE RETURN JUMPDEST SWAP1 POP CALLVALUE PUSH2 0x31E JUMPI DUP2 PUSH1 0x3 NOT CALLDATASIZE ADD SLT PUSH2 0x31E JUMPI PUSH1 0x20 SWAP1 PUSH1 0xB SLOAD SWAP1 MLOAD SWAP1 DUP2 MSTORE RETURN JUMPDEST SWAP1 POP CALLVALUE PUSH2 0x31E JUMPI PUSH1 0x20 CALLDATASIZE PUSH1 0x3 NOT ADD SLT PUSH2 0x31E JUMPI PUSH1 0x20 SWAP2 DUP2 SWAP1 PUSH1 0x1 PUSH1 0x1 PUSH1 0xA0 SHL SUB PUSH2 0x3E2 PUSH2 0xF3F JUMP JUMPDEST AND DUP2 MSTORE PUSH1 0xC DUP5 MSTORE KECCAK256 SLOAD SWAP1 MLOAD SWAP1 DUP2 MSTORE RETURN JUMPDEST SWAP1 POP CALLVALUE PUSH2 0x31E JUMPI DUP1 PUSH1 0x3 NOT CALLDATASIZE ADD SLT PUSH2 0x31E JUMPI PUSH1 0x20 SWAP1 PUSH2 0x41C PUSH2 0x412 PUSH2 0xF3F JUMP JUMPDEST PUSH1 0x24 CALLDATALOAD SWAP1 CALLER PUSH2 0x127D JUMP JUMPDEST MLOAD PUSH1 0x1 DUP2 MSTORE RETURN JUMPDEST DUP3 CALLVALUE PUSH2 0x460 JUMPI DUP1 PUSH1 0x3 NOT CALLDATASIZE ADD SLT PUSH2 0x460 JUMPI POP PUSH2 0x43D PUSH2 0xFFE JUMP JUMPDEST PUSH2 0x45C PUSH2 0x448 PUSH2 0x10E9 JUMP JUMPDEST SWAP3 PUSH2 0x451 PUSH2 0x119D JUMP JUMPDEST SWAP1 MLOAD SWAP4 DUP5 SWAP4 DUP5 PUSH2 0xF8C JUMP JUMPDEST SUB SWAP1 RETURN JUMPDEST DUP1 REVERT JUMPDEST DUP3 CALLVALUE PUSH2 0x460 JUMPI DUP1 PUSH1 0x3 NOT CALLDATASIZE ADD SLT PUSH2 0x460 JUMPI DUP2 MLOAD SWAP2 DUP2 DUP5 SLOAD SWAP3 PUSH1 0x1 DUP5 DUP2 SHR SWAP2 DUP2 DUP7 AND SWAP6 DUP7 ISZERO PUSH2 0x56F JUMPI JUMPDEST PUSH1 0x20 SWAP7 DUP8 DUP6 LT DUP2 EQ PUSH2 0x55C JUMPI SWAP1 DUP8 DUP10 SWAP11 SWAP3 DUP7 DUP12 SWAP10 SWAP11 SWAP12 MSTORE SWAP2 DUP3 PUSH1 0x0 EQ PUSH2 0x532 JUMPI POP POP PUSH1 0x1 EQ PUSH2 0x4D7 JUMPI JUMPDEST DUP6 DUP9 PUSH2 0x45C DUP10 PUSH2 0x4C8 DUP5 DUP11 SUB DUP6 PUSH2 0xFC6 JUMP JUMPDEST MLOAD SWAP3 DUP3 DUP5 SWAP4 DUP5 MSTORE DUP4 ADD SWAP1 PUSH2 0xEFF JUMP JUMPDEST DUP2 MSTORE DUP7 SWAP4 POP SWAP2 SWAP1 PUSH32 0x8A35ACFBC15FF81A39AE7D344FD709F28E8600B4AA8C65C6B64BFE7FE36BD19B JUMPDEST DUP3 DUP5 LT PUSH2 0x51A JUMPI POP POP POP DUP3 ADD ADD DUP2 PUSH2 0x4C8 PUSH2 0x45C DUP9 PUSH2 0x4B6 JUMP JUMPDEST DUP1 SLOAD DUP5 DUP11 ADD DUP7 ADD MSTORE DUP9 SWAP6 POP DUP8 SWAP5 SWAP1 SWAP4 ADD SWAP3 DUP2 ADD PUSH2 0x500 JUMP JUMPDEST PUSH1 0xFF NOT AND DUP9 DUP3 ADD MSTORE SWAP5 ISZERO ISZERO PUSH1 0x5 SHL DUP8 ADD SWAP1 SWAP5 ADD SWAP5 POP DUP6 SWAP4 POP PUSH2 0x4C8 SWAP3 POP PUSH2 0x45C SWAP2 POP DUP10 SWAP1 POP PUSH2 0x4B6 JUMP JUMPDEST PUSH4 0x4E487B71 PUSH1 0xE0 SHL DUP4 MSTORE PUSH1 0x22 DUP11 MSTORE PUSH1 0x24 DUP4 REVERT JUMPDEST SWAP3 PUSH1 0x7F AND SWAP3 PUSH2 0x48C JUMP JUMPDEST SWAP1 POP CALLVALUE PUSH2 0x31E JUMPI DUP2 PUSH1 0x3 NOT CALLDATASIZE ADD SLT PUSH2 0x31E JUMPI PUSH1 0x5 SLOAD SWAP1 MLOAD PUSH1 0x1 PUSH1 0x1 PUSH1 0xA0 SHL SUB SWAP1 SWAP2 AND DUP2 MSTORE PUSH1 0x20 SWAP1 RETURN JUMPDEST SWAP1 CALLVALUE PUSH2 0x242 JUMPI PUSH1 0x20 CALLDATASIZE PUSH1 0x3 NOT ADD SLT PUSH2 0x242 JUMPI PUSH2 0x5BC PUSH2 0xF3F JUMP JUMPDEST PUSH2 0x5C4 PUSH2 0x1251 JUMP JUMPDEST PUSH1 0x1 PUSH1 0x1 PUSH1 0xA0 SHL SUB AND SWAP2 DUP3 ISZERO PUSH2 0x5F1 JUMPI POP POP PUSH12 0xFFFFFFFFFFFFFFFFFFFFFFFF PUSH1 0xA0 SHL PUSH1 0x6 SLOAD AND OR PUSH1 0x6 SSTORE DUP1 RETURN JUMPDEST SWAP1 PUSH1 0x20 PUSH1 0x64 SWAP3 MLOAD SWAP2 PUSH3 0x461BCD PUSH1 0xE5 SHL DUP4 MSTORE DUP3 ADD MSTORE PUSH1 0xF PUSH1 0x24 DUP3 ADD MSTORE PUSH15 0x496E76616C69642061646472657373 PUSH1 0x88 SHL PUSH1 0x44 DUP3 ADD MSTORE REVERT JUMPDEST SWAP1 POP CALLVALUE PUSH2 0x31E JUMPI DUP2 PUSH1 0x3 NOT CALLDATASIZE ADD SLT PUSH2 0x31E JUMPI PUSH1 0x7 SLOAD SWAP1 MLOAD PUSH1 0x1 PUSH1 0x1 PUSH1 0xA0 SHL SUB SWAP1 SWAP2 AND DUP2 MSTORE PUSH1 0x20 SWAP1 RETURN JUMPDEST DUP3 CALLVALUE PUSH2 0x460 JUMPI DUP1 PUSH1 0x3 NOT CALLDATASIZE ADD SLT PUSH2 0x460 JUMPI PUSH2 0x668 PUSH2 0x1251 JUMP JUMPDEST PUSH1 0x5 DUP1 SLOAD PUSH1 0x1 PUSH1 0x1 PUSH1 0xA0 SHL SUB NOT DUP2 AND SWAP1 SWAP2 SSTORE DUP2 SWAP1 PUSH1 0x1 PUSH1 0x1 PUSH1 0xA0 SHL SUB AND PUSH32 0x8BE0079C531659141344CD1FD0A4F28419497F9722A3DAAFE3B4186F6B6457E0 DUP3 DUP1 LOG3 DUP1 RETURN JUMPDEST SWAP1 POP CALLVALUE PUSH2 0x31E JUMPI PUSH1 0x20 CALLDATASIZE PUSH1 0x3 NOT ADD SLT PUSH2 0x31E JUMPI PUSH1 0x20 SWAP2 DUP2 SWAP1 PUSH1 0x1 PUSH1 0x1 PUSH1 0xA0 SHL SUB PUSH2 0x6D4 PUSH2 0xF3F JUMP JUMPDEST AND DUP2 MSTORE DUP1 DUP5 MSTORE KECCAK256 SLOAD SWAP1 MLOAD SWAP1 DUP2 MSTORE RETURN JUMPDEST DUP3 SWAP1 CALLVALUE PUSH2 0x31E JUMPI DUP2 PUSH1 0x3 NOT CALLDATASIZE ADD SLT PUSH2 0x31E JUMPI PUSH2 0x6FD PUSH2 0x1251 JUMP JUMPDEST PUSH1 0x8 SLOAD SWAP1 DUP2 ISZERO PUSH2 0x999 JUMPI PUSH1 0x7 SLOAD DUP2 MLOAD PUSH1 0x1 PUSH1 0x1 PUSH1 0xA0 SHL SUB SWAP4 SWAP2 DUP5 AND SWAP2 PUSH1 0x80 DUP3 ADD PUSH8 0xFFFFFFFFFFFFFFFF DUP2 GT DUP4 DUP3 LT OR PUSH2 0x986 JUMPI DUP5 SWAP3 DUP7 SWAP8 SWAP9 SWAP5 SWAP3 PUSH1 0x84 SWAP3 DUP6 MSTORE DUP2 MSTORE DUP9 PUSH1 0x20 DUP3 ADD SWAP4 ADDRESS DUP6 MSTORE DUP6 DUP4 ADD PUSH16 0xFFFFFFFFFFFFFFFFFFFFFFFFFFFFFFFF SWAP1 DUP2 DUP2 MSTORE DUP2 PUSH1 0x60 DUP7 ADD SWAP2 DUP2 DUP4 MSTORE DUP10 MLOAD SWAP13 DUP14 SWAP10 DUP11 SWAP9 PUSH4 0xFC6F7865 PUSH1 0xE0 SHL DUP11 MSTORE MLOAD DUP14 DUP11 ADD MSTORE MLOAD AND PUSH1 0x24 DUP9 ADD MSTORE MLOAD AND PUSH1 0x44 DUP7 ADD MSTORE MLOAD AND PUSH1 0x64 DUP5 ADD MSTORE GAS CALL DUP1 ISZERO PUSH2 0x97C JUMPI DUP6 SWAP4 DUP7 SWAP2 PUSH2 0x943 JUMPI JUMPDEST POP SELFBALANCE SWAP4 DUP1 ISZERO DUP1 ISZERO SWAP1 PUSH2 0x93A JUMPI JUMPDEST PUSH2 0x91D JUMPI JUMPDEST POP POP DUP3 ISZERO SWAP3 DUP4 ISZERO PUSH2 0x7C5 JUMPI DUP6 DUP1 RETURN JUMPDEST PUSH1 0x28 DUP2 MUL DUP2 DUP2 DIV PUSH1 0x28 EQ DUP6 OR ISZERO PUSH2 0x90A JUMPI PUSH1 0x64 SWAP1 DIV SWAP4 PUSH1 0x14 DUP3 MUL SWAP2 DUP3 DIV PUSH1 0x14 EQ OR ISZERO PUSH2 0x8F7 JUMPI PUSH1 0x64 SWAP1 DIV SWAP4 DUP6 DUP1 DUP1 DUP1 DUP8 DUP6 PUSH1 0x5 SLOAD AND GAS CALL PUSH2 0x804 PUSH2 0x137E JUMP JUMPDEST POP ISZERO PUSH2 0x8B4 JUMPI DUP6 DUP1 DUP1 DUP8 DUP2 SWAP5 PUSH1 0x6 SLOAD AND GAS CALL PUSH2 0x81E PUSH2 0x137E JUMP JUMPDEST POP ISZERO PUSH2 0x872 JUMPI POP SWAP2 DUP2 PUSH32 0x312C5308F42848705A866C73DEC11FD0783C2D64AAC6A97E94467062AD3F4058 SWAP4 PUSH2 0x857 PUSH1 0x60 SWAP5 PUSH1 0xB SLOAD PUSH2 0x135B JUMP JUMPDEST PUSH1 0xB SSTORE DUP1 MLOAD SWAP3 DUP3 DUP5 MSTORE PUSH1 0x20 DUP5 ADD MSTORE DUP3 ADD MSTORE LOG1 DUP2 DUP1 DUP1 DUP1 DUP1 DUP6 DUP1 RETURN JUMPDEST PUSH1 0x20 PUSH1 0x64 SWAP3 MLOAD SWAP2 PUSH3 0x461BCD PUSH1 0xE5 SHL DUP4 MSTORE DUP3 ADD MSTORE PUSH1 0x19 PUSH1 0x24 DUP3 ADD MSTORE PUSH32 0x4661696C656420746F2073656E642045544820746F2064657600000000000000 PUSH1 0x44 DUP3 ADD MSTORE REVERT JUMPDEST POP PUSH1 0x20 PUSH1 0x64 SWAP3 MLOAD SWAP2 PUSH3 0x461BCD PUSH1 0xE5 SHL DUP4 MSTORE DUP3 ADD MSTORE PUSH1 0x1B PUSH1 0x24 DUP3 ADD MSTORE PUSH32 0x4661696C656420746F2073656E642045544820746F206F776E65720000000000 PUSH1 0x44 DUP3 ADD MSTORE REVERT JUMPDEST PUSH4 0x4E487B71 PUSH1 0xE0 SHL DUP7 MSTORE PUSH1 0x11 DUP3 MSTORE PUSH1 0x24 DUP7 REVERT JUMPDEST PUSH4 0x4E487B71 PUSH1 0xE0 SHL DUP8 MSTORE PUSH1 0x11 DUP4 MSTORE PUSH1 0x24 DUP8 REVERT JUMPDEST PUSH2 0x932 SWAP3 SWAP5 SWAP2 PUSH2 0x92C SWAP2 PUSH2 0x135B JUMP JUMPDEST SWAP1 PUSH2 0x135B JUMP JUMPDEST SWAP2 DUP6 DUP1 PUSH2 0x7B6 JUMP JUMPDEST POP DUP2 ISZERO ISZERO PUSH2 0x7B1 JUMP JUMPDEST DUP1 SWAP5 POP DUP4 DUP1 SWAP3 POP RETURNDATASIZE DUP4 GT PUSH2 0x975 JUMPI JUMPDEST PUSH2 0x95C DUP2 DUP4 PUSH2 0xFC6 JUMP JUMPDEST DUP2 ADD SUB SLT PUSH2 0x971 JUMPI PUSH1 0x20 DUP4 MLOAD SWAP4 ADD MLOAD DUP7 PUSH2 0x7A4 JUMP JUMPDEST DUP5 DUP1 REVERT JUMPDEST POP RETURNDATASIZE PUSH2 0x952 JUMP JUMPDEST DUP3 MLOAD RETURNDATASIZE DUP8 DUP3 RETURNDATACOPY RETURNDATASIZE SWAP1 REVERT JUMPDEST PUSH4 0x4E487B71 PUSH1 0xE0 SHL DUP8 MSTORE PUSH1 0x41 DUP9 MSTORE PUSH1 0x24 DUP8 REVERT JUMPDEST MLOAD PUSH3 0x461BCD PUSH1 0xE5 SHL DUP2 MSTORE PUSH1 0x20 DUP2 DUP6 ADD MSTORE PUSH1 0x10 PUSH1 0x24 DUP3 ADD MSTORE PUSH16 0x141BDCDA5D1A5BDB881B9BDD081CD95D PUSH1 0x82 SHL PUSH1 0x44 DUP3 ADD MSTORE PUSH1 0x64 SWAP1 REVERT JUMPDEST SWAP1 POP CALLVALUE PUSH2 0x31E JUMPI DUP2 PUSH1 0x3 NOT CALLDATASIZE ADD SLT PUSH2 0x31E JUMPI PUSH1 0x20 SWAP1 MLOAD PUSH1 0x14 DUP2 MSTORE RETURN JUMPDEST SWAP1 POP CALLVALUE PUSH2 0x31E JUMPI DUP2 PUSH1 0x3 NOT CALLDATASIZE ADD SLT PUSH2 0x31E JUMPI PUSH1 0x6 SLOAD SWAP1 MLOAD PUSH1 0x1 PUSH1 0x1 PUSH1 0xA0 SHL SUB SWAP1 SWAP2 AND DUP2 MSTORE PUSH1 0x20 SWAP1 RETURN JUMPDEST CALLVALUE PUSH2 0x242 JUMPI DUP3 PUSH1 0x3 NOT CALLDATASIZE ADD SLT PUSH2 0x242 JUMPI CALLER DUP4 MSTORE PUSH1 0x20 SWAP1 DUP4 DUP3 MSTORE DUP1 DUP5 KECCAK256 SLOAD ISZERO PUSH2 0xBB0 JUMPI PUSH1 0xB SLOAD DUP1 ISZERO PUSH2 0xB77 JUMPI PUSH1 0x2 SLOAD CALLER DUP7 MSTORE DUP6 DUP5 MSTORE DUP3 DUP7 KECCAK256 SLOAD DUP1 DUP4 MUL SWAP3 DUP4 DIV SUB PUSH2 0xB64 JUMPI DUP1 ISZERO PUSH2 0xB51 JUMPI SWAP1 PUSH2 0xA73 SWAP2 CALLER DUP8 MSTORE PUSH1 0xC DUP6 MSTORE DUP4 DUP8 KECCAK256 SLOAD SWAP2 DIV PUSH2 0x13BE JUMP JUMPDEST SWAP3 DUP4 ISZERO PUSH2 0xB1A JUMPI CALLER DUP6 MSTORE PUSH1 0xC DUP4 MSTORE DUP2 DUP6 KECCAK256 PUSH2 0xA8F DUP6 DUP3 SLOAD PUSH2 0x135B JUMP JUMPDEST SWAP1 SSTORE PUSH2 0xA9D DUP5 PUSH1 0xB SLOAD PUSH2 0x13BE JUMP JUMPDEST PUSH1 0xB SSTORE DUP5 DUP1 DUP1 DUP1 DUP8 CALLER GAS CALL PUSH2 0xAB0 PUSH2 0x137E JUMP JUMPDEST POP ISZERO PUSH2 0xAE4 JUMPI POP SWAP1 PUSH32 0xFC30CDDEA38E2BF4D6EA7D3F9ED3B6AD7F176419F4963BD81318067A4AEE73FE SWAP2 MLOAD SWAP3 DUP4 MSTORE CALLER SWAP3 LOG2 DUP1 RETURN JUMPDEST DUP3 PUSH1 0x64 SWAP3 MLOAD SWAP2 PUSH3 0x461BCD PUSH1 0xE5 SHL DUP4 MSTORE DUP3 ADD MSTORE PUSH1 0x12 PUSH1 0x24 DUP3 ADD MSTORE PUSH18 0x8CC2D2D8CAC840E8DE40E6CADCC8408AA89 PUSH1 0x73 SHL PUSH1 0x44 DUP3 ADD MSTORE REVERT JUMPDEST DUP3 PUSH1 0x64 SWAP3 MLOAD SWAP2 PUSH3 0x461BCD PUSH1 0xE5 SHL DUP4 MSTORE DUP3 ADD MSTORE PUSH1 0x13 PUSH1 0x24 DUP3 ADD MSTORE PUSH19 0x4E6F207265776172647320746F20636C61696D PUSH1 0x68 SHL PUSH1 0x44 DUP3 ADD MSTORE REVERT JUMPDEST PUSH4 0x4E487B71 PUSH1 0xE0 SHL DUP7 MSTORE PUSH1 0x12 DUP6 MSTORE PUSH1 0x24 DUP7 REVERT JUMPDEST PUSH4 0x4E487B71 PUSH1 0xE0 SHL DUP7 MSTORE PUSH1 0x11 DUP6 MSTORE PUSH1 0x24 DUP7 REVERT JUMPDEST POP MLOAD PUSH3 0x461BCD PUSH1 0xE5 SHL DUP2 MSTORE SWAP2 DUP3 ADD MSTORE PUSH1 0x14 PUSH1 0x24 DUP3 ADD MSTORE PUSH20 0x4E6F207265776172647320617661696C61626C65 PUSH1 0x60 SHL PUSH1 0x44 DUP3 ADD MSTORE PUSH1 0x64 SWAP2 POP REVERT JUMPDEST MLOAD PUSH3 0x461BCD PUSH1 0xE5 SHL DUP2 MSTORE SWAP2 DUP3 ADD MSTORE PUSH1 0xC PUSH1 0x24 DUP3 ADD MSTORE PUSH12 0x2737BA1030903437B63232B9 PUSH1 0xA1 SHL PUSH1 0x44 DUP3 ADD MSTORE PUSH1 0x64 SWAP2 POP REVERT JUMPDEST SWAP1 POP CALLVALUE PUSH2 0x31E JUMPI DUP2 PUSH1 0x3 NOT CALLDATASIZE ADD SLT PUSH2 0x31E JUMPI PUSH1 0x20 SWAP1 MLOAD PUSH1 0x12 DUP2 MSTORE RETURN JUMPDEST SWAP1 CALLVALUE PUSH2 0x242 JUMPI PUSH1 0x20 CALLDATASIZE PUSH1 0x3 NOT ADD SLT PUSH2 0x242 JUMPI CALLDATALOAD PUSH1 0xA SLOAD DUP2 LT ISZERO PUSH2 0x242 JUMPI PUSH1 0xA PUSH1 0x20 SWAP4 MSTORE PUSH1 0x1 DUP1 PUSH1 0xA0 SHL SUB SWAP1 PUSH32 0xC65A7BB8D6351C1CF70C95A316CC6A92839C986682D98BC35F958F4883F9D2A8 ADD SLOAD AND SWAP1 MLOAD SWAP1 DUP2 MSTORE RETURN JUMPDEST SWAP2 CALLVALUE PUSH2 0x460 JUMPI PUSH1 0x60 CALLDATASIZE PUSH1 0x3 NOT ADD SLT PUSH2 0x460 JUMPI PUSH2 0xC6C PUSH2 0xF3F JUMP JUMPDEST PUSH2 0xC74 PUSH2 0xF5A JUMP JUMPDEST SWAP2 PUSH1 0x44 CALLDATALOAD SWAP4 PUSH1 0x1 DUP1 PUSH1 0xA0 SHL SUB DUP4 AND DUP1 DUP4 MSTORE PUSH1 0x1 PUSH1 0x20 MSTORE DUP7 DUP4 KECCAK256 CALLER DUP5 MSTORE PUSH1 0x20 MSTORE DUP7 DUP4 KECCAK256 SLOAD SWAP2 PUSH1 0x0 NOT DUP4 LT PUSH2 0xCB0 JUMPI JUMPDEST PUSH1 0x20 DUP9 PUSH2 0x41C DUP10 DUP10 DUP10 PUSH2 0x127D JUMP JUMPDEST DUP7 DUP4 LT PUSH2 0xD18 JUMPI DUP2 ISZERO PUSH2 0xD01 JUMPI CALLER ISZERO PUSH2 0xCEA JUMPI POP DUP3 MSTORE PUSH1 0x1 PUSH1 0x20 SWAP1 DUP2 MSTORE DUP7 DUP4 KECCAK256 CALLER DUP5 MSTORE DUP2 MSTORE SWAP2 DUP7 SWAP1 KECCAK256 SWAP1 DUP6 SWAP1 SUB SWAP1 SSTORE DUP3 SWAP1 PUSH2 0x41C DUP8 PUSH2 0xCA2 JUMP JUMPDEST DUP8 MLOAD PUSH4 0x4A1406B1 PUSH1 0xE1 SHL DUP2 MSTORE SWAP1 DUP2 ADD DUP5 SWAP1 MSTORE PUSH1 0x24 SWAP1 REVERT JUMPDEST DUP8 MLOAD PUSH4 0xE602DF05 PUSH1 0xE0 SHL DUP2 MSTORE SWAP1 DUP2 ADD DUP5 SWAP1 MSTORE PUSH1 0x24 SWAP1 REVERT JUMPDEST DUP8 MLOAD PUSH4 0x7DC7A0D9 PUSH1 0xE1 SHL DUP2 MSTORE CALLER SWAP2 DUP2 ADD SWAP2 DUP3 MSTORE PUSH1 0x20 DUP3 ADD SWAP4 SWAP1 SWAP4 MSTORE PUSH1 0x40 DUP2 ADD DUP8 SWAP1 MSTORE DUP3 SWAP2 POP PUSH1 0x60 ADD SUB SWAP1 REVERT JUMPDEST SWAP1 POP CALLVALUE PUSH2 0x31E JUMPI DUP2 PUSH1 0x3 NOT CALLDATASIZE ADD SLT PUSH2 0x31E JUMPI PUSH1 0x20 SWAP1 PUSH1 0x2 SLOAD SWAP1 MLOAD SWAP1 DUP2 MSTORE RETURN JUMPDEST SWAP1 CALLVALUE PUSH2 0x242 JUMPI DUP2 PUSH1 0x3 NOT CALLDATASIZE ADD SLT PUSH2 0x242 JUMPI PUSH2 0xD7C PUSH2 0xF3F JUMP JUMPDEST PUSH1 0x24 CALLDATALOAD SWAP1 CALLER ISZERO PUSH2 0xDF5 JUMPI PUSH1 0x1 PUSH1 0x1 PUSH1 0xA0 SHL SUB AND SWAP2 DUP3 ISZERO PUSH2 0xDDE JUMPI POP DUP1 DUP4 PUSH1 0x20 SWAP6 CALLER DUP2 MSTORE PUSH1 0x1 DUP8 MSTORE DUP2 DUP2 KECCAK256 DUP6 DUP3 MSTORE DUP8 MSTORE KECCAK256 SSTORE DUP3 MLOAD SWAP1 DUP2 MSTORE PUSH32 0x8C5BE1E5EBEC7D5BD14F71427D1E84F3DD0314C0F7B2291E5B200AC8C7C3B925 DUP5 CALLER SWAP3 LOG3 MLOAD PUSH1 0x1 DUP2 MSTORE RETURN JUMPDEST DUP4 MLOAD PUSH4 0x4A1406B1 PUSH1 0xE1 SHL DUP2 MSTORE SWAP1 DUP2 ADD DUP6 SWAP1 MSTORE PUSH1 0x24 SWAP1 REVERT JUMPDEST DUP4 MLOAD PUSH4 0xE602DF05 PUSH1 0xE0 SHL DUP2 MSTORE DUP1 DUP5 ADD DUP7 SWAP1 MSTORE PUSH1 0x24 SWAP1 REVERT JUMPDEST SWAP2 SWAP3 SWAP1 CALLVALUE PUSH2 0x31E JUMPI DUP2 PUSH1 0x3 NOT CALLDATASIZE ADD SLT PUSH2 0x31E JUMPI DUP2 PUSH1 0x3 SLOAD SWAP3 PUSH1 0x1 DUP5 DUP2 SHR SWAP2 DUP2 DUP7 AND SWAP6 DUP7 ISZERO PUSH2 0xEF5 JUMPI JUMPDEST PUSH1 0x20 SWAP7 DUP8 DUP6 LT DUP2 EQ PUSH2 0x55C JUMPI DUP9 SWAP10 POP SWAP7 DUP9 SWAP7 SWAP8 DUP6 DUP3 SWAP11 MSTORE SWAP2 DUP3 PUSH1 0x0 EQ PUSH2 0xECE JUMPI POP POP PUSH1 0x1 EQ PUSH2 0xE72 JUMPI JUMPDEST POP POP POP PUSH2 0x45C SWAP3 SWAP2 PUSH2 0x4C8 SWAP2 SUB DUP6 PUSH2 0xFC6 JUMP JUMPDEST SWAP2 SWAP1 DUP7 SWAP4 POP PUSH1 0x3 DUP4 MSTORE PUSH32 0xC2575A0E9E593C00F959F8C92F12DB2869C3395A3B0502D05E2516446F71F85B JUMPDEST DUP3 DUP5 LT PUSH2 0xEB6 JUMPI POP POP POP DUP3 ADD ADD DUP2 PUSH2 0x4C8 PUSH2 0x45C PUSH2 0xE5F JUMP JUMPDEST DUP1 SLOAD DUP5 DUP11 ADD DUP7 ADD MSTORE DUP9 SWAP6 POP DUP8 SWAP5 SWAP1 SWAP4 ADD SWAP3 DUP2 ADD PUSH2 0xE9D JUMP JUMPDEST PUSH1 0xFF NOT AND DUP8 DUP3 ADD MSTORE SWAP4 ISZERO ISZERO PUSH1 0x5 SHL DUP7 ADD SWAP1 SWAP4 ADD SWAP4 POP DUP5 SWAP3 POP PUSH2 0x4C8 SWAP2 POP PUSH2 0x45C SWAP1 POP PUSH2 0xE5F JUMP JUMPDEST SWAP3 PUSH1 0x7F AND SWAP3 PUSH2 0xE35 JUMP JUMPDEST SWAP2 SWAP1 DUP3 MLOAD SWAP3 DUP4 DUP3 MSTORE PUSH1 0x0 JUMPDEST DUP5 DUP2 LT PUSH2 0xF2B JUMPI POP POP DUP3 PUSH1 0x0 PUSH1 0x20 DUP1 SWAP5 SWAP6 DUP5 ADD ADD MSTORE PUSH1 0x1F DUP1 NOT SWAP2 ADD AND ADD ADD SWAP1 JUMP JUMPDEST PUSH1 0x20 DUP2 DUP4 ADD DUP2 ADD MLOAD DUP5 DUP4 ADD DUP3 ADD MSTORE ADD PUSH2 0xF0A JUMP JUMPDEST PUSH1 0x4 CALLDATALOAD SWAP1 PUSH1 0x1 PUSH1 0x1 PUSH1 0xA0 SHL SUB DUP3 AND DUP3 SUB PUSH2 0xF55 JUMPI JUMP JUMPDEST PUSH1 0x0 DUP1 REVERT JUMPDEST PUSH1 0x24 CALLDATALOAD SWAP1 PUSH1 0x1 PUSH1 0x1 PUSH1 0xA0 SHL SUB DUP3 AND DUP3 SUB PUSH2 0xF55 JUMPI JUMP JUMPDEST CALLVALUE PUSH2 0xF55 JUMPI PUSH1 0x0 CALLDATASIZE PUSH1 0x3 NOT ADD SLT PUSH2 0xF55 JUMPI PUSH1 0x20 PUSH1 0x40 MLOAD PUSH1 0x28 DUP2 MSTORE RETURN JUMPDEST SWAP2 PUSH2 0xFB5 SWAP1 PUSH2 0xFA7 PUSH2 0xFC3 SWAP6 SWAP4 PUSH1 0x60 DUP7 MSTORE PUSH1 0x60 DUP7 ADD SWAP1 PUSH2 0xEFF JUMP JUMPDEST SWAP1 DUP5 DUP3 SUB PUSH1 0x20 DUP7 ADD MSTORE PUSH2 0xEFF JUMP JUMPDEST SWAP2 PUSH1 0x40 DUP2 DUP5 SUB SWAP2 ADD MSTORE PUSH2 0xEFF JUMP JUMPDEST SWAP1 JUMP JUMPDEST SWAP1 PUSH1 0x1F DUP1 NOT SWAP2 ADD AND DUP2 ADD SWAP1 DUP2 LT PUSH8 0xFFFFFFFFFFFFFFFF DUP3 GT OR PUSH2 0xFE8 JUMPI PUSH1 0x40 MSTORE JUMP JUMPDEST PUSH4 0x4E487B71 PUSH1 0xE0 SHL PUSH1 0x0 MSTORE PUSH1 0x41 PUSH1 0x4 MSTORE PUSH1 0x24 PUSH1 0x0 REVERT JUMPDEST PUSH1 0x40 MLOAD SWAP1 PUSH1 0x0 PUSH1 0xD SLOAD SWAP1 PUSH1 0x1 DUP3 DUP2 SHR SWAP1 DUP1 DUP5 AND SWAP4 DUP5 ISZERO PUSH2 0x10DF JUMPI JUMPDEST PUSH1 0x20 SWAP5 DUP6 DUP5 LT DUP2 EQ PUSH2 0x10CB JUMPI DUP4 DUP9 MSTORE DUP8 SWAP5 SWAP4 SWAP3 SWAP2 DUP2 ISZERO PUSH2 0x10AB JUMPI POP PUSH1 0x1 EQ PUSH2 0x104C JUMPI JUMPDEST POP POP PUSH2 0x104A SWAP3 POP SUB DUP4 PUSH2 0xFC6 JUMP JUMPDEST JUMP JUMPDEST SWAP1 SWAP4 SWAP2 POP PUSH1 0xD PUSH1 0x0 MSTORE PUSH32 0xD7B6990105719101DABEB77144F2A3385C8033ACD3AF97E9423A695E81AD1EB5 SWAP4 PUSH1 0x0 SWAP2 JUMPDEST DUP2 DUP4 LT PUSH2 0x1093 JUMPI POP POP PUSH2 0x104A SWAP4 POP DUP3 ADD ADD CODESIZE DUP1 PUSH2 0x103C JUMP JUMPDEST DUP6 SLOAD DUP9 DUP5 ADD DUP6 ADD MSTORE SWAP5 DUP6 ADD SWAP5 DUP8 SWAP5 POP SWAP2 DUP4 ADD SWAP2 PUSH2 0x107B JUMP JUMPDEST SWAP2 POP POP PUSH2 0x104A SWAP5 SWAP3 POP PUSH1 0xFF NOT AND DUP3 DUP5 ADD MSTORE ISZERO ISZERO PUSH1 0x5 SHL DUP3 ADD ADD CODESIZE DUP1 PUSH2 0x103C JUMP JUMPDEST PUSH4 0x4E487B71 PUSH1 0xE0 SHL DUP6 MSTORE PUSH1 0x22 PUSH1 0x4 MSTORE PUSH1 0x24 DUP6 REVERT JUMPDEST SWAP2 PUSH1 0x7F AND SWAP2 PUSH2 0x1019 JUMP JUMPDEST PUSH1 0x40 MLOAD SWAP1 PUSH1 0x0 PUSH1 0xE SLOAD SWAP1 PUSH1 0x1 DUP3 DUP2 SHR SWAP1 DUP1 DUP5 AND SWAP4 DUP5 ISZERO PUSH2 0x1193 JUMPI JUMPDEST PUSH1 0x20 SWAP5 DUP6 DUP5 LT DUP2 EQ PUSH2 0x10CB JUMPI DUP4 DUP9 MSTORE DUP8 SWAP5 SWAP4 SWAP3 SWAP2 DUP2 ISZERO PUSH2 0x10AB JUMPI POP PUSH1 0x1 EQ PUSH2 0x1134 JUMPI POP POP PUSH2 0x104A SWAP3 POP SUB DUP4 PUSH2 0xFC6 JUMP JUMPDEST SWAP1 SWAP4 SWAP2 POP PUSH1 0xE PUSH1 0x0 MSTORE PUSH32 0xBB7B4A454DC3493923482F07822329ED19E8244EFF582CC204F8554C3620C3FD SWAP4 PUSH1 0x0 SWAP2 JUMPDEST DUP2 DUP4 LT PUSH2 0x117B JUMPI POP POP PUSH2 0x104A SWAP4 POP DUP3 ADD ADD CODESIZE DUP1 PUSH2 0x103C JUMP JUMPDEST DUP6 SLOAD DUP9 DUP5 ADD DUP6 ADD MSTORE SWAP5 DUP6 ADD SWAP5 DUP8 SWAP5 POP SWAP2 DUP4 ADD SWAP2 PUSH2 0x1163 JUMP JUMPDEST SWAP2 PUSH1 0x7F AND SWAP2 PUSH2 0x1104 JUMP JUMPDEST PUSH1 0x40 MLOAD SWAP1 PUSH1 0x0 PUSH1 0xF SLOAD SWAP1 PUSH1 0x1 DUP3 DUP2 SHR SWAP1 DUP1 DUP5 AND SWAP4 DUP5 ISZERO PUSH2 0x1247 JUMPI JUMPDEST PUSH1 0x20 SWAP5 DUP6 DUP5 LT DUP2 EQ PUSH2 0x10CB JUMPI DUP4 DUP9 MSTORE DUP8 SWAP5 SWAP4 SWAP3 SWAP2 DUP2 ISZERO PUSH2 0x10AB JUMPI POP PUSH1 0x1 EQ PUSH2 0x11E8 JUMPI POP POP PUSH2 0x104A SWAP3 POP SUB DUP4 PUSH2 0xFC6 JUMP JUMPDEST SWAP1 SWAP4 SWAP2 POP PUSH1 0xF PUSH1 0x0 MSTORE PUSH32 0x8D1108E10BCB7C27DDDFC02ED9D693A074039D026CF4EA4240B40F7D581AC802 SWAP4 PUSH1 0x0 SWAP2 JUMPDEST DUP2 DUP4 LT PUSH2 0x122F JUMPI POP POP PUSH2 0x104A SWAP4 POP DUP3 ADD ADD CODESIZE DUP1 PUSH2 0x103C JUMP JUMPDEST DUP6 SLOAD DUP9 DUP5 ADD DUP6 ADD MSTORE SWAP5 DUP6 ADD SWAP5 DUP8 SWAP5 POP SWAP2 DUP4 ADD SWAP2 PUSH2 0x1217 JUMP JUMPDEST SWAP2 PUSH1 0x7F AND SWAP2 PUSH2 0x11B8 JUMP JUMPDEST PUSH1 0x5 SLOAD PUSH1 0x1 PUSH1 0x1 PUSH1 0xA0 SHL SUB AND CALLER SUB PUSH2 0x1265 JUMPI JUMP JUMPDEST PUSH1 0x40 MLOAD PUSH4 0x118CDAA7 PUSH1 0xE0 SHL DUP2 MSTORE CALLER PUSH1 0x4 DUP3 ADD MSTORE PUSH1 0x24 SWAP1 REVERT JUMPDEST SWAP2 PUSH1 0x1 PUSH1 0x1 PUSH1 0xA0 SHL SUB DUP1 DUP5 AND SWAP3 DUP4 ISZERO PUSH2 0x1342 JUMPI AND SWAP3 DUP4 ISZERO PUSH2 0x1329 JUMPI PUSH1 0x0 SWAP1 DUP4 DUP3 MSTORE DUP2 PUSH1 0x20 MSTORE PUSH1 0x40 DUP3 KECCAK256 SLOAD SWAP1 DUP4 DUP3 LT PUSH2 0x12F7 JUMPI POP SWAP2 PUSH1 0x40 DUP3 DUP3 PUSH32 0xDDF252AD1BE2C89B69C2B068FC378DAA952BA7F163C4A11628F55A4DF523B3EF SWAP6 DUP8 PUSH1 0x20 SWAP7 MSTORE DUP3 DUP7 MSTORE SUB DUP3 DUP3 KECCAK256 SSTORE DUP7 DUP2 MSTORE KECCAK256 DUP2 DUP2 SLOAD ADD SWAP1 SSTORE PUSH1 0x40 MLOAD SWAP1 DUP2 MSTORE LOG3 JUMP JUMPDEST PUSH1 0x40 MLOAD PUSH4 0x391434E3 PUSH1 0xE2 SHL DUP2 MSTORE PUSH1 0x1 PUSH1 0x1 PUSH1 0xA0 SHL SUB SWAP2 SWAP1 SWAP2 AND PUSH1 0x4 DUP3 ADD MSTORE PUSH1 0x24 DUP2 ADD SWAP2 SWAP1 SWAP2 MSTORE PUSH1 0x44 DUP2 ADD DUP4 SWAP1 MSTORE PUSH1 0x64 SWAP1 REVERT JUMPDEST PUSH1 0x40 MLOAD PUSH4 0xEC442F05 PUSH1 0xE0 SHL DUP2 MSTORE PUSH1 0x0 PUSH1 0x4 DUP3 ADD MSTORE PUSH1 0x24 SWAP1 REVERT JUMPDEST PUSH1 0x40 MLOAD PUSH4 0x4B637E8F PUSH1 0xE1 SHL DUP2 MSTORE PUSH1 0x0 PUSH1 0x4 DUP3 ADD MSTORE PUSH1 0x24 SWAP1 REVERT JUMPDEST SWAP2 SWAP1 DUP3 ADD DUP1 SWAP3 GT PUSH2 0x1368 JUMPI JUMP JUMPDEST PUSH4 0x4E487B71 PUSH1 0xE0 SHL PUSH1 0x0 MSTORE PUSH1 0x11 PUSH1 0x4 MSTORE PUSH1 0x24 PUSH1 0x0 REVERT JUMPDEST RETURNDATASIZE ISZERO PUSH2 0x13B9 JUMPI RETURNDATASIZE SWAP1 PUSH8 0xFFFFFFFFFFFFFFFF DUP3 GT PUSH2 0xFE8 JUMPI PUSH1 0x40 MLOAD SWAP2 PUSH2 0x13AD PUSH1 0x1F DUP3 ADD PUSH1 0x1F NOT AND PUSH1 0x20 ADD DUP5 PUSH2 0xFC6 JUMP JUMPDEST DUP3 MSTORE RETURNDATASIZE PUSH1 0x0 PUSH1 0x20 DUP5 ADD RETURNDATACOPY JUMP JUMPDEST PUSH1 0x60 SWAP1 JUMP JUMPDEST SWAP2 SWAP1 DUP3 SUB SWAP2 DUP3 GT PUSH2 0x1368 JUMPI JUMP INVALID LOG2 PUSH5 0x6970667358 0x22 SLT KECCAK256 0xE6 PUSH11 0x7F31F58E15D3692FAF2C8B 0xB5 PUSH26 0xF3BDC6597C274397E5FD03389176EDF4BA64736F6C6343000814 STOP CALLER COINBASE LT PUSH0 PUSH20 0x3C92E731673DB8D7877F039F0CCE3BC6436D38E5 0xC3 PUSH28 0xCE47F2A4B149BB7B4A454DC3493923482F07822329ED19E8244EFF58 0x2C 0xC2 DIV 0xF8 SSTORE 0x4C CALLDATASIZE KECCAK256 0xC3 REVERT 0xD7 0xB6 SWAP10 ADD SDIV PUSH18 0x9101DABEB77144F2A3385C8033ACD3AF97E9 TIMESTAMP GASPRICE PUSH10 0x5E81AD1EB58D1108E10B 0xCB PUSH29 0x27DDDFC02ED9D693A074039D026CF4EA4240B40F7D581AC80200000000 "
        },
        "methodIdentifiers": {
          "DEV_FEE()": "436a88c1",
          "FEE_DENOMINATOR()": "d73792a9",
          "HOLDER_FEE()": "f963812d",
          "OWNER_FEE()": "5dab0fe3",
          "allowance(address,address)": "dd62ed3e",
          "approve(address,uint256)": "095ea7b3",
          "balanceOf(address)": "70a08231",
          "claimRewards()": "372500ab",
          "claimedRewards(address)": "bd834345",
          "decimals()": "313ce567",
          "devAddress()": "3ad10ef6",
          "distributeLPFees()": "5f96684b",
          "getSocialProfile()": "93427cd5",
          "holders(uint256)": "2a11ced0",
          "isHolder(address)": "d4d7b19a",
          "name()": "06fdde03",
          "owner()": "8da5cb5b",
          "positionManager()": "791b98bc",
          "positionTokenId()": "ceefe5d1",
          "renounceOwnership()": "715018a6",
          "setPositionTokenId(uint256)": "f71b6681",
          "socialProfile()": "a8fb7d40",
          "symbol()": "95d89b41",
          "totalHolderRewards()": "ca0c8045",
          "totalSupply()": "18160ddd",
          "transfer(address,uint256)": "a9059cbb",
          "transferFrom(address,address,uint256)": "23b872dd",
          "transferOwnership(address)": "f2fde38b",
          "updateDevAddress(address)": "85033762"
        }
      }
    }
  }
}