{
  "contracts/TokenFactory.sol": {
    "TokenFactory": {
      "abi": [
        {
          "inputs": [
            {
              "internalType": "address",
              "name": "_devAddress",
              "type": "address"
            },
            {
              "internalType": "address",
              "name": "_positionManager",
              "type": "address"
            },
            {
              "internalType": "address",
              "name": "_uniswapV3Factory",
              "type": "address"
            },
            {
              "internalType": "address",
              "name": "_weth",
              "type": "address"
            },
            {
              "internalType": "address",
              "name": "_swapRouter",
              "type": "address"
            },
            {
              "internalType": "address",
              "name": "_lpLocker",
              "type": "address"
            }
          ],
          "stateMutability": "nonpayable",
          "type": "constructor"
        },
        {
          "inputs": [
            {
              "internalType": "address",
              "name": "owner",
              "type": "address"
            }
          ],
          "name": "OwnableInvalidOwner",
          "type": "error"
        },
        {
          "inputs": [
            {
              "internalType": "address",
              "name": "account",
              "type": "address"
            }
          ],
          "name": "OwnableUnauthorizedAccount",
          "type": "error"
        },
        {
          "anonymous": false,
          "inputs": [
            {
              "indexed": false,
              "internalType": "string",
              "name": "message",
              "type": "string"
            },
            {
              "indexed": false,
              "internalType": "uint256",
              "name": "value",
              "type": "uint256"
            }
          ],
          "name": "Debug",
          "type": "event"
        },
        {
          "anonymous": false,
          "inputs": [
            {
              "indexed": false,
              "internalType": "string",
              "name": "name",
              "type": "string"
            },
            {
              "indexed": false,
              "internalType": "int256",
              "name": "value",
              "type": "int256"
            }
          ],
          "name": "DebugIntValues",
          "type": "event"
        },
        {
          "anonymous": false,
          "inputs": [
            {
              "indexed": true,
              "internalType": "address",
              "name": "tokenAddress",
              "type": "address"
            },
            {
              "indexed": false,
              "internalType": "uint256",
              "name": "tokenId",
              "type": "uint256"
            },
            {
              "indexed": false,
              "internalType": "uint256",
              "name": "amountToken",
              "type": "uint256"
            },
            {
              "indexed": false,
              "internalType": "uint256",
              "name": "amountETH",
              "type": "uint256"
            }
          ],
          "name": "LiquidityAdded",
          "type": "event"
        },
        {
          "anonymous": false,
          "inputs": [
            {
              "indexed": true,
              "internalType": "address",
              "name": "previousOwner",
              "type": "address"
            },
            {
              "indexed": true,
              "internalType": "address",
              "name": "newOwner",
              "type": "address"
            }
          ],
          "name": "OwnershipTransferred",
          "type": "event"
        },
        {
          "anonymous": false,
          "inputs": [
            {
              "indexed": true,
              "internalType": "address",
              "name": "tokenAddress",
              "type": "address"
            },
            {
              "indexed": true,
              "internalType": "address",
              "name": "owner",
              "type": "address"
            },
            {
              "indexed": false,
              "internalType": "string",
              "name": "name",
              "type": "string"
            },
            {
              "indexed": false,
              "internalType": "string",
              "name": "symbol",
              "type": "string"
            },
            {
              "indexed": false,
              "internalType": "string",
              "name": "handle",
              "type": "string"
            },
            {
              "indexed": false,
              "internalType": "string",
              "name": "platform",
              "type": "string"
            },
            {
              "indexed": false,
              "internalType": "string",
              "name": "profileUrl",
              "type": "string"
            }
          ],
          "name": "TokenDeployed",
          "type": "event"
        },
        {
          "inputs": [],
          "name": "FEE_TIER",
          "outputs": [
            {
              "internalType": "uint24",
              "name": "",
              "type": "uint24"
            }
          ],
          "stateMutability": "view",
          "type": "function"
        },
        {
          "inputs": [
            {
              "internalType": "uint256",
              "name": "",
              "type": "uint256"
            }
          ],
          "name": "allTokens",
          "outputs": [
            {
              "internalType": "address",
              "name": "",
              "type": "address"
            }
          ],
          "stateMutability": "view",
          "type": "function"
        },
        {
          "inputs": [],
          "name": "defaultLockingPeriod",
          "outputs": [
            {
              "internalType": "uint64",
              "name": "",
              "type": "uint64"
            }
          ],
          "stateMutability": "view",
          "type": "function"
        },
        {
          "inputs": [
            {
              "internalType": "string",
              "name": "name",
              "type": "string"
            },
            {
              "internalType": "string",
              "name": "symbol",
              "type": "string"
            },
            {
              "internalType": "address",
              "name": "tokenOwner",
              "type": "address"
            },
            {
              "internalType": "string",
              "name": "handle",
              "type": "string"
            },
            {
              "internalType": "string",
              "name": "platform",
              "type": "string"
            },
            {
              "internalType": "string",
              "name": "profileUrl",
              "type": "string"
            }
          ],
          "name": "deployToken",
          "outputs": [
            {
              "internalType": "address",
              "name": "",
              "type": "address"
            }
          ],
          "stateMutability": "payable",
          "type": "function"
        },
        {
          "inputs": [],
          "name": "devAddress",
          "outputs": [
            {
              "internalType": "address",
              "name": "",
              "type": "address"
            }
          ],
          "stateMutability": "view",
          "type": "function"
        },
        {
          "inputs": [],
          "name": "getAllTokens",
          "outputs": [
            {
              "internalType": "address[]",
              "name": "",
              "type": "address[]"
            }
          ],
          "stateMutability": "view",
          "type": "function"
        },
        {
          "inputs": [],
          "name": "lpFeesCut",
          "outputs": [
            {
              "internalType": "uint16",
              "name": "",
              "type": "uint16"
            }
          ],
          "stateMutability": "view",
          "type": "function"
        },
        {
          "inputs": [],
          "name": "lpLocker",
          "outputs": [
            {
              "internalType": "contract TokenizedProfileMultiPositionLiquidityLocker",
              "name": "",
              "type": "address"
            }
          ],
          "stateMutability": "view",
          "type": "function"
        },
        {
          "inputs": [],
          "name": "owner",
          "outputs": [
            {
              "internalType": "address",
              "name": "",
              "type": "address"
            }
          ],
          "stateMutability": "view",
          "type": "function"
        },
        {
          "inputs": [],
          "name": "positionManager",
          "outputs": [
            {
              "internalType": "contract INonfungiblePositionManager",
              "name": "",
              "type": "address"
            }
          ],
          "stateMutability": "view",
          "type": "function"
        },
        {
          "inputs": [],
          "name": "protocolCut",
          "outputs": [
            {
              "internalType": "uint8",
              "name": "",
              "type": "uint8"
            }
          ],
          "stateMutability": "view",
          "type": "function"
        },
        {
          "inputs": [],
          "name": "renounceOwnership",
          "outputs": [],
          "stateMutability": "nonpayable",
          "type": "function"
        },
        {
          "inputs": [],
          "name": "swapRouter",
          "outputs": [
            {
              "internalType": "address",
              "name": "",
              "type": "address"
            }
          ],
          "stateMutability": "view",
          "type": "function"
        },
        {
          "inputs": [
            {
              "internalType": "address",
              "name": "newOwner",
              "type": "address"
            }
          ],
          "name": "transferOwnership",
          "outputs": [],
          "stateMutability": "nonpayable",
          "type": "function"
        },
        {
          "inputs": [],
          "name": "uniswapV3Factory",
          "outputs": [
            {
              "internalType": "contract IUniswapV3Factory",
              "name": "",
              "type": "address"
            }
          ],
          "stateMutability": "view",
          "type": "function"
        },
        {
          "inputs": [
            {
              "internalType": "address",
              "name": "",
              "type": "address"
            }
          ],
          "name": "userToToken",
          "outputs": [
            {
              "internalType": "address",
              "name": "",
              "type": "address"
            }
          ],
          "stateMutability": "view",
          "type": "function"
        },
        {
          "inputs": [],
          "name": "weth",
          "outputs": [
            {
              "internalType": "address",
              "name": "",
              "type": "address"
            }
          ],
          "stateMutability": "view",
          "type": "function"
        },
        {
          "inputs": [],
          "name": "withdrawETH",
          "outputs": [],
          "stateMutability": "nonpayable",
          "type": "function"
        },
        {
          "stateMutability": "payable",
          "type": "receive"
        }
      ],
      "evm": {
        "bytecode": {
          "linkReferences": {},
          "object": "6080346200029f57601f62003ea438819003918201601f191683019291906001600160401b03841183851017620002a4578160c092849260409687528339810103126200029f576200005181620002ba565b9060209162000062838301620002ba565b9162000070858201620002ba565b6200007e60608301620002ba565b906200009b60a06200009360808601620002ba565b9401620002ba565b913315620002875760005460018060a01b031996338883161760005589519160018060a01b03978891823391167f8be0079c531659141344cd1fd0a4f28419497f9722a3daafe3b4186f6b6457e0600080a3600980546001600160581b0319166901f40000000001e1855817905516918215620002455750861692831562000203578616918215620001bf5786169788156200017c575090859392918760015416176001558660035416176003558560045416176004551683600554161760055516816006541617600655600254161760025551613bd49081620002d08239f35b6064908a519062461bcd60e51b82526004820152601460248201527f496e76616c6964205745544820616464726573730000000000000000000000006044820152fd5b895162461bcd60e51b8152600481018a9052601760248201527f496e76616c696420666163746f727920616464726573730000000000000000006044820152606490fd5b6064898b519062461bcd60e51b825280600483015260248201527f496e76616c696420706f736974696f6e206d616e6167657220616464726573736044820152fd5b62461bcd60e51b8152600481018a9052601360248201527f496e76616c6964206465762061646472657373000000000000000000000000006044820152606490fd5b8751631e4fbdf760e01b815260006004820152602490fd5b600080fd5b634e487b7160e01b600052604160045260246000fd5b51906001600160a01b03821682036200029f5756fe60808060405260043610156200001f575b5036156200001d57600080fd5b005b600090813560e01c90816303fc201314620021cc5750806328d249fe146200218c5780632a5c792a14620020be5780633ad10ef614620020935780633fc8cef314620020685780634c69a6c9146200204957806357aa020114620020225780635b5491821462001ff7578063634282af1462001fae578063715018a61462001f50578063791b98bc1462001f255780638da5cb5b1462001efc578063c31c9c071462001ed1578063d406d7511462001ea8578063de04f42e1462001e82578063e086e5ec1462001e05578063f2fde38b1462001d785763fe658a1703620000105760c036600319011262001c09576004356001600160401b038111620009be576200012f9036906004016200228e565b6024356001600160401b0381116200162957620001519036906004016200228e565b604435916001600160a01b03831683036200153d576064356001600160401b03811162001d7457620001889036906004016200228e565b926084356001600160401b03811162001d7057620001ab9036906004016200228e565b9360a4356001600160401b03811162001d6c57620001ce9036906004016200228e565b91620001d9620022e9565b60008051602062003b7f8339815191526080604051604081526015604082015274436865636b696e6720726571756972656d656e747360581b6060820152346020820152a16001600160a01b038181168852600760205260408820541662001d1c576001600160a01b0381161562001ce15760008051602062003b7f83398151915260806040516040815260156040820152742232b83637bcb4b7339029b7b1b4b0b62a37b5b2b760591b6060820152896020820152a16040518061167e8101106001600160401b0361167e8301111762001ccd5761167e62002501823980620002cc8589868a8a61167e870162002362565b039088f0801562001cc2576001600160a01b03828116895260076020526040892080546001600160a01b0319169290911691821790556008549096906801000000000000000081101562001cae578060016200032c92016008556200220a565b81546001600160a01b0360039290921b91821b19169089901b1790556040516370a0823160e01b81523060048201526020816024818b5afa90811562001ca357899162001c67575b5060008051602062003b7f8339815191526080604051604081526015604082015274496e697469616c20746f6b656e2062616c616e636560581b6060820152836020820152a160008051602062003b7f83398151915260a060405160408152602f60408201527f417070726f76696e6720746f6b656e7320666f72204e6f6e66756e6769626c6560608201526e2837b9b4ba34b7b726b0b730b3b2b960891b6080820152836020820152a16004805460405163095ea7b360e01b81526001600160a01b0390911691810191909152602481018290526020816044818d8d5af190811562001590578a9162001c43575b501562001c0c576002546001600160a01b031689813b1562001c0957604051630d0e30db60e41b8152918290600490829034905af18015620015905762001bf3575b506002546004805460405163095ea7b360e01b81526001600160a01b03918216928101929092523460248301529091602091839160449183918f91165af190811562001590578a9162001bbd575b501562001b81576003546040516322afcccb60e01b8152610bb86004820152916001600160a01b0390911690602083602481855afa92831562001b76578b9362001b31575b507f0f5d2cd60f752ff8ca00b1fc30ea4d78c233eca72c1ed58d0d62424e09f0951e608060405160408152600b60408201526a5469636b53706163696e6760a81b60608201528560020b6020820152a18260020b1562001b1d578260020b8360020b620d89b3190560020b0291828060020b0362001636577f0f5d2cd60f752ff8ca00b1fc30ea4d78c233eca72c1ed58d0d62424e09f0951e608060405160408152600e60408201526d4d696e5469636b53706163696e6760901b60608201528560020b6020820152a17f0f5d2cd60f752ff8ca00b1fc30ea4d78c233eca72c1ed58d0d62424e09f0951e608060405160408152600e60408201526d4d61785469636b53706163696e6760901b6060820152868060020b620d89e8050260020b6020820152a18b8360020b1260001462001b1357600283900b600160ff1b1462001636578260020b8c035b620d89e8811162001aea578c91600182161562001ad7576001600160881b036ffffcb933bd6fad37aa2d162d1a5940015b16916002811662001aa3575b6004811662001a6f575b6008811662001a3b575b6010811662001a07575b60208116620019d3575b604081166200199f575b608081166200196b575b610100811662001937575b610200811662001903575b6104008116620018cf575b61080081166200189b575b611000811662001867575b612000811662001833575b6140008116620017ff575b6180008116620017cb575b62010000811662001797575b62020000811662001764575b6204000081166200171e575b6208000016620016dc575b828560020b13620016b1575b60008051602062003b7f833981519152608060405160408152600c60408201526b39b8b93a283934b1b2ac1c9b60a11b606082015260018060a01b038860020b151560e01b63ffffffff870160201c17166020820152a160008051602062003b7f833981519152608060405160408152601160408201527010dc99585d1a5b99c81b995dc81c1bdbdb607a1b6060820152856020820152a160208d606460018060a01b036002541686604051958694859363a167129560e01b855260048501526024840152610bb860448401525af183918162001666575b50620009cd578262000878620023e4565b6308c379a01462000890575b604051903d90823e3d90fd5b6200089a62002403565b80620008a7575062000884565b60025482906001600160a01b0316803b15620009be578190602460405180948193632e1a7d4d60e01b83523460048401525af18015620009c257620009a6575b5060008051602062003b7f8339815191526080620009a29360405190604082526014604083015273141bdbdb0818dc99585d1a5bdb8819985a5b195960621b60608301526020820152a162000981603660405180937502837b7b61031b932b0ba34b7b7103330b4b632b21d160551b602083015262000970815180926020868601910162002316565b81010360168101845201826200226c565b60405162461bcd60e51b81526020600482015291829160248301906200233b565b0390fd5b620009b2839162002258565b620009be5782620008e7565b5080fd5b6040513d85823e3d90fd5b9060008051602062003b7f833981519152608060405160408152601c60408201527f506f6f6c206372656174656420616e6420696e697469616c697a6564000000006060820152856020820152a160008051602062003b7f8339815191526080604051604081526012604082015271024b734ba34b0b634bd34b733903837b7b6160751b6060820152856020820152a16001600160a01b0382163b15620016295760405163f637731d60e01b815263ffffffff90910160201c600286900b151560e01b176001600160a01b0390811660048301529092918291849160249183918591165af191826200164a575b505062000c06578a62000acc620023e4565b6308c379a01462000b2b575b60008051602062003b7f8339815191529060405180916040825262000b006040830162002477565b9060208301520390a160405162461bcd60e51b81526020600482015280620009a26024820162002477565b62000b3562002403565b8062000b42575062000ad8565b62000981603c620009a2936040519060008051602062003b7f83398151915262000bd07f506f6f6c20696e697469616c697a6174696f6e206661696c65643a20000000009384602082015287519362000bbb878360208c019762000baa818484018b62002316565b810103601c8101855201836200226c565b6040519283926040845260408401906200233b565b9060208301520390a162000bf560405195869360208501525180928585019062002316565b810103601c8101845201826200226c565b60008051602062003b7f833981519152608060405160408152601060408201526f141bdbdb081a5b9a5d1a585b1a5e995960821b60608201528d6020820152a160008051602062003b7f833981519152608060405160408152601a60408201527f4d696e74696e67206c697175696469747920706f736974696f6e0000000000006060820152346020820152a16002546001600160a01b0316904261012c810110620016365760405193846101608101106001600160401b0361016087011117620015005760008051602062003b7f8339815191529360a093610160870160405286528c6020870152610bb8604087015260020b60608601528060020b620d89e8050260020b608085015234828501528060c08501528b60e08501528b6101008501523061012085015261012c42016101408501526040519060408252602260408301527f4d696e74696e6720706f736974696f6e207769746820746f6b656e20616d6f756060830152611b9d60f21b60808301526020820152a16004805460408051634418b22b60e11b815284516001600160a01b03908116948201949094526020850151841660248201529084015162ffffff1660448201526060840151600290810b606483015260808086015190910b608483015260a085015160a483015260c085015160c483015260e085015160e4830152610100850151610104830152610120850151841661012483015261014090940151610144820152928b92909184916101649183918691165af1818183948493620015c9575b5062000f77578262000e52620023e4565b6308c379a01462000eb1575b60008051602062003b7f8339815191529060405180916040825262000e8660408301620024bd565b9060208301520390a160405162461bcd60e51b81526020600482015280620009a260248201620024bd565b62000ebb62002403565b8062000ec8575062000e5e565b620009816039620009a2936040519060008051602062003b7f83398151915262000f417f506f736974696f6e206d696e74696e67206661696c65643a20000000000000009384602082015287519362000bbb878360208c019762000f30818484018b62002316565b81010360198101855201836200226c565b9060208301520390a162000f6660405195869360208501525180928585019062002316565b81010360198101845201826200226c565b929060008051602062003b7f833981519152608060405160408152601f60408201527f5472616e7366657272696e67204e465420746f20746f6b656e206f776e6572006060820152856020820152a16004546001600160a01b0316803b156200153d57604051632142170760e11b81523060048201526001600160a01b038816602482015260448101869052939081908590606490829084905af1938415620015bc578c946200159b575b50507f64b83944e79c3ce8d4c297411de637c3e102d064677aac0c163976ebdcd6f50e916060916040519186835260208301526040820152a26040516370a0823160e01b81523060048201526020816024818c5afa90811562001590578a9162001557575b50608060008051602062003b7f833981519152916040519060408252601960408301527f52656d61696e696e6720746f6b656e73206166746572204c500000000000000060608301526020820152a160008051602062003b7f833981519152608060405160408152601f60408201527f496e697469616c697a696e6720706f736974696f6e20696e206c6f636b65720060608201528b6020820152a160018060a01b0360055416600954916001600160401b0383164201421162001541578a92823b156200153d57608484928361ffff9560405196879586946322614fd560e21b8652600486015260018060a01b038c1660248601526001600160401b03808216420116604486015260401c1660648401525af18015620015325762001516575b50507f71367ae73260b1c5a8e707d05a95834f62c68d3275284ce234e59a685fa7dc2993620011e99160405194859460018060a01b03169830988662002362565b0390a360008051602062003b7f833981519152608060405160408152601a60408201527f52656d61696e696e672066756e647320666f7220746f6b656e730000000000006060820152346020820152a1346200124b575b602090604051908152f35b60008051602062003b7f83398151915260806040516040815260146040820152730457865637574696e6720746f6b656e20737761760641b6060820152846020820152a160025460405192906001600160a01b03166001600160401b0360e0850190811190851117620015005760e0840160409081529084526020808501848152610bb88387019081523360608801908152346080890181815260a08a0188815260c08b0189815260065498516304e45aaf60e01b81529b516001600160a01b0390811660048e01529651871660248d0152945162ffffff1660448c01529251851660648b01525160848a0152905160a48901529051821660c48801529192869260e4928492165af1808291620014c0575b60209450620014795750600162001373620023e4565b6308c379a014620013e0575b6200138c575b5062001240565b608060008051602062003b7f833981519152916040519060408252601e60408301527f53776170206661696c6564207769746820756e6b6e6f776e206572726f720000606083015285820152a13862001385565b620013ea62002403565b80620013f8575b506200137f565b905060008051602062003b7f8339815191526200146a839262001455602d60405180936c029bbb0b8103330b4b632b21d1609d1b8b83015262001444815180928d868601910162002316565b810103600d8101845201826200226c565b6040519182916040835260408301906200233b565b85888301520390a138620013f1565b60008051602062003b7f83398151915291506080906040519060408252600f60408301526e14ddd85c08185b5bdd5b9d081bdd5d608a1b606083015285820152a162001240565b90506020843d602011620014f7575b81620014de602093836200226c565b81010312620014f25760209351906200135d565b600080fd5b3d9150620014cf565b634e487b7160e01b600052604160045260246000fd5b620015219062002258565b6200152e578738620011a8565b8780fd5b6040513d84823e3d90fd5b8380fd5b634e487b7160e01b600052601160045260246000fd5b90506020813d60201162001587575b8162001575602093836200226c565b81010312620014f25751608062001087565b3d915062001566565b6040513d8c823e3d90fd5b620015a99192945062002258565b620015b85789918b3862001022565b8a80fd5b50604051903d90823e3d90fd5b94509150506080833d6080116200162d575b81620015ea608093836200226c565b81010312620009be5782519260208101516fffffffffffffffffffffffffffffffff811603620016295760606040820151910151939093913862000e41565b8280fd5b3d9150620015db565b634e487b7160e01b8c52601160045260248cfd5b620016559062002258565b62001662578b3862000aba565b8b80fd5b9091506020813d602011620016a8575b8162001685602093836200226c565b810103126200153d57516001600160a01b03811681036200153d57903862000867565b3d915062001676565b91508015620016c857908c9160001904906200078f565b634e487b7160e01b8d52601260045260248dfd5b91506b048a170391f7dc42444e8fa29080828102048214811517156200170a578d92910260801c9062000783565b634e487b7160e01b8e52601160045260248efd5b9250906d2216e584f5fa1ea926041bedfe9890808281020482148115171562001750578e93910260801c919062000778565b634e487b7160e01b8f52601160045260248ffd5b9250906e5d6af8dedb81196699c329225ee60490808281020482148115171562001750578e93910260801c91906200076c565b9250906f09aa508b5b7a84e1c677de54f3e99bc990808281020482148115171562001750578e93910260801c919062000760565b9250906f31be135f97d08fd981231505542fcfa690808281020482148115171562001750578e93910260801c919062000754565b9250906f70d869a156d2a1b890bb3df62baf32f790808281020482148115171562001750578e93910260801c919062000749565b9250906fa9f746462d870fdf8a65dc1f90e061e590808281020482148115171562001750578e93910260801c91906200073e565b9250906fd097f3bdfd2022b8845ad8f792aa582590808281020482148115171562001750578e93910260801c919062000733565b9250906fe7159475a2c29b7443b29c7fa6e889d990808281020482148115171562001750578e93910260801c919062000728565b9250906ff3392b0822b70005940c7a398e4b70f390808281020482148115171562001750578e93910260801c91906200071d565b9250906ff987a7253ac413176f2b074cf7815e5490808281020482148115171562001750578e93910260801c919062000712565b9250906ffcbe86c7900a88aedcffc83b479aa3a490808281020482148115171562001750578e93910260801c919062000707565b9250906ffe5dee046a99a2a811c461f1969c305390808281020482148115171562001750578e93910260801c9190620006fc565b9250906fff2ea16466c96a3843ec78b326b5286190808281020482148115171562001750578e93910260801c9190620006f2565b9250906fff973b41fa98c081472e6896dfb254c090808281020482148115171562001750578e93910260801c9190620006e8565b9250906fffcb9843d60f6159c9db58835c92664490808281020482148115171562001750578e93910260801c9190620006de565b9250906fffe5caca7e10e4e61c3624eaa0941cd090808281020482148115171562001750578e93910260801c9190620006d4565b9250906ffff2e50f5f656932ef12357cf3c7fdcc90808281020482148115171562001750578e93910260801c9190620006ca565b9250906ffff97272373d413259a46990580e213a90808281020482148115171562001750578e93910260801c9190620006c0565b6001600160881b03600160801b620006b4565b60405162461bcd60e51b81526020600482015260016024820152601560fa1b6044820152606490fd5b8260020b62000683565b634e487b7160e01b8b52601260045260248bfd5b9092506020813d60201162001b6d575b8162001b50602093836200226c565b81010312620015b857518060020b8103620015b857913862000538565b3d915062001b41565b6040513d8d823e3d90fd5b60405162461bcd60e51b815260206004820152601460248201527315d1551208185c1c1c9bdd985b0819985a5b195960621b6044820152606490fd5b62001be4915060203d60201162001beb575b62001bdb81836200226c565b810190620023ca565b38620004f3565b503d62001bcf565b62001c019099919962002258565b9738620004a5565b80fd5b60405162461bcd60e51b815260206004820152600f60248201526e105c1c1c9bdd985b0819985a5b1959608a1b6044820152606490fd5b62001c60915060203d60201162001beb5762001bdb81836200226c565b3862000463565b90506020813d60201162001c9a575b8162001c85602093836200226c565b8101031262001c9657513862000374565b8880fd5b3d915062001c76565b6040513d8b823e3d90fd5b634e487b7160e01b89526041600452602489fd5b6040513d89823e3d90fd5b634e487b7160e01b88526041600452602488fd5b60405162461bcd60e51b815260206004820152601360248201527224b73b30b634b2103a37b5b2b71037bbb732b960691b6044820152606490fd5b60405162461bcd60e51b815260206004820152602260248201527f546f6b656e20616c72656164792065786973747320666f72207468697320757360448201526132b960f11b6064820152608490fd5b8680fd5b8580fd5b8480fd5b503462001c0957602036600319011262001c095762001d96620021f3565b62001da0620022e9565b6001600160a01b0390811690811562001dec5782546001600160a01b0319811683178455167f8be0079c531659141344cd1fd0a4f28419497f9722a3daafe3b4186f6b6457e08380a380f35b604051631e4fbdf760e01b815260048101849052602490fd5b503462001c09578060031936011262001c095762001e22620022e9565b47801562001e4857815482918291829182916001600160a01b031682f115620008845780f35b60405162461bcd60e51b81526020600482015260126024820152714e6f2045544820746f20776974686472617760701b6044820152606490fd5b503462001c09578060031936011262001c0957602060ff60095460501c16604051908152f35b503462001c09578060031936011262001c095760206001600160401b0360095416604051908152f35b503462001c09578060031936011262001c09576006546040516001600160a01b039091168152602090f35b503462001c09578060031936011262001c0957546040516001600160a01b039091168152602090f35b503462001c09578060031936011262001c09576004546040516001600160a01b039091168152602090f35b503462001c09578060031936011262001c095762001f6d620022e9565b80546001600160a01b03198116825581906001600160a01b03167f8be0079c531659141344cd1fd0a4f28419497f9722a3daafe3b4186f6b6457e08280a380f35b503462001c0957602036600319011262001c09576004359060085482101562001c0957602062001fde836200220a565b905460405160039290921b1c6001600160a01b03168152f35b503462001c09578060031936011262001c09576003546040516001600160a01b039091168152602090f35b503462001c09578060031936011262001c0957602061ffff60095460401c16604051908152f35b503462001c09578060031936011262001c09576020604051610bb88152f35b503462001c09578060031936011262001c09576002546040516001600160a01b039091168152602090f35b503462001c09578060031936011262001c09576001546040516001600160a01b039091168152602090f35b503462001c09578060031936011262001c095760405180916008549081835260208093018092600883527ff3f7a9fe364faab93b216da50a3214154f22a0a2b415b23a84c8169e8b636ee390835b8181106200216e5750505084620021259103856200226c565b60405193838594850191818652518092526040850193925b8281106200214d57505050500390f35b83516001600160a01b0316855286955093810193928101926001016200213d565b82546001600160a01b0316845292860192600192830192016200210c565b503462001c0957602036600319011262001c09576020906001600160a01b039060409082620021ba620021f3565b16815260078452205416604051908152f35b905034620009be5781600319360112620009be576005546001600160a01b03168152602090f35b600435906001600160a01b0382168203620014f257565b600854811015620022425760086000527ff3f7a9fe364faab93b216da50a3214154f22a0a2b415b23a84c8169e8b636ee30190600090565b634e487b7160e01b600052603260045260246000fd5b6001600160401b0381116200150057604052565b90601f801991011681019081106001600160401b038211176200150057604052565b81601f82011215620014f2578035906001600160401b038211620015005760405192620022c6601f8401601f1916602001856200226c565b82845260208383010111620014f257816000926020809301838601378301015290565b6000546001600160a01b03163303620022fe57565b60405163118cdaa760e01b8152336004820152602490fd5b60005b8381106200232a5750506000910152565b818101518382015260200162002319565b90602091620023568151809281855285808601910162002316565b601f01601f1916010190565b9390620023c795936200239a620023b8946200238b620023a99460a08a5260a08a01906200233b565b9088820360208a01526200233b565b9086820360408801526200233b565b9084820360608601526200233b565b9160808184039101526200233b565b90565b90816020910312620014f257518015158103620014f25790565b60009060033d11620023f257565b905060046000803e60005160e01c90565b600060443d10620023c757604051600319913d83016004833e81516001600160401b03918282113d60248401111762002466578184019485519384116200246e573d85010160208487010111620024665750620023c7929101602001906200226c565b949350505050565b50949350505050565b602d81527f506f6f6c20696e697469616c697a6174696f6e206661696c656420776974682060208201526c3ab735b737bbb71032b93937b960991b604082015260600190565b602a81527f506f736974696f6e206d696e74696e67206661696c6564207769746820756e6b6020820152693737bbb71032b93937b960b11b60408201526060019056fe60406080815234620009f1576200167e803803806200001e81620009f6565b928339810160a082820312620009f15781516001600160401b038111620009f157816200004d91840162000a41565b60208301519091906001600160401b038111620009f157816200007291850162000a41565b838501516001600160401b038111620009f157826200009391860162000a41565b60608501519094906001600160401b038111620009f15783620000b891830162000a41565b60808201519093906001600160401b038111620009f157620000db920162000a41565b835190936001600160401b038211620005a15760035490600182811c92168015620009e6575b6020831014620005805781601f84931162000971575b50602090601f8311600114620008e657600092620008da575b50508160011b916000199060031b1c1916176003555b8051906001600160401b038211620005a15760045490600182811c92168015620008cf575b6020831014620005805781601f8493116200085a575b50602090601f8311600114620007cf57600092620007c3575b50508160011b916000199060031b1c1916176004555b3315620007ab5760058054336001600160a01b0319821681179092556001600160a01b03167f8be0079c531659141344cd1fd0a4f28419497f9722a3daafe3b4186f6b6457e0600080a36002546b033b2e3c9fd0803ce80000009081810180911162000795577f3c5ad147104e56be34a9176a6692f7df8d2f4b29a5af06bc6b98970d329d65779160809160025533600052600060205286600020818154019055865181815260007fddf252ad1be2c89b69c2b068fc378daa952ba7f163c4a11628f55a4df523b3ef60203393a38651908782526015888301527f4d696e74656420696e697469616c20737570706c79000000000000000000000060608301526020820152a18351606081016001600160401b03811182821017620005a15785528381526020810182815290850183815284519091906001600160401b038111620005a157600654600181811c911680156200078a575b60208210146200058057601f811162000731575b50806020601f8211600114620006b857600091620006ac575b508160011b916000199060031b1c1916176006555b518051906001600160401b038211620005a15760075490600182811c92168015620006a1575b6020831014620005805781601f8493116200063d575b50602090601f8311600114620005c357600092620005b7575b50508160011b916000199060031b1c1916176007555b518051906001600160401b038211620005a157600854600181811c9116801562000596575b60208210146200058057601f811162000527575b50602090601f83116001146200048d57600080516020620015fe8339815191529593836200047094620004539794620004629460009262000481575b50508160011b916000199060031b1c1916176008555b875195869560608752606087019062000a98565b90858203602087015262000a98565b908382038785015262000a98565b0390a151610b3e908162000ac08239f35b01519050388062000429565b600860009081526000805160206200163e833981519152929190601f198516905b8181106200050e5750846200045397946200046294600080516020620015fe8339815191529a9894620004709860019510620004f4575b505050811b016008556200043f565b015160001960f88460031b161c19169055388080620004e5565b92936020600181928786015181550195019301620004ae565b60086000526000805160206200163e833981519152601f840160051c8101916020851062000575575b601f0160051c01905b818110620005685750620003ed565b6000815560010162000559565b909150819062000550565b634e487b7160e01b600052602260045260246000fd5b90607f1690620003d9565b634e487b7160e01b600052604160045260246000fd5b0151905038806200039e565b600760009081526000805160206200161e8339815191529350601f198516905b8181106200062457509084600195949392106200060a575b505050811b01600755620003b4565b015160001960f88460031b161c19169055388080620005fb565b92936020600181928786015181550195019301620005e3565b60076000529091506000805160206200161e833981519152601f840160051c8101916020851062000696575b90601f859493920160051c01905b81811062000686575062000385565b6000815584935060010162000677565b909150819062000669565b91607f16916200036f565b90508601513862000334565b6006600090815292506000805160206200165e833981519152905b601f198316841062000718576001935082601f19811610620006fe575b5050811b0160065562000349565b88015160001960f88460031b161c191690553880620006f0565b88810151825560209384019360019092019101620006d3565b60066000526000805160206200165e833981519152601f830160051c810191602084106200077f575b601f0160051c01905b8181106200077257506200031b565b6000815560010162000763565b90915081906200075a565b90607f169062000307565b634e487b7160e01b600052601160045260246000fd5b8351631e4fbdf760e01b815260006004820152602490fd5b0151905038806200019a565b600460009081527f8a35acfbc15ff81a39ae7d344fd709f28e8600b4aa8c65c6b64bfe7fe36bd19b9350601f198516905b81811062000841575090846001959493921062000827575b505050811b01600455620001b0565b015160001960f88460031b161c1916905538808062000818565b9293602060018192878601518155019501930162000800565b60046000529091507f8a35acfbc15ff81a39ae7d344fd709f28e8600b4aa8c65c6b64bfe7fe36bd19b601f840160051c81019160208510620008c4575b90601f859493920160051c01905b818110620008b4575062000181565b60008155849350600101620008a5565b909150819062000897565b91607f16916200016b565b01519050388062000130565b600360009081527fc2575a0e9e593c00f959f8c92f12db2869c3395a3b0502d05e2516446f71f85b9350601f198516905b8181106200095857509084600195949392106200093e575b505050811b0160035562000146565b015160001960f88460031b161c191690553880806200092f565b9293602060018192878601518155019501930162000917565b60036000529091507fc2575a0e9e593c00f959f8c92f12db2869c3395a3b0502d05e2516446f71f85b601f840160051c81019160208510620009db575b90601f859493920160051c01905b818110620009cb575062000117565b60008155849350600101620009bc565b9091508190620009ae565b91607f169162000101565b600080fd5b6040519190601f01601f191682016001600160401b03811183821017620005a157604052565b60005b83811062000a305750506000910152565b818101518382015260200162000a1f565b81601f82011215620009f15780516001600160401b038111620005a15762000a73601f8201601f1916602001620009f6565b9281845260208284010111620009f15762000a95916020808501910162000a1c565b90565b9060209162000ab38151809281855285808601910162000a1c565b601f01601f191601019056fe60806040818152600480361015610021575b505050361561001f57600080fd5b005b600092833560e01c90816306fdde03146105ce57508063095ea7b31461052557806318160ddd1461050657806323b872dd14610413578063313ce567146103f757806370a08231146103c0578063715018a6146103635780638da5cb5b1461033a57806393427cd5146101d457806395d89b4114610215578063a8fb7d40146101d4578063a9059cbb146101a3578063dd62ed3e146101565763f2fde38b036100115734610152576020366003190112610152576100dd61070c565b906100e66109fe565b6001600160a01b0391821692831561013c575050600554826bffffffffffffffffffffffff60a01b821617600555167f8be0079c531659141344cd1fd0a4f28419497f9722a3daafe3b4186f6b6457e08380a380f35b51631e4fbdf760e01b8152908101849052602490fd5b8280fd5b50503461019f578060031936011261019f578060209261017461070c565b61017c610727565b6001600160a01b0391821683526001865283832091168252845220549051908152f35b5080fd5b50503461019f578060031936011261019f576020906101cd6101c361070c565b6024359033610a2a565b5160018152f35b828434610212578060031936011261021257506101ef610777565b61020e6101fa61087e565b9261020361093e565b90519384938461073d565b0390f35b80fd5b5091903461019f578160031936011261019f578051908290845491600183811c90808516948515610330575b602095868410811461031d5783885290869082156103015750506001146102ad575b5050839003601f01601f191683019367ffffffffffffffff85118486101761029a57509161020e91848094528084528301906106cc565b634e487b7160e01b815260418652602490fd5b8787528492508691907f8a35acfbc15ff81a39ae7d344fd709f28e8600b4aa8c65c6b64bfe7fe36bd19b5b8284106102ec575050508401013880610263565b805488850186015286949093019281016102d8565b925093505060ff191682860152151560051b8401013880610263565b634e487b7160e01b895260228a52602489fd5b91607f1691610241565b50503461019f578160031936011261019f5760055490516001600160a01b039091168152602090f35b833461021257806003193601126102125761037c6109fe565b600580546001600160a01b0319811690915581906001600160a01b03167f8be0079c531659141344cd1fd0a4f28419497f9722a3daafe3b4186f6b6457e08280a380f35b50503461019f57602036600319011261019f5760209181906001600160a01b036103e861070c565b16815280845220549051908152f35b50503461019f578160031936011261019f576020905160128152f35b5082346102125760603660031901126102125761042e61070c565b610436610727565b916044359360018060a01b038316808352600160205286832033845260205286832054916000198310610472575b6020886101cd898989610a2a565b8683106104da5781156104c35733156104ac575082526001602090815286832033845281529186902090859003905582906101cd87610464565b8751634a1406b160e11b8152908101849052602490fd5b875163e602df0560e01b8152908101849052602490fd5b8751637dc7a0d960e11b8152339181019182526020820193909352604081018790528291506060010390fd5b50503461019f578160031936011261019f576020906002549051908152f35b503461015257816003193601126101525761053e61070c565b6024359033156105b7576001600160a01b03169182156105a057508083602095338152600187528181208582528752205582519081527f8c5be1e5ebec7d5bd14f71427d1e84f3dd0314c0f7b2291e5b200ac8c7c3b925843392a35160018152f35b8351634a1406b160e11b8152908101859052602490fd5b835163e602df0560e01b8152808401869052602490fd5b8491508334610152578260031936011261015257829060035491600183811c908085169485156106c2575b602095868410811461031d5783885290869082156106a6575050600114610651575050839003601f01601f191683019367ffffffffffffffff85118486101761029a57509161020e91848094528084528301906106cc565b600387528492508691907fc2575a0e9e593c00f959f8c92f12db2869c3395a3b0502d05e2516446f71f85b5b828410610691575050508401018680610263565b8054888501860152869490930192810161067d565b925093505060ff191682860152151560051b8401018680610263565b91607f16916105f9565b919082519283825260005b8481106106f8575050826000602080949584010152601f8019910116010190565b6020818301810151848301820152016106d7565b600435906001600160a01b038216820361072257565b600080fd5b602435906001600160a01b038216820361072257565b916107669061075861077495936060865260608601906106cc565b9084820360208601526106cc565b9160408184039101526106cc565b90565b604051906000600654600181811c90808316928315610874575b60209384841081146108605783885290811561084457506001146107ed575b505050829003601f01601f1916820167ffffffffffffffff8111838210176107d757604052565b634e487b7160e01b600052604160045260246000fd5b60066000908152929350837ff652222313e28459528d920b65115c16c04f3efc82aaedc97be59f3f377c0d3f5b83851061083057505050508301013880806107b0565b80548886018301529301928490820161081a565b60ff1916878501525050151560051b84010190503880806107b0565b634e487b7160e01b86526022600452602486fd5b91607f1691610791565b604051906000600754600181811c90808316928315610934575b60209384841081146108605783885290811561084457506001146108dd57505050829003601f01601f1916820167ffffffffffffffff8111838210176107d757604052565b60076000908152929350837fa66cc928b5edb82af9bd49922954155ab7b0942694bea4ce44661d9a8736c6885b83851061092057505050508301013880806107b0565b80548886018301529301928490820161090a565b91607f1691610898565b604051906000600854600181811c908083169283156109f4575b602093848410811461086057838852908115610844575060011461099d57505050829003601f01601f1916820167ffffffffffffffff8111838210176107d757604052565b60086000908152929350837ff3f7a9fe364faab93b216da50a3214154f22a0a2b415b23a84c8169e8b636ee35b8385106109e057505050508301013880806107b0565b8054888601830152930192849082016109ca565b91607f1691610958565b6005546001600160a01b03163303610a1257565b60405163118cdaa760e01b8152336004820152602490fd5b916001600160a01b03808416928315610aef5716928315610ad65760009083825281602052604082205490838210610aa4575091604082827fddf252ad1be2c89b69c2b068fc378daa952ba7f163c4a11628f55a4df523b3ef958760209652828652038282205586815220818154019055604051908152a3565b60405163391434e360e21b81526001600160a01b03919091166004820152602481019190915260448101839052606490fd5b60405163ec442f0560e01b815260006004820152602490fd5b604051634b637e8f60e11b815260006004820152602490fdfea264697066735822122056ee7f86fa7923ed21e00486a8d703fadedc51e204233ac7d111fddf8c04c0b464736f6c6343000814003341105f733c92e731673db8d7877f039f0cce3bc6436d38e5c37bce47f2a4b149a66cc928b5edb82af9bd49922954155ab7b0942694bea4ce44661d9a8736c688f3f7a9fe364faab93b216da50a3214154f22a0a2b415b23a84c8169e8b636ee3f652222313e28459528d920b65115c16c04f3efc82aaedc97be59f3f377c0d3f3c5ad147104e56be34a9176a6692f7df8d2f4b29a5af06bc6b98970d329d6577a2646970667358221220961b810a47455e49f86e140397459619a486ad13ea5da140aeb8320a20b514f964736f6c63430008140033",
          "opcodes": "PUSH1 0x80 CALLVALUE PUSH3 0x29F JUMPI PUSH1 0x1F PUSH3 0x3EA4 CODESIZE DUP2 SWAP1 SUB SWAP2 DUP3 ADD PUSH1 0x1F NOT AND DUP4 ADD SWAP3 SWAP2 SWAP1 PUSH1 0x1 PUSH1 0x1 PUSH1 0x40 SHL SUB DUP5 GT DUP4 DUP6 LT OR PUSH3 0x2A4 JUMPI DUP2 PUSH1 0xC0 SWAP3 DUP5 SWAP3 PUSH1 0x40 SWAP7 DUP8 MSTORE DUP4 CODECOPY DUP2 ADD SUB SLT PUSH3 0x29F JUMPI PUSH3 0x51 DUP2 PUSH3 0x2BA JUMP JUMPDEST SWAP1 PUSH1 0x20 SWAP2 PUSH3 0x62 DUP4 DUP4 ADD PUSH3 0x2BA JUMP JUMPDEST SWAP2 PUSH3 0x70 DUP6 DUP3 ADD PUSH3 0x2BA JUMP JUMPDEST PUSH3 0x7E PUSH1 0x60 DUP4 ADD PUSH3 0x2BA JUMP JUMPDEST SWAP1 PUSH3 0x9B PUSH1 0xA0 PUSH3 0x93 PUSH1 0x80 DUP7 ADD PUSH3 0x2BA JUMP JUMPDEST SWAP5 ADD PUSH3 0x2BA JUMP JUMPDEST SWAP2 CALLER ISZERO PUSH3 0x287 JUMPI PUSH1 0x0 SLOAD PUSH1 0x1 DUP1 PUSH1 0xA0 SHL SUB NOT SWAP7 CALLER DUP9 DUP4 AND OR PUSH1 0x0 SSTORE DUP10 MLOAD SWAP2 PUSH1 0x1 DUP1 PUSH1 0xA0 SHL SUB SWAP8 DUP9 SWAP2 DUP3 CALLER SWAP2 AND PUSH32 0x8BE0079C531659141344CD1FD0A4F28419497F9722A3DAAFE3B4186F6B6457E0 PUSH1 0x0 DUP1 LOG3 PUSH1 0x9 DUP1 SLOAD PUSH1 0x1 PUSH1 0x1 PUSH1 0x58 SHL SUB NOT AND PUSH10 0x1F40000000001E18558 OR SWAP1 SSTORE AND SWAP2 DUP3 ISZERO PUSH3 0x245 JUMPI POP DUP7 AND SWAP3 DUP4 ISZERO PUSH3 0x203 JUMPI DUP7 AND SWAP2 DUP3 ISZERO PUSH3 0x1BF JUMPI DUP7 AND SWAP8 DUP9 ISZERO PUSH3 0x17C JUMPI POP SWAP1 DUP6 SWAP4 SWAP3 SWAP2 DUP8 PUSH1 0x1 SLOAD AND OR PUSH1 0x1 SSTORE DUP7 PUSH1 0x3 SLOAD AND OR PUSH1 0x3 SSTORE DUP6 PUSH1 0x4 SLOAD AND OR PUSH1 0x4 SSTORE AND DUP4 PUSH1 0x5 SLOAD AND OR PUSH1 0x5 SSTORE AND DUP2 PUSH1 0x6 SLOAD AND OR PUSH1 0x6 SSTORE PUSH1 0x2 SLOAD AND OR PUSH1 0x2 SSTORE MLOAD PUSH2 0x3BD4 SWAP1 DUP2 PUSH3 0x2D0 DUP3 CODECOPY RETURN JUMPDEST PUSH1 0x64 SWAP1 DUP11 MLOAD SWAP1 PUSH3 0x461BCD PUSH1 0xE5 SHL DUP3 MSTORE PUSH1 0x4 DUP3 ADD MSTORE PUSH1 0x14 PUSH1 0x24 DUP3 ADD MSTORE PUSH32 0x496E76616C696420574554482061646472657373000000000000000000000000 PUSH1 0x44 DUP3 ADD MSTORE REVERT JUMPDEST DUP10 MLOAD PUSH3 0x461BCD PUSH1 0xE5 SHL DUP2 MSTORE PUSH1 0x4 DUP2 ADD DUP11 SWAP1 MSTORE PUSH1 0x17 PUSH1 0x24 DUP3 ADD MSTORE PUSH32 0x496E76616C696420666163746F72792061646472657373000000000000000000 PUSH1 0x44 DUP3 ADD MSTORE PUSH1 0x64 SWAP1 REVERT JUMPDEST PUSH1 0x64 DUP10 DUP12 MLOAD SWAP1 PUSH3 0x461BCD PUSH1 0xE5 SHL DUP3 MSTORE DUP1 PUSH1 0x4 DUP4 ADD MSTORE PUSH1 0x24 DUP3 ADD MSTORE PUSH32 0x496E76616C696420706F736974696F6E206D616E616765722061646472657373 PUSH1 0x44 DUP3 ADD MSTORE REVERT JUMPDEST PUSH3 0x461BCD PUSH1 0xE5 SHL DUP2 MSTORE PUSH1 0x4 DUP2 ADD DUP11 SWAP1 MSTORE PUSH1 0x13 PUSH1 0x24 DUP3 ADD MSTORE PUSH32 0x496E76616C696420646576206164647265737300000000000000000000000000 PUSH1 0x44 DUP3 ADD MSTORE PUSH1 0x64 SWAP1 REVERT JUMPDEST DUP8 MLOAD PUSH4 0x1E4FBDF7 PUSH1 0xE0 SHL DUP2 MSTORE PUSH1 0x0 PUSH1 0x4 DUP3 ADD MSTORE PUSH1 0x24 SWAP1 REVERT JUMPDEST PUSH1 0x0 DUP1 REVERT JUMPDEST PUSH4 0x4E487B71 PUSH1 0xE0 SHL PUSH1 0x0 MSTORE PUSH1 0x41 PUSH1 0x4 MSTORE PUSH1 0x24 PUSH1 0x0 REVERT JUMPDEST MLOAD SWAP1 PUSH1 0x1 PUSH1 0x1 PUSH1 0xA0 SHL SUB DUP3 AND DUP3 SUB PUSH3 0x29F JUMPI JUMP INVALID PUSH1 0x80 DUP1 PUSH1 0x40 MSTORE PUSH1 0x4 CALLDATASIZE LT ISZERO PUSH3 0x1F JUMPI JUMPDEST POP CALLDATASIZE ISZERO PUSH3 0x1D JUMPI PUSH1 0x0 DUP1 REVERT JUMPDEST STOP JUMPDEST PUSH1 0x0 SWAP1 DUP2 CALLDATALOAD PUSH1 0xE0 SHR SWAP1 DUP2 PUSH4 0x3FC2013 EQ PUSH3 0x21CC JUMPI POP DUP1 PUSH4 0x28D249FE EQ PUSH3 0x218C JUMPI DUP1 PUSH4 0x2A5C792A EQ PUSH3 0x20BE JUMPI DUP1 PUSH4 0x3AD10EF6 EQ PUSH3 0x2093 JUMPI DUP1 PUSH4 0x3FC8CEF3 EQ PUSH3 0x2068 JUMPI DUP1 PUSH4 0x4C69A6C9 EQ PUSH3 0x2049 JUMPI DUP1 PUSH4 0x57AA0201 EQ PUSH3 0x2022 JUMPI DUP1 PUSH4 0x5B549182 EQ PUSH3 0x1FF7 JUMPI DUP1 PUSH4 0x634282AF EQ PUSH3 0x1FAE JUMPI DUP1 PUSH4 0x715018A6 EQ PUSH3 0x1F50 JUMPI DUP1 PUSH4 0x791B98BC EQ PUSH3 0x1F25 JUMPI DUP1 PUSH4 0x8DA5CB5B EQ PUSH3 0x1EFC JUMPI DUP1 PUSH4 0xC31C9C07 EQ PUSH3 0x1ED1 JUMPI DUP1 PUSH4 0xD406D751 EQ PUSH3 0x1EA8 JUMPI DUP1 PUSH4 0xDE04F42E EQ PUSH3 0x1E82 JUMPI DUP1 PUSH4 0xE086E5EC EQ PUSH3 0x1E05 JUMPI DUP1 PUSH4 0xF2FDE38B EQ PUSH3 0x1D78 JUMPI PUSH4 0xFE658A17 SUB PUSH3 0x10 JUMPI PUSH1 0xC0 CALLDATASIZE PUSH1 0x3 NOT ADD SLT PUSH3 0x1C09 JUMPI PUSH1 0x4 CALLDATALOAD PUSH1 0x1 PUSH1 0x1 PUSH1 0x40 SHL SUB DUP2 GT PUSH3 0x9BE JUMPI PUSH3 0x12F SWAP1 CALLDATASIZE SWAP1 PUSH1 0x4 ADD PUSH3 0x228E JUMP JUMPDEST PUSH1 0x24 CALLDATALOAD PUSH1 0x1 PUSH1 0x1 PUSH1 0x40 SHL SUB DUP2 GT PUSH3 0x1629 JUMPI PUSH3 0x151 SWAP1 CALLDATASIZE SWAP1 PUSH1 0x4 ADD PUSH3 0x228E JUMP JUMPDEST PUSH1 0x44 CALLDATALOAD SWAP2 PUSH1 0x1 PUSH1 0x1 PUSH1 0xA0 SHL SUB DUP4 AND DUP4 SUB PUSH3 0x153D JUMPI PUSH1 0x64 CALLDATALOAD PUSH1 0x1 PUSH1 0x1 PUSH1 0x40 SHL SUB DUP2 GT PUSH3 0x1D74 JUMPI PUSH3 0x188 SWAP1 CALLDATASIZE SWAP1 PUSH1 0x4 ADD PUSH3 0x228E JUMP JUMPDEST SWAP3 PUSH1 0x84 CALLDATALOAD PUSH1 0x1 PUSH1 0x1 PUSH1 0x40 SHL SUB DUP2 GT PUSH3 0x1D70 JUMPI PUSH3 0x1AB SWAP1 CALLDATASIZE SWAP1 PUSH1 0x4 ADD PUSH3 0x228E JUMP JUMPDEST SWAP4 PUSH1 0xA4 CALLDATALOAD PUSH1 0x1 PUSH1 0x1 PUSH1 0x40 SHL SUB DUP2 GT PUSH3 0x1D6C JUMPI PUSH3 0x1CE SWAP1 CALLDATASIZE SWAP1 PUSH1 0x4 ADD PUSH3 0x228E JUMP JUMPDEST SWAP2 PUSH3 0x1D9 PUSH3 0x22E9 JUMP JUMPDEST PUSH1 0x0 DUP1 MLOAD PUSH1 0x20 PUSH3 0x3B7F DUP4 CODECOPY DUP2 MLOAD SWAP2 MSTORE PUSH1 0x80 PUSH1 0x40 MLOAD PUSH1 0x40 DUP2 MSTORE PUSH1 0x15 PUSH1 0x40 DUP3 ADD MSTORE PUSH21 0x436865636B696E6720726571756972656D656E7473 PUSH1 0x58 SHL PUSH1 0x60 DUP3 ADD MSTORE CALLVALUE PUSH1 0x20 DUP3 ADD MSTORE LOG1 PUSH1 0x1 PUSH1 0x1 PUSH1 0xA0 SHL SUB DUP2 DUP2 AND DUP9 MSTORE PUSH1 0x7 PUSH1 0x20 MSTORE PUSH1 0x40 DUP9 KECCAK256 SLOAD AND PUSH3 0x1D1C JUMPI PUSH1 0x1 PUSH1 0x1 PUSH1 0xA0 SHL SUB DUP2 AND ISZERO PUSH3 0x1CE1 JUMPI PUSH1 0x0 DUP1 MLOAD PUSH1 0x20 PUSH3 0x3B7F DUP4 CODECOPY DUP2 MLOAD SWAP2 MSTORE PUSH1 0x80 PUSH1 0x40 MLOAD PUSH1 0x40 DUP2 MSTORE PUSH1 0x15 PUSH1 0x40 DUP3 ADD MSTORE PUSH21 0x2232B83637BCB4B7339029B7B1B4B0B62A37B5B2B7 PUSH1 0x59 SHL PUSH1 0x60 DUP3 ADD MSTORE DUP10 PUSH1 0x20 DUP3 ADD MSTORE LOG1 PUSH1 0x40 MLOAD DUP1 PUSH2 0x167E DUP2 ADD LT PUSH1 0x1 PUSH1 0x1 PUSH1 0x40 SHL SUB PUSH2 0x167E DUP4 ADD GT OR PUSH3 0x1CCD JUMPI PUSH2 0x167E PUSH3 0x2501 DUP3 CODECOPY DUP1 PUSH3 0x2CC DUP6 DUP10 DUP7 DUP11 DUP11 PUSH2 0x167E DUP8 ADD PUSH3 0x2362 JUMP JUMPDEST SUB SWAP1 DUP9 CREATE DUP1 ISZERO PUSH3 0x1CC2 JUMPI PUSH1 0x1 PUSH1 0x1 PUSH1 0xA0 SHL SUB DUP3 DUP2 AND DUP10 MSTORE PUSH1 0x7 PUSH1 0x20 MSTORE PUSH1 0x40 DUP10 KECCAK256 DUP1 SLOAD PUSH1 0x1 PUSH1 0x1 PUSH1 0xA0 SHL SUB NOT AND SWAP3 SWAP1 SWAP2 AND SWAP2 DUP3 OR SWAP1 SSTORE PUSH1 0x8 SLOAD SWAP1 SWAP7 SWAP1 PUSH9 0x10000000000000000 DUP2 LT ISZERO PUSH3 0x1CAE JUMPI DUP1 PUSH1 0x1 PUSH3 0x32C SWAP3 ADD PUSH1 0x8 SSTORE PUSH3 0x220A JUMP JUMPDEST DUP2 SLOAD PUSH1 0x1 PUSH1 0x1 PUSH1 0xA0 SHL SUB PUSH1 0x3 SWAP3 SWAP1 SWAP3 SHL SWAP2 DUP3 SHL NOT AND SWAP1 DUP10 SWAP1 SHL OR SWAP1 SSTORE PUSH1 0x40 MLOAD PUSH4 0x70A08231 PUSH1 0xE0 SHL DUP2 MSTORE ADDRESS PUSH1 0x4 DUP3 ADD MSTORE PUSH1 0x20 DUP2 PUSH1 0x24 DUP2 DUP12 GAS STATICCALL SWAP1 DUP2 ISZERO PUSH3 0x1CA3 JUMPI DUP10 SWAP2 PUSH3 0x1C67 JUMPI JUMPDEST POP PUSH1 0x0 DUP1 MLOAD PUSH1 0x20 PUSH3 0x3B7F DUP4 CODECOPY DUP2 MLOAD SWAP2 MSTORE PUSH1 0x80 PUSH1 0x40 MLOAD PUSH1 0x40 DUP2 MSTORE PUSH1 0x15 PUSH1 0x40 DUP3 ADD MSTORE PUSH21 0x496E697469616C20746F6B656E2062616C616E6365 PUSH1 0x58 SHL PUSH1 0x60 DUP3 ADD MSTORE DUP4 PUSH1 0x20 DUP3 ADD MSTORE LOG1 PUSH1 0x0 DUP1 MLOAD PUSH1 0x20 PUSH3 0x3B7F DUP4 CODECOPY DUP2 MLOAD SWAP2 MSTORE PUSH1 0xA0 PUSH1 0x40 MLOAD PUSH1 0x40 DUP2 MSTORE PUSH1 0x2F PUSH1 0x40 DUP3 ADD MSTORE PUSH32 0x417070726F76696E6720746F6B656E7320666F72204E6F6E66756E6769626C65 PUSH1 0x60 DUP3 ADD MSTORE PUSH15 0x2837B9B4BA34B7B726B0B730B3B2B9 PUSH1 0x89 SHL PUSH1 0x80 DUP3 ADD MSTORE DUP4 PUSH1 0x20 DUP3 ADD MSTORE LOG1 PUSH1 0x4 DUP1 SLOAD PUSH1 0x40 MLOAD PUSH4 0x95EA7B3 PUSH1 0xE0 SHL DUP2 MSTORE PUSH1 0x1 PUSH1 0x1 PUSH1 0xA0 SHL SUB SWAP1 SWAP2 AND SWAP2 DUP2 ADD SWAP2 SWAP1 SWAP2 MSTORE PUSH1 0x24 DUP2 ADD DUP3 SWAP1 MSTORE PUSH1 0x20 DUP2 PUSH1 0x44 DUP2 DUP14 DUP14 GAS CALL SWAP1 DUP2 ISZERO PUSH3 0x1590 JUMPI DUP11 SWAP2 PUSH3 0x1C43 JUMPI JUMPDEST POP ISZERO PUSH3 0x1C0C JUMPI PUSH1 0x2 SLOAD PUSH1 0x1 PUSH1 0x1 PUSH1 0xA0 SHL SUB AND DUP10 DUP2 EXTCODESIZE ISZERO PUSH3 0x1C09 JUMPI PUSH1 0x40 MLOAD PUSH4 0xD0E30DB PUSH1 0xE4 SHL DUP2 MSTORE SWAP2 DUP3 SWAP1 PUSH1 0x4 SWAP1 DUP3 SWAP1 CALLVALUE SWAP1 GAS CALL DUP1 ISZERO PUSH3 0x1590 JUMPI PUSH3 0x1BF3 JUMPI JUMPDEST POP PUSH1 0x2 SLOAD PUSH1 0x4 DUP1 SLOAD PUSH1 0x40 MLOAD PUSH4 0x95EA7B3 PUSH1 0xE0 SHL DUP2 MSTORE PUSH1 0x1 PUSH1 0x1 PUSH1 0xA0 SHL SUB SWAP2 DUP3 AND SWAP3 DUP2 ADD SWAP3 SWAP1 SWAP3 MSTORE CALLVALUE PUSH1 0x24 DUP4 ADD MSTORE SWAP1 SWAP2 PUSH1 0x20 SWAP2 DUP4 SWAP2 PUSH1 0x44 SWAP2 DUP4 SWAP2 DUP16 SWAP2 AND GAS CALL SWAP1 DUP2 ISZERO PUSH3 0x1590 JUMPI DUP11 SWAP2 PUSH3 0x1BBD JUMPI JUMPDEST POP ISZERO PUSH3 0x1B81 JUMPI PUSH1 0x3 SLOAD PUSH1 0x40 MLOAD PUSH4 0x22AFCCCB PUSH1 0xE0 SHL DUP2 MSTORE PUSH2 0xBB8 PUSH1 0x4 DUP3 ADD MSTORE SWAP2 PUSH1 0x1 PUSH1 0x1 PUSH1 0xA0 SHL SUB SWAP1 SWAP2 AND SWAP1 PUSH1 0x20 DUP4 PUSH1 0x24 DUP2 DUP6 GAS STATICCALL SWAP3 DUP4 ISZERO PUSH3 0x1B76 JUMPI DUP12 SWAP4 PUSH3 0x1B31 JUMPI JUMPDEST POP PUSH32 0xF5D2CD60F752FF8CA00B1FC30EA4D78C233ECA72C1ED58D0D62424E09F0951E PUSH1 0x80 PUSH1 0x40 MLOAD PUSH1 0x40 DUP2 MSTORE PUSH1 0xB PUSH1 0x40 DUP3 ADD MSTORE PUSH11 0x5469636B53706163696E67 PUSH1 0xA8 SHL PUSH1 0x60 DUP3 ADD MSTORE DUP6 PUSH1 0x2 SIGNEXTEND PUSH1 0x20 DUP3 ADD MSTORE LOG1 DUP3 PUSH1 0x2 SIGNEXTEND ISZERO PUSH3 0x1B1D JUMPI DUP3 PUSH1 0x2 SIGNEXTEND DUP4 PUSH1 0x2 SIGNEXTEND PUSH3 0xD89B3 NOT SDIV PUSH1 0x2 SIGNEXTEND MUL SWAP2 DUP3 DUP1 PUSH1 0x2 SIGNEXTEND SUB PUSH3 0x1636 JUMPI PUSH32 0xF5D2CD60F752FF8CA00B1FC30EA4D78C233ECA72C1ED58D0D62424E09F0951E PUSH1 0x80 PUSH1 0x40 MLOAD PUSH1 0x40 DUP2 MSTORE PUSH1 0xE PUSH1 0x40 DUP3 ADD MSTORE PUSH14 0x4D696E5469636B53706163696E67 PUSH1 0x90 SHL PUSH1 0x60 DUP3 ADD MSTORE DUP6 PUSH1 0x2 SIGNEXTEND PUSH1 0x20 DUP3 ADD MSTORE LOG1 PUSH32 0xF5D2CD60F752FF8CA00B1FC30EA4D78C233ECA72C1ED58D0D62424E09F0951E PUSH1 0x80 PUSH1 0x40 MLOAD PUSH1 0x40 DUP2 MSTORE PUSH1 0xE PUSH1 0x40 DUP3 ADD MSTORE PUSH14 0x4D61785469636B53706163696E67 PUSH1 0x90 SHL PUSH1 0x60 DUP3 ADD MSTORE DUP7 DUP1 PUSH1 0x2 SIGNEXTEND PUSH3 0xD89E8 SDIV MUL PUSH1 0x2 SIGNEXTEND PUSH1 0x20 DUP3 ADD MSTORE LOG1 DUP12 DUP4 PUSH1 0x2 SIGNEXTEND SLT PUSH1 0x0 EQ PUSH3 0x1B13 JUMPI PUSH1 0x2 DUP4 SWAP1 SIGNEXTEND PUSH1 0x1 PUSH1 0xFF SHL EQ PUSH3 0x1636 JUMPI DUP3 PUSH1 0x2 SIGNEXTEND DUP13 SUB JUMPDEST PUSH3 0xD89E8 DUP2 GT PUSH3 0x1AEA JUMPI DUP13 SWAP2 PUSH1 0x1 DUP3 AND ISZERO PUSH3 0x1AD7 JUMPI PUSH1 0x1 PUSH1 0x1 PUSH1 0x88 SHL SUB PUSH16 0xFFFCB933BD6FAD37AA2D162D1A594001 JUMPDEST AND SWAP2 PUSH1 0x2 DUP2 AND PUSH3 0x1AA3 JUMPI JUMPDEST PUSH1 0x4 DUP2 AND PUSH3 0x1A6F JUMPI JUMPDEST PUSH1 0x8 DUP2 AND PUSH3 0x1A3B JUMPI JUMPDEST PUSH1 0x10 DUP2 AND PUSH3 0x1A07 JUMPI JUMPDEST PUSH1 0x20 DUP2 AND PUSH3 0x19D3 JUMPI JUMPDEST PUSH1 0x40 DUP2 AND PUSH3 0x199F JUMPI JUMPDEST PUSH1 0x80 DUP2 AND PUSH3 0x196B JUMPI JUMPDEST PUSH2 0x100 DUP2 AND PUSH3 0x1937 JUMPI JUMPDEST PUSH2 0x200 DUP2 AND PUSH3 0x1903 JUMPI JUMPDEST PUSH2 0x400 DUP2 AND PUSH3 0x18CF JUMPI JUMPDEST PUSH2 0x800 DUP2 AND PUSH3 0x189B JUMPI JUMPDEST PUSH2 0x1000 DUP2 AND PUSH3 0x1867 JUMPI JUMPDEST PUSH2 0x2000 DUP2 AND PUSH3 0x1833 JUMPI JUMPDEST PUSH2 0x4000 DUP2 AND PUSH3 0x17FF JUMPI JUMPDEST PUSH2 0x8000 DUP2 AND PUSH3 0x17CB JUMPI JUMPDEST PUSH3 0x10000 DUP2 AND PUSH3 0x1797 JUMPI JUMPDEST PUSH3 0x20000 DUP2 AND PUSH3 0x1764 JUMPI JUMPDEST PUSH3 0x40000 DUP2 AND PUSH3 0x171E JUMPI JUMPDEST PUSH3 0x80000 AND PUSH3 0x16DC JUMPI JUMPDEST DUP3 DUP6 PUSH1 0x2 SIGNEXTEND SGT PUSH3 0x16B1 JUMPI JUMPDEST PUSH1 0x0 DUP1 MLOAD PUSH1 0x20 PUSH3 0x3B7F DUP4 CODECOPY DUP2 MLOAD SWAP2 MSTORE PUSH1 0x80 PUSH1 0x40 MLOAD PUSH1 0x40 DUP2 MSTORE PUSH1 0xC PUSH1 0x40 DUP3 ADD MSTORE PUSH12 0x39B8B93A283934B1B2AC1C9B PUSH1 0xA1 SHL PUSH1 0x60 DUP3 ADD MSTORE PUSH1 0x1 DUP1 PUSH1 0xA0 SHL SUB DUP9 PUSH1 0x2 SIGNEXTEND ISZERO ISZERO PUSH1 0xE0 SHL PUSH4 0xFFFFFFFF DUP8 ADD PUSH1 0x20 SHR OR AND PUSH1 0x20 DUP3 ADD MSTORE LOG1 PUSH1 0x0 DUP1 MLOAD PUSH1 0x20 PUSH3 0x3B7F DUP4 CODECOPY DUP2 MLOAD SWAP2 MSTORE PUSH1 0x80 PUSH1 0x40 MLOAD PUSH1 0x40 DUP2 MSTORE PUSH1 0x11 PUSH1 0x40 DUP3 ADD MSTORE PUSH17 0x10DC99585D1A5B99C81B995DC81C1BDBDB PUSH1 0x7A SHL PUSH1 0x60 DUP3 ADD MSTORE DUP6 PUSH1 0x20 DUP3 ADD MSTORE LOG1 PUSH1 0x20 DUP14 PUSH1 0x64 PUSH1 0x1 DUP1 PUSH1 0xA0 SHL SUB PUSH1 0x2 SLOAD AND DUP7 PUSH1 0x40 MLOAD SWAP6 DUP7 SWAP5 DUP6 SWAP4 PUSH4 0xA1671295 PUSH1 0xE0 SHL DUP6 MSTORE PUSH1 0x4 DUP6 ADD MSTORE PUSH1 0x24 DUP5 ADD MSTORE PUSH2 0xBB8 PUSH1 0x44 DUP5 ADD MSTORE GAS CALL DUP4 SWAP2 DUP2 PUSH3 0x1666 JUMPI JUMPDEST POP PUSH3 0x9CD JUMPI DUP3 PUSH3 0x878 PUSH3 0x23E4 JUMP JUMPDEST PUSH4 0x8C379A0 EQ PUSH3 0x890 JUMPI JUMPDEST PUSH1 0x40 MLOAD SWAP1 RETURNDATASIZE SWAP1 DUP3 RETURNDATACOPY RETURNDATASIZE SWAP1 REVERT JUMPDEST PUSH3 0x89A PUSH3 0x2403 JUMP JUMPDEST DUP1 PUSH3 0x8A7 JUMPI POP PUSH3 0x884 JUMP JUMPDEST PUSH1 0x2 SLOAD DUP3 SWAP1 PUSH1 0x1 PUSH1 0x1 PUSH1 0xA0 SHL SUB AND DUP1 EXTCODESIZE ISZERO PUSH3 0x9BE JUMPI DUP2 SWAP1 PUSH1 0x24 PUSH1 0x40 MLOAD DUP1 SWAP5 DUP2 SWAP4 PUSH4 0x2E1A7D4D PUSH1 0xE0 SHL DUP4 MSTORE CALLVALUE PUSH1 0x4 DUP5 ADD MSTORE GAS CALL DUP1 ISZERO PUSH3 0x9C2 JUMPI PUSH3 0x9A6 JUMPI JUMPDEST POP PUSH1 0x0 DUP1 MLOAD PUSH1 0x20 PUSH3 0x3B7F DUP4 CODECOPY DUP2 MLOAD SWAP2 MSTORE PUSH1 0x80 PUSH3 0x9A2 SWAP4 PUSH1 0x40 MLOAD SWAP1 PUSH1 0x40 DUP3 MSTORE PUSH1 0x14 PUSH1 0x40 DUP4 ADD MSTORE PUSH20 0x141BDBDB0818DC99585D1A5BDB8819985A5B1959 PUSH1 0x62 SHL PUSH1 0x60 DUP4 ADD MSTORE PUSH1 0x20 DUP3 ADD MSTORE LOG1 PUSH3 0x981 PUSH1 0x36 PUSH1 0x40 MLOAD DUP1 SWAP4 PUSH22 0x2837B7B61031B932B0BA34B7B7103330B4B632B21D1 PUSH1 0x55 SHL PUSH1 0x20 DUP4 ADD MSTORE PUSH3 0x970 DUP2 MLOAD DUP1 SWAP3 PUSH1 0x20 DUP7 DUP7 ADD SWAP2 ADD PUSH3 0x2316 JUMP JUMPDEST DUP2 ADD SUB PUSH1 0x16 DUP2 ADD DUP5 MSTORE ADD DUP3 PUSH3 0x226C JUMP JUMPDEST PUSH1 0x40 MLOAD PUSH3 0x461BCD PUSH1 0xE5 SHL DUP2 MSTORE PUSH1 0x20 PUSH1 0x4 DUP3 ADD MSTORE SWAP2 DUP3 SWAP2 PUSH1 0x24 DUP4 ADD SWAP1 PUSH3 0x233B JUMP JUMPDEST SUB SWAP1 REVERT JUMPDEST PUSH3 0x9B2 DUP4 SWAP2 PUSH3 0x2258 JUMP JUMPDEST PUSH3 0x9BE JUMPI DUP3 PUSH3 0x8E7 JUMP JUMPDEST POP DUP1 REVERT JUMPDEST PUSH1 0x40 MLOAD RETURNDATASIZE DUP6 DUP3 RETURNDATACOPY RETURNDATASIZE SWAP1 REVERT JUMPDEST SWAP1 PUSH1 0x0 DUP1 MLOAD PUSH1 0x20 PUSH3 0x3B7F DUP4 CODECOPY DUP2 MLOAD SWAP2 MSTORE PUSH1 0x80 PUSH1 0x40 MLOAD PUSH1 0x40 DUP2 MSTORE PUSH1 0x1C PUSH1 0x40 DUP3 ADD MSTORE PUSH32 0x506F6F6C206372656174656420616E6420696E697469616C697A656400000000 PUSH1 0x60 DUP3 ADD MSTORE DUP6 PUSH1 0x20 DUP3 ADD MSTORE LOG1 PUSH1 0x0 DUP1 MLOAD PUSH1 0x20 PUSH3 0x3B7F DUP4 CODECOPY DUP2 MLOAD SWAP2 MSTORE PUSH1 0x80 PUSH1 0x40 MLOAD PUSH1 0x40 DUP2 MSTORE PUSH1 0x12 PUSH1 0x40 DUP3 ADD MSTORE PUSH18 0x24B734BA34B0B634BD34B733903837B7B61 PUSH1 0x75 SHL PUSH1 0x60 DUP3 ADD MSTORE DUP6 PUSH1 0x20 DUP3 ADD MSTORE LOG1 PUSH1 0x1 PUSH1 0x1 PUSH1 0xA0 SHL SUB DUP3 AND EXTCODESIZE ISZERO PUSH3 0x1629 JUMPI PUSH1 0x40 MLOAD PUSH4 0xF637731D PUSH1 0xE0 SHL DUP2 MSTORE PUSH4 0xFFFFFFFF SWAP1 SWAP2 ADD PUSH1 0x20 SHR PUSH1 0x2 DUP7 SWAP1 SIGNEXTEND ISZERO ISZERO PUSH1 0xE0 SHL OR PUSH1 0x1 PUSH1 0x1 PUSH1 0xA0 SHL SUB SWAP1 DUP2 AND PUSH1 0x4 DUP4 ADD MSTORE SWAP1 SWAP3 SWAP2 DUP3 SWAP2 DUP5 SWAP2 PUSH1 0x24 SWAP2 DUP4 SWAP2 DUP6 SWAP2 AND GAS CALL SWAP2 DUP3 PUSH3 0x164A JUMPI JUMPDEST POP POP PUSH3 0xC06 JUMPI DUP11 PUSH3 0xACC PUSH3 0x23E4 JUMP JUMPDEST PUSH4 0x8C379A0 EQ PUSH3 0xB2B JUMPI JUMPDEST PUSH1 0x0 DUP1 MLOAD PUSH1 0x20 PUSH3 0x3B7F DUP4 CODECOPY DUP2 MLOAD SWAP2 MSTORE SWAP1 PUSH1 0x40 MLOAD DUP1 SWAP2 PUSH1 0x40 DUP3 MSTORE PUSH3 0xB00 PUSH1 0x40 DUP4 ADD PUSH3 0x2477 JUMP JUMPDEST SWAP1 PUSH1 0x20 DUP4 ADD MSTORE SUB SWAP1 LOG1 PUSH1 0x40 MLOAD PUSH3 0x461BCD PUSH1 0xE5 SHL DUP2 MSTORE PUSH1 0x20 PUSH1 0x4 DUP3 ADD MSTORE DUP1 PUSH3 0x9A2 PUSH1 0x24 DUP3 ADD PUSH3 0x2477 JUMP JUMPDEST PUSH3 0xB35 PUSH3 0x2403 JUMP JUMPDEST DUP1 PUSH3 0xB42 JUMPI POP PUSH3 0xAD8 JUMP JUMPDEST PUSH3 0x981 PUSH1 0x3C PUSH3 0x9A2 SWAP4 PUSH1 0x40 MLOAD SWAP1 PUSH1 0x0 DUP1 MLOAD PUSH1 0x20 PUSH3 0x3B7F DUP4 CODECOPY DUP2 MLOAD SWAP2 MSTORE PUSH3 0xBD0 PUSH32 0x506F6F6C20696E697469616C697A6174696F6E206661696C65643A2000000000 SWAP4 DUP5 PUSH1 0x20 DUP3 ADD MSTORE DUP8 MLOAD SWAP4 PUSH3 0xBBB DUP8 DUP4 PUSH1 0x20 DUP13 ADD SWAP8 PUSH3 0xBAA DUP2 DUP5 DUP5 ADD DUP12 PUSH3 0x2316 JUMP JUMPDEST DUP2 ADD SUB PUSH1 0x1C DUP2 ADD DUP6 MSTORE ADD DUP4 PUSH3 0x226C JUMP JUMPDEST PUSH1 0x40 MLOAD SWAP3 DUP4 SWAP3 PUSH1 0x40 DUP5 MSTORE PUSH1 0x40 DUP5 ADD SWAP1 PUSH3 0x233B JUMP JUMPDEST SWAP1 PUSH1 0x20 DUP4 ADD MSTORE SUB SWAP1 LOG1 PUSH3 0xBF5 PUSH1 0x40 MLOAD SWAP6 DUP7 SWAP4 PUSH1 0x20 DUP6 ADD MSTORE MLOAD DUP1 SWAP3 DUP6 DUP6 ADD SWAP1 PUSH3 0x2316 JUMP JUMPDEST DUP2 ADD SUB PUSH1 0x1C DUP2 ADD DUP5 MSTORE ADD DUP3 PUSH3 0x226C JUMP JUMPDEST PUSH1 0x0 DUP1 MLOAD PUSH1 0x20 PUSH3 0x3B7F DUP4 CODECOPY DUP2 MLOAD SWAP2 MSTORE PUSH1 0x80 PUSH1 0x40 MLOAD PUSH1 0x40 DUP2 MSTORE PUSH1 0x10 PUSH1 0x40 DUP3 ADD MSTORE PUSH16 0x141BDBDB081A5B9A5D1A585B1A5E9959 PUSH1 0x82 SHL PUSH1 0x60 DUP3 ADD MSTORE DUP14 PUSH1 0x20 DUP3 ADD MSTORE LOG1 PUSH1 0x0 DUP1 MLOAD PUSH1 0x20 PUSH3 0x3B7F DUP4 CODECOPY DUP2 MLOAD SWAP2 MSTORE PUSH1 0x80 PUSH1 0x40 MLOAD PUSH1 0x40 DUP2 MSTORE PUSH1 0x1A PUSH1 0x40 DUP3 ADD MSTORE PUSH32 0x4D696E74696E67206C697175696469747920706F736974696F6E000000000000 PUSH1 0x60 DUP3 ADD MSTORE CALLVALUE PUSH1 0x20 DUP3 ADD MSTORE LOG1 PUSH1 0x2 SLOAD PUSH1 0x1 PUSH1 0x1 PUSH1 0xA0 SHL SUB AND SWAP1 TIMESTAMP PUSH2 0x12C DUP2 ADD LT PUSH3 0x1636 JUMPI PUSH1 0x40 MLOAD SWAP4 DUP5 PUSH2 0x160 DUP2 ADD LT PUSH1 0x1 PUSH1 0x1 PUSH1 0x40 SHL SUB PUSH2 0x160 DUP8 ADD GT OR PUSH3 0x1500 JUMPI PUSH1 0x0 DUP1 MLOAD PUSH1 0x20 PUSH3 0x3B7F DUP4 CODECOPY DUP2 MLOAD SWAP2 MSTORE SWAP4 PUSH1 0xA0 SWAP4 PUSH2 0x160 DUP8 ADD PUSH1 0x40 MSTORE DUP7 MSTORE DUP13 PUSH1 0x20 DUP8 ADD MSTORE PUSH2 0xBB8 PUSH1 0x40 DUP8 ADD MSTORE PUSH1 0x2 SIGNEXTEND PUSH1 0x60 DUP7 ADD MSTORE DUP1 PUSH1 0x2 SIGNEXTEND PUSH3 0xD89E8 SDIV MUL PUSH1 0x2 SIGNEXTEND PUSH1 0x80 DUP6 ADD MSTORE CALLVALUE DUP3 DUP6 ADD MSTORE DUP1 PUSH1 0xC0 DUP6 ADD MSTORE DUP12 PUSH1 0xE0 DUP6 ADD MSTORE DUP12 PUSH2 0x100 DUP6 ADD MSTORE ADDRESS PUSH2 0x120 DUP6 ADD MSTORE PUSH2 0x12C TIMESTAMP ADD PUSH2 0x140 DUP6 ADD MSTORE PUSH1 0x40 MLOAD SWAP1 PUSH1 0x40 DUP3 MSTORE PUSH1 0x22 PUSH1 0x40 DUP4 ADD MSTORE PUSH32 0x4D696E74696E6720706F736974696F6E207769746820746F6B656E20616D6F75 PUSH1 0x60 DUP4 ADD MSTORE PUSH2 0x1B9D PUSH1 0xF2 SHL PUSH1 0x80 DUP4 ADD MSTORE PUSH1 0x20 DUP3 ADD MSTORE LOG1 PUSH1 0x4 DUP1 SLOAD PUSH1 0x40 DUP1 MLOAD PUSH4 0x4418B22B PUSH1 0xE1 SHL DUP2 MSTORE DUP5 MLOAD PUSH1 0x1 PUSH1 0x1 PUSH1 0xA0 SHL SUB SWAP1 DUP2 AND SWAP5 DUP3 ADD SWAP5 SWAP1 SWAP5 MSTORE PUSH1 0x20 DUP6 ADD MLOAD DUP5 AND PUSH1 0x24 DUP3 ADD MSTORE SWAP1 DUP5 ADD MLOAD PUSH3 0xFFFFFF AND PUSH1 0x44 DUP3 ADD MSTORE PUSH1 0x60 DUP5 ADD MLOAD PUSH1 0x2 SWAP1 DUP2 SIGNEXTEND PUSH1 0x64 DUP4 ADD MSTORE PUSH1 0x80 DUP1 DUP7 ADD MLOAD SWAP1 SWAP2 SIGNEXTEND PUSH1 0x84 DUP4 ADD MSTORE PUSH1 0xA0 DUP6 ADD MLOAD PUSH1 0xA4 DUP4 ADD MSTORE PUSH1 0xC0 DUP6 ADD MLOAD PUSH1 0xC4 DUP4 ADD MSTORE PUSH1 0xE0 DUP6 ADD MLOAD PUSH1 0xE4 DUP4 ADD MSTORE PUSH2 0x100 DUP6 ADD MLOAD PUSH2 0x104 DUP4 ADD MSTORE PUSH2 0x120 DUP6 ADD MLOAD DUP5 AND PUSH2 0x124 DUP4 ADD MSTORE PUSH2 0x140 SWAP1 SWAP5 ADD MLOAD PUSH2 0x144 DUP3 ADD MSTORE SWAP3 DUP12 SWAP3 SWAP1 SWAP2 DUP5 SWAP2 PUSH2 0x164 SWAP2 DUP4 SWAP2 DUP7 SWAP2 AND GAS CALL DUP2 DUP2 DUP4 SWAP5 DUP5 SWAP4 PUSH3 0x15C9 JUMPI JUMPDEST POP PUSH3 0xF77 JUMPI DUP3 PUSH3 0xE52 PUSH3 0x23E4 JUMP JUMPDEST PUSH4 0x8C379A0 EQ PUSH3 0xEB1 JUMPI JUMPDEST PUSH1 0x0 DUP1 MLOAD PUSH1 0x20 PUSH3 0x3B7F DUP4 CODECOPY DUP2 MLOAD SWAP2 MSTORE SWAP1 PUSH1 0x40 MLOAD DUP1 SWAP2 PUSH1 0x40 DUP3 MSTORE PUSH3 0xE86 PUSH1 0x40 DUP4 ADD PUSH3 0x24BD JUMP JUMPDEST SWAP1 PUSH1 0x20 DUP4 ADD MSTORE SUB SWAP1 LOG1 PUSH1 0x40 MLOAD PUSH3 0x461BCD PUSH1 0xE5 SHL DUP2 MSTORE PUSH1 0x20 PUSH1 0x4 DUP3 ADD MSTORE DUP1 PUSH3 0x9A2 PUSH1 0x24 DUP3 ADD PUSH3 0x24BD JUMP JUMPDEST PUSH3 0xEBB PUSH3 0x2403 JUMP JUMPDEST DUP1 PUSH3 0xEC8 JUMPI POP PUSH3 0xE5E JUMP JUMPDEST PUSH3 0x981 PUSH1 0x39 PUSH3 0x9A2 SWAP4 PUSH1 0x40 MLOAD SWAP1 PUSH1 0x0 DUP1 MLOAD PUSH1 0x20 PUSH3 0x3B7F DUP4 CODECOPY DUP2 MLOAD SWAP2 MSTORE PUSH3 0xF41 PUSH32 0x506F736974696F6E206D696E74696E67206661696C65643A2000000000000000 SWAP4 DUP5 PUSH1 0x20 DUP3 ADD MSTORE DUP8 MLOAD SWAP4 PUSH3 0xBBB DUP8 DUP4 PUSH1 0x20 DUP13 ADD SWAP8 PUSH3 0xF30 DUP2 DUP5 DUP5 ADD DUP12 PUSH3 0x2316 JUMP JUMPDEST DUP2 ADD SUB PUSH1 0x19 DUP2 ADD DUP6 MSTORE ADD DUP4 PUSH3 0x226C JUMP JUMPDEST SWAP1 PUSH1 0x20 DUP4 ADD MSTORE SUB SWAP1 LOG1 PUSH3 0xF66 PUSH1 0x40 MLOAD SWAP6 DUP7 SWAP4 PUSH1 0x20 DUP6 ADD MSTORE MLOAD DUP1 SWAP3 DUP6 DUP6 ADD SWAP1 PUSH3 0x2316 JUMP JUMPDEST DUP2 ADD SUB PUSH1 0x19 DUP2 ADD DUP5 MSTORE ADD DUP3 PUSH3 0x226C JUMP JUMPDEST SWAP3 SWAP1 PUSH1 0x0 DUP1 MLOAD PUSH1 0x20 PUSH3 0x3B7F DUP4 CODECOPY DUP2 MLOAD SWAP2 MSTORE PUSH1 0x80 PUSH1 0x40 MLOAD PUSH1 0x40 DUP2 MSTORE PUSH1 0x1F PUSH1 0x40 DUP3 ADD MSTORE PUSH32 0x5472616E7366657272696E67204E465420746F20746F6B656E206F776E657200 PUSH1 0x60 DUP3 ADD MSTORE DUP6 PUSH1 0x20 DUP3 ADD MSTORE LOG1 PUSH1 0x4 SLOAD PUSH1 0x1 PUSH1 0x1 PUSH1 0xA0 SHL SUB AND DUP1 EXTCODESIZE ISZERO PUSH3 0x153D JUMPI PUSH1 0x40 MLOAD PUSH4 0x21421707 PUSH1 0xE1 SHL DUP2 MSTORE ADDRESS PUSH1 0x4 DUP3 ADD MSTORE PUSH1 0x1 PUSH1 0x1 PUSH1 0xA0 SHL SUB DUP9 AND PUSH1 0x24 DUP3 ADD MSTORE PUSH1 0x44 DUP2 ADD DUP7 SWAP1 MSTORE SWAP4 SWAP1 DUP2 SWAP1 DUP6 SWAP1 PUSH1 0x64 SWAP1 DUP3 SWAP1 DUP5 SWAP1 GAS CALL SWAP4 DUP5 ISZERO PUSH3 0x15BC JUMPI DUP13 SWAP5 PUSH3 0x159B JUMPI JUMPDEST POP POP PUSH32 0x64B83944E79C3CE8D4C297411DE637C3E102D064677AAC0C163976EBDCD6F50E SWAP2 PUSH1 0x60 SWAP2 PUSH1 0x40 MLOAD SWAP2 DUP7 DUP4 MSTORE PUSH1 0x20 DUP4 ADD MSTORE PUSH1 0x40 DUP3 ADD MSTORE LOG2 PUSH1 0x40 MLOAD PUSH4 0x70A08231 PUSH1 0xE0 SHL DUP2 MSTORE ADDRESS PUSH1 0x4 DUP3 ADD MSTORE PUSH1 0x20 DUP2 PUSH1 0x24 DUP2 DUP13 GAS STATICCALL SWAP1 DUP2 ISZERO PUSH3 0x1590 JUMPI DUP11 SWAP2 PUSH3 0x1557 JUMPI JUMPDEST POP PUSH1 0x80 PUSH1 0x0 DUP1 MLOAD PUSH1 0x20 PUSH3 0x3B7F DUP4 CODECOPY DUP2 MLOAD SWAP2 MSTORE SWAP2 PUSH1 0x40 MLOAD SWAP1 PUSH1 0x40 DUP3 MSTORE PUSH1 0x19 PUSH1 0x40 DUP4 ADD MSTORE PUSH32 0x52656D61696E696E6720746F6B656E73206166746572204C5000000000000000 PUSH1 0x60 DUP4 ADD MSTORE PUSH1 0x20 DUP3 ADD MSTORE LOG1 PUSH1 0x0 DUP1 MLOAD PUSH1 0x20 PUSH3 0x3B7F DUP4 CODECOPY DUP2 MLOAD SWAP2 MSTORE PUSH1 0x80 PUSH1 0x40 MLOAD PUSH1 0x40 DUP2 MSTORE PUSH1 0x1F PUSH1 0x40 DUP3 ADD MSTORE PUSH32 0x496E697469616C697A696E6720706F736974696F6E20696E206C6F636B657200 PUSH1 0x60 DUP3 ADD MSTORE DUP12 PUSH1 0x20 DUP3 ADD MSTORE LOG1 PUSH1 0x1 DUP1 PUSH1 0xA0 SHL SUB PUSH1 0x5 SLOAD AND PUSH1 0x9 SLOAD SWAP2 PUSH1 0x1 PUSH1 0x1 PUSH1 0x40 SHL SUB DUP4 AND TIMESTAMP ADD TIMESTAMP GT PUSH3 0x1541 JUMPI DUP11 SWAP3 DUP3 EXTCODESIZE ISZERO PUSH3 0x153D JUMPI PUSH1 0x84 DUP5 SWAP3 DUP4 PUSH2 0xFFFF SWAP6 PUSH1 0x40 MLOAD SWAP7 DUP8 SWAP6 DUP7 SWAP5 PUSH4 0x22614FD5 PUSH1 0xE2 SHL DUP7 MSTORE PUSH1 0x4 DUP7 ADD MSTORE PUSH1 0x1 DUP1 PUSH1 0xA0 SHL SUB DUP13 AND PUSH1 0x24 DUP7 ADD MSTORE PUSH1 0x1 PUSH1 0x1 PUSH1 0x40 SHL SUB DUP1 DUP3 AND TIMESTAMP ADD AND PUSH1 0x44 DUP7 ADD MSTORE PUSH1 0x40 SHR AND PUSH1 0x64 DUP5 ADD MSTORE GAS CALL DUP1 ISZERO PUSH3 0x1532 JUMPI PUSH3 0x1516 JUMPI JUMPDEST POP POP PUSH32 0x71367AE73260B1C5A8E707D05A95834F62C68D3275284CE234E59A685FA7DC29 SWAP4 PUSH3 0x11E9 SWAP2 PUSH1 0x40 MLOAD SWAP5 DUP6 SWAP5 PUSH1 0x1 DUP1 PUSH1 0xA0 SHL SUB AND SWAP9 ADDRESS SWAP9 DUP7 PUSH3 0x2362 JUMP JUMPDEST SUB SWAP1 LOG3 PUSH1 0x0 DUP1 MLOAD PUSH1 0x20 PUSH3 0x3B7F DUP4 CODECOPY DUP2 MLOAD SWAP2 MSTORE PUSH1 0x80 PUSH1 0x40 MLOAD PUSH1 0x40 DUP2 MSTORE PUSH1 0x1A PUSH1 0x40 DUP3 ADD MSTORE PUSH32 0x52656D61696E696E672066756E647320666F7220746F6B656E73000000000000 PUSH1 0x60 DUP3 ADD MSTORE CALLVALUE PUSH1 0x20 DUP3 ADD MSTORE LOG1 CALLVALUE PUSH3 0x124B JUMPI JUMPDEST PUSH1 0x20 SWAP1 PUSH1 0x40 MLOAD SWAP1 DUP2 MSTORE RETURN JUMPDEST PUSH1 0x0 DUP1 MLOAD PUSH1 0x20 PUSH3 0x3B7F DUP4 CODECOPY DUP2 MLOAD SWAP2 MSTORE PUSH1 0x80 PUSH1 0x40 MLOAD PUSH1 0x40 DUP2 MSTORE PUSH1 0x14 PUSH1 0x40 DUP3 ADD MSTORE PUSH20 0x457865637574696E6720746F6B656E207377617 PUSH1 0x64 SHL PUSH1 0x60 DUP3 ADD MSTORE DUP5 PUSH1 0x20 DUP3 ADD MSTORE LOG1 PUSH1 0x2 SLOAD PUSH1 0x40 MLOAD SWAP3 SWAP1 PUSH1 0x1 PUSH1 0x1 PUSH1 0xA0 SHL SUB AND PUSH1 0x1 PUSH1 0x1 PUSH1 0x40 SHL SUB PUSH1 0xE0 DUP6 ADD SWAP1 DUP2 GT SWAP1 DUP6 GT OR PUSH3 0x1500 JUMPI PUSH1 0xE0 DUP5 ADD PUSH1 0x40 SWAP1 DUP2 MSTORE SWAP1 DUP5 MSTORE PUSH1 0x20 DUP1 DUP6 ADD DUP5 DUP2 MSTORE PUSH2 0xBB8 DUP4 DUP8 ADD SWAP1 DUP2 MSTORE CALLER PUSH1 0x60 DUP9 ADD SWAP1 DUP2 MSTORE CALLVALUE PUSH1 0x80 DUP10 ADD DUP2 DUP2 MSTORE PUSH1 0xA0 DUP11 ADD DUP9 DUP2 MSTORE PUSH1 0xC0 DUP12 ADD DUP10 DUP2 MSTORE PUSH1 0x6 SLOAD SWAP9 MLOAD PUSH4 0x4E45AAF PUSH1 0xE0 SHL DUP2 MSTORE SWAP12 MLOAD PUSH1 0x1 PUSH1 0x1 PUSH1 0xA0 SHL SUB SWAP1 DUP2 AND PUSH1 0x4 DUP15 ADD MSTORE SWAP7 MLOAD DUP8 AND PUSH1 0x24 DUP14 ADD MSTORE SWAP5 MLOAD PUSH3 0xFFFFFF AND PUSH1 0x44 DUP13 ADD MSTORE SWAP3 MLOAD DUP6 AND PUSH1 0x64 DUP12 ADD MSTORE MLOAD PUSH1 0x84 DUP11 ADD MSTORE SWAP1 MLOAD PUSH1 0xA4 DUP10 ADD MSTORE SWAP1 MLOAD DUP3 AND PUSH1 0xC4 DUP9 ADD MSTORE SWAP2 SWAP3 DUP7 SWAP3 PUSH1 0xE4 SWAP3 DUP5 SWAP3 AND GAS CALL DUP1 DUP3 SWAP2 PUSH3 0x14C0 JUMPI JUMPDEST PUSH1 0x20 SWAP5 POP PUSH3 0x1479 JUMPI POP PUSH1 0x1 PUSH3 0x1373 PUSH3 0x23E4 JUMP JUMPDEST PUSH4 0x8C379A0 EQ PUSH3 0x13E0 JUMPI JUMPDEST PUSH3 0x138C JUMPI JUMPDEST POP PUSH3 0x1240 JUMP JUMPDEST PUSH1 0x80 PUSH1 0x0 DUP1 MLOAD PUSH1 0x20 PUSH3 0x3B7F DUP4 CODECOPY DUP2 MLOAD SWAP2 MSTORE SWAP2 PUSH1 0x40 MLOAD SWAP1 PUSH1 0x40 DUP3 MSTORE PUSH1 0x1E PUSH1 0x40 DUP4 ADD MSTORE PUSH32 0x53776170206661696C6564207769746820756E6B6E6F776E206572726F720000 PUSH1 0x60 DUP4 ADD MSTORE DUP6 DUP3 ADD MSTORE LOG1 CODESIZE PUSH3 0x1385 JUMP JUMPDEST PUSH3 0x13EA PUSH3 0x2403 JUMP JUMPDEST DUP1 PUSH3 0x13F8 JUMPI JUMPDEST POP PUSH3 0x137F JUMP JUMPDEST SWAP1 POP PUSH1 0x0 DUP1 MLOAD PUSH1 0x20 PUSH3 0x3B7F DUP4 CODECOPY DUP2 MLOAD SWAP2 MSTORE PUSH3 0x146A DUP4 SWAP3 PUSH3 0x1455 PUSH1 0x2D PUSH1 0x40 MLOAD DUP1 SWAP4 PUSH13 0x29BBB0B8103330B4B632B21D1 PUSH1 0x9D SHL DUP12 DUP4 ADD MSTORE PUSH3 0x1444 DUP2 MLOAD DUP1 SWAP3 DUP14 DUP7 DUP7 ADD SWAP2 ADD PUSH3 0x2316 JUMP JUMPDEST DUP2 ADD SUB PUSH1 0xD DUP2 ADD DUP5 MSTORE ADD DUP3 PUSH3 0x226C JUMP JUMPDEST PUSH1 0x40 MLOAD SWAP2 DUP3 SWAP2 PUSH1 0x40 DUP4 MSTORE PUSH1 0x40 DUP4 ADD SWAP1 PUSH3 0x233B JUMP JUMPDEST DUP6 DUP9 DUP4 ADD MSTORE SUB SWAP1 LOG1 CODESIZE PUSH3 0x13F1 JUMP JUMPDEST PUSH1 0x0 DUP1 MLOAD PUSH1 0x20 PUSH3 0x3B7F DUP4 CODECOPY DUP2 MLOAD SWAP2 MSTORE SWAP2 POP PUSH1 0x80 SWAP1 PUSH1 0x40 MLOAD SWAP1 PUSH1 0x40 DUP3 MSTORE PUSH1 0xF PUSH1 0x40 DUP4 ADD MSTORE PUSH15 0x14DDD85C08185B5BDD5B9D081BDD5D PUSH1 0x8A SHL PUSH1 0x60 DUP4 ADD MSTORE DUP6 DUP3 ADD MSTORE LOG1 PUSH3 0x1240 JUMP JUMPDEST SWAP1 POP PUSH1 0x20 DUP5 RETURNDATASIZE PUSH1 0x20 GT PUSH3 0x14F7 JUMPI JUMPDEST DUP2 PUSH3 0x14DE PUSH1 0x20 SWAP4 DUP4 PUSH3 0x226C JUMP JUMPDEST DUP2 ADD SUB SLT PUSH3 0x14F2 JUMPI PUSH1 0x20 SWAP4 MLOAD SWAP1 PUSH3 0x135D JUMP JUMPDEST PUSH1 0x0 DUP1 REVERT JUMPDEST RETURNDATASIZE SWAP2 POP PUSH3 0x14CF JUMP JUMPDEST PUSH4 0x4E487B71 PUSH1 0xE0 SHL PUSH1 0x0 MSTORE PUSH1 0x41 PUSH1 0x4 MSTORE PUSH1 0x24 PUSH1 0x0 REVERT JUMPDEST PUSH3 0x1521 SWAP1 PUSH3 0x2258 JUMP JUMPDEST PUSH3 0x152E JUMPI DUP8 CODESIZE PUSH3 0x11A8 JUMP JUMPDEST DUP8 DUP1 REVERT JUMPDEST PUSH1 0x40 MLOAD RETURNDATASIZE DUP5 DUP3 RETURNDATACOPY RETURNDATASIZE SWAP1 REVERT JUMPDEST DUP4 DUP1 REVERT JUMPDEST PUSH4 0x4E487B71 PUSH1 0xE0 SHL PUSH1 0x0 MSTORE PUSH1 0x11 PUSH1 0x4 MSTORE PUSH1 0x24 PUSH1 0x0 REVERT JUMPDEST SWAP1 POP PUSH1 0x20 DUP2 RETURNDATASIZE PUSH1 0x20 GT PUSH3 0x1587 JUMPI JUMPDEST DUP2 PUSH3 0x1575 PUSH1 0x20 SWAP4 DUP4 PUSH3 0x226C JUMP JUMPDEST DUP2 ADD SUB SLT PUSH3 0x14F2 JUMPI MLOAD PUSH1 0x80 PUSH3 0x1087 JUMP JUMPDEST RETURNDATASIZE SWAP2 POP PUSH3 0x1566 JUMP JUMPDEST PUSH1 0x40 MLOAD RETURNDATASIZE DUP13 DUP3 RETURNDATACOPY RETURNDATASIZE SWAP1 REVERT JUMPDEST PUSH3 0x15A9 SWAP2 SWAP3 SWAP5 POP PUSH3 0x2258 JUMP JUMPDEST PUSH3 0x15B8 JUMPI DUP10 SWAP2 DUP12 CODESIZE PUSH3 0x1022 JUMP JUMPDEST DUP11 DUP1 REVERT JUMPDEST POP PUSH1 0x40 MLOAD SWAP1 RETURNDATASIZE SWAP1 DUP3 RETURNDATACOPY RETURNDATASIZE SWAP1 REVERT JUMPDEST SWAP5 POP SWAP2 POP POP PUSH1 0x80 DUP4 RETURNDATASIZE PUSH1 0x80 GT PUSH3 0x162D JUMPI JUMPDEST DUP2 PUSH3 0x15EA PUSH1 0x80 SWAP4 DUP4 PUSH3 0x226C JUMP JUMPDEST DUP2 ADD SUB SLT PUSH3 0x9BE JUMPI DUP3 MLOAD SWAP3 PUSH1 0x20 DUP2 ADD MLOAD PUSH16 0xFFFFFFFFFFFFFFFFFFFFFFFFFFFFFFFF DUP2 AND SUB PUSH3 0x1629 JUMPI PUSH1 0x60 PUSH1 0x40 DUP3 ADD MLOAD SWAP2 ADD MLOAD SWAP4 SWAP1 SWAP4 SWAP2 CODESIZE PUSH3 0xE41 JUMP JUMPDEST DUP3 DUP1 REVERT JUMPDEST RETURNDATASIZE SWAP2 POP PUSH3 0x15DB JUMP JUMPDEST PUSH4 0x4E487B71 PUSH1 0xE0 SHL DUP13 MSTORE PUSH1 0x11 PUSH1 0x4 MSTORE PUSH1 0x24 DUP13 REVERT JUMPDEST PUSH3 0x1655 SWAP1 PUSH3 0x2258 JUMP JUMPDEST PUSH3 0x1662 JUMPI DUP12 CODESIZE PUSH3 0xABA JUMP JUMPDEST DUP12 DUP1 REVERT JUMPDEST SWAP1 SWAP2 POP PUSH1 0x20 DUP2 RETURNDATASIZE PUSH1 0x20 GT PUSH3 0x16A8 JUMPI JUMPDEST DUP2 PUSH3 0x1685 PUSH1 0x20 SWAP4 DUP4 PUSH3 0x226C JUMP JUMPDEST DUP2 ADD SUB SLT PUSH3 0x153D JUMPI MLOAD PUSH1 0x1 PUSH1 0x1 PUSH1 0xA0 SHL SUB DUP2 AND DUP2 SUB PUSH3 0x153D JUMPI SWAP1 CODESIZE PUSH3 0x867 JUMP JUMPDEST RETURNDATASIZE SWAP2 POP PUSH3 0x1676 JUMP JUMPDEST SWAP2 POP DUP1 ISZERO PUSH3 0x16C8 JUMPI SWAP1 DUP13 SWAP2 PUSH1 0x0 NOT DIV SWAP1 PUSH3 0x78F JUMP JUMPDEST PUSH4 0x4E487B71 PUSH1 0xE0 SHL DUP14 MSTORE PUSH1 0x12 PUSH1 0x4 MSTORE PUSH1 0x24 DUP14 REVERT JUMPDEST SWAP2 POP PUSH12 0x48A170391F7DC42444E8FA2 SWAP1 DUP1 DUP3 DUP2 MUL DIV DUP3 EQ DUP2 ISZERO OR ISZERO PUSH3 0x170A JUMPI DUP14 SWAP3 SWAP2 MUL PUSH1 0x80 SHR SWAP1 PUSH3 0x783 JUMP JUMPDEST PUSH4 0x4E487B71 PUSH1 0xE0 SHL DUP15 MSTORE PUSH1 0x11 PUSH1 0x4 MSTORE PUSH1 0x24 DUP15 REVERT JUMPDEST SWAP3 POP SWAP1 PUSH14 0x2216E584F5FA1EA926041BEDFE98 SWAP1 DUP1 DUP3 DUP2 MUL DIV DUP3 EQ DUP2 ISZERO OR ISZERO PUSH3 0x1750 JUMPI DUP15 SWAP4 SWAP2 MUL PUSH1 0x80 SHR SWAP2 SWAP1 PUSH3 0x778 JUMP JUMPDEST PUSH4 0x4E487B71 PUSH1 0xE0 SHL DUP16 MSTORE PUSH1 0x11 PUSH1 0x4 MSTORE PUSH1 0x24 DUP16 REVERT JUMPDEST SWAP3 POP SWAP1 PUSH15 0x5D6AF8DEDB81196699C329225EE604 SWAP1 DUP1 DUP3 DUP2 MUL DIV DUP3 EQ DUP2 ISZERO OR ISZERO PUSH3 0x1750 JUMPI DUP15 SWAP4 SWAP2 MUL PUSH1 0x80 SHR SWAP2 SWAP1 PUSH3 0x76C JUMP JUMPDEST SWAP3 POP SWAP1 PUSH16 0x9AA508B5B7A84E1C677DE54F3E99BC9 SWAP1 DUP1 DUP3 DUP2 MUL DIV DUP3 EQ DUP2 ISZERO OR ISZERO PUSH3 0x1750 JUMPI DUP15 SWAP4 SWAP2 MUL PUSH1 0x80 SHR SWAP2 SWAP1 PUSH3 0x760 JUMP JUMPDEST SWAP3 POP SWAP1 PUSH16 0x31BE135F97D08FD981231505542FCFA6 SWAP1 DUP1 DUP3 DUP2 MUL DIV DUP3 EQ DUP2 ISZERO OR ISZERO PUSH3 0x1750 JUMPI DUP15 SWAP4 SWAP2 MUL PUSH1 0x80 SHR SWAP2 SWAP1 PUSH3 0x754 JUMP JUMPDEST SWAP3 POP SWAP1 PUSH16 0x70D869A156D2A1B890BB3DF62BAF32F7 SWAP1 DUP1 DUP3 DUP2 MUL DIV DUP3 EQ DUP2 ISZERO OR ISZERO PUSH3 0x1750 JUMPI DUP15 SWAP4 SWAP2 MUL PUSH1 0x80 SHR SWAP2 SWAP1 PUSH3 0x749 JUMP JUMPDEST SWAP3 POP SWAP1 PUSH16 0xA9F746462D870FDF8A65DC1F90E061E5 SWAP1 DUP1 DUP3 DUP2 MUL DIV DUP3 EQ DUP2 ISZERO OR ISZERO PUSH3 0x1750 JUMPI DUP15 SWAP4 SWAP2 MUL PUSH1 0x80 SHR SWAP2 SWAP1 PUSH3 0x73E JUMP JUMPDEST SWAP3 POP SWAP1 PUSH16 0xD097F3BDFD2022B8845AD8F792AA5825 SWAP1 DUP1 DUP3 DUP2 MUL DIV DUP3 EQ DUP2 ISZERO OR ISZERO PUSH3 0x1750 JUMPI DUP15 SWAP4 SWAP2 MUL PUSH1 0x80 SHR SWAP2 SWAP1 PUSH3 0x733 JUMP JUMPDEST SWAP3 POP SWAP1 PUSH16 0xE7159475A2C29B7443B29C7FA6E889D9 SWAP1 DUP1 DUP3 DUP2 MUL DIV DUP3 EQ DUP2 ISZERO OR ISZERO PUSH3 0x1750 JUMPI DUP15 SWAP4 SWAP2 MUL PUSH1 0x80 SHR SWAP2 SWAP1 PUSH3 0x728 JUMP JUMPDEST SWAP3 POP SWAP1 PUSH16 0xF3392B0822B70005940C7A398E4B70F3 SWAP1 DUP1 DUP3 DUP2 MUL DIV DUP3 EQ DUP2 ISZERO OR ISZERO PUSH3 0x1750 JUMPI DUP15 SWAP4 SWAP2 MUL PUSH1 0x80 SHR SWAP2 SWAP1 PUSH3 0x71D JUMP JUMPDEST SWAP3 POP SWAP1 PUSH16 0xF987A7253AC413176F2B074CF7815E54 SWAP1 DUP1 DUP3 DUP2 MUL DIV DUP3 EQ DUP2 ISZERO OR ISZERO PUSH3 0x1750 JUMPI DUP15 SWAP4 SWAP2 MUL PUSH1 0x80 SHR SWAP2 SWAP1 PUSH3 0x712 JUMP JUMPDEST SWAP3 POP SWAP1 PUSH16 0xFCBE86C7900A88AEDCFFC83B479AA3A4 SWAP1 DUP1 DUP3 DUP2 MUL DIV DUP3 EQ DUP2 ISZERO OR ISZERO PUSH3 0x1750 JUMPI DUP15 SWAP4 SWAP2 MUL PUSH1 0x80 SHR SWAP2 SWAP1 PUSH3 0x707 JUMP JUMPDEST SWAP3 POP SWAP1 PUSH16 0xFE5DEE046A99A2A811C461F1969C3053 SWAP1 DUP1 DUP3 DUP2 MUL DIV DUP3 EQ DUP2 ISZERO OR ISZERO PUSH3 0x1750 JUMPI DUP15 SWAP4 SWAP2 MUL PUSH1 0x80 SHR SWAP2 SWAP1 PUSH3 0x6FC JUMP JUMPDEST SWAP3 POP SWAP1 PUSH16 0xFF2EA16466C96A3843EC78B326B52861 SWAP1 DUP1 DUP3 DUP2 MUL DIV DUP3 EQ DUP2 ISZERO OR ISZERO PUSH3 0x1750 JUMPI DUP15 SWAP4 SWAP2 MUL PUSH1 0x80 SHR SWAP2 SWAP1 PUSH3 0x6F2 JUMP JUMPDEST SWAP3 POP SWAP1 PUSH16 0xFF973B41FA98C081472E6896DFB254C0 SWAP1 DUP1 DUP3 DUP2 MUL DIV DUP3 EQ DUP2 ISZERO OR ISZERO PUSH3 0x1750 JUMPI DUP15 SWAP4 SWAP2 MUL PUSH1 0x80 SHR SWAP2 SWAP1 PUSH3 0x6E8 JUMP JUMPDEST SWAP3 POP SWAP1 PUSH16 0xFFCB9843D60F6159C9DB58835C926644 SWAP1 DUP1 DUP3 DUP2 MUL DIV DUP3 EQ DUP2 ISZERO OR ISZERO PUSH3 0x1750 JUMPI DUP15 SWAP4 SWAP2 MUL PUSH1 0x80 SHR SWAP2 SWAP1 PUSH3 0x6DE JUMP JUMPDEST SWAP3 POP SWAP1 PUSH16 0xFFE5CACA7E10E4E61C3624EAA0941CD0 SWAP1 DUP1 DUP3 DUP2 MUL DIV DUP3 EQ DUP2 ISZERO OR ISZERO PUSH3 0x1750 JUMPI DUP15 SWAP4 SWAP2 MUL PUSH1 0x80 SHR SWAP2 SWAP1 PUSH3 0x6D4 JUMP JUMPDEST SWAP3 POP SWAP1 PUSH16 0xFFF2E50F5F656932EF12357CF3C7FDCC SWAP1 DUP1 DUP3 DUP2 MUL DIV DUP3 EQ DUP2 ISZERO OR ISZERO PUSH3 0x1750 JUMPI DUP15 SWAP4 SWAP2 MUL PUSH1 0x80 SHR SWAP2 SWAP1 PUSH3 0x6CA JUMP JUMPDEST SWAP3 POP SWAP1 PUSH16 0xFFF97272373D413259A46990580E213A SWAP1 DUP1 DUP3 DUP2 MUL DIV DUP3 EQ DUP2 ISZERO OR ISZERO PUSH3 0x1750 JUMPI DUP15 SWAP4 SWAP2 MUL PUSH1 0x80 SHR SWAP2 SWAP1 PUSH3 0x6C0 JUMP JUMPDEST PUSH1 0x1 PUSH1 0x1 PUSH1 0x88 SHL SUB PUSH1 0x1 PUSH1 0x80 SHL PUSH3 0x6B4 JUMP JUMPDEST PUSH1 0x40 MLOAD PUSH3 0x461BCD PUSH1 0xE5 SHL DUP2 MSTORE PUSH1 0x20 PUSH1 0x4 DUP3 ADD MSTORE PUSH1 0x1 PUSH1 0x24 DUP3 ADD MSTORE PUSH1 0x15 PUSH1 0xFA SHL PUSH1 0x44 DUP3 ADD MSTORE PUSH1 0x64 SWAP1 REVERT JUMPDEST DUP3 PUSH1 0x2 SIGNEXTEND PUSH3 0x683 JUMP JUMPDEST PUSH4 0x4E487B71 PUSH1 0xE0 SHL DUP12 MSTORE PUSH1 0x12 PUSH1 0x4 MSTORE PUSH1 0x24 DUP12 REVERT JUMPDEST SWAP1 SWAP3 POP PUSH1 0x20 DUP2 RETURNDATASIZE PUSH1 0x20 GT PUSH3 0x1B6D JUMPI JUMPDEST DUP2 PUSH3 0x1B50 PUSH1 0x20 SWAP4 DUP4 PUSH3 0x226C JUMP JUMPDEST DUP2 ADD SUB SLT PUSH3 0x15B8 JUMPI MLOAD DUP1 PUSH1 0x2 SIGNEXTEND DUP2 SUB PUSH3 0x15B8 JUMPI SWAP2 CODESIZE PUSH3 0x538 JUMP JUMPDEST RETURNDATASIZE SWAP2 POP PUSH3 0x1B41 JUMP JUMPDEST PUSH1 0x40 MLOAD RETURNDATASIZE DUP14 DUP3 RETURNDATACOPY RETURNDATASIZE SWAP1 REVERT JUMPDEST PUSH1 0x40 MLOAD PUSH3 0x461BCD PUSH1 0xE5 SHL DUP2 MSTORE PUSH1 0x20 PUSH1 0x4 DUP3 ADD MSTORE PUSH1 0x14 PUSH1 0x24 DUP3 ADD MSTORE PUSH20 0x15D1551208185C1C1C9BDD985B0819985A5B1959 PUSH1 0x62 SHL PUSH1 0x44 DUP3 ADD MSTORE PUSH1 0x64 SWAP1 REVERT JUMPDEST PUSH3 0x1BE4 SWAP2 POP PUSH1 0x20 RETURNDATASIZE PUSH1 0x20 GT PUSH3 0x1BEB JUMPI JUMPDEST PUSH3 0x1BDB DUP2 DUP4 PUSH3 0x226C JUMP JUMPDEST DUP2 ADD SWAP1 PUSH3 0x23CA JUMP JUMPDEST CODESIZE PUSH3 0x4F3 JUMP JUMPDEST POP RETURNDATASIZE PUSH3 0x1BCF JUMP JUMPDEST PUSH3 0x1C01 SWAP1 SWAP10 SWAP2 SWAP10 PUSH3 0x2258 JUMP JUMPDEST SWAP8 CODESIZE PUSH3 0x4A5 JUMP JUMPDEST DUP1 REVERT JUMPDEST PUSH1 0x40 MLOAD PUSH3 0x461BCD PUSH1 0xE5 SHL DUP2 MSTORE PUSH1 0x20 PUSH1 0x4 DUP3 ADD MSTORE PUSH1 0xF PUSH1 0x24 DUP3 ADD MSTORE PUSH15 0x105C1C1C9BDD985B0819985A5B1959 PUSH1 0x8A SHL PUSH1 0x44 DUP3 ADD MSTORE PUSH1 0x64 SWAP1 REVERT JUMPDEST PUSH3 0x1C60 SWAP2 POP PUSH1 0x20 RETURNDATASIZE PUSH1 0x20 GT PUSH3 0x1BEB JUMPI PUSH3 0x1BDB DUP2 DUP4 PUSH3 0x226C JUMP JUMPDEST CODESIZE PUSH3 0x463 JUMP JUMPDEST SWAP1 POP PUSH1 0x20 DUP2 RETURNDATASIZE PUSH1 0x20 GT PUSH3 0x1C9A JUMPI JUMPDEST DUP2 PUSH3 0x1C85 PUSH1 0x20 SWAP4 DUP4 PUSH3 0x226C JUMP JUMPDEST DUP2 ADD SUB SLT PUSH3 0x1C96 JUMPI MLOAD CODESIZE PUSH3 0x374 JUMP JUMPDEST DUP9 DUP1 REVERT JUMPDEST RETURNDATASIZE SWAP2 POP PUSH3 0x1C76 JUMP JUMPDEST PUSH1 0x40 MLOAD RETURNDATASIZE DUP12 DUP3 RETURNDATACOPY RETURNDATASIZE SWAP1 REVERT JUMPDEST PUSH4 0x4E487B71 PUSH1 0xE0 SHL DUP10 MSTORE PUSH1 0x41 PUSH1 0x4 MSTORE PUSH1 0x24 DUP10 REVERT JUMPDEST PUSH1 0x40 MLOAD RETURNDATASIZE DUP10 DUP3 RETURNDATACOPY RETURNDATASIZE SWAP1 REVERT JUMPDEST PUSH4 0x4E487B71 PUSH1 0xE0 SHL DUP9 MSTORE PUSH1 0x41 PUSH1 0x4 MSTORE PUSH1 0x24 DUP9 REVERT JUMPDEST PUSH1 0x40 MLOAD PUSH3 0x461BCD PUSH1 0xE5 SHL DUP2 MSTORE PUSH1 0x20 PUSH1 0x4 DUP3 ADD MSTORE PUSH1 0x13 PUSH1 0x24 DUP3 ADD MSTORE PUSH19 0x24B73B30B634B2103A37B5B2B71037BBB732B9 PUSH1 0x69 SHL PUSH1 0x44 DUP3 ADD MSTORE PUSH1 0x64 SWAP1 REVERT JUMPDEST PUSH1 0x40 MLOAD PUSH3 0x461BCD PUSH1 0xE5 SHL DUP2 MSTORE PUSH1 0x20 PUSH1 0x4 DUP3 ADD MSTORE PUSH1 0x22 PUSH1 0x24 DUP3 ADD MSTORE PUSH32 0x546F6B656E20616C72656164792065786973747320666F722074686973207573 PUSH1 0x44 DUP3 ADD MSTORE PUSH2 0x32B9 PUSH1 0xF1 SHL PUSH1 0x64 DUP3 ADD MSTORE PUSH1 0x84 SWAP1 REVERT JUMPDEST DUP7 DUP1 REVERT JUMPDEST DUP6 DUP1 REVERT JUMPDEST DUP5 DUP1 REVERT JUMPDEST POP CALLVALUE PUSH3 0x1C09 JUMPI PUSH1 0x20 CALLDATASIZE PUSH1 0x3 NOT ADD SLT PUSH3 0x1C09 JUMPI PUSH3 0x1D96 PUSH3 0x21F3 JUMP JUMPDEST PUSH3 0x1DA0 PUSH3 0x22E9 JUMP JUMPDEST PUSH1 0x1 PUSH1 0x1 PUSH1 0xA0 SHL SUB SWAP1 DUP2 AND SWAP1 DUP2 ISZERO PUSH3 0x1DEC JUMPI DUP3 SLOAD PUSH1 0x1 PUSH1 0x1 PUSH1 0xA0 SHL SUB NOT DUP2 AND DUP4 OR DUP5 SSTORE AND PUSH32 0x8BE0079C531659141344CD1FD0A4F28419497F9722A3DAAFE3B4186F6B6457E0 DUP4 DUP1 LOG3 DUP1 RETURN JUMPDEST PUSH1 0x40 MLOAD PUSH4 0x1E4FBDF7 PUSH1 0xE0 SHL DUP2 MSTORE PUSH1 0x4 DUP2 ADD DUP5 SWAP1 MSTORE PUSH1 0x24 SWAP1 REVERT JUMPDEST POP CALLVALUE PUSH3 0x1C09 JUMPI DUP1 PUSH1 0x3 NOT CALLDATASIZE ADD SLT PUSH3 0x1C09 JUMPI PUSH3 0x1E22 PUSH3 0x22E9 JUMP JUMPDEST SELFBALANCE DUP1 ISZERO PUSH3 0x1E48 JUMPI DUP2 SLOAD DUP3 SWAP2 DUP3 SWAP2 DUP3 SWAP2 DUP3 SWAP2 PUSH1 0x1 PUSH1 0x1 PUSH1 0xA0 SHL SUB AND DUP3 CALL ISZERO PUSH3 0x884 JUMPI DUP1 RETURN JUMPDEST PUSH1 0x40 MLOAD PUSH3 0x461BCD PUSH1 0xE5 SHL DUP2 MSTORE PUSH1 0x20 PUSH1 0x4 DUP3 ADD MSTORE PUSH1 0x12 PUSH1 0x24 DUP3 ADD MSTORE PUSH18 0x4E6F2045544820746F207769746864726177 PUSH1 0x70 SHL PUSH1 0x44 DUP3 ADD MSTORE PUSH1 0x64 SWAP1 REVERT JUMPDEST POP CALLVALUE PUSH3 0x1C09 JUMPI DUP1 PUSH1 0x3 NOT CALLDATASIZE ADD SLT PUSH3 0x1C09 JUMPI PUSH1 0x20 PUSH1 0xFF PUSH1 0x9 SLOAD PUSH1 0x50 SHR AND PUSH1 0x40 MLOAD SWAP1 DUP2 MSTORE RETURN JUMPDEST POP CALLVALUE PUSH3 0x1C09 JUMPI DUP1 PUSH1 0x3 NOT CALLDATASIZE ADD SLT PUSH3 0x1C09 JUMPI PUSH1 0x20 PUSH1 0x1 PUSH1 0x1 PUSH1 0x40 SHL SUB PUSH1 0x9 SLOAD AND PUSH1 0x40 MLOAD SWAP1 DUP2 MSTORE RETURN JUMPDEST POP CALLVALUE PUSH3 0x1C09 JUMPI DUP1 PUSH1 0x3 NOT CALLDATASIZE ADD SLT PUSH3 0x1C09 JUMPI PUSH1 0x6 SLOAD PUSH1 0x40 MLOAD PUSH1 0x1 PUSH1 0x1 PUSH1 0xA0 SHL SUB SWAP1 SWAP2 AND DUP2 MSTORE PUSH1 0x20 SWAP1 RETURN JUMPDEST POP CALLVALUE PUSH3 0x1C09 JUMPI DUP1 PUSH1 0x3 NOT CALLDATASIZE ADD SLT PUSH3 0x1C09 JUMPI SLOAD PUSH1 0x40 MLOAD PUSH1 0x1 PUSH1 0x1 PUSH1 0xA0 SHL SUB SWAP1 SWAP2 AND DUP2 MSTORE PUSH1 0x20 SWAP1 RETURN JUMPDEST POP CALLVALUE PUSH3 0x1C09 JUMPI DUP1 PUSH1 0x3 NOT CALLDATASIZE ADD SLT PUSH3 0x1C09 JUMPI PUSH1 0x4 SLOAD PUSH1 0x40 MLOAD PUSH1 0x1 PUSH1 0x1 PUSH1 0xA0 SHL SUB SWAP1 SWAP2 AND DUP2 MSTORE PUSH1 0x20 SWAP1 RETURN JUMPDEST POP CALLVALUE PUSH3 0x1C09 JUMPI DUP1 PUSH1 0x3 NOT CALLDATASIZE ADD SLT PUSH3 0x1C09 JUMPI PUSH3 0x1F6D PUSH3 0x22E9 JUMP JUMPDEST DUP1 SLOAD PUSH1 0x1 PUSH1 0x1 PUSH1 0xA0 SHL SUB NOT DUP2 AND DUP3 SSTORE DUP2 SWAP1 PUSH1 0x1 PUSH1 0x1 PUSH1 0xA0 SHL SUB AND PUSH32 0x8BE0079C531659141344CD1FD0A4F28419497F9722A3DAAFE3B4186F6B6457E0 DUP3 DUP1 LOG3 DUP1 RETURN JUMPDEST POP CALLVALUE PUSH3 0x1C09 JUMPI PUSH1 0x20 CALLDATASIZE PUSH1 0x3 NOT ADD SLT PUSH3 0x1C09 JUMPI PUSH1 0x4 CALLDATALOAD SWAP1 PUSH1 0x8 SLOAD DUP3 LT ISZERO PUSH3 0x1C09 JUMPI PUSH1 0x20 PUSH3 0x1FDE DUP4 PUSH3 0x220A JUMP JUMPDEST SWAP1 SLOAD PUSH1 0x40 MLOAD PUSH1 0x3 SWAP3 SWAP1 SWAP3 SHL SHR PUSH1 0x1 PUSH1 0x1 PUSH1 0xA0 SHL SUB AND DUP2 MSTORE RETURN JUMPDEST POP CALLVALUE PUSH3 0x1C09 JUMPI DUP1 PUSH1 0x3 NOT CALLDATASIZE ADD SLT PUSH3 0x1C09 JUMPI PUSH1 0x3 SLOAD PUSH1 0x40 MLOAD PUSH1 0x1 PUSH1 0x1 PUSH1 0xA0 SHL SUB SWAP1 SWAP2 AND DUP2 MSTORE PUSH1 0x20 SWAP1 RETURN JUMPDEST POP CALLVALUE PUSH3 0x1C09 JUMPI DUP1 PUSH1 0x3 NOT CALLDATASIZE ADD SLT PUSH3 0x1C09 JUMPI PUSH1 0x20 PUSH2 0xFFFF PUSH1 0x9 SLOAD PUSH1 0x40 SHR AND PUSH1 0x40 MLOAD SWAP1 DUP2 MSTORE RETURN JUMPDEST POP CALLVALUE PUSH3 0x1C09 JUMPI DUP1 PUSH1 0x3 NOT CALLDATASIZE ADD SLT PUSH3 0x1C09 JUMPI PUSH1 0x20 PUSH1 0x40 MLOAD PUSH2 0xBB8 DUP2 MSTORE RETURN JUMPDEST POP CALLVALUE PUSH3 0x1C09 JUMPI DUP1 PUSH1 0x3 NOT CALLDATASIZE ADD SLT PUSH3 0x1C09 JUMPI PUSH1 0x2 SLOAD PUSH1 0x40 MLOAD PUSH1 0x1 PUSH1 0x1 PUSH1 0xA0 SHL SUB SWAP1 SWAP2 AND DUP2 MSTORE PUSH1 0x20 SWAP1 RETURN JUMPDEST POP CALLVALUE PUSH3 0x1C09 JUMPI DUP1 PUSH1 0x3 NOT CALLDATASIZE ADD SLT PUSH3 0x1C09 JUMPI PUSH1 0x1 SLOAD PUSH1 0x40 MLOAD PUSH1 0x1 PUSH1 0x1 PUSH1 0xA0 SHL SUB SWAP1 SWAP2 AND DUP2 MSTORE PUSH1 0x20 SWAP1 RETURN JUMPDEST POP CALLVALUE PUSH3 0x1C09 JUMPI DUP1 PUSH1 0x3 NOT CALLDATASIZE ADD SLT PUSH3 0x1C09 JUMPI PUSH1 0x40 MLOAD DUP1 SWAP2 PUSH1 0x8 SLOAD SWAP1 DUP2 DUP4 MSTORE PUSH1 0x20 DUP1 SWAP4 ADD DUP1 SWAP3 PUSH1 0x8 DUP4 MSTORE PUSH32 0xF3F7A9FE364FAAB93B216DA50A3214154F22A0A2B415B23A84C8169E8B636EE3 SWAP1 DUP4 JUMPDEST DUP2 DUP2 LT PUSH3 0x216E JUMPI POP POP POP DUP5 PUSH3 0x2125 SWAP2 SUB DUP6 PUSH3 0x226C JUMP JUMPDEST PUSH1 0x40 MLOAD SWAP4 DUP4 DUP6 SWAP5 DUP6 ADD SWAP2 DUP2 DUP7 MSTORE MLOAD DUP1 SWAP3 MSTORE PUSH1 0x40 DUP6 ADD SWAP4 SWAP3 JUMPDEST DUP3 DUP2 LT PUSH3 0x214D JUMPI POP POP POP POP SUB SWAP1 RETURN JUMPDEST DUP4 MLOAD PUSH1 0x1 PUSH1 0x1 PUSH1 0xA0 SHL SUB AND DUP6 MSTORE DUP7 SWAP6 POP SWAP4 DUP2 ADD SWAP4 SWAP3 DUP2 ADD SWAP3 PUSH1 0x1 ADD PUSH3 0x213D JUMP JUMPDEST DUP3 SLOAD PUSH1 0x1 PUSH1 0x1 PUSH1 0xA0 SHL SUB AND DUP5 MSTORE SWAP3 DUP7 ADD SWAP3 PUSH1 0x1 SWAP3 DUP4 ADD SWAP3 ADD PUSH3 0x210C JUMP JUMPDEST POP CALLVALUE PUSH3 0x1C09 JUMPI PUSH1 0x20 CALLDATASIZE PUSH1 0x3 NOT ADD SLT PUSH3 0x1C09 JUMPI PUSH1 0x20 SWAP1 PUSH1 0x1 PUSH1 0x1 PUSH1 0xA0 SHL SUB SWAP1 PUSH1 0x40 SWAP1 DUP3 PUSH3 0x21BA PUSH3 0x21F3 JUMP JUMPDEST AND DUP2 MSTORE PUSH1 0x7 DUP5 MSTORE KECCAK256 SLOAD AND PUSH1 0x40 MLOAD SWAP1 DUP2 MSTORE RETURN JUMPDEST SWAP1 POP CALLVALUE PUSH3 0x9BE JUMPI DUP2 PUSH1 0x3 NOT CALLDATASIZE ADD SLT PUSH3 0x9BE JUMPI PUSH1 0x5 SLOAD PUSH1 0x1 PUSH1 0x1 PUSH1 0xA0 SHL SUB AND DUP2 MSTORE PUSH1 0x20 SWAP1 RETURN JUMPDEST PUSH1 0x4 CALLDATALOAD SWAP1 PUSH1 0x1 PUSH1 0x1 PUSH1 0xA0 SHL SUB DUP3 AND DUP3 SUB PUSH3 0x14F2 JUMPI JUMP JUMPDEST PUSH1 0x8 SLOAD DUP2 LT ISZERO PUSH3 0x2242 JUMPI PUSH1 0x8 PUSH1 0x0 MSTORE PUSH32 0xF3F7A9FE364FAAB93B216DA50A3214154F22A0A2B415B23A84C8169E8B636EE3 ADD SWAP1 PUSH1 0x0 SWAP1 JUMP JUMPDEST PUSH4 0x4E487B71 PUSH1 0xE0 SHL PUSH1 0x0 MSTORE PUSH1 0x32 PUSH1 0x4 MSTORE PUSH1 0x24 PUSH1 0x0 REVERT JUMPDEST PUSH1 0x1 PUSH1 0x1 PUSH1 0x40 SHL SUB DUP2 GT PUSH3 0x1500 JUMPI PUSH1 0x40 MSTORE JUMP JUMPDEST SWAP1 PUSH1 0x1F DUP1 NOT SWAP2 ADD AND DUP2 ADD SWAP1 DUP2 LT PUSH1 0x1 PUSH1 0x1 PUSH1 0x40 SHL SUB DUP3 GT OR PUSH3 0x1500 JUMPI PUSH1 0x40 MSTORE JUMP JUMPDEST DUP2 PUSH1 0x1F DUP3 ADD SLT ISZERO PUSH3 0x14F2 JUMPI DUP1 CALLDATALOAD SWAP1 PUSH1 0x1 PUSH1 0x1 PUSH1 0x40 SHL SUB DUP3 GT PUSH3 0x1500 JUMPI PUSH1 0x40 MLOAD SWAP3 PUSH3 0x22C6 PUSH1 0x1F DUP5 ADD PUSH1 0x1F NOT AND PUSH1 0x20 ADD DUP6 PUSH3 0x226C JUMP JUMPDEST DUP3 DUP5 MSTORE PUSH1 0x20 DUP4 DUP4 ADD ADD GT PUSH3 0x14F2 JUMPI DUP2 PUSH1 0x0 SWAP3 PUSH1 0x20 DUP1 SWAP4 ADD DUP4 DUP7 ADD CALLDATACOPY DUP4 ADD ADD MSTORE SWAP1 JUMP JUMPDEST PUSH1 0x0 SLOAD PUSH1 0x1 PUSH1 0x1 PUSH1 0xA0 SHL SUB AND CALLER SUB PUSH3 0x22FE JUMPI JUMP JUMPDEST PUSH1 0x40 MLOAD PUSH4 0x118CDAA7 PUSH1 0xE0 SHL DUP2 MSTORE CALLER PUSH1 0x4 DUP3 ADD MSTORE PUSH1 0x24 SWAP1 REVERT JUMPDEST PUSH1 0x0 JUMPDEST DUP4 DUP2 LT PUSH3 0x232A JUMPI POP POP PUSH1 0x0 SWAP2 ADD MSTORE JUMP JUMPDEST DUP2 DUP2 ADD MLOAD DUP4 DUP3 ADD MSTORE PUSH1 0x20 ADD PUSH3 0x2319 JUMP JUMPDEST SWAP1 PUSH1 0x20 SWAP2 PUSH3 0x2356 DUP2 MLOAD DUP1 SWAP3 DUP2 DUP6 MSTORE DUP6 DUP1 DUP7 ADD SWAP2 ADD PUSH3 0x2316 JUMP JUMPDEST PUSH1 0x1F ADD PUSH1 0x1F NOT AND ADD ADD SWAP1 JUMP JUMPDEST SWAP4 SWAP1 PUSH3 0x23C7 SWAP6 SWAP4 PUSH3 0x239A PUSH3 0x23B8 SWAP5 PUSH3 0x238B PUSH3 0x23A9 SWAP5 PUSH1 0xA0 DUP11 MSTORE PUSH1 0xA0 DUP11 ADD SWAP1 PUSH3 0x233B JUMP JUMPDEST SWAP1 DUP9 DUP3 SUB PUSH1 0x20 DUP11 ADD MSTORE PUSH3 0x233B JUMP JUMPDEST SWAP1 DUP7 DUP3 SUB PUSH1 0x40 DUP9 ADD MSTORE PUSH3 0x233B JUMP JUMPDEST SWAP1 DUP5 DUP3 SUB PUSH1 0x60 DUP7 ADD MSTORE PUSH3 0x233B JUMP JUMPDEST SWAP2 PUSH1 0x80 DUP2 DUP5 SUB SWAP2 ADD MSTORE PUSH3 0x233B JUMP JUMPDEST SWAP1 JUMP JUMPDEST SWAP1 DUP2 PUSH1 0x20 SWAP2 SUB SLT PUSH3 0x14F2 JUMPI MLOAD DUP1 ISZERO ISZERO DUP2 SUB PUSH3 0x14F2 JUMPI SWAP1 JUMP JUMPDEST PUSH1 0x0 SWAP1 PUSH1 0x3 RETURNDATASIZE GT PUSH3 0x23F2 JUMPI JUMP JUMPDEST SWAP1 POP PUSH1 0x4 PUSH1 0x0 DUP1 RETURNDATACOPY PUSH1 0x0 MLOAD PUSH1 0xE0 SHR SWAP1 JUMP JUMPDEST PUSH1 0x0 PUSH1 0x44 RETURNDATASIZE LT PUSH3 0x23C7 JUMPI PUSH1 0x40 MLOAD PUSH1 0x3 NOT SWAP2 RETURNDATASIZE DUP4 ADD PUSH1 0x4 DUP4 RETURNDATACOPY DUP2 MLOAD PUSH1 0x1 PUSH1 0x1 PUSH1 0x40 SHL SUB SWAP2 DUP3 DUP3 GT RETURNDATASIZE PUSH1 0x24 DUP5 ADD GT OR PUSH3 0x2466 JUMPI DUP2 DUP5 ADD SWAP5 DUP6 MLOAD SWAP4 DUP5 GT PUSH3 0x246E JUMPI RETURNDATASIZE DUP6 ADD ADD PUSH1 0x20 DUP5 DUP8 ADD ADD GT PUSH3 0x2466 JUMPI POP PUSH3 0x23C7 SWAP3 SWAP2 ADD PUSH1 0x20 ADD SWAP1 PUSH3 0x226C JUMP JUMPDEST SWAP5 SWAP4 POP POP POP POP JUMP JUMPDEST POP SWAP5 SWAP4 POP POP POP POP JUMP JUMPDEST PUSH1 0x2D DUP2 MSTORE PUSH32 0x506F6F6C20696E697469616C697A6174696F6E206661696C6564207769746820 PUSH1 0x20 DUP3 ADD MSTORE PUSH13 0x3AB735B737BBB71032B93937B9 PUSH1 0x99 SHL PUSH1 0x40 DUP3 ADD MSTORE PUSH1 0x60 ADD SWAP1 JUMP JUMPDEST PUSH1 0x2A DUP2 MSTORE PUSH32 0x506F736974696F6E206D696E74696E67206661696C6564207769746820756E6B PUSH1 0x20 DUP3 ADD MSTORE PUSH10 0x3737BBB71032B93937B9 PUSH1 0xB1 SHL PUSH1 0x40 DUP3 ADD MSTORE PUSH1 0x60 ADD SWAP1 JUMP INVALID PUSH1 0x40 PUSH1 0x80 DUP2 MSTORE CALLVALUE PUSH3 0x9F1 JUMPI PUSH3 0x167E DUP1 CODESIZE SUB DUP1 PUSH3 0x1E DUP2 PUSH3 0x9F6 JUMP JUMPDEST SWAP3 DUP4 CODECOPY DUP2 ADD PUSH1 0xA0 DUP3 DUP3 SUB SLT PUSH3 0x9F1 JUMPI DUP2 MLOAD PUSH1 0x1 PUSH1 0x1 PUSH1 0x40 SHL SUB DUP2 GT PUSH3 0x9F1 JUMPI DUP2 PUSH3 0x4D SWAP2 DUP5 ADD PUSH3 0xA41 JUMP JUMPDEST PUSH1 0x20 DUP4 ADD MLOAD SWAP1 SWAP2 SWAP1 PUSH1 0x1 PUSH1 0x1 PUSH1 0x40 SHL SUB DUP2 GT PUSH3 0x9F1 JUMPI DUP2 PUSH3 0x72 SWAP2 DUP6 ADD PUSH3 0xA41 JUMP JUMPDEST DUP4 DUP6 ADD MLOAD PUSH1 0x1 PUSH1 0x1 PUSH1 0x40 SHL SUB DUP2 GT PUSH3 0x9F1 JUMPI DUP3 PUSH3 0x93 SWAP2 DUP7 ADD PUSH3 0xA41 JUMP JUMPDEST PUSH1 0x60 DUP6 ADD MLOAD SWAP1 SWAP5 SWAP1 PUSH1 0x1 PUSH1 0x1 PUSH1 0x40 SHL SUB DUP2 GT PUSH3 0x9F1 JUMPI DUP4 PUSH3 0xB8 SWAP2 DUP4 ADD PUSH3 0xA41 JUMP JUMPDEST PUSH1 0x80 DUP3 ADD MLOAD SWAP1 SWAP4 SWAP1 PUSH1 0x1 PUSH1 0x1 PUSH1 0x40 SHL SUB DUP2 GT PUSH3 0x9F1 JUMPI PUSH3 0xDB SWAP3 ADD PUSH3 0xA41 JUMP JUMPDEST DUP4 MLOAD SWAP1 SWAP4 PUSH1 0x1 PUSH1 0x1 PUSH1 0x40 SHL SUB DUP3 GT PUSH3 0x5A1 JUMPI PUSH1 0x3 SLOAD SWAP1 PUSH1 0x1 DUP3 DUP2 SHR SWAP3 AND DUP1 ISZERO PUSH3 0x9E6 JUMPI JUMPDEST PUSH1 0x20 DUP4 LT EQ PUSH3 0x580 JUMPI DUP2 PUSH1 0x1F DUP5 SWAP4 GT PUSH3 0x971 JUMPI JUMPDEST POP PUSH1 0x20 SWAP1 PUSH1 0x1F DUP4 GT PUSH1 0x1 EQ PUSH3 0x8E6 JUMPI PUSH1 0x0 SWAP3 PUSH3 0x8DA JUMPI JUMPDEST POP POP DUP2 PUSH1 0x1 SHL SWAP2 PUSH1 0x0 NOT SWAP1 PUSH1 0x3 SHL SHR NOT AND OR PUSH1 0x3 SSTORE JUMPDEST DUP1 MLOAD SWAP1 PUSH1 0x1 PUSH1 0x1 PUSH1 0x40 SHL SUB DUP3 GT PUSH3 0x5A1 JUMPI PUSH1 0x4 SLOAD SWAP1 PUSH1 0x1 DUP3 DUP2 SHR SWAP3 AND DUP1 ISZERO PUSH3 0x8CF JUMPI JUMPDEST PUSH1 0x20 DUP4 LT EQ PUSH3 0x580 JUMPI DUP2 PUSH1 0x1F DUP5 SWAP4 GT PUSH3 0x85A JUMPI JUMPDEST POP PUSH1 0x20 SWAP1 PUSH1 0x1F DUP4 GT PUSH1 0x1 EQ PUSH3 0x7CF JUMPI PUSH1 0x0 SWAP3 PUSH3 0x7C3 JUMPI JUMPDEST POP POP DUP2 PUSH1 0x1 SHL SWAP2 PUSH1 0x0 NOT SWAP1 PUSH1 0x3 SHL SHR NOT AND OR PUSH1 0x4 SSTORE JUMPDEST CALLER ISZERO PUSH3 0x7AB JUMPI PUSH1 0x5 DUP1 SLOAD CALLER PUSH1 0x1 PUSH1 0x1 PUSH1 0xA0 SHL SUB NOT DUP3 AND DUP2 OR SWAP1 SWAP3 SSTORE PUSH1 0x1 PUSH1 0x1 PUSH1 0xA0 SHL SUB AND PUSH32 0x8BE0079C531659141344CD1FD0A4F28419497F9722A3DAAFE3B4186F6B6457E0 PUSH1 0x0 DUP1 LOG3 PUSH1 0x2 SLOAD PUSH12 0x33B2E3C9FD0803CE8000000 SWAP1 DUP2 DUP2 ADD DUP1 SWAP2 GT PUSH3 0x795 JUMPI PUSH32 0x3C5AD147104E56BE34A9176A6692F7DF8D2F4B29A5AF06BC6B98970D329D6577 SWAP2 PUSH1 0x80 SWAP2 PUSH1 0x2 SSTORE CALLER PUSH1 0x0 MSTORE PUSH1 0x0 PUSH1 0x20 MSTORE DUP7 PUSH1 0x0 KECCAK256 DUP2 DUP2 SLOAD ADD SWAP1 SSTORE DUP7 MLOAD DUP2 DUP2 MSTORE PUSH1 0x0 PUSH32 0xDDF252AD1BE2C89B69C2B068FC378DAA952BA7F163C4A11628F55A4DF523B3EF PUSH1 0x20 CALLER SWAP4 LOG3 DUP7 MLOAD SWAP1 DUP8 DUP3 MSTORE PUSH1 0x15 DUP9 DUP4 ADD MSTORE PUSH32 0x4D696E74656420696E697469616C20737570706C790000000000000000000000 PUSH1 0x60 DUP4 ADD MSTORE PUSH1 0x20 DUP3 ADD MSTORE LOG1 DUP4 MLOAD PUSH1 0x60 DUP2 ADD PUSH1 0x1 PUSH1 0x1 PUSH1 0x40 SHL SUB DUP2 GT DUP3 DUP3 LT OR PUSH3 0x5A1 JUMPI DUP6 MSTORE DUP4 DUP2 MSTORE PUSH1 0x20 DUP2 ADD DUP3 DUP2 MSTORE SWAP1 DUP6 ADD DUP4 DUP2 MSTORE DUP5 MLOAD SWAP1 SWAP2 SWAP1 PUSH1 0x1 PUSH1 0x1 PUSH1 0x40 SHL SUB DUP2 GT PUSH3 0x5A1 JUMPI PUSH1 0x6 SLOAD PUSH1 0x1 DUP2 DUP2 SHR SWAP2 AND DUP1 ISZERO PUSH3 0x78A JUMPI JUMPDEST PUSH1 0x20 DUP3 LT EQ PUSH3 0x580 JUMPI PUSH1 0x1F DUP2 GT PUSH3 0x731 JUMPI JUMPDEST POP DUP1 PUSH1 0x20 PUSH1 0x1F DUP3 GT PUSH1 0x1 EQ PUSH3 0x6B8 JUMPI PUSH1 0x0 SWAP2 PUSH3 0x6AC JUMPI JUMPDEST POP DUP2 PUSH1 0x1 SHL SWAP2 PUSH1 0x0 NOT SWAP1 PUSH1 0x3 SHL SHR NOT AND OR PUSH1 0x6 SSTORE JUMPDEST MLOAD DUP1 MLOAD SWAP1 PUSH1 0x1 PUSH1 0x1 PUSH1 0x40 SHL SUB DUP3 GT PUSH3 0x5A1 JUMPI PUSH1 0x7 SLOAD SWAP1 PUSH1 0x1 DUP3 DUP2 SHR SWAP3 AND DUP1 ISZERO PUSH3 0x6A1 JUMPI JUMPDEST PUSH1 0x20 DUP4 LT EQ PUSH3 0x580 JUMPI DUP2 PUSH1 0x1F DUP5 SWAP4 GT PUSH3 0x63D JUMPI JUMPDEST POP PUSH1 0x20 SWAP1 PUSH1 0x1F DUP4 GT PUSH1 0x1 EQ PUSH3 0x5C3 JUMPI PUSH1 0x0 SWAP3 PUSH3 0x5B7 JUMPI JUMPDEST POP POP DUP2 PUSH1 0x1 SHL SWAP2 PUSH1 0x0 NOT SWAP1 PUSH1 0x3 SHL SHR NOT AND OR PUSH1 0x7 SSTORE JUMPDEST MLOAD DUP1 MLOAD SWAP1 PUSH1 0x1 PUSH1 0x1 PUSH1 0x40 SHL SUB DUP3 GT PUSH3 0x5A1 JUMPI PUSH1 0x8 SLOAD PUSH1 0x1 DUP2 DUP2 SHR SWAP2 AND DUP1 ISZERO PUSH3 0x596 JUMPI JUMPDEST PUSH1 0x20 DUP3 LT EQ PUSH3 0x580 JUMPI PUSH1 0x1F DUP2 GT PUSH3 0x527 JUMPI JUMPDEST POP PUSH1 0x20 SWAP1 PUSH1 0x1F DUP4 GT PUSH1 0x1 EQ PUSH3 0x48D JUMPI PUSH1 0x0 DUP1 MLOAD PUSH1 0x20 PUSH3 0x15FE DUP4 CODECOPY DUP2 MLOAD SWAP2 MSTORE SWAP6 SWAP4 DUP4 PUSH3 0x470 SWAP5 PUSH3 0x453 SWAP8 SWAP5 PUSH3 0x462 SWAP5 PUSH1 0x0 SWAP3 PUSH3 0x481 JUMPI JUMPDEST POP POP DUP2 PUSH1 0x1 SHL SWAP2 PUSH1 0x0 NOT SWAP1 PUSH1 0x3 SHL SHR NOT AND OR PUSH1 0x8 SSTORE JUMPDEST DUP8 MLOAD SWAP6 DUP7 SWAP6 PUSH1 0x60 DUP8 MSTORE PUSH1 0x60 DUP8 ADD SWAP1 PUSH3 0xA98 JUMP JUMPDEST SWAP1 DUP6 DUP3 SUB PUSH1 0x20 DUP8 ADD MSTORE PUSH3 0xA98 JUMP JUMPDEST SWAP1 DUP4 DUP3 SUB DUP8 DUP6 ADD MSTORE PUSH3 0xA98 JUMP JUMPDEST SUB SWAP1 LOG1 MLOAD PUSH2 0xB3E SWAP1 DUP2 PUSH3 0xAC0 DUP3 CODECOPY RETURN JUMPDEST ADD MLOAD SWAP1 POP CODESIZE DUP1 PUSH3 0x429 JUMP JUMPDEST PUSH1 0x8 PUSH1 0x0 SWAP1 DUP2 MSTORE PUSH1 0x0 DUP1 MLOAD PUSH1 0x20 PUSH3 0x163E DUP4 CODECOPY DUP2 MLOAD SWAP2 MSTORE SWAP3 SWAP2 SWAP1 PUSH1 0x1F NOT DUP6 AND SWAP1 JUMPDEST DUP2 DUP2 LT PUSH3 0x50E JUMPI POP DUP5 PUSH3 0x453 SWAP8 SWAP5 PUSH3 0x462 SWAP5 PUSH1 0x0 DUP1 MLOAD PUSH1 0x20 PUSH3 0x15FE DUP4 CODECOPY DUP2 MLOAD SWAP2 MSTORE SWAP11 SWAP9 SWAP5 PUSH3 0x470 SWAP9 PUSH1 0x1 SWAP6 LT PUSH3 0x4F4 JUMPI JUMPDEST POP POP POP DUP2 SHL ADD PUSH1 0x8 SSTORE PUSH3 0x43F JUMP JUMPDEST ADD MLOAD PUSH1 0x0 NOT PUSH1 0xF8 DUP5 PUSH1 0x3 SHL AND SHR NOT AND SWAP1 SSTORE CODESIZE DUP1 DUP1 PUSH3 0x4E5 JUMP JUMPDEST SWAP3 SWAP4 PUSH1 0x20 PUSH1 0x1 DUP2 SWAP3 DUP8 DUP7 ADD MLOAD DUP2 SSTORE ADD SWAP6 ADD SWAP4 ADD PUSH3 0x4AE JUMP JUMPDEST PUSH1 0x8 PUSH1 0x0 MSTORE PUSH1 0x0 DUP1 MLOAD PUSH1 0x20 PUSH3 0x163E DUP4 CODECOPY DUP2 MLOAD SWAP2 MSTORE PUSH1 0x1F DUP5 ADD PUSH1 0x5 SHR DUP2 ADD SWAP2 PUSH1 0x20 DUP6 LT PUSH3 0x575 JUMPI JUMPDEST PUSH1 0x1F ADD PUSH1 0x5 SHR ADD SWAP1 JUMPDEST DUP2 DUP2 LT PUSH3 0x568 JUMPI POP PUSH3 0x3ED JUMP JUMPDEST PUSH1 0x0 DUP2 SSTORE PUSH1 0x1 ADD PUSH3 0x559 JUMP JUMPDEST SWAP1 SWAP2 POP DUP2 SWAP1 PUSH3 0x550 JUMP JUMPDEST PUSH4 0x4E487B71 PUSH1 0xE0 SHL PUSH1 0x0 MSTORE PUSH1 0x22 PUSH1 0x4 MSTORE PUSH1 0x24 PUSH1 0x0 REVERT JUMPDEST SWAP1 PUSH1 0x7F AND SWAP1 PUSH3 0x3D9 JUMP JUMPDEST PUSH4 0x4E487B71 PUSH1 0xE0 SHL PUSH1 0x0 MSTORE PUSH1 0x41 PUSH1 0x4 MSTORE PUSH1 0x24 PUSH1 0x0 REVERT JUMPDEST ADD MLOAD SWAP1 POP CODESIZE DUP1 PUSH3 0x39E JUMP JUMPDEST PUSH1 0x7 PUSH1 0x0 SWAP1 DUP2 MSTORE PUSH1 0x0 DUP1 MLOAD PUSH1 0x20 PUSH3 0x161E DUP4 CODECOPY DUP2 MLOAD SWAP2 MSTORE SWAP4 POP PUSH1 0x1F NOT DUP6 AND SWAP1 JUMPDEST DUP2 DUP2 LT PUSH3 0x624 JUMPI POP SWAP1 DUP5 PUSH1 0x1 SWAP6 SWAP5 SWAP4 SWAP3 LT PUSH3 0x60A JUMPI JUMPDEST POP POP POP DUP2 SHL ADD PUSH1 0x7 SSTORE PUSH3 0x3B4 JUMP JUMPDEST ADD MLOAD PUSH1 0x0 NOT PUSH1 0xF8 DUP5 PUSH1 0x3 SHL AND SHR NOT AND SWAP1 SSTORE CODESIZE DUP1 DUP1 PUSH3 0x5FB JUMP JUMPDEST SWAP3 SWAP4 PUSH1 0x20 PUSH1 0x1 DUP2 SWAP3 DUP8 DUP7 ADD MLOAD DUP2 SSTORE ADD SWAP6 ADD SWAP4 ADD PUSH3 0x5E3 JUMP JUMPDEST PUSH1 0x7 PUSH1 0x0 MSTORE SWAP1 SWAP2 POP PUSH1 0x0 DUP1 MLOAD PUSH1 0x20 PUSH3 0x161E DUP4 CODECOPY DUP2 MLOAD SWAP2 MSTORE PUSH1 0x1F DUP5 ADD PUSH1 0x5 SHR DUP2 ADD SWAP2 PUSH1 0x20 DUP6 LT PUSH3 0x696 JUMPI JUMPDEST SWAP1 PUSH1 0x1F DUP6 SWAP5 SWAP4 SWAP3 ADD PUSH1 0x5 SHR ADD SWAP1 JUMPDEST DUP2 DUP2 LT PUSH3 0x686 JUMPI POP PUSH3 0x385 JUMP JUMPDEST PUSH1 0x0 DUP2 SSTORE DUP5 SWAP4 POP PUSH1 0x1 ADD PUSH3 0x677 JUMP JUMPDEST SWAP1 SWAP2 POP DUP2 SWAP1 PUSH3 0x669 JUMP JUMPDEST SWAP2 PUSH1 0x7F AND SWAP2 PUSH3 0x36F JUMP JUMPDEST SWAP1 POP DUP7 ADD MLOAD CODESIZE PUSH3 0x334 JUMP JUMPDEST PUSH1 0x6 PUSH1 0x0 SWAP1 DUP2 MSTORE SWAP3 POP PUSH1 0x0 DUP1 MLOAD PUSH1 0x20 PUSH3 0x165E DUP4 CODECOPY DUP2 MLOAD SWAP2 MSTORE SWAP1 JUMPDEST PUSH1 0x1F NOT DUP4 AND DUP5 LT PUSH3 0x718 JUMPI PUSH1 0x1 SWAP4 POP DUP3 PUSH1 0x1F NOT DUP2 AND LT PUSH3 0x6FE JUMPI JUMPDEST POP POP DUP2 SHL ADD PUSH1 0x6 SSTORE PUSH3 0x349 JUMP JUMPDEST DUP9 ADD MLOAD PUSH1 0x0 NOT PUSH1 0xF8 DUP5 PUSH1 0x3 SHL AND SHR NOT AND SWAP1 SSTORE CODESIZE DUP1 PUSH3 0x6F0 JUMP JUMPDEST DUP9 DUP2 ADD MLOAD DUP3 SSTORE PUSH1 0x20 SWAP4 DUP5 ADD SWAP4 PUSH1 0x1 SWAP1 SWAP3 ADD SWAP2 ADD PUSH3 0x6D3 JUMP JUMPDEST PUSH1 0x6 PUSH1 0x0 MSTORE PUSH1 0x0 DUP1 MLOAD PUSH1 0x20 PUSH3 0x165E DUP4 CODECOPY DUP2 MLOAD SWAP2 MSTORE PUSH1 0x1F DUP4 ADD PUSH1 0x5 SHR DUP2 ADD SWAP2 PUSH1 0x20 DUP5 LT PUSH3 0x77F JUMPI JUMPDEST PUSH1 0x1F ADD PUSH1 0x5 SHR ADD SWAP1 JUMPDEST DUP2 DUP2 LT PUSH3 0x772 JUMPI POP PUSH3 0x31B JUMP JUMPDEST PUSH1 0x0 DUP2 SSTORE PUSH1 0x1 ADD PUSH3 0x763 JUMP JUMPDEST SWAP1 SWAP2 POP DUP2 SWAP1 PUSH3 0x75A JUMP JUMPDEST SWAP1 PUSH1 0x7F AND SWAP1 PUSH3 0x307 JUMP JUMPDEST PUSH4 0x4E487B71 PUSH1 0xE0 SHL PUSH1 0x0 MSTORE PUSH1 0x11 PUSH1 0x4 MSTORE PUSH1 0x24 PUSH1 0x0 REVERT JUMPDEST DUP4 MLOAD PUSH4 0x1E4FBDF7 PUSH1 0xE0 SHL DUP2 MSTORE PUSH1 0x0 PUSH1 0x4 DUP3 ADD MSTORE PUSH1 0x24 SWAP1 REVERT JUMPDEST ADD MLOAD SWAP1 POP CODESIZE DUP1 PUSH3 0x19A JUMP JUMPDEST PUSH1 0x4 PUSH1 0x0 SWAP1 DUP2 MSTORE PUSH32 0x8A35ACFBC15FF81A39AE7D344FD709F28E8600B4AA8C65C6B64BFE7FE36BD19B SWAP4 POP PUSH1 0x1F NOT DUP6 AND SWAP1 JUMPDEST DUP2 DUP2 LT PUSH3 0x841 JUMPI POP SWAP1 DUP5 PUSH1 0x1 SWAP6 SWAP5 SWAP4 SWAP3 LT PUSH3 0x827 JUMPI JUMPDEST POP POP POP DUP2 SHL ADD PUSH1 0x4 SSTORE PUSH3 0x1B0 JUMP JUMPDEST ADD MLOAD PUSH1 0x0 NOT PUSH1 0xF8 DUP5 PUSH1 0x3 SHL AND SHR NOT AND SWAP1 SSTORE CODESIZE DUP1 DUP1 PUSH3 0x818 JUMP JUMPDEST SWAP3 SWAP4 PUSH1 0x20 PUSH1 0x1 DUP2 SWAP3 DUP8 DUP7 ADD MLOAD DUP2 SSTORE ADD SWAP6 ADD SWAP4 ADD PUSH3 0x800 JUMP JUMPDEST PUSH1 0x4 PUSH1 0x0 MSTORE SWAP1 SWAP2 POP PUSH32 0x8A35ACFBC15FF81A39AE7D344FD709F28E8600B4AA8C65C6B64BFE7FE36BD19B PUSH1 0x1F DUP5 ADD PUSH1 0x5 SHR DUP2 ADD SWAP2 PUSH1 0x20 DUP6 LT PUSH3 0x8C4 JUMPI JUMPDEST SWAP1 PUSH1 0x1F DUP6 SWAP5 SWAP4 SWAP3 ADD PUSH1 0x5 SHR ADD SWAP1 JUMPDEST DUP2 DUP2 LT PUSH3 0x8B4 JUMPI POP PUSH3 0x181 JUMP JUMPDEST PUSH1 0x0 DUP2 SSTORE DUP5 SWAP4 POP PUSH1 0x1 ADD PUSH3 0x8A5 JUMP JUMPDEST SWAP1 SWAP2 POP DUP2 SWAP1 PUSH3 0x897 JUMP JUMPDEST SWAP2 PUSH1 0x7F AND SWAP2 PUSH3 0x16B JUMP JUMPDEST ADD MLOAD SWAP1 POP CODESIZE DUP1 PUSH3 0x130 JUMP JUMPDEST PUSH1 0x3 PUSH1 0x0 SWAP1 DUP2 MSTORE PUSH32 0xC2575A0E9E593C00F959F8C92F12DB2869C3395A3B0502D05E2516446F71F85B SWAP4 POP PUSH1 0x1F NOT DUP6 AND SWAP1 JUMPDEST DUP2 DUP2 LT PUSH3 0x958 JUMPI POP SWAP1 DUP5 PUSH1 0x1 SWAP6 SWAP5 SWAP4 SWAP3 LT PUSH3 0x93E JUMPI JUMPDEST POP POP POP DUP2 SHL ADD PUSH1 0x3 SSTORE PUSH3 0x146 JUMP JUMPDEST ADD MLOAD PUSH1 0x0 NOT PUSH1 0xF8 DUP5 PUSH1 0x3 SHL AND SHR NOT AND SWAP1 SSTORE CODESIZE DUP1 DUP1 PUSH3 0x92F JUMP JUMPDEST SWAP3 SWAP4 PUSH1 0x20 PUSH1 0x1 DUP2 SWAP3 DUP8 DUP7 ADD MLOAD DUP2 SSTORE ADD SWAP6 ADD SWAP4 ADD PUSH3 0x917 JUMP JUMPDEST PUSH1 0x3 PUSH1 0x0 MSTORE SWAP1 SWAP2 POP PUSH32 0xC2575A0E9E593C00F959F8C92F12DB2869C3395A3B0502D05E2516446F71F85B PUSH1 0x1F DUP5 ADD PUSH1 0x5 SHR DUP2 ADD SWAP2 PUSH1 0x20 DUP6 LT PUSH3 0x9DB JUMPI JUMPDEST SWAP1 PUSH1 0x1F DUP6 SWAP5 SWAP4 SWAP3 ADD PUSH1 0x5 SHR ADD SWAP1 JUMPDEST DUP2 DUP2 LT PUSH3 0x9CB JUMPI POP PUSH3 0x117 JUMP JUMPDEST PUSH1 0x0 DUP2 SSTORE DUP5 SWAP4 POP PUSH1 0x1 ADD PUSH3 0x9BC JUMP JUMPDEST SWAP1 SWAP2 POP DUP2 SWAP1 PUSH3 0x9AE JUMP JUMPDEST SWAP2 PUSH1 0x7F AND SWAP2 PUSH3 0x101 JUMP JUMPDEST PUSH1 0x0 DUP1 REVERT JUMPDEST PUSH1 0x40 MLOAD SWAP2 SWAP1 PUSH1 0x1F ADD PUSH1 0x1F NOT AND DUP3 ADD PUSH1 0x1 PUSH1 0x1 PUSH1 0x40 SHL SUB DUP2 GT DUP4 DUP3 LT OR PUSH3 0x5A1 JUMPI PUSH1 0x40 MSTORE JUMP JUMPDEST PUSH1 0x0 JUMPDEST DUP4 DUP2 LT PUSH3 0xA30 JUMPI POP POP PUSH1 0x0 SWAP2 ADD MSTORE JUMP JUMPDEST DUP2 DUP2 ADD MLOAD DUP4 DUP3 ADD MSTORE PUSH1 0x20 ADD PUSH3 0xA1F JUMP JUMPDEST DUP2 PUSH1 0x1F DUP3 ADD SLT ISZERO PUSH3 0x9F1 JUMPI DUP1 MLOAD PUSH1 0x1 PUSH1 0x1 PUSH1 0x40 SHL SUB DUP2 GT PUSH3 0x5A1 JUMPI PUSH3 0xA73 PUSH1 0x1F DUP3 ADD PUSH1 0x1F NOT AND PUSH1 0x20 ADD PUSH3 0x9F6 JUMP JUMPDEST SWAP3 DUP2 DUP5 MSTORE PUSH1 0x20 DUP3 DUP5 ADD ADD GT PUSH3 0x9F1 JUMPI PUSH3 0xA95 SWAP2 PUSH1 0x20 DUP1 DUP6 ADD SWAP2 ADD PUSH3 0xA1C JUMP JUMPDEST SWAP1 JUMP JUMPDEST SWAP1 PUSH1 0x20 SWAP2 PUSH3 0xAB3 DUP2 MLOAD DUP1 SWAP3 DUP2 DUP6 MSTORE DUP6 DUP1 DUP7 ADD SWAP2 ADD PUSH3 0xA1C JUMP JUMPDEST PUSH1 0x1F ADD PUSH1 0x1F NOT AND ADD ADD SWAP1 JUMP INVALID PUSH1 0x80 PUSH1 0x40 DUP2 DUP2 MSTORE PUSH1 0x4 DUP1 CALLDATASIZE LT ISZERO PUSH2 0x21 JUMPI JUMPDEST POP POP POP CALLDATASIZE ISZERO PUSH2 0x1F JUMPI PUSH1 0x0 DUP1 REVERT JUMPDEST STOP JUMPDEST PUSH1 0x0 SWAP3 DUP4 CALLDATALOAD PUSH1 0xE0 SHR SWAP1 DUP2 PUSH4 0x6FDDE03 EQ PUSH2 0x5CE JUMPI POP DUP1 PUSH4 0x95EA7B3 EQ PUSH2 0x525 JUMPI DUP1 PUSH4 0x18160DDD EQ PUSH2 0x506 JUMPI DUP1 PUSH4 0x23B872DD EQ PUSH2 0x413 JUMPI DUP1 PUSH4 0x313CE567 EQ PUSH2 0x3F7 JUMPI DUP1 PUSH4 0x70A08231 EQ PUSH2 0x3C0 JUMPI DUP1 PUSH4 0x715018A6 EQ PUSH2 0x363 JUMPI DUP1 PUSH4 0x8DA5CB5B EQ PUSH2 0x33A JUMPI DUP1 PUSH4 0x93427CD5 EQ PUSH2 0x1D4 JUMPI DUP1 PUSH4 0x95D89B41 EQ PUSH2 0x215 JUMPI DUP1 PUSH4 0xA8FB7D40 EQ PUSH2 0x1D4 JUMPI DUP1 PUSH4 0xA9059CBB EQ PUSH2 0x1A3 JUMPI DUP1 PUSH4 0xDD62ED3E EQ PUSH2 0x156 JUMPI PUSH4 0xF2FDE38B SUB PUSH2 0x11 JUMPI CALLVALUE PUSH2 0x152 JUMPI PUSH1 0x20 CALLDATASIZE PUSH1 0x3 NOT ADD SLT PUSH2 0x152 JUMPI PUSH2 0xDD PUSH2 0x70C JUMP JUMPDEST SWAP1 PUSH2 0xE6 PUSH2 0x9FE JUMP JUMPDEST PUSH1 0x1 PUSH1 0x1 PUSH1 0xA0 SHL SUB SWAP2 DUP3 AND SWAP3 DUP4 ISZERO PUSH2 0x13C JUMPI POP POP PUSH1 0x5 SLOAD DUP3 PUSH12 0xFFFFFFFFFFFFFFFFFFFFFFFF PUSH1 0xA0 SHL DUP3 AND OR PUSH1 0x5 SSTORE AND PUSH32 0x8BE0079C531659141344CD1FD0A4F28419497F9722A3DAAFE3B4186F6B6457E0 DUP4 DUP1 LOG3 DUP1 RETURN JUMPDEST MLOAD PUSH4 0x1E4FBDF7 PUSH1 0xE0 SHL DUP2 MSTORE SWAP1 DUP2 ADD DUP5 SWAP1 MSTORE PUSH1 0x24 SWAP1 REVERT JUMPDEST DUP3 DUP1 REVERT JUMPDEST POP POP CALLVALUE PUSH2 0x19F JUMPI DUP1 PUSH1 0x3 NOT CALLDATASIZE ADD SLT PUSH2 0x19F JUMPI DUP1 PUSH1 0x20 SWAP3 PUSH2 0x174 PUSH2 0x70C JUMP JUMPDEST PUSH2 0x17C PUSH2 0x727 JUMP JUMPDEST PUSH1 0x1 PUSH1 0x1 PUSH1 0xA0 SHL SUB SWAP2 DUP3 AND DUP4 MSTORE PUSH1 0x1 DUP7 MSTORE DUP4 DUP4 KECCAK256 SWAP2 AND DUP3 MSTORE DUP5 MSTORE KECCAK256 SLOAD SWAP1 MLOAD SWAP1 DUP2 MSTORE RETURN JUMPDEST POP DUP1 REVERT JUMPDEST POP POP CALLVALUE PUSH2 0x19F JUMPI DUP1 PUSH1 0x3 NOT CALLDATASIZE ADD SLT PUSH2 0x19F JUMPI PUSH1 0x20 SWAP1 PUSH2 0x1CD PUSH2 0x1C3 PUSH2 0x70C JUMP JUMPDEST PUSH1 0x24 CALLDATALOAD SWAP1 CALLER PUSH2 0xA2A JUMP JUMPDEST MLOAD PUSH1 0x1 DUP2 MSTORE RETURN JUMPDEST DUP3 DUP5 CALLVALUE PUSH2 0x212 JUMPI DUP1 PUSH1 0x3 NOT CALLDATASIZE ADD SLT PUSH2 0x212 JUMPI POP PUSH2 0x1EF PUSH2 0x777 JUMP JUMPDEST PUSH2 0x20E PUSH2 0x1FA PUSH2 0x87E JUMP JUMPDEST SWAP3 PUSH2 0x203 PUSH2 0x93E JUMP JUMPDEST SWAP1 MLOAD SWAP4 DUP5 SWAP4 DUP5 PUSH2 0x73D JUMP JUMPDEST SUB SWAP1 RETURN JUMPDEST DUP1 REVERT JUMPDEST POP SWAP2 SWAP1 CALLVALUE PUSH2 0x19F JUMPI DUP2 PUSH1 0x3 NOT CALLDATASIZE ADD SLT PUSH2 0x19F JUMPI DUP1 MLOAD SWAP1 DUP3 SWAP1 DUP5 SLOAD SWAP2 PUSH1 0x1 DUP4 DUP2 SHR SWAP1 DUP1 DUP6 AND SWAP5 DUP6 ISZERO PUSH2 0x330 JUMPI JUMPDEST PUSH1 0x20 SWAP6 DUP7 DUP5 LT DUP2 EQ PUSH2 0x31D JUMPI DUP4 DUP9 MSTORE SWAP1 DUP7 SWAP1 DUP3 ISZERO PUSH2 0x301 JUMPI POP POP PUSH1 0x1 EQ PUSH2 0x2AD JUMPI JUMPDEST POP POP DUP4 SWAP1 SUB PUSH1 0x1F ADD PUSH1 0x1F NOT AND DUP4 ADD SWAP4 PUSH8 0xFFFFFFFFFFFFFFFF DUP6 GT DUP5 DUP7 LT OR PUSH2 0x29A JUMPI POP SWAP2 PUSH2 0x20E SWAP2 DUP5 DUP1 SWAP5 MSTORE DUP1 DUP5 MSTORE DUP4 ADD SWAP1 PUSH2 0x6CC JUMP JUMPDEST PUSH4 0x4E487B71 PUSH1 0xE0 SHL DUP2 MSTORE PUSH1 0x41 DUP7 MSTORE PUSH1 0x24 SWAP1 REVERT JUMPDEST DUP8 DUP8 MSTORE DUP5 SWAP3 POP DUP7 SWAP2 SWAP1 PUSH32 0x8A35ACFBC15FF81A39AE7D344FD709F28E8600B4AA8C65C6B64BFE7FE36BD19B JUMPDEST DUP3 DUP5 LT PUSH2 0x2EC JUMPI POP POP POP DUP5 ADD ADD CODESIZE DUP1 PUSH2 0x263 JUMP JUMPDEST DUP1 SLOAD DUP9 DUP6 ADD DUP7 ADD MSTORE DUP7 SWAP5 SWAP1 SWAP4 ADD SWAP3 DUP2 ADD PUSH2 0x2D8 JUMP JUMPDEST SWAP3 POP SWAP4 POP POP PUSH1 0xFF NOT AND DUP3 DUP7 ADD MSTORE ISZERO ISZERO PUSH1 0x5 SHL DUP5 ADD ADD CODESIZE DUP1 PUSH2 0x263 JUMP JUMPDEST PUSH4 0x4E487B71 PUSH1 0xE0 SHL DUP10 MSTORE PUSH1 0x22 DUP11 MSTORE PUSH1 0x24 DUP10 REVERT JUMPDEST SWAP2 PUSH1 0x7F AND SWAP2 PUSH2 0x241 JUMP JUMPDEST POP POP CALLVALUE PUSH2 0x19F JUMPI DUP2 PUSH1 0x3 NOT CALLDATASIZE ADD SLT PUSH2 0x19F JUMPI PUSH1 0x5 SLOAD SWAP1 MLOAD PUSH1 0x1 PUSH1 0x1 PUSH1 0xA0 SHL SUB SWAP1 SWAP2 AND DUP2 MSTORE PUSH1 0x20 SWAP1 RETURN JUMPDEST DUP4 CALLVALUE PUSH2 0x212 JUMPI DUP1 PUSH1 0x3 NOT CALLDATASIZE ADD SLT PUSH2 0x212 JUMPI PUSH2 0x37C PUSH2 0x9FE JUMP JUMPDEST PUSH1 0x5 DUP1 SLOAD PUSH1 0x1 PUSH1 0x1 PUSH1 0xA0 SHL SUB NOT DUP2 AND SWAP1 SWAP2 SSTORE DUP2 SWAP1 PUSH1 0x1 PUSH1 0x1 PUSH1 0xA0 SHL SUB AND PUSH32 0x8BE0079C531659141344CD1FD0A4F28419497F9722A3DAAFE3B4186F6B6457E0 DUP3 DUP1 LOG3 DUP1 RETURN JUMPDEST POP POP CALLVALUE PUSH2 0x19F JUMPI PUSH1 0x20 CALLDATASIZE PUSH1 0x3 NOT ADD SLT PUSH2 0x19F JUMPI PUSH1 0x20 SWAP2 DUP2 SWAP1 PUSH1 0x1 PUSH1 0x1 PUSH1 0xA0 SHL SUB PUSH2 0x3E8 PUSH2 0x70C JUMP JUMPDEST AND DUP2 MSTORE DUP1 DUP5 MSTORE KECCAK256 SLOAD SWAP1 MLOAD SWAP1 DUP2 MSTORE RETURN JUMPDEST POP POP CALLVALUE PUSH2 0x19F JUMPI DUP2 PUSH1 0x3 NOT CALLDATASIZE ADD SLT PUSH2 0x19F JUMPI PUSH1 0x20 SWAP1 MLOAD PUSH1 0x12 DUP2 MSTORE RETURN JUMPDEST POP DUP3 CALLVALUE PUSH2 0x212 JUMPI PUSH1 0x60 CALLDATASIZE PUSH1 0x3 NOT ADD SLT PUSH2 0x212 JUMPI PUSH2 0x42E PUSH2 0x70C JUMP JUMPDEST PUSH2 0x436 PUSH2 0x727 JUMP JUMPDEST SWAP2 PUSH1 0x44 CALLDATALOAD SWAP4 PUSH1 0x1 DUP1 PUSH1 0xA0 SHL SUB DUP4 AND DUP1 DUP4 MSTORE PUSH1 0x1 PUSH1 0x20 MSTORE DUP7 DUP4 KECCAK256 CALLER DUP5 MSTORE PUSH1 0x20 MSTORE DUP7 DUP4 KECCAK256 SLOAD SWAP2 PUSH1 0x0 NOT DUP4 LT PUSH2 0x472 JUMPI JUMPDEST PUSH1 0x20 DUP9 PUSH2 0x1CD DUP10 DUP10 DUP10 PUSH2 0xA2A JUMP JUMPDEST DUP7 DUP4 LT PUSH2 0x4DA JUMPI DUP2 ISZERO PUSH2 0x4C3 JUMPI CALLER ISZERO PUSH2 0x4AC JUMPI POP DUP3 MSTORE PUSH1 0x1 PUSH1 0x20 SWAP1 DUP2 MSTORE DUP7 DUP4 KECCAK256 CALLER DUP5 MSTORE DUP2 MSTORE SWAP2 DUP7 SWAP1 KECCAK256 SWAP1 DUP6 SWAP1 SUB SWAP1 SSTORE DUP3 SWAP1 PUSH2 0x1CD DUP8 PUSH2 0x464 JUMP JUMPDEST DUP8 MLOAD PUSH4 0x4A1406B1 PUSH1 0xE1 SHL DUP2 MSTORE SWAP1 DUP2 ADD DUP5 SWAP1 MSTORE PUSH1 0x24 SWAP1 REVERT JUMPDEST DUP8 MLOAD PUSH4 0xE602DF05 PUSH1 0xE0 SHL DUP2 MSTORE SWAP1 DUP2 ADD DUP5 SWAP1 MSTORE PUSH1 0x24 SWAP1 REVERT JUMPDEST DUP8 MLOAD PUSH4 0x7DC7A0D9 PUSH1 0xE1 SHL DUP2 MSTORE CALLER SWAP2 DUP2 ADD SWAP2 DUP3 MSTORE PUSH1 0x20 DUP3 ADD SWAP4 SWAP1 SWAP4 MSTORE PUSH1 0x40 DUP2 ADD DUP8 SWAP1 MSTORE DUP3 SWAP2 POP PUSH1 0x60 ADD SUB SWAP1 REVERT JUMPDEST POP POP CALLVALUE PUSH2 0x19F JUMPI DUP2 PUSH1 0x3 NOT CALLDATASIZE ADD SLT PUSH2 0x19F JUMPI PUSH1 0x20 SWAP1 PUSH1 0x2 SLOAD SWAP1 MLOAD SWAP1 DUP2 MSTORE RETURN JUMPDEST POP CALLVALUE PUSH2 0x152 JUMPI DUP2 PUSH1 0x3 NOT CALLDATASIZE ADD SLT PUSH2 0x152 JUMPI PUSH2 0x53E PUSH2 0x70C JUMP JUMPDEST PUSH1 0x24 CALLDATALOAD SWAP1 CALLER ISZERO PUSH2 0x5B7 JUMPI PUSH1 0x1 PUSH1 0x1 PUSH1 0xA0 SHL SUB AND SWAP2 DUP3 ISZERO PUSH2 0x5A0 JUMPI POP DUP1 DUP4 PUSH1 0x20 SWAP6 CALLER DUP2 MSTORE PUSH1 0x1 DUP8 MSTORE DUP2 DUP2 KECCAK256 DUP6 DUP3 MSTORE DUP8 MSTORE KECCAK256 SSTORE DUP3 MLOAD SWAP1 DUP2 MSTORE PUSH32 0x8C5BE1E5EBEC7D5BD14F71427D1E84F3DD0314C0F7B2291E5B200AC8C7C3B925 DUP5 CALLER SWAP3 LOG3 MLOAD PUSH1 0x1 DUP2 MSTORE RETURN JUMPDEST DUP4 MLOAD PUSH4 0x4A1406B1 PUSH1 0xE1 SHL DUP2 MSTORE SWAP1 DUP2 ADD DUP6 SWAP1 MSTORE PUSH1 0x24 SWAP1 REVERT JUMPDEST DUP4 MLOAD PUSH4 0xE602DF05 PUSH1 0xE0 SHL DUP2 MSTORE DUP1 DUP5 ADD DUP7 SWAP1 MSTORE PUSH1 0x24 SWAP1 REVERT JUMPDEST DUP5 SWAP2 POP DUP4 CALLVALUE PUSH2 0x152 JUMPI DUP3 PUSH1 0x3 NOT CALLDATASIZE ADD SLT PUSH2 0x152 JUMPI DUP3 SWAP1 PUSH1 0x3 SLOAD SWAP2 PUSH1 0x1 DUP4 DUP2 SHR SWAP1 DUP1 DUP6 AND SWAP5 DUP6 ISZERO PUSH2 0x6C2 JUMPI JUMPDEST PUSH1 0x20 SWAP6 DUP7 DUP5 LT DUP2 EQ PUSH2 0x31D JUMPI DUP4 DUP9 MSTORE SWAP1 DUP7 SWAP1 DUP3 ISZERO PUSH2 0x6A6 JUMPI POP POP PUSH1 0x1 EQ PUSH2 0x651 JUMPI POP POP DUP4 SWAP1 SUB PUSH1 0x1F ADD PUSH1 0x1F NOT AND DUP4 ADD SWAP4 PUSH8 0xFFFFFFFFFFFFFFFF DUP6 GT DUP5 DUP7 LT OR PUSH2 0x29A JUMPI POP SWAP2 PUSH2 0x20E SWAP2 DUP5 DUP1 SWAP5 MSTORE DUP1 DUP5 MSTORE DUP4 ADD SWAP1 PUSH2 0x6CC JUMP JUMPDEST PUSH1 0x3 DUP8 MSTORE DUP5 SWAP3 POP DUP7 SWAP2 SWAP1 PUSH32 0xC2575A0E9E593C00F959F8C92F12DB2869C3395A3B0502D05E2516446F71F85B JUMPDEST DUP3 DUP5 LT PUSH2 0x691 JUMPI POP POP POP DUP5 ADD ADD DUP7 DUP1 PUSH2 0x263 JUMP JUMPDEST DUP1 SLOAD DUP9 DUP6 ADD DUP7 ADD MSTORE DUP7 SWAP5 SWAP1 SWAP4 ADD SWAP3 DUP2 ADD PUSH2 0x67D JUMP JUMPDEST SWAP3 POP SWAP4 POP POP PUSH1 0xFF NOT AND DUP3 DUP7 ADD MSTORE ISZERO ISZERO PUSH1 0x5 SHL DUP5 ADD ADD DUP7 DUP1 PUSH2 0x263 JUMP JUMPDEST SWAP2 PUSH1 0x7F AND SWAP2 PUSH2 0x5F9 JUMP JUMPDEST SWAP2 SWAP1 DUP3 MLOAD SWAP3 DUP4 DUP3 MSTORE PUSH1 0x0 JUMPDEST DUP5 DUP2 LT PUSH2 0x6F8 JUMPI POP POP DUP3 PUSH1 0x0 PUSH1 0x20 DUP1 SWAP5 SWAP6 DUP5 ADD ADD MSTORE PUSH1 0x1F DUP1 NOT SWAP2 ADD AND ADD ADD SWAP1 JUMP JUMPDEST PUSH1 0x20 DUP2 DUP4 ADD DUP2 ADD MLOAD DUP5 DUP4 ADD DUP3 ADD MSTORE ADD PUSH2 0x6D7 JUMP JUMPDEST PUSH1 0x4 CALLDATALOAD SWAP1 PUSH1 0x1 PUSH1 0x1 PUSH1 0xA0 SHL SUB DUP3 AND DUP3 SUB PUSH2 0x722 JUMPI JUMP JUMPDEST PUSH1 0x0 DUP1 REVERT JUMPDEST PUSH1 0x24 CALLDATALOAD SWAP1 PUSH1 0x1 PUSH1 0x1 PUSH1 0xA0 SHL SUB DUP3 AND DUP3 SUB PUSH2 0x722 JUMPI JUMP JUMPDEST SWAP2 PUSH2 0x766 SWAP1 PUSH2 0x758 PUSH2 0x774 SWAP6 SWAP4 PUSH1 0x60 DUP7 MSTORE PUSH1 0x60 DUP7 ADD SWAP1 PUSH2 0x6CC JUMP JUMPDEST SWAP1 DUP5 DUP3 SUB PUSH1 0x20 DUP7 ADD MSTORE PUSH2 0x6CC JUMP JUMPDEST SWAP2 PUSH1 0x40 DUP2 DUP5 SUB SWAP2 ADD MSTORE PUSH2 0x6CC JUMP JUMPDEST SWAP1 JUMP JUMPDEST PUSH1 0x40 MLOAD SWAP1 PUSH1 0x0 PUSH1 0x6 SLOAD PUSH1 0x1 DUP2 DUP2 SHR SWAP1 DUP1 DUP4 AND SWAP3 DUP4 ISZERO PUSH2 0x874 JUMPI JUMPDEST PUSH1 0x20 SWAP4 DUP5 DUP5 LT DUP2 EQ PUSH2 0x860 JUMPI DUP4 DUP9 MSTORE SWAP1 DUP2 ISZERO PUSH2 0x844 JUMPI POP PUSH1 0x1 EQ PUSH2 0x7ED JUMPI JUMPDEST POP POP POP DUP3 SWAP1 SUB PUSH1 0x1F ADD PUSH1 0x1F NOT AND DUP3 ADD PUSH8 0xFFFFFFFFFFFFFFFF DUP2 GT DUP4 DUP3 LT OR PUSH2 0x7D7 JUMPI PUSH1 0x40 MSTORE JUMP JUMPDEST PUSH4 0x4E487B71 PUSH1 0xE0 SHL PUSH1 0x0 MSTORE PUSH1 0x41 PUSH1 0x4 MSTORE PUSH1 0x24 PUSH1 0x0 REVERT JUMPDEST PUSH1 0x6 PUSH1 0x0 SWAP1 DUP2 MSTORE SWAP3 SWAP4 POP DUP4 PUSH32 0xF652222313E28459528D920B65115C16C04F3EFC82AAEDC97BE59F3F377C0D3F JUMPDEST DUP4 DUP6 LT PUSH2 0x830 JUMPI POP POP POP POP DUP4 ADD ADD CODESIZE DUP1 DUP1 PUSH2 0x7B0 JUMP JUMPDEST DUP1 SLOAD DUP9 DUP7 ADD DUP4 ADD MSTORE SWAP4 ADD SWAP3 DUP5 SWAP1 DUP3 ADD PUSH2 0x81A JUMP JUMPDEST PUSH1 0xFF NOT AND DUP8 DUP6 ADD MSTORE POP POP ISZERO ISZERO PUSH1 0x5 SHL DUP5 ADD ADD SWAP1 POP CODESIZE DUP1 DUP1 PUSH2 0x7B0 JUMP JUMPDEST PUSH4 0x4E487B71 PUSH1 0xE0 SHL DUP7 MSTORE PUSH1 0x22 PUSH1 0x4 MSTORE PUSH1 0x24 DUP7 REVERT JUMPDEST SWAP2 PUSH1 0x7F AND SWAP2 PUSH2 0x791 JUMP JUMPDEST PUSH1 0x40 MLOAD SWAP1 PUSH1 0x0 PUSH1 0x7 SLOAD PUSH1 0x1 DUP2 DUP2 SHR SWAP1 DUP1 DUP4 AND SWAP3 DUP4 ISZERO PUSH2 0x934 JUMPI JUMPDEST PUSH1 0x20 SWAP4 DUP5 DUP5 LT DUP2 EQ PUSH2 0x860 JUMPI DUP4 DUP9 MSTORE SWAP1 DUP2 ISZERO PUSH2 0x844 JUMPI POP PUSH1 0x1 EQ PUSH2 0x8DD JUMPI POP POP POP DUP3 SWAP1 SUB PUSH1 0x1F ADD PUSH1 0x1F NOT AND DUP3 ADD PUSH8 0xFFFFFFFFFFFFFFFF DUP2 GT DUP4 DUP3 LT OR PUSH2 0x7D7 JUMPI PUSH1 0x40 MSTORE JUMP JUMPDEST PUSH1 0x7 PUSH1 0x0 SWAP1 DUP2 MSTORE SWAP3 SWAP4 POP DUP4 PUSH32 0xA66CC928B5EDB82AF9BD49922954155AB7B0942694BEA4CE44661D9A8736C688 JUMPDEST DUP4 DUP6 LT PUSH2 0x920 JUMPI POP POP POP POP DUP4 ADD ADD CODESIZE DUP1 DUP1 PUSH2 0x7B0 JUMP JUMPDEST DUP1 SLOAD DUP9 DUP7 ADD DUP4 ADD MSTORE SWAP4 ADD SWAP3 DUP5 SWAP1 DUP3 ADD PUSH2 0x90A JUMP JUMPDEST SWAP2 PUSH1 0x7F AND SWAP2 PUSH2 0x898 JUMP JUMPDEST PUSH1 0x40 MLOAD SWAP1 PUSH1 0x0 PUSH1 0x8 SLOAD PUSH1 0x1 DUP2 DUP2 SHR SWAP1 DUP1 DUP4 AND SWAP3 DUP4 ISZERO PUSH2 0x9F4 JUMPI JUMPDEST PUSH1 0x20 SWAP4 DUP5 DUP5 LT DUP2 EQ PUSH2 0x860 JUMPI DUP4 DUP9 MSTORE SWAP1 DUP2 ISZERO PUSH2 0x844 JUMPI POP PUSH1 0x1 EQ PUSH2 0x99D JUMPI POP POP POP DUP3 SWAP1 SUB PUSH1 0x1F ADD PUSH1 0x1F NOT AND DUP3 ADD PUSH8 0xFFFFFFFFFFFFFFFF DUP2 GT DUP4 DUP3 LT OR PUSH2 0x7D7 JUMPI PUSH1 0x40 MSTORE JUMP JUMPDEST PUSH1 0x8 PUSH1 0x0 SWAP1 DUP2 MSTORE SWAP3 SWAP4 POP DUP4 PUSH32 0xF3F7A9FE364FAAB93B216DA50A3214154F22A0A2B415B23A84C8169E8B636EE3 JUMPDEST DUP4 DUP6 LT PUSH2 0x9E0 JUMPI POP POP POP POP DUP4 ADD ADD CODESIZE DUP1 DUP1 PUSH2 0x7B0 JUMP JUMPDEST DUP1 SLOAD DUP9 DUP7 ADD DUP4 ADD MSTORE SWAP4 ADD SWAP3 DUP5 SWAP1 DUP3 ADD PUSH2 0x9CA JUMP JUMPDEST SWAP2 PUSH1 0x7F AND SWAP2 PUSH2 0x958 JUMP JUMPDEST PUSH1 0x5 SLOAD PUSH1 0x1 PUSH1 0x1 PUSH1 0xA0 SHL SUB AND CALLER SUB PUSH2 0xA12 JUMPI JUMP JUMPDEST PUSH1 0x40 MLOAD PUSH4 0x118CDAA7 PUSH1 0xE0 SHL DUP2 MSTORE CALLER PUSH1 0x4 DUP3 ADD MSTORE PUSH1 0x24 SWAP1 REVERT JUMPDEST SWAP2 PUSH1 0x1 PUSH1 0x1 PUSH1 0xA0 SHL SUB DUP1 DUP5 AND SWAP3 DUP4 ISZERO PUSH2 0xAEF JUMPI AND SWAP3 DUP4 ISZERO PUSH2 0xAD6 JUMPI PUSH1 0x0 SWAP1 DUP4 DUP3 MSTORE DUP2 PUSH1 0x20 MSTORE PUSH1 0x40 DUP3 KECCAK256 SLOAD SWAP1 DUP4 DUP3 LT PUSH2 0xAA4 JUMPI POP SWAP2 PUSH1 0x40 DUP3 DUP3 PUSH32 0xDDF252AD1BE2C89B69C2B068FC378DAA952BA7F163C4A11628F55A4DF523B3EF SWAP6 DUP8 PUSH1 0x20 SWAP7 MSTORE DUP3 DUP7 MSTORE SUB DUP3 DUP3 KECCAK256 SSTORE DUP7 DUP2 MSTORE KECCAK256 DUP2 DUP2 SLOAD ADD SWAP1 SSTORE PUSH1 0x40 MLOAD SWAP1 DUP2 MSTORE LOG3 JUMP JUMPDEST PUSH1 0x40 MLOAD PUSH4 0x391434E3 PUSH1 0xE2 SHL DUP2 MSTORE PUSH1 0x1 PUSH1 0x1 PUSH1 0xA0 SHL SUB SWAP2 SWAP1 SWAP2 AND PUSH1 0x4 DUP3 ADD MSTORE PUSH1 0x24 DUP2 ADD SWAP2 SWAP1 SWAP2 MSTORE PUSH1 0x44 DUP2 ADD DUP4 SWAP1 MSTORE PUSH1 0x64 SWAP1 REVERT JUMPDEST PUSH1 0x40 MLOAD PUSH4 0xEC442F05 PUSH1 0xE0 SHL DUP2 MSTORE PUSH1 0x0 PUSH1 0x4 DUP3 ADD MSTORE PUSH1 0x24 SWAP1 REVERT JUMPDEST PUSH1 0x40 MLOAD PUSH4 0x4B637E8F PUSH1 0xE1 SHL DUP2 MSTORE PUSH1 0x0 PUSH1 0x4 DUP3 ADD MSTORE PUSH1 0x24 SWAP1 REVERT INVALID LOG2 PUSH5 0x6970667358 0x22 SLT KECCAK256 JUMP 0xEE PUSH32 0x86FA7923ED21E00486A8D703FADEDC51E204233AC7D111FDDF8C04C0B464736F PUSH13 0x6343000814003341105F733C92 0xE7 BALANCE PUSH8 0x3DB8D7877F039F0C 0xCE EXTCODESIZE 0xC6 NUMBER PUSH14 0x38E5C37BCE47F2A4B149A66CC928 0xB5 0xED 0xB8 0x2A 0xF9 0xBD 0x49 SWAP3 0x29 SLOAD ISZERO GAS 0xB7 0xB0 SWAP5 0x26 SWAP5 0xBE LOG4 0xCE PREVRANDAO PUSH7 0x1D9A8736C688F3 0xF7 0xA9 INVALID CALLDATASIZE 0x4F 0xAA 0xB9 EXTCODESIZE 0x21 PUSH14 0xA50A3214154F22A0A2B415B23A84 0xC8 AND SWAP15 DUP12 PUSH4 0x6EE3F652 0x22 0x23 SGT 0xE2 DUP5 MSIZE MSTORE DUP14 SWAP3 SIGNEXTEND PUSH6 0x115C16C04F3E 0xFC DUP3 0xAA 0xED 0xC9 PUSH28 0xE59F3F377C0D3F3C5AD147104E56BE34A9176A6692F7DF8D2F4B29A5 0xAF MOD 0xBC PUSH12 0x98970D329D6577A264697066 PUSH20 0x58221220961B810A47455E49F86E140397459619 LOG4 DUP7 0xAD SGT 0xEA 0x5D LOG1 BLOCKHASH 0xAE 0xB8 ORIGIN EXP KECCAK256 0xB5 EQ 0xF9 PUSH5 0x736F6C6343 STOP ADDMOD EQ STOP CALLER "
        },
        "methodIdentifiers": {
          "FEE_TIER()": "4c69a6c9",
          "allTokens(uint256)": "634282af",
          "defaultLockingPeriod()": "d406d751",
          "deployToken(string,string,address,string,string,string)": "fe658a17",
          "devAddress()": "3ad10ef6",
          "getAllTokens()": "2a5c792a",
          "lpFeesCut()": "57aa0201",
          "lpLocker()": "03fc2013",
          "owner()": "8da5cb5b",
          "positionManager()": "791b98bc",
          "protocolCut()": "de04f42e",
          "renounceOwnership()": "715018a6",
          "swapRouter()": "c31c9c07",
          "transferOwnership(address)": "f2fde38b",
          "uniswapV3Factory()": "5b549182",
          "userToToken(address)": "28d249fe",
          "weth()": "3fc8cef3",
          "withdrawETH()": "e086e5ec"
        }
      }
    }
  }
}