{
  "_format": "hh-sol-artifact-1",
  "contractName": "TokenizedProfileDex",
  "sourceName": "contracts/TokenizedProfileDex.sol",
  "abi": [
    {
      "inputs": [
        {
          "internalType": "address",
          "name": "_swapRouter",
          "type": "address"
        },
        {
          "internalType": "address",
          "name": "_weth",
          "type": "address"
        }
      ],
      "stateMutability": "nonpayable",
      "type": "constructor"
    },
    {
      "anonymous": false,
      "inputs": [
        {
          "indexed": true,
          "internalType": "address",
          "name": "user",
          "type": "address"
        },
        {
          "indexed": false,
          "internalType": "address",
          "name": "tokenOut",
          "type": "address"
        },
        {
          "indexed": false,
          "internalType": "uint256",
          "name": "amountIn",
          "type": "uint256"
        },
        {
          "indexed": false,
          "internalType": "uint256",
          "name": "amountOut",
          "type": "uint256"
        }
      ],
      "name": "SwapETHForTokens",
      "type": "event"
    },
    {
      "anonymous": false,
      "inputs": [
        {
          "indexed": true,
          "internalType": "address",
          "name": "user",
          "type": "address"
        },
        {
          "indexed": false,
          "internalType": "address",
          "name": "tokenIn",
          "type": "address"
        },
        {
          "indexed": false,
          "internalType": "uint256",
          "name": "amountIn",
          "type": "uint256"
        },
        {
          "indexed": false,
          "internalType": "uint256",
          "name": "amountOut",
          "type": "uint256"
        }
      ],
      "name": "SwapTokensForETH",
      "type": "event"
    },
    {
      "anonymous": false,
      "inputs": [
        {
          "indexed": true,
          "internalType": "address",
          "name": "user",
          "type": "address"
        },
        {
          "indexed": false,
          "internalType": "address",
          "name": "tokenIn",
          "type": "address"
        },
        {
          "indexed": false,
          "internalType": "address",
          "name": "tokenOut",
          "type": "address"
        },
        {
          "indexed": false,
          "internalType": "uint256",
          "name": "amountIn",
          "type": "uint256"
        },
        {
          "indexed": false,
          "internalType": "uint256",
          "name": "amountOut",
          "type": "uint256"
        }
      ],
      "name": "SwapTokensForTokens",
      "type": "event"
    },
    {
      "inputs": [],
      "name": "WETH",
      "outputs": [
        {
          "internalType": "address",
          "name": "",
          "type": "address"
        }
      ],
      "stateMutability": "view",
      "type": "function"
    },
    {
      "inputs": [
        {
          "internalType": "address",
          "name": "tokenOut",
          "type": "address"
        },
        {
          "internalType": "uint256",
          "name": "amountOutMin",
          "type": "uint256"
        },
        {
          "internalType": "uint24",
          "name": "fee",
          "type": "uint24"
        }
      ],
      "name": "swapETHForTokens",
      "outputs": [
        {
          "internalType": "uint256",
          "name": "amountOut",
          "type": "uint256"
        }
      ],
      "stateMutability": "payable",
      "type": "function"
    },
    {
      "inputs": [],
      "name": "swapRouter",
      "outputs": [
        {
          "internalType": "address",
          "name": "",
          "type": "address"
        }
      ],
      "stateMutability": "view",
      "type": "function"
    },
    {
      "inputs": [
        {
          "internalType": "address",
          "name": "tokenIn",
          "type": "address"
        },
        {
          "internalType": "uint256",
          "name": "amountIn",
          "type": "uint256"
        },
        {
          "internalType": "uint256",
          "name": "amountOutMin",
          "type": "uint256"
        },
        {
          "internalType": "uint24",
          "name": "fee",
          "type": "uint24"
        }
      ],
      "name": "swapTokensForETH",
      "outputs": [
        {
          "internalType": "uint256",
          "name": "amountOut",
          "type": "uint256"
        }
      ],
      "stateMutability": "nonpayable",
      "type": "function"
    },
    {
      "inputs": [
        {
          "internalType": "address",
          "name": "tokenIn",
          "type": "address"
        },
        {
          "internalType": "address",
          "name": "tokenOut",
          "type": "address"
        },
        {
          "internalType": "uint256",
          "name": "amountIn",
          "type": "uint256"
        },
        {
          "internalType": "uint256",
          "name": "amountOutMin",
          "type": "uint256"
        },
        {
          "internalType": "uint24",
          "name": "fee",
          "type": "uint24"
        }
      ],
      "name": "swapTokensForTokens",
      "outputs": [
        {
          "internalType": "uint256",
          "name": "amountOut",
          "type": "uint256"
        }
      ],
      "stateMutability": "nonpayable",
      "type": "function"
    },
    {
      "stateMutability": "payable",
      "type": "receive"
    }
  ],
  "bytecode": "0x60c03461014357601f610d7138819003918201601f19168301916001600160401b0383118484101761014857808492604094855283398101031261014357610052602061004b8361015e565b920161015e565b906001600160a01b03808216156100fe578216156100b95760805260a052604051610bfe9081610173823960805181818160730152818161019c0152818161056a01526107cb015260a05181818160ba015281816102230152818161051001526108390152f35b60405162461bcd60e51b815260206004820152601460248201527f496e76616c6964205745544820616464726573730000000000000000000000006044820152606490fd5b60405162461bcd60e51b815260206004820152601660248201527f496e76616c696420726f757465722061646472657373000000000000000000006044820152606490fd5b600080fd5b634e487b7160e01b600052604160045260246000fd5b51906001600160a01b03821682036101435756fe60406080815260049081361015610020575b5050361561001e57600080fd5b005b600091823560e01c9081635288839f146107275781637d2f8b31146104c757816387111a50146100e957508063ad5c4648146100a65763c31c9c070361001157346100a257816003193601126100a257517f00000000000000000000000000000000000000000000000000000000000000006001600160a01b03168152602090f35b5080fd5b50346100a257816003193601126100a257517f00000000000000000000000000000000000000000000000000000000000000006001600160a01b03168152602090f35b8383346100a25760a03660031901126100a257610104610a53565b926001600160a01b03602435808216900361038e576044359062ffffff608435166084350361038e57610138821515610b89565b808616928315610484578160243516156104415784516323b872dd60e01b815233828201908152306020828101919091526040820186905298919089908290819060600103818b8a5af180156104375761041a575b50855163095ea7b360e01b81527f00000000000000000000000000000000000000000000000000000000000000006001600160a01b03811684830190815260208101879052909291908a908290819060400103818c8b5af18015610410576103e3575b508651906bffffffffffffffffffffffff19809160601b168a83015262ffffff60e81b60843560e81b16806034840152817f000000000000000000000000000000000000000000000000000000000000000060601b166037840152604b83015260243560601b16604e820152604281526080810167ffffffffffffffff828210818311176103ce576101008301908111828210176103ce57858b95938695938c938c5281815260a082019133835260e060c08201918c8352019160643583528d51998a9863b858183f60e01b8a528901525192608060248901528351938460a48a015289875b8681106103a5575050509260c49288969594928588948887868801015251166044850152516064840152516084830152601f80199101168101030193165af195861561039a5795610366575b5083519283526024351685830152828201528260608201527f6c60dfa77621202c19886a83d996f4a7c764b2200c5f7cad231798add53179c260803392a251908152f35b9094508581813d8311610393575b61037e8183610af3565b8101031261038e57519386610322565b600080fd5b503d610374565b8551903d90823e3d90fd5b929598995092955092955081818401015160c4828c0101520192889695928e9592898c966102d6565b604185634e487b7160e01b6000525260246000fd5b610402908a3d8c11610409575b6103fa8183610af3565b810190610b15565b50896101f0565b503d6103f0565b88513d8b823e3d90fd5b61043090893d8b11610409576103fa8183610af3565b508861018d565b87513d8a823e3d90fd5b606490602086519162461bcd60e51b8352820152601860248201527f496e76616c696420746f6b656e4f7574206164647265737300000000000000006044820152fd5b606490602086519162461bcd60e51b8352820152601760248201527f496e76616c696420746f6b656e496e20616464726573730000000000000000006044820152fd5b838360603660031901126100a2576104dd610a53565b60443562ffffff811680910361038e5734156106f4576001600160a01b038281169590919061050d871515610a69565b827f00000000000000000000000000000000000000000000000000000000000000001692833b156106f0578551630d0e30db60e41b81528781848134895af18015610437579088916106dc575b5050855163095ea7b360e01b81527f00000000000000000000000000000000000000000000000000000000000000006001600160a01b038116848301908152346020808301919091529a919592908b908290819060400103818d8b5af180156106d257928a928c9795926106199997956106b5575b508a51966105dc88610aad565b8752878701528986015233606086015234608086015260243560a08601528160c086015288518097819682956304e45aaf60e01b84528301610b2d565b0393165af19384156106aa579361067b575b5081516001600160a01b0390911681523460208201526040810183905233907f4c8d20e37a3970898f750fee782c21410aa4fe6513487f5b3abc91b59be074479080606081015b0390a251908152f35b9092508381813d83116106a3575b6106938183610af3565b8101031261038e5751918461062b565b503d610689565b8351903d90823e3d90fd5b6106cb90893d8b11610409576103fa8183610af3565b508d6105cf565b89513d8c823e3d90fd5b6106e590610adf565b6106f057868961055a565b8680fd5b825162461bcd60e51b8152602081870152600d60248201526c09aeae6e840e6cadcc8408aa89609b1b6044820152606490fd5b8383346100a25760803660031901126100a257610742610a53565b6024356064359462ffffff8616809603610a4f57610761821515610b89565b6001600160a01b038381169690959061077b881515610a69565b85516323b872dd60e01b81523384820190815230602082810191909152604082018790529991908a9082908190606001038187865af18015610a4557610a28575b50865163095ea7b360e01b81527f00000000000000000000000000000000000000000000000000000000000000006001600160a01b03811686830190815260208101889052909291908b9082908190604001038188865af18015610a1e57918b939161089893610a01575b5089519061083482610aad565b81528a7f0000000000000000000000000000000000000000000000000000000000000000169485858301528a82015230606082015287608082015260443560a08201528560c0820152858a519b8c809581946304e45aaf60e01b83528b8301610b2d565b0393165af19687156109c85782976109d2575b50803b156100a2578180916024885180948193632e1a7d4d60e01b83528c898401525af180156109c8576109b9575b508080808089335af1903d156109b3573d9067ffffffffffffffff82116109a057865191610911601f8201601f19168b0184610af3565b8252883d92013e5b15610968575082516001600160a01b03909216825260208201526040810183905233907ff648388853a921938c2f7c68a5576a93c70cef958c5f13b690650711ed498248908060608101610672565b835162461bcd60e51b8152908101869052601260248201527108cc2d2d8cac840e8de40e6cadcc8408aa8960731b6044820152606490fd5b634e487b7160e01b815260418452602490fd5b50610919565b6109c290610adf565b876108da565b86513d84823e3d90fd5b9096508781813d83116109fa575b6109ea8183610af3565b810103126100a2575195886108ab565b503d6109e0565b610a1790853d8711610409576103fa8183610af3565b508c610827565b89513d87823e3d90fd5b610a3e908a3d8c11610409576103fa8183610af3565b50896107bc565b88513d86823e3d90fd5b8480fd5b600435906001600160a01b038216820361038e57565b15610a7057565b60405162461bcd60e51b8152602060048201526015602482015274496e76616c696420746f6b656e206164647265737360581b6044820152606490fd5b60e0810190811067ffffffffffffffff821117610ac957604052565b634e487b7160e01b600052604160045260246000fd5b67ffffffffffffffff8111610ac957604052565b90601f8019910116810190811067ffffffffffffffff821117610ac957604052565b9081602091031261038e5751801515810361038e5790565b91909160c060e08201938160018060a01b039182815116855282602082015116602086015262ffffff60408201511660408601528260608201511660608601526080810151608086015260a081015160a0860152015116910152565b15610b9057565b60405162461bcd60e51b815260206004820152601060248201526f4d7573742073656e6420746f6b656e7360801b6044820152606490fdfea26469706673582212205b52e058e9d9acd30060135fb64d13748514203496bd449b1472d19b6b7c286964736f6c63430008140033",
  "linkReferences": {},
  "deployedLinkReferences": {}
}