{
  "_format": "hh-sol-artifact-1",
  "contractName": "SocialToken",
  "sourceName": "contracts/SocialToken.sol",
  "abi": [
    {
      "inputs": [
        {
          "internalType": "string",
          "name": "name",
          "type": "string"
        },
        {
          "internalType": "string",
          "name": "symbol",
          "type": "string"
        },
        {
          "internalType": "string",
          "name": "_handle",
          "type": "string"
        },
        {
          "internalType": "string",
          "name": "_platform",
          "type": "string"
        },
        {
          "internalType": "string",
          "name": "_profileUrl",
          "type": "string"
        }
      ],
      "stateMutability": "nonpayable",
      "type": "constructor"
    },
    {
      "inputs": [
        {
          "internalType": "address",
          "name": "spender",
          "type": "address"
        },
        {
          "internalType": "uint256",
          "name": "allowance",
          "type": "uint256"
        },
        {
          "internalType": "uint256",
          "name": "needed",
          "type": "uint256"
        }
      ],
      "name": "ERC20InsufficientAllowance",
      "type": "error"
    },
    {
      "inputs": [
        {
          "internalType": "address",
          "name": "sender",
          "type": "address"
        },
        {
          "internalType": "uint256",
          "name": "balance",
          "type": "uint256"
        },
        {
          "internalType": "uint256",
          "name": "needed",
          "type": "uint256"
        }
      ],
      "name": "ERC20InsufficientBalance",
      "type": "error"
    },
    {
      "inputs": [
        {
          "internalType": "address",
          "name": "approver",
          "type": "address"
        }
      ],
      "name": "ERC20InvalidApprover",
      "type": "error"
    },
    {
      "inputs": [
        {
          "internalType": "address",
          "name": "receiver",
          "type": "address"
        }
      ],
      "name": "ERC20InvalidReceiver",
      "type": "error"
    },
    {
      "inputs": [
        {
          "internalType": "address",
          "name": "sender",
          "type": "address"
        }
      ],
      "name": "ERC20InvalidSender",
      "type": "error"
    },
    {
      "inputs": [
        {
          "internalType": "address",
          "name": "spender",
          "type": "address"
        }
      ],
      "name": "ERC20InvalidSpender",
      "type": "error"
    },
    {
      "inputs": [
        {
          "internalType": "address",
          "name": "owner",
          "type": "address"
        }
      ],
      "name": "OwnableInvalidOwner",
      "type": "error"
    },
    {
      "inputs": [
        {
          "internalType": "address",
          "name": "account",
          "type": "address"
        }
      ],
      "name": "OwnableUnauthorizedAccount",
      "type": "error"
    },
    {
      "anonymous": false,
      "inputs": [
        {
          "indexed": true,
          "internalType": "address",
          "name": "owner",
          "type": "address"
        },
        {
          "indexed": true,
          "internalType": "address",
          "name": "spender",
          "type": "address"
        },
        {
          "indexed": false,
          "internalType": "uint256",
          "name": "value",
          "type": "uint256"
        }
      ],
      "name": "Approval",
      "type": "event"
    },
    {
      "anonymous": false,
      "inputs": [
        {
          "indexed": false,
          "internalType": "string",
          "name": "message",
          "type": "string"
        },
        {
          "indexed": false,
          "internalType": "uint256",
          "name": "value",
          "type": "uint256"
        }
      ],
      "name": "Debug",
      "type": "event"
    },
    {
      "anonymous": false,
      "inputs": [
        {
          "indexed": true,
          "internalType": "address",
          "name": "previousOwner",
          "type": "address"
        },
        {
          "indexed": true,
          "internalType": "address",
          "name": "newOwner",
          "type": "address"
        }
      ],
      "name": "OwnershipTransferred",
      "type": "event"
    },
    {
      "anonymous": false,
      "inputs": [
        {
          "indexed": false,
          "internalType": "string",
          "name": "handle",
          "type": "string"
        },
        {
          "indexed": false,
          "internalType": "string",
          "name": "platform",
          "type": "string"
        },
        {
          "indexed": false,
          "internalType": "string",
          "name": "profileUrl",
          "type": "string"
        }
      ],
      "name": "SocialProfileSet",
      "type": "event"
    },
    {
      "anonymous": false,
      "inputs": [
        {
          "indexed": true,
          "internalType": "address",
          "name": "from",
          "type": "address"
        },
        {
          "indexed": true,
          "internalType": "address",
          "name": "to",
          "type": "address"
        },
        {
          "indexed": false,
          "internalType": "uint256",
          "name": "value",
          "type": "uint256"
        }
      ],
      "name": "Transfer",
      "type": "event"
    },
    {
      "inputs": [
        {
          "internalType": "address",
          "name": "owner",
          "type": "address"
        },
        {
          "internalType": "address",
          "name": "spender",
          "type": "address"
        }
      ],
      "name": "allowance",
      "outputs": [
        {
          "internalType": "uint256",
          "name": "",
          "type": "uint256"
        }
      ],
      "stateMutability": "view",
      "type": "function"
    },
    {
      "inputs": [
        {
          "internalType": "address",
          "name": "spender",
          "type": "address"
        },
        {
          "internalType": "uint256",
          "name": "value",
          "type": "uint256"
        }
      ],
      "name": "approve",
      "outputs": [
        {
          "internalType": "bool",
          "name": "",
          "type": "bool"
        }
      ],
      "stateMutability": "nonpayable",
      "type": "function"
    },
    {
      "inputs": [
        {
          "internalType": "address",
          "name": "account",
          "type": "address"
        }
      ],
      "name": "balanceOf",
      "outputs": [
        {
          "internalType": "uint256",
          "name": "",
          "type": "uint256"
        }
      ],
      "stateMutability": "view",
      "type": "function"
    },
    {
      "inputs": [],
      "name": "decimals",
      "outputs": [
        {
          "internalType": "uint8",
          "name": "",
          "type": "uint8"
        }
      ],
      "stateMutability": "view",
      "type": "function"
    },
    {
      "inputs": [],
      "name": "getSocialProfile",
      "outputs": [
        {
          "internalType": "string",
          "name": "handle",
          "type": "string"
        },
        {
          "internalType": "string",
          "name": "platform",
          "type": "string"
        },
        {
          "internalType": "string",
          "name": "profileUrl",
          "type": "string"
        }
      ],
      "stateMutability": "view",
      "type": "function"
    },
    {
      "inputs": [],
      "name": "name",
      "outputs": [
        {
          "internalType": "string",
          "name": "",
          "type": "string"
        }
      ],
      "stateMutability": "view",
      "type": "function"
    },
    {
      "inputs": [],
      "name": "owner",
      "outputs": [
        {
          "internalType": "address",
          "name": "",
          "type": "address"
        }
      ],
      "stateMutability": "view",
      "type": "function"
    },
    {
      "inputs": [],
      "name": "renounceOwnership",
      "outputs": [],
      "stateMutability": "nonpayable",
      "type": "function"
    },
    {
      "inputs": [],
      "name": "socialProfile",
      "outputs": [
        {
          "internalType": "string",
          "name": "handle",
          "type": "string"
        },
        {
          "internalType": "string",
          "name": "platform",
          "type": "string"
        },
        {
          "internalType": "string",
          "name": "profileUrl",
          "type": "string"
        }
      ],
      "stateMutability": "view",
      "type": "function"
    },
    {
      "inputs": [],
      "name": "symbol",
      "outputs": [
        {
          "internalType": "string",
          "name": "",
          "type": "string"
        }
      ],
      "stateMutability": "view",
      "type": "function"
    },
    {
      "inputs": [],
      "name": "totalSupply",
      "outputs": [
        {
          "internalType": "uint256",
          "name": "",
          "type": "uint256"
        }
      ],
      "stateMutability": "view",
      "type": "function"
    },
    {
      "inputs": [
        {
          "internalType": "address",
          "name": "to",
          "type": "address"
        },
        {
          "internalType": "uint256",
          "name": "value",
          "type": "uint256"
        }
      ],
      "name": "transfer",
      "outputs": [
        {
          "internalType": "bool",
          "name": "",
          "type": "bool"
        }
      ],
      "stateMutability": "nonpayable",
      "type": "function"
    },
    {
      "inputs": [
        {
          "internalType": "address",
          "name": "from",
          "type": "address"
        },
        {
          "internalType": "address",
          "name": "to",
          "type": "address"
        },
        {
          "internalType": "uint256",
          "name": "value",
          "type": "uint256"
        }
      ],
      "name": "transferFrom",
      "outputs": [
        {
          "internalType": "bool",
          "name": "",
          "type": "bool"
        }
      ],
      "stateMutability": "nonpayable",
      "type": "function"
    },
    {
      "inputs": [
        {
          "internalType": "address",
          "name": "newOwner",
          "type": "address"
        }
      ],
      "name": "transferOwnership",
      "outputs": [],
      "stateMutability": "nonpayable",
      "type": "function"
    },
    {
      "stateMutability": "payable",
      "type": "receive"
    }
  ],
  "bytecode": "0x60406080815234620009f1576200167e803803806200001e81620009f6565b928339810160a082820312620009f15781516001600160401b038111620009f157816200004d91840162000a41565b60208301519091906001600160401b038111620009f157816200007291850162000a41565b838501516001600160401b038111620009f157826200009391860162000a41565b60608501519094906001600160401b038111620009f15783620000b891830162000a41565b60808201519093906001600160401b038111620009f157620000db920162000a41565b835190936001600160401b038211620005a15760035490600182811c92168015620009e6575b6020831014620005805781601f84931162000971575b50602090601f8311600114620008e657600092620008da575b50508160011b916000199060031b1c1916176003555b8051906001600160401b038211620005a15760045490600182811c92168015620008cf575b6020831014620005805781601f8493116200085a575b50602090601f8311600114620007cf57600092620007c3575b50508160011b916000199060031b1c1916176004555b3315620007ab5760058054336001600160a01b0319821681179092556001600160a01b03167f8be0079c531659141344cd1fd0a4f28419497f9722a3daafe3b4186f6b6457e0600080a36002546b033b2e3c9fd0803ce80000009081810180911162000795577f3c5ad147104e56be34a9176a6692f7df8d2f4b29a5af06bc6b98970d329d65779160809160025533600052600060205286600020818154019055865181815260007fddf252ad1be2c89b69c2b068fc378daa952ba7f163c4a11628f55a4df523b3ef60203393a38651908782526015888301527f4d696e74656420696e697469616c20737570706c79000000000000000000000060608301526020820152a18351606081016001600160401b03811182821017620005a15785528381526020810182815290850183815284519091906001600160401b038111620005a157600654600181811c911680156200078a575b60208210146200058057601f811162000731575b50806020601f8211600114620006b857600091620006ac575b508160011b916000199060031b1c1916176006555b518051906001600160401b038211620005a15760075490600182811c92168015620006a1575b6020831014620005805781601f8493116200063d575b50602090601f8311600114620005c357600092620005b7575b50508160011b916000199060031b1c1916176007555b518051906001600160401b038211620005a157600854600181811c9116801562000596575b60208210146200058057601f811162000527575b50602090601f83116001146200048d57600080516020620015fe8339815191529593836200047094620004539794620004629460009262000481575b50508160011b916000199060031b1c1916176008555b875195869560608752606087019062000a98565b90858203602087015262000a98565b908382038785015262000a98565b0390a151610b3e908162000ac08239f35b01519050388062000429565b600860009081526000805160206200163e833981519152929190601f198516905b8181106200050e5750846200045397946200046294600080516020620015fe8339815191529a9894620004709860019510620004f4575b505050811b016008556200043f565b015160001960f88460031b161c19169055388080620004e5565b92936020600181928786015181550195019301620004ae565b60086000526000805160206200163e833981519152601f840160051c8101916020851062000575575b601f0160051c01905b818110620005685750620003ed565b6000815560010162000559565b909150819062000550565b634e487b7160e01b600052602260045260246000fd5b90607f1690620003d9565b634e487b7160e01b600052604160045260246000fd5b0151905038806200039e565b600760009081526000805160206200161e8339815191529350601f198516905b8181106200062457509084600195949392106200060a575b505050811b01600755620003b4565b015160001960f88460031b161c19169055388080620005fb565b92936020600181928786015181550195019301620005e3565b60076000529091506000805160206200161e833981519152601f840160051c8101916020851062000696575b90601f859493920160051c01905b81811062000686575062000385565b6000815584935060010162000677565b909150819062000669565b91607f16916200036f565b90508601513862000334565b6006600090815292506000805160206200165e833981519152905b601f198316841062000718576001935082601f19811610620006fe575b5050811b0160065562000349565b88015160001960f88460031b161c191690553880620006f0565b88810151825560209384019360019092019101620006d3565b60066000526000805160206200165e833981519152601f830160051c810191602084106200077f575b601f0160051c01905b8181106200077257506200031b565b6000815560010162000763565b90915081906200075a565b90607f169062000307565b634e487b7160e01b600052601160045260246000fd5b8351631e4fbdf760e01b815260006004820152602490fd5b0151905038806200019a565b600460009081527f8a35acfbc15ff81a39ae7d344fd709f28e8600b4aa8c65c6b64bfe7fe36bd19b9350601f198516905b81811062000841575090846001959493921062000827575b505050811b01600455620001b0565b015160001960f88460031b161c1916905538808062000818565b9293602060018192878601518155019501930162000800565b60046000529091507f8a35acfbc15ff81a39ae7d344fd709f28e8600b4aa8c65c6b64bfe7fe36bd19b601f840160051c81019160208510620008c4575b90601f859493920160051c01905b818110620008b4575062000181565b60008155849350600101620008a5565b909150819062000897565b91607f16916200016b565b01519050388062000130565b600360009081527fc2575a0e9e593c00f959f8c92f12db2869c3395a3b0502d05e2516446f71f85b9350601f198516905b8181106200095857509084600195949392106200093e575b505050811b0160035562000146565b015160001960f88460031b161c191690553880806200092f565b9293602060018192878601518155019501930162000917565b60036000529091507fc2575a0e9e593c00f959f8c92f12db2869c3395a3b0502d05e2516446f71f85b601f840160051c81019160208510620009db575b90601f859493920160051c01905b818110620009cb575062000117565b60008155849350600101620009bc565b9091508190620009ae565b91607f169162000101565b600080fd5b6040519190601f01601f191682016001600160401b03811183821017620005a157604052565b60005b83811062000a305750506000910152565b818101518382015260200162000a1f565b81601f82011215620009f15780516001600160401b038111620005a15762000a73601f8201601f1916602001620009f6565b9281845260208284010111620009f15762000a95916020808501910162000a1c565b90565b9060209162000ab38151809281855285808601910162000a1c565b601f01601f191601019056fe60806040818152600480361015610021575b505050361561001f57600080fd5b005b600092833560e01c90816306fdde03146105ce57508063095ea7b31461052557806318160ddd1461050657806323b872dd14610413578063313ce567146103f757806370a08231146103c0578063715018a6146103635780638da5cb5b1461033a57806393427cd5146101d457806395d89b4114610215578063a8fb7d40146101d4578063a9059cbb146101a3578063dd62ed3e146101565763f2fde38b036100115734610152576020366003190112610152576100dd61070c565b906100e66109fe565b6001600160a01b0391821692831561013c575050600554826bffffffffffffffffffffffff60a01b821617600555167f8be0079c531659141344cd1fd0a4f28419497f9722a3daafe3b4186f6b6457e08380a380f35b51631e4fbdf760e01b8152908101849052602490fd5b8280fd5b50503461019f578060031936011261019f578060209261017461070c565b61017c610727565b6001600160a01b0391821683526001865283832091168252845220549051908152f35b5080fd5b50503461019f578060031936011261019f576020906101cd6101c361070c565b6024359033610a2a565b5160018152f35b828434610212578060031936011261021257506101ef610777565b61020e6101fa61087e565b9261020361093e565b90519384938461073d565b0390f35b80fd5b5091903461019f578160031936011261019f578051908290845491600183811c90808516948515610330575b602095868410811461031d5783885290869082156103015750506001146102ad575b5050839003601f01601f191683019367ffffffffffffffff85118486101761029a57509161020e91848094528084528301906106cc565b634e487b7160e01b815260418652602490fd5b8787528492508691907f8a35acfbc15ff81a39ae7d344fd709f28e8600b4aa8c65c6b64bfe7fe36bd19b5b8284106102ec575050508401013880610263565b805488850186015286949093019281016102d8565b925093505060ff191682860152151560051b8401013880610263565b634e487b7160e01b895260228a52602489fd5b91607f1691610241565b50503461019f578160031936011261019f5760055490516001600160a01b039091168152602090f35b833461021257806003193601126102125761037c6109fe565b600580546001600160a01b0319811690915581906001600160a01b03167f8be0079c531659141344cd1fd0a4f28419497f9722a3daafe3b4186f6b6457e08280a380f35b50503461019f57602036600319011261019f5760209181906001600160a01b036103e861070c565b16815280845220549051908152f35b50503461019f578160031936011261019f576020905160128152f35b5082346102125760603660031901126102125761042e61070c565b610436610727565b916044359360018060a01b038316808352600160205286832033845260205286832054916000198310610472575b6020886101cd898989610a2a565b8683106104da5781156104c35733156104ac575082526001602090815286832033845281529186902090859003905582906101cd87610464565b8751634a1406b160e11b8152908101849052602490fd5b875163e602df0560e01b8152908101849052602490fd5b8751637dc7a0d960e11b8152339181019182526020820193909352604081018790528291506060010390fd5b50503461019f578160031936011261019f576020906002549051908152f35b503461015257816003193601126101525761053e61070c565b6024359033156105b7576001600160a01b03169182156105a057508083602095338152600187528181208582528752205582519081527f8c5be1e5ebec7d5bd14f71427d1e84f3dd0314c0f7b2291e5b200ac8c7c3b925843392a35160018152f35b8351634a1406b160e11b8152908101859052602490fd5b835163e602df0560e01b8152808401869052602490fd5b8491508334610152578260031936011261015257829060035491600183811c908085169485156106c2575b602095868410811461031d5783885290869082156106a6575050600114610651575050839003601f01601f191683019367ffffffffffffffff85118486101761029a57509161020e91848094528084528301906106cc565b600387528492508691907fc2575a0e9e593c00f959f8c92f12db2869c3395a3b0502d05e2516446f71f85b5b828410610691575050508401018680610263565b8054888501860152869490930192810161067d565b925093505060ff191682860152151560051b8401018680610263565b91607f16916105f9565b919082519283825260005b8481106106f8575050826000602080949584010152601f8019910116010190565b6020818301810151848301820152016106d7565b600435906001600160a01b038216820361072257565b600080fd5b602435906001600160a01b038216820361072257565b916107669061075861077495936060865260608601906106cc565b9084820360208601526106cc565b9160408184039101526106cc565b90565b604051906000600654600181811c90808316928315610874575b60209384841081146108605783885290811561084457506001146107ed575b505050829003601f01601f1916820167ffffffffffffffff8111838210176107d757604052565b634e487b7160e01b600052604160045260246000fd5b60066000908152929350837ff652222313e28459528d920b65115c16c04f3efc82aaedc97be59f3f377c0d3f5b83851061083057505050508301013880806107b0565b80548886018301529301928490820161081a565b60ff1916878501525050151560051b84010190503880806107b0565b634e487b7160e01b86526022600452602486fd5b91607f1691610791565b604051906000600754600181811c90808316928315610934575b60209384841081146108605783885290811561084457506001146108dd57505050829003601f01601f1916820167ffffffffffffffff8111838210176107d757604052565b60076000908152929350837fa66cc928b5edb82af9bd49922954155ab7b0942694bea4ce44661d9a8736c6885b83851061092057505050508301013880806107b0565b80548886018301529301928490820161090a565b91607f1691610898565b604051906000600854600181811c908083169283156109f4575b602093848410811461086057838852908115610844575060011461099d57505050829003601f01601f1916820167ffffffffffffffff8111838210176107d757604052565b60086000908152929350837ff3f7a9fe364faab93b216da50a3214154f22a0a2b415b23a84c8169e8b636ee35b8385106109e057505050508301013880806107b0565b8054888601830152930192849082016109ca565b91607f1691610958565b6005546001600160a01b03163303610a1257565b60405163118cdaa760e01b8152336004820152602490fd5b916001600160a01b03808416928315610aef5716928315610ad65760009083825281602052604082205490838210610aa4575091604082827fddf252ad1be2c89b69c2b068fc378daa952ba7f163c4a11628f55a4df523b3ef958760209652828652038282205586815220818154019055604051908152a3565b60405163391434e360e21b81526001600160a01b03919091166004820152602481019190915260448101839052606490fd5b60405163ec442f0560e01b815260006004820152602490fd5b604051634b637e8f60e11b815260006004820152602490fdfea264697066735822122056ee7f86fa7923ed21e00486a8d703fadedc51e204233ac7d111fddf8c04c0b464736f6c6343000814003341105f733c92e731673db8d7877f039f0cce3bc6436d38e5c37bce47f2a4b149a66cc928b5edb82af9bd49922954155ab7b0942694bea4ce44661d9a8736c688f3f7a9fe364faab93b216da50a3214154f22a0a2b415b23a84c8169e8b636ee3f652222313e28459528d920b65115c16c04f3efc82aaedc97be59f3f377c0d3f",
  "linkReferences": {},
  "deployedLinkReferences": {}
}