{"contracts/TokenizedProfileMultiPositionLiquidityLocker.sol":{"TokenizedProfileMultiPositionLiquidityLocker":{"abi":[{"inputs":[{"internalType":"address","name":"_positionManager","type":"address"},{"internalType":"address","name":"_feeCollector","type":"address"}],"stateMutability":"nonpayable","type":"constructor"},{"inputs":[{"internalType":"address","name":"owner","type":"address"}],"name":"OwnableInvalidOwner","type":"error"},{"inputs":[{"internalType":"address","name":"account","type":"address"}],"name":"OwnableUnauthorizedAccount","type":"error"},{"anonymous":false,"inputs":[{"indexed":true,"internalType":"address","name":"owner","type":"address"},{"indexed":false,"internalType":"uint256","name":"count","type":"uint256"},{"indexed":false,"internalType":"uint256","name":"totalAmount0","type":"uint256"},{"indexed":false,"internalType":"uint256","name":"totalAmount1","type":"uint256"}],"name":"BatchFeesCollected","type":"event"},{"anonymous":false,"inputs":[{"indexed":true,"internalType":"uint256","name":"tokenId","type":"uint256"},{"indexed":false,"internalType":"address","name":"token0","type":"address"},{"indexed":false,"internalType":"address","name":"token1","type":"address"},{"indexed":false,"internalType":"uint256","name":"amount0","type":"uint256"},{"indexed":false,"internalType":"uint256","name":"amount1","type":"uint256"}],"name":"FeesCollected","type":"event"},{"anonymous":false,"inputs":[{"indexed":true,"internalType":"address","name":"previousOwner","type":"address"},{"indexed":true,"internalType":"address","name":"newOwner","type":"address"}],"name":"OwnershipTransferred","type":"event"},{"anonymous":false,"inputs":[{"indexed":true,"internalType":"address","name":"owner","type":"address"},{"indexed":true,"internalType":"uint256","name":"tokenId","type":"uint256"},{"indexed":false,"internalType":"uint64","name":"unlockTime","type":"uint64"}],"name":"PositionLocked","type":"event"},{"anonymous":false,"inputs":[{"indexed":true,"internalType":"address","name":"owner","type":"address"},{"indexed":true,"internalType":"uint256","name":"tokenId","type":"uint256"},{"indexed":true,"internalType":"address","name":"recipient","type":"address"}],"name":"PositionWithdrawn","type":"event"},{"anonymous":false,"inputs":[{"indexed":false,"internalType":"uint256","name":"count","type":"uint256"},{"indexed":false,"internalType":"uint256","name":"totalAmount0","type":"uint256"},{"indexed":false,"internalType":"uint256","name":"totalAmount1","type":"uint256"}],"name":"ProtocolBatchFeesCollected","type":"event"},{"anonymous":false,"inputs":[{"indexed":true,"internalType":"address","name":"from","type":"address"},{"indexed":false,"internalType":"uint256","name":"tokenId","type":"uint256"}],"name":"Received","type":"event"},{"inputs":[],"name":"PROTOCOL_ADDRESS","outputs":[{"internalType":"address","name":"","type":"address"}],"stateMutability":"view","type":"function"},{"inputs":[{"internalType":"uint256","name":"","type":"uint256"}],"name":"allTokenIds","outputs":[{"internalType":"uint256","name":"","type":"uint256"}],"stateMutability":"view","type":"function"},{"inputs":[],"name":"collectAllFees","outputs":[{"internalType":"uint256","name":"positionsCount","type":"uint256"},{"internalType":"uint256","name":"totalAmount0","type":"uint256"},{"internalType":"uint256","name":"totalAmount1","type":"uint256"}],"stateMutability":"nonpayable","type":"function"},{"inputs":[{"internalType":"uint256","name":"tokenId","type":"uint256"}],"name":"collectFees","outputs":[{"internalType":"uint256","name":"amount0","type":"uint256"},{"internalType":"uint256","name":"amount1","type":"uint256"}],"stateMutability":"nonpayable","type":"function"},{"inputs":[{"internalType":"uint256[]","name":"tokenIds","type":"uint256[]"}],"name":"collectSelectedFees","outputs":[{"internalType":"uint256","name":"processedCount","type":"uint256"},{"internalType":"uint256","name":"totalAmount0","type":"uint256"},{"internalType":"uint256","name":"totalAmount1","type":"uint256"}],"stateMutability":"nonpayable","type":"function"},{"inputs":[],"name":"defaultLockingPeriod","outputs":[{"internalType":"uint64","name":"","type":"uint64"}],"stateMutability":"view","type":"function"},{"inputs":[],"name":"defaultLpFeesCut","outputs":[{"internalType":"uint16","name":"","type":"uint16"}],"stateMutability":"view","type":"function"},{"inputs":[],"name":"feeCollector","outputs":[{"internalType":"address","name":"","type":"address"}],"stateMutability":"view","type":"function"},{"inputs":[],"name":"getAllPositions","outputs":[{"internalType":"uint256[]","name":"","type":"uint256[]"}],"stateMutability":"view","type":"function"},{"inputs":[{"internalType":"address","name":"user","type":"address"}],"name":"getPositionsForUser","outputs":[{"internalType":"uint256[]","name":"","type":"uint256[]"}],"stateMutability":"view","type":"function"},{"inputs":[{"internalType":"uint256","name":"tokenId","type":"uint256"},{"internalType":"address","name":"owner","type":"address"},{"internalType":"uint64","name":"unlockTime","type":"uint64"},{"internalType":"uint16","name":"lpFeesCut","type":"uint16"}],"name":"initializePosition","outputs":[],"stateMutability":"nonpayable","type":"function"},{"inputs":[{"internalType":"address","name":"user","type":"address"},{"internalType":"uint256","name":"tokenId","type":"uint256"}],"name":"isPositionOwner","outputs":[{"internalType":"bool","name":"","type":"bool"}],"stateMutability":"view","type":"function"},{"inputs":[{"internalType":"address","name":"","type":"address"},{"internalType":"address","name":"from","type":"address"},{"internalType":"uint256","name":"id","type":"uint256"},{"internalType":"bytes","name":"","type":"bytes"}],"name":"onERC721Received","outputs":[{"internalType":"bytes4","name":"","type":"bytes4"}],"stateMutability":"nonpayable","type":"function"},{"inputs":[],"name":"owner","outputs":[{"internalType":"address","name":"","type":"address"}],"stateMutability":"view","type":"function"},{"inputs":[],"name":"positionManager","outputs":[{"internalType":"address","name":"","type":"address"}],"stateMutability":"view","type":"function"},{"inputs":[{"internalType":"uint256","name":"","type":"uint256"}],"name":"positions","outputs":[{"internalType":"address","name":"owner","type":"address"},{"internalType":"uint64","name":"unlockTime","type":"uint64"},{"internalType":"uint16","name":"lpFeesCut","type":"uint16"},{"internalType":"bool","name":"initialized","type":"bool"}],"stateMutability":"view","type":"function"},{"inputs":[],"name":"protocolCollectAllFees","outputs":[{"internalType":"uint256","name":"processedCount","type":"uint256"},{"internalType":"uint256","name":"totalAmount0","type":"uint256"},{"internalType":"uint256","name":"totalAmount1","type":"uint256"}],"stateMutability":"nonpayable","type":"function"},{"inputs":[{"internalType":"uint256","name":"startIndex","type":"uint256"},{"internalType":"uint256","name":"count","type":"uint256"}],"name":"protocolCollectFeesBatch","outputs":[{"internalType":"uint256","name":"processedCount","type":"uint256"},{"internalType":"uint256","name":"totalAmount0","type":"uint256"},{"internalType":"uint256","name":"totalAmount1","type":"uint256"}],"stateMutability":"nonpayable","type":"function"},{"inputs":[],"name":"renounceOwnership","outputs":[],"stateMutability":"nonpayable","type":"function"},{"inputs":[{"internalType":"address","name":"newOwner","type":"address"}],"name":"transferOwnership","outputs":[],"stateMutability":"nonpayable","type":"function"},{"inputs":[{"internalType":"uint64","name":"_defaultLockingPeriod","type":"uint64"}],"name":"updateDefaultLockingPeriod","outputs":[],"stateMutability":"nonpayable","type":"function"},{"inputs":[{"internalType":"uint16","name":"_defaultLpFeesCut","type":"uint16"}],"name":"updateDefaultLpFeesCut","outputs":[],"stateMutability":"nonpayable","type":"function"},{"inputs":[{"internalType":"address","name":"_feeCollector","type":"address"}],"name":"updateFeeCollector","outputs":[],"stateMutability":"nonpayable","type":"function"},{"inputs":[{"internalType":"address","name":"","type":"address"},{"internalType":"uint256","name":"","type":"uint256"}],"name":"userTokenIds","outputs":[{"internalType":"uint256","name":"","type":"uint256"}],"stateMutability":"view","type":"function"},{"inputs":[{"internalType":"uint256","name":"tokenId","type":"uint256"},{"internalType":"address","name":"recipient","type":"address"}],"name":"withdraw","outputs":[],"stateMutability":"nonpayable","type":"function"}],"evm":{"bytecode":{"linkReferences":{},"object":"6080346100f157601f61189c38819003918201601f19168301916001600160401b038311848410176100f65780849260409485528339810103126100f157610052602061004b8361010c565b920161010c565b33156100d857600080546001600160a01b03198082163390811784556040519591946001600160a01b039490938516907f8be0079c531659141344cd1fd0a4f28419497f9722a3daafe3b4186f6b6457e09080a36001548364784ce0007d60a21b92169061ffff60f01b1617176001551690600254161760025561177b90816101218239f35b604051631e4fbdf760e01b815260006004820152602490fd5b600080fd5b634e487b7160e01b600052604160045260246000fd5b51906001600160a01b03821682036100f15756fe6040608081526004908136101561001557600080fd5b600091823560e01c8062f714ce14610d6e57806302a2647114610d25578063150b7a0214610c7f57806318f56a0a14610c055780632722feee14610bd65780632bde2bfc14610b955780633aa10f1f14610b3a578063402adba914610a355780634751dbaa14610a0f578063686f2c90146108cc578063715018a614610872578063791b98bc146108495780637d07b2d21461081f57806387b7f85c146106c857806389853f54146104e85780638da5cb5b146104c05780638eaa826b146103bf57806399fbab8814610362578063b17acdcd14610338578063c415b95c1461030f578063c6d6fe3c1461028b578063cc17e15d14610234578063d2c35ce8146101f1578063d406d751146101c15763f2fde38b1461013357600080fd5b346101bd5760203660031901126101bd5761014c610f49565b90610155610fff565b6001600160a01b039182169283156101a7575050600054826001600160601b0360a01b821617600055167f8be0079c531659141344cd1fd0a4f28419497f9722a3daafe3b4186f6b6457e0600080a380f35b51631e4fbdf760e01b8152908101849052602490fd5b8280fd5b5050346101ed57816003193601126101ed5760209067ffffffffffffffff60015460b01c169051908152f35b5080fd5b83346102315760203660031901126102315761020b610f49565b610213610fff565b60018060a01b03166001600160601b0360a01b600254161760025580f35b80fd5b50913461023157816003193601126102315761024e610f49565b6001600160a01b0316815260209290925280822080546024359390841015610231575060209261027d91610fe7565b91905490519160031b1c8152f35b5090346101bd576020918260031936011261030b576001600160a01b036102b0610f49565b16845282528083209281518093808654928381520195835280832092905b8282106102f4576102f086866102e6828b038361105d565b5191829182610f5f565b0390f35b8354875295860195600193840193909101906102ce565b8380fd5b5050346101ed57816003193601126101ed5760025490516001600160a01b039091168152602090f35b50823461023157602036600319011261023157506103569035611163565b82519182526020820152f35b50346101bd5760203660031901126101bd578160809360ff923581526003602052205482519260018060a01b038216845267ffffffffffffffff8260a01c16602085015261ffff8260e01c169084015260f01c1615156060820152f35b8284346102315780600319360112610231576103f073eaf75b465f791b24c3b3e17a2f4793a67e3941fd3314611700565b8091819060055492805b848110610462575050805183815260208101859052604081018390526102f09291907f905b697b9e75982167ab0f854b5e635381b1fa298c7378f6e10cfa100bb3eb6c9080606081015b0390a151938493846040919493926060820195825260208201520152565b61046b81610f9a565b9054600391821b1c9081845260205260ff8484205460f01c16610498575b50610493906116c0565b6103fa565b6104939194966104b36104ad6104b993611163565b926116e3565b976116e3565b9390610489565b5050346101ed57816003193601126101ed57905490516001600160a01b039091168152602090f35b509190346101ed5760803660031901126101ed57823590610507610f33565b9060443567ffffffffffffffff81168091036106c3576064359161ffff83168093036106c3578486526020926003845260ff8288205460f01c1661068a578151906105518261102b565b60018060a01b038096169586835285830191858352848401908152606084019160018352898b5260038852858b2094511684549367ffffffffffffffff60a01b905160a01b169161ffff60e01b905160e01b169260ff60f01b9051151560f01b169360ff60f81b1617171717905583865286835280862096875468010000000000000000988982101561067557906105ee91600182018155610fe7565b919080549260031b60001993848a831b921b19161790556005549889101561066057506106458860017f7d345a92d35fdf554c440af4b60798f695891412ae3cbf945cd363d3a5f66d289798999a01600555610f9a565b819291549060031b9189831b921b191617905551908152a380f35b604190634e487b7160e01b6000525260246000fd5b604183634e487b7160e01b6000525260246000fd5b815162461bcd60e51b81528089018590526013602482015272105b1c9958591e481a5b9a5d1a585b1a5e9959606a1b6044820152606490fd5b600080fd5b508290346101ed576020806003193601126101bd5781359367ffffffffffffffff9283861161081b573660238701121561081b5785013592831161030b576024850194602436918560051b01011161030b57838092815b85811061078a575050815184815260208101869052604081018490526102f09392915033907fff4c59c9e84f6b776e123703d71d152c38901d63ec1c580b0f8c3e80dd885ca59080606081015b0390a251938493846040919493926060820195825260208201520152565b61079581878a6116f0565b3583528760038084523360018060a01b0387872054161490816107f7575b506107c8575b506107c3906116c0565b61071f565b8195976107e86104ad6107e26107c3958b6107ee966116f0565b35611163565b986116e3565b949050876107b9565b9161080591508884916116f0565b35845282528760ff8585205460f01c168a6107b3565b8480fd5b50346101bd5760203660031901126101bd573591600554831015610231575061027d602092610f9a565b5050346101ed57816003193601126101ed5760015490516001600160a01b039091168152602090f35b833461023157806003193601126102315761088b610fff565b600080546001600160a01b0319811682556001600160a01b03167f8be0079c531659141344cd1fd0a4f28419497f9722a3daafe3b4186f6b6457e08280a380f35b50823461023157806003193601126102315780928133815260209384528181208251808287829454938481520190855287852092855b898282106109f9575050506109199250038261105d565b805194825b86811061096f5787876102f0888880517fff4c59c9e84f6b776e123703d71d152c38901d63ec1c580b0f8c3e80dd885ca533918061076c868a8a846040919493926060820195825260208201520152565b61097981846116cf565b5184526003808352858520546001600160a01b0316331490816109d8575b506109ab575b6109a6906116c0565b61091e565b94966109d06109a6916109ca6104ad6109c48a886116cf565b51611163565b996116e3565b95905061099d565b90506109e482856116cf565b518552825260ff8585205460f01c1689610997565b8554845260019586019587955093019201610902565b5050346101ed57816003193601126101ed5760209061ffff60015460a01c169051908152f35b508290346101ed57826003193601126101ed573590610a6973eaf75b465f791b24c3b3e17a2f4793a67e3941fd3314611700565b809281610a78602435856116e3565b90600554808311610b32575b50610a8f858361113e565b945b828110610ae0575050815184815260208101869052604081018490526102f0939291507f905b697b9e75982167ab0f854b5e635381b1fa298c7378f6e10cfa100bb3eb6c908060608101610444565b610ae981610f9a565b9054600391821b1c9081845260205260ff8584205460f01c16610b16575b50610b11906116c0565b610a91565b610b119195976107e86104ad610b2b93611163565b9490610b07565b915086610a84565b8382346101ed5760203660031901126101ed573567ffffffffffffffff811681036106c357610b67610fff565b6001805467ffffffffffffffff60b01b191660b09290921b67ffffffffffffffff60b01b1691909117905580f35b5050346101ed57806003193601126101ed579081602092610bb4610f49565b60243584526003855292205490516001600160a01b0392831691909216148152f35b5050346101ed57816003193601126101ed576020905173eaf75b465f791b24c3b3e17a2f4793a67e3941fd8152f35b8284346102315780600319360112610231578151918291600554808552602080950194600583527f036b6384b5eca791c62761152d0c79bb0604c104a5fb6f4eb0703f3154bb3db092905b828210610c68576102f086866102e6828b038361105d565b835487529586019560019384019390910190610c50565b50346101bd5760803660031901126101bd57610c99610f49565b50610ca2610f33565b906064359067ffffffffffffffff90818311610d215736602384011215610d215782013590811161081b57369101602401116101bd5781516044358152602093506001600160a01b03909116907f88a5966d370b9919b20f3e2c13ff65706f196a4e32cc2c12bf57088f88525874908490a251630a85bd0160e11b8152f35b8580fd5b8382346101ed5760203660031901126101ed573561ffff811681036106c357610d4c610fff565b6001805461ffff60a01b191660a09290921b61ffff60a01b1691909117905580f35b50346101bd57816003193601126101bd57803590610d8a610f33565b92610daa73eaf75b465f791b24c3b3e17a2f4793a67e3941fd3314611700565b828552600360205280852090805191610dc28361102b565b549260018060a01b03938481168452846020850197610e0b60ff67ffffffffffffffff94858160a01c168c5261ffff8160e01c16888a015260f01c16151580606089015261107f565b16968715610efc575181164210610eca5790879291868452600360205283838120558560015416803b1561081b5784906064855180978193632142170760e11b835230888401528d60248401528c60448401525af18015610ec057610e98575b5050505051167f119d930f8a790cc06b4421b32d0bf3093c05fc6e0dd49435f3e89db43bafaa118480a480f35b8398949811610ead5750529338808080610e6b565b634e487b7160e01b845260419052602483fd5b83513d8b823e3d90fd5b506020606492519162461bcd60e51b8352820152600c60248201526b14dd1a5b1b081b1bd8dad95960a21b6044820152fd5b835162461bcd60e51b81526020818501526011602482015270125b9d985b1a59081c9958da5c1a595b9d607a1b6044820152606490fd5b602435906001600160a01b03821682036106c357565b600435906001600160a01b03821682036106c357565b6020908160408183019282815285518094520193019160005b828110610f86575050505090565b835185529381019392810192600101610f78565b600554811015610fd15760056000527f036b6384b5eca791c62761152d0c79bb0604c104a5fb6f4eb0703f3154bb3db00190600090565b634e487b7160e01b600052603260045260246000fd5b8054821015610fd15760005260206000200190600090565b6000546001600160a01b0316330361101357565b60405163118cdaa760e01b8152336004820152602490fd5b6080810190811067ffffffffffffffff82111761104757604052565b634e487b7160e01b600052604160045260246000fd5b90601f8019910116810190811067ffffffffffffffff82111761104757604052565b1561108657565b60405162461bcd60e51b815260206004820152601860248201527f506f736974696f6e206e6f7420696e697469616c697a656400000000000000006044820152606490fd5b51906001600160a01b03821682036106c357565b51908160020b82036106c357565b51906001600160801b03821682036106c357565b9061ffff8092166103e80391821161111557565b634e487b7160e01b600052601160045260246000fd5b8181029291811591840414171561111557565b9190820391821161111557565b908160209103126106c3575180151581036106c35790565b9081600052600360205260406000206111c560ff604051926111848461102b565b546001600160a01b038116845260a081901c67ffffffffffffffff16602085015260e081901c61ffff16604085015260f01c1615156060830181905261107f565b73eaf75b465f791b24c3b3e17a2f4793a67e3941fd3303611675575b60018060a01b036001541692604051916111fa8361102b565b81835230602084019081526001600160801b03604080860182815260608701838152825163fc6f786560e01b81529751600489015293516001600160a01b0316602488015251821660448701529151166064850152836084816000895af194851561141b5760009360009661163a575b5083158681611631575b506116235760405191829163133f757160e31b83528460048401528260246101809586935afa91821561141b57600093600093611568575b50506103e890816112cf61ffff6112c881604086015116611101565b168861112b565b04916112ed61ffff6112e681604086015116611101565b168a61112b565b046112f8838861113e565b91611303828b61113e565b93806114ff575b5081611491575b505080611427575b5080611371575b50604080516001600160a01b0393841681529290911660208301528101839052606081018590527f529bba57bdb8378bb850b7bd9677f1e8fc38dba3d309fda743a7b2921d534a0a90608090a29190565b60025460405163a9059cbb60e01b81526001600160a01b0390911660048201526024810191909152916020838060448101038160006001600160a01b0387165af191821561141b577f529bba57bdb8378bb850b7bd9677f1e8fc38dba3d309fda743a7b2921d534a0a936080936113ec575b50915091611320565b61140d9060203d602011611414575b611405818361105d565b81019061114b565b50386113e3565b503d6113fb565b6040513d6000823e3d90fd5b60025460405163a9059cbb60e01b81526001600160a01b03909116600482015260248101919091526020818060448101038160006001600160a01b0389165af1801561141b57156113195761148a9060203d60201161141457611405818361105d565b5038611319565b5160405163a9059cbb60e01b81526001600160a01b03909116600482015260248101919091526020818060448101038160006001600160a01b0389165af1801561141b576114e0575b80611311565b6114f89060203d60201161141457611405818361105d565b50386114da565b815160405163a9059cbb60e01b81526001600160a01b03909116600482015260248101919091526020818060448101038160006001600160a01b038c165af1801561141b571561130a576115619060203d60201161141457611405818361105d565b503861130a565b819450809293503d831161161c575b611581818361105d565b810103126106c35781516001600160601b038116036106c3576115a6602083016110cb565b506115b3604083016110cb565b6115bf606084016110cb565b92608081015162ffffff8116036106c357610160816115e360a061161294016110df565b506115f060c082016110df565b506115fd60e082016110ed565b5061160b61014082016110ed565b50016110ed565b50919038806112ac565b503d611577565b505050509050600090600090565b90501538611274565b935094506040833d60401161166d575b816116576040938361105d565b810103126106c35760208351930151943861126a565b3d915061164a565b80516001600160a01b031633146111e15760405162461bcd60e51b81526020600482015260126024820152712737ba103837b9b4ba34b7b71037bbb732b960711b6044820152606490fd5b60001981146111155760010190565b8051821015610fd15760209160051b010190565b9190820180921161111557565b9190811015610fd15760051b0190565b1561170757565b60405162461bcd60e51b815260206004820152601660248201527513db9b1e481c1c9bdd1bd8dbdb0818d85b8818d85b1b60521b6044820152606490fdfea2646970667358221220263459c0e9ad56b98b8e1feb0f1566512ff051c62415fcb6565c46b811aeed0964736f6c63430008140033","opcodes":"PUSH1 0x80 CALLVALUE PUSH2 0xF1 JUMPI PUSH1 0x1F PUSH2 0x189C CODESIZE DUP2 SWAP1 SUB SWAP2 DUP3 ADD PUSH1 0x1F NOT AND DUP4 ADD SWAP2 PUSH1 0x1 PUSH1 0x1 PUSH1 0x40 SHL SUB DUP4 GT DUP5 DUP5 LT OR PUSH2 0xF6 JUMPI DUP1 DUP5 SWAP3 PUSH1 0x40 SWAP5 DUP6 MSTORE DUP4 CODECOPY DUP2 ADD SUB SLT PUSH2 0xF1 JUMPI PUSH2 0x52 PUSH1 0x20 PUSH2 0x4B DUP4 PUSH2 0x10C JUMP JUMPDEST SWAP3 ADD PUSH2 0x10C JUMP JUMPDEST CALLER ISZERO PUSH2 0xD8 JUMPI PUSH1 0x0 DUP1 SLOAD PUSH1 0x1 PUSH1 0x1 PUSH1 0xA0 SHL SUB NOT DUP1 DUP3 AND CALLER SWAP1 DUP2 OR DUP5 SSTORE PUSH1 0x40 MLOAD SWAP6 SWAP2 SWAP5 PUSH1 0x1 PUSH1 0x1 PUSH1 0xA0 SHL SUB SWAP5 SWAP1 SWAP4 DUP6 AND SWAP1 PUSH32 0x8BE0079C531659141344CD1FD0A4F28419497F9722A3DAAFE3B4186F6B6457E0 SWAP1 DUP1 LOG3 PUSH1 0x1 SLOAD DUP4 PUSH5 0x784CE0007D PUSH1 0xA2 SHL SWAP3 AND SWAP1 PUSH2 0xFFFF PUSH1 0xF0 SHL AND OR OR PUSH1 0x1 SSTORE AND SWAP1 PUSH1 0x2 SLOAD AND OR PUSH1 0x2 SSTORE PUSH2 0x177B SWAP1 DUP2 PUSH2 0x121 DUP3 CODECOPY RETURN JUMPDEST PUSH1 0x40 MLOAD PUSH4 0x1E4FBDF7 PUSH1 0xE0 SHL DUP2 MSTORE PUSH1 0x0 PUSH1 0x4 DUP3 ADD MSTORE PUSH1 0x24 SWAP1 REVERT JUMPDEST PUSH1 0x0 DUP1 REVERT JUMPDEST PUSH4 0x4E487B71 PUSH1 0xE0 SHL PUSH1 0x0 MSTORE PUSH1 0x41 PUSH1 0x4 MSTORE PUSH1 0x24 PUSH1 0x0 REVERT JUMPDEST MLOAD SWAP1 PUSH1 0x1 PUSH1 0x1 PUSH1 0xA0 SHL SUB DUP3 AND DUP3 SUB PUSH2 0xF1 JUMPI JUMP INVALID PUSH1 0x40 PUSH1 0x80 DUP2 MSTORE PUSH1 0x4 SWAP1 DUP2 CALLDATASIZE LT ISZERO PUSH2 0x15 JUMPI PUSH1 0x0 DUP1 REVERT JUMPDEST PUSH1 0x0 SWAP2 DUP3 CALLDATALOAD PUSH1 0xE0 SHR DUP1 PUSH3 0xF714CE EQ PUSH2 0xD6E JUMPI DUP1 PUSH4 0x2A26471 EQ PUSH2 0xD25 JUMPI DUP1 PUSH4 0x150B7A02 EQ PUSH2 0xC7F JUMPI DUP1 PUSH4 0x18F56A0A EQ PUSH2 0xC05 JUMPI DUP1 PUSH4 0x2722FEEE EQ PUSH2 0xBD6 JUMPI DUP1 PUSH4 0x2BDE2BFC EQ PUSH2 0xB95 JUMPI DUP1 PUSH4 0x3AA10F1F EQ PUSH2 0xB3A JUMPI DUP1 PUSH4 0x402ADBA9 EQ PUSH2 0xA35 JUMPI DUP1 PUSH4 0x4751DBAA EQ PUSH2 0xA0F JUMPI DUP1 PUSH4 0x686F2C90 EQ PUSH2 0x8CC JUMPI DUP1 PUSH4 0x715018A6 EQ PUSH2 0x872 JUMPI DUP1 PUSH4 0x791B98BC EQ PUSH2 0x849 JUMPI DUP1 PUSH4 0x7D07B2D2 EQ PUSH2 0x81F JUMPI DUP1 PUSH4 0x87B7F85C EQ PUSH2 0x6C8 JUMPI DUP1 PUSH4 0x89853F54 EQ PUSH2 0x4E8 JUMPI DUP1 PUSH4 0x8DA5CB5B EQ PUSH2 0x4C0 JUMPI DUP1 PUSH4 0x8EAA826B EQ PUSH2 0x3BF JUMPI DUP1 PUSH4 0x99FBAB88 EQ PUSH2 0x362 JUMPI DUP1 PUSH4 0xB17ACDCD EQ PUSH2 0x338 JUMPI DUP1 PUSH4 0xC415B95C EQ PUSH2 0x30F JUMPI DUP1 PUSH4 0xC6D6FE3C EQ PUSH2 0x28B JUMPI DUP1 PUSH4 0xCC17E15D EQ PUSH2 0x234 JUMPI DUP1 PUSH4 0xD2C35CE8 EQ PUSH2 0x1F1 JUMPI DUP1 PUSH4 0xD406D751 EQ PUSH2 0x1C1 JUMPI PUSH4 0xF2FDE38B EQ PUSH2 0x133 JUMPI PUSH1 0x0 DUP1 REVERT JUMPDEST CALLVALUE PUSH2 0x1BD JUMPI PUSH1 0x20 CALLDATASIZE PUSH1 0x3 NOT ADD SLT PUSH2 0x1BD JUMPI PUSH2 0x14C PUSH2 0xF49 JUMP JUMPDEST SWAP1 PUSH2 0x155 PUSH2 0xFFF JUMP JUMPDEST PUSH1 0x1 PUSH1 0x1 PUSH1 0xA0 SHL SUB SWAP2 DUP3 AND SWAP3 DUP4 ISZERO PUSH2 0x1A7 JUMPI POP POP PUSH1 0x0 SLOAD DUP3 PUSH1 0x1 PUSH1 0x1 PUSH1 0x60 SHL SUB PUSH1 0xA0 SHL DUP3 AND OR PUSH1 0x0 SSTORE AND PUSH32 0x8BE0079C531659141344CD1FD0A4F28419497F9722A3DAAFE3B4186F6B6457E0 PUSH1 0x0 DUP1 LOG3 DUP1 RETURN JUMPDEST MLOAD PUSH4 0x1E4FBDF7 PUSH1 0xE0 SHL DUP2 MSTORE SWAP1 DUP2 ADD DUP5 SWAP1 MSTORE PUSH1 0x24 SWAP1 REVERT JUMPDEST DUP3 DUP1 REVERT JUMPDEST POP POP CALLVALUE PUSH2 0x1ED JUMPI DUP2 PUSH1 0x3 NOT CALLDATASIZE ADD SLT PUSH2 0x1ED JUMPI PUSH1 0x20 SWAP1 PUSH8 0xFFFFFFFFFFFFFFFF PUSH1 0x1 SLOAD PUSH1 0xB0 SHR AND SWAP1 MLOAD SWAP1 DUP2 MSTORE RETURN JUMPDEST POP DUP1 REVERT JUMPDEST DUP4 CALLVALUE PUSH2 0x231 JUMPI PUSH1 0x20 CALLDATASIZE PUSH1 0x3 NOT ADD SLT PUSH2 0x231 JUMPI PUSH2 0x20B PUSH2 0xF49 JUMP JUMPDEST PUSH2 0x213 PUSH2 0xFFF JUMP JUMPDEST PUSH1 0x1 DUP1 PUSH1 0xA0 SHL SUB AND PUSH1 0x1 PUSH1 0x1 PUSH1 0x60 SHL SUB PUSH1 0xA0 SHL PUSH1 0x2 SLOAD AND OR PUSH1 0x2 SSTORE DUP1 RETURN JUMPDEST DUP1 REVERT JUMPDEST POP SWAP2 CALLVALUE PUSH2 0x231 JUMPI DUP2 PUSH1 0x3 NOT CALLDATASIZE ADD SLT PUSH2 0x231 JUMPI PUSH2 0x24E PUSH2 0xF49 JUMP JUMPDEST PUSH1 0x1 PUSH1 0x1 PUSH1 0xA0 SHL SUB AND DUP2 MSTORE PUSH1 0x20 SWAP3 SWAP1 SWAP3 MSTORE DUP1 DUP3 KECCAK256 DUP1 SLOAD PUSH1 0x24 CALLDATALOAD SWAP4 SWAP1 DUP5 LT ISZERO PUSH2 0x231 JUMPI POP PUSH1 0x20 SWAP3 PUSH2 0x27D SWAP2 PUSH2 0xFE7 JUMP JUMPDEST SWAP2 SWAP1 SLOAD SWAP1 MLOAD SWAP2 PUSH1 0x3 SHL SHR DUP2 MSTORE RETURN JUMPDEST POP SWAP1 CALLVALUE PUSH2 0x1BD JUMPI PUSH1 0x20 SWAP2 DUP3 PUSH1 0x3 NOT CALLDATASIZE ADD SLT PUSH2 0x30B JUMPI PUSH1 0x1 PUSH1 0x1 PUSH1 0xA0 SHL SUB PUSH2 0x2B0 PUSH2 0xF49 JUMP JUMPDEST AND DUP5 MSTORE DUP3 MSTORE DUP1 DUP4 KECCAK256 SWAP3 DUP2 MLOAD DUP1 SWAP4 DUP1 DUP7 SLOAD SWAP3 DUP4 DUP2 MSTORE ADD SWAP6 DUP4 MSTORE DUP1 DUP4 KECCAK256 SWAP3 SWAP1 JUMPDEST DUP3 DUP3 LT PUSH2 0x2F4 JUMPI PUSH2 0x2F0 DUP7 DUP7 PUSH2 0x2E6 DUP3 DUP12 SUB DUP4 PUSH2 0x105D JUMP JUMPDEST MLOAD SWAP2 DUP3 SWAP2 DUP3 PUSH2 0xF5F JUMP JUMPDEST SUB SWAP1 RETURN JUMPDEST DUP4 SLOAD DUP8 MSTORE SWAP6 DUP7 ADD SWAP6 PUSH1 0x1 SWAP4 DUP5 ADD SWAP4 SWAP1 SWAP2 ADD SWAP1 PUSH2 0x2CE JUMP JUMPDEST DUP4 DUP1 REVERT JUMPDEST POP POP CALLVALUE PUSH2 0x1ED JUMPI DUP2 PUSH1 0x3 NOT CALLDATASIZE ADD SLT PUSH2 0x1ED JUMPI PUSH1 0x2 SLOAD SWAP1 MLOAD PUSH1 0x1 PUSH1 0x1 PUSH1 0xA0 SHL SUB SWAP1 SWAP2 AND DUP2 MSTORE PUSH1 0x20 SWAP1 RETURN JUMPDEST POP DUP3 CALLVALUE PUSH2 0x231 JUMPI PUSH1 0x20 CALLDATASIZE PUSH1 0x3 NOT ADD SLT PUSH2 0x231 JUMPI POP PUSH2 0x356 SWAP1 CALLDATALOAD PUSH2 0x1163 JUMP JUMPDEST DUP3 MLOAD SWAP2 DUP3 MSTORE PUSH1 0x20 DUP3 ADD MSTORE RETURN JUMPDEST POP CALLVALUE PUSH2 0x1BD JUMPI PUSH1 0x20 CALLDATASIZE PUSH1 0x3 NOT ADD SLT PUSH2 0x1BD JUMPI DUP2 PUSH1 0x80 SWAP4 PUSH1 0xFF SWAP3 CALLDATALOAD DUP2 MSTORE PUSH1 0x3 PUSH1 0x20 MSTORE KECCAK256 SLOAD DUP3 MLOAD SWAP3 PUSH1 0x1 DUP1 PUSH1 0xA0 SHL SUB DUP3 AND DUP5 MSTORE PUSH8 0xFFFFFFFFFFFFFFFF DUP3 PUSH1 0xA0 SHR AND PUSH1 0x20 DUP6 ADD MSTORE PUSH2 0xFFFF DUP3 PUSH1 0xE0 SHR AND SWAP1 DUP5 ADD MSTORE PUSH1 0xF0 SHR AND ISZERO ISZERO PUSH1 0x60 DUP3 ADD MSTORE RETURN JUMPDEST DUP3 DUP5 CALLVALUE PUSH2 0x231 JUMPI DUP1 PUSH1 0x3 NOT CALLDATASIZE ADD SLT PUSH2 0x231 JUMPI PUSH2 0x3F0 PUSH20 0xEAF75B465F791B24C3B3E17A2F4793A67E3941FD CALLER EQ PUSH2 0x1700 JUMP JUMPDEST DUP1 SWAP2 DUP2 SWAP1 PUSH1 0x5 SLOAD SWAP3 DUP1 JUMPDEST DUP5 DUP2 LT PUSH2 0x462 JUMPI POP POP DUP1 MLOAD DUP4 DUP2 MSTORE PUSH1 0x20 DUP2 ADD DUP6 SWAP1 MSTORE PUSH1 0x40 DUP2 ADD DUP4 SWAP1 MSTORE PUSH2 0x2F0 SWAP3 SWAP2 SWAP1 PUSH32 0x905B697B9E75982167AB0F854B5E635381B1FA298C7378F6E10CFA100BB3EB6C SWAP1 DUP1 PUSH1 0x60 DUP2 ADD JUMPDEST SUB SWAP1 LOG1 MLOAD SWAP4 DUP5 SWAP4 DUP5 PUSH1 0x40 SWAP2 SWAP5 SWAP4 SWAP3 PUSH1 0x60 DUP3 ADD SWAP6 DUP3 MSTORE PUSH1 0x20 DUP3 ADD MSTORE ADD MSTORE JUMP JUMPDEST PUSH2 0x46B DUP2 PUSH2 0xF9A JUMP JUMPDEST SWAP1 SLOAD PUSH1 0x3 SWAP2 DUP3 SHL SHR SWAP1 DUP2 DUP5 MSTORE PUSH1 0x20 MSTORE PUSH1 0xFF DUP5 DUP5 KECCAK256 SLOAD PUSH1 0xF0 SHR AND PUSH2 0x498 JUMPI JUMPDEST POP PUSH2 0x493 SWAP1 PUSH2 0x16C0 JUMP JUMPDEST PUSH2 0x3FA JUMP JUMPDEST PUSH2 0x493 SWAP2 SWAP5 SWAP7 PUSH2 0x4B3 PUSH2 0x4AD PUSH2 0x4B9 SWAP4 PUSH2 0x1163 JUMP JUMPDEST SWAP3 PUSH2 0x16E3 JUMP JUMPDEST SWAP8 PUSH2 0x16E3 JUMP JUMPDEST SWAP4 SWAP1 PUSH2 0x489 JUMP JUMPDEST POP POP CALLVALUE PUSH2 0x1ED JUMPI DUP2 PUSH1 0x3 NOT CALLDATASIZE ADD SLT PUSH2 0x1ED JUMPI SWAP1 SLOAD SWAP1 MLOAD PUSH1 0x1 PUSH1 0x1 PUSH1 0xA0 SHL SUB SWAP1 SWAP2 AND DUP2 MSTORE PUSH1 0x20 SWAP1 RETURN JUMPDEST POP SWAP2 SWAP1 CALLVALUE PUSH2 0x1ED JUMPI PUSH1 0x80 CALLDATASIZE PUSH1 0x3 NOT ADD SLT PUSH2 0x1ED JUMPI DUP3 CALLDATALOAD SWAP1 PUSH2 0x507 PUSH2 0xF33 JUMP JUMPDEST SWAP1 PUSH1 0x44 CALLDATALOAD PUSH8 0xFFFFFFFFFFFFFFFF DUP2 AND DUP1 SWAP2 SUB PUSH2 0x6C3 JUMPI PUSH1 0x64 CALLDATALOAD SWAP2 PUSH2 0xFFFF DUP4 AND DUP1 SWAP4 SUB PUSH2 0x6C3 JUMPI DUP5 DUP7 MSTORE PUSH1 0x20 SWAP3 PUSH1 0x3 DUP5 MSTORE PUSH1 0xFF DUP3 DUP9 KECCAK256 SLOAD PUSH1 0xF0 SHR AND PUSH2 0x68A JUMPI DUP2 MLOAD SWAP1 PUSH2 0x551 DUP3 PUSH2 0x102B JUMP JUMPDEST PUSH1 0x1 DUP1 PUSH1 0xA0 SHL SUB DUP1 SWAP7 AND SWAP6 DUP7 DUP4 MSTORE DUP6 DUP4 ADD SWAP2 DUP6 DUP4 MSTORE DUP5 DUP5 ADD SWAP1 DUP2 MSTORE PUSH1 0x60 DUP5 ADD SWAP2 PUSH1 0x1 DUP4 MSTORE DUP10 DUP12 MSTORE PUSH1 0x3 DUP9 MSTORE DUP6 DUP12 KECCAK256 SWAP5 MLOAD AND DUP5 SLOAD SWAP4 PUSH8 0xFFFFFFFFFFFFFFFF PUSH1 0xA0 SHL SWAP1 MLOAD PUSH1 0xA0 SHL AND SWAP2 PUSH2 0xFFFF PUSH1 0xE0 SHL SWAP1 MLOAD PUSH1 0xE0 SHL AND SWAP3 PUSH1 0xFF PUSH1 0xF0 SHL SWAP1 MLOAD ISZERO ISZERO PUSH1 0xF0 SHL AND SWAP4 PUSH1 0xFF PUSH1 0xF8 SHL AND OR OR OR OR SWAP1 SSTORE DUP4 DUP7 MSTORE DUP7 DUP4 MSTORE DUP1 DUP7 KECCAK256 SWAP7 DUP8 SLOAD PUSH9 0x10000000000000000 SWAP9 DUP10 DUP3 LT ISZERO PUSH2 0x675 JUMPI SWAP1 PUSH2 0x5EE SWAP2 PUSH1 0x1 DUP3 ADD DUP2 SSTORE PUSH2 0xFE7 JUMP JUMPDEST SWAP2 SWAP1 DUP1 SLOAD SWAP3 PUSH1 0x3 SHL PUSH1 0x0 NOT SWAP4 DUP5 DUP11 DUP4 SHL SWAP3 SHL NOT AND OR SWAP1 SSTORE PUSH1 0x5 SLOAD SWAP9 DUP10 LT ISZERO PUSH2 0x660 JUMPI POP PUSH2 0x645 DUP9 PUSH1 0x1 PUSH32 0x7D345A92D35FDF554C440AF4B60798F695891412AE3CBF945CD363D3A5F66D28 SWAP8 SWAP9 SWAP10 SWAP11 ADD PUSH1 0x5 SSTORE PUSH2 0xF9A JUMP JUMPDEST DUP2 SWAP3 SWAP2 SLOAD SWAP1 PUSH1 0x3 SHL SWAP2 DUP10 DUP4 SHL SWAP3 SHL NOT AND OR SWAP1 SSTORE MLOAD SWAP1 DUP2 MSTORE LOG3 DUP1 RETURN JUMPDEST PUSH1 0x41 SWAP1 PUSH4 0x4E487B71 PUSH1 0xE0 SHL PUSH1 0x0 MSTORE MSTORE PUSH1 0x24 PUSH1 0x0 REVERT JUMPDEST PUSH1 0x41 DUP4 PUSH4 0x4E487B71 PUSH1 0xE0 SHL PUSH1 0x0 MSTORE MSTORE PUSH1 0x24 PUSH1 0x0 REVERT JUMPDEST DUP2 MLOAD PUSH3 0x461BCD PUSH1 0xE5 SHL DUP2 MSTORE DUP1 DUP10 ADD DUP6 SWAP1 MSTORE PUSH1 0x13 PUSH1 0x24 DUP3 ADD MSTORE PUSH19 0x105B1C9958591E481A5B9A5D1A585B1A5E9959 PUSH1 0x6A SHL PUSH1 0x44 DUP3 ADD MSTORE PUSH1 0x64 SWAP1 REVERT JUMPDEST PUSH1 0x0 DUP1 REVERT JUMPDEST POP DUP3 SWAP1 CALLVALUE PUSH2 0x1ED JUMPI PUSH1 0x20 DUP1 PUSH1 0x3 NOT CALLDATASIZE ADD SLT PUSH2 0x1BD JUMPI DUP2 CALLDATALOAD SWAP4 PUSH8 0xFFFFFFFFFFFFFFFF SWAP3 DUP4 DUP7 GT PUSH2 0x81B JUMPI CALLDATASIZE PUSH1 0x23 DUP8 ADD SLT ISZERO PUSH2 0x81B JUMPI DUP6 ADD CALLDATALOAD SWAP3 DUP4 GT PUSH2 0x30B JUMPI PUSH1 0x24 DUP6 ADD SWAP5 PUSH1 0x24 CALLDATASIZE SWAP2 DUP6 PUSH1 0x5 SHL ADD ADD GT PUSH2 0x30B JUMPI DUP4 DUP1 SWAP3 DUP2 JUMPDEST DUP6 DUP2 LT PUSH2 0x78A JUMPI POP POP DUP2 MLOAD DUP5 DUP2 MSTORE PUSH1 0x20 DUP2 ADD DUP7 SWAP1 MSTORE PUSH1 0x40 DUP2 ADD DUP5 SWAP1 MSTORE PUSH2 0x2F0 SWAP4 SWAP3 SWAP2 POP CALLER SWAP1 PUSH32 0xFF4C59C9E84F6B776E123703D71D152C38901D63EC1C580B0F8C3E80DD885CA5 SWAP1 DUP1 PUSH1 0x60 DUP2 ADD JUMPDEST SUB SWAP1 LOG2 MLOAD SWAP4 DUP5 SWAP4 DUP5 PUSH1 0x40 SWAP2 SWAP5 SWAP4 SWAP3 PUSH1 0x60 DUP3 ADD SWAP6 DUP3 MSTORE PUSH1 0x20 DUP3 ADD MSTORE ADD MSTORE JUMP JUMPDEST PUSH2 0x795 DUP2 DUP8 DUP11 PUSH2 0x16F0 JUMP JUMPDEST CALLDATALOAD DUP4 MSTORE DUP8 PUSH1 0x3 DUP1 DUP5 MSTORE CALLER PUSH1 0x1 DUP1 PUSH1 0xA0 SHL SUB DUP8 DUP8 KECCAK256 SLOAD AND EQ SWAP1 DUP2 PUSH2 0x7F7 JUMPI JUMPDEST POP PUSH2 0x7C8 JUMPI JUMPDEST POP PUSH2 0x7C3 SWAP1 PUSH2 0x16C0 JUMP JUMPDEST PUSH2 0x71F JUMP JUMPDEST DUP2 SWAP6 SWAP8 PUSH2 0x7E8 PUSH2 0x4AD PUSH2 0x7E2 PUSH2 0x7C3 SWAP6 DUP12 PUSH2 0x7EE SWAP7 PUSH2 0x16F0 JUMP JUMPDEST CALLDATALOAD PUSH2 0x1163 JUMP JUMPDEST SWAP9 PUSH2 0x16E3 JUMP JUMPDEST SWAP5 SWAP1 POP DUP8 PUSH2 0x7B9 JUMP JUMPDEST SWAP2 PUSH2 0x805 SWAP2 POP DUP9 DUP5 SWAP2 PUSH2 0x16F0 JUMP JUMPDEST CALLDATALOAD DUP5 MSTORE DUP3 MSTORE DUP8 PUSH1 0xFF DUP6 DUP6 KECCAK256 SLOAD PUSH1 0xF0 SHR AND DUP11 PUSH2 0x7B3 JUMP JUMPDEST DUP5 DUP1 REVERT JUMPDEST POP CALLVALUE PUSH2 0x1BD JUMPI PUSH1 0x20 CALLDATASIZE PUSH1 0x3 NOT ADD SLT PUSH2 0x1BD JUMPI CALLDATALOAD SWAP2 PUSH1 0x5 SLOAD DUP4 LT ISZERO PUSH2 0x231 JUMPI POP PUSH2 0x27D PUSH1 0x20 SWAP3 PUSH2 0xF9A JUMP JUMPDEST POP POP CALLVALUE PUSH2 0x1ED JUMPI DUP2 PUSH1 0x3 NOT CALLDATASIZE ADD SLT PUSH2 0x1ED JUMPI PUSH1 0x1 SLOAD SWAP1 MLOAD PUSH1 0x1 PUSH1 0x1 PUSH1 0xA0 SHL SUB SWAP1 SWAP2 AND DUP2 MSTORE PUSH1 0x20 SWAP1 RETURN JUMPDEST DUP4 CALLVALUE PUSH2 0x231 JUMPI DUP1 PUSH1 0x3 NOT CALLDATASIZE ADD SLT PUSH2 0x231 JUMPI PUSH2 0x88B PUSH2 0xFFF JUMP JUMPDEST PUSH1 0x0 DUP1 SLOAD PUSH1 0x1 PUSH1 0x1 PUSH1 0xA0 SHL SUB NOT DUP2 AND DUP3 SSTORE PUSH1 0x1 PUSH1 0x1 PUSH1 0xA0 SHL SUB AND PUSH32 0x8BE0079C531659141344CD1FD0A4F28419497F9722A3DAAFE3B4186F6B6457E0 DUP3 DUP1 LOG3 DUP1 RETURN JUMPDEST POP DUP3 CALLVALUE PUSH2 0x231 JUMPI DUP1 PUSH1 0x3 NOT CALLDATASIZE ADD SLT PUSH2 0x231 JUMPI DUP1 SWAP3 DUP2 CALLER DUP2 MSTORE PUSH1 0x20 SWAP4 DUP5 MSTORE DUP2 DUP2 KECCAK256 DUP3 MLOAD DUP1 DUP3 DUP8 DUP3 SWAP5 SLOAD SWAP4 DUP5 DUP2 MSTORE ADD SWAP1 DUP6 MSTORE DUP8 DUP6 KECCAK256 SWAP3 DUP6 JUMPDEST DUP10 DUP3 DUP3 LT PUSH2 0x9F9 JUMPI POP POP POP PUSH2 0x919 SWAP3 POP SUB DUP3 PUSH2 0x105D JUMP JUMPDEST DUP1 MLOAD SWAP5 DUP3 JUMPDEST DUP7 DUP2 LT PUSH2 0x96F JUMPI DUP8 DUP8 PUSH2 0x2F0 DUP9 DUP9 DUP1 MLOAD PUSH32 0xFF4C59C9E84F6B776E123703D71D152C38901D63EC1C580B0F8C3E80DD885CA5 CALLER SWAP2 DUP1 PUSH2 0x76C DUP7 DUP11 DUP11 DUP5 PUSH1 0x40 SWAP2 SWAP5 SWAP4 SWAP3 PUSH1 0x60 DUP3 ADD SWAP6 DUP3 MSTORE PUSH1 0x20 DUP3 ADD MSTORE ADD MSTORE JUMP JUMPDEST PUSH2 0x979 DUP2 DUP5 PUSH2 0x16CF JUMP JUMPDEST MLOAD DUP5 MSTORE PUSH1 0x3 DUP1 DUP4 MSTORE DUP6 DUP6 KECCAK256 SLOAD PUSH1 0x1 PUSH1 0x1 PUSH1 0xA0 SHL SUB AND CALLER EQ SWAP1 DUP2 PUSH2 0x9D8 JUMPI JUMPDEST POP PUSH2 0x9AB JUMPI JUMPDEST PUSH2 0x9A6 SWAP1 PUSH2 0x16C0 JUMP JUMPDEST PUSH2 0x91E JUMP JUMPDEST SWAP5 SWAP7 PUSH2 0x9D0 PUSH2 0x9A6 SWAP2 PUSH2 0x9CA PUSH2 0x4AD PUSH2 0x9C4 DUP11 DUP9 PUSH2 0x16CF JUMP JUMPDEST MLOAD PUSH2 0x1163 JUMP JUMPDEST SWAP10 PUSH2 0x16E3 JUMP JUMPDEST SWAP6 SWAP1 POP PUSH2 0x99D JUMP JUMPDEST SWAP1 POP PUSH2 0x9E4 DUP3 DUP6 PUSH2 0x16CF JUMP JUMPDEST MLOAD DUP6 MSTORE DUP3 MSTORE PUSH1 0xFF DUP6 DUP6 KECCAK256 SLOAD PUSH1 0xF0 SHR AND DUP10 PUSH2 0x997 JUMP JUMPDEST DUP6 SLOAD DUP5 MSTORE PUSH1 0x1 SWAP6 DUP7 ADD SWAP6 DUP8 SWAP6 POP SWAP4 ADD SWAP3 ADD PUSH2 0x902 JUMP JUMPDEST POP POP CALLVALUE PUSH2 0x1ED JUMPI DUP2 PUSH1 0x3 NOT CALLDATASIZE ADD SLT PUSH2 0x1ED JUMPI PUSH1 0x20 SWAP1 PUSH2 0xFFFF PUSH1 0x1 SLOAD PUSH1 0xA0 SHR AND SWAP1 MLOAD SWAP1 DUP2 MSTORE RETURN JUMPDEST POP DUP3 SWAP1 CALLVALUE PUSH2 0x1ED JUMPI DUP3 PUSH1 0x3 NOT CALLDATASIZE ADD SLT PUSH2 0x1ED JUMPI CALLDATALOAD SWAP1 PUSH2 0xA69 PUSH20 0xEAF75B465F791B24C3B3E17A2F4793A67E3941FD CALLER EQ PUSH2 0x1700 JUMP JUMPDEST DUP1 SWAP3 DUP2 PUSH2 0xA78 PUSH1 0x24 CALLDATALOAD DUP6 PUSH2 0x16E3 JUMP JUMPDEST SWAP1 PUSH1 0x5 SLOAD DUP1 DUP4 GT PUSH2 0xB32 JUMPI JUMPDEST POP PUSH2 0xA8F DUP6 DUP4 PUSH2 0x113E JUMP JUMPDEST SWAP5 JUMPDEST DUP3 DUP2 LT PUSH2 0xAE0 JUMPI POP POP DUP2 MLOAD DUP5 DUP2 MSTORE PUSH1 0x20 DUP2 ADD DUP7 SWAP1 MSTORE PUSH1 0x40 DUP2 ADD DUP5 SWAP1 MSTORE PUSH2 0x2F0 SWAP4 SWAP3 SWAP2 POP PUSH32 0x905B697B9E75982167AB0F854B5E635381B1FA298C7378F6E10CFA100BB3EB6C SWAP1 DUP1 PUSH1 0x60 DUP2 ADD PUSH2 0x444 JUMP JUMPDEST PUSH2 0xAE9 DUP2 PUSH2 0xF9A JUMP JUMPDEST SWAP1 SLOAD PUSH1 0x3 SWAP2 DUP3 SHL SHR SWAP1 DUP2 DUP5 MSTORE PUSH1 0x20 MSTORE PUSH1 0xFF DUP6 DUP5 KECCAK256 SLOAD PUSH1 0xF0 SHR AND PUSH2 0xB16 JUMPI JUMPDEST POP PUSH2 0xB11 SWAP1 PUSH2 0x16C0 JUMP JUMPDEST PUSH2 0xA91 JUMP JUMPDEST PUSH2 0xB11 SWAP2 SWAP6 SWAP8 PUSH2 0x7E8 PUSH2 0x4AD PUSH2 0xB2B SWAP4 PUSH2 0x1163 JUMP JUMPDEST SWAP5 SWAP1 PUSH2 0xB07 JUMP JUMPDEST SWAP2 POP DUP7 PUSH2 0xA84 JUMP JUMPDEST DUP4 DUP3 CALLVALUE PUSH2 0x1ED JUMPI PUSH1 0x20 CALLDATASIZE PUSH1 0x3 NOT ADD SLT PUSH2 0x1ED JUMPI CALLDATALOAD PUSH8 0xFFFFFFFFFFFFFFFF DUP2 AND DUP2 SUB PUSH2 0x6C3 JUMPI PUSH2 0xB67 PUSH2 0xFFF JUMP JUMPDEST PUSH1 0x1 DUP1 SLOAD PUSH8 0xFFFFFFFFFFFFFFFF PUSH1 0xB0 SHL NOT AND PUSH1 0xB0 SWAP3 SWAP1 SWAP3 SHL PUSH8 0xFFFFFFFFFFFFFFFF PUSH1 0xB0 SHL AND SWAP2 SWAP1 SWAP2 OR SWAP1 SSTORE DUP1 RETURN JUMPDEST POP POP CALLVALUE PUSH2 0x1ED JUMPI DUP1 PUSH1 0x3 NOT CALLDATASIZE ADD SLT PUSH2 0x1ED JUMPI SWAP1 DUP2 PUSH1 0x20 SWAP3 PUSH2 0xBB4 PUSH2 0xF49 JUMP JUMPDEST PUSH1 0x24 CALLDATALOAD DUP5 MSTORE PUSH1 0x3 DUP6 MSTORE SWAP3 KECCAK256 SLOAD SWAP1 MLOAD PUSH1 0x1 PUSH1 0x1 PUSH1 0xA0 SHL SUB SWAP3 DUP4 AND SWAP2 SWAP1 SWAP3 AND EQ DUP2 MSTORE RETURN JUMPDEST POP POP CALLVALUE PUSH2 0x1ED JUMPI DUP2 PUSH1 0x3 NOT CALLDATASIZE ADD SLT PUSH2 0x1ED JUMPI PUSH1 0x20 SWAP1 MLOAD PUSH20 0xEAF75B465F791B24C3B3E17A2F4793A67E3941FD DUP2 MSTORE RETURN JUMPDEST DUP3 DUP5 CALLVALUE PUSH2 0x231 JUMPI DUP1 PUSH1 0x3 NOT CALLDATASIZE ADD SLT PUSH2 0x231 JUMPI DUP2 MLOAD SWAP2 DUP3 SWAP2 PUSH1 0x5 SLOAD DUP1 DUP6 MSTORE PUSH1 0x20 DUP1 SWAP6 ADD SWAP5 PUSH1 0x5 DUP4 MSTORE PUSH32 0x36B6384B5ECA791C62761152D0C79BB0604C104A5FB6F4EB0703F3154BB3DB0 SWAP3 SWAP1 JUMPDEST DUP3 DUP3 LT PUSH2 0xC68 JUMPI PUSH2 0x2F0 DUP7 DUP7 PUSH2 0x2E6 DUP3 DUP12 SUB DUP4 PUSH2 0x105D JUMP JUMPDEST DUP4 SLOAD DUP8 MSTORE SWAP6 DUP7 ADD SWAP6 PUSH1 0x1 SWAP4 DUP5 ADD SWAP4 SWAP1 SWAP2 ADD SWAP1 PUSH2 0xC50 JUMP JUMPDEST POP CALLVALUE PUSH2 0x1BD JUMPI PUSH1 0x80 CALLDATASIZE PUSH1 0x3 NOT ADD SLT PUSH2 0x1BD JUMPI PUSH2 0xC99 PUSH2 0xF49 JUMP JUMPDEST POP PUSH2 0xCA2 PUSH2 0xF33 JUMP JUMPDEST SWAP1 PUSH1 0x64 CALLDATALOAD SWAP1 PUSH8 0xFFFFFFFFFFFFFFFF SWAP1 DUP2 DUP4 GT PUSH2 0xD21 JUMPI CALLDATASIZE PUSH1 0x23 DUP5 ADD SLT ISZERO PUSH2 0xD21 JUMPI DUP3 ADD CALLDATALOAD SWAP1 DUP2 GT PUSH2 0x81B JUMPI CALLDATASIZE SWAP2 ADD PUSH1 0x24 ADD GT PUSH2 0x1BD JUMPI DUP2 MLOAD PUSH1 0x44 CALLDATALOAD DUP2 MSTORE PUSH1 0x20 SWAP4 POP PUSH1 0x1 PUSH1 0x1 PUSH1 0xA0 SHL SUB SWAP1 SWAP2 AND SWAP1 PUSH32 0x88A5966D370B9919B20F3E2C13FF65706F196A4E32CC2C12BF57088F88525874 SWAP1 DUP5 SWAP1 LOG2 MLOAD PUSH4 0xA85BD01 PUSH1 0xE1 SHL DUP2 MSTORE RETURN JUMPDEST DUP6 DUP1 REVERT JUMPDEST DUP4 DUP3 CALLVALUE PUSH2 0x1ED JUMPI PUSH1 0x20 CALLDATASIZE PUSH1 0x3 NOT ADD SLT PUSH2 0x1ED JUMPI CALLDATALOAD PUSH2 0xFFFF DUP2 AND DUP2 SUB PUSH2 0x6C3 JUMPI PUSH2 0xD4C PUSH2 0xFFF JUMP JUMPDEST PUSH1 0x1 DUP1 SLOAD PUSH2 0xFFFF PUSH1 0xA0 SHL NOT AND PUSH1 0xA0 SWAP3 SWAP1 SWAP3 SHL PUSH2 0xFFFF PUSH1 0xA0 SHL AND SWAP2 SWAP1 SWAP2 OR SWAP1 SSTORE DUP1 RETURN JUMPDEST POP CALLVALUE PUSH2 0x1BD JUMPI DUP2 PUSH1 0x3 NOT CALLDATASIZE ADD SLT PUSH2 0x1BD JUMPI DUP1 CALLDATALOAD SWAP1 PUSH2 0xD8A PUSH2 0xF33 JUMP JUMPDEST SWAP3 PUSH2 0xDAA PUSH20 0xEAF75B465F791B24C3B3E17A2F4793A67E3941FD CALLER EQ PUSH2 0x1700 JUMP JUMPDEST DUP3 DUP6 MSTORE PUSH1 0x3 PUSH1 0x20 MSTORE DUP1 DUP6 KECCAK256 SWAP1 DUP1 MLOAD SWAP2 PUSH2 0xDC2 DUP4 PUSH2 0x102B JUMP JUMPDEST SLOAD SWAP3 PUSH1 0x1 DUP1 PUSH1 0xA0 SHL SUB SWAP4 DUP5 DUP2 AND DUP5 MSTORE DUP5 PUSH1 0x20 DUP6 ADD SWAP8 PUSH2 0xE0B PUSH1 0xFF PUSH8 0xFFFFFFFFFFFFFFFF SWAP5 DUP6 DUP2 PUSH1 0xA0 SHR AND DUP13 MSTORE PUSH2 0xFFFF DUP2 PUSH1 0xE0 SHR AND DUP9 DUP11 ADD MSTORE PUSH1 0xF0 SHR AND ISZERO ISZERO DUP1 PUSH1 0x60 DUP10 ADD MSTORE PUSH2 0x107F JUMP JUMPDEST AND SWAP7 DUP8 ISZERO PUSH2 0xEFC JUMPI MLOAD DUP2 AND TIMESTAMP LT PUSH2 0xECA JUMPI SWAP1 DUP8 SWAP3 SWAP2 DUP7 DUP5 MSTORE PUSH1 0x3 PUSH1 0x20 MSTORE DUP4 DUP4 DUP2 KECCAK256 SSTORE DUP6 PUSH1 0x1 SLOAD AND DUP1 EXTCODESIZE ISZERO PUSH2 0x81B JUMPI DUP5 SWAP1 PUSH1 0x64 DUP6 MLOAD DUP1 SWAP8 DUP2 SWAP4 PUSH4 0x21421707 PUSH1 0xE1 SHL DUP4 MSTORE ADDRESS DUP9 DUP5 ADD MSTORE DUP14 PUSH1 0x24 DUP5 ADD MSTORE DUP13 PUSH1 0x44 DUP5 ADD MSTORE GAS CALL DUP1 ISZERO PUSH2 0xEC0 JUMPI PUSH2 0xE98 JUMPI JUMPDEST POP POP POP POP MLOAD AND PUSH32 0x119D930F8A790CC06B4421B32D0BF3093C05FC6E0DD49435F3E89DB43BAFAA11 DUP5 DUP1 LOG4 DUP1 RETURN JUMPDEST DUP4 SWAP9 SWAP5 SWAP9 GT PUSH2 0xEAD JUMPI POP MSTORE SWAP4 CODESIZE DUP1 DUP1 DUP1 PUSH2 0xE6B JUMP JUMPDEST PUSH4 0x4E487B71 PUSH1 0xE0 SHL DUP5 MSTORE PUSH1 0x41 SWAP1 MSTORE PUSH1 0x24 DUP4 REVERT JUMPDEST DUP4 MLOAD RETURNDATASIZE DUP12 DUP3 RETURNDATACOPY RETURNDATASIZE SWAP1 REVERT JUMPDEST POP PUSH1 0x20 PUSH1 0x64 SWAP3 MLOAD SWAP2 PUSH3 0x461BCD PUSH1 0xE5 SHL DUP4 MSTORE DUP3 ADD MSTORE PUSH1 0xC PUSH1 0x24 DUP3 ADD MSTORE PUSH12 0x14DD1A5B1B081B1BD8DAD959 PUSH1 0xA2 SHL PUSH1 0x44 DUP3 ADD MSTORE REVERT JUMPDEST DUP4 MLOAD PUSH3 0x461BCD PUSH1 0xE5 SHL DUP2 MSTORE PUSH1 0x20 DUP2 DUP6 ADD MSTORE PUSH1 0x11 PUSH1 0x24 DUP3 ADD MSTORE PUSH17 0x125B9D985B1A59081C9958DA5C1A595B9D PUSH1 0x7A SHL PUSH1 0x44 DUP3 ADD MSTORE PUSH1 0x64 SWAP1 REVERT JUMPDEST PUSH1 0x24 CALLDATALOAD SWAP1 PUSH1 0x1 PUSH1 0x1 PUSH1 0xA0 SHL SUB DUP3 AND DUP3 SUB PUSH2 0x6C3 JUMPI JUMP JUMPDEST PUSH1 0x4 CALLDATALOAD SWAP1 PUSH1 0x1 PUSH1 0x1 PUSH1 0xA0 SHL SUB DUP3 AND DUP3 SUB PUSH2 0x6C3 JUMPI JUMP JUMPDEST PUSH1 0x20 SWAP1 DUP2 PUSH1 0x40 DUP2 DUP4 ADD SWAP3 DUP3 DUP2 MSTORE DUP6 MLOAD DUP1 SWAP5 MSTORE ADD SWAP4 ADD SWAP2 PUSH1 0x0 JUMPDEST DUP3 DUP2 LT PUSH2 0xF86 JUMPI POP POP POP POP SWAP1 JUMP JUMPDEST DUP4 MLOAD DUP6 MSTORE SWAP4 DUP2 ADD SWAP4 SWAP3 DUP2 ADD SWAP3 PUSH1 0x1 ADD PUSH2 0xF78 JUMP JUMPDEST PUSH1 0x5 SLOAD DUP2 LT ISZERO PUSH2 0xFD1 JUMPI PUSH1 0x5 PUSH1 0x0 MSTORE PUSH32 0x36B6384B5ECA791C62761152D0C79BB0604C104A5FB6F4EB0703F3154BB3DB0 ADD SWAP1 PUSH1 0x0 SWAP1 JUMP JUMPDEST PUSH4 0x4E487B71 PUSH1 0xE0 SHL PUSH1 0x0 MSTORE PUSH1 0x32 PUSH1 0x4 MSTORE PUSH1 0x24 PUSH1 0x0 REVERT JUMPDEST DUP1 SLOAD DUP3 LT ISZERO PUSH2 0xFD1 JUMPI PUSH1 0x0 MSTORE PUSH1 0x20 PUSH1 0x0 KECCAK256 ADD SWAP1 PUSH1 0x0 SWAP1 JUMP JUMPDEST PUSH1 0x0 SLOAD PUSH1 0x1 PUSH1 0x1 PUSH1 0xA0 SHL SUB AND CALLER SUB PUSH2 0x1013 JUMPI JUMP JUMPDEST PUSH1 0x40 MLOAD PUSH4 0x118CDAA7 PUSH1 0xE0 SHL DUP2 MSTORE CALLER PUSH1 0x4 DUP3 ADD MSTORE PUSH1 0x24 SWAP1 REVERT JUMPDEST PUSH1 0x80 DUP2 ADD SWAP1 DUP2 LT PUSH8 0xFFFFFFFFFFFFFFFF DUP3 GT OR PUSH2 0x1047 JUMPI PUSH1 0x40 MSTORE JUMP JUMPDEST PUSH4 0x4E487B71 PUSH1 0xE0 SHL PUSH1 0x0 MSTORE PUSH1 0x41 PUSH1 0x4 MSTORE PUSH1 0x24 PUSH1 0x0 REVERT JUMPDEST SWAP1 PUSH1 0x1F DUP1 NOT SWAP2 ADD AND DUP2 ADD SWAP1 DUP2 LT PUSH8 0xFFFFFFFFFFFFFFFF DUP3 GT OR PUSH2 0x1047 JUMPI PUSH1 0x40 MSTORE JUMP JUMPDEST ISZERO PUSH2 0x1086 JUMPI JUMP JUMPDEST PUSH1 0x40 MLOAD PUSH3 0x461BCD PUSH1 0xE5 SHL DUP2 MSTORE PUSH1 0x20 PUSH1 0x4 DUP3 ADD MSTORE PUSH1 0x18 PUSH1 0x24 DUP3 ADD MSTORE PUSH32 0x506F736974696F6E206E6F7420696E697469616C697A65640000000000000000 PUSH1 0x44 DUP3 ADD MSTORE PUSH1 0x64 SWAP1 REVERT JUMPDEST MLOAD SWAP1 PUSH1 0x1 PUSH1 0x1 PUSH1 0xA0 SHL SUB DUP3 AND DUP3 SUB PUSH2 0x6C3 JUMPI JUMP JUMPDEST MLOAD SWAP1 DUP2 PUSH1 0x2 SIGNEXTEND DUP3 SUB PUSH2 0x6C3 JUMPI JUMP JUMPDEST MLOAD SWAP1 PUSH1 0x1 PUSH1 0x1 PUSH1 0x80 SHL SUB DUP3 AND DUP3 SUB PUSH2 0x6C3 JUMPI JUMP JUMPDEST SWAP1 PUSH2 0xFFFF DUP1 SWAP3 AND PUSH2 0x3E8 SUB SWAP2 DUP3 GT PUSH2 0x1115 JUMPI JUMP JUMPDEST PUSH4 0x4E487B71 PUSH1 0xE0 SHL PUSH1 0x0 MSTORE PUSH1 0x11 PUSH1 0x4 MSTORE PUSH1 0x24 PUSH1 0x0 REVERT JUMPDEST DUP2 DUP2 MUL SWAP3 SWAP2 DUP2 ISZERO SWAP2 DUP5 DIV EQ OR ISZERO PUSH2 0x1115 JUMPI JUMP JUMPDEST SWAP2 SWAP1 DUP3 SUB SWAP2 DUP3 GT PUSH2 0x1115 JUMPI JUMP JUMPDEST SWAP1 DUP2 PUSH1 0x20 SWAP2 SUB SLT PUSH2 0x6C3 JUMPI MLOAD DUP1 ISZERO ISZERO DUP2 SUB PUSH2 0x6C3 JUMPI SWAP1 JUMP JUMPDEST SWAP1 DUP2 PUSH1 0x0 MSTORE PUSH1 0x3 PUSH1 0x20 MSTORE PUSH1 0x40 PUSH1 0x0 KECCAK256 PUSH2 0x11C5 PUSH1 0xFF PUSH1 0x40 MLOAD SWAP3 PUSH2 0x1184 DUP5 PUSH2 0x102B JUMP JUMPDEST SLOAD PUSH1 0x1 PUSH1 0x1 PUSH1 0xA0 SHL SUB DUP2 AND DUP5 MSTORE PUSH1 0xA0 DUP2 SWAP1 SHR PUSH8 0xFFFFFFFFFFFFFFFF AND PUSH1 0x20 DUP6 ADD MSTORE PUSH1 0xE0 DUP2 SWAP1 SHR PUSH2 0xFFFF AND PUSH1 0x40 DUP6 ADD MSTORE PUSH1 0xF0 SHR AND ISZERO ISZERO PUSH1 0x60 DUP4 ADD DUP2 SWAP1 MSTORE PUSH2 0x107F JUMP JUMPDEST PUSH20 0xEAF75B465F791B24C3B3E17A2F4793A67E3941FD CALLER SUB PUSH2 0x1675 JUMPI JUMPDEST PUSH1 0x1 DUP1 PUSH1 0xA0 SHL SUB PUSH1 0x1 SLOAD AND SWAP3 PUSH1 0x40 MLOAD SWAP2 PUSH2 0x11FA DUP4 PUSH2 0x102B JUMP JUMPDEST DUP2 DUP4 MSTORE ADDRESS PUSH1 0x20 DUP5 ADD SWAP1 DUP2 MSTORE PUSH1 0x1 PUSH1 0x1 PUSH1 0x80 SHL SUB PUSH1 0x40 DUP1 DUP7 ADD DUP3 DUP2 MSTORE PUSH1 0x60 DUP8 ADD DUP4 DUP2 MSTORE DUP3 MLOAD PUSH4 0xFC6F7865 PUSH1 0xE0 SHL DUP2 MSTORE SWAP8 MLOAD PUSH1 0x4 DUP10 ADD MSTORE SWAP4 MLOAD PUSH1 0x1 PUSH1 0x1 PUSH1 0xA0 SHL SUB AND PUSH1 0x24 DUP9 ADD MSTORE MLOAD DUP3 AND PUSH1 0x44 DUP8 ADD MSTORE SWAP2 MLOAD AND PUSH1 0x64 DUP6 ADD MSTORE DUP4 PUSH1 0x84 DUP2 PUSH1 0x0 DUP10 GAS CALL SWAP5 DUP6 ISZERO PUSH2 0x141B JUMPI PUSH1 0x0 SWAP4 PUSH1 0x0 SWAP7 PUSH2 0x163A JUMPI JUMPDEST POP DUP4 ISZERO DUP7 DUP2 PUSH2 0x1631 JUMPI JUMPDEST POP PUSH2 0x1623 JUMPI PUSH1 0x40 MLOAD SWAP2 DUP3 SWAP2 PUSH4 0x133F7571 PUSH1 0xE3 SHL DUP4 MSTORE DUP5 PUSH1 0x4 DUP5 ADD MSTORE DUP3 PUSH1 0x24 PUSH2 0x180 SWAP6 DUP7 SWAP4 GAS STATICCALL SWAP2 DUP3 ISZERO PUSH2 0x141B JUMPI PUSH1 0x0 SWAP4 PUSH1 0x0 SWAP4 PUSH2 0x1568 JUMPI JUMPDEST POP POP PUSH2 0x3E8 SWAP1 DUP2 PUSH2 0x12CF PUSH2 0xFFFF PUSH2 0x12C8 DUP2 PUSH1 0x40 DUP7 ADD MLOAD AND PUSH2 0x1101 JUMP JUMPDEST AND DUP9 PUSH2 0x112B JUMP JUMPDEST DIV SWAP2 PUSH2 0x12ED PUSH2 0xFFFF PUSH2 0x12E6 DUP2 PUSH1 0x40 DUP7 ADD MLOAD AND PUSH2 0x1101 JUMP JUMPDEST AND DUP11 PUSH2 0x112B JUMP JUMPDEST DIV PUSH2 0x12F8 DUP4 DUP9 PUSH2 0x113E JUMP JUMPDEST SWAP2 PUSH2 0x1303 DUP3 DUP12 PUSH2 0x113E JUMP JUMPDEST SWAP4 DUP1 PUSH2 0x14FF JUMPI JUMPDEST POP DUP2 PUSH2 0x1491 JUMPI JUMPDEST POP POP DUP1 PUSH2 0x1427 JUMPI JUMPDEST POP DUP1 PUSH2 0x1371 JUMPI JUMPDEST POP PUSH1 0x40 DUP1 MLOAD PUSH1 0x1 PUSH1 0x1 PUSH1 0xA0 SHL SUB SWAP4 DUP5 AND DUP2 MSTORE SWAP3 SWAP1 SWAP2 AND PUSH1 0x20 DUP4 ADD MSTORE DUP2 ADD DUP4 SWAP1 MSTORE PUSH1 0x60 DUP2 ADD DUP6 SWAP1 MSTORE PUSH32 0x529BBA57BDB8378BB850B7BD9677F1E8FC38DBA3D309FDA743A7B2921D534A0A SWAP1 PUSH1 0x80 SWAP1 LOG2 SWAP2 SWAP1 JUMP JUMPDEST PUSH1 0x2 SLOAD PUSH1 0x40 MLOAD PUSH4 0xA9059CBB PUSH1 0xE0 SHL DUP2 MSTORE PUSH1 0x1 PUSH1 0x1 PUSH1 0xA0 SHL SUB SWAP1 SWAP2 AND PUSH1 0x4 DUP3 ADD MSTORE PUSH1 0x24 DUP2 ADD SWAP2 SWAP1 SWAP2 MSTORE SWAP2 PUSH1 0x20 DUP4 DUP1 PUSH1 0x44 DUP2 ADD SUB DUP2 PUSH1 0x0 PUSH1 0x1 PUSH1 0x1 PUSH1 0xA0 SHL SUB DUP8 AND GAS CALL SWAP2 DUP3 ISZERO PUSH2 0x141B JUMPI PUSH32 0x529BBA57BDB8378BB850B7BD9677F1E8FC38DBA3D309FDA743A7B2921D534A0A SWAP4 PUSH1 0x80 SWAP4 PUSH2 0x13EC JUMPI JUMPDEST POP SWAP2 POP SWAP2 PUSH2 0x1320 JUMP JUMPDEST PUSH2 0x140D SWAP1 PUSH1 0x20 RETURNDATASIZE PUSH1 0x20 GT PUSH2 0x1414 JUMPI JUMPDEST PUSH2 0x1405 DUP2 DUP4 PUSH2 0x105D JUMP JUMPDEST DUP2 ADD SWAP1 PUSH2 0x114B JUMP JUMPDEST POP CODESIZE PUSH2 0x13E3 JUMP JUMPDEST POP RETURNDATASIZE PUSH2 0x13FB JUMP JUMPDEST PUSH1 0x40 MLOAD RETURNDATASIZE PUSH1 0x0 DUP3 RETURNDATACOPY RETURNDATASIZE SWAP1 REVERT JUMPDEST PUSH1 0x2 SLOAD PUSH1 0x40 MLOAD PUSH4 0xA9059CBB PUSH1 0xE0 SHL DUP2 MSTORE PUSH1 0x1 PUSH1 0x1 PUSH1 0xA0 SHL SUB SWAP1 SWAP2 AND PUSH1 0x4 DUP3 ADD MSTORE PUSH1 0x24 DUP2 ADD SWAP2 SWAP1 SWAP2 MSTORE PUSH1 0x20 DUP2 DUP1 PUSH1 0x44 DUP2 ADD SUB DUP2 PUSH1 0x0 PUSH1 0x1 PUSH1 0x1 PUSH1 0xA0 SHL SUB DUP10 AND GAS CALL DUP1 ISZERO PUSH2 0x141B JUMPI ISZERO PUSH2 0x1319 JUMPI PUSH2 0x148A SWAP1 PUSH1 0x20 RETURNDATASIZE PUSH1 0x20 GT PUSH2 0x1414 JUMPI PUSH2 0x1405 DUP2 DUP4 PUSH2 0x105D JUMP JUMPDEST POP CODESIZE PUSH2 0x1319 JUMP JUMPDEST MLOAD PUSH1 0x40 MLOAD PUSH4 0xA9059CBB PUSH1 0xE0 SHL DUP2 MSTORE PUSH1 0x1 PUSH1 0x1 PUSH1 0xA0 SHL SUB SWAP1 SWAP2 AND PUSH1 0x4 DUP3 ADD MSTORE PUSH1 0x24 DUP2 ADD SWAP2 SWAP1 SWAP2 MSTORE PUSH1 0x20 DUP2 DUP1 PUSH1 0x44 DUP2 ADD SUB DUP2 PUSH1 0x0 PUSH1 0x1 PUSH1 0x1 PUSH1 0xA0 SHL SUB DUP10 AND GAS CALL DUP1 ISZERO PUSH2 0x141B JUMPI PUSH2 0x14E0 JUMPI JUMPDEST DUP1 PUSH2 0x1311 JUMP JUMPDEST PUSH2 0x14F8 SWAP1 PUSH1 0x20 RETURNDATASIZE PUSH1 0x20 GT PUSH2 0x1414 JUMPI PUSH2 0x1405 DUP2 DUP4 PUSH2 0x105D JUMP JUMPDEST POP CODESIZE PUSH2 0x14DA JUMP JUMPDEST DUP2 MLOAD PUSH1 0x40 MLOAD PUSH4 0xA9059CBB PUSH1 0xE0 SHL DUP2 MSTORE PUSH1 0x1 PUSH1 0x1 PUSH1 0xA0 SHL SUB SWAP1 SWAP2 AND PUSH1 0x4 DUP3 ADD MSTORE PUSH1 0x24 DUP2 ADD SWAP2 SWAP1 SWAP2 MSTORE PUSH1 0x20 DUP2 DUP1 PUSH1 0x44 DUP2 ADD SUB DUP2 PUSH1 0x0 PUSH1 0x1 PUSH1 0x1 PUSH1 0xA0 SHL SUB DUP13 AND GAS CALL DUP1 ISZERO PUSH2 0x141B JUMPI ISZERO PUSH2 0x130A JUMPI PUSH2 0x1561 SWAP1 PUSH1 0x20 RETURNDATASIZE PUSH1 0x20 GT PUSH2 0x1414 JUMPI PUSH2 0x1405 DUP2 DUP4 PUSH2 0x105D JUMP JUMPDEST POP CODESIZE PUSH2 0x130A JUMP JUMPDEST DUP2 SWAP5 POP DUP1 SWAP3 SWAP4 POP RETURNDATASIZE DUP4 GT PUSH2 0x161C JUMPI JUMPDEST PUSH2 0x1581 DUP2 DUP4 PUSH2 0x105D JUMP JUMPDEST DUP2 ADD SUB SLT PUSH2 0x6C3 JUMPI DUP2 MLOAD PUSH1 0x1 PUSH1 0x1 PUSH1 0x60 SHL SUB DUP2 AND SUB PUSH2 0x6C3 JUMPI PUSH2 0x15A6 PUSH1 0x20 DUP4 ADD PUSH2 0x10CB JUMP JUMPDEST POP PUSH2 0x15B3 PUSH1 0x40 DUP4 ADD PUSH2 0x10CB JUMP JUMPDEST PUSH2 0x15BF PUSH1 0x60 DUP5 ADD PUSH2 0x10CB JUMP JUMPDEST SWAP3 PUSH1 0x80 DUP2 ADD MLOAD PUSH3 0xFFFFFF DUP2 AND SUB PUSH2 0x6C3 JUMPI PUSH2 0x160 DUP2 PUSH2 0x15E3 PUSH1 0xA0 PUSH2 0x1612 SWAP5 ADD PUSH2 0x10DF JUMP JUMPDEST POP PUSH2 0x15F0 PUSH1 0xC0 DUP3 ADD PUSH2 0x10DF JUMP JUMPDEST POP PUSH2 0x15FD PUSH1 0xE0 DUP3 ADD PUSH2 0x10ED JUMP JUMPDEST POP PUSH2 0x160B PUSH2 0x140 DUP3 ADD PUSH2 0x10ED JUMP JUMPDEST POP ADD PUSH2 0x10ED JUMP JUMPDEST POP SWAP2 SWAP1 CODESIZE DUP1 PUSH2 0x12AC JUMP JUMPDEST POP RETURNDATASIZE PUSH2 0x1577 JUMP JUMPDEST POP POP POP POP SWAP1 POP PUSH1 0x0 SWAP1 PUSH1 0x0 SWAP1 JUMP JUMPDEST SWAP1 POP ISZERO CODESIZE PUSH2 0x1274 JUMP JUMPDEST SWAP4 POP SWAP5 POP PUSH1 0x40 DUP4 RETURNDATASIZE PUSH1 0x40 GT PUSH2 0x166D JUMPI JUMPDEST DUP2 PUSH2 0x1657 PUSH1 0x40 SWAP4 DUP4 PUSH2 0x105D JUMP JUMPDEST DUP2 ADD SUB SLT PUSH2 0x6C3 JUMPI PUSH1 0x20 DUP4 MLOAD SWAP4 ADD MLOAD SWAP5 CODESIZE PUSH2 0x126A JUMP JUMPDEST RETURNDATASIZE SWAP2 POP PUSH2 0x164A JUMP JUMPDEST DUP1 MLOAD PUSH1 0x1 PUSH1 0x1 PUSH1 0xA0 SHL SUB AND CALLER EQ PUSH2 0x11E1 JUMPI PUSH1 0x40 MLOAD PUSH3 0x461BCD PUSH1 0xE5 SHL DUP2 MSTORE PUSH1 0x20 PUSH1 0x4 DUP3 ADD MSTORE PUSH1 0x12 PUSH1 0x24 DUP3 ADD MSTORE PUSH18 0x2737BA103837B9B4BA34B7B71037BBB732B9 PUSH1 0x71 SHL PUSH1 0x44 DUP3 ADD MSTORE PUSH1 0x64 SWAP1 REVERT JUMPDEST PUSH1 0x0 NOT DUP2 EQ PUSH2 0x1115 JUMPI PUSH1 0x1 ADD SWAP1 JUMP JUMPDEST DUP1 MLOAD DUP3 LT ISZERO PUSH2 0xFD1 JUMPI PUSH1 0x20 SWAP2 PUSH1 0x5 SHL ADD ADD SWAP1 JUMP JUMPDEST SWAP2 SWAP1 DUP3 ADD DUP1 SWAP3 GT PUSH2 0x1115 JUMPI JUMP JUMPDEST SWAP2 SWAP1 DUP2 LT ISZERO PUSH2 0xFD1 JUMPI PUSH1 0x5 SHL ADD SWAP1 JUMP JUMPDEST ISZERO PUSH2 0x1707 JUMPI JUMP JUMPDEST PUSH1 0x40 MLOAD PUSH3 0x461BCD PUSH1 0xE5 SHL DUP2 MSTORE PUSH1 0x20 PUSH1 0x4 DUP3 ADD MSTORE PUSH1 0x16 PUSH1 0x24 DUP3 ADD MSTORE PUSH22 0x13DB9B1E481C1C9BDD1BD8DBDB0818D85B8818D85B1B PUSH1 0x52 SHL PUSH1 0x44 DUP3 ADD MSTORE PUSH1 0x64 SWAP1 REVERT INVALID LOG2 PUSH5 0x6970667358 0x22 SLT KECCAK256 0x26 CALLVALUE MSIZE 0xC0 0xE9 0xAD JUMP 0xB9 DUP12 DUP15 0x1F 0xEB 0xF ISZERO PUSH7 0x512FF051C62415 0xFC 0xB6 JUMP 0x5C CHAINID 0xB8 GT 0xAE 0xED MULMOD PUSH5 0x736F6C6343 STOP ADDMOD EQ STOP CALLER "},"methodIdentifiers":{"PROTOCOL_ADDRESS()":"2722feee","allTokenIds(uint256)":"7d07b2d2","collectAllFees()":"686f2c90","collectFees(uint256)":"b17acdcd","collectSelectedFees(uint256[])":"87b7f85c","defaultLockingPeriod()":"d406d751","defaultLpFeesCut()":"4751dbaa","feeCollector()":"c415b95c","getAllPositions()":"18f56a0a","getPositionsForUser(address)":"c6d6fe3c","initializePosition(uint256,address,uint64,uint16)":"89853f54","isPositionOwner(address,uint256)":"2bde2bfc","onERC721Received(address,address,uint256,bytes)":"150b7a02","owner()":"8da5cb5b","positionManager()":"791b98bc","positions(uint256)":"99fbab88","protocolCollectAllFees()":"8eaa826b","protocolCollectFeesBatch(uint256,uint256)":"402adba9","renounceOwnership()":"715018a6","transferOwnership(address)":"f2fde38b","updateDefaultLockingPeriod(uint64)":"3aa10f1f","updateDefaultLpFeesCut(uint16)":"02a26471","updateFeeCollector(address)":"d2c35ce8","userTokenIds(address,uint256)":"cc17e15d","withdraw(uint256,address)":"00f714ce"}}}}}