{"contracts/TokenFactory.sol":{"TokenFactory":{"abi":[{"inputs":[{"internalType":"address","name":"_devAddress","type":"address"},{"internalType":"address","name":"_positionManager","type":"address"},{"internalType":"address","name":"_uniswapV3Factory","type":"address"},{"internalType":"address","name":"_weth","type":"address"},{"internalType":"address","name":"_swapRouter","type":"address"},{"internalType":"address","name":"_lpLocker","type":"address"}],"stateMutability":"nonpayable","type":"constructor"},{"inputs":[{"internalType":"address","name":"owner","type":"address"}],"name":"OwnableInvalidOwner","type":"error"},{"inputs":[{"internalType":"address","name":"account","type":"address"}],"name":"OwnableUnauthorizedAccount","type":"error"},{"anonymous":false,"inputs":[{"indexed":false,"internalType":"string","name":"message","type":"string"},{"indexed":false,"internalType":"uint256","name":"value","type":"uint256"}],"name":"Debug","type":"event"},{"anonymous":false,"inputs":[{"indexed":false,"internalType":"string","name":"name","type":"string"},{"indexed":false,"internalType":"address","name":"value","type":"address"}],"name":"DebugAddress","type":"event"},{"anonymous":false,"inputs":[{"indexed":false,"internalType":"string","name":"name","type":"string"},{"indexed":false,"internalType":"int256","name":"value","type":"int256"}],"name":"DebugIntValues","type":"event"},{"anonymous":false,"inputs":[{"indexed":true,"internalType":"address","name":"tokenAddress","type":"address"},{"indexed":false,"internalType":"uint256","name":"tokenId","type":"uint256"},{"indexed":false,"internalType":"uint256","name":"amountToken","type":"uint256"},{"indexed":false,"internalType":"uint256","name":"amountETH","type":"uint256"}],"name":"LiquidityAdded","type":"event"},{"anonymous":false,"inputs":[{"indexed":true,"internalType":"address","name":"previousOwner","type":"address"},{"indexed":true,"internalType":"address","name":"newOwner","type":"address"}],"name":"OwnershipTransferred","type":"event"},{"anonymous":false,"inputs":[{"indexed":true,"internalType":"address","name":"tokenAddress","type":"address"},{"indexed":true,"internalType":"address","name":"owner","type":"address"},{"indexed":false,"internalType":"string","name":"name","type":"string"},{"indexed":false,"internalType":"string","name":"symbol","type":"string"},{"indexed":false,"internalType":"string","name":"handle","type":"string"},{"indexed":false,"internalType":"string","name":"platform","type":"string"},{"indexed":false,"internalType":"string","name":"profileUrl","type":"string"}],"name":"TokenDeployed","type":"event"},{"inputs":[],"name":"FEE_TIER","outputs":[{"internalType":"uint24","name":"","type":"uint24"}],"stateMutability":"view","type":"function"},{"inputs":[{"internalType":"uint256","name":"","type":"uint256"}],"name":"allTokens","outputs":[{"internalType":"address","name":"","type":"address"}],"stateMutability":"view","type":"function"},{"inputs":[],"name":"defaultLockingPeriod","outputs":[{"internalType":"uint64","name":"","type":"uint64"}],"stateMutability":"view","type":"function"},{"inputs":[{"internalType":"string","name":"name","type":"string"},{"internalType":"string","name":"symbol","type":"string"},{"internalType":"address","name":"tokenOwner","type":"address"},{"internalType":"string","name":"handle","type":"string"},{"internalType":"string","name":"platform","type":"string"},{"internalType":"string","name":"profileUrl","type":"string"},{"internalType":"bytes32","name":"salt","type":"bytes32"}],"name":"deployToken","outputs":[{"internalType":"address","name":"","type":"address"}],"stateMutability":"payable","type":"function"},{"inputs":[],"name":"devAddress","outputs":[{"internalType":"address","name":"","type":"address"}],"stateMutability":"view","type":"function"},{"inputs":[{"internalType":"address","name":"deployer","type":"address"},{"internalType":"string","name":"name","type":"string"},{"internalType":"string","name":"symbol","type":"string"},{"internalType":"string","name":"handle","type":"string"},{"internalType":"string","name":"platform","type":"string"},{"internalType":"string","name":"profileUrl","type":"string"}],"name":"generateSalt","outputs":[{"internalType":"bytes32","name":"salt","type":"bytes32"},{"internalType":"address","name":"tokenAddress","type":"address"}],"stateMutability":"view","type":"function"},{"inputs":[],"name":"getAllTokens","outputs":[{"internalType":"address[]","name":"","type":"address[]"}],"stateMutability":"view","type":"function"},{"inputs":[],"name":"lpFeesCut","outputs":[{"internalType":"uint16","name":"","type":"uint16"}],"stateMutability":"view","type":"function"},{"inputs":[],"name":"lpLocker","outputs":[{"internalType":"contract TokenizedProfileMultiPositionLiquidityLocker","name":"","type":"address"}],"stateMutability":"view","type":"function"},{"inputs":[],"name":"owner","outputs":[{"internalType":"address","name":"","type":"address"}],"stateMutability":"view","type":"function"},{"inputs":[],"name":"positionManager","outputs":[{"internalType":"contract INonfungiblePositionManager","name":"","type":"address"}],"stateMutability":"view","type":"function"},{"inputs":[{"internalType":"address","name":"deployer","type":"address"},{"internalType":"string","name":"name","type":"string"},{"internalType":"string","name":"symbol","type":"string"},{"internalType":"string","name":"handle","type":"string"},{"internalType":"string","name":"platform","type":"string"},{"internalType":"string","name":"profileUrl","type":"string"},{"internalType":"bytes32","name":"salt","type":"bytes32"}],"name":"predictTokenAddress","outputs":[{"internalType":"address","name":"","type":"address"}],"stateMutability":"view","type":"function"},{"inputs":[],"name":"protocolCut","outputs":[{"internalType":"uint8","name":"","type":"uint8"}],"stateMutability":"view","type":"function"},{"inputs":[],"name":"renounceOwnership","outputs":[],"stateMutability":"nonpayable","type":"function"},{"inputs":[],"name":"swapRouter","outputs":[{"internalType":"address","name":"","type":"address"}],"stateMutability":"view","type":"function"},{"inputs":[{"internalType":"address","name":"newOwner","type":"address"}],"name":"transferOwnership","outputs":[],"stateMutability":"nonpayable","type":"function"},{"inputs":[],"name":"uniswapV3Factory","outputs":[{"internalType":"contract IUniswapV3Factory","name":"","type":"address"}],"stateMutability":"view","type":"function"},{"inputs":[{"internalType":"address","name":"","type":"address"}],"name":"userToToken","outputs":[{"internalType":"address","name":"","type":"address"}],"stateMutability":"view","type":"function"},{"inputs":[],"name":"weth","outputs":[{"internalType":"address","name":"","type":"address"}],"stateMutability":"view","type":"function"},{"inputs":[],"name":"withdrawETH","outputs":[],"stateMutability":"nonpayable","type":"function"},{"stateMutability":"payable","type":"receive"}],"evm":{"bytecode":{"linkReferences":{},"object":"6080346200029f57601f62004a0d38819003918201601f191683019291906001600160401b03841183851017620002a4578160c092849260409687528339810103126200029f576200005181620002ba565b9060209162000062838301620002ba565b9162000070858201620002ba565b6200007e60608301620002ba565b906200009b60a06200009360808601620002ba565b9401620002ba565b913315620002875760005460018060a01b031996338883161760005589519160018060a01b03978891823391167f8be0079c531659141344cd1fd0a4f28419497f9722a3daafe3b4186f6b6457e0600080a3600980546001600160581b0319166901f40000000001e1855817905516918215620002455750861692831562000203578616918215620001bf5786169788156200017c57509085939291876001541617600155866003541617600355856004541617600455168360055416176005551681600654161760065560025416176002555161473d9081620002d08239f35b6064908a519062461bcd60e51b82526004820152601460248201527f496e76616c6964205745544820616464726573730000000000000000000000006044820152fd5b895162461bcd60e51b8152600481018a9052601760248201527f496e76616c696420666163746f727920616464726573730000000000000000006044820152606490fd5b6064898b519062461bcd60e51b825280600483015260248201527f496e76616c696420706f736974696f6e206d616e6167657220616464726573736044820152fd5b62461bcd60e51b8152600481018a9052601360248201527f496e76616c6964206465762061646472657373000000000000000000000000006044820152606490fd5b8751631e4fbdf760e01b815260006004820152602490fd5b600080fd5b634e487b7160e01b600052604160045260246000fd5b51906001600160a01b03821682036200029f5756fe608060405260043610156200001d575b36156200001b57600080fd5b005b60003560e01c806303fc2013146200018457806319042a6f146200017e57806328d249fe14620001785780632a5c792a14620001725780633ad10ef6146200016c5780633fc8cef314620001665780634c69a6c9146200016057806357aa0201146200015a5780635b5491821462000154578063634282af146200014e578063715018a61462000148578063791b98bc14620001425780638da5cb5b146200013c578063c1cfcf5d1462000136578063c31c9c071462000130578063d406d751146200012a578063d69361211462000124578063de04f42e146200011e578063e086e5ec14620001185763f2fde38b036200000f5762000994565b62000910565b620008ea565b6200080b565b620007e2565b620007b7565b62000701565b620005d8565b620005ad565b6200054e565b620004f0565b620004c5565b6200049e565b6200047f565b62000454565b62000429565b62000357565b62000314565b62000228565b6200019b565b60009103126200019657565b600080fd5b346200019657600036600319011262000196576005546040516001600160a01b039091168152602090f35b6001600160a01b038116036200019657565b60043590620001e782620001c6565b565b60443590620001e782620001c6565b9181601f8401121562000196578235916001600160401b0383116200019657602083818601950101116200019657565b34620001965760e0366003190112620001965762000245620001d8565b6001600160401b03602435818111620001965762000268903690600401620001f8565b604493919335838111620001965762000286903690600401620001f8565b6064959195358581116200019657620002a4903690600401620001f8565b6084929192358781116200019657620002c2903690600401620001f8565b93909260a43598891162000196576200031099620002e9620002f69a3690600401620001f8565b98909760c4359a62000b1f565b6040516001600160a01b0390911681529081906020820190565b0390f35b3462000196576020366003190112620001965760206004356200033781620001c6565b60018060a01b038091166000526007825260406000205416604051908152f35b346200019657600080600319360112620004265760405180916008549081835260208093018092600883527ff3f7a9fe364faab93b216da50a3214154f22a0a2b415b23a84c8169e8b636ee390835b818110620004085750505084620003bf91038562000633565b60405193838594850191818652518092526040850193925b828110620003e757505050500390f35b83516001600160a01b031685528695509381019392810192600101620003d7565b82546001600160a01b031684529286019260019283019201620003a6565b80fd5b346200019657600036600319011262000196576001546040516001600160a01b039091168152602090f35b346200019657600036600319011262000196576002546040516001600160a01b039091168152602090f35b346200019657600036600319011262000196576020604051610bb88152f35b34620001965760003660031901126200019657602060095461ffff6040519160401c168152f35b346200019657600036600319011262000196576003546040516001600160a01b039091168152602090f35b34620001965760203660031901126200019657600435600854811015620001965760086000527ff3f7a9fe364faab93b216da50a3214154f22a0a2b415b23a84c8169e8b636ee301546040516001600160a01b039091168152602090f35b34620001965760008060031936011262000426576200056c62000a27565b80546001600160a01b03198116825581906001600160a01b03167f8be0079c531659141344cd1fd0a4f28419497f9722a3daafe3b4186f6b6457e08280a380f35b346200019657600036600319011262000196576004546040516001600160a01b039091168152602090f35b346200019657600036600319011262000196576000546040516001600160a01b039091168152602090f35b634e487b7160e01b600052604160045260246000fd5b6001600160401b0381116200062d57604052565b62000603565b90601f801991011681019081106001600160401b038211176200062d57604052565b6040519061016082018281106001600160401b038211176200062d57604052565b6040519060e082018281106001600160401b038211176200062d57604052565b90620001e7604051928362000633565b81601f8201121562000196578035906001600160401b0382116200062d5760405192620006de601f8401601f19166020018562000633565b828452602083830101116200019657816000926020809301838601378301015290565b60e036600319011262000196576001600160401b03600480358281116200019657620007319036908301620006a6565b60243583811162000196576200074b9036908401620006a6565b62000755620001e9565b60643585811162000196576200076f9036908601620006a6565b6084358681116200019657620007899036908701620006a6565b9160a4359687116200019657620007ac620002f6966200031098369101620006a6565b9360c4359562000d31565b346200019657600036600319011262000196576006546040516001600160a01b039091168152602090f35b3462000196576000366003190112620001965760206001600160401b0360095416604051908152f35b34620001965760c0366003190112620001965762000828620001d8565b6001600160401b039060243582811162000196576200084c903690600401620001f8565b60449291923584811162000196576200086a903690600401620001f8565b606492919235868111620001965762000888903690600401620001f8565b916084358881116200019657620008a4903690600401620001f8565b95909460a435998a116200019657620008c6620008cf9a3690600401620001f8565b99909862000c5a565b604080519283526001600160a01b0391909116602083015290f35b34620001965760003660031901126200019657602060ff60095460501c16604051908152f35b34620001965760008060031936011262000426576200092e62000a27565b4780156200095a57815482918291829182916001600160a01b031682f115620009545780f35b620025db565b60405162461bcd60e51b81526020600482015260126024820152714e6f2045544820746f20776974686472617760701b6044820152606490fd5b34620001965760203660031901126200019657600435620009b581620001c6565b620009bf62000a27565b6001600160a01b03908116801562000a0e57600080546001600160a01b03198116831782559092167f8be0079c531659141344cd1fd0a4f28419497f9722a3daafe3b4186f6b6457e08380a380f35b604051631e4fbdf760e01b815260006004820152602490fd5b6000546001600160a01b0316330362000a3c57565b60405163118cdaa760e01b8152336004820152602490fd5b908060209392818452848401376000828201840152601f01601f1916010190565b9896949162000ac09362000ade9b999562000aa262000acf999462000ab19460a08f818152019162000a54565b8c810360208e01529162000a54565b9189830360408b015262000a54565b91868303606088015262000a54565b92608081850391015262000a54565b90565b60005b83811062000af55750506000910152565b818101518382015260200162000ae4565b9062000b1b6020928281519485920162000ae1565b0190565b604080516001600160a01b039290921660208084019182528383019e909e52908252949a601f199a949993988d989397919690939262000b6160608262000633565b5190209b61178a9a62000b768a8d0162000696565b8c81529b62002f5e8b8e01396040519a8b9a8b019962000b969a62000a75565b03838101825262000ba8908262000633565b6040518091868201938462000bbd9162000b06565b62000bc89162000b06565b03838101825262000bda908262000633565b5190206040516001600160f81b03199481019485523060601b6bffffffffffffffffffffffff1916600186015260158501939093526035840152816055840103908101825262000c2b908262000633565b5190206001600160a01b03165b6001600160a01b031690565b634e487b7160e01b600052601160045260246000fd5b9590969197929a9893946103e89a9560009c8d9a60018060a01b039d8e600254169c5b1062000cc85760405162461bcd60e51b815260206004820152601c60248201527f436f756c64206e6f742066696e64207375697461626c652073616c74000000006044820152606490fd5b8d8f62000ce78e918c8f8f8c8f928f928c8f928f928e918e9162000b1f565b918216108062000d27575b62000d1757506000198f1462000d115760016103e89f019e8f62000c7d565b62000c44565b9d50505050505050505050505050565b50803b1562000cf2565b939562000e6b62000e5c91969493929662000d4b62000a27565b600080516020620046e88339815191526040518062000d9b34829190604083526015604084015274436865636b696e6720726571756972656d656e747360581b6060840152602060808401930152565b0390a16001600160a01b0384811660009081526007602052604090205462000dc591161562002374565b62000ddb6001600160a01b0385161515620023cc565b600080516020620046e88339815191526040518062000e3e819060408252602260408301527f4465706c6f79696e6720536f6369616c546f6b656e2077697468204352454154606083015261229960f11b60808301526000602060a08401930152565b0390a160408051336020820152908101919091529182906060820190565b03601f19810183528262000633565b6020815191012062000ecb62000ed28862000e5c8962000eba8a62000e5c8b61178a9662000e9c6020890162000696565b9780895262002f5e60208a01398c6040519687956020870162002436565b604051948593602085019062000b06565b9062000b06565b62000f6962000f3e62000c3862000c388451602086012060405162000f2f8162000e5c60208201948b3087916055939160ff60f81b84526bffffffffffffffffffffffff199060601b166001840152601583015260358201520190565b5190206001600160a01b031690565b60025462000f579062000c38906001600160a01b031681565b6001600160a01b03909116106200249b565b6020815191016000f59562000f896001600160a01b0388161515620024fd565b60408051818152600d918101919091526c546f6b656e204164647265737360981b60608201526001600160a01b03881660208201527fb3f7d6c63a62ab0e6ae5263ef1deb9c5a64f4689288c380db949c116314a554090608090a16001600160a01b03828116600090815260076020526040902080546001600160a01b03191691891691821790556200101c906200254a565b6040516370a0823160e01b8152306004820152936020856024816001600160a01b038c165afa94851562000954576000956200234e575b50600080516020620046e883398151915260405180620010a488829190604083526015604084015274496e697469616c20746f6b656e2062616c616e636560581b6060840152602060808401930152565b0390a1600080516020620046e883398151915260405180620011178882919060408352602f60408401527f417070726f76696e6720746f6b656e7320666f72204e6f6e66756e6769626c6560608401526e2837b9b4ba34b7b726b0b730b3b2b960891b6080840152602060a08401930152565b0390a16004546200116c9060209087906200113b906001600160a01b031662000c38565b60405163095ea7b360e01b81526001600160a01b039091166004820152602481019190915291829081906044820190565b038160006001600160a01b038e165af18015620009545762001198916000916200232a575b5062002601565b600254620011b19062000c38906001600160a01b031681565b803b156200019657600060049160405192838092630d0e30db60e41b825234905af18015620009545762002313575b50600060206200124c6200120362000c3862000c3860025460018060a01b031690565b6004546200121a906001600160a01b031662000c38565b60405163095ea7b360e01b81526001600160a01b03909116600482015234602482015293849283919082906044820190565b03925af1801562000954576200126c91600091620022dd575b5062002640565b60035462001283906001600160a01b031662000c38565b6040516322afcccb60e01b8152610bb8600482015290602082602481845afa9182156200095457600092620022a5575b50604051907f0f5d2cd60f752ff8ca00b1fc30ea4d78c233eca72c1ed58d0d62424e09f0951e828193620013118660020b82919060408352600b60408401526a5469636b53706163696e6760a81b6060840152602060808401930152565b0390a1620013416200132e846200132881620026b5565b620026ce565b936200133a81620028f7565b0260020b90565b9180604051806200137f8760020b82919060408352600e60408401526d4d696e5469636b53706163696e6760901b6060840152602060808401930152565b0390a160405180620013be8560020b82919060408352600e60408401526d4d61785469636b53706163696e6760901b6060840152602060808401930152565b0390a1620014b060208c620013d38662002c25565b60408051818152600c918101919091526b39b8b93a283934b1b2ac1c9b60a11b60608201526001600160a01b0382166020820152909490600080516020620046e883398151915290608090a1600080516020620046e8833981519152604051806200146b819060408252601160408301527010dc99585d1a5b99c81b995dc81c1bdbdb607a1b60608301526000602060808401930152565b0390a160025460405163a167129560e01b81526001600160a01b03938416600482015292166024830152610bb860448301529092839190829060009082906064820190565b03925af1600091816200226d575b506200160c57620014ce620026fe565b6308c379a003620025db57620014e36200271d565b80620014f05750620025db565b600254620015099062000c38906001600160a01b031681565b803b156200019657604051632e1a7d4d60e01b8152346004820152906000908290602490829084905af180156200095457620015ea9262000e5c92620015d192620015ee575b50600080516020620046e8833981519152604051806200159f8190604082526014604083015273141bdbdb0818dc99585d1a5bdb8819985a5b195960621b60608301526000602060808401930152565b0390a16040517502837b7b61031b932b0ba34b7b7103330b4b632b21d160551b60208201529283916036830162000ecb565b60405162461bcd60e51b81529182916004830162002791565b0390fd5b80620015fe620016059262000619565b806200018a565b846200154f565b600080516020620046e88339815191526040518062001664819060408252601c60408301527f506f6f6c206372656174656420616e6420696e697469616c697a65640000000060608301526000602060808401930152565b0390a1600080516020620046e883398151915260405180620016b48190604082526012604083015271024b734ba34b0b634bd34b733903837b7b6160751b60608301526000602060808401930152565b0390a16001600160a01b0381163b15620001965760405163f637731d60e01b81526001600160a01b03928316600482015291600091839160249183918591165af1908162002256575b5062001819576200170d620026fe565b6308c379a01462001756575b600080516020620046e883398151915260405180620017388162002809565b0390a160405162461bcd60e51b815280620015ea6004820162002820565b620017606200271d565b806200176d575062001719565b62000e5c620015d1620015ea92600080516020620046e8833981519152620017e0604051620017d38162000e5c620017cc60208301601c907f506f6f6c20696e697469616c697a6174696f6e206661696c65643a200000000081520190565b8762000b06565b60405191829182620027a4565b0390a16040517f506f6f6c20696e697469616c697a6174696f6e206661696c65643a20000000006020820152928391603c830162000ecb565b89600080516020620046e8833981519152620019ab6000996080956200193262001a7196856040518062001879819060408252601060408301526f141bdbdb081a5b9a5d1a585b1a5e995960821b60608301526000602060808401930152565b0390a18560405180620018c53482919060408352601a60408401527f4d696e74696e67206c697175696469747920706f736974696f6e0000000000006060840152602060808401930152565b0390a160025462001929906001600160a01b03169362001917620018e94262002831565b9562001907620018f862000655565b6001600160a01b03909c168c52565b6001600160a01b031660208b0152565b610bb860408a015260020b6060890152565b60020b86890152565b3460a086015260c0850182905260e085018c905261010085018c90523061012086015261014085015260405191829182919060408352602260408401527f4d696e74696e6720706f736974696f6e207769746820746f6b656e20616d6f756060840152611b9d60f21b6080840152602060a08401930152565b0390a1600454620019c5906001600160a01b031662000c38565b60408051634418b22b60e11b815283516001600160a01b0390811660048301526020850151811660248301529184015162ffffff1660448201526060840151600290810b60648301526080850151900b608482015260a084015160a482015260c084015160c482015260e084015160e482015261010084015161010482015261012084015190911661012482015261014090920151610144830152909788928391908290610164820190565b03925af160008160009760009362002217575b5062001b845762001a94620026fe565b6308c379a01462001add575b600080516020620046e88339815191526040518062001abf81620028cf565b0390a160405162461bcd60e51b815280620015ea60048201620028e6565b62001ae76200271d565b8062001af4575062001aa0565b62000e5c620015d1620015ea92600080516020620046e883398151915262001b4f604051620017d38162000e5c620017cc602083016019907802837b9b4ba34b7b71036b4b73a34b733903330b4b632b21d1603d1b81520190565b0390a16040517802837b9b4ba34b7b71036b4b73a34b733903330b4b632b21d1603d1b60208201529283916039830162000ecb565b9590600080516020620046e88339815191526040518062001bde819060408252601d60408301527f5472616e7366657272696e67204e465420746f204c50206c6f636b657200000060608301526000602060808401930152565b0390a160045462001bf8906001600160a01b031662000c38565b60055490919062001c12906001600160a01b031662000c38565b91803b156200019657604051632142170760e11b81523060048201526001600160a01b03939093166024840152604483018990526000908390606490829084905af190811562000954577f64b83944e79c3ce8d4c297411de637c3e102d064677aac0c163976ebdcd6f50e9262001cb19262002200575b50604080518a815260208101959095528401526001600160a01b038b16929081906060820190565b0390a26040516370a0823160e01b81523060048201526020816024816001600160a01b038d165afa9081156200095457600080516020620046e88339815191529162001d4691600091620021dc575b5060405191829182919060408352601960408401527f52656d61696e696e6720746f6b656e73206166746572204c50000000000000006060840152602060808401930152565b0390a1600080516020620046e88339815191526040518062001da1819060408252601f60408301527f496e697469616c697a696e6720706f736974696f6e20696e206c6f636b65720060608301526000602060808401930152565b0390a160055462001dbb906001600160a01b031662000c38565b946009549062001de562001dd96001600160401b0384164262002841565b6001600160401b031690565b96803b156200019657604080516322614fd560e21b815260048101939093526001600160a01b03871660248401526001600160401b0390981660448301529190961c61ffff16606487015260009086908183816084810103925af191821562000954577f71367ae73260b1c5a8e707d05a95834f62c68d3275284ce234e59a685fa7dc299562001e8e93620021c5575b5060405194859460018060a01b03169830988662002436565b0390a3600080516020620046e88339815191526040518062001ee93482919060408352601a60408401527f52656d61696e696e672066756e647320666f7220746f6b656e730000000000006060840152602060808401930152565b0390a13462001efe576001600160a01b031690565b600080516020620046e88339815191526040518062001f4d81906040825260146040830152730457865637574696e6720746f6b656e20737761760641b60608301526000602060808401930152565b0390a160025462002040906020906001600160a01b031662001f8162001f7262000676565b6001600160a01b039092168252565b6001600160a01b03841681830152610bb86040820152336060820152346080820152600060a0820181905260c082015260065462001fca9062000c38906001600160a01b031681565b604080516304e45aaf60e01b815283516001600160a01b0390811660048301526020850151811660248301529184015162ffffff1660448201526060840151821660648201526080840151608482015260a084015160a482015260c0909301511660c483015290928391908290819060e4820190565b039134905af1600091816200218d575b50620021415750600162002063620026fe565b6308c379a014620020d6575b1562000c3857600080516020620046e883398151915260405180620020cd819060408252601e60408301527f53776170206661696c6564207769746820756e6b6e6f776e206572726f72000060608301526000602060808401930152565b0390a162000c38565b620020e06200271d565b80620020ee575b506200206f565b9050600080516020620046e88339815191526200213762000e5c620017d360009460405192839162000ecb60208401600d906c029bbb0b8103330b4b632b21d1609d1b81520190565b0390a138620020e7565b620020cd600080516020620046e88339815191529160405191829182919060408352600f60408401526e14ddd85c08185b5bdd5b9d081bdd5d608a1b6060840152602060808401930152565b620021b591925060203d602011620021bd575b620021ac818362000633565b810190620025cb565b903862002050565b503d620021a0565b80620015fe620021d59262000619565b3862001e75565b620021f9915060203d602011620021bd57620021ac818362000633565b3862001d00565b80620015fe620022109262000619565b3862001c89565b9150965062002241915060803d81116200224e575b62002238818362000633565b8101906200284f565b9097909291503862001a84565b503d6200222c565b80620015fe620022669262000619565b38620016fd565b6200229591925060203d6020116200229d575b6200228c818362000633565b810190620026e6565b9038620014be565b503d62002280565b620022cd91925060203d602011620022d5575b620022c4818362000633565b81019062002684565b9038620012b3565b503d620022b8565b62002304915060203d6020116200230b575b620022fb818362000633565b810190620025e7565b3862001265565b503d620022ef565b80620015fe620023239262000619565b38620011e0565b62002347915060203d6020116200230b57620022fb818362000633565b3862001191565b6200236c91955060203d602011620021bd57620021ac818362000633565b933862001053565b156200237c57565b60405162461bcd60e51b815260206004820152602260248201527f546f6b656e20616c72656164792065786973747320666f72207468697320757360448201526132b960f11b6064820152608490fd5b15620023d457565b60405162461bcd60e51b815260206004820152601360248201527224b73b30b634b2103a37b5b2b71037bbb732b960691b6044820152606490fd5b906020916200242a8151809281855285808601910162000ae1565b601f01601f1916010190565b939062000ade95936200246e6200248c946200245f6200247d9460a08a5260a08a01906200240f565b9088820360208a01526200240f565b9086820360408801526200240f565b9084820360608601526200240f565b9160808184039101526200240f565b15620024a357565b60405162461bcd60e51b815260206004820152602c60248201527f546f6b656e2061646472657373206d757374206265206c657373207468616e2060448201526b57455448206164647265737360a01b6064820152608490fd5b156200250557565b60405162461bcd60e51b815260206004820152601760248201527f546f6b656e206465706c6f796d656e74206661696c65640000000000000000006044820152606490fd5b600854680100000000000000008110156200062d576001810180600855811015620025b55760086000527ff3f7a9fe364faab93b216da50a3214154f22a0a2b415b23a84c8169e8b636ee30180546001600160a01b0319166001600160a01b03909216919091179055565b634e487b7160e01b600052603260045260246000fd5b9081602091031262000196575190565b6040513d6000823e3d90fd5b908160209103126200019657518015158103620001965790565b156200260957565b60405162461bcd60e51b815260206004820152600f60248201526e105c1c1c9bdd985b0819985a5b1959608a1b6044820152606490fd5b156200264857565b60405162461bcd60e51b815260206004820152601460248201527315d1551208185c1c1c9bdd985b0819985a5b195960621b6044820152606490fd5b908160209103126200019657518060020b8103620001965790565b634e487b7160e01b600052601260045260246000fd5b60020b8015620026c857620d89b3190590565b6200269f565b9060020b9060020b02908160020b91820362000d1157565b9081602091031262000196575162000ade81620001c6565b60009060033d116200270c57565b905060046000803e60005160e01c90565b600060443d1062000ade57604051600319913d83016004833e81516001600160401b03918282113d602484011117620027805781840194855193841162002788573d8501016020848701011162002780575062000ade9291016020019062000633565b949350505050565b50949350505050565b90602062000ade9281815201906200240f565b91906020620027be6000926040865260408601906200240f565b930152565b602d81527f506f6f6c20696e697469616c697a6174696f6e206661696c656420776974682060208201526c3ab735b737bbb71032b93937b960991b604082015260600190565b906040825260006020620027be60408501620027c3565b602062000ade9181815201620027c3565b9061012c820180921162000d1157565b9190820180921162000d1157565b9190826080910312620001965781519160208101516fffffffffffffffffffffffffffffffff811681036200019657916060604083015192015190565b602a81527f506f736974696f6e206d696e74696e67206661696c6564207769746820756e6b6020820152693737bbb71032b93937b960b11b604082015260600190565b906040825260006020620027be604085016200288c565b602062000ade91818152016200288c565b60020b8015620026c857620d89e80590565b600160ff1b811462000d115760000390565b156200292357565b60405162461bcd60e51b81526020600482015260016024820152601560fa1b6044820152606490fd5b906ffff97272373d413259a46990580e213a9182810292818404149015171562000d1157565b906ffff2e50f5f656932ef12357cf3c7fdcc9182810292818404149015171562000d1157565b906fffe5caca7e10e4e61c3624eaa0941cd09182810292818404149015171562000d1157565b906fffcb9843d60f6159c9db58835c9266449182810292818404149015171562000d1157565b906fff973b41fa98c081472e6896dfb254c09182810292818404149015171562000d1157565b906fff2ea16466c96a3843ec78b326b528619182810292818404149015171562000d1157565b906ffe5dee046a99a2a811c461f1969c30539182810292818404149015171562000d1157565b906ffcbe86c7900a88aedcffc83b479aa3a49182810292818404149015171562000d1157565b906ff987a7253ac413176f2b074cf7815e549182810292818404149015171562000d1157565b906ff3392b0822b70005940c7a398e4b70f39182810292818404149015171562000d1157565b906fe7159475a2c29b7443b29c7fa6e889d99182810292818404149015171562000d1157565b906fd097f3bdfd2022b8845ad8f792aa58259182810292818404149015171562000d1157565b906fa9f746462d870fdf8a65dc1f90e061e59182810292818404149015171562000d1157565b906f70d869a156d2a1b890bb3df62baf32f79182810292818404149015171562000d1157565b906f31be135f97d08fd981231505542fcfa69182810292818404149015171562000d1157565b906f09aa508b5b7a84e1c677de54f3e99bc99182810292818404149015171562000d1157565b906e5d6af8dedb81196699c329225ee6049182810292818404149015171562000d1157565b906d2216e584f5fa1ea926041bedfe989182810292818404149015171562000d1157565b906b048a170391f7dc42444e8fa29182810292818404149015171562000d1157565b8015620026c8576000190490565b8060020b906000821260001462002f565762002c418262002909565b915b62002c54620d89e88411156200291b565b600183161562002f43576001600160881b036ffffcb933bd6fad37aa2d162d1a5940015b16926002811662002f2c575b6004811662002f15575b6008811662002efe575b6010811662002ee7575b6020811662002ed0575b6040811662002eb9575b6080811662002ea2575b610100811662002e8b575b610200811662002e74575b610400811662002e5d575b610800811662002e46575b611000811662002e2f575b612000811662002e18575b614000811662002e01575b618000811662002dea575b62010000811662002dd3575b62020000811662002dbc575b62040000811662002d9f575b620800001662002d7e575b60001262002d64575b63ffffffff90151560e01b910160201c1790565b9062002d7563ffffffff9162002c17565b91905062002d50565b9162002d9662002d9060009262002bf5565b60801c90565b92905062002d47565b9262002db362002d90620800009262002bd1565b93905062002d3c565b9262002d9062002dcc9162002bac565b9262002d30565b9262002d9062002de39162002b86565b9262002d24565b9262002d9062002dfa9162002b60565b9262002d18565b9262002d9062002e119162002b3a565b9262002d0d565b9262002d9062002e289162002b14565b9262002d02565b9262002d9062002e3f9162002aee565b9262002cf7565b9262002d9062002e569162002ac8565b9262002cec565b9262002d9062002e6d9162002aa2565b9262002ce1565b9262002d9062002e849162002a7c565b9262002cd6565b9262002d9062002e9b9162002a56565b9262002ccb565b9262002d9062002eb29162002a30565b9262002cc0565b9262002d9062002ec99162002a0a565b9262002cb6565b9262002d9062002ee091620029e4565b9262002cac565b9262002d9062002ef791620029be565b9262002ca2565b9262002d9062002f0e9162002998565b9262002c98565b9262002d9062002f259162002972565b9262002c8e565b9262002d9062002f3c916200294c565b9262002c84565b6001600160881b03600160801b62002c78565b8162002c4356fe60406080815234620009f1576200178a803803806200001e81620009f6565b928339810160a082820312620009f15781516001600160401b038111620009f157816200004d91840162000a41565b60208301519091906001600160401b038111620009f157816200007291850162000a41565b838501516001600160401b038111620009f157826200009391860162000a41565b60608501519094906001600160401b038111620009f15783620000b891830162000a41565b60808201519093906001600160401b038111620009f157620000db920162000a41565b835190936001600160401b038211620005a15760035490600182811c92168015620009e6575b6020831014620005805781601f84931162000971575b50602090601f8311600114620008e657600092620008da575b50508160011b916000199060031b1c1916176003555b8051906001600160401b038211620005a15760045490600182811c92168015620008cf575b6020831014620005805781601f8493116200085a575b50602090601f8311600114620007cf57600092620007c3575b50508160011b916000199060031b1c1916176004555b3315620007ab5760058054336001600160a01b0319821681179092556001600160a01b03167f8be0079c531659141344cd1fd0a4f28419497f9722a3daafe3b4186f6b6457e0600080a36002546b033b2e3c9fd0803ce80000009081810180911162000795577f3c5ad147104e56be34a9176a6692f7df8d2f4b29a5af06bc6b98970d329d65779160809160025533600052600060205286600020818154019055865181815260007fddf252ad1be2c89b69c2b068fc378daa952ba7f163c4a11628f55a4df523b3ef60203393a38651908782526015888301527f4d696e74656420696e697469616c20737570706c79000000000000000000000060608301526020820152a18351606081016001600160401b03811182821017620005a15785528381526020810182815290850183815284519091906001600160401b038111620005a157600654600181811c911680156200078a575b60208210146200058057601f811162000731575b50806020601f8211600114620006b857600091620006ac575b508160011b916000199060031b1c1916176006555b518051906001600160401b038211620005a15760075490600182811c92168015620006a1575b6020831014620005805781601f8493116200063d575b50602090601f8311600114620005c357600092620005b7575b50508160011b916000199060031b1c1916176007555b518051906001600160401b038211620005a157600854600181811c9116801562000596575b60208210146200058057601f811162000527575b50602090601f83116001146200048d576000805160206200170a8339815191529593836200047094620004539794620004629460009262000481575b50508160011b916000199060031b1c1916176008555b875195869560608752606087019062000a98565b90858203602087015262000a98565b908382038785015262000a98565b0390a151610c4a908162000ac08239f35b01519050388062000429565b600860009081526000805160206200174a833981519152929190601f198516905b8181106200050e57508462000453979462000462946000805160206200170a8339815191529a9894620004709860019510620004f4575b505050811b016008556200043f565b015160001960f88460031b161c19169055388080620004e5565b92936020600181928786015181550195019301620004ae565b60086000526000805160206200174a833981519152601f840160051c8101916020851062000575575b601f0160051c01905b818110620005685750620003ed565b6000815560010162000559565b909150819062000550565b634e487b7160e01b600052602260045260246000fd5b90607f1690620003d9565b634e487b7160e01b600052604160045260246000fd5b0151905038806200039e565b600760009081526000805160206200172a8339815191529350601f198516905b8181106200062457509084600195949392106200060a575b505050811b01600755620003b4565b015160001960f88460031b161c19169055388080620005fb565b92936020600181928786015181550195019301620005e3565b60076000529091506000805160206200172a833981519152601f840160051c8101916020851062000696575b90601f859493920160051c01905b81811062000686575062000385565b6000815584935060010162000677565b909150819062000669565b91607f16916200036f565b90508601513862000334565b6006600090815292506000805160206200176a833981519152905b601f198316841062000718576001935082601f19811610620006fe575b5050811b0160065562000349565b88015160001960f88460031b161c191690553880620006f0565b88810151825560209384019360019092019101620006d3565b60066000526000805160206200176a833981519152601f830160051c810191602084106200077f575b601f0160051c01905b8181106200077257506200031b565b6000815560010162000763565b90915081906200075a565b90607f169062000307565b634e487b7160e01b600052601160045260246000fd5b8351631e4fbdf760e01b815260006004820152602490fd5b0151905038806200019a565b600460009081527f8a35acfbc15ff81a39ae7d344fd709f28e8600b4aa8c65c6b64bfe7fe36bd19b9350601f198516905b81811062000841575090846001959493921062000827575b505050811b01600455620001b0565b015160001960f88460031b161c1916905538808062000818565b9293602060018192878601518155019501930162000800565b60046000529091507f8a35acfbc15ff81a39ae7d344fd709f28e8600b4aa8c65c6b64bfe7fe36bd19b601f840160051c81019160208510620008c4575b90601f859493920160051c01905b818110620008b4575062000181565b60008155849350600101620008a5565b909150819062000897565b91607f16916200016b565b01519050388062000130565b600360009081527fc2575a0e9e593c00f959f8c92f12db2869c3395a3b0502d05e2516446f71f85b9350601f198516905b8181106200095857509084600195949392106200093e575b505050811b0160035562000146565b015160001960f88460031b161c191690553880806200092f565b9293602060018192878601518155019501930162000917565b60036000529091507fc2575a0e9e593c00f959f8c92f12db2869c3395a3b0502d05e2516446f71f85b601f840160051c81019160208510620009db575b90601f859493920160051c01905b818110620009cb575062000117565b60008155849350600101620009bc565b9091508190620009ae565b91607f169162000101565b600080fd5b6040519190601f01601f191682016001600160401b03811183821017620005a157604052565b60005b83811062000a305750506000910152565b818101518382015260200162000a1f565b81601f82011215620009f15780516001600160401b038111620005a15762000a73601f8201601f1916602001620009f6565b9281845260208284010111620009f15762000a95916020808501910162000a1c565b90565b9060209162000ab38151809281855285808601910162000a1c565b601f01601f191601019056fe6080604081815260048036101561001557600080fd5b600092833560e01c90816306fdde031461079a57508063095ea7b3146106f157806318160ddd146106d257806323b872dd146105df578063313ce567146105c357806370a082311461058c578063715018a61461052c5780638da5cb5b1461050357806393427cd51461042857806395d89b4114610303578063a8fb7d40146101cd578063a9059cbb1461019c578063dd62ed3e1461014f5763f2fde38b146100bd57600080fd5b3461014b57602036600319011261014b576100d66108d8565b906100df610b0a565b6001600160a01b03918216928315610135575050600554826bffffffffffffffffffffffff60a01b821617600555167f8be0079c531659141344cd1fd0a4f28419497f9722a3daafe3b4186f6b6457e08380a380f35b51631e4fbdf760e01b8152908101849052602490fd5b8280fd5b5050346101985780600319360112610198578060209261016d6108d8565b6101756108f3565b6001600160a01b0391821683526001865283832091168252845220549051908152f35b5080fd5b5050346101985780600319360112610198576020906101c66101bc6108d8565b6024359033610b36565b5160018152f35b5082903461019857816003193601126101985782519180600654600181811c908083169283156102f9575b60209384841081146102e6578389529081156102ca5750600114610274575b505050839003601f01601f191683019167ffffffffffffffff831184841017610261575050825261025d610249610943565b92610252610a4a565b905193849384610909565b0390f35b634e487b7160e01b825260419052602490fd5b600685529192508391837ff652222313e28459528d920b65115c16c04f3efc82aaedc97be59f3f377c0d3f5b8385106102b65750505050840101858080610217565b8054898601830152930192849082016102a0565b60ff1916888501525050151560051b8501019050858080610217565b634e487b7160e01b875260228852602487fd5b91607f16916101f8565b509190346101985781600319360112610198578051908290845491600183811c9080851694851561041e575b602095868410811461040b5783885290869082156103ef57505060011461039b575b5050839003601f01601f191683019367ffffffffffffffff85118486101761038857509161025d9184809452808452830190610898565b634e487b7160e01b815260418652602490fd5b8787528492508691907f8a35acfbc15ff81a39ae7d344fd709f28e8600b4aa8c65c6b64bfe7fe36bd19b5b8284106103da575050508401013880610351565b805488850186015286949093019281016103c6565b925093505060ff191682860152151560051b8401013880610351565b634e487b7160e01b895260228a52602489fd5b91607f169161032f565b5082903461019857816003193601126101985782519180600654600181811c908083169283156104f9575b60209384841081146102e6578389529081156102ca57506001146104a357505050839003601f01601f191683019167ffffffffffffffff831184841017610261575050825261025d610249610943565b600685529192508391837ff652222313e28459528d920b65115c16c04f3efc82aaedc97be59f3f377c0d3f5b8385106104e55750505050840101858080610217565b8054898601830152930192849082016104cf565b91607f1691610453565b50503461019857816003193601126101985760055490516001600160a01b039091168152602090f35b8334610589578060031936011261058957610545610b0a565b600580546001600160a01b0319811690915581906001600160a01b03167f8be0079c531659141344cd1fd0a4f28419497f9722a3daafe3b4186f6b6457e08280a380f35b80fd5b5050346101985760203660031901126101985760209181906001600160a01b036105b46108d8565b16815280845220549051908152f35b5050346101985781600319360112610198576020905160128152f35b508234610589576060366003190112610589576105fa6108d8565b6106026108f3565b916044359360018060a01b03831680835260016020528683203384526020528683205491600019831061063e575b6020886101c6898989610b36565b8683106106a657811561068f573315610678575082526001602090815286832033845281529186902090859003905582906101c687610630565b8751634a1406b160e11b8152908101849052602490fd5b875163e602df0560e01b8152908101849052602490fd5b8751637dc7a0d960e11b8152339181019182526020820193909352604081018790528291506060010390fd5b5050346101985781600319360112610198576020906002549051908152f35b503461014b578160031936011261014b5761070a6108d8565b602435903315610783576001600160a01b031691821561076c57508083602095338152600187528181208582528752205582519081527f8c5be1e5ebec7d5bd14f71427d1e84f3dd0314c0f7b2291e5b200ac8c7c3b925843392a35160018152f35b8351634a1406b160e11b8152908101859052602490fd5b835163e602df0560e01b8152808401869052602490fd5b849150833461014b578260031936011261014b57829060035491600183811c9080851694851561088e575b602095868410811461040b57838852908690821561087257505060011461081d575050839003601f01601f191683019367ffffffffffffffff85118486101761038857509161025d9184809452808452830190610898565b600387528492508691907fc2575a0e9e593c00f959f8c92f12db2869c3395a3b0502d05e2516446f71f85b5b82841061085d575050508401018680610351565b80548885018601528694909301928101610849565b925093505060ff191682860152151560051b8401018680610351565b91607f16916107c5565b919082519283825260005b8481106108c4575050826000602080949584010152601f8019910116010190565b6020818301810151848301820152016108a3565b600435906001600160a01b03821682036108ee57565b600080fd5b602435906001600160a01b03821682036108ee57565b91610932906109246109409593606086526060860190610898565b908482036020860152610898565b916040818403910152610898565b90565b604051906000600754600181811c90808316928315610a40575b6020938484108114610a2c57838852908115610a1057506001146109b9575b505050829003601f01601f1916820167ffffffffffffffff8111838210176109a357604052565b634e487b7160e01b600052604160045260246000fd5b60076000908152929350837fa66cc928b5edb82af9bd49922954155ab7b0942694bea4ce44661d9a8736c6885b8385106109fc575050505083010138808061097c565b8054888601830152930192849082016109e6565b60ff1916878501525050151560051b840101905038808061097c565b634e487b7160e01b86526022600452602486fd5b91607f169161095d565b604051906000600854600181811c90808316928315610b00575b6020938484108114610a2c57838852908115610a105750600114610aa957505050829003601f01601f1916820167ffffffffffffffff8111838210176109a357604052565b60086000908152929350837ff3f7a9fe364faab93b216da50a3214154f22a0a2b415b23a84c8169e8b636ee35b838510610aec575050505083010138808061097c565b805488860183015293019284908201610ad6565b91607f1691610a64565b6005546001600160a01b03163303610b1e57565b60405163118cdaa760e01b8152336004820152602490fd5b916001600160a01b03808416928315610bfb5716928315610be25760009083825281602052604082205490838210610bb0575091604082827fddf252ad1be2c89b69c2b068fc378daa952ba7f163c4a11628f55a4df523b3ef958760209652828652038282205586815220818154019055604051908152a3565b60405163391434e360e21b81526001600160a01b03919091166004820152602481019190915260448101839052606490fd5b60405163ec442f0560e01b815260006004820152602490fd5b604051634b637e8f60e11b815260006004820152602490fdfea26469706673582212206dc4db1d47e60ce5660487de4335d87690300e92a138585f981f9c3a297f9e3f64736f6c6343000814003341105f733c92e731673db8d7877f039f0cce3bc6436d38e5c37bce47f2a4b149a66cc928b5edb82af9bd49922954155ab7b0942694bea4ce44661d9a8736c688f3f7a9fe364faab93b216da50a3214154f22a0a2b415b23a84c8169e8b636ee3f652222313e28459528d920b65115c16c04f3efc82aaedc97be59f3f377c0d3f3c5ad147104e56be34a9176a6692f7df8d2f4b29a5af06bc6b98970d329d6577a26469706673582212209aca26bc504a567a00dbc860d383b39e6722ebce570cbfdf1ed43b6e25c88cb864736f6c63430008140033","opcodes":"PUSH1 0x80 CALLVALUE PUSH3 0x29F JUMPI PUSH1 0x1F PUSH3 0x4A0D CODESIZE DUP2 SWAP1 SUB SWAP2 DUP3 ADD PUSH1 0x1F NOT AND DUP4 ADD SWAP3 SWAP2 SWAP1 PUSH1 0x1 PUSH1 0x1 PUSH1 0x40 SHL SUB DUP5 GT DUP4 DUP6 LT OR PUSH3 0x2A4 JUMPI DUP2 PUSH1 0xC0 SWAP3 DUP5 SWAP3 PUSH1 0x40 SWAP7 DUP8 MSTORE DUP4 CODECOPY DUP2 ADD SUB SLT PUSH3 0x29F JUMPI PUSH3 0x51 DUP2 PUSH3 0x2BA JUMP JUMPDEST SWAP1 PUSH1 0x20 SWAP2 PUSH3 0x62 DUP4 DUP4 ADD PUSH3 0x2BA JUMP JUMPDEST SWAP2 PUSH3 0x70 DUP6 DUP3 ADD PUSH3 0x2BA JUMP JUMPDEST PUSH3 0x7E PUSH1 0x60 DUP4 ADD PUSH3 0x2BA JUMP JUMPDEST SWAP1 PUSH3 0x9B PUSH1 0xA0 PUSH3 0x93 PUSH1 0x80 DUP7 ADD PUSH3 0x2BA JUMP JUMPDEST SWAP5 ADD PUSH3 0x2BA JUMP JUMPDEST SWAP2 CALLER ISZERO PUSH3 0x287 JUMPI PUSH1 0x0 SLOAD PUSH1 0x1 DUP1 PUSH1 0xA0 SHL SUB NOT SWAP7 CALLER DUP9 DUP4 AND OR PUSH1 0x0 SSTORE DUP10 MLOAD SWAP2 PUSH1 0x1 DUP1 PUSH1 0xA0 SHL SUB SWAP8 DUP9 SWAP2 DUP3 CALLER SWAP2 AND PUSH32 0x8BE0079C531659141344CD1FD0A4F28419497F9722A3DAAFE3B4186F6B6457E0 PUSH1 0x0 DUP1 LOG3 PUSH1 0x9 DUP1 SLOAD PUSH1 0x1 PUSH1 0x1 PUSH1 0x58 SHL SUB NOT AND PUSH10 0x1F40000000001E18558 OR SWAP1 SSTORE AND SWAP2 DUP3 ISZERO PUSH3 0x245 JUMPI POP DUP7 AND SWAP3 DUP4 ISZERO PUSH3 0x203 JUMPI DUP7 AND SWAP2 DUP3 ISZERO PUSH3 0x1BF JUMPI DUP7 AND SWAP8 DUP9 ISZERO PUSH3 0x17C JUMPI POP SWAP1 DUP6 SWAP4 SWAP3 SWAP2 DUP8 PUSH1 0x1 SLOAD AND OR PUSH1 0x1 SSTORE DUP7 PUSH1 0x3 SLOAD AND OR PUSH1 0x3 SSTORE DUP6 PUSH1 0x4 SLOAD AND OR PUSH1 0x4 SSTORE AND DUP4 PUSH1 0x5 SLOAD AND OR PUSH1 0x5 SSTORE AND DUP2 PUSH1 0x6 SLOAD AND OR PUSH1 0x6 SSTORE PUSH1 0x2 SLOAD AND OR PUSH1 0x2 SSTORE MLOAD PUSH2 0x473D SWAP1 DUP2 PUSH3 0x2D0 DUP3 CODECOPY RETURN JUMPDEST PUSH1 0x64 SWAP1 DUP11 MLOAD SWAP1 PUSH3 0x461BCD PUSH1 0xE5 SHL DUP3 MSTORE PUSH1 0x4 DUP3 ADD MSTORE PUSH1 0x14 PUSH1 0x24 DUP3 ADD MSTORE PUSH32 0x496E76616C696420574554482061646472657373000000000000000000000000 PUSH1 0x44 DUP3 ADD MSTORE REVERT JUMPDEST DUP10 MLOAD PUSH3 0x461BCD PUSH1 0xE5 SHL DUP2 MSTORE PUSH1 0x4 DUP2 ADD DUP11 SWAP1 MSTORE PUSH1 0x17 PUSH1 0x24 DUP3 ADD MSTORE PUSH32 0x496E76616C696420666163746F72792061646472657373000000000000000000 PUSH1 0x44 DUP3 ADD MSTORE PUSH1 0x64 SWAP1 REVERT JUMPDEST PUSH1 0x64 DUP10 DUP12 MLOAD SWAP1 PUSH3 0x461BCD PUSH1 0xE5 SHL DUP3 MSTORE DUP1 PUSH1 0x4 DUP4 ADD MSTORE PUSH1 0x24 DUP3 ADD MSTORE PUSH32 0x496E76616C696420706F736974696F6E206D616E616765722061646472657373 PUSH1 0x44 DUP3 ADD MSTORE REVERT JUMPDEST PUSH3 0x461BCD PUSH1 0xE5 SHL DUP2 MSTORE PUSH1 0x4 DUP2 ADD DUP11 SWAP1 MSTORE PUSH1 0x13 PUSH1 0x24 DUP3 ADD MSTORE PUSH32 0x496E76616C696420646576206164647265737300000000000000000000000000 PUSH1 0x44 DUP3 ADD MSTORE PUSH1 0x64 SWAP1 REVERT JUMPDEST DUP8 MLOAD PUSH4 0x1E4FBDF7 PUSH1 0xE0 SHL DUP2 MSTORE PUSH1 0x0 PUSH1 0x4 DUP3 ADD MSTORE PUSH1 0x24 SWAP1 REVERT JUMPDEST PUSH1 0x0 DUP1 REVERT JUMPDEST PUSH4 0x4E487B71 PUSH1 0xE0 SHL PUSH1 0x0 MSTORE PUSH1 0x41 PUSH1 0x4 MSTORE PUSH1 0x24 PUSH1 0x0 REVERT JUMPDEST MLOAD SWAP1 PUSH1 0x1 PUSH1 0x1 PUSH1 0xA0 SHL SUB DUP3 AND DUP3 SUB PUSH3 0x29F JUMPI JUMP INVALID PUSH1 0x80 PUSH1 0x40 MSTORE PUSH1 0x4 CALLDATASIZE LT ISZERO PUSH3 0x1D JUMPI JUMPDEST CALLDATASIZE ISZERO PUSH3 0x1B JUMPI PUSH1 0x0 DUP1 REVERT JUMPDEST STOP JUMPDEST PUSH1 0x0 CALLDATALOAD PUSH1 0xE0 SHR DUP1 PUSH4 0x3FC2013 EQ PUSH3 0x184 JUMPI DUP1 PUSH4 0x19042A6F EQ PUSH3 0x17E JUMPI DUP1 PUSH4 0x28D249FE EQ PUSH3 0x178 JUMPI DUP1 PUSH4 0x2A5C792A EQ PUSH3 0x172 JUMPI DUP1 PUSH4 0x3AD10EF6 EQ PUSH3 0x16C JUMPI DUP1 PUSH4 0x3FC8CEF3 EQ PUSH3 0x166 JUMPI DUP1 PUSH4 0x4C69A6C9 EQ PUSH3 0x160 JUMPI DUP1 PUSH4 0x57AA0201 EQ PUSH3 0x15A JUMPI DUP1 PUSH4 0x5B549182 EQ PUSH3 0x154 JUMPI DUP1 PUSH4 0x634282AF EQ PUSH3 0x14E JUMPI DUP1 PUSH4 0x715018A6 EQ PUSH3 0x148 JUMPI DUP1 PUSH4 0x791B98BC EQ PUSH3 0x142 JUMPI DUP1 PUSH4 0x8DA5CB5B EQ PUSH3 0x13C JUMPI DUP1 PUSH4 0xC1CFCF5D EQ PUSH3 0x136 JUMPI DUP1 PUSH4 0xC31C9C07 EQ PUSH3 0x130 JUMPI DUP1 PUSH4 0xD406D751 EQ PUSH3 0x12A JUMPI DUP1 PUSH4 0xD6936121 EQ PUSH3 0x124 JUMPI DUP1 PUSH4 0xDE04F42E EQ PUSH3 0x11E JUMPI DUP1 PUSH4 0xE086E5EC EQ PUSH3 0x118 JUMPI PUSH4 0xF2FDE38B SUB PUSH3 0xF JUMPI PUSH3 0x994 JUMP JUMPDEST PUSH3 0x910 JUMP JUMPDEST PUSH3 0x8EA JUMP JUMPDEST PUSH3 0x80B JUMP JUMPDEST PUSH3 0x7E2 JUMP JUMPDEST PUSH3 0x7B7 JUMP JUMPDEST PUSH3 0x701 JUMP JUMPDEST PUSH3 0x5D8 JUMP JUMPDEST PUSH3 0x5AD JUMP JUMPDEST PUSH3 0x54E JUMP JUMPDEST PUSH3 0x4F0 JUMP JUMPDEST PUSH3 0x4C5 JUMP JUMPDEST PUSH3 0x49E JUMP JUMPDEST PUSH3 0x47F JUMP JUMPDEST PUSH3 0x454 JUMP JUMPDEST PUSH3 0x429 JUMP JUMPDEST PUSH3 0x357 JUMP JUMPDEST PUSH3 0x314 JUMP JUMPDEST PUSH3 0x228 JUMP JUMPDEST PUSH3 0x19B JUMP JUMPDEST PUSH1 0x0 SWAP2 SUB SLT PUSH3 0x196 JUMPI JUMP JUMPDEST PUSH1 0x0 DUP1 REVERT JUMPDEST CALLVALUE PUSH3 0x196 JUMPI PUSH1 0x0 CALLDATASIZE PUSH1 0x3 NOT ADD SLT PUSH3 0x196 JUMPI PUSH1 0x5 SLOAD PUSH1 0x40 MLOAD PUSH1 0x1 PUSH1 0x1 PUSH1 0xA0 SHL SUB SWAP1 SWAP2 AND DUP2 MSTORE PUSH1 0x20 SWAP1 RETURN JUMPDEST PUSH1 0x1 PUSH1 0x1 PUSH1 0xA0 SHL SUB DUP2 AND SUB PUSH3 0x196 JUMPI JUMP JUMPDEST PUSH1 0x4 CALLDATALOAD SWAP1 PUSH3 0x1E7 DUP3 PUSH3 0x1C6 JUMP JUMPDEST JUMP JUMPDEST PUSH1 0x44 CALLDATALOAD SWAP1 PUSH3 0x1E7 DUP3 PUSH3 0x1C6 JUMP JUMPDEST SWAP2 DUP2 PUSH1 0x1F DUP5 ADD SLT ISZERO PUSH3 0x196 JUMPI DUP3 CALLDATALOAD SWAP2 PUSH1 0x1 PUSH1 0x1 PUSH1 0x40 SHL SUB DUP4 GT PUSH3 0x196 JUMPI PUSH1 0x20 DUP4 DUP2 DUP7 ADD SWAP6 ADD ADD GT PUSH3 0x196 JUMPI JUMP JUMPDEST CALLVALUE PUSH3 0x196 JUMPI PUSH1 0xE0 CALLDATASIZE PUSH1 0x3 NOT ADD SLT PUSH3 0x196 JUMPI PUSH3 0x245 PUSH3 0x1D8 JUMP JUMPDEST PUSH1 0x1 PUSH1 0x1 PUSH1 0x40 SHL SUB PUSH1 0x24 CALLDATALOAD DUP2 DUP2 GT PUSH3 0x196 JUMPI PUSH3 0x268 SWAP1 CALLDATASIZE SWAP1 PUSH1 0x4 ADD PUSH3 0x1F8 JUMP JUMPDEST PUSH1 0x44 SWAP4 SWAP2 SWAP4 CALLDATALOAD DUP4 DUP2 GT PUSH3 0x196 JUMPI PUSH3 0x286 SWAP1 CALLDATASIZE SWAP1 PUSH1 0x4 ADD PUSH3 0x1F8 JUMP JUMPDEST PUSH1 0x64 SWAP6 SWAP2 SWAP6 CALLDATALOAD DUP6 DUP2 GT PUSH3 0x196 JUMPI PUSH3 0x2A4 SWAP1 CALLDATASIZE SWAP1 PUSH1 0x4 ADD PUSH3 0x1F8 JUMP JUMPDEST PUSH1 0x84 SWAP3 SWAP2 SWAP3 CALLDATALOAD DUP8 DUP2 GT PUSH3 0x196 JUMPI PUSH3 0x2C2 SWAP1 CALLDATASIZE SWAP1 PUSH1 0x4 ADD PUSH3 0x1F8 JUMP JUMPDEST SWAP4 SWAP1 SWAP3 PUSH1 0xA4 CALLDATALOAD SWAP9 DUP10 GT PUSH3 0x196 JUMPI PUSH3 0x310 SWAP10 PUSH3 0x2E9 PUSH3 0x2F6 SWAP11 CALLDATASIZE SWAP1 PUSH1 0x4 ADD PUSH3 0x1F8 JUMP JUMPDEST SWAP9 SWAP1 SWAP8 PUSH1 0xC4 CALLDATALOAD SWAP11 PUSH3 0xB1F JUMP JUMPDEST PUSH1 0x40 MLOAD PUSH1 0x1 PUSH1 0x1 PUSH1 0xA0 SHL SUB SWAP1 SWAP2 AND DUP2 MSTORE SWAP1 DUP2 SWAP1 PUSH1 0x20 DUP3 ADD SWAP1 JUMP JUMPDEST SUB SWAP1 RETURN JUMPDEST CALLVALUE PUSH3 0x196 JUMPI PUSH1 0x20 CALLDATASIZE PUSH1 0x3 NOT ADD SLT PUSH3 0x196 JUMPI PUSH1 0x20 PUSH1 0x4 CALLDATALOAD PUSH3 0x337 DUP2 PUSH3 0x1C6 JUMP JUMPDEST PUSH1 0x1 DUP1 PUSH1 0xA0 SHL SUB DUP1 SWAP2 AND PUSH1 0x0 MSTORE PUSH1 0x7 DUP3 MSTORE PUSH1 0x40 PUSH1 0x0 KECCAK256 SLOAD AND PUSH1 0x40 MLOAD SWAP1 DUP2 MSTORE RETURN JUMPDEST CALLVALUE PUSH3 0x196 JUMPI PUSH1 0x0 DUP1 PUSH1 0x3 NOT CALLDATASIZE ADD SLT PUSH3 0x426 JUMPI PUSH1 0x40 MLOAD DUP1 SWAP2 PUSH1 0x8 SLOAD SWAP1 DUP2 DUP4 MSTORE PUSH1 0x20 DUP1 SWAP4 ADD DUP1 SWAP3 PUSH1 0x8 DUP4 MSTORE PUSH32 0xF3F7A9FE364FAAB93B216DA50A3214154F22A0A2B415B23A84C8169E8B636EE3 SWAP1 DUP4 JUMPDEST DUP2 DUP2 LT PUSH3 0x408 JUMPI POP POP POP DUP5 PUSH3 0x3BF SWAP2 SUB DUP6 PUSH3 0x633 JUMP JUMPDEST PUSH1 0x40 MLOAD SWAP4 DUP4 DUP6 SWAP5 DUP6 ADD SWAP2 DUP2 DUP7 MSTORE MLOAD DUP1 SWAP3 MSTORE PUSH1 0x40 DUP6 ADD SWAP4 SWAP3 JUMPDEST DUP3 DUP2 LT PUSH3 0x3E7 JUMPI POP POP POP POP SUB SWAP1 RETURN JUMPDEST DUP4 MLOAD PUSH1 0x1 PUSH1 0x1 PUSH1 0xA0 SHL SUB AND DUP6 MSTORE DUP7 SWAP6 POP SWAP4 DUP2 ADD SWAP4 SWAP3 DUP2 ADD SWAP3 PUSH1 0x1 ADD PUSH3 0x3D7 JUMP JUMPDEST DUP3 SLOAD PUSH1 0x1 PUSH1 0x1 PUSH1 0xA0 SHL SUB AND DUP5 MSTORE SWAP3 DUP7 ADD SWAP3 PUSH1 0x1 SWAP3 DUP4 ADD SWAP3 ADD PUSH3 0x3A6 JUMP JUMPDEST DUP1 REVERT JUMPDEST CALLVALUE PUSH3 0x196 JUMPI PUSH1 0x0 CALLDATASIZE PUSH1 0x3 NOT ADD SLT PUSH3 0x196 JUMPI PUSH1 0x1 SLOAD PUSH1 0x40 MLOAD PUSH1 0x1 PUSH1 0x1 PUSH1 0xA0 SHL SUB SWAP1 SWAP2 AND DUP2 MSTORE PUSH1 0x20 SWAP1 RETURN JUMPDEST CALLVALUE PUSH3 0x196 JUMPI PUSH1 0x0 CALLDATASIZE PUSH1 0x3 NOT ADD SLT PUSH3 0x196 JUMPI PUSH1 0x2 SLOAD PUSH1 0x40 MLOAD PUSH1 0x1 PUSH1 0x1 PUSH1 0xA0 SHL SUB SWAP1 SWAP2 AND DUP2 MSTORE PUSH1 0x20 SWAP1 RETURN JUMPDEST CALLVALUE PUSH3 0x196 JUMPI PUSH1 0x0 CALLDATASIZE PUSH1 0x3 NOT ADD SLT PUSH3 0x196 JUMPI PUSH1 0x20 PUSH1 0x40 MLOAD PUSH2 0xBB8 DUP2 MSTORE RETURN JUMPDEST CALLVALUE PUSH3 0x196 JUMPI PUSH1 0x0 CALLDATASIZE PUSH1 0x3 NOT ADD SLT PUSH3 0x196 JUMPI PUSH1 0x20 PUSH1 0x9 SLOAD PUSH2 0xFFFF PUSH1 0x40 MLOAD SWAP2 PUSH1 0x40 SHR AND DUP2 MSTORE RETURN JUMPDEST CALLVALUE PUSH3 0x196 JUMPI PUSH1 0x0 CALLDATASIZE PUSH1 0x3 NOT ADD SLT PUSH3 0x196 JUMPI PUSH1 0x3 SLOAD PUSH1 0x40 MLOAD PUSH1 0x1 PUSH1 0x1 PUSH1 0xA0 SHL SUB SWAP1 SWAP2 AND DUP2 MSTORE PUSH1 0x20 SWAP1 RETURN JUMPDEST CALLVALUE PUSH3 0x196 JUMPI PUSH1 0x20 CALLDATASIZE PUSH1 0x3 NOT ADD SLT PUSH3 0x196 JUMPI PUSH1 0x4 CALLDATALOAD PUSH1 0x8 SLOAD DUP2 LT ISZERO PUSH3 0x196 JUMPI PUSH1 0x8 PUSH1 0x0 MSTORE PUSH32 0xF3F7A9FE364FAAB93B216DA50A3214154F22A0A2B415B23A84C8169E8B636EE3 ADD SLOAD PUSH1 0x40 MLOAD PUSH1 0x1 PUSH1 0x1 PUSH1 0xA0 SHL SUB SWAP1 SWAP2 AND DUP2 MSTORE PUSH1 0x20 SWAP1 RETURN JUMPDEST CALLVALUE PUSH3 0x196 JUMPI PUSH1 0x0 DUP1 PUSH1 0x3 NOT CALLDATASIZE ADD SLT PUSH3 0x426 JUMPI PUSH3 0x56C PUSH3 0xA27 JUMP JUMPDEST DUP1 SLOAD PUSH1 0x1 PUSH1 0x1 PUSH1 0xA0 SHL SUB NOT DUP2 AND DUP3 SSTORE DUP2 SWAP1 PUSH1 0x1 PUSH1 0x1 PUSH1 0xA0 SHL SUB AND PUSH32 0x8BE0079C531659141344CD1FD0A4F28419497F9722A3DAAFE3B4186F6B6457E0 DUP3 DUP1 LOG3 DUP1 RETURN JUMPDEST CALLVALUE PUSH3 0x196 JUMPI PUSH1 0x0 CALLDATASIZE PUSH1 0x3 NOT ADD SLT PUSH3 0x196 JUMPI PUSH1 0x4 SLOAD PUSH1 0x40 MLOAD PUSH1 0x1 PUSH1 0x1 PUSH1 0xA0 SHL SUB SWAP1 SWAP2 AND DUP2 MSTORE PUSH1 0x20 SWAP1 RETURN JUMPDEST CALLVALUE PUSH3 0x196 JUMPI PUSH1 0x0 CALLDATASIZE PUSH1 0x3 NOT ADD SLT PUSH3 0x196 JUMPI PUSH1 0x0 SLOAD PUSH1 0x40 MLOAD PUSH1 0x1 PUSH1 0x1 PUSH1 0xA0 SHL SUB SWAP1 SWAP2 AND DUP2 MSTORE PUSH1 0x20 SWAP1 RETURN JUMPDEST PUSH4 0x4E487B71 PUSH1 0xE0 SHL PUSH1 0x0 MSTORE PUSH1 0x41 PUSH1 0x4 MSTORE PUSH1 0x24 PUSH1 0x0 REVERT JUMPDEST PUSH1 0x1 PUSH1 0x1 PUSH1 0x40 SHL SUB DUP2 GT PUSH3 0x62D JUMPI PUSH1 0x40 MSTORE JUMP JUMPDEST PUSH3 0x603 JUMP JUMPDEST SWAP1 PUSH1 0x1F DUP1 NOT SWAP2 ADD AND DUP2 ADD SWAP1 DUP2 LT PUSH1 0x1 PUSH1 0x1 PUSH1 0x40 SHL SUB DUP3 GT OR PUSH3 0x62D JUMPI PUSH1 0x40 MSTORE JUMP JUMPDEST PUSH1 0x40 MLOAD SWAP1 PUSH2 0x160 DUP3 ADD DUP3 DUP2 LT PUSH1 0x1 PUSH1 0x1 PUSH1 0x40 SHL SUB DUP3 GT OR PUSH3 0x62D JUMPI PUSH1 0x40 MSTORE JUMP JUMPDEST PUSH1 0x40 MLOAD SWAP1 PUSH1 0xE0 DUP3 ADD DUP3 DUP2 LT PUSH1 0x1 PUSH1 0x1 PUSH1 0x40 SHL SUB DUP3 GT OR PUSH3 0x62D JUMPI PUSH1 0x40 MSTORE JUMP JUMPDEST SWAP1 PUSH3 0x1E7 PUSH1 0x40 MLOAD SWAP3 DUP4 PUSH3 0x633 JUMP JUMPDEST DUP2 PUSH1 0x1F DUP3 ADD SLT ISZERO PUSH3 0x196 JUMPI DUP1 CALLDATALOAD SWAP1 PUSH1 0x1 PUSH1 0x1 PUSH1 0x40 SHL SUB DUP3 GT PUSH3 0x62D JUMPI PUSH1 0x40 MLOAD SWAP3 PUSH3 0x6DE PUSH1 0x1F DUP5 ADD PUSH1 0x1F NOT AND PUSH1 0x20 ADD DUP6 PUSH3 0x633 JUMP JUMPDEST DUP3 DUP5 MSTORE PUSH1 0x20 DUP4 DUP4 ADD ADD GT PUSH3 0x196 JUMPI DUP2 PUSH1 0x0 SWAP3 PUSH1 0x20 DUP1 SWAP4 ADD DUP4 DUP7 ADD CALLDATACOPY DUP4 ADD ADD MSTORE SWAP1 JUMP JUMPDEST PUSH1 0xE0 CALLDATASIZE PUSH1 0x3 NOT ADD SLT PUSH3 0x196 JUMPI PUSH1 0x1 PUSH1 0x1 PUSH1 0x40 SHL SUB PUSH1 0x4 DUP1 CALLDATALOAD DUP3 DUP2 GT PUSH3 0x196 JUMPI PUSH3 0x731 SWAP1 CALLDATASIZE SWAP1 DUP4 ADD PUSH3 0x6A6 JUMP JUMPDEST PUSH1 0x24 CALLDATALOAD DUP4 DUP2 GT PUSH3 0x196 JUMPI PUSH3 0x74B SWAP1 CALLDATASIZE SWAP1 DUP5 ADD PUSH3 0x6A6 JUMP JUMPDEST PUSH3 0x755 PUSH3 0x1E9 JUMP JUMPDEST PUSH1 0x64 CALLDATALOAD DUP6 DUP2 GT PUSH3 0x196 JUMPI PUSH3 0x76F SWAP1 CALLDATASIZE SWAP1 DUP7 ADD PUSH3 0x6A6 JUMP JUMPDEST PUSH1 0x84 CALLDATALOAD DUP7 DUP2 GT PUSH3 0x196 JUMPI PUSH3 0x789 SWAP1 CALLDATASIZE SWAP1 DUP8 ADD PUSH3 0x6A6 JUMP JUMPDEST SWAP2 PUSH1 0xA4 CALLDATALOAD SWAP7 DUP8 GT PUSH3 0x196 JUMPI PUSH3 0x7AC PUSH3 0x2F6 SWAP7 PUSH3 0x310 SWAP9 CALLDATASIZE SWAP2 ADD PUSH3 0x6A6 JUMP JUMPDEST SWAP4 PUSH1 0xC4 CALLDATALOAD SWAP6 PUSH3 0xD31 JUMP JUMPDEST CALLVALUE PUSH3 0x196 JUMPI PUSH1 0x0 CALLDATASIZE PUSH1 0x3 NOT ADD SLT PUSH3 0x196 JUMPI PUSH1 0x6 SLOAD PUSH1 0x40 MLOAD PUSH1 0x1 PUSH1 0x1 PUSH1 0xA0 SHL SUB SWAP1 SWAP2 AND DUP2 MSTORE PUSH1 0x20 SWAP1 RETURN JUMPDEST CALLVALUE PUSH3 0x196 JUMPI PUSH1 0x0 CALLDATASIZE PUSH1 0x3 NOT ADD SLT PUSH3 0x196 JUMPI PUSH1 0x20 PUSH1 0x1 PUSH1 0x1 PUSH1 0x40 SHL SUB PUSH1 0x9 SLOAD AND PUSH1 0x40 MLOAD SWAP1 DUP2 MSTORE RETURN JUMPDEST CALLVALUE PUSH3 0x196 JUMPI PUSH1 0xC0 CALLDATASIZE PUSH1 0x3 NOT ADD SLT PUSH3 0x196 JUMPI PUSH3 0x828 PUSH3 0x1D8 JUMP JUMPDEST PUSH1 0x1 PUSH1 0x1 PUSH1 0x40 SHL SUB SWAP1 PUSH1 0x24 CALLDATALOAD DUP3 DUP2 GT PUSH3 0x196 JUMPI PUSH3 0x84C SWAP1 CALLDATASIZE SWAP1 PUSH1 0x4 ADD PUSH3 0x1F8 JUMP JUMPDEST PUSH1 0x44 SWAP3 SWAP2 SWAP3 CALLDATALOAD DUP5 DUP2 GT PUSH3 0x196 JUMPI PUSH3 0x86A SWAP1 CALLDATASIZE SWAP1 PUSH1 0x4 ADD PUSH3 0x1F8 JUMP JUMPDEST PUSH1 0x64 SWAP3 SWAP2 SWAP3 CALLDATALOAD DUP7 DUP2 GT PUSH3 0x196 JUMPI PUSH3 0x888 SWAP1 CALLDATASIZE SWAP1 PUSH1 0x4 ADD PUSH3 0x1F8 JUMP JUMPDEST SWAP2 PUSH1 0x84 CALLDATALOAD DUP9 DUP2 GT PUSH3 0x196 JUMPI PUSH3 0x8A4 SWAP1 CALLDATASIZE SWAP1 PUSH1 0x4 ADD PUSH3 0x1F8 JUMP JUMPDEST SWAP6 SWAP1 SWAP5 PUSH1 0xA4 CALLDATALOAD SWAP10 DUP11 GT PUSH3 0x196 JUMPI PUSH3 0x8C6 PUSH3 0x8CF SWAP11 CALLDATASIZE SWAP1 PUSH1 0x4 ADD PUSH3 0x1F8 JUMP JUMPDEST SWAP10 SWAP1 SWAP9 PUSH3 0xC5A JUMP JUMPDEST PUSH1 0x40 DUP1 MLOAD SWAP3 DUP4 MSTORE PUSH1 0x1 PUSH1 0x1 PUSH1 0xA0 SHL SUB SWAP2 SWAP1 SWAP2 AND PUSH1 0x20 DUP4 ADD MSTORE SWAP1 RETURN JUMPDEST CALLVALUE PUSH3 0x196 JUMPI PUSH1 0x0 CALLDATASIZE PUSH1 0x3 NOT ADD SLT PUSH3 0x196 JUMPI PUSH1 0x20 PUSH1 0xFF PUSH1 0x9 SLOAD PUSH1 0x50 SHR AND PUSH1 0x40 MLOAD SWAP1 DUP2 MSTORE RETURN JUMPDEST CALLVALUE PUSH3 0x196 JUMPI PUSH1 0x0 DUP1 PUSH1 0x3 NOT CALLDATASIZE ADD SLT PUSH3 0x426 JUMPI PUSH3 0x92E PUSH3 0xA27 JUMP JUMPDEST SELFBALANCE DUP1 ISZERO PUSH3 0x95A JUMPI DUP2 SLOAD DUP3 SWAP2 DUP3 SWAP2 DUP3 SWAP2 DUP3 SWAP2 PUSH1 0x1 PUSH1 0x1 PUSH1 0xA0 SHL SUB AND DUP3 CALL ISZERO PUSH3 0x954 JUMPI DUP1 RETURN JUMPDEST PUSH3 0x25DB JUMP JUMPDEST PUSH1 0x40 MLOAD PUSH3 0x461BCD PUSH1 0xE5 SHL DUP2 MSTORE PUSH1 0x20 PUSH1 0x4 DUP3 ADD MSTORE PUSH1 0x12 PUSH1 0x24 DUP3 ADD MSTORE PUSH18 0x4E6F2045544820746F207769746864726177 PUSH1 0x70 SHL PUSH1 0x44 DUP3 ADD MSTORE PUSH1 0x64 SWAP1 REVERT JUMPDEST CALLVALUE PUSH3 0x196 JUMPI PUSH1 0x20 CALLDATASIZE PUSH1 0x3 NOT ADD SLT PUSH3 0x196 JUMPI PUSH1 0x4 CALLDATALOAD PUSH3 0x9B5 DUP2 PUSH3 0x1C6 JUMP JUMPDEST PUSH3 0x9BF PUSH3 0xA27 JUMP JUMPDEST PUSH1 0x1 PUSH1 0x1 PUSH1 0xA0 SHL SUB SWAP1 DUP2 AND DUP1 ISZERO PUSH3 0xA0E JUMPI PUSH1 0x0 DUP1 SLOAD PUSH1 0x1 PUSH1 0x1 PUSH1 0xA0 SHL SUB NOT DUP2 AND DUP4 OR DUP3 SSTORE SWAP1 SWAP3 AND PUSH32 0x8BE0079C531659141344CD1FD0A4F28419497F9722A3DAAFE3B4186F6B6457E0 DUP4 DUP1 LOG3 DUP1 RETURN JUMPDEST PUSH1 0x40 MLOAD PUSH4 0x1E4FBDF7 PUSH1 0xE0 SHL DUP2 MSTORE PUSH1 0x0 PUSH1 0x4 DUP3 ADD MSTORE PUSH1 0x24 SWAP1 REVERT JUMPDEST PUSH1 0x0 SLOAD PUSH1 0x1 PUSH1 0x1 PUSH1 0xA0 SHL SUB AND CALLER SUB PUSH3 0xA3C JUMPI JUMP JUMPDEST PUSH1 0x40 MLOAD PUSH4 0x118CDAA7 PUSH1 0xE0 SHL DUP2 MSTORE CALLER PUSH1 0x4 DUP3 ADD MSTORE PUSH1 0x24 SWAP1 REVERT JUMPDEST SWAP1 DUP1 PUSH1 0x20 SWAP4 SWAP3 DUP2 DUP5 MSTORE DUP5 DUP5 ADD CALLDATACOPY PUSH1 0x0 DUP3 DUP3 ADD DUP5 ADD MSTORE PUSH1 0x1F ADD PUSH1 0x1F NOT AND ADD ADD SWAP1 JUMP JUMPDEST SWAP9 SWAP7 SWAP5 SWAP2 PUSH3 0xAC0 SWAP4 PUSH3 0xADE SWAP12 SWAP10 SWAP6 PUSH3 0xAA2 PUSH3 0xACF SWAP10 SWAP5 PUSH3 0xAB1 SWAP5 PUSH1 0xA0 DUP16 DUP2 DUP2 MSTORE ADD SWAP2 PUSH3 0xA54 JUMP JUMPDEST DUP13 DUP2 SUB PUSH1 0x20 DUP15 ADD MSTORE SWAP2 PUSH3 0xA54 JUMP JUMPDEST SWAP2 DUP10 DUP4 SUB PUSH1 0x40 DUP12 ADD MSTORE PUSH3 0xA54 JUMP JUMPDEST SWAP2 DUP7 DUP4 SUB PUSH1 0x60 DUP9 ADD MSTORE PUSH3 0xA54 JUMP JUMPDEST SWAP3 PUSH1 0x80 DUP2 DUP6 SUB SWAP2 ADD MSTORE PUSH3 0xA54 JUMP JUMPDEST SWAP1 JUMP JUMPDEST PUSH1 0x0 JUMPDEST DUP4 DUP2 LT PUSH3 0xAF5 JUMPI POP POP PUSH1 0x0 SWAP2 ADD MSTORE JUMP JUMPDEST DUP2 DUP2 ADD MLOAD DUP4 DUP3 ADD MSTORE PUSH1 0x20 ADD PUSH3 0xAE4 JUMP JUMPDEST SWAP1 PUSH3 0xB1B PUSH1 0x20 SWAP3 DUP3 DUP2 MLOAD SWAP5 DUP6 SWAP3 ADD PUSH3 0xAE1 JUMP JUMPDEST ADD SWAP1 JUMP JUMPDEST PUSH1 0x40 DUP1 MLOAD PUSH1 0x1 PUSH1 0x1 PUSH1 0xA0 SHL SUB SWAP3 SWAP1 SWAP3 AND PUSH1 0x20 DUP1 DUP5 ADD SWAP2 DUP3 MSTORE DUP4 DUP4 ADD SWAP15 SWAP1 SWAP15 MSTORE SWAP1 DUP3 MSTORE SWAP5 SWAP11 PUSH1 0x1F NOT SWAP11 SWAP5 SWAP10 SWAP4 SWAP9 DUP14 SWAP9 SWAP4 SWAP8 SWAP2 SWAP7 SWAP1 SWAP4 SWAP3 PUSH3 0xB61 PUSH1 0x60 DUP3 PUSH3 0x633 JUMP JUMPDEST MLOAD SWAP1 KECCAK256 SWAP12 PUSH2 0x178A SWAP11 PUSH3 0xB76 DUP11 DUP14 ADD PUSH3 0x696 JUMP JUMPDEST DUP13 DUP2 MSTORE SWAP12 PUSH3 0x2F5E DUP12 DUP15 ADD CODECOPY PUSH1 0x40 MLOAD SWAP11 DUP12 SWAP11 DUP12 ADD SWAP10 PUSH3 0xB96 SWAP11 PUSH3 0xA75 JUMP JUMPDEST SUB DUP4 DUP2 ADD DUP3 MSTORE PUSH3 0xBA8 SWAP1 DUP3 PUSH3 0x633 JUMP JUMPDEST PUSH1 0x40 MLOAD DUP1 SWAP2 DUP7 DUP3 ADD SWAP4 DUP5 PUSH3 0xBBD SWAP2 PUSH3 0xB06 JUMP JUMPDEST PUSH3 0xBC8 SWAP2 PUSH3 0xB06 JUMP JUMPDEST SUB DUP4 DUP2 ADD DUP3 MSTORE PUSH3 0xBDA SWAP1 DUP3 PUSH3 0x633 JUMP JUMPDEST MLOAD SWAP1 KECCAK256 PUSH1 0x40 MLOAD PUSH1 0x1 PUSH1 0x1 PUSH1 0xF8 SHL SUB NOT SWAP5 DUP2 ADD SWAP5 DUP6 MSTORE ADDRESS PUSH1 0x60 SHL PUSH12 0xFFFFFFFFFFFFFFFFFFFFFFFF NOT AND PUSH1 0x1 DUP7 ADD MSTORE PUSH1 0x15 DUP6 ADD SWAP4 SWAP1 SWAP4 MSTORE PUSH1 0x35 DUP5 ADD MSTORE DUP2 PUSH1 0x55 DUP5 ADD SUB SWAP1 DUP2 ADD DUP3 MSTORE PUSH3 0xC2B SWAP1 DUP3 PUSH3 0x633 JUMP JUMPDEST MLOAD SWAP1 KECCAK256 PUSH1 0x1 PUSH1 0x1 PUSH1 0xA0 SHL SUB AND JUMPDEST PUSH1 0x1 PUSH1 0x1 PUSH1 0xA0 SHL SUB AND SWAP1 JUMP JUMPDEST PUSH4 0x4E487B71 PUSH1 0xE0 SHL PUSH1 0x0 MSTORE PUSH1 0x11 PUSH1 0x4 MSTORE PUSH1 0x24 PUSH1 0x0 REVERT JUMPDEST SWAP6 SWAP1 SWAP7 SWAP2 SWAP8 SWAP3 SWAP11 SWAP9 SWAP4 SWAP5 PUSH2 0x3E8 SWAP11 SWAP6 PUSH1 0x0 SWAP13 DUP14 SWAP11 PUSH1 0x1 DUP1 PUSH1 0xA0 SHL SUB SWAP14 DUP15 PUSH1 0x2 SLOAD AND SWAP13 JUMPDEST LT PUSH3 0xCC8 JUMPI PUSH1 0x40 MLOAD PUSH3 0x461BCD PUSH1 0xE5 SHL DUP2 MSTORE PUSH1 0x20 PUSH1 0x4 DUP3 ADD MSTORE PUSH1 0x1C PUSH1 0x24 DUP3 ADD MSTORE PUSH32 0x436F756C64206E6F742066696E64207375697461626C652073616C7400000000 PUSH1 0x44 DUP3 ADD MSTORE PUSH1 0x64 SWAP1 REVERT JUMPDEST DUP14 DUP16 PUSH3 0xCE7 DUP15 SWAP2 DUP13 DUP16 DUP16 DUP13 DUP16 SWAP3 DUP16 SWAP3 DUP13 DUP16 SWAP3 DUP16 SWAP3 DUP15 SWAP2 DUP15 SWAP2 PUSH3 0xB1F JUMP JUMPDEST SWAP2 DUP3 AND LT DUP1 PUSH3 0xD27 JUMPI JUMPDEST PUSH3 0xD17 JUMPI POP PUSH1 0x0 NOT DUP16 EQ PUSH3 0xD11 JUMPI PUSH1 0x1 PUSH2 0x3E8 SWAP16 ADD SWAP15 DUP16 PUSH3 0xC7D JUMP JUMPDEST PUSH3 0xC44 JUMP JUMPDEST SWAP14 POP POP POP POP POP POP POP POP POP POP POP POP POP JUMP JUMPDEST POP DUP1 EXTCODESIZE ISZERO PUSH3 0xCF2 JUMP JUMPDEST SWAP4 SWAP6 PUSH3 0xE6B PUSH3 0xE5C SWAP2 SWAP7 SWAP5 SWAP4 SWAP3 SWAP7 PUSH3 0xD4B PUSH3 0xA27 JUMP JUMPDEST PUSH1 0x0 DUP1 MLOAD PUSH1 0x20 PUSH3 0x46E8 DUP4 CODECOPY DUP2 MLOAD SWAP2 MSTORE PUSH1 0x40 MLOAD DUP1 PUSH3 0xD9B CALLVALUE DUP3 SWAP2 SWAP1 PUSH1 0x40 DUP4 MSTORE PUSH1 0x15 PUSH1 0x40 DUP5 ADD MSTORE PUSH21 0x436865636B696E6720726571756972656D656E7473 PUSH1 0x58 SHL PUSH1 0x60 DUP5 ADD MSTORE PUSH1 0x20 PUSH1 0x80 DUP5 ADD SWAP4 ADD MSTORE JUMP JUMPDEST SUB SWAP1 LOG1 PUSH1 0x1 PUSH1 0x1 PUSH1 0xA0 SHL SUB DUP5 DUP2 AND PUSH1 0x0 SWAP1 DUP2 MSTORE PUSH1 0x7 PUSH1 0x20 MSTORE PUSH1 0x40 SWAP1 KECCAK256 SLOAD PUSH3 0xDC5 SWAP2 AND ISZERO PUSH3 0x2374 JUMP JUMPDEST PUSH3 0xDDB PUSH1 0x1 PUSH1 0x1 PUSH1 0xA0 SHL SUB DUP6 AND ISZERO ISZERO PUSH3 0x23CC JUMP JUMPDEST PUSH1 0x0 DUP1 MLOAD PUSH1 0x20 PUSH3 0x46E8 DUP4 CODECOPY DUP2 MLOAD SWAP2 MSTORE PUSH1 0x40 MLOAD DUP1 PUSH3 0xE3E DUP2 SWAP1 PUSH1 0x40 DUP3 MSTORE PUSH1 0x22 PUSH1 0x40 DUP4 ADD MSTORE PUSH32 0x4465706C6F79696E6720536F6369616C546F6B656E2077697468204352454154 PUSH1 0x60 DUP4 ADD MSTORE PUSH2 0x2299 PUSH1 0xF1 SHL PUSH1 0x80 DUP4 ADD MSTORE PUSH1 0x0 PUSH1 0x20 PUSH1 0xA0 DUP5 ADD SWAP4 ADD MSTORE JUMP JUMPDEST SUB SWAP1 LOG1 PUSH1 0x40 DUP1 MLOAD CALLER PUSH1 0x20 DUP3 ADD MSTORE SWAP1 DUP2 ADD SWAP2 SWAP1 SWAP2 MSTORE SWAP2 DUP3 SWAP1 PUSH1 0x60 DUP3 ADD SWAP1 JUMP JUMPDEST SUB PUSH1 0x1F NOT DUP2 ADD DUP4 MSTORE DUP3 PUSH3 0x633 JUMP JUMPDEST PUSH1 0x20 DUP2 MLOAD SWAP2 ADD KECCAK256 PUSH3 0xECB PUSH3 0xED2 DUP9 PUSH3 0xE5C DUP10 PUSH3 0xEBA DUP11 PUSH3 0xE5C DUP12 PUSH2 0x178A SWAP7 PUSH3 0xE9C PUSH1 0x20 DUP10 ADD PUSH3 0x696 JUMP JUMPDEST SWAP8 DUP1 DUP10 MSTORE PUSH3 0x2F5E PUSH1 0x20 DUP11 ADD CODECOPY DUP13 PUSH1 0x40 MLOAD SWAP7 DUP8 SWAP6 PUSH1 0x20 DUP8 ADD PUSH3 0x2436 JUMP JUMPDEST PUSH1 0x40 MLOAD SWAP5 DUP6 SWAP4 PUSH1 0x20 DUP6 ADD SWAP1 PUSH3 0xB06 JUMP JUMPDEST SWAP1 PUSH3 0xB06 JUMP JUMPDEST PUSH3 0xF69 PUSH3 0xF3E PUSH3 0xC38 PUSH3 0xC38 DUP5 MLOAD PUSH1 0x20 DUP7 ADD KECCAK256 PUSH1 0x40 MLOAD PUSH3 0xF2F DUP2 PUSH3 0xE5C PUSH1 0x20 DUP3 ADD SWAP5 DUP12 ADDRESS DUP8 SWAP2 PUSH1 0x55 SWAP4 SWAP2 PUSH1 0xFF PUSH1 0xF8 SHL DUP5 MSTORE PUSH12 0xFFFFFFFFFFFFFFFFFFFFFFFF NOT SWAP1 PUSH1 0x60 SHL AND PUSH1 0x1 DUP5 ADD MSTORE PUSH1 0x15 DUP4 ADD MSTORE PUSH1 0x35 DUP3 ADD MSTORE ADD SWAP1 JUMP JUMPDEST MLOAD SWAP1 KECCAK256 PUSH1 0x1 PUSH1 0x1 PUSH1 0xA0 SHL SUB AND SWAP1 JUMP JUMPDEST PUSH1 0x2 SLOAD PUSH3 0xF57 SWAP1 PUSH3 0xC38 SWAP1 PUSH1 0x1 PUSH1 0x1 PUSH1 0xA0 SHL SUB AND DUP2 JUMP JUMPDEST PUSH1 0x1 PUSH1 0x1 PUSH1 0xA0 SHL SUB SWAP1 SWAP2 AND LT PUSH3 0x249B JUMP JUMPDEST PUSH1 0x20 DUP2 MLOAD SWAP2 ADD PUSH1 0x0 CREATE2 SWAP6 PUSH3 0xF89 PUSH1 0x1 PUSH1 0x1 PUSH1 0xA0 SHL SUB DUP9 AND ISZERO ISZERO PUSH3 0x24FD JUMP JUMPDEST PUSH1 0x40 DUP1 MLOAD DUP2 DUP2 MSTORE PUSH1 0xD SWAP2 DUP2 ADD SWAP2 SWAP1 SWAP2 MSTORE PUSH13 0x546F6B656E2041646472657373 PUSH1 0x98 SHL PUSH1 0x60 DUP3 ADD MSTORE PUSH1 0x1 PUSH1 0x1 PUSH1 0xA0 SHL SUB DUP9 AND PUSH1 0x20 DUP3 ADD MSTORE PUSH32 0xB3F7D6C63A62AB0E6AE5263EF1DEB9C5A64F4689288C380DB949C116314A5540 SWAP1 PUSH1 0x80 SWAP1 LOG1 PUSH1 0x1 PUSH1 0x1 PUSH1 0xA0 SHL SUB DUP3 DUP2 AND PUSH1 0x0 SWAP1 DUP2 MSTORE PUSH1 0x7 PUSH1 0x20 MSTORE PUSH1 0x40 SWAP1 KECCAK256 DUP1 SLOAD PUSH1 0x1 PUSH1 0x1 PUSH1 0xA0 SHL SUB NOT AND SWAP2 DUP10 AND SWAP2 DUP3 OR SWAP1 SSTORE PUSH3 0x101C SWAP1 PUSH3 0x254A JUMP JUMPDEST PUSH1 0x40 MLOAD PUSH4 0x70A08231 PUSH1 0xE0 SHL DUP2 MSTORE ADDRESS PUSH1 0x4 DUP3 ADD MSTORE SWAP4 PUSH1 0x20 DUP6 PUSH1 0x24 DUP2 PUSH1 0x1 PUSH1 0x1 PUSH1 0xA0 SHL SUB DUP13 AND GAS STATICCALL SWAP5 DUP6 ISZERO PUSH3 0x954 JUMPI PUSH1 0x0 SWAP6 PUSH3 0x234E JUMPI JUMPDEST POP PUSH1 0x0 DUP1 MLOAD PUSH1 0x20 PUSH3 0x46E8 DUP4 CODECOPY DUP2 MLOAD SWAP2 MSTORE PUSH1 0x40 MLOAD DUP1 PUSH3 0x10A4 DUP9 DUP3 SWAP2 SWAP1 PUSH1 0x40 DUP4 MSTORE PUSH1 0x15 PUSH1 0x40 DUP5 ADD MSTORE PUSH21 0x496E697469616C20746F6B656E2062616C616E6365 PUSH1 0x58 SHL PUSH1 0x60 DUP5 ADD MSTORE PUSH1 0x20 PUSH1 0x80 DUP5 ADD SWAP4 ADD MSTORE JUMP JUMPDEST SUB SWAP1 LOG1 PUSH1 0x0 DUP1 MLOAD PUSH1 0x20 PUSH3 0x46E8 DUP4 CODECOPY DUP2 MLOAD SWAP2 MSTORE PUSH1 0x40 MLOAD DUP1 PUSH3 0x1117 DUP9 DUP3 SWAP2 SWAP1 PUSH1 0x40 DUP4 MSTORE PUSH1 0x2F PUSH1 0x40 DUP5 ADD MSTORE PUSH32 0x417070726F76696E6720746F6B656E7320666F72204E6F6E66756E6769626C65 PUSH1 0x60 DUP5 ADD MSTORE PUSH15 0x2837B9B4BA34B7B726B0B730B3B2B9 PUSH1 0x89 SHL PUSH1 0x80 DUP5 ADD MSTORE PUSH1 0x20 PUSH1 0xA0 DUP5 ADD SWAP4 ADD MSTORE JUMP JUMPDEST SUB SWAP1 LOG1 PUSH1 0x4 SLOAD PUSH3 0x116C SWAP1 PUSH1 0x20 SWAP1 DUP8 SWAP1 PUSH3 0x113B SWAP1 PUSH1 0x1 PUSH1 0x1 PUSH1 0xA0 SHL SUB AND PUSH3 0xC38 JUMP JUMPDEST PUSH1 0x40 MLOAD PUSH4 0x95EA7B3 PUSH1 0xE0 SHL DUP2 MSTORE PUSH1 0x1 PUSH1 0x1 PUSH1 0xA0 SHL SUB SWAP1 SWAP2 AND PUSH1 0x4 DUP3 ADD MSTORE PUSH1 0x24 DUP2 ADD SWAP2 SWAP1 SWAP2 MSTORE SWAP2 DUP3 SWAP1 DUP2 SWAP1 PUSH1 0x44 DUP3 ADD SWAP1 JUMP JUMPDEST SUB DUP2 PUSH1 0x0 PUSH1 0x1 PUSH1 0x1 PUSH1 0xA0 SHL SUB DUP15 AND GAS CALL DUP1 ISZERO PUSH3 0x954 JUMPI PUSH3 0x1198 SWAP2 PUSH1 0x0 SWAP2 PUSH3 0x232A JUMPI JUMPDEST POP PUSH3 0x2601 JUMP JUMPDEST PUSH1 0x2 SLOAD PUSH3 0x11B1 SWAP1 PUSH3 0xC38 SWAP1 PUSH1 0x1 PUSH1 0x1 PUSH1 0xA0 SHL SUB AND DUP2 JUMP JUMPDEST DUP1 EXTCODESIZE ISZERO PUSH3 0x196 JUMPI PUSH1 0x0 PUSH1 0x4 SWAP2 PUSH1 0x40 MLOAD SWAP3 DUP4 DUP1 SWAP3 PUSH4 0xD0E30DB PUSH1 0xE4 SHL DUP3 MSTORE CALLVALUE SWAP1 GAS CALL DUP1 ISZERO PUSH3 0x954 JUMPI PUSH3 0x2313 JUMPI JUMPDEST POP PUSH1 0x0 PUSH1 0x20 PUSH3 0x124C PUSH3 0x1203 PUSH3 0xC38 PUSH3 0xC38 PUSH1 0x2 SLOAD PUSH1 0x1 DUP1 PUSH1 0xA0 SHL SUB AND SWAP1 JUMP JUMPDEST PUSH1 0x4 SLOAD PUSH3 0x121A SWAP1 PUSH1 0x1 PUSH1 0x1 PUSH1 0xA0 SHL SUB AND PUSH3 0xC38 JUMP JUMPDEST PUSH1 0x40 MLOAD PUSH4 0x95EA7B3 PUSH1 0xE0 SHL DUP2 MSTORE PUSH1 0x1 PUSH1 0x1 PUSH1 0xA0 SHL SUB SWAP1 SWAP2 AND PUSH1 0x4 DUP3 ADD MSTORE CALLVALUE PUSH1 0x24 DUP3 ADD MSTORE SWAP4 DUP5 SWAP3 DUP4 SWAP2 SWAP1 DUP3 SWAP1 PUSH1 0x44 DUP3 ADD SWAP1 JUMP JUMPDEST SUB SWAP3 GAS CALL DUP1 ISZERO PUSH3 0x954 JUMPI PUSH3 0x126C SWAP2 PUSH1 0x0 SWAP2 PUSH3 0x22DD JUMPI JUMPDEST POP PUSH3 0x2640 JUMP JUMPDEST PUSH1 0x3 SLOAD PUSH3 0x1283 SWAP1 PUSH1 0x1 PUSH1 0x1 PUSH1 0xA0 SHL SUB AND PUSH3 0xC38 JUMP JUMPDEST PUSH1 0x40 MLOAD PUSH4 0x22AFCCCB PUSH1 0xE0 SHL DUP2 MSTORE PUSH2 0xBB8 PUSH1 0x4 DUP3 ADD MSTORE SWAP1 PUSH1 0x20 DUP3 PUSH1 0x24 DUP2 DUP5 GAS STATICCALL SWAP2 DUP3 ISZERO PUSH3 0x954 JUMPI PUSH1 0x0 SWAP3 PUSH3 0x22A5 JUMPI JUMPDEST POP PUSH1 0x40 MLOAD SWAP1 PUSH32 0xF5D2CD60F752FF8CA00B1FC30EA4D78C233ECA72C1ED58D0D62424E09F0951E DUP3 DUP2 SWAP4 PUSH3 0x1311 DUP7 PUSH1 0x2 SIGNEXTEND DUP3 SWAP2 SWAP1 PUSH1 0x40 DUP4 MSTORE PUSH1 0xB PUSH1 0x40 DUP5 ADD MSTORE PUSH11 0x5469636B53706163696E67 PUSH1 0xA8 SHL PUSH1 0x60 DUP5 ADD MSTORE PUSH1 0x20 PUSH1 0x80 DUP5 ADD SWAP4 ADD MSTORE JUMP JUMPDEST SUB SWAP1 LOG1 PUSH3 0x1341 PUSH3 0x132E DUP5 PUSH3 0x1328 DUP2 PUSH3 0x26B5 JUMP JUMPDEST PUSH3 0x26CE JUMP JUMPDEST SWAP4 PUSH3 0x133A DUP2 PUSH3 0x28F7 JUMP JUMPDEST MUL PUSH1 0x2 SIGNEXTEND SWAP1 JUMP JUMPDEST SWAP2 DUP1 PUSH1 0x40 MLOAD DUP1 PUSH3 0x137F DUP8 PUSH1 0x2 SIGNEXTEND DUP3 SWAP2 SWAP1 PUSH1 0x40 DUP4 MSTORE PUSH1 0xE PUSH1 0x40 DUP5 ADD MSTORE PUSH14 0x4D696E5469636B53706163696E67 PUSH1 0x90 SHL PUSH1 0x60 DUP5 ADD MSTORE PUSH1 0x20 PUSH1 0x80 DUP5 ADD SWAP4 ADD MSTORE JUMP JUMPDEST SUB SWAP1 LOG1 PUSH1 0x40 MLOAD DUP1 PUSH3 0x13BE DUP6 PUSH1 0x2 SIGNEXTEND DUP3 SWAP2 SWAP1 PUSH1 0x40 DUP4 MSTORE PUSH1 0xE PUSH1 0x40 DUP5 ADD MSTORE PUSH14 0x4D61785469636B53706163696E67 PUSH1 0x90 SHL PUSH1 0x60 DUP5 ADD MSTORE PUSH1 0x20 PUSH1 0x80 DUP5 ADD SWAP4 ADD MSTORE JUMP JUMPDEST SUB SWAP1 LOG1 PUSH3 0x14B0 PUSH1 0x20 DUP13 PUSH3 0x13D3 DUP7 PUSH3 0x2C25 JUMP JUMPDEST PUSH1 0x40 DUP1 MLOAD DUP2 DUP2 MSTORE PUSH1 0xC SWAP2 DUP2 ADD SWAP2 SWAP1 SWAP2 MSTORE PUSH12 0x39B8B93A283934B1B2AC1C9B PUSH1 0xA1 SHL PUSH1 0x60 DUP3 ADD MSTORE PUSH1 0x1 PUSH1 0x1 PUSH1 0xA0 SHL SUB DUP3 AND PUSH1 0x20 DUP3 ADD MSTORE SWAP1 SWAP5 SWAP1 PUSH1 0x0 DUP1 MLOAD PUSH1 0x20 PUSH3 0x46E8 DUP4 CODECOPY DUP2 MLOAD SWAP2 MSTORE SWAP1 PUSH1 0x80 SWAP1 LOG1 PUSH1 0x0 DUP1 MLOAD PUSH1 0x20 PUSH3 0x46E8 DUP4 CODECOPY DUP2 MLOAD SWAP2 MSTORE PUSH1 0x40 MLOAD DUP1 PUSH3 0x146B DUP2 SWAP1 PUSH1 0x40 DUP3 MSTORE PUSH1 0x11 PUSH1 0x40 DUP4 ADD MSTORE PUSH17 0x10DC99585D1A5B99C81B995DC81C1BDBDB PUSH1 0x7A SHL PUSH1 0x60 DUP4 ADD MSTORE PUSH1 0x0 PUSH1 0x20 PUSH1 0x80 DUP5 ADD SWAP4 ADD MSTORE JUMP JUMPDEST SUB SWAP1 LOG1 PUSH1 0x2 SLOAD PUSH1 0x40 MLOAD PUSH4 0xA1671295 PUSH1 0xE0 SHL DUP2 MSTORE PUSH1 0x1 PUSH1 0x1 PUSH1 0xA0 SHL SUB SWAP4 DUP5 AND PUSH1 0x4 DUP3 ADD MSTORE SWAP3 AND PUSH1 0x24 DUP4 ADD MSTORE PUSH2 0xBB8 PUSH1 0x44 DUP4 ADD MSTORE SWAP1 SWAP3 DUP4 SWAP2 SWAP1 DUP3 SWAP1 PUSH1 0x0 SWAP1 DUP3 SWAP1 PUSH1 0x64 DUP3 ADD SWAP1 JUMP JUMPDEST SUB SWAP3 GAS CALL PUSH1 0x0 SWAP2 DUP2 PUSH3 0x226D JUMPI JUMPDEST POP PUSH3 0x160C JUMPI PUSH3 0x14CE PUSH3 0x26FE JUMP JUMPDEST PUSH4 0x8C379A0 SUB PUSH3 0x25DB JUMPI PUSH3 0x14E3 PUSH3 0x271D JUMP JUMPDEST DUP1 PUSH3 0x14F0 JUMPI POP PUSH3 0x25DB JUMP JUMPDEST PUSH1 0x2 SLOAD PUSH3 0x1509 SWAP1 PUSH3 0xC38 SWAP1 PUSH1 0x1 PUSH1 0x1 PUSH1 0xA0 SHL SUB AND DUP2 JUMP JUMPDEST DUP1 EXTCODESIZE ISZERO PUSH3 0x196 JUMPI PUSH1 0x40 MLOAD PUSH4 0x2E1A7D4D PUSH1 0xE0 SHL DUP2 MSTORE CALLVALUE PUSH1 0x4 DUP3 ADD MSTORE SWAP1 PUSH1 0x0 SWAP1 DUP3 SWAP1 PUSH1 0x24 SWAP1 DUP3 SWAP1 DUP5 SWAP1 GAS CALL DUP1 ISZERO PUSH3 0x954 JUMPI PUSH3 0x15EA SWAP3 PUSH3 0xE5C SWAP3 PUSH3 0x15D1 SWAP3 PUSH3 0x15EE JUMPI JUMPDEST POP PUSH1 0x0 DUP1 MLOAD PUSH1 0x20 PUSH3 0x46E8 DUP4 CODECOPY DUP2 MLOAD SWAP2 MSTORE PUSH1 0x40 MLOAD DUP1 PUSH3 0x159F DUP2 SWAP1 PUSH1 0x40 DUP3 MSTORE PUSH1 0x14 PUSH1 0x40 DUP4 ADD MSTORE PUSH20 0x141BDBDB0818DC99585D1A5BDB8819985A5B1959 PUSH1 0x62 SHL PUSH1 0x60 DUP4 ADD MSTORE PUSH1 0x0 PUSH1 0x20 PUSH1 0x80 DUP5 ADD SWAP4 ADD MSTORE JUMP JUMPDEST SUB SWAP1 LOG1 PUSH1 0x40 MLOAD PUSH22 0x2837B7B61031B932B0BA34B7B7103330B4B632B21D1 PUSH1 0x55 SHL PUSH1 0x20 DUP3 ADD MSTORE SWAP3 DUP4 SWAP2 PUSH1 0x36 DUP4 ADD PUSH3 0xECB JUMP JUMPDEST PUSH1 0x40 MLOAD PUSH3 0x461BCD PUSH1 0xE5 SHL DUP2 MSTORE SWAP2 DUP3 SWAP2 PUSH1 0x4 DUP4 ADD PUSH3 0x2791 JUMP JUMPDEST SUB SWAP1 REVERT JUMPDEST DUP1 PUSH3 0x15FE PUSH3 0x1605 SWAP3 PUSH3 0x619 JUMP JUMPDEST DUP1 PUSH3 0x18A JUMP JUMPDEST DUP5 PUSH3 0x154F JUMP JUMPDEST PUSH1 0x0 DUP1 MLOAD PUSH1 0x20 PUSH3 0x46E8 DUP4 CODECOPY DUP2 MLOAD SWAP2 MSTORE PUSH1 0x40 MLOAD DUP1 PUSH3 0x1664 DUP2 SWAP1 PUSH1 0x40 DUP3 MSTORE PUSH1 0x1C PUSH1 0x40 DUP4 ADD MSTORE PUSH32 0x506F6F6C206372656174656420616E6420696E697469616C697A656400000000 PUSH1 0x60 DUP4 ADD MSTORE PUSH1 0x0 PUSH1 0x20 PUSH1 0x80 DUP5 ADD SWAP4 ADD MSTORE JUMP JUMPDEST SUB SWAP1 LOG1 PUSH1 0x0 DUP1 MLOAD PUSH1 0x20 PUSH3 0x46E8 DUP4 CODECOPY DUP2 MLOAD SWAP2 MSTORE PUSH1 0x40 MLOAD DUP1 PUSH3 0x16B4 DUP2 SWAP1 PUSH1 0x40 DUP3 MSTORE PUSH1 0x12 PUSH1 0x40 DUP4 ADD MSTORE PUSH18 0x24B734BA34B0B634BD34B733903837B7B61 PUSH1 0x75 SHL PUSH1 0x60 DUP4 ADD MSTORE PUSH1 0x0 PUSH1 0x20 PUSH1 0x80 DUP5 ADD SWAP4 ADD MSTORE JUMP JUMPDEST SUB SWAP1 LOG1 PUSH1 0x1 PUSH1 0x1 PUSH1 0xA0 SHL SUB DUP2 AND EXTCODESIZE ISZERO PUSH3 0x196 JUMPI PUSH1 0x40 MLOAD PUSH4 0xF637731D PUSH1 0xE0 SHL DUP2 MSTORE PUSH1 0x1 PUSH1 0x1 PUSH1 0xA0 SHL SUB SWAP3 DUP4 AND PUSH1 0x4 DUP3 ADD MSTORE SWAP2 PUSH1 0x0 SWAP2 DUP4 SWAP2 PUSH1 0x24 SWAP2 DUP4 SWAP2 DUP6 SWAP2 AND GAS CALL SWAP1 DUP2 PUSH3 0x2256 JUMPI JUMPDEST POP PUSH3 0x1819 JUMPI PUSH3 0x170D PUSH3 0x26FE JUMP JUMPDEST PUSH4 0x8C379A0 EQ PUSH3 0x1756 JUMPI JUMPDEST PUSH1 0x0 DUP1 MLOAD PUSH1 0x20 PUSH3 0x46E8 DUP4 CODECOPY DUP2 MLOAD SWAP2 MSTORE PUSH1 0x40 MLOAD DUP1 PUSH3 0x1738 DUP2 PUSH3 0x2809 JUMP JUMPDEST SUB SWAP1 LOG1 PUSH1 0x40 MLOAD PUSH3 0x461BCD PUSH1 0xE5 SHL DUP2 MSTORE DUP1 PUSH3 0x15EA PUSH1 0x4 DUP3 ADD PUSH3 0x2820 JUMP JUMPDEST PUSH3 0x1760 PUSH3 0x271D JUMP JUMPDEST DUP1 PUSH3 0x176D JUMPI POP PUSH3 0x1719 JUMP JUMPDEST PUSH3 0xE5C PUSH3 0x15D1 PUSH3 0x15EA SWAP3 PUSH1 0x0 DUP1 MLOAD PUSH1 0x20 PUSH3 0x46E8 DUP4 CODECOPY DUP2 MLOAD SWAP2 MSTORE PUSH3 0x17E0 PUSH1 0x40 MLOAD PUSH3 0x17D3 DUP2 PUSH3 0xE5C PUSH3 0x17CC PUSH1 0x20 DUP4 ADD PUSH1 0x1C SWAP1 PUSH32 0x506F6F6C20696E697469616C697A6174696F6E206661696C65643A2000000000 DUP2 MSTORE ADD SWAP1 JUMP JUMPDEST DUP8 PUSH3 0xB06 JUMP JUMPDEST PUSH1 0x40 MLOAD SWAP2 DUP3 SWAP2 DUP3 PUSH3 0x27A4 JUMP JUMPDEST SUB SWAP1 LOG1 PUSH1 0x40 MLOAD PUSH32 0x506F6F6C20696E697469616C697A6174696F6E206661696C65643A2000000000 PUSH1 0x20 DUP3 ADD MSTORE SWAP3 DUP4 SWAP2 PUSH1 0x3C DUP4 ADD PUSH3 0xECB JUMP JUMPDEST DUP10 PUSH1 0x0 DUP1 MLOAD PUSH1 0x20 PUSH3 0x46E8 DUP4 CODECOPY DUP2 MLOAD SWAP2 MSTORE PUSH3 0x19AB PUSH1 0x0 SWAP10 PUSH1 0x80 SWAP6 PUSH3 0x1932 PUSH3 0x1A71 SWAP7 DUP6 PUSH1 0x40 MLOAD DUP1 PUSH3 0x1879 DUP2 SWAP1 PUSH1 0x40 DUP3 MSTORE PUSH1 0x10 PUSH1 0x40 DUP4 ADD MSTORE PUSH16 0x141BDBDB081A5B9A5D1A585B1A5E9959 PUSH1 0x82 SHL PUSH1 0x60 DUP4 ADD MSTORE PUSH1 0x0 PUSH1 0x20 PUSH1 0x80 DUP5 ADD SWAP4 ADD MSTORE JUMP JUMPDEST SUB SWAP1 LOG1 DUP6 PUSH1 0x40 MLOAD DUP1 PUSH3 0x18C5 CALLVALUE DUP3 SWAP2 SWAP1 PUSH1 0x40 DUP4 MSTORE PUSH1 0x1A PUSH1 0x40 DUP5 ADD MSTORE PUSH32 0x4D696E74696E67206C697175696469747920706F736974696F6E000000000000 PUSH1 0x60 DUP5 ADD MSTORE PUSH1 0x20 PUSH1 0x80 DUP5 ADD SWAP4 ADD MSTORE JUMP JUMPDEST SUB SWAP1 LOG1 PUSH1 0x2 SLOAD PUSH3 0x1929 SWAP1 PUSH1 0x1 PUSH1 0x1 PUSH1 0xA0 SHL SUB AND SWAP4 PUSH3 0x1917 PUSH3 0x18E9 TIMESTAMP PUSH3 0x2831 JUMP JUMPDEST SWAP6 PUSH3 0x1907 PUSH3 0x18F8 PUSH3 0x655 JUMP JUMPDEST PUSH1 0x1 PUSH1 0x1 PUSH1 0xA0 SHL SUB SWAP1 SWAP13 AND DUP13 MSTORE JUMP JUMPDEST PUSH1 0x1 PUSH1 0x1 PUSH1 0xA0 SHL SUB AND PUSH1 0x20 DUP12 ADD MSTORE JUMP JUMPDEST PUSH2 0xBB8 PUSH1 0x40 DUP11 ADD MSTORE PUSH1 0x2 SIGNEXTEND PUSH1 0x60 DUP10 ADD MSTORE JUMP JUMPDEST PUSH1 0x2 SIGNEXTEND DUP7 DUP10 ADD MSTORE JUMP JUMPDEST CALLVALUE PUSH1 0xA0 DUP7 ADD MSTORE PUSH1 0xC0 DUP6 ADD DUP3 SWAP1 MSTORE PUSH1 0xE0 DUP6 ADD DUP13 SWAP1 MSTORE PUSH2 0x100 DUP6 ADD DUP13 SWAP1 MSTORE ADDRESS PUSH2 0x120 DUP7 ADD MSTORE PUSH2 0x140 DUP6 ADD MSTORE PUSH1 0x40 MLOAD SWAP2 DUP3 SWAP2 DUP3 SWAP2 SWAP1 PUSH1 0x40 DUP4 MSTORE PUSH1 0x22 PUSH1 0x40 DUP5 ADD MSTORE PUSH32 0x4D696E74696E6720706F736974696F6E207769746820746F6B656E20616D6F75 PUSH1 0x60 DUP5 ADD MSTORE PUSH2 0x1B9D PUSH1 0xF2 SHL PUSH1 0x80 DUP5 ADD MSTORE PUSH1 0x20 PUSH1 0xA0 DUP5 ADD SWAP4 ADD MSTORE JUMP JUMPDEST SUB SWAP1 LOG1 PUSH1 0x4 SLOAD PUSH3 0x19C5 SWAP1 PUSH1 0x1 PUSH1 0x1 PUSH1 0xA0 SHL SUB AND PUSH3 0xC38 JUMP JUMPDEST PUSH1 0x40 DUP1 MLOAD PUSH4 0x4418B22B PUSH1 0xE1 SHL DUP2 MSTORE DUP4 MLOAD PUSH1 0x1 PUSH1 0x1 PUSH1 0xA0 SHL SUB SWAP1 DUP2 AND PUSH1 0x4 DUP4 ADD MSTORE PUSH1 0x20 DUP6 ADD MLOAD DUP2 AND PUSH1 0x24 DUP4 ADD MSTORE SWAP2 DUP5 ADD MLOAD PUSH3 0xFFFFFF AND PUSH1 0x44 DUP3 ADD MSTORE PUSH1 0x60 DUP5 ADD MLOAD PUSH1 0x2 SWAP1 DUP2 SIGNEXTEND PUSH1 0x64 DUP4 ADD MSTORE PUSH1 0x80 DUP6 ADD MLOAD SWAP1 SIGNEXTEND PUSH1 0x84 DUP3 ADD MSTORE PUSH1 0xA0 DUP5 ADD MLOAD PUSH1 0xA4 DUP3 ADD MSTORE PUSH1 0xC0 DUP5 ADD MLOAD PUSH1 0xC4 DUP3 ADD MSTORE PUSH1 0xE0 DUP5 ADD MLOAD PUSH1 0xE4 DUP3 ADD MSTORE PUSH2 0x100 DUP5 ADD MLOAD PUSH2 0x104 DUP3 ADD MSTORE PUSH2 0x120 DUP5 ADD MLOAD SWAP1 SWAP2 AND PUSH2 0x124 DUP3 ADD MSTORE PUSH2 0x140 SWAP1 SWAP3 ADD MLOAD PUSH2 0x144 DUP4 ADD MSTORE SWAP1 SWAP8 DUP9 SWAP3 DUP4 SWAP2 SWAP1 DUP3 SWAP1 PUSH2 0x164 DUP3 ADD SWAP1 JUMP JUMPDEST SUB SWAP3 GAS CALL PUSH1 0x0 DUP2 PUSH1 0x0 SWAP8 PUSH1 0x0 SWAP4 PUSH3 0x2217 JUMPI JUMPDEST POP PUSH3 0x1B84 JUMPI PUSH3 0x1A94 PUSH3 0x26FE JUMP JUMPDEST PUSH4 0x8C379A0 EQ PUSH3 0x1ADD JUMPI JUMPDEST PUSH1 0x0 DUP1 MLOAD PUSH1 0x20 PUSH3 0x46E8 DUP4 CODECOPY DUP2 MLOAD SWAP2 MSTORE PUSH1 0x40 MLOAD DUP1 PUSH3 0x1ABF DUP2 PUSH3 0x28CF JUMP JUMPDEST SUB SWAP1 LOG1 PUSH1 0x40 MLOAD PUSH3 0x461BCD PUSH1 0xE5 SHL DUP2 MSTORE DUP1 PUSH3 0x15EA PUSH1 0x4 DUP3 ADD PUSH3 0x28E6 JUMP JUMPDEST PUSH3 0x1AE7 PUSH3 0x271D JUMP JUMPDEST DUP1 PUSH3 0x1AF4 JUMPI POP PUSH3 0x1AA0 JUMP JUMPDEST PUSH3 0xE5C PUSH3 0x15D1 PUSH3 0x15EA SWAP3 PUSH1 0x0 DUP1 MLOAD PUSH1 0x20 PUSH3 0x46E8 DUP4 CODECOPY DUP2 MLOAD SWAP2 MSTORE PUSH3 0x1B4F PUSH1 0x40 MLOAD PUSH3 0x17D3 DUP2 PUSH3 0xE5C PUSH3 0x17CC PUSH1 0x20 DUP4 ADD PUSH1 0x19 SWAP1 PUSH25 0x2837B9B4BA34B7B71036B4B73A34B733903330B4B632B21D1 PUSH1 0x3D SHL DUP2 MSTORE ADD SWAP1 JUMP JUMPDEST SUB SWAP1 LOG1 PUSH1 0x40 MLOAD PUSH25 0x2837B9B4BA34B7B71036B4B73A34B733903330B4B632B21D1 PUSH1 0x3D SHL PUSH1 0x20 DUP3 ADD MSTORE SWAP3 DUP4 SWAP2 PUSH1 0x39 DUP4 ADD PUSH3 0xECB JUMP JUMPDEST SWAP6 SWAP1 PUSH1 0x0 DUP1 MLOAD PUSH1 0x20 PUSH3 0x46E8 DUP4 CODECOPY DUP2 MLOAD SWAP2 MSTORE PUSH1 0x40 MLOAD DUP1 PUSH3 0x1BDE DUP2 SWAP1 PUSH1 0x40 DUP3 MSTORE PUSH1 0x1D PUSH1 0x40 DUP4 ADD MSTORE PUSH32 0x5472616E7366657272696E67204E465420746F204C50206C6F636B6572000000 PUSH1 0x60 DUP4 ADD MSTORE PUSH1 0x0 PUSH1 0x20 PUSH1 0x80 DUP5 ADD SWAP4 ADD MSTORE JUMP JUMPDEST SUB SWAP1 LOG1 PUSH1 0x4 SLOAD PUSH3 0x1BF8 SWAP1 PUSH1 0x1 PUSH1 0x1 PUSH1 0xA0 SHL SUB AND PUSH3 0xC38 JUMP JUMPDEST PUSH1 0x5 SLOAD SWAP1 SWAP2 SWAP1 PUSH3 0x1C12 SWAP1 PUSH1 0x1 PUSH1 0x1 PUSH1 0xA0 SHL SUB AND PUSH3 0xC38 JUMP JUMPDEST SWAP2 DUP1 EXTCODESIZE ISZERO PUSH3 0x196 JUMPI PUSH1 0x40 MLOAD PUSH4 0x21421707 PUSH1 0xE1 SHL DUP2 MSTORE ADDRESS PUSH1 0x4 DUP3 ADD MSTORE PUSH1 0x1 PUSH1 0x1 PUSH1 0xA0 SHL SUB SWAP4 SWAP1 SWAP4 AND PUSH1 0x24 DUP5 ADD MSTORE PUSH1 0x44 DUP4 ADD DUP10 SWAP1 MSTORE PUSH1 0x0 SWAP1 DUP4 SWAP1 PUSH1 0x64 SWAP1 DUP3 SWAP1 DUP5 SWAP1 GAS CALL SWAP1 DUP2 ISZERO PUSH3 0x954 JUMPI PUSH32 0x64B83944E79C3CE8D4C297411DE637C3E102D064677AAC0C163976EBDCD6F50E SWAP3 PUSH3 0x1CB1 SWAP3 PUSH3 0x2200 JUMPI JUMPDEST POP PUSH1 0x40 DUP1 MLOAD DUP11 DUP2 MSTORE PUSH1 0x20 DUP2 ADD SWAP6 SWAP1 SWAP6 MSTORE DUP5 ADD MSTORE PUSH1 0x1 PUSH1 0x1 PUSH1 0xA0 SHL SUB DUP12 AND SWAP3 SWAP1 DUP2 SWAP1 PUSH1 0x60 DUP3 ADD SWAP1 JUMP JUMPDEST SUB SWAP1 LOG2 PUSH1 0x40 MLOAD PUSH4 0x70A08231 PUSH1 0xE0 SHL DUP2 MSTORE ADDRESS PUSH1 0x4 DUP3 ADD MSTORE PUSH1 0x20 DUP2 PUSH1 0x24 DUP2 PUSH1 0x1 PUSH1 0x1 PUSH1 0xA0 SHL SUB DUP14 AND GAS STATICCALL SWAP1 DUP2 ISZERO PUSH3 0x954 JUMPI PUSH1 0x0 DUP1 MLOAD PUSH1 0x20 PUSH3 0x46E8 DUP4 CODECOPY DUP2 MLOAD SWAP2 MSTORE SWAP2 PUSH3 0x1D46 SWAP2 PUSH1 0x0 SWAP2 PUSH3 0x21DC JUMPI JUMPDEST POP PUSH1 0x40 MLOAD SWAP2 DUP3 SWAP2 DUP3 SWAP2 SWAP1 PUSH1 0x40 DUP4 MSTORE PUSH1 0x19 PUSH1 0x40 DUP5 ADD MSTORE PUSH32 0x52656D61696E696E6720746F6B656E73206166746572204C5000000000000000 PUSH1 0x60 DUP5 ADD MSTORE PUSH1 0x20 PUSH1 0x80 DUP5 ADD SWAP4 ADD MSTORE JUMP JUMPDEST SUB SWAP1 LOG1 PUSH1 0x0 DUP1 MLOAD PUSH1 0x20 PUSH3 0x46E8 DUP4 CODECOPY DUP2 MLOAD SWAP2 MSTORE PUSH1 0x40 MLOAD DUP1 PUSH3 0x1DA1 DUP2 SWAP1 PUSH1 0x40 DUP3 MSTORE PUSH1 0x1F PUSH1 0x40 DUP4 ADD MSTORE PUSH32 0x496E697469616C697A696E6720706F736974696F6E20696E206C6F636B657200 PUSH1 0x60 DUP4 ADD MSTORE PUSH1 0x0 PUSH1 0x20 PUSH1 0x80 DUP5 ADD SWAP4 ADD MSTORE JUMP JUMPDEST SUB SWAP1 LOG1 PUSH1 0x5 SLOAD PUSH3 0x1DBB SWAP1 PUSH1 0x1 PUSH1 0x1 PUSH1 0xA0 SHL SUB AND PUSH3 0xC38 JUMP JUMPDEST SWAP5 PUSH1 0x9 SLOAD SWAP1 PUSH3 0x1DE5 PUSH3 0x1DD9 PUSH1 0x1 PUSH1 0x1 PUSH1 0x40 SHL SUB DUP5 AND TIMESTAMP PUSH3 0x2841 JUMP JUMPDEST PUSH1 0x1 PUSH1 0x1 PUSH1 0x40 SHL SUB AND SWAP1 JUMP JUMPDEST SWAP7 DUP1 EXTCODESIZE ISZERO PUSH3 0x196 JUMPI PUSH1 0x40 DUP1 MLOAD PUSH4 0x22614FD5 PUSH1 0xE2 SHL DUP2 MSTORE PUSH1 0x4 DUP2 ADD SWAP4 SWAP1 SWAP4 MSTORE PUSH1 0x1 PUSH1 0x1 PUSH1 0xA0 SHL SUB DUP8 AND PUSH1 0x24 DUP5 ADD MSTORE PUSH1 0x1 PUSH1 0x1 PUSH1 0x40 SHL SUB SWAP1 SWAP9 AND PUSH1 0x44 DUP4 ADD MSTORE SWAP2 SWAP1 SWAP7 SHR PUSH2 0xFFFF AND PUSH1 0x64 DUP8 ADD MSTORE PUSH1 0x0 SWAP1 DUP7 SWAP1 DUP2 DUP4 DUP2 PUSH1 0x84 DUP2 ADD SUB SWAP3 GAS CALL SWAP2 DUP3 ISZERO PUSH3 0x954 JUMPI PUSH32 0x71367AE73260B1C5A8E707D05A95834F62C68D3275284CE234E59A685FA7DC29 SWAP6 PUSH3 0x1E8E SWAP4 PUSH3 0x21C5 JUMPI JUMPDEST POP PUSH1 0x40 MLOAD SWAP5 DUP6 SWAP5 PUSH1 0x1 DUP1 PUSH1 0xA0 SHL SUB AND SWAP9 ADDRESS SWAP9 DUP7 PUSH3 0x2436 JUMP JUMPDEST SUB SWAP1 LOG3 PUSH1 0x0 DUP1 MLOAD PUSH1 0x20 PUSH3 0x46E8 DUP4 CODECOPY DUP2 MLOAD SWAP2 MSTORE PUSH1 0x40 MLOAD DUP1 PUSH3 0x1EE9 CALLVALUE DUP3 SWAP2 SWAP1 PUSH1 0x40 DUP4 MSTORE PUSH1 0x1A PUSH1 0x40 DUP5 ADD MSTORE PUSH32 0x52656D61696E696E672066756E647320666F7220746F6B656E73000000000000 PUSH1 0x60 DUP5 ADD MSTORE PUSH1 0x20 PUSH1 0x80 DUP5 ADD SWAP4 ADD MSTORE JUMP JUMPDEST SUB SWAP1 LOG1 CALLVALUE PUSH3 0x1EFE JUMPI PUSH1 0x1 PUSH1 0x1 PUSH1 0xA0 SHL SUB AND SWAP1 JUMP JUMPDEST PUSH1 0x0 DUP1 MLOAD PUSH1 0x20 PUSH3 0x46E8 DUP4 CODECOPY DUP2 MLOAD SWAP2 MSTORE PUSH1 0x40 MLOAD DUP1 PUSH3 0x1F4D DUP2 SWAP1 PUSH1 0x40 DUP3 MSTORE PUSH1 0x14 PUSH1 0x40 DUP4 ADD MSTORE PUSH20 0x457865637574696E6720746F6B656E207377617 PUSH1 0x64 SHL PUSH1 0x60 DUP4 ADD MSTORE PUSH1 0x0 PUSH1 0x20 PUSH1 0x80 DUP5 ADD SWAP4 ADD MSTORE JUMP JUMPDEST SUB SWAP1 LOG1 PUSH1 0x2 SLOAD PUSH3 0x2040 SWAP1 PUSH1 0x20 SWAP1 PUSH1 0x1 PUSH1 0x1 PUSH1 0xA0 SHL SUB AND PUSH3 0x1F81 PUSH3 0x1F72 PUSH3 0x676 JUMP JUMPDEST PUSH1 0x1 PUSH1 0x1 PUSH1 0xA0 SHL SUB SWAP1 SWAP3 AND DUP3 MSTORE JUMP JUMPDEST PUSH1 0x1 PUSH1 0x1 PUSH1 0xA0 SHL SUB DUP5 AND DUP2 DUP4 ADD MSTORE PUSH2 0xBB8 PUSH1 0x40 DUP3 ADD MSTORE CALLER PUSH1 0x60 DUP3 ADD MSTORE CALLVALUE PUSH1 0x80 DUP3 ADD MSTORE PUSH1 0x0 PUSH1 0xA0 DUP3 ADD DUP2 SWAP1 MSTORE PUSH1 0xC0 DUP3 ADD MSTORE PUSH1 0x6 SLOAD PUSH3 0x1FCA SWAP1 PUSH3 0xC38 SWAP1 PUSH1 0x1 PUSH1 0x1 PUSH1 0xA0 SHL SUB AND DUP2 JUMP JUMPDEST PUSH1 0x40 DUP1 MLOAD PUSH4 0x4E45AAF PUSH1 0xE0 SHL DUP2 MSTORE DUP4 MLOAD PUSH1 0x1 PUSH1 0x1 PUSH1 0xA0 SHL SUB SWAP1 DUP2 AND PUSH1 0x4 DUP4 ADD MSTORE PUSH1 0x20 DUP6 ADD MLOAD DUP2 AND PUSH1 0x24 DUP4 ADD MSTORE SWAP2 DUP5 ADD MLOAD PUSH3 0xFFFFFF AND PUSH1 0x44 DUP3 ADD MSTORE PUSH1 0x60 DUP5 ADD MLOAD DUP3 AND PUSH1 0x64 DUP3 ADD MSTORE PUSH1 0x80 DUP5 ADD MLOAD PUSH1 0x84 DUP3 ADD MSTORE PUSH1 0xA0 DUP5 ADD MLOAD PUSH1 0xA4 DUP3 ADD MSTORE PUSH1 0xC0 SWAP1 SWAP4 ADD MLOAD AND PUSH1 0xC4 DUP4 ADD MSTORE SWAP1 SWAP3 DUP4 SWAP2 SWAP1 DUP3 SWAP1 DUP2 SWAP1 PUSH1 0xE4 DUP3 ADD SWAP1 JUMP JUMPDEST SUB SWAP2 CALLVALUE SWAP1 GAS CALL PUSH1 0x0 SWAP2 DUP2 PUSH3 0x218D JUMPI JUMPDEST POP PUSH3 0x2141 JUMPI POP PUSH1 0x1 PUSH3 0x2063 PUSH3 0x26FE JUMP JUMPDEST PUSH4 0x8C379A0 EQ PUSH3 0x20D6 JUMPI JUMPDEST ISZERO PUSH3 0xC38 JUMPI PUSH1 0x0 DUP1 MLOAD PUSH1 0x20 PUSH3 0x46E8 DUP4 CODECOPY DUP2 MLOAD SWAP2 MSTORE PUSH1 0x40 MLOAD DUP1 PUSH3 0x20CD DUP2 SWAP1 PUSH1 0x40 DUP3 MSTORE PUSH1 0x1E PUSH1 0x40 DUP4 ADD MSTORE PUSH32 0x53776170206661696C6564207769746820756E6B6E6F776E206572726F720000 PUSH1 0x60 DUP4 ADD MSTORE PUSH1 0x0 PUSH1 0x20 PUSH1 0x80 DUP5 ADD SWAP4 ADD MSTORE JUMP JUMPDEST SUB SWAP1 LOG1 PUSH3 0xC38 JUMP JUMPDEST PUSH3 0x20E0 PUSH3 0x271D JUMP JUMPDEST DUP1 PUSH3 0x20EE JUMPI JUMPDEST POP PUSH3 0x206F JUMP JUMPDEST SWAP1 POP PUSH1 0x0 DUP1 MLOAD PUSH1 0x20 PUSH3 0x46E8 DUP4 CODECOPY DUP2 MLOAD SWAP2 MSTORE PUSH3 0x2137 PUSH3 0xE5C PUSH3 0x17D3 PUSH1 0x0 SWAP5 PUSH1 0x40 MLOAD SWAP3 DUP4 SWAP2 PUSH3 0xECB PUSH1 0x20 DUP5 ADD PUSH1 0xD SWAP1 PUSH13 0x29BBB0B8103330B4B632B21D1 PUSH1 0x9D SHL DUP2 MSTORE ADD SWAP1 JUMP JUMPDEST SUB SWAP1 LOG1 CODESIZE PUSH3 0x20E7 JUMP JUMPDEST PUSH3 0x20CD PUSH1 0x0 DUP1 MLOAD PUSH1 0x20 PUSH3 0x46E8 DUP4 CODECOPY DUP2 MLOAD SWAP2 MSTORE SWAP2 PUSH1 0x40 MLOAD SWAP2 DUP3 SWAP2 DUP3 SWAP2 SWAP1 PUSH1 0x40 DUP4 MSTORE PUSH1 0xF PUSH1 0x40 DUP5 ADD MSTORE PUSH15 0x14DDD85C08185B5BDD5B9D081BDD5D PUSH1 0x8A SHL PUSH1 0x60 DUP5 ADD MSTORE PUSH1 0x20 PUSH1 0x80 DUP5 ADD SWAP4 ADD MSTORE JUMP JUMPDEST PUSH3 0x21B5 SWAP2 SWAP3 POP PUSH1 0x20 RETURNDATASIZE PUSH1 0x20 GT PUSH3 0x21BD JUMPI JUMPDEST PUSH3 0x21AC DUP2 DUP4 PUSH3 0x633 JUMP JUMPDEST DUP2 ADD SWAP1 PUSH3 0x25CB JUMP JUMPDEST SWAP1 CODESIZE PUSH3 0x2050 JUMP JUMPDEST POP RETURNDATASIZE PUSH3 0x21A0 JUMP JUMPDEST DUP1 PUSH3 0x15FE PUSH3 0x21D5 SWAP3 PUSH3 0x619 JUMP JUMPDEST CODESIZE PUSH3 0x1E75 JUMP JUMPDEST PUSH3 0x21F9 SWAP2 POP PUSH1 0x20 RETURNDATASIZE PUSH1 0x20 GT PUSH3 0x21BD JUMPI PUSH3 0x21AC DUP2 DUP4 PUSH3 0x633 JUMP JUMPDEST CODESIZE PUSH3 0x1D00 JUMP JUMPDEST DUP1 PUSH3 0x15FE PUSH3 0x2210 SWAP3 PUSH3 0x619 JUMP JUMPDEST CODESIZE PUSH3 0x1C89 JUMP JUMPDEST SWAP2 POP SWAP7 POP PUSH3 0x2241 SWAP2 POP PUSH1 0x80 RETURNDATASIZE DUP2 GT PUSH3 0x224E JUMPI JUMPDEST PUSH3 0x2238 DUP2 DUP4 PUSH3 0x633 JUMP JUMPDEST DUP2 ADD SWAP1 PUSH3 0x284F JUMP JUMPDEST SWAP1 SWAP8 SWAP1 SWAP3 SWAP2 POP CODESIZE PUSH3 0x1A84 JUMP JUMPDEST POP RETURNDATASIZE PUSH3 0x222C JUMP JUMPDEST DUP1 PUSH3 0x15FE PUSH3 0x2266 SWAP3 PUSH3 0x619 JUMP JUMPDEST CODESIZE PUSH3 0x16FD JUMP JUMPDEST PUSH3 0x2295 SWAP2 SWAP3 POP PUSH1 0x20 RETURNDATASIZE PUSH1 0x20 GT PUSH3 0x229D JUMPI JUMPDEST PUSH3 0x228C DUP2 DUP4 PUSH3 0x633 JUMP JUMPDEST DUP2 ADD SWAP1 PUSH3 0x26E6 JUMP JUMPDEST SWAP1 CODESIZE PUSH3 0x14BE JUMP JUMPDEST POP RETURNDATASIZE PUSH3 0x2280 JUMP JUMPDEST PUSH3 0x22CD SWAP2 SWAP3 POP PUSH1 0x20 RETURNDATASIZE PUSH1 0x20 GT PUSH3 0x22D5 JUMPI JUMPDEST PUSH3 0x22C4 DUP2 DUP4 PUSH3 0x633 JUMP JUMPDEST DUP2 ADD SWAP1 PUSH3 0x2684 JUMP JUMPDEST SWAP1 CODESIZE PUSH3 0x12B3 JUMP JUMPDEST POP RETURNDATASIZE PUSH3 0x22B8 JUMP JUMPDEST PUSH3 0x2304 SWAP2 POP PUSH1 0x20 RETURNDATASIZE PUSH1 0x20 GT PUSH3 0x230B JUMPI JUMPDEST PUSH3 0x22FB DUP2 DUP4 PUSH3 0x633 JUMP JUMPDEST DUP2 ADD SWAP1 PUSH3 0x25E7 JUMP JUMPDEST CODESIZE PUSH3 0x1265 JUMP JUMPDEST POP RETURNDATASIZE PUSH3 0x22EF JUMP JUMPDEST DUP1 PUSH3 0x15FE PUSH3 0x2323 SWAP3 PUSH3 0x619 JUMP JUMPDEST CODESIZE PUSH3 0x11E0 JUMP JUMPDEST PUSH3 0x2347 SWAP2 POP PUSH1 0x20 RETURNDATASIZE PUSH1 0x20 GT PUSH3 0x230B JUMPI PUSH3 0x22FB DUP2 DUP4 PUSH3 0x633 JUMP JUMPDEST CODESIZE PUSH3 0x1191 JUMP JUMPDEST PUSH3 0x236C SWAP2 SWAP6 POP PUSH1 0x20 RETURNDATASIZE PUSH1 0x20 GT PUSH3 0x21BD JUMPI PUSH3 0x21AC DUP2 DUP4 PUSH3 0x633 JUMP JUMPDEST SWAP4 CODESIZE PUSH3 0x1053 JUMP JUMPDEST ISZERO PUSH3 0x237C JUMPI JUMP JUMPDEST PUSH1 0x40 MLOAD PUSH3 0x461BCD PUSH1 0xE5 SHL DUP2 MSTORE PUSH1 0x20 PUSH1 0x4 DUP3 ADD MSTORE PUSH1 0x22 PUSH1 0x24 DUP3 ADD MSTORE PUSH32 0x546F6B656E20616C72656164792065786973747320666F722074686973207573 PUSH1 0x44 DUP3 ADD MSTORE PUSH2 0x32B9 PUSH1 0xF1 SHL PUSH1 0x64 DUP3 ADD MSTORE PUSH1 0x84 SWAP1 REVERT JUMPDEST ISZERO PUSH3 0x23D4 JUMPI JUMP JUMPDEST PUSH1 0x40 MLOAD PUSH3 0x461BCD PUSH1 0xE5 SHL DUP2 MSTORE PUSH1 0x20 PUSH1 0x4 DUP3 ADD MSTORE PUSH1 0x13 PUSH1 0x24 DUP3 ADD MSTORE PUSH19 0x24B73B30B634B2103A37B5B2B71037BBB732B9 PUSH1 0x69 SHL PUSH1 0x44 DUP3 ADD MSTORE PUSH1 0x64 SWAP1 REVERT JUMPDEST SWAP1 PUSH1 0x20 SWAP2 PUSH3 0x242A DUP2 MLOAD DUP1 SWAP3 DUP2 DUP6 MSTORE DUP6 DUP1 DUP7 ADD SWAP2 ADD PUSH3 0xAE1 JUMP JUMPDEST PUSH1 0x1F ADD PUSH1 0x1F NOT AND ADD ADD SWAP1 JUMP JUMPDEST SWAP4 SWAP1 PUSH3 0xADE SWAP6 SWAP4 PUSH3 0x246E PUSH3 0x248C SWAP5 PUSH3 0x245F PUSH3 0x247D SWAP5 PUSH1 0xA0 DUP11 MSTORE PUSH1 0xA0 DUP11 ADD SWAP1 PUSH3 0x240F JUMP JUMPDEST SWAP1 DUP9 DUP3 SUB PUSH1 0x20 DUP11 ADD MSTORE PUSH3 0x240F JUMP JUMPDEST SWAP1 DUP7 DUP3 SUB PUSH1 0x40 DUP9 ADD MSTORE PUSH3 0x240F JUMP JUMPDEST SWAP1 DUP5 DUP3 SUB PUSH1 0x60 DUP7 ADD MSTORE PUSH3 0x240F JUMP JUMPDEST SWAP2 PUSH1 0x80 DUP2 DUP5 SUB SWAP2 ADD MSTORE PUSH3 0x240F JUMP JUMPDEST ISZERO PUSH3 0x24A3 JUMPI JUMP JUMPDEST PUSH1 0x40 MLOAD PUSH3 0x461BCD PUSH1 0xE5 SHL DUP2 MSTORE PUSH1 0x20 PUSH1 0x4 DUP3 ADD MSTORE PUSH1 0x2C PUSH1 0x24 DUP3 ADD MSTORE PUSH32 0x546F6B656E2061646472657373206D757374206265206C657373207468616E20 PUSH1 0x44 DUP3 ADD MSTORE PUSH12 0x574554482061646472657373 PUSH1 0xA0 SHL PUSH1 0x64 DUP3 ADD MSTORE PUSH1 0x84 SWAP1 REVERT JUMPDEST ISZERO PUSH3 0x2505 JUMPI JUMP JUMPDEST PUSH1 0x40 MLOAD PUSH3 0x461BCD PUSH1 0xE5 SHL DUP2 MSTORE PUSH1 0x20 PUSH1 0x4 DUP3 ADD MSTORE PUSH1 0x17 PUSH1 0x24 DUP3 ADD MSTORE PUSH32 0x546F6B656E206465706C6F796D656E74206661696C6564000000000000000000 PUSH1 0x44 DUP3 ADD MSTORE PUSH1 0x64 SWAP1 REVERT JUMPDEST PUSH1 0x8 SLOAD PUSH9 0x10000000000000000 DUP2 LT ISZERO PUSH3 0x62D JUMPI PUSH1 0x1 DUP2 ADD DUP1 PUSH1 0x8 SSTORE DUP2 LT ISZERO PUSH3 0x25B5 JUMPI PUSH1 0x8 PUSH1 0x0 MSTORE PUSH32 0xF3F7A9FE364FAAB93B216DA50A3214154F22A0A2B415B23A84C8169E8B636EE3 ADD DUP1 SLOAD PUSH1 0x1 PUSH1 0x1 PUSH1 0xA0 SHL SUB NOT AND PUSH1 0x1 PUSH1 0x1 PUSH1 0xA0 SHL SUB SWAP1 SWAP3 AND SWAP2 SWAP1 SWAP2 OR SWAP1 SSTORE JUMP JUMPDEST PUSH4 0x4E487B71 PUSH1 0xE0 SHL PUSH1 0x0 MSTORE PUSH1 0x32 PUSH1 0x4 MSTORE PUSH1 0x24 PUSH1 0x0 REVERT JUMPDEST SWAP1 DUP2 PUSH1 0x20 SWAP2 SUB SLT PUSH3 0x196 JUMPI MLOAD SWAP1 JUMP JUMPDEST PUSH1 0x40 MLOAD RETURNDATASIZE PUSH1 0x0 DUP3 RETURNDATACOPY RETURNDATASIZE SWAP1 REVERT JUMPDEST SWAP1 DUP2 PUSH1 0x20 SWAP2 SUB SLT PUSH3 0x196 JUMPI MLOAD DUP1 ISZERO ISZERO DUP2 SUB PUSH3 0x196 JUMPI SWAP1 JUMP JUMPDEST ISZERO PUSH3 0x2609 JUMPI JUMP JUMPDEST PUSH1 0x40 MLOAD PUSH3 0x461BCD PUSH1 0xE5 SHL DUP2 MSTORE PUSH1 0x20 PUSH1 0x4 DUP3 ADD MSTORE PUSH1 0xF PUSH1 0x24 DUP3 ADD MSTORE PUSH15 0x105C1C1C9BDD985B0819985A5B1959 PUSH1 0x8A SHL PUSH1 0x44 DUP3 ADD MSTORE PUSH1 0x64 SWAP1 REVERT JUMPDEST ISZERO PUSH3 0x2648 JUMPI JUMP JUMPDEST PUSH1 0x40 MLOAD PUSH3 0x461BCD PUSH1 0xE5 SHL DUP2 MSTORE PUSH1 0x20 PUSH1 0x4 DUP3 ADD MSTORE PUSH1 0x14 PUSH1 0x24 DUP3 ADD MSTORE PUSH20 0x15D1551208185C1C1C9BDD985B0819985A5B1959 PUSH1 0x62 SHL PUSH1 0x44 DUP3 ADD MSTORE PUSH1 0x64 SWAP1 REVERT JUMPDEST SWAP1 DUP2 PUSH1 0x20 SWAP2 SUB SLT PUSH3 0x196 JUMPI MLOAD DUP1 PUSH1 0x2 SIGNEXTEND DUP2 SUB PUSH3 0x196 JUMPI SWAP1 JUMP JUMPDEST PUSH4 0x4E487B71 PUSH1 0xE0 SHL PUSH1 0x0 MSTORE PUSH1 0x12 PUSH1 0x4 MSTORE PUSH1 0x24 PUSH1 0x0 REVERT JUMPDEST PUSH1 0x2 SIGNEXTEND DUP1 ISZERO PUSH3 0x26C8 JUMPI PUSH3 0xD89B3 NOT SDIV SWAP1 JUMP JUMPDEST PUSH3 0x269F JUMP JUMPDEST SWAP1 PUSH1 0x2 SIGNEXTEND SWAP1 PUSH1 0x2 SIGNEXTEND MUL SWAP1 DUP2 PUSH1 0x2 SIGNEXTEND SWAP2 DUP3 SUB PUSH3 0xD11 JUMPI JUMP JUMPDEST SWAP1 DUP2 PUSH1 0x20 SWAP2 SUB SLT PUSH3 0x196 JUMPI MLOAD PUSH3 0xADE DUP2 PUSH3 0x1C6 JUMP JUMPDEST PUSH1 0x0 SWAP1 PUSH1 0x3 RETURNDATASIZE GT PUSH3 0x270C JUMPI JUMP JUMPDEST SWAP1 POP PUSH1 0x4 PUSH1 0x0 DUP1 RETURNDATACOPY PUSH1 0x0 MLOAD PUSH1 0xE0 SHR SWAP1 JUMP JUMPDEST PUSH1 0x0 PUSH1 0x44 RETURNDATASIZE LT PUSH3 0xADE JUMPI PUSH1 0x40 MLOAD PUSH1 0x3 NOT SWAP2 RETURNDATASIZE DUP4 ADD PUSH1 0x4 DUP4 RETURNDATACOPY DUP2 MLOAD PUSH1 0x1 PUSH1 0x1 PUSH1 0x40 SHL SUB SWAP2 DUP3 DUP3 GT RETURNDATASIZE PUSH1 0x24 DUP5 ADD GT OR PUSH3 0x2780 JUMPI DUP2 DUP5 ADD SWAP5 DUP6 MLOAD SWAP4 DUP5 GT PUSH3 0x2788 JUMPI RETURNDATASIZE DUP6 ADD ADD PUSH1 0x20 DUP5 DUP8 ADD ADD GT PUSH3 0x2780 JUMPI POP PUSH3 0xADE SWAP3 SWAP2 ADD PUSH1 0x20 ADD SWAP1 PUSH3 0x633 JUMP JUMPDEST SWAP5 SWAP4 POP POP POP POP JUMP JUMPDEST POP SWAP5 SWAP4 POP POP POP POP JUMP JUMPDEST SWAP1 PUSH1 0x20 PUSH3 0xADE SWAP3 DUP2 DUP2 MSTORE ADD SWAP1 PUSH3 0x240F JUMP JUMPDEST SWAP2 SWAP1 PUSH1 0x20 PUSH3 0x27BE PUSH1 0x0 SWAP3 PUSH1 0x40 DUP7 MSTORE PUSH1 0x40 DUP7 ADD SWAP1 PUSH3 0x240F JUMP JUMPDEST SWAP4 ADD MSTORE JUMP JUMPDEST PUSH1 0x2D DUP2 MSTORE PUSH32 0x506F6F6C20696E697469616C697A6174696F6E206661696C6564207769746820 PUSH1 0x20 DUP3 ADD MSTORE PUSH13 0x3AB735B737BBB71032B93937B9 PUSH1 0x99 SHL PUSH1 0x40 DUP3 ADD MSTORE PUSH1 0x60 ADD SWAP1 JUMP JUMPDEST SWAP1 PUSH1 0x40 DUP3 MSTORE PUSH1 0x0 PUSH1 0x20 PUSH3 0x27BE PUSH1 0x40 DUP6 ADD PUSH3 0x27C3 JUMP JUMPDEST PUSH1 0x20 PUSH3 0xADE SWAP2 DUP2 DUP2 MSTORE ADD PUSH3 0x27C3 JUMP JUMPDEST SWAP1 PUSH2 0x12C DUP3 ADD DUP1 SWAP3 GT PUSH3 0xD11 JUMPI JUMP JUMPDEST SWAP2 SWAP1 DUP3 ADD DUP1 SWAP3 GT PUSH3 0xD11 JUMPI JUMP JUMPDEST SWAP2 SWAP1 DUP3 PUSH1 0x80 SWAP2 SUB SLT PUSH3 0x196 JUMPI DUP2 MLOAD SWAP2 PUSH1 0x20 DUP2 ADD MLOAD PUSH16 0xFFFFFFFFFFFFFFFFFFFFFFFFFFFFFFFF DUP2 AND DUP2 SUB PUSH3 0x196 JUMPI SWAP2 PUSH1 0x60 PUSH1 0x40 DUP4 ADD MLOAD SWAP3 ADD MLOAD SWAP1 JUMP JUMPDEST PUSH1 0x2A DUP2 MSTORE PUSH32 0x506F736974696F6E206D696E74696E67206661696C6564207769746820756E6B PUSH1 0x20 DUP3 ADD MSTORE PUSH10 0x3737BBB71032B93937B9 PUSH1 0xB1 SHL PUSH1 0x40 DUP3 ADD MSTORE PUSH1 0x60 ADD SWAP1 JUMP JUMPDEST SWAP1 PUSH1 0x40 DUP3 MSTORE PUSH1 0x0 PUSH1 0x20 PUSH3 0x27BE PUSH1 0x40 DUP6 ADD PUSH3 0x288C JUMP JUMPDEST PUSH1 0x20 PUSH3 0xADE SWAP2 DUP2 DUP2 MSTORE ADD PUSH3 0x288C JUMP JUMPDEST PUSH1 0x2 SIGNEXTEND DUP1 ISZERO PUSH3 0x26C8 JUMPI PUSH3 0xD89E8 SDIV SWAP1 JUMP JUMPDEST PUSH1 0x1 PUSH1 0xFF SHL DUP2 EQ PUSH3 0xD11 JUMPI PUSH1 0x0 SUB SWAP1 JUMP JUMPDEST ISZERO PUSH3 0x2923 JUMPI JUMP JUMPDEST PUSH1 0x40 MLOAD PUSH3 0x461BCD PUSH1 0xE5 SHL DUP2 MSTORE PUSH1 0x20 PUSH1 0x4 DUP3 ADD MSTORE PUSH1 0x1 PUSH1 0x24 DUP3 ADD MSTORE PUSH1 0x15 PUSH1 0xFA SHL PUSH1 0x44 DUP3 ADD MSTORE PUSH1 0x64 SWAP1 REVERT JUMPDEST SWAP1 PUSH16 0xFFF97272373D413259A46990580E213A SWAP2 DUP3 DUP2 MUL SWAP3 DUP2 DUP5 DIV EQ SWAP1 ISZERO OR ISZERO PUSH3 0xD11 JUMPI JUMP JUMPDEST SWAP1 PUSH16 0xFFF2E50F5F656932EF12357CF3C7FDCC SWAP2 DUP3 DUP2 MUL SWAP3 DUP2 DUP5 DIV EQ SWAP1 ISZERO OR ISZERO PUSH3 0xD11 JUMPI JUMP JUMPDEST SWAP1 PUSH16 0xFFE5CACA7E10E4E61C3624EAA0941CD0 SWAP2 DUP3 DUP2 MUL SWAP3 DUP2 DUP5 DIV EQ SWAP1 ISZERO OR ISZERO PUSH3 0xD11 JUMPI JUMP JUMPDEST SWAP1 PUSH16 0xFFCB9843D60F6159C9DB58835C926644 SWAP2 DUP3 DUP2 MUL SWAP3 DUP2 DUP5 DIV EQ SWAP1 ISZERO OR ISZERO PUSH3 0xD11 JUMPI JUMP JUMPDEST SWAP1 PUSH16 0xFF973B41FA98C081472E6896DFB254C0 SWAP2 DUP3 DUP2 MUL SWAP3 DUP2 DUP5 DIV EQ SWAP1 ISZERO OR ISZERO PUSH3 0xD11 JUMPI JUMP JUMPDEST SWAP1 PUSH16 0xFF2EA16466C96A3843EC78B326B52861 SWAP2 DUP3 DUP2 MUL SWAP3 DUP2 DUP5 DIV EQ SWAP1 ISZERO OR ISZERO PUSH3 0xD11 JUMPI JUMP JUMPDEST SWAP1 PUSH16 0xFE5DEE046A99A2A811C461F1969C3053 SWAP2 DUP3 DUP2 MUL SWAP3 DUP2 DUP5 DIV EQ SWAP1 ISZERO OR ISZERO PUSH3 0xD11 JUMPI JUMP JUMPDEST SWAP1 PUSH16 0xFCBE86C7900A88AEDCFFC83B479AA3A4 SWAP2 DUP3 DUP2 MUL SWAP3 DUP2 DUP5 DIV EQ SWAP1 ISZERO OR ISZERO PUSH3 0xD11 JUMPI JUMP JUMPDEST SWAP1 PUSH16 0xF987A7253AC413176F2B074CF7815E54 SWAP2 DUP3 DUP2 MUL SWAP3 DUP2 DUP5 DIV EQ SWAP1 ISZERO OR ISZERO PUSH3 0xD11 JUMPI JUMP JUMPDEST SWAP1 PUSH16 0xF3392B0822B70005940C7A398E4B70F3 SWAP2 DUP3 DUP2 MUL SWAP3 DUP2 DUP5 DIV EQ SWAP1 ISZERO OR ISZERO PUSH3 0xD11 JUMPI JUMP JUMPDEST SWAP1 PUSH16 0xE7159475A2C29B7443B29C7FA6E889D9 SWAP2 DUP3 DUP2 MUL SWAP3 DUP2 DUP5 DIV EQ SWAP1 ISZERO OR ISZERO PUSH3 0xD11 JUMPI JUMP JUMPDEST SWAP1 PUSH16 0xD097F3BDFD2022B8845AD8F792AA5825 SWAP2 DUP3 DUP2 MUL SWAP3 DUP2 DUP5 DIV EQ SWAP1 ISZERO OR ISZERO PUSH3 0xD11 JUMPI JUMP JUMPDEST SWAP1 PUSH16 0xA9F746462D870FDF8A65DC1F90E061E5 SWAP2 DUP3 DUP2 MUL SWAP3 DUP2 DUP5 DIV EQ SWAP1 ISZERO OR ISZERO PUSH3 0xD11 JUMPI JUMP JUMPDEST SWAP1 PUSH16 0x70D869A156D2A1B890BB3DF62BAF32F7 SWAP2 DUP3 DUP2 MUL SWAP3 DUP2 DUP5 DIV EQ SWAP1 ISZERO OR ISZERO PUSH3 0xD11 JUMPI JUMP JUMPDEST SWAP1 PUSH16 0x31BE135F97D08FD981231505542FCFA6 SWAP2 DUP3 DUP2 MUL SWAP3 DUP2 DUP5 DIV EQ SWAP1 ISZERO OR ISZERO PUSH3 0xD11 JUMPI JUMP JUMPDEST SWAP1 PUSH16 0x9AA508B5B7A84E1C677DE54F3E99BC9 SWAP2 DUP3 DUP2 MUL SWAP3 DUP2 DUP5 DIV EQ SWAP1 ISZERO OR ISZERO PUSH3 0xD11 JUMPI JUMP JUMPDEST SWAP1 PUSH15 0x5D6AF8DEDB81196699C329225EE604 SWAP2 DUP3 DUP2 MUL SWAP3 DUP2 DUP5 DIV EQ SWAP1 ISZERO OR ISZERO PUSH3 0xD11 JUMPI JUMP JUMPDEST SWAP1 PUSH14 0x2216E584F5FA1EA926041BEDFE98 SWAP2 DUP3 DUP2 MUL SWAP3 DUP2 DUP5 DIV EQ SWAP1 ISZERO OR ISZERO PUSH3 0xD11 JUMPI JUMP JUMPDEST SWAP1 PUSH12 0x48A170391F7DC42444E8FA2 SWAP2 DUP3 DUP2 MUL SWAP3 DUP2 DUP5 DIV EQ SWAP1 ISZERO OR ISZERO PUSH3 0xD11 JUMPI JUMP JUMPDEST DUP1 ISZERO PUSH3 0x26C8 JUMPI PUSH1 0x0 NOT DIV SWAP1 JUMP JUMPDEST DUP1 PUSH1 0x2 SIGNEXTEND SWAP1 PUSH1 0x0 DUP3 SLT PUSH1 0x0 EQ PUSH3 0x2F56 JUMPI PUSH3 0x2C41 DUP3 PUSH3 0x2909 JUMP JUMPDEST SWAP2 JUMPDEST PUSH3 0x2C54 PUSH3 0xD89E8 DUP5 GT ISZERO PUSH3 0x291B JUMP JUMPDEST PUSH1 0x1 DUP4 AND ISZERO PUSH3 0x2F43 JUMPI PUSH1 0x1 PUSH1 0x1 PUSH1 0x88 SHL SUB PUSH16 0xFFFCB933BD6FAD37AA2D162D1A594001 JUMPDEST AND SWAP3 PUSH1 0x2 DUP2 AND PUSH3 0x2F2C JUMPI JUMPDEST PUSH1 0x4 DUP2 AND PUSH3 0x2F15 JUMPI JUMPDEST PUSH1 0x8 DUP2 AND PUSH3 0x2EFE JUMPI JUMPDEST PUSH1 0x10 DUP2 AND PUSH3 0x2EE7 JUMPI JUMPDEST PUSH1 0x20 DUP2 AND PUSH3 0x2ED0 JUMPI JUMPDEST PUSH1 0x40 DUP2 AND PUSH3 0x2EB9 JUMPI JUMPDEST PUSH1 0x80 DUP2 AND PUSH3 0x2EA2 JUMPI JUMPDEST PUSH2 0x100 DUP2 AND PUSH3 0x2E8B JUMPI JUMPDEST PUSH2 0x200 DUP2 AND PUSH3 0x2E74 JUMPI JUMPDEST PUSH2 0x400 DUP2 AND PUSH3 0x2E5D JUMPI JUMPDEST PUSH2 0x800 DUP2 AND PUSH3 0x2E46 JUMPI JUMPDEST PUSH2 0x1000 DUP2 AND PUSH3 0x2E2F JUMPI JUMPDEST PUSH2 0x2000 DUP2 AND PUSH3 0x2E18 JUMPI JUMPDEST PUSH2 0x4000 DUP2 AND PUSH3 0x2E01 JUMPI JUMPDEST PUSH2 0x8000 DUP2 AND PUSH3 0x2DEA JUMPI JUMPDEST PUSH3 0x10000 DUP2 AND PUSH3 0x2DD3 JUMPI JUMPDEST PUSH3 0x20000 DUP2 AND PUSH3 0x2DBC JUMPI JUMPDEST PUSH3 0x40000 DUP2 AND PUSH3 0x2D9F JUMPI JUMPDEST PUSH3 0x80000 AND PUSH3 0x2D7E JUMPI JUMPDEST PUSH1 0x0 SLT PUSH3 0x2D64 JUMPI JUMPDEST PUSH4 0xFFFFFFFF SWAP1 ISZERO ISZERO PUSH1 0xE0 SHL SWAP2 ADD PUSH1 0x20 SHR OR SWAP1 JUMP JUMPDEST SWAP1 PUSH3 0x2D75 PUSH4 0xFFFFFFFF SWAP2 PUSH3 0x2C17 JUMP JUMPDEST SWAP2 SWAP1 POP PUSH3 0x2D50 JUMP JUMPDEST SWAP2 PUSH3 0x2D96 PUSH3 0x2D90 PUSH1 0x0 SWAP3 PUSH3 0x2BF5 JUMP JUMPDEST PUSH1 0x80 SHR SWAP1 JUMP JUMPDEST SWAP3 SWAP1 POP PUSH3 0x2D47 JUMP JUMPDEST SWAP3 PUSH3 0x2DB3 PUSH3 0x2D90 PUSH3 0x80000 SWAP3 PUSH3 0x2BD1 JUMP JUMPDEST SWAP4 SWAP1 POP PUSH3 0x2D3C JUMP JUMPDEST SWAP3 PUSH3 0x2D90 PUSH3 0x2DCC SWAP2 PUSH3 0x2BAC JUMP JUMPDEST SWAP3 PUSH3 0x2D30 JUMP JUMPDEST SWAP3 PUSH3 0x2D90 PUSH3 0x2DE3 SWAP2 PUSH3 0x2B86 JUMP JUMPDEST SWAP3 PUSH3 0x2D24 JUMP JUMPDEST SWAP3 PUSH3 0x2D90 PUSH3 0x2DFA SWAP2 PUSH3 0x2B60 JUMP JUMPDEST SWAP3 PUSH3 0x2D18 JUMP JUMPDEST SWAP3 PUSH3 0x2D90 PUSH3 0x2E11 SWAP2 PUSH3 0x2B3A JUMP JUMPDEST SWAP3 PUSH3 0x2D0D JUMP JUMPDEST SWAP3 PUSH3 0x2D90 PUSH3 0x2E28 SWAP2 PUSH3 0x2B14 JUMP JUMPDEST SWAP3 PUSH3 0x2D02 JUMP JUMPDEST SWAP3 PUSH3 0x2D90 PUSH3 0x2E3F SWAP2 PUSH3 0x2AEE JUMP JUMPDEST SWAP3 PUSH3 0x2CF7 JUMP JUMPDEST SWAP3 PUSH3 0x2D90 PUSH3 0x2E56 SWAP2 PUSH3 0x2AC8 JUMP JUMPDEST SWAP3 PUSH3 0x2CEC JUMP JUMPDEST SWAP3 PUSH3 0x2D90 PUSH3 0x2E6D SWAP2 PUSH3 0x2AA2 JUMP JUMPDEST SWAP3 PUSH3 0x2CE1 JUMP JUMPDEST SWAP3 PUSH3 0x2D90 PUSH3 0x2E84 SWAP2 PUSH3 0x2A7C JUMP JUMPDEST SWAP3 PUSH3 0x2CD6 JUMP JUMPDEST SWAP3 PUSH3 0x2D90 PUSH3 0x2E9B SWAP2 PUSH3 0x2A56 JUMP JUMPDEST SWAP3 PUSH3 0x2CCB JUMP JUMPDEST SWAP3 PUSH3 0x2D90 PUSH3 0x2EB2 SWAP2 PUSH3 0x2A30 JUMP JUMPDEST SWAP3 PUSH3 0x2CC0 JUMP JUMPDEST SWAP3 PUSH3 0x2D90 PUSH3 0x2EC9 SWAP2 PUSH3 0x2A0A JUMP JUMPDEST SWAP3 PUSH3 0x2CB6 JUMP JUMPDEST SWAP3 PUSH3 0x2D90 PUSH3 0x2EE0 SWAP2 PUSH3 0x29E4 JUMP JUMPDEST SWAP3 PUSH3 0x2CAC JUMP JUMPDEST SWAP3 PUSH3 0x2D90 PUSH3 0x2EF7 SWAP2 PUSH3 0x29BE JUMP JUMPDEST SWAP3 PUSH3 0x2CA2 JUMP JUMPDEST SWAP3 PUSH3 0x2D90 PUSH3 0x2F0E SWAP2 PUSH3 0x2998 JUMP JUMPDEST SWAP3 PUSH3 0x2C98 JUMP JUMPDEST SWAP3 PUSH3 0x2D90 PUSH3 0x2F25 SWAP2 PUSH3 0x2972 JUMP JUMPDEST SWAP3 PUSH3 0x2C8E JUMP JUMPDEST SWAP3 PUSH3 0x2D90 PUSH3 0x2F3C SWAP2 PUSH3 0x294C JUMP JUMPDEST SWAP3 PUSH3 0x2C84 JUMP JUMPDEST PUSH1 0x1 PUSH1 0x1 PUSH1 0x88 SHL SUB PUSH1 0x1 PUSH1 0x80 SHL PUSH3 0x2C78 JUMP JUMPDEST DUP2 PUSH3 0x2C43 JUMP INVALID PUSH1 0x40 PUSH1 0x80 DUP2 MSTORE CALLVALUE PUSH3 0x9F1 JUMPI PUSH3 0x178A DUP1 CODESIZE SUB DUP1 PUSH3 0x1E DUP2 PUSH3 0x9F6 JUMP JUMPDEST SWAP3 DUP4 CODECOPY DUP2 ADD PUSH1 0xA0 DUP3 DUP3 SUB SLT PUSH3 0x9F1 JUMPI DUP2 MLOAD PUSH1 0x1 PUSH1 0x1 PUSH1 0x40 SHL SUB DUP2 GT PUSH3 0x9F1 JUMPI DUP2 PUSH3 0x4D SWAP2 DUP5 ADD PUSH3 0xA41 JUMP JUMPDEST PUSH1 0x20 DUP4 ADD MLOAD SWAP1 SWAP2 SWAP1 PUSH1 0x1 PUSH1 0x1 PUSH1 0x40 SHL SUB DUP2 GT PUSH3 0x9F1 JUMPI DUP2 PUSH3 0x72 SWAP2 DUP6 ADD PUSH3 0xA41 JUMP JUMPDEST DUP4 DUP6 ADD MLOAD PUSH1 0x1 PUSH1 0x1 PUSH1 0x40 SHL SUB DUP2 GT PUSH3 0x9F1 JUMPI DUP3 PUSH3 0x93 SWAP2 DUP7 ADD PUSH3 0xA41 JUMP JUMPDEST PUSH1 0x60 DUP6 ADD MLOAD SWAP1 SWAP5 SWAP1 PUSH1 0x1 PUSH1 0x1 PUSH1 0x40 SHL SUB DUP2 GT PUSH3 0x9F1 JUMPI DUP4 PUSH3 0xB8 SWAP2 DUP4 ADD PUSH3 0xA41 JUMP JUMPDEST PUSH1 0x80 DUP3 ADD MLOAD SWAP1 SWAP4 SWAP1 PUSH1 0x1 PUSH1 0x1 PUSH1 0x40 SHL SUB DUP2 GT PUSH3 0x9F1 JUMPI PUSH3 0xDB SWAP3 ADD PUSH3 0xA41 JUMP JUMPDEST DUP4 MLOAD SWAP1 SWAP4 PUSH1 0x1 PUSH1 0x1 PUSH1 0x40 SHL SUB DUP3 GT PUSH3 0x5A1 JUMPI PUSH1 0x3 SLOAD SWAP1 PUSH1 0x1 DUP3 DUP2 SHR SWAP3 AND DUP1 ISZERO PUSH3 0x9E6 JUMPI JUMPDEST PUSH1 0x20 DUP4 LT EQ PUSH3 0x580 JUMPI DUP2 PUSH1 0x1F DUP5 SWAP4 GT PUSH3 0x971 JUMPI JUMPDEST POP PUSH1 0x20 SWAP1 PUSH1 0x1F DUP4 GT PUSH1 0x1 EQ PUSH3 0x8E6 JUMPI PUSH1 0x0 SWAP3 PUSH3 0x8DA JUMPI JUMPDEST POP POP DUP2 PUSH1 0x1 SHL SWAP2 PUSH1 0x0 NOT SWAP1 PUSH1 0x3 SHL SHR NOT AND OR PUSH1 0x3 SSTORE JUMPDEST DUP1 MLOAD SWAP1 PUSH1 0x1 PUSH1 0x1 PUSH1 0x40 SHL SUB DUP3 GT PUSH3 0x5A1 JUMPI PUSH1 0x4 SLOAD SWAP1 PUSH1 0x1 DUP3 DUP2 SHR SWAP3 AND DUP1 ISZERO PUSH3 0x8CF JUMPI JUMPDEST PUSH1 0x20 DUP4 LT EQ PUSH3 0x580 JUMPI DUP2 PUSH1 0x1F DUP5 SWAP4 GT PUSH3 0x85A JUMPI JUMPDEST POP PUSH1 0x20 SWAP1 PUSH1 0x1F DUP4 GT PUSH1 0x1 EQ PUSH3 0x7CF JUMPI PUSH1 0x0 SWAP3 PUSH3 0x7C3 JUMPI JUMPDEST POP POP DUP2 PUSH1 0x1 SHL SWAP2 PUSH1 0x0 NOT SWAP1 PUSH1 0x3 SHL SHR NOT AND OR PUSH1 0x4 SSTORE JUMPDEST CALLER ISZERO PUSH3 0x7AB JUMPI PUSH1 0x5 DUP1 SLOAD CALLER PUSH1 0x1 PUSH1 0x1 PUSH1 0xA0 SHL SUB NOT DUP3 AND DUP2 OR SWAP1 SWAP3 SSTORE PUSH1 0x1 PUSH1 0x1 PUSH1 0xA0 SHL SUB AND PUSH32 0x8BE0079C531659141344CD1FD0A4F28419497F9722A3DAAFE3B4186F6B6457E0 PUSH1 0x0 DUP1 LOG3 PUSH1 0x2 SLOAD PUSH12 0x33B2E3C9FD0803CE8000000 SWAP1 DUP2 DUP2 ADD DUP1 SWAP2 GT PUSH3 0x795 JUMPI PUSH32 0x3C5AD147104E56BE34A9176A6692F7DF8D2F4B29A5AF06BC6B98970D329D6577 SWAP2 PUSH1 0x80 SWAP2 PUSH1 0x2 SSTORE CALLER PUSH1 0x0 MSTORE PUSH1 0x0 PUSH1 0x20 MSTORE DUP7 PUSH1 0x0 KECCAK256 DUP2 DUP2 SLOAD ADD SWAP1 SSTORE DUP7 MLOAD DUP2 DUP2 MSTORE PUSH1 0x0 PUSH32 0xDDF252AD1BE2C89B69C2B068FC378DAA952BA7F163C4A11628F55A4DF523B3EF PUSH1 0x20 CALLER SWAP4 LOG3 DUP7 MLOAD SWAP1 DUP8 DUP3 MSTORE PUSH1 0x15 DUP9 DUP4 ADD MSTORE PUSH32 0x4D696E74656420696E697469616C20737570706C790000000000000000000000 PUSH1 0x60 DUP4 ADD MSTORE PUSH1 0x20 DUP3 ADD MSTORE LOG1 DUP4 MLOAD PUSH1 0x60 DUP2 ADD PUSH1 0x1 PUSH1 0x1 PUSH1 0x40 SHL SUB DUP2 GT DUP3 DUP3 LT OR PUSH3 0x5A1 JUMPI DUP6 MSTORE DUP4 DUP2 MSTORE PUSH1 0x20 DUP2 ADD DUP3 DUP2 MSTORE SWAP1 DUP6 ADD DUP4 DUP2 MSTORE DUP5 MLOAD SWAP1 SWAP2 SWAP1 PUSH1 0x1 PUSH1 0x1 PUSH1 0x40 SHL SUB DUP2 GT PUSH3 0x5A1 JUMPI PUSH1 0x6 SLOAD PUSH1 0x1 DUP2 DUP2 SHR SWAP2 AND DUP1 ISZERO PUSH3 0x78A JUMPI JUMPDEST PUSH1 0x20 DUP3 LT EQ PUSH3 0x580 JUMPI PUSH1 0x1F DUP2 GT PUSH3 0x731 JUMPI JUMPDEST POP DUP1 PUSH1 0x20 PUSH1 0x1F DUP3 GT PUSH1 0x1 EQ PUSH3 0x6B8 JUMPI PUSH1 0x0 SWAP2 PUSH3 0x6AC JUMPI JUMPDEST POP DUP2 PUSH1 0x1 SHL SWAP2 PUSH1 0x0 NOT SWAP1 PUSH1 0x3 SHL SHR NOT AND OR PUSH1 0x6 SSTORE JUMPDEST MLOAD DUP1 MLOAD SWAP1 PUSH1 0x1 PUSH1 0x1 PUSH1 0x40 SHL SUB DUP3 GT PUSH3 0x5A1 JUMPI PUSH1 0x7 SLOAD SWAP1 PUSH1 0x1 DUP3 DUP2 SHR SWAP3 AND DUP1 ISZERO PUSH3 0x6A1 JUMPI JUMPDEST PUSH1 0x20 DUP4 LT EQ PUSH3 0x580 JUMPI DUP2 PUSH1 0x1F DUP5 SWAP4 GT PUSH3 0x63D JUMPI JUMPDEST POP PUSH1 0x20 SWAP1 PUSH1 0x1F DUP4 GT PUSH1 0x1 EQ PUSH3 0x5C3 JUMPI PUSH1 0x0 SWAP3 PUSH3 0x5B7 JUMPI JUMPDEST POP POP DUP2 PUSH1 0x1 SHL SWAP2 PUSH1 0x0 NOT SWAP1 PUSH1 0x3 SHL SHR NOT AND OR PUSH1 0x7 SSTORE JUMPDEST MLOAD DUP1 MLOAD SWAP1 PUSH1 0x1 PUSH1 0x1 PUSH1 0x40 SHL SUB DUP3 GT PUSH3 0x5A1 JUMPI PUSH1 0x8 SLOAD PUSH1 0x1 DUP2 DUP2 SHR SWAP2 AND DUP1 ISZERO PUSH3 0x596 JUMPI JUMPDEST PUSH1 0x20 DUP3 LT EQ PUSH3 0x580 JUMPI PUSH1 0x1F DUP2 GT PUSH3 0x527 JUMPI JUMPDEST POP PUSH1 0x20 SWAP1 PUSH1 0x1F DUP4 GT PUSH1 0x1 EQ PUSH3 0x48D JUMPI PUSH1 0x0 DUP1 MLOAD PUSH1 0x20 PUSH3 0x170A DUP4 CODECOPY DUP2 MLOAD SWAP2 MSTORE SWAP6 SWAP4 DUP4 PUSH3 0x470 SWAP5 PUSH3 0x453 SWAP8 SWAP5 PUSH3 0x462 SWAP5 PUSH1 0x0 SWAP3 PUSH3 0x481 JUMPI JUMPDEST POP POP DUP2 PUSH1 0x1 SHL SWAP2 PUSH1 0x0 NOT SWAP1 PUSH1 0x3 SHL SHR NOT AND OR PUSH1 0x8 SSTORE JUMPDEST DUP8 MLOAD SWAP6 DUP7 SWAP6 PUSH1 0x60 DUP8 MSTORE PUSH1 0x60 DUP8 ADD SWAP1 PUSH3 0xA98 JUMP JUMPDEST SWAP1 DUP6 DUP3 SUB PUSH1 0x20 DUP8 ADD MSTORE PUSH3 0xA98 JUMP JUMPDEST SWAP1 DUP4 DUP3 SUB DUP8 DUP6 ADD MSTORE PUSH3 0xA98 JUMP JUMPDEST SUB SWAP1 LOG1 MLOAD PUSH2 0xC4A SWAP1 DUP2 PUSH3 0xAC0 DUP3 CODECOPY RETURN JUMPDEST ADD MLOAD SWAP1 POP CODESIZE DUP1 PUSH3 0x429 JUMP JUMPDEST PUSH1 0x8 PUSH1 0x0 SWAP1 DUP2 MSTORE PUSH1 0x0 DUP1 MLOAD PUSH1 0x20 PUSH3 0x174A DUP4 CODECOPY DUP2 MLOAD SWAP2 MSTORE SWAP3 SWAP2 SWAP1 PUSH1 0x1F NOT DUP6 AND SWAP1 JUMPDEST DUP2 DUP2 LT PUSH3 0x50E JUMPI POP DUP5 PUSH3 0x453 SWAP8 SWAP5 PUSH3 0x462 SWAP5 PUSH1 0x0 DUP1 MLOAD PUSH1 0x20 PUSH3 0x170A DUP4 CODECOPY DUP2 MLOAD SWAP2 MSTORE SWAP11 SWAP9 SWAP5 PUSH3 0x470 SWAP9 PUSH1 0x1 SWAP6 LT PUSH3 0x4F4 JUMPI JUMPDEST POP POP POP DUP2 SHL ADD PUSH1 0x8 SSTORE PUSH3 0x43F JUMP JUMPDEST ADD MLOAD PUSH1 0x0 NOT PUSH1 0xF8 DUP5 PUSH1 0x3 SHL AND SHR NOT AND SWAP1 SSTORE CODESIZE DUP1 DUP1 PUSH3 0x4E5 JUMP JUMPDEST SWAP3 SWAP4 PUSH1 0x20 PUSH1 0x1 DUP2 SWAP3 DUP8 DUP7 ADD MLOAD DUP2 SSTORE ADD SWAP6 ADD SWAP4 ADD PUSH3 0x4AE JUMP JUMPDEST PUSH1 0x8 PUSH1 0x0 MSTORE PUSH1 0x0 DUP1 MLOAD PUSH1 0x20 PUSH3 0x174A DUP4 CODECOPY DUP2 MLOAD SWAP2 MSTORE PUSH1 0x1F DUP5 ADD PUSH1 0x5 SHR DUP2 ADD SWAP2 PUSH1 0x20 DUP6 LT PUSH3 0x575 JUMPI JUMPDEST PUSH1 0x1F ADD PUSH1 0x5 SHR ADD SWAP1 JUMPDEST DUP2 DUP2 LT PUSH3 0x568 JUMPI POP PUSH3 0x3ED JUMP JUMPDEST PUSH1 0x0 DUP2 SSTORE PUSH1 0x1 ADD PUSH3 0x559 JUMP JUMPDEST SWAP1 SWAP2 POP DUP2 SWAP1 PUSH3 0x550 JUMP JUMPDEST PUSH4 0x4E487B71 PUSH1 0xE0 SHL PUSH1 0x0 MSTORE PUSH1 0x22 PUSH1 0x4 MSTORE PUSH1 0x24 PUSH1 0x0 REVERT JUMPDEST SWAP1 PUSH1 0x7F AND SWAP1 PUSH3 0x3D9 JUMP JUMPDEST PUSH4 0x4E487B71 PUSH1 0xE0 SHL PUSH1 0x0 MSTORE PUSH1 0x41 PUSH1 0x4 MSTORE PUSH1 0x24 PUSH1 0x0 REVERT JUMPDEST ADD MLOAD SWAP1 POP CODESIZE DUP1 PUSH3 0x39E JUMP JUMPDEST PUSH1 0x7 PUSH1 0x0 SWAP1 DUP2 MSTORE PUSH1 0x0 DUP1 MLOAD PUSH1 0x20 PUSH3 0x172A DUP4 CODECOPY DUP2 MLOAD SWAP2 MSTORE SWAP4 POP PUSH1 0x1F NOT DUP6 AND SWAP1 JUMPDEST DUP2 DUP2 LT PUSH3 0x624 JUMPI POP SWAP1 DUP5 PUSH1 0x1 SWAP6 SWAP5 SWAP4 SWAP3 LT PUSH3 0x60A JUMPI JUMPDEST POP POP POP DUP2 SHL ADD PUSH1 0x7 SSTORE PUSH3 0x3B4 JUMP JUMPDEST ADD MLOAD PUSH1 0x0 NOT PUSH1 0xF8 DUP5 PUSH1 0x3 SHL AND SHR NOT AND SWAP1 SSTORE CODESIZE DUP1 DUP1 PUSH3 0x5FB JUMP JUMPDEST SWAP3 SWAP4 PUSH1 0x20 PUSH1 0x1 DUP2 SWAP3 DUP8 DUP7 ADD MLOAD DUP2 SSTORE ADD SWAP6 ADD SWAP4 ADD PUSH3 0x5E3 JUMP JUMPDEST PUSH1 0x7 PUSH1 0x0 MSTORE SWAP1 SWAP2 POP PUSH1 0x0 DUP1 MLOAD PUSH1 0x20 PUSH3 0x172A DUP4 CODECOPY DUP2 MLOAD SWAP2 MSTORE PUSH1 0x1F DUP5 ADD PUSH1 0x5 SHR DUP2 ADD SWAP2 PUSH1 0x20 DUP6 LT PUSH3 0x696 JUMPI JUMPDEST SWAP1 PUSH1 0x1F DUP6 SWAP5 SWAP4 SWAP3 ADD PUSH1 0x5 SHR ADD SWAP1 JUMPDEST DUP2 DUP2 LT PUSH3 0x686 JUMPI POP PUSH3 0x385 JUMP JUMPDEST PUSH1 0x0 DUP2 SSTORE DUP5 SWAP4 POP PUSH1 0x1 ADD PUSH3 0x677 JUMP JUMPDEST SWAP1 SWAP2 POP DUP2 SWAP1 PUSH3 0x669 JUMP JUMPDEST SWAP2 PUSH1 0x7F AND SWAP2 PUSH3 0x36F JUMP JUMPDEST SWAP1 POP DUP7 ADD MLOAD CODESIZE PUSH3 0x334 JUMP JUMPDEST PUSH1 0x6 PUSH1 0x0 SWAP1 DUP2 MSTORE SWAP3 POP PUSH1 0x0 DUP1 MLOAD PUSH1 0x20 PUSH3 0x176A DUP4 CODECOPY DUP2 MLOAD SWAP2 MSTORE SWAP1 JUMPDEST PUSH1 0x1F NOT DUP4 AND DUP5 LT PUSH3 0x718 JUMPI PUSH1 0x1 SWAP4 POP DUP3 PUSH1 0x1F NOT DUP2 AND LT PUSH3 0x6FE JUMPI JUMPDEST POP POP DUP2 SHL ADD PUSH1 0x6 SSTORE PUSH3 0x349 JUMP JUMPDEST DUP9 ADD MLOAD PUSH1 0x0 NOT PUSH1 0xF8 DUP5 PUSH1 0x3 SHL AND SHR NOT AND SWAP1 SSTORE CODESIZE DUP1 PUSH3 0x6F0 JUMP JUMPDEST DUP9 DUP2 ADD MLOAD DUP3 SSTORE PUSH1 0x20 SWAP4 DUP5 ADD SWAP4 PUSH1 0x1 SWAP1 SWAP3 ADD SWAP2 ADD PUSH3 0x6D3 JUMP JUMPDEST PUSH1 0x6 PUSH1 0x0 MSTORE PUSH1 0x0 DUP1 MLOAD PUSH1 0x20 PUSH3 0x176A DUP4 CODECOPY DUP2 MLOAD SWAP2 MSTORE PUSH1 0x1F DUP4 ADD PUSH1 0x5 SHR DUP2 ADD SWAP2 PUSH1 0x20 DUP5 LT PUSH3 0x77F JUMPI JUMPDEST PUSH1 0x1F ADD PUSH1 0x5 SHR ADD SWAP1 JUMPDEST DUP2 DUP2 LT PUSH3 0x772 JUMPI POP PUSH3 0x31B JUMP JUMPDEST PUSH1 0x0 DUP2 SSTORE PUSH1 0x1 ADD PUSH3 0x763 JUMP JUMPDEST SWAP1 SWAP2 POP DUP2 SWAP1 PUSH3 0x75A JUMP JUMPDEST SWAP1 PUSH1 0x7F AND SWAP1 PUSH3 0x307 JUMP JUMPDEST PUSH4 0x4E487B71 PUSH1 0xE0 SHL PUSH1 0x0 MSTORE PUSH1 0x11 PUSH1 0x4 MSTORE PUSH1 0x24 PUSH1 0x0 REVERT JUMPDEST DUP4 MLOAD PUSH4 0x1E4FBDF7 PUSH1 0xE0 SHL DUP2 MSTORE PUSH1 0x0 PUSH1 0x4 DUP3 ADD MSTORE PUSH1 0x24 SWAP1 REVERT JUMPDEST ADD MLOAD SWAP1 POP CODESIZE DUP1 PUSH3 0x19A JUMP JUMPDEST PUSH1 0x4 PUSH1 0x0 SWAP1 DUP2 MSTORE PUSH32 0x8A35ACFBC15FF81A39AE7D344FD709F28E8600B4AA8C65C6B64BFE7FE36BD19B SWAP4 POP PUSH1 0x1F NOT DUP6 AND SWAP1 JUMPDEST DUP2 DUP2 LT PUSH3 0x841 JUMPI POP SWAP1 DUP5 PUSH1 0x1 SWAP6 SWAP5 SWAP4 SWAP3 LT PUSH3 0x827 JUMPI JUMPDEST POP POP POP DUP2 SHL ADD PUSH1 0x4 SSTORE PUSH3 0x1B0 JUMP JUMPDEST ADD MLOAD PUSH1 0x0 NOT PUSH1 0xF8 DUP5 PUSH1 0x3 SHL AND SHR NOT AND SWAP1 SSTORE CODESIZE DUP1 DUP1 PUSH3 0x818 JUMP JUMPDEST SWAP3 SWAP4 PUSH1 0x20 PUSH1 0x1 DUP2 SWAP3 DUP8 DUP7 ADD MLOAD DUP2 SSTORE ADD SWAP6 ADD SWAP4 ADD PUSH3 0x800 JUMP JUMPDEST PUSH1 0x4 PUSH1 0x0 MSTORE SWAP1 SWAP2 POP PUSH32 0x8A35ACFBC15FF81A39AE7D344FD709F28E8600B4AA8C65C6B64BFE7FE36BD19B PUSH1 0x1F DUP5 ADD PUSH1 0x5 SHR DUP2 ADD SWAP2 PUSH1 0x20 DUP6 LT PUSH3 0x8C4 JUMPI JUMPDEST SWAP1 PUSH1 0x1F DUP6 SWAP5 SWAP4 SWAP3 ADD PUSH1 0x5 SHR ADD SWAP1 JUMPDEST DUP2 DUP2 LT PUSH3 0x8B4 JUMPI POP PUSH3 0x181 JUMP JUMPDEST PUSH1 0x0 DUP2 SSTORE DUP5 SWAP4 POP PUSH1 0x1 ADD PUSH3 0x8A5 JUMP JUMPDEST SWAP1 SWAP2 POP DUP2 SWAP1 PUSH3 0x897 JUMP JUMPDEST SWAP2 PUSH1 0x7F AND SWAP2 PUSH3 0x16B JUMP JUMPDEST ADD MLOAD SWAP1 POP CODESIZE DUP1 PUSH3 0x130 JUMP JUMPDEST PUSH1 0x3 PUSH1 0x0 SWAP1 DUP2 MSTORE PUSH32 0xC2575A0E9E593C00F959F8C92F12DB2869C3395A3B0502D05E2516446F71F85B SWAP4 POP PUSH1 0x1F NOT DUP6 AND SWAP1 JUMPDEST DUP2 DUP2 LT PUSH3 0x958 JUMPI POP SWAP1 DUP5 PUSH1 0x1 SWAP6 SWAP5 SWAP4 SWAP3 LT PUSH3 0x93E JUMPI JUMPDEST POP POP POP DUP2 SHL ADD PUSH1 0x3 SSTORE PUSH3 0x146 JUMP JUMPDEST ADD MLOAD PUSH1 0x0 NOT PUSH1 0xF8 DUP5 PUSH1 0x3 SHL AND SHR NOT AND SWAP1 SSTORE CODESIZE DUP1 DUP1 PUSH3 0x92F JUMP JUMPDEST SWAP3 SWAP4 PUSH1 0x20 PUSH1 0x1 DUP2 SWAP3 DUP8 DUP7 ADD MLOAD DUP2 SSTORE ADD SWAP6 ADD SWAP4 ADD PUSH3 0x917 JUMP JUMPDEST PUSH1 0x3 PUSH1 0x0 MSTORE SWAP1 SWAP2 POP PUSH32 0xC2575A0E9E593C00F959F8C92F12DB2869C3395A3B0502D05E2516446F71F85B PUSH1 0x1F DUP5 ADD PUSH1 0x5 SHR DUP2 ADD SWAP2 PUSH1 0x20 DUP6 LT PUSH3 0x9DB JUMPI JUMPDEST SWAP1 PUSH1 0x1F DUP6 SWAP5 SWAP4 SWAP3 ADD PUSH1 0x5 SHR ADD SWAP1 JUMPDEST DUP2 DUP2 LT PUSH3 0x9CB JUMPI POP PUSH3 0x117 JUMP JUMPDEST PUSH1 0x0 DUP2 SSTORE DUP5 SWAP4 POP PUSH1 0x1 ADD PUSH3 0x9BC JUMP JUMPDEST SWAP1 SWAP2 POP DUP2 SWAP1 PUSH3 0x9AE JUMP JUMPDEST SWAP2 PUSH1 0x7F AND SWAP2 PUSH3 0x101 JUMP JUMPDEST PUSH1 0x0 DUP1 REVERT JUMPDEST PUSH1 0x40 MLOAD SWAP2 SWAP1 PUSH1 0x1F ADD PUSH1 0x1F NOT AND DUP3 ADD PUSH1 0x1 PUSH1 0x1 PUSH1 0x40 SHL SUB DUP2 GT DUP4 DUP3 LT OR PUSH3 0x5A1 JUMPI PUSH1 0x40 MSTORE JUMP JUMPDEST PUSH1 0x0 JUMPDEST DUP4 DUP2 LT PUSH3 0xA30 JUMPI POP POP PUSH1 0x0 SWAP2 ADD MSTORE JUMP JUMPDEST DUP2 DUP2 ADD MLOAD DUP4 DUP3 ADD MSTORE PUSH1 0x20 ADD PUSH3 0xA1F JUMP JUMPDEST DUP2 PUSH1 0x1F DUP3 ADD SLT ISZERO PUSH3 0x9F1 JUMPI DUP1 MLOAD PUSH1 0x1 PUSH1 0x1 PUSH1 0x40 SHL SUB DUP2 GT PUSH3 0x5A1 JUMPI PUSH3 0xA73 PUSH1 0x1F DUP3 ADD PUSH1 0x1F NOT AND PUSH1 0x20 ADD PUSH3 0x9F6 JUMP JUMPDEST SWAP3 DUP2 DUP5 MSTORE PUSH1 0x20 DUP3 DUP5 ADD ADD GT PUSH3 0x9F1 JUMPI PUSH3 0xA95 SWAP2 PUSH1 0x20 DUP1 DUP6 ADD SWAP2 ADD PUSH3 0xA1C JUMP JUMPDEST SWAP1 JUMP JUMPDEST SWAP1 PUSH1 0x20 SWAP2 PUSH3 0xAB3 DUP2 MLOAD DUP1 SWAP3 DUP2 DUP6 MSTORE DUP6 DUP1 DUP7 ADD SWAP2 ADD PUSH3 0xA1C JUMP JUMPDEST PUSH1 0x1F ADD PUSH1 0x1F NOT AND ADD ADD SWAP1 JUMP INVALID PUSH1 0x80 PUSH1 0x40 DUP2 DUP2 MSTORE PUSH1 0x4 DUP1 CALLDATASIZE LT ISZERO PUSH2 0x15 JUMPI PUSH1 0x0 DUP1 REVERT JUMPDEST PUSH1 0x0 SWAP3 DUP4 CALLDATALOAD PUSH1 0xE0 SHR SWAP1 DUP2 PUSH4 0x6FDDE03 EQ PUSH2 0x79A JUMPI POP DUP1 PUSH4 0x95EA7B3 EQ PUSH2 0x6F1 JUMPI DUP1 PUSH4 0x18160DDD EQ PUSH2 0x6D2 JUMPI DUP1 PUSH4 0x23B872DD EQ PUSH2 0x5DF JUMPI DUP1 PUSH4 0x313CE567 EQ PUSH2 0x5C3 JUMPI DUP1 PUSH4 0x70A08231 EQ PUSH2 0x58C JUMPI DUP1 PUSH4 0x715018A6 EQ PUSH2 0x52C JUMPI DUP1 PUSH4 0x8DA5CB5B EQ PUSH2 0x503 JUMPI DUP1 PUSH4 0x93427CD5 EQ PUSH2 0x428 JUMPI DUP1 PUSH4 0x95D89B41 EQ PUSH2 0x303 JUMPI DUP1 PUSH4 0xA8FB7D40 EQ PUSH2 0x1CD JUMPI DUP1 PUSH4 0xA9059CBB EQ PUSH2 0x19C JUMPI DUP1 PUSH4 0xDD62ED3E EQ PUSH2 0x14F JUMPI PUSH4 0xF2FDE38B EQ PUSH2 0xBD JUMPI PUSH1 0x0 DUP1 REVERT JUMPDEST CALLVALUE PUSH2 0x14B JUMPI PUSH1 0x20 CALLDATASIZE PUSH1 0x3 NOT ADD SLT PUSH2 0x14B JUMPI PUSH2 0xD6 PUSH2 0x8D8 JUMP JUMPDEST SWAP1 PUSH2 0xDF PUSH2 0xB0A JUMP JUMPDEST PUSH1 0x1 PUSH1 0x1 PUSH1 0xA0 SHL SUB SWAP2 DUP3 AND SWAP3 DUP4 ISZERO PUSH2 0x135 JUMPI POP POP PUSH1 0x5 SLOAD DUP3 PUSH12 0xFFFFFFFFFFFFFFFFFFFFFFFF PUSH1 0xA0 SHL DUP3 AND OR PUSH1 0x5 SSTORE AND PUSH32 0x8BE0079C531659141344CD1FD0A4F28419497F9722A3DAAFE3B4186F6B6457E0 DUP4 DUP1 LOG3 DUP1 RETURN JUMPDEST MLOAD PUSH4 0x1E4FBDF7 PUSH1 0xE0 SHL DUP2 MSTORE SWAP1 DUP2 ADD DUP5 SWAP1 MSTORE PUSH1 0x24 SWAP1 REVERT JUMPDEST DUP3 DUP1 REVERT JUMPDEST POP POP CALLVALUE PUSH2 0x198 JUMPI DUP1 PUSH1 0x3 NOT CALLDATASIZE ADD SLT PUSH2 0x198 JUMPI DUP1 PUSH1 0x20 SWAP3 PUSH2 0x16D PUSH2 0x8D8 JUMP JUMPDEST PUSH2 0x175 PUSH2 0x8F3 JUMP JUMPDEST PUSH1 0x1 PUSH1 0x1 PUSH1 0xA0 SHL SUB SWAP2 DUP3 AND DUP4 MSTORE PUSH1 0x1 DUP7 MSTORE DUP4 DUP4 KECCAK256 SWAP2 AND DUP3 MSTORE DUP5 MSTORE KECCAK256 SLOAD SWAP1 MLOAD SWAP1 DUP2 MSTORE RETURN JUMPDEST POP DUP1 REVERT JUMPDEST POP POP CALLVALUE PUSH2 0x198 JUMPI DUP1 PUSH1 0x3 NOT CALLDATASIZE ADD SLT PUSH2 0x198 JUMPI PUSH1 0x20 SWAP1 PUSH2 0x1C6 PUSH2 0x1BC PUSH2 0x8D8 JUMP JUMPDEST PUSH1 0x24 CALLDATALOAD SWAP1 CALLER PUSH2 0xB36 JUMP JUMPDEST MLOAD PUSH1 0x1 DUP2 MSTORE RETURN JUMPDEST POP DUP3 SWAP1 CALLVALUE PUSH2 0x198 JUMPI DUP2 PUSH1 0x3 NOT CALLDATASIZE ADD SLT PUSH2 0x198 JUMPI DUP3 MLOAD SWAP2 DUP1 PUSH1 0x6 SLOAD PUSH1 0x1 DUP2 DUP2 SHR SWAP1 DUP1 DUP4 AND SWAP3 DUP4 ISZERO PUSH2 0x2F9 JUMPI JUMPDEST PUSH1 0x20 SWAP4 DUP5 DUP5 LT DUP2 EQ PUSH2 0x2E6 JUMPI DUP4 DUP10 MSTORE SWAP1 DUP2 ISZERO PUSH2 0x2CA JUMPI POP PUSH1 0x1 EQ PUSH2 0x274 JUMPI JUMPDEST POP POP POP DUP4 SWAP1 SUB PUSH1 0x1F ADD PUSH1 0x1F NOT AND DUP4 ADD SWAP2 PUSH8 0xFFFFFFFFFFFFFFFF DUP4 GT DUP5 DUP5 LT OR PUSH2 0x261 JUMPI POP POP DUP3 MSTORE PUSH2 0x25D PUSH2 0x249 PUSH2 0x943 JUMP JUMPDEST SWAP3 PUSH2 0x252 PUSH2 0xA4A JUMP JUMPDEST SWAP1 MLOAD SWAP4 DUP5 SWAP4 DUP5 PUSH2 0x909 JUMP JUMPDEST SUB SWAP1 RETURN JUMPDEST PUSH4 0x4E487B71 PUSH1 0xE0 SHL DUP3 MSTORE PUSH1 0x41 SWAP1 MSTORE PUSH1 0x24 SWAP1 REVERT JUMPDEST PUSH1 0x6 DUP6 MSTORE SWAP2 SWAP3 POP DUP4 SWAP2 DUP4 PUSH32 0xF652222313E28459528D920B65115C16C04F3EFC82AAEDC97BE59F3F377C0D3F JUMPDEST DUP4 DUP6 LT PUSH2 0x2B6 JUMPI POP POP POP POP DUP5 ADD ADD DUP6 DUP1 DUP1 PUSH2 0x217 JUMP JUMPDEST DUP1 SLOAD DUP10 DUP7 ADD DUP4 ADD MSTORE SWAP4 ADD SWAP3 DUP5 SWAP1 DUP3 ADD PUSH2 0x2A0 JUMP JUMPDEST PUSH1 0xFF NOT AND DUP9 DUP6 ADD MSTORE POP POP ISZERO ISZERO PUSH1 0x5 SHL DUP6 ADD ADD SWAP1 POP DUP6 DUP1 DUP1 PUSH2 0x217 JUMP JUMPDEST PUSH4 0x4E487B71 PUSH1 0xE0 SHL DUP8 MSTORE PUSH1 0x22 DUP9 MSTORE PUSH1 0x24 DUP8 REVERT JUMPDEST SWAP2 PUSH1 0x7F AND SWAP2 PUSH2 0x1F8 JUMP JUMPDEST POP SWAP2 SWAP1 CALLVALUE PUSH2 0x198 JUMPI DUP2 PUSH1 0x3 NOT CALLDATASIZE ADD SLT PUSH2 0x198 JUMPI DUP1 MLOAD SWAP1 DUP3 SWAP1 DUP5 SLOAD SWAP2 PUSH1 0x1 DUP4 DUP2 SHR SWAP1 DUP1 DUP6 AND SWAP5 DUP6 ISZERO PUSH2 0x41E JUMPI JUMPDEST PUSH1 0x20 SWAP6 DUP7 DUP5 LT DUP2 EQ PUSH2 0x40B JUMPI DUP4 DUP9 MSTORE SWAP1 DUP7 SWAP1 DUP3 ISZERO PUSH2 0x3EF JUMPI POP POP PUSH1 0x1 EQ PUSH2 0x39B JUMPI JUMPDEST POP POP DUP4 SWAP1 SUB PUSH1 0x1F ADD PUSH1 0x1F NOT AND DUP4 ADD SWAP4 PUSH8 0xFFFFFFFFFFFFFFFF DUP6 GT DUP5 DUP7 LT OR PUSH2 0x388 JUMPI POP SWAP2 PUSH2 0x25D SWAP2 DUP5 DUP1 SWAP5 MSTORE DUP1 DUP5 MSTORE DUP4 ADD SWAP1 PUSH2 0x898 JUMP JUMPDEST PUSH4 0x4E487B71 PUSH1 0xE0 SHL DUP2 MSTORE PUSH1 0x41 DUP7 MSTORE PUSH1 0x24 SWAP1 REVERT JUMPDEST DUP8 DUP8 MSTORE DUP5 SWAP3 POP DUP7 SWAP2 SWAP1 PUSH32 0x8A35ACFBC15FF81A39AE7D344FD709F28E8600B4AA8C65C6B64BFE7FE36BD19B JUMPDEST DUP3 DUP5 LT PUSH2 0x3DA JUMPI POP POP POP DUP5 ADD ADD CODESIZE DUP1 PUSH2 0x351 JUMP JUMPDEST DUP1 SLOAD DUP9 DUP6 ADD DUP7 ADD MSTORE DUP7 SWAP5 SWAP1 SWAP4 ADD SWAP3 DUP2 ADD PUSH2 0x3C6 JUMP JUMPDEST SWAP3 POP SWAP4 POP POP PUSH1 0xFF NOT AND DUP3 DUP7 ADD MSTORE ISZERO ISZERO PUSH1 0x5 SHL DUP5 ADD ADD CODESIZE DUP1 PUSH2 0x351 JUMP JUMPDEST PUSH4 0x4E487B71 PUSH1 0xE0 SHL DUP10 MSTORE PUSH1 0x22 DUP11 MSTORE PUSH1 0x24 DUP10 REVERT JUMPDEST SWAP2 PUSH1 0x7F AND SWAP2 PUSH2 0x32F JUMP JUMPDEST POP DUP3 SWAP1 CALLVALUE PUSH2 0x198 JUMPI DUP2 PUSH1 0x3 NOT CALLDATASIZE ADD SLT PUSH2 0x198 JUMPI DUP3 MLOAD SWAP2 DUP1 PUSH1 0x6 SLOAD PUSH1 0x1 DUP2 DUP2 SHR SWAP1 DUP1 DUP4 AND SWAP3 DUP4 ISZERO PUSH2 0x4F9 JUMPI JUMPDEST PUSH1 0x20 SWAP4 DUP5 DUP5 LT DUP2 EQ PUSH2 0x2E6 JUMPI DUP4 DUP10 MSTORE SWAP1 DUP2 ISZERO PUSH2 0x2CA JUMPI POP PUSH1 0x1 EQ PUSH2 0x4A3 JUMPI POP POP POP DUP4 SWAP1 SUB PUSH1 0x1F ADD PUSH1 0x1F NOT AND DUP4 ADD SWAP2 PUSH8 0xFFFFFFFFFFFFFFFF DUP4 GT DUP5 DUP5 LT OR PUSH2 0x261 JUMPI POP POP DUP3 MSTORE PUSH2 0x25D PUSH2 0x249 PUSH2 0x943 JUMP JUMPDEST PUSH1 0x6 DUP6 MSTORE SWAP2 SWAP3 POP DUP4 SWAP2 DUP4 PUSH32 0xF652222313E28459528D920B65115C16C04F3EFC82AAEDC97BE59F3F377C0D3F JUMPDEST DUP4 DUP6 LT PUSH2 0x4E5 JUMPI POP POP POP POP DUP5 ADD ADD DUP6 DUP1 DUP1 PUSH2 0x217 JUMP JUMPDEST DUP1 SLOAD DUP10 DUP7 ADD DUP4 ADD MSTORE SWAP4 ADD SWAP3 DUP5 SWAP1 DUP3 ADD PUSH2 0x4CF JUMP JUMPDEST SWAP2 PUSH1 0x7F AND SWAP2 PUSH2 0x453 JUMP JUMPDEST POP POP CALLVALUE PUSH2 0x198 JUMPI DUP2 PUSH1 0x3 NOT CALLDATASIZE ADD SLT PUSH2 0x198 JUMPI PUSH1 0x5 SLOAD SWAP1 MLOAD PUSH1 0x1 PUSH1 0x1 PUSH1 0xA0 SHL SUB SWAP1 SWAP2 AND DUP2 MSTORE PUSH1 0x20 SWAP1 RETURN JUMPDEST DUP4 CALLVALUE PUSH2 0x589 JUMPI DUP1 PUSH1 0x3 NOT CALLDATASIZE ADD SLT PUSH2 0x589 JUMPI PUSH2 0x545 PUSH2 0xB0A JUMP JUMPDEST PUSH1 0x5 DUP1 SLOAD PUSH1 0x1 PUSH1 0x1 PUSH1 0xA0 SHL SUB NOT DUP2 AND SWAP1 SWAP2 SSTORE DUP2 SWAP1 PUSH1 0x1 PUSH1 0x1 PUSH1 0xA0 SHL SUB AND PUSH32 0x8BE0079C531659141344CD1FD0A4F28419497F9722A3DAAFE3B4186F6B6457E0 DUP3 DUP1 LOG3 DUP1 RETURN JUMPDEST DUP1 REVERT JUMPDEST POP POP CALLVALUE PUSH2 0x198 JUMPI PUSH1 0x20 CALLDATASIZE PUSH1 0x3 NOT ADD SLT PUSH2 0x198 JUMPI PUSH1 0x20 SWAP2 DUP2 SWAP1 PUSH1 0x1 PUSH1 0x1 PUSH1 0xA0 SHL SUB PUSH2 0x5B4 PUSH2 0x8D8 JUMP JUMPDEST AND DUP2 MSTORE DUP1 DUP5 MSTORE KECCAK256 SLOAD SWAP1 MLOAD SWAP1 DUP2 MSTORE RETURN JUMPDEST POP POP CALLVALUE PUSH2 0x198 JUMPI DUP2 PUSH1 0x3 NOT CALLDATASIZE ADD SLT PUSH2 0x198 JUMPI PUSH1 0x20 SWAP1 MLOAD PUSH1 0x12 DUP2 MSTORE RETURN JUMPDEST POP DUP3 CALLVALUE PUSH2 0x589 JUMPI PUSH1 0x60 CALLDATASIZE PUSH1 0x3 NOT ADD SLT PUSH2 0x589 JUMPI PUSH2 0x5FA PUSH2 0x8D8 JUMP JUMPDEST PUSH2 0x602 PUSH2 0x8F3 JUMP JUMPDEST SWAP2 PUSH1 0x44 CALLDATALOAD SWAP4 PUSH1 0x1 DUP1 PUSH1 0xA0 SHL SUB DUP4 AND DUP1 DUP4 MSTORE PUSH1 0x1 PUSH1 0x20 MSTORE DUP7 DUP4 KECCAK256 CALLER DUP5 MSTORE PUSH1 0x20 MSTORE DUP7 DUP4 KECCAK256 SLOAD SWAP2 PUSH1 0x0 NOT DUP4 LT PUSH2 0x63E JUMPI JUMPDEST PUSH1 0x20 DUP9 PUSH2 0x1C6 DUP10 DUP10 DUP10 PUSH2 0xB36 JUMP JUMPDEST DUP7 DUP4 LT PUSH2 0x6A6 JUMPI DUP2 ISZERO PUSH2 0x68F JUMPI CALLER ISZERO PUSH2 0x678 JUMPI POP DUP3 MSTORE PUSH1 0x1 PUSH1 0x20 SWAP1 DUP2 MSTORE DUP7 DUP4 KECCAK256 CALLER DUP5 MSTORE DUP2 MSTORE SWAP2 DUP7 SWAP1 KECCAK256 SWAP1 DUP6 SWAP1 SUB SWAP1 SSTORE DUP3 SWAP1 PUSH2 0x1C6 DUP8 PUSH2 0x630 JUMP JUMPDEST DUP8 MLOAD PUSH4 0x4A1406B1 PUSH1 0xE1 SHL DUP2 MSTORE SWAP1 DUP2 ADD DUP5 SWAP1 MSTORE PUSH1 0x24 SWAP1 REVERT JUMPDEST DUP8 MLOAD PUSH4 0xE602DF05 PUSH1 0xE0 SHL DUP2 MSTORE SWAP1 DUP2 ADD DUP5 SWAP1 MSTORE PUSH1 0x24 SWAP1 REVERT JUMPDEST DUP8 MLOAD PUSH4 0x7DC7A0D9 PUSH1 0xE1 SHL DUP2 MSTORE CALLER SWAP2 DUP2 ADD SWAP2 DUP3 MSTORE PUSH1 0x20 DUP3 ADD SWAP4 SWAP1 SWAP4 MSTORE PUSH1 0x40 DUP2 ADD DUP8 SWAP1 MSTORE DUP3 SWAP2 POP PUSH1 0x60 ADD SUB SWAP1 REVERT JUMPDEST POP POP CALLVALUE PUSH2 0x198 JUMPI DUP2 PUSH1 0x3 NOT CALLDATASIZE ADD SLT PUSH2 0x198 JUMPI PUSH1 0x20 SWAP1 PUSH1 0x2 SLOAD SWAP1 MLOAD SWAP1 DUP2 MSTORE RETURN JUMPDEST POP CALLVALUE PUSH2 0x14B JUMPI DUP2 PUSH1 0x3 NOT CALLDATASIZE ADD SLT PUSH2 0x14B JUMPI PUSH2 0x70A PUSH2 0x8D8 JUMP JUMPDEST PUSH1 0x24 CALLDATALOAD SWAP1 CALLER ISZERO PUSH2 0x783 JUMPI PUSH1 0x1 PUSH1 0x1 PUSH1 0xA0 SHL SUB AND SWAP2 DUP3 ISZERO PUSH2 0x76C JUMPI POP DUP1 DUP4 PUSH1 0x20 SWAP6 CALLER DUP2 MSTORE PUSH1 0x1 DUP8 MSTORE DUP2 DUP2 KECCAK256 DUP6 DUP3 MSTORE DUP8 MSTORE KECCAK256 SSTORE DUP3 MLOAD SWAP1 DUP2 MSTORE PUSH32 0x8C5BE1E5EBEC7D5BD14F71427D1E84F3DD0314C0F7B2291E5B200AC8C7C3B925 DUP5 CALLER SWAP3 LOG3 MLOAD PUSH1 0x1 DUP2 MSTORE RETURN JUMPDEST DUP4 MLOAD PUSH4 0x4A1406B1 PUSH1 0xE1 SHL DUP2 MSTORE SWAP1 DUP2 ADD DUP6 SWAP1 MSTORE PUSH1 0x24 SWAP1 REVERT JUMPDEST DUP4 MLOAD PUSH4 0xE602DF05 PUSH1 0xE0 SHL DUP2 MSTORE DUP1 DUP5 ADD DUP7 SWAP1 MSTORE PUSH1 0x24 SWAP1 REVERT JUMPDEST DUP5 SWAP2 POP DUP4 CALLVALUE PUSH2 0x14B JUMPI DUP3 PUSH1 0x3 NOT CALLDATASIZE ADD SLT PUSH2 0x14B JUMPI DUP3 SWAP1 PUSH1 0x3 SLOAD SWAP2 PUSH1 0x1 DUP4 DUP2 SHR SWAP1 DUP1 DUP6 AND SWAP5 DUP6 ISZERO PUSH2 0x88E JUMPI JUMPDEST PUSH1 0x20 SWAP6 DUP7 DUP5 LT DUP2 EQ PUSH2 0x40B JUMPI DUP4 DUP9 MSTORE SWAP1 DUP7 SWAP1 DUP3 ISZERO PUSH2 0x872 JUMPI POP POP PUSH1 0x1 EQ PUSH2 0x81D JUMPI POP POP DUP4 SWAP1 SUB PUSH1 0x1F ADD PUSH1 0x1F NOT AND DUP4 ADD SWAP4 PUSH8 0xFFFFFFFFFFFFFFFF DUP6 GT DUP5 DUP7 LT OR PUSH2 0x388 JUMPI POP SWAP2 PUSH2 0x25D SWAP2 DUP5 DUP1 SWAP5 MSTORE DUP1 DUP5 MSTORE DUP4 ADD SWAP1 PUSH2 0x898 JUMP JUMPDEST PUSH1 0x3 DUP8 MSTORE DUP5 SWAP3 POP DUP7 SWAP2 SWAP1 PUSH32 0xC2575A0E9E593C00F959F8C92F12DB2869C3395A3B0502D05E2516446F71F85B JUMPDEST DUP3 DUP5 LT PUSH2 0x85D JUMPI POP POP POP DUP5 ADD ADD DUP7 DUP1 PUSH2 0x351 JUMP JUMPDEST DUP1 SLOAD DUP9 DUP6 ADD DUP7 ADD MSTORE DUP7 SWAP5 SWAP1 SWAP4 ADD SWAP3 DUP2 ADD PUSH2 0x849 JUMP JUMPDEST SWAP3 POP SWAP4 POP POP PUSH1 0xFF NOT AND DUP3 DUP7 ADD MSTORE ISZERO ISZERO PUSH1 0x5 SHL DUP5 ADD ADD DUP7 DUP1 PUSH2 0x351 JUMP JUMPDEST SWAP2 PUSH1 0x7F AND SWAP2 PUSH2 0x7C5 JUMP JUMPDEST SWAP2 SWAP1 DUP3 MLOAD SWAP3 DUP4 DUP3 MSTORE PUSH1 0x0 JUMPDEST DUP5 DUP2 LT PUSH2 0x8C4 JUMPI POP POP DUP3 PUSH1 0x0 PUSH1 0x20 DUP1 SWAP5 SWAP6 DUP5 ADD ADD MSTORE PUSH1 0x1F DUP1 NOT SWAP2 ADD AND ADD ADD SWAP1 JUMP JUMPDEST PUSH1 0x20 DUP2 DUP4 ADD DUP2 ADD MLOAD DUP5 DUP4 ADD DUP3 ADD MSTORE ADD PUSH2 0x8A3 JUMP JUMPDEST PUSH1 0x4 CALLDATALOAD SWAP1 PUSH1 0x1 PUSH1 0x1 PUSH1 0xA0 SHL SUB DUP3 AND DUP3 SUB PUSH2 0x8EE JUMPI JUMP JUMPDEST PUSH1 0x0 DUP1 REVERT JUMPDEST PUSH1 0x24 CALLDATALOAD SWAP1 PUSH1 0x1 PUSH1 0x1 PUSH1 0xA0 SHL SUB DUP3 AND DUP3 SUB PUSH2 0x8EE JUMPI JUMP JUMPDEST SWAP2 PUSH2 0x932 SWAP1 PUSH2 0x924 PUSH2 0x940 SWAP6 SWAP4 PUSH1 0x60 DUP7 MSTORE PUSH1 0x60 DUP7 ADD SWAP1 PUSH2 0x898 JUMP JUMPDEST SWAP1 DUP5 DUP3 SUB PUSH1 0x20 DUP7 ADD MSTORE PUSH2 0x898 JUMP JUMPDEST SWAP2 PUSH1 0x40 DUP2 DUP5 SUB SWAP2 ADD MSTORE PUSH2 0x898 JUMP JUMPDEST SWAP1 JUMP JUMPDEST PUSH1 0x40 MLOAD SWAP1 PUSH1 0x0 PUSH1 0x7 SLOAD PUSH1 0x1 DUP2 DUP2 SHR SWAP1 DUP1 DUP4 AND SWAP3 DUP4 ISZERO PUSH2 0xA40 JUMPI JUMPDEST PUSH1 0x20 SWAP4 DUP5 DUP5 LT DUP2 EQ PUSH2 0xA2C JUMPI DUP4 DUP9 MSTORE SWAP1 DUP2 ISZERO PUSH2 0xA10 JUMPI POP PUSH1 0x1 EQ PUSH2 0x9B9 JUMPI JUMPDEST POP POP POP DUP3 SWAP1 SUB PUSH1 0x1F ADD PUSH1 0x1F NOT AND DUP3 ADD PUSH8 0xFFFFFFFFFFFFFFFF DUP2 GT DUP4 DUP3 LT OR PUSH2 0x9A3 JUMPI PUSH1 0x40 MSTORE JUMP JUMPDEST PUSH4 0x4E487B71 PUSH1 0xE0 SHL PUSH1 0x0 MSTORE PUSH1 0x41 PUSH1 0x4 MSTORE PUSH1 0x24 PUSH1 0x0 REVERT JUMPDEST PUSH1 0x7 PUSH1 0x0 SWAP1 DUP2 MSTORE SWAP3 SWAP4 POP DUP4 PUSH32 0xA66CC928B5EDB82AF9BD49922954155AB7B0942694BEA4CE44661D9A8736C688 JUMPDEST DUP4 DUP6 LT PUSH2 0x9FC JUMPI POP POP POP POP DUP4 ADD ADD CODESIZE DUP1 DUP1 PUSH2 0x97C JUMP JUMPDEST DUP1 SLOAD DUP9 DUP7 ADD DUP4 ADD MSTORE SWAP4 ADD SWAP3 DUP5 SWAP1 DUP3 ADD PUSH2 0x9E6 JUMP JUMPDEST PUSH1 0xFF NOT AND DUP8 DUP6 ADD MSTORE POP POP ISZERO ISZERO PUSH1 0x5 SHL DUP5 ADD ADD SWAP1 POP CODESIZE DUP1 DUP1 PUSH2 0x97C JUMP JUMPDEST PUSH4 0x4E487B71 PUSH1 0xE0 SHL DUP7 MSTORE PUSH1 0x22 PUSH1 0x4 MSTORE PUSH1 0x24 DUP7 REVERT JUMPDEST SWAP2 PUSH1 0x7F AND SWAP2 PUSH2 0x95D JUMP JUMPDEST PUSH1 0x40 MLOAD SWAP1 PUSH1 0x0 PUSH1 0x8 SLOAD PUSH1 0x1 DUP2 DUP2 SHR SWAP1 DUP1 DUP4 AND SWAP3 DUP4 ISZERO PUSH2 0xB00 JUMPI JUMPDEST PUSH1 0x20 SWAP4 DUP5 DUP5 LT DUP2 EQ PUSH2 0xA2C JUMPI DUP4 DUP9 MSTORE SWAP1 DUP2 ISZERO PUSH2 0xA10 JUMPI POP PUSH1 0x1 EQ PUSH2 0xAA9 JUMPI POP POP POP DUP3 SWAP1 SUB PUSH1 0x1F ADD PUSH1 0x1F NOT AND DUP3 ADD PUSH8 0xFFFFFFFFFFFFFFFF DUP2 GT DUP4 DUP3 LT OR PUSH2 0x9A3 JUMPI PUSH1 0x40 MSTORE JUMP JUMPDEST PUSH1 0x8 PUSH1 0x0 SWAP1 DUP2 MSTORE SWAP3 SWAP4 POP DUP4 PUSH32 0xF3F7A9FE364FAAB93B216DA50A3214154F22A0A2B415B23A84C8169E8B636EE3 JUMPDEST DUP4 DUP6 LT PUSH2 0xAEC JUMPI POP POP POP POP DUP4 ADD ADD CODESIZE DUP1 DUP1 PUSH2 0x97C JUMP JUMPDEST DUP1 SLOAD DUP9 DUP7 ADD DUP4 ADD MSTORE SWAP4 ADD SWAP3 DUP5 SWAP1 DUP3 ADD PUSH2 0xAD6 JUMP JUMPDEST SWAP2 PUSH1 0x7F AND SWAP2 PUSH2 0xA64 JUMP JUMPDEST PUSH1 0x5 SLOAD PUSH1 0x1 PUSH1 0x1 PUSH1 0xA0 SHL SUB AND CALLER SUB PUSH2 0xB1E JUMPI JUMP JUMPDEST PUSH1 0x40 MLOAD PUSH4 0x118CDAA7 PUSH1 0xE0 SHL DUP2 MSTORE CALLER PUSH1 0x4 DUP3 ADD MSTORE PUSH1 0x24 SWAP1 REVERT JUMPDEST SWAP2 PUSH1 0x1 PUSH1 0x1 PUSH1 0xA0 SHL SUB DUP1 DUP5 AND SWAP3 DUP4 ISZERO PUSH2 0xBFB JUMPI AND SWAP3 DUP4 ISZERO PUSH2 0xBE2 JUMPI PUSH1 0x0 SWAP1 DUP4 DUP3 MSTORE DUP2 PUSH1 0x20 MSTORE PUSH1 0x40 DUP3 KECCAK256 SLOAD SWAP1 DUP4 DUP3 LT PUSH2 0xBB0 JUMPI POP SWAP2 PUSH1 0x40 DUP3 DUP3 PUSH32 0xDDF252AD1BE2C89B69C2B068FC378DAA952BA7F163C4A11628F55A4DF523B3EF SWAP6 DUP8 PUSH1 0x20 SWAP7 MSTORE DUP3 DUP7 MSTORE SUB DUP3 DUP3 KECCAK256 SSTORE DUP7 DUP2 MSTORE KECCAK256 DUP2 DUP2 SLOAD ADD SWAP1 SSTORE PUSH1 0x40 MLOAD SWAP1 DUP2 MSTORE LOG3 JUMP JUMPDEST PUSH1 0x40 MLOAD PUSH4 0x391434E3 PUSH1 0xE2 SHL DUP2 MSTORE PUSH1 0x1 PUSH1 0x1 PUSH1 0xA0 SHL SUB SWAP2 SWAP1 SWAP2 AND PUSH1 0x4 DUP3 ADD MSTORE PUSH1 0x24 DUP2 ADD SWAP2 SWAP1 SWAP2 MSTORE PUSH1 0x44 DUP2 ADD DUP4 SWAP1 MSTORE PUSH1 0x64 SWAP1 REVERT JUMPDEST PUSH1 0x40 MLOAD PUSH4 0xEC442F05 PUSH1 0xE0 SHL DUP2 MSTORE PUSH1 0x0 PUSH1 0x4 DUP3 ADD MSTORE PUSH1 0x24 SWAP1 REVERT JUMPDEST PUSH1 0x40 MLOAD PUSH4 0x4B637E8F PUSH1 0xE1 SHL DUP2 MSTORE PUSH1 0x0 PUSH1 0x4 DUP3 ADD MSTORE PUSH1 0x24 SWAP1 REVERT INVALID LOG2 PUSH5 0x6970667358 0x22 SLT KECCAK256 PUSH14 0xC4DB1D47E60CE5660487DE4335D8 PUSH23 0x90300E92A138585F981F9C3A297F9E3F64736F6C634300 ADDMOD EQ STOP CALLER COINBASE LT PUSH0 PUSH20 0x3C92E731673DB8D7877F039F0CCE3BC6436D38E5 0xC3 PUSH28 0xCE47F2A4B149A66CC928B5EDB82AF9BD49922954155AB7B0942694BE LOG4 0xCE PREVRANDAO PUSH7 0x1D9A8736C688F3 0xF7 0xA9 INVALID CALLDATASIZE 0x4F 0xAA 0xB9 EXTCODESIZE 0x21 PUSH14 0xA50A3214154F22A0A2B415B23A84 0xC8 AND SWAP15 DUP12 PUSH4 0x6EE3F652 0x22 0x23 SGT 0xE2 DUP5 MSIZE MSTORE DUP14 SWAP3 SIGNEXTEND PUSH6 0x115C16C04F3E 0xFC DUP3 0xAA 0xED 0xC9 PUSH28 0xE59F3F377C0D3F3C5AD147104E56BE34A9176A6692F7DF8D2F4B29A5 0xAF MOD 0xBC PUSH12 0x98970D329D6577A264697066 PUSH20 0x582212209ACA26BC504A567A00DBC860D383B39E PUSH8 0x22EBCE570CBFDF1E 0xD4 EXTCODESIZE PUSH15 0x25C88CB864736F6C63430008140033 "},"methodIdentifiers":{"FEE_TIER()":"4c69a6c9","allTokens(uint256)":"634282af","defaultLockingPeriod()":"d406d751","deployToken(string,string,address,string,string,string,bytes32)":"c1cfcf5d","devAddress()":"3ad10ef6","generateSalt(address,string,string,string,string,string)":"d6936121","getAllTokens()":"2a5c792a","lpFeesCut()":"57aa0201","lpLocker()":"03fc2013","owner()":"8da5cb5b","positionManager()":"791b98bc","predictTokenAddress(address,string,string,string,string,string,bytes32)":"19042a6f","protocolCut()":"de04f42e","renounceOwnership()":"715018a6","swapRouter()":"c31c9c07","transferOwnership(address)":"f2fde38b","uniswapV3Factory()":"5b549182","userToToken(address)":"28d249fe","weth()":"3fc8cef3","withdrawETH()":"e086e5ec"}}}}}