{"contracts/TokenizedProfileDex.sol":{"TokenizedProfileDex":{"abi":[{"inputs":[{"internalType":"address","name":"_swapRouter","type":"address"},{"internalType":"address","name":"_weth","type":"address"}],"stateMutability":"nonpayable","type":"constructor"},{"anonymous":false,"inputs":[{"indexed":true,"internalType":"address","name":"user","type":"address"},{"indexed":false,"internalType":"address","name":"tokenOut","type":"address"},{"indexed":false,"internalType":"uint256","name":"amountIn","type":"uint256"},{"indexed":false,"internalType":"uint256","name":"amountOut","type":"uint256"}],"name":"SwapETHForTokens","type":"event"},{"anonymous":false,"inputs":[{"indexed":true,"internalType":"address","name":"user","type":"address"},{"indexed":false,"internalType":"address","name":"tokenIn","type":"address"},{"indexed":false,"internalType":"uint256","name":"amountIn","type":"uint256"},{"indexed":false,"internalType":"uint256","name":"amountOut","type":"uint256"}],"name":"SwapTokensForETH","type":"event"},{"anonymous":false,"inputs":[{"indexed":true,"internalType":"address","name":"user","type":"address"},{"indexed":false,"internalType":"address","name":"tokenIn","type":"address"},{"indexed":false,"internalType":"address","name":"tokenOut","type":"address"},{"indexed":false,"internalType":"uint256","name":"amountIn","type":"uint256"},{"indexed":false,"internalType":"uint256","name":"amountOut","type":"uint256"}],"name":"SwapTokensForTokens","type":"event"},{"inputs":[],"name":"WETH","outputs":[{"internalType":"address","name":"","type":"address"}],"stateMutability":"view","type":"function"},{"inputs":[{"internalType":"address","name":"tokenOut","type":"address"},{"internalType":"uint256","name":"amountOutMin","type":"uint256"},{"internalType":"uint256","name":"deadline","type":"uint256"},{"internalType":"uint24","name":"fee","type":"uint24"}],"name":"swapETHForTokens","outputs":[{"internalType":"uint256","name":"amountOut","type":"uint256"}],"stateMutability":"payable","type":"function"},{"inputs":[],"name":"swapRouter","outputs":[{"internalType":"address","name":"","type":"address"}],"stateMutability":"view","type":"function"},{"inputs":[{"internalType":"address","name":"tokenIn","type":"address"},{"internalType":"uint256","name":"amountIn","type":"uint256"},{"internalType":"uint256","name":"amountOutMin","type":"uint256"},{"internalType":"uint256","name":"deadline","type":"uint256"},{"internalType":"uint24","name":"fee","type":"uint24"}],"name":"swapTokensForETH","outputs":[{"internalType":"uint256","name":"amountOut","type":"uint256"}],"stateMutability":"nonpayable","type":"function"},{"inputs":[{"internalType":"address","name":"tokenIn","type":"address"},{"internalType":"address","name":"tokenOut","type":"address"},{"internalType":"uint256","name":"amountIn","type":"uint256"},{"internalType":"uint256","name":"amountOutMin","type":"uint256"},{"internalType":"uint256","name":"deadline","type":"uint256"},{"internalType":"uint24","name":"fee","type":"uint24"}],"name":"swapTokensForTokens","outputs":[{"internalType":"uint256","name":"amountOut","type":"uint256"}],"stateMutability":"nonpayable","type":"function"},{"stateMutability":"payable","type":"receive"}],"evm":{"bytecode":{"linkReferences":{},"object":"60c03461014457601f610da238819003918201601f19168301916001600160401b0383118484101761014957808492604094855283398101031261014457610052602061004b8361015f565b920161015f565b906001600160a01b03808216156100ff578216156100ba5760805260a052604051610c2e908161017482396080518181816101050152818161039f015281816106d201526107e7015260a05181818160ab015281816104260152818161071501526108550152f35b60405162461bcd60e51b815260206004820152601460248201527f496e76616c6964205745544820616464726573730000000000000000000000006044820152606490fd5b60405162461bcd60e51b815260206004820152601660248201527f496e76616c696420726f757465722061646472657373000000000000000000006044820152606490fd5b600080fd5b634e487b7160e01b600052604160045260246000fd5b51906001600160a01b03821682036101445756fe60406080815260049081361015610020575b5050361561001e57600080fd5b005b600090813560e01c8063078370cd14610744578063ad5c464814610701578063c31c9c07146106be578063f6458ca9146102ed5763f847f899146100645750610011565b60803660031901126102e957610078610a77565b60643562ffffff81168091036102465734156102b6576001600160a01b03828116959091906100a8871515610a8d565b827f00000000000000000000000000000000000000000000000000000000000000001692833b156102a8578551630d0e30db60e41b81528781848134895af180156102ac57908891610294575b5050855163095ea7b360e01b81527f00000000000000000000000000000000000000000000000000000000000000006001600160a01b038116848301908152346020808301919091529a919592908b908290819060400103818d8b5af1801561028a57928a928c9795926101bc99979561025d575b508a519661017788610ad1565b8752878701528986015233606086015260443560808601523460a086015260243560c08601528160e0860152885180978196829563414bf38960e01b84528301610b52565b0393165af1938415610252579361021e575b5081516001600160a01b0390911681523460208201526040810183905233907f4c8d20e37a3970898f750fee782c21410aa4fe6513487f5b3abc91b59be074479080606081015b0390a251908152f35b9092508381813d831161024b575b6102368183610b18565b81010312610246575191386101ce565b600080fd5b503d61022c565b8351903d90823e3d90fd5b61027c90893d8b11610283575b6102748183610b18565b810190610b3a565b503861016a565b503d61026a565b89513d8c823e3d90fd5b61029d90610b04565b6102a85786386100f5565b8680fd5b87513d8a823e3d90fd5b825162461bcd60e51b8152602081870152600d60248201526c09aeae6e840e6cadcc8408aa89609b1b6044820152606490fd5b5080fd5b50346102e95760c03660031901126102e957610307610a77565b926001600160a01b036024358082169003610246576044359062ffffff60a4351660a435036102465761033b821515610bb9565b80861692831561067b578160243516156106385784516323b872dd60e01b815233828201908152306020828101919091526040820186905298919089908290819060600103818b8a5af180156102ac5761061b575b50855163095ea7b360e01b81527f00000000000000000000000000000000000000000000000000000000000000006001600160a01b03811684830190815260208101879052909291908a908290819060400103818c8b5af18015610611576105f4575b508651906bffffffffffffffffffffffff19809160601b168a83015262ffffff60e81b60a43560e81b16806034840152817f000000000000000000000000000000000000000000000000000000000000000060601b166037840152604b83015260243560601b16604e820152604281526080810167ffffffffffffffff828210818311176105df576101208301908111828210176105df579289868c96938b8a968998825280835260a081019233845261010060c0830192608435845260e081019a8b5201926064358452519a8b9863c04b8d5960e01b8a52890152519260a060248901528351938460c48a01528a875b8681106105b4575050509187988492868a999a958960e4809989010152511660448601525160648501525160848401525160a4830152601f80199101168101030193165af19586156105a9579561057a575b5083519283526024351685830152828201528260608201527f6c60dfa77621202c19886a83d996f4a7c764b2200c5f7cad231798add53179c260803392a251908152f35b9094508581813d83116105a2575b6105928183610b18565b8101031261024657519338610536565b503d610588565b8551903d90823e3d90fd5b92959950929550929698955081818401015160e4828d01015201928996928f959896928a8d966104e4565b604185634e487b7160e01b6000525260246000fd5b61060a908a3d8c11610283576102748183610b18565b50386103f3565b88513d8b823e3d90fd5b61063190893d8b11610283576102748183610b18565b5038610390565b606490602086519162461bcd60e51b8352820152601860248201527f496e76616c696420746f6b656e4f7574206164647265737300000000000000006044820152fd5b606490602086519162461bcd60e51b8352820152601760248201527f496e76616c696420746f6b656e496e20616464726573730000000000000000006044820152fd5b50346102e957816003193601126102e957517f00000000000000000000000000000000000000000000000000000000000000006001600160a01b03168152602090f35b50346102e957816003193601126102e957517f00000000000000000000000000000000000000000000000000000000000000006001600160a01b03168152602090f35b50346102e95760a03660031901126102e95761075e610a77565b6024356084359462ffffff8616809603610a735761077d821515610bb9565b6001600160a01b0383811696909590610797881515610a8d565b85516323b872dd60e01b81523384820190815230602082810191909152604082018790529991908a9082908190606001038187865af18015610a6957610a4c575b50865163095ea7b360e01b81527f00000000000000000000000000000000000000000000000000000000000000006001600160a01b03811686830190815260208101889052909291908b9082908190604001038188865af18015610a4257918b93916108bc93610a25575b5089519061085082610ad1565b81528a7f0000000000000000000000000000000000000000000000000000000000000000169485858301528a82015230606082015260643560808201528760a082015260443560c08201528560e0820152858a519b8c8095819463414bf38960e01b83528b8301610b52565b0393165af19687156109ec5782976109f6575b50803b156102e9578180916024885180948193632e1a7d4d60e01b83528c898401525af180156109ec576109dd575b508080808089335af1903d156109d7573d9067ffffffffffffffff82116109c457865191610935601f8201601f19168b0184610b18565b8252883d92013e5b1561098c575082516001600160a01b03909216825260208201526040810183905233907ff648388853a921938c2f7c68a5576a93c70cef958c5f13b690650711ed498248908060608101610215565b835162461bcd60e51b8152908101869052601260248201527108cc2d2d8cac840e8de40e6cadcc8408aa8960731b6044820152606490fd5b634e487b7160e01b815260418452602490fd5b5061093d565b6109e690610b04565b386108fe565b86513d84823e3d90fd5b9096508781813d8311610a1e575b610a0e8183610b18565b810103126102e9575195386108cf565b503d610a04565b610a3b90853d8711610283576102748183610b18565b5038610843565b89513d87823e3d90fd5b610a62908a3d8c11610283576102748183610b18565b50386107d8565b88513d86823e3d90fd5b8480fd5b600435906001600160a01b038216820361024657565b15610a9457565b60405162461bcd60e51b8152602060048201526015602482015274496e76616c696420746f6b656e206164647265737360581b6044820152606490fd5b610100810190811067ffffffffffffffff821117610aee57604052565b634e487b7160e01b600052604160045260246000fd5b67ffffffffffffffff8111610aee57604052565b90601f8019910116810190811067ffffffffffffffff821117610aee57604052565b90816020910312610246575180151581036102465790565b91909160e06101008201938160018060a01b039182815116855282602082015116602086015262ffffff60408201511660408601528260608201511660608601526080810151608086015260a081015160a086015260c081015160c0860152015116910152565b15610bc057565b60405162461bcd60e51b815260206004820152601060248201526f4d7573742073656e6420746f6b656e7360801b6044820152606490fdfea2646970667358221220a990e6f2bd756beb6c37723114af60dd01a4330da3972419633c1acf503dc07964736f6c63430008140033","opcodes":"PUSH1 0xC0 CALLVALUE PUSH2 0x144 JUMPI PUSH1 0x1F PUSH2 0xDA2 CODESIZE DUP2 SWAP1 SUB SWAP2 DUP3 ADD PUSH1 0x1F NOT AND DUP4 ADD SWAP2 PUSH1 0x1 PUSH1 0x1 PUSH1 0x40 SHL SUB DUP4 GT DUP5 DUP5 LT OR PUSH2 0x149 JUMPI DUP1 DUP5 SWAP3 PUSH1 0x40 SWAP5 DUP6 MSTORE DUP4 CODECOPY DUP2 ADD SUB SLT PUSH2 0x144 JUMPI PUSH2 0x52 PUSH1 0x20 PUSH2 0x4B DUP4 PUSH2 0x15F JUMP JUMPDEST SWAP3 ADD PUSH2 0x15F JUMP JUMPDEST SWAP1 PUSH1 0x1 PUSH1 0x1 PUSH1 0xA0 SHL SUB DUP1 DUP3 AND ISZERO PUSH2 0xFF JUMPI DUP3 AND ISZERO PUSH2 0xBA JUMPI PUSH1 0x80 MSTORE PUSH1 0xA0 MSTORE PUSH1 0x40 MLOAD PUSH2 0xC2E SWAP1 DUP2 PUSH2 0x174 DUP3 CODECOPY PUSH1 0x80 MLOAD DUP2 DUP2 DUP2 PUSH2 0x105 ADD MSTORE DUP2 DUP2 PUSH2 0x39F ADD MSTORE DUP2 DUP2 PUSH2 0x6D2 ADD MSTORE PUSH2 0x7E7 ADD MSTORE PUSH1 0xA0 MLOAD DUP2 DUP2 DUP2 PUSH1 0xAB ADD MSTORE DUP2 DUP2 PUSH2 0x426 ADD MSTORE DUP2 DUP2 PUSH2 0x715 ADD MSTORE PUSH2 0x855 ADD MSTORE RETURN JUMPDEST PUSH1 0x40 MLOAD PUSH3 0x461BCD PUSH1 0xE5 SHL DUP2 MSTORE PUSH1 0x20 PUSH1 0x4 DUP3 ADD MSTORE PUSH1 0x14 PUSH1 0x24 DUP3 ADD MSTORE PUSH32 0x496E76616C696420574554482061646472657373000000000000000000000000 PUSH1 0x44 DUP3 ADD MSTORE PUSH1 0x64 SWAP1 REVERT JUMPDEST PUSH1 0x40 MLOAD PUSH3 0x461BCD PUSH1 0xE5 SHL DUP2 MSTORE PUSH1 0x20 PUSH1 0x4 DUP3 ADD MSTORE PUSH1 0x16 PUSH1 0x24 DUP3 ADD MSTORE PUSH32 0x496E76616C696420726F75746572206164647265737300000000000000000000 PUSH1 0x44 DUP3 ADD MSTORE PUSH1 0x64 SWAP1 REVERT JUMPDEST PUSH1 0x0 DUP1 REVERT JUMPDEST PUSH4 0x4E487B71 PUSH1 0xE0 SHL PUSH1 0x0 MSTORE PUSH1 0x41 PUSH1 0x4 MSTORE PUSH1 0x24 PUSH1 0x0 REVERT JUMPDEST MLOAD SWAP1 PUSH1 0x1 PUSH1 0x1 PUSH1 0xA0 SHL SUB DUP3 AND DUP3 SUB PUSH2 0x144 JUMPI JUMP INVALID PUSH1 0x40 PUSH1 0x80 DUP2 MSTORE PUSH1 0x4 SWAP1 DUP2 CALLDATASIZE LT ISZERO PUSH2 0x20 JUMPI JUMPDEST POP POP CALLDATASIZE ISZERO PUSH2 0x1E JUMPI PUSH1 0x0 DUP1 REVERT JUMPDEST STOP JUMPDEST PUSH1 0x0 SWAP1 DUP2 CALLDATALOAD PUSH1 0xE0 SHR DUP1 PUSH4 0x78370CD EQ PUSH2 0x744 JUMPI DUP1 PUSH4 0xAD5C4648 EQ PUSH2 0x701 JUMPI DUP1 PUSH4 0xC31C9C07 EQ PUSH2 0x6BE JUMPI DUP1 PUSH4 0xF6458CA9 EQ PUSH2 0x2ED JUMPI PUSH4 0xF847F899 EQ PUSH2 0x64 JUMPI POP PUSH2 0x11 JUMP JUMPDEST PUSH1 0x80 CALLDATASIZE PUSH1 0x3 NOT ADD SLT PUSH2 0x2E9 JUMPI PUSH2 0x78 PUSH2 0xA77 JUMP JUMPDEST PUSH1 0x64 CALLDATALOAD PUSH3 0xFFFFFF DUP2 AND DUP1 SWAP2 SUB PUSH2 0x246 JUMPI CALLVALUE ISZERO PUSH2 0x2B6 JUMPI PUSH1 0x1 PUSH1 0x1 PUSH1 0xA0 SHL SUB DUP3 DUP2 AND SWAP6 SWAP1 SWAP2 SWAP1 PUSH2 0xA8 DUP8 ISZERO ISZERO PUSH2 0xA8D JUMP JUMPDEST DUP3 PUSH32 0x0 AND SWAP3 DUP4 EXTCODESIZE ISZERO PUSH2 0x2A8 JUMPI DUP6 MLOAD PUSH4 0xD0E30DB PUSH1 0xE4 SHL DUP2 MSTORE DUP8 DUP2 DUP5 DUP2 CALLVALUE DUP10 GAS CALL DUP1 ISZERO PUSH2 0x2AC JUMPI SWAP1 DUP9 SWAP2 PUSH2 0x294 JUMPI JUMPDEST POP POP DUP6 MLOAD PUSH4 0x95EA7B3 PUSH1 0xE0 SHL DUP2 MSTORE PUSH32 0x0 PUSH1 0x1 PUSH1 0x1 PUSH1 0xA0 SHL SUB DUP2 AND DUP5 DUP4 ADD SWAP1 DUP2 MSTORE CALLVALUE PUSH1 0x20 DUP1 DUP4 ADD SWAP2 SWAP1 SWAP2 MSTORE SWAP11 SWAP2 SWAP6 SWAP3 SWAP1 DUP12 SWAP1 DUP3 SWAP1 DUP2 SWAP1 PUSH1 0x40 ADD SUB DUP2 DUP14 DUP12 GAS CALL DUP1 ISZERO PUSH2 0x28A JUMPI SWAP3 DUP11 SWAP3 DUP13 SWAP8 SWAP6 SWAP3 PUSH2 0x1BC SWAP10 SWAP8 SWAP6 PUSH2 0x25D JUMPI JUMPDEST POP DUP11 MLOAD SWAP7 PUSH2 0x177 DUP9 PUSH2 0xAD1 JUMP JUMPDEST DUP8 MSTORE DUP8 DUP8 ADD MSTORE DUP10 DUP7 ADD MSTORE CALLER PUSH1 0x60 DUP7 ADD MSTORE PUSH1 0x44 CALLDATALOAD PUSH1 0x80 DUP7 ADD MSTORE CALLVALUE PUSH1 0xA0 DUP7 ADD MSTORE PUSH1 0x24 CALLDATALOAD PUSH1 0xC0 DUP7 ADD MSTORE DUP2 PUSH1 0xE0 DUP7 ADD MSTORE DUP9 MLOAD DUP1 SWAP8 DUP2 SWAP7 DUP3 SWAP6 PUSH4 0x414BF389 PUSH1 0xE0 SHL DUP5 MSTORE DUP4 ADD PUSH2 0xB52 JUMP JUMPDEST SUB SWAP4 AND GAS CALL SWAP4 DUP5 ISZERO PUSH2 0x252 JUMPI SWAP4 PUSH2 0x21E JUMPI JUMPDEST POP DUP2 MLOAD PUSH1 0x1 PUSH1 0x1 PUSH1 0xA0 SHL SUB SWAP1 SWAP2 AND DUP2 MSTORE CALLVALUE PUSH1 0x20 DUP3 ADD MSTORE PUSH1 0x40 DUP2 ADD DUP4 SWAP1 MSTORE CALLER SWAP1 PUSH32 0x4C8D20E37A3970898F750FEE782C21410AA4FE6513487F5B3ABC91B59BE07447 SWAP1 DUP1 PUSH1 0x60 DUP2 ADD JUMPDEST SUB SWAP1 LOG2 MLOAD SWAP1 DUP2 MSTORE RETURN JUMPDEST SWAP1 SWAP3 POP DUP4 DUP2 DUP2 RETURNDATASIZE DUP4 GT PUSH2 0x24B JUMPI JUMPDEST PUSH2 0x236 DUP2 DUP4 PUSH2 0xB18 JUMP JUMPDEST DUP2 ADD SUB SLT PUSH2 0x246 JUMPI MLOAD SWAP2 CODESIZE PUSH2 0x1CE JUMP JUMPDEST PUSH1 0x0 DUP1 REVERT JUMPDEST POP RETURNDATASIZE PUSH2 0x22C JUMP JUMPDEST DUP4 MLOAD SWAP1 RETURNDATASIZE SWAP1 DUP3 RETURNDATACOPY RETURNDATASIZE SWAP1 REVERT JUMPDEST PUSH2 0x27C SWAP1 DUP10 RETURNDATASIZE DUP12 GT PUSH2 0x283 JUMPI JUMPDEST PUSH2 0x274 DUP2 DUP4 PUSH2 0xB18 JUMP JUMPDEST DUP2 ADD SWAP1 PUSH2 0xB3A JUMP JUMPDEST POP CODESIZE PUSH2 0x16A JUMP JUMPDEST POP RETURNDATASIZE PUSH2 0x26A JUMP JUMPDEST DUP10 MLOAD RETURNDATASIZE DUP13 DUP3 RETURNDATACOPY RETURNDATASIZE SWAP1 REVERT JUMPDEST PUSH2 0x29D SWAP1 PUSH2 0xB04 JUMP JUMPDEST PUSH2 0x2A8 JUMPI DUP7 CODESIZE PUSH2 0xF5 JUMP JUMPDEST DUP7 DUP1 REVERT JUMPDEST DUP8 MLOAD RETURNDATASIZE DUP11 DUP3 RETURNDATACOPY RETURNDATASIZE SWAP1 REVERT JUMPDEST DUP3 MLOAD PUSH3 0x461BCD PUSH1 0xE5 SHL DUP2 MSTORE PUSH1 0x20 DUP2 DUP8 ADD MSTORE PUSH1 0xD PUSH1 0x24 DUP3 ADD MSTORE PUSH13 0x9AEAE6E840E6CADCC8408AA89 PUSH1 0x9B SHL PUSH1 0x44 DUP3 ADD MSTORE PUSH1 0x64 SWAP1 REVERT JUMPDEST POP DUP1 REVERT JUMPDEST POP CALLVALUE PUSH2 0x2E9 JUMPI PUSH1 0xC0 CALLDATASIZE PUSH1 0x3 NOT ADD SLT PUSH2 0x2E9 JUMPI PUSH2 0x307 PUSH2 0xA77 JUMP JUMPDEST SWAP3 PUSH1 0x1 PUSH1 0x1 PUSH1 0xA0 SHL SUB PUSH1 0x24 CALLDATALOAD DUP1 DUP3 AND SWAP1 SUB PUSH2 0x246 JUMPI PUSH1 0x44 CALLDATALOAD SWAP1 PUSH3 0xFFFFFF PUSH1 0xA4 CALLDATALOAD AND PUSH1 0xA4 CALLDATALOAD SUB PUSH2 0x246 JUMPI PUSH2 0x33B DUP3 ISZERO ISZERO PUSH2 0xBB9 JUMP JUMPDEST DUP1 DUP7 AND SWAP3 DUP4 ISZERO PUSH2 0x67B JUMPI DUP2 PUSH1 0x24 CALLDATALOAD AND ISZERO PUSH2 0x638 JUMPI DUP5 MLOAD PUSH4 0x23B872DD PUSH1 0xE0 SHL DUP2 MSTORE CALLER DUP3 DUP3 ADD SWAP1 DUP2 MSTORE ADDRESS PUSH1 0x20 DUP3 DUP2 ADD SWAP2 SWAP1 SWAP2 MSTORE PUSH1 0x40 DUP3 ADD DUP7 SWAP1 MSTORE SWAP9 SWAP2 SWAP1 DUP10 SWAP1 DUP3 SWAP1 DUP2 SWAP1 PUSH1 0x60 ADD SUB DUP2 DUP12 DUP11 GAS CALL DUP1 ISZERO PUSH2 0x2AC JUMPI PUSH2 0x61B JUMPI JUMPDEST POP DUP6 MLOAD PUSH4 0x95EA7B3 PUSH1 0xE0 SHL DUP2 MSTORE PUSH32 0x0 PUSH1 0x1 PUSH1 0x1 PUSH1 0xA0 SHL SUB DUP2 AND DUP5 DUP4 ADD SWAP1 DUP2 MSTORE PUSH1 0x20 DUP2 ADD DUP8 SWAP1 MSTORE SWAP1 SWAP3 SWAP2 SWAP1 DUP11 SWAP1 DUP3 SWAP1 DUP2 SWAP1 PUSH1 0x40 ADD SUB DUP2 DUP13 DUP12 GAS CALL DUP1 ISZERO PUSH2 0x611 JUMPI PUSH2 0x5F4 JUMPI JUMPDEST POP DUP7 MLOAD SWAP1 PUSH12 0xFFFFFFFFFFFFFFFFFFFFFFFF NOT DUP1 SWAP2 PUSH1 0x60 SHL AND DUP11 DUP4 ADD MSTORE PUSH3 0xFFFFFF PUSH1 0xE8 SHL PUSH1 0xA4 CALLDATALOAD PUSH1 0xE8 SHL AND DUP1 PUSH1 0x34 DUP5 ADD MSTORE DUP2 PUSH32 0x0 PUSH1 0x60 SHL AND PUSH1 0x37 DUP5 ADD MSTORE PUSH1 0x4B DUP4 ADD MSTORE PUSH1 0x24 CALLDATALOAD PUSH1 0x60 SHL AND PUSH1 0x4E DUP3 ADD MSTORE PUSH1 0x42 DUP2 MSTORE PUSH1 0x80 DUP2 ADD PUSH8 0xFFFFFFFFFFFFFFFF DUP3 DUP3 LT DUP2 DUP4 GT OR PUSH2 0x5DF JUMPI PUSH2 0x120 DUP4 ADD SWAP1 DUP2 GT DUP3 DUP3 LT OR PUSH2 0x5DF JUMPI SWAP3 DUP10 DUP7 DUP13 SWAP7 SWAP4 DUP12 DUP11 SWAP7 DUP10 SWAP9 DUP3 MSTORE DUP1 DUP4 MSTORE PUSH1 0xA0 DUP2 ADD SWAP3 CALLER DUP5 MSTORE PUSH2 0x100 PUSH1 0xC0 DUP4 ADD SWAP3 PUSH1 0x84 CALLDATALOAD DUP5 MSTORE PUSH1 0xE0 DUP2 ADD SWAP11 DUP12 MSTORE ADD SWAP3 PUSH1 0x64 CALLDATALOAD DUP5 MSTORE MLOAD SWAP11 DUP12 SWAP9 PUSH4 0xC04B8D59 PUSH1 0xE0 SHL DUP11 MSTORE DUP10 ADD MSTORE MLOAD SWAP3 PUSH1 0xA0 PUSH1 0x24 DUP10 ADD MSTORE DUP4 MLOAD SWAP4 DUP5 PUSH1 0xC4 DUP11 ADD MSTORE DUP11 DUP8 JUMPDEST DUP7 DUP2 LT PUSH2 0x5B4 JUMPI POP POP POP SWAP2 DUP8 SWAP9 DUP5 SWAP3 DUP7 DUP11 SWAP10 SWAP11 SWAP6 DUP10 PUSH1 0xE4 DUP1 SWAP10 DUP10 ADD ADD MSTORE MLOAD AND PUSH1 0x44 DUP7 ADD MSTORE MLOAD PUSH1 0x64 DUP6 ADD MSTORE MLOAD PUSH1 0x84 DUP5 ADD MSTORE MLOAD PUSH1 0xA4 DUP4 ADD MSTORE PUSH1 0x1F DUP1 NOT SWAP2 ADD AND DUP2 ADD SUB ADD SWAP4 AND GAS CALL SWAP6 DUP7 ISZERO PUSH2 0x5A9 JUMPI SWAP6 PUSH2 0x57A JUMPI JUMPDEST POP DUP4 MLOAD SWAP3 DUP4 MSTORE PUSH1 0x24 CALLDATALOAD AND DUP6 DUP4 ADD MSTORE DUP3 DUP3 ADD MSTORE DUP3 PUSH1 0x60 DUP3 ADD MSTORE PUSH32 0x6C60DFA77621202C19886A83D996F4A7C764B2200C5F7CAD231798ADD53179C2 PUSH1 0x80 CALLER SWAP3 LOG2 MLOAD SWAP1 DUP2 MSTORE RETURN JUMPDEST SWAP1 SWAP5 POP DUP6 DUP2 DUP2 RETURNDATASIZE DUP4 GT PUSH2 0x5A2 JUMPI JUMPDEST PUSH2 0x592 DUP2 DUP4 PUSH2 0xB18 JUMP JUMPDEST DUP2 ADD SUB SLT PUSH2 0x246 JUMPI MLOAD SWAP4 CODESIZE PUSH2 0x536 JUMP JUMPDEST POP RETURNDATASIZE PUSH2 0x588 JUMP JUMPDEST DUP6 MLOAD SWAP1 RETURNDATASIZE SWAP1 DUP3 RETURNDATACOPY RETURNDATASIZE SWAP1 REVERT JUMPDEST SWAP3 SWAP6 SWAP10 POP SWAP3 SWAP6 POP SWAP3 SWAP7 SWAP9 SWAP6 POP DUP2 DUP2 DUP5 ADD ADD MLOAD PUSH1 0xE4 DUP3 DUP14 ADD ADD MSTORE ADD SWAP3 DUP10 SWAP7 SWAP3 DUP16 SWAP6 SWAP9 SWAP7 SWAP3 DUP11 DUP14 SWAP7 PUSH2 0x4E4 JUMP JUMPDEST PUSH1 0x41 DUP6 PUSH4 0x4E487B71 PUSH1 0xE0 SHL PUSH1 0x0 MSTORE MSTORE PUSH1 0x24 PUSH1 0x0 REVERT JUMPDEST PUSH2 0x60A SWAP1 DUP11 RETURNDATASIZE DUP13 GT PUSH2 0x283 JUMPI PUSH2 0x274 DUP2 DUP4 PUSH2 0xB18 JUMP JUMPDEST POP CODESIZE PUSH2 0x3F3 JUMP JUMPDEST DUP9 MLOAD RETURNDATASIZE DUP12 DUP3 RETURNDATACOPY RETURNDATASIZE SWAP1 REVERT JUMPDEST PUSH2 0x631 SWAP1 DUP10 RETURNDATASIZE DUP12 GT PUSH2 0x283 JUMPI PUSH2 0x274 DUP2 DUP4 PUSH2 0xB18 JUMP JUMPDEST POP CODESIZE PUSH2 0x390 JUMP JUMPDEST PUSH1 0x64 SWAP1 PUSH1 0x20 DUP7 MLOAD SWAP2 PUSH3 0x461BCD PUSH1 0xE5 SHL DUP4 MSTORE DUP3 ADD MSTORE PUSH1 0x18 PUSH1 0x24 DUP3 ADD MSTORE PUSH32 0x496E76616C696420746F6B656E4F757420616464726573730000000000000000 PUSH1 0x44 DUP3 ADD MSTORE REVERT JUMPDEST PUSH1 0x64 SWAP1 PUSH1 0x20 DUP7 MLOAD SWAP2 PUSH3 0x461BCD PUSH1 0xE5 SHL DUP4 MSTORE DUP3 ADD MSTORE PUSH1 0x17 PUSH1 0x24 DUP3 ADD MSTORE PUSH32 0x496E76616C696420746F6B656E496E2061646472657373000000000000000000 PUSH1 0x44 DUP3 ADD MSTORE REVERT JUMPDEST POP CALLVALUE PUSH2 0x2E9 JUMPI DUP2 PUSH1 0x3 NOT CALLDATASIZE ADD SLT PUSH2 0x2E9 JUMPI MLOAD PUSH32 0x0 PUSH1 0x1 PUSH1 0x1 PUSH1 0xA0 SHL SUB AND DUP2 MSTORE PUSH1 0x20 SWAP1 RETURN JUMPDEST POP CALLVALUE PUSH2 0x2E9 JUMPI DUP2 PUSH1 0x3 NOT CALLDATASIZE ADD SLT PUSH2 0x2E9 JUMPI MLOAD PUSH32 0x0 PUSH1 0x1 PUSH1 0x1 PUSH1 0xA0 SHL SUB AND DUP2 MSTORE PUSH1 0x20 SWAP1 RETURN JUMPDEST POP CALLVALUE PUSH2 0x2E9 JUMPI PUSH1 0xA0 CALLDATASIZE PUSH1 0x3 NOT ADD SLT PUSH2 0x2E9 JUMPI PUSH2 0x75E PUSH2 0xA77 JUMP JUMPDEST PUSH1 0x24 CALLDATALOAD PUSH1 0x84 CALLDATALOAD SWAP5 PUSH3 0xFFFFFF DUP7 AND DUP1 SWAP7 SUB PUSH2 0xA73 JUMPI PUSH2 0x77D DUP3 ISZERO ISZERO PUSH2 0xBB9 JUMP JUMPDEST PUSH1 0x1 PUSH1 0x1 PUSH1 0xA0 SHL SUB DUP4 DUP2 AND SWAP7 SWAP1 SWAP6 SWAP1 PUSH2 0x797 DUP9 ISZERO ISZERO PUSH2 0xA8D JUMP JUMPDEST DUP6 MLOAD PUSH4 0x23B872DD PUSH1 0xE0 SHL DUP2 MSTORE CALLER DUP5 DUP3 ADD SWAP1 DUP2 MSTORE ADDRESS PUSH1 0x20 DUP3 DUP2 ADD SWAP2 SWAP1 SWAP2 MSTORE PUSH1 0x40 DUP3 ADD DUP8 SWAP1 MSTORE SWAP10 SWAP2 SWAP1 DUP11 SWAP1 DUP3 SWAP1 DUP2 SWAP1 PUSH1 0x60 ADD SUB DUP2 DUP8 DUP7 GAS CALL DUP1 ISZERO PUSH2 0xA69 JUMPI PUSH2 0xA4C JUMPI JUMPDEST POP DUP7 MLOAD PUSH4 0x95EA7B3 PUSH1 0xE0 SHL DUP2 MSTORE PUSH32 0x0 PUSH1 0x1 PUSH1 0x1 PUSH1 0xA0 SHL SUB DUP2 AND DUP7 DUP4 ADD SWAP1 DUP2 MSTORE PUSH1 0x20 DUP2 ADD DUP9 SWAP1 MSTORE SWAP1 SWAP3 SWAP2 SWAP1 DUP12 SWAP1 DUP3 SWAP1 DUP2 SWAP1 PUSH1 0x40 ADD SUB DUP2 DUP9 DUP7 GAS CALL DUP1 ISZERO PUSH2 0xA42 JUMPI SWAP2 DUP12 SWAP4 SWAP2 PUSH2 0x8BC SWAP4 PUSH2 0xA25 JUMPI JUMPDEST POP DUP10 MLOAD SWAP1 PUSH2 0x850 DUP3 PUSH2 0xAD1 JUMP JUMPDEST DUP2 MSTORE DUP11 PUSH32 0x0 AND SWAP5 DUP6 DUP6 DUP4 ADD MSTORE DUP11 DUP3 ADD MSTORE ADDRESS PUSH1 0x60 DUP3 ADD MSTORE PUSH1 0x64 CALLDATALOAD PUSH1 0x80 DUP3 ADD MSTORE DUP8 PUSH1 0xA0 DUP3 ADD MSTORE PUSH1 0x44 CALLDATALOAD PUSH1 0xC0 DUP3 ADD MSTORE DUP6 PUSH1 0xE0 DUP3 ADD MSTORE DUP6 DUP11 MLOAD SWAP12 DUP13 DUP1 SWAP6 DUP2 SWAP5 PUSH4 0x414BF389 PUSH1 0xE0 SHL DUP4 MSTORE DUP12 DUP4 ADD PUSH2 0xB52 JUMP JUMPDEST SUB SWAP4 AND GAS CALL SWAP7 DUP8 ISZERO PUSH2 0x9EC JUMPI DUP3 SWAP8 PUSH2 0x9F6 JUMPI JUMPDEST POP DUP1 EXTCODESIZE ISZERO PUSH2 0x2E9 JUMPI DUP2 DUP1 SWAP2 PUSH1 0x24 DUP9 MLOAD DUP1 SWAP5 DUP2 SWAP4 PUSH4 0x2E1A7D4D PUSH1 0xE0 SHL DUP4 MSTORE DUP13 DUP10 DUP5 ADD MSTORE GAS CALL DUP1 ISZERO PUSH2 0x9EC JUMPI PUSH2 0x9DD JUMPI JUMPDEST POP DUP1 DUP1 DUP1 DUP1 DUP10 CALLER GAS CALL SWAP1 RETURNDATASIZE ISZERO PUSH2 0x9D7 JUMPI RETURNDATASIZE SWAP1 PUSH8 0xFFFFFFFFFFFFFFFF DUP3 GT PUSH2 0x9C4 JUMPI DUP7 MLOAD SWAP2 PUSH2 0x935 PUSH1 0x1F DUP3 ADD PUSH1 0x1F NOT AND DUP12 ADD DUP5 PUSH2 0xB18 JUMP JUMPDEST DUP3 MSTORE DUP9 RETURNDATASIZE SWAP3 ADD RETURNDATACOPY JUMPDEST ISZERO PUSH2 0x98C JUMPI POP DUP3 MLOAD PUSH1 0x1 PUSH1 0x1 PUSH1 0xA0 SHL SUB SWAP1 SWAP3 AND DUP3 MSTORE PUSH1 0x20 DUP3 ADD MSTORE PUSH1 0x40 DUP2 ADD DUP4 SWAP1 MSTORE CALLER SWAP1 PUSH32 0xF648388853A921938C2F7C68A5576A93C70CEF958C5F13B690650711ED498248 SWAP1 DUP1 PUSH1 0x60 DUP2 ADD PUSH2 0x215 JUMP JUMPDEST DUP4 MLOAD PUSH3 0x461BCD PUSH1 0xE5 SHL DUP2 MSTORE SWAP1 DUP2 ADD DUP7 SWAP1 MSTORE PUSH1 0x12 PUSH1 0x24 DUP3 ADD MSTORE PUSH18 0x8CC2D2D8CAC840E8DE40E6CADCC8408AA89 PUSH1 0x73 SHL PUSH1 0x44 DUP3 ADD MSTORE PUSH1 0x64 SWAP1 REVERT JUMPDEST PUSH4 0x4E487B71 PUSH1 0xE0 SHL DUP2 MSTORE PUSH1 0x41 DUP5 MSTORE PUSH1 0x24 SWAP1 REVERT JUMPDEST POP PUSH2 0x93D JUMP JUMPDEST PUSH2 0x9E6 SWAP1 PUSH2 0xB04 JUMP JUMPDEST CODESIZE PUSH2 0x8FE JUMP JUMPDEST DUP7 MLOAD RETURNDATASIZE DUP5 DUP3 RETURNDATACOPY RETURNDATASIZE SWAP1 REVERT JUMPDEST SWAP1 SWAP7 POP DUP8 DUP2 DUP2 RETURNDATASIZE DUP4 GT PUSH2 0xA1E JUMPI JUMPDEST PUSH2 0xA0E DUP2 DUP4 PUSH2 0xB18 JUMP JUMPDEST DUP2 ADD SUB SLT PUSH2 0x2E9 JUMPI MLOAD SWAP6 CODESIZE PUSH2 0x8CF JUMP JUMPDEST POP RETURNDATASIZE PUSH2 0xA04 JUMP JUMPDEST PUSH2 0xA3B SWAP1 DUP6 RETURNDATASIZE DUP8 GT PUSH2 0x283 JUMPI PUSH2 0x274 DUP2 DUP4 PUSH2 0xB18 JUMP JUMPDEST POP CODESIZE PUSH2 0x843 JUMP JUMPDEST DUP10 MLOAD RETURNDATASIZE DUP8 DUP3 RETURNDATACOPY RETURNDATASIZE SWAP1 REVERT JUMPDEST PUSH2 0xA62 SWAP1 DUP11 RETURNDATASIZE DUP13 GT PUSH2 0x283 JUMPI PUSH2 0x274 DUP2 DUP4 PUSH2 0xB18 JUMP JUMPDEST POP CODESIZE PUSH2 0x7D8 JUMP JUMPDEST DUP9 MLOAD RETURNDATASIZE DUP7 DUP3 RETURNDATACOPY RETURNDATASIZE SWAP1 REVERT JUMPDEST DUP5 DUP1 REVERT JUMPDEST PUSH1 0x4 CALLDATALOAD SWAP1 PUSH1 0x1 PUSH1 0x1 PUSH1 0xA0 SHL SUB DUP3 AND DUP3 SUB PUSH2 0x246 JUMPI JUMP JUMPDEST ISZERO PUSH2 0xA94 JUMPI JUMP JUMPDEST PUSH1 0x40 MLOAD PUSH3 0x461BCD PUSH1 0xE5 SHL DUP2 MSTORE PUSH1 0x20 PUSH1 0x4 DUP3 ADD MSTORE PUSH1 0x15 PUSH1 0x24 DUP3 ADD MSTORE PUSH21 0x496E76616C696420746F6B656E2061646472657373 PUSH1 0x58 SHL PUSH1 0x44 DUP3 ADD MSTORE PUSH1 0x64 SWAP1 REVERT JUMPDEST PUSH2 0x100 DUP2 ADD SWAP1 DUP2 LT PUSH8 0xFFFFFFFFFFFFFFFF DUP3 GT OR PUSH2 0xAEE JUMPI PUSH1 0x40 MSTORE JUMP JUMPDEST PUSH4 0x4E487B71 PUSH1 0xE0 SHL PUSH1 0x0 MSTORE PUSH1 0x41 PUSH1 0x4 MSTORE PUSH1 0x24 PUSH1 0x0 REVERT JUMPDEST PUSH8 0xFFFFFFFFFFFFFFFF DUP2 GT PUSH2 0xAEE JUMPI PUSH1 0x40 MSTORE JUMP JUMPDEST SWAP1 PUSH1 0x1F DUP1 NOT SWAP2 ADD AND DUP2 ADD SWAP1 DUP2 LT PUSH8 0xFFFFFFFFFFFFFFFF DUP3 GT OR PUSH2 0xAEE JUMPI PUSH1 0x40 MSTORE JUMP JUMPDEST SWAP1 DUP2 PUSH1 0x20 SWAP2 SUB SLT PUSH2 0x246 JUMPI MLOAD DUP1 ISZERO ISZERO DUP2 SUB PUSH2 0x246 JUMPI SWAP1 JUMP JUMPDEST SWAP2 SWAP1 SWAP2 PUSH1 0xE0 PUSH2 0x100 DUP3 ADD SWAP4 DUP2 PUSH1 0x1 DUP1 PUSH1 0xA0 SHL SUB SWAP2 DUP3 DUP2 MLOAD AND DUP6 MSTORE DUP3 PUSH1 0x20 DUP3 ADD MLOAD AND PUSH1 0x20 DUP7 ADD MSTORE PUSH3 0xFFFFFF PUSH1 0x40 DUP3 ADD MLOAD AND PUSH1 0x40 DUP7 ADD MSTORE DUP3 PUSH1 0x60 DUP3 ADD MLOAD AND PUSH1 0x60 DUP7 ADD MSTORE PUSH1 0x80 DUP2 ADD MLOAD PUSH1 0x80 DUP7 ADD MSTORE PUSH1 0xA0 DUP2 ADD MLOAD PUSH1 0xA0 DUP7 ADD MSTORE PUSH1 0xC0 DUP2 ADD MLOAD PUSH1 0xC0 DUP7 ADD MSTORE ADD MLOAD AND SWAP2 ADD MSTORE JUMP JUMPDEST ISZERO PUSH2 0xBC0 JUMPI JUMP JUMPDEST PUSH1 0x40 MLOAD PUSH3 0x461BCD PUSH1 0xE5 SHL DUP2 MSTORE PUSH1 0x20 PUSH1 0x4 DUP3 ADD MSTORE PUSH1 0x10 PUSH1 0x24 DUP3 ADD MSTORE PUSH16 0x4D7573742073656E6420746F6B656E73 PUSH1 0x80 SHL PUSH1 0x44 DUP3 ADD MSTORE PUSH1 0x64 SWAP1 REVERT INVALID LOG2 PUSH5 0x6970667358 0x22 SLT KECCAK256 0xA9 SWAP1 0xE6 CALLCODE 0xBD PUSH22 0x6BEB6C37723114AF60DD01A4330DA3972419633C1ACF POP RETURNDATASIZE 0xC0 PUSH26 0x64736F6C63430008140033000000000000000000000000000000 "},"methodIdentifiers":{"WETH()":"ad5c4648","swapETHForTokens(address,uint256,uint256,uint24)":"f847f899","swapRouter()":"c31c9c07","swapTokensForETH(address,uint256,uint256,uint256,uint24)":"078370cd","swapTokensForTokens(address,address,uint256,uint256,uint256,uint24)":"f6458ca9"}}}}}