{"contracts/TokenFactory.sol":{"TokenFactory":{"abi":[{"inputs":[{"internalType":"address","name":"_devAddress","type":"address"},{"internalType":"address","name":"_positionManager","type":"address"},{"internalType":"address","name":"_uniswapV3Factory","type":"address"},{"internalType":"address","name":"_weth","type":"address"},{"internalType":"address","name":"_swapRouter","type":"address"}],"stateMutability":"nonpayable","type":"constructor"},{"inputs":[{"internalType":"address","name":"owner","type":"address"}],"name":"OwnableInvalidOwner","type":"error"},{"inputs":[{"internalType":"address","name":"account","type":"address"}],"name":"OwnableUnauthorizedAccount","type":"error"},{"anonymous":false,"inputs":[{"indexed":false,"internalType":"string","name":"message","type":"string"},{"indexed":false,"internalType":"uint256","name":"value","type":"uint256"}],"name":"Debug","type":"event"},{"anonymous":false,"inputs":[{"indexed":false,"internalType":"string","name":"name","type":"string"},{"indexed":false,"internalType":"int256","name":"value","type":"int256"}],"name":"DebugIntValues","type":"event"},{"anonymous":false,"inputs":[{"indexed":true,"internalType":"address","name":"tokenAddress","type":"address"},{"indexed":false,"internalType":"uint256","name":"tokenId","type":"uint256"},{"indexed":false,"internalType":"uint256","name":"amountToken","type":"uint256"},{"indexed":false,"internalType":"uint256","name":"amountETH","type":"uint256"}],"name":"LiquidityAdded","type":"event"},{"anonymous":false,"inputs":[{"indexed":true,"internalType":"address","name":"previousOwner","type":"address"},{"indexed":true,"internalType":"address","name":"newOwner","type":"address"}],"name":"OwnershipTransferred","type":"event"},{"anonymous":false,"inputs":[{"indexed":true,"internalType":"address","name":"tokenAddress","type":"address"},{"indexed":true,"internalType":"address","name":"owner","type":"address"},{"indexed":false,"internalType":"string","name":"name","type":"string"},{"indexed":false,"internalType":"string","name":"symbol","type":"string"},{"indexed":false,"internalType":"string","name":"handle","type":"string"},{"indexed":false,"internalType":"string","name":"platform","type":"string"},{"indexed":false,"internalType":"string","name":"profileUrl","type":"string"}],"name":"TokenDeployed","type":"event"},{"inputs":[],"name":"FEE_TIER","outputs":[{"internalType":"uint24","name":"","type":"uint24"}],"stateMutability":"view","type":"function"},{"inputs":[{"internalType":"uint256","name":"","type":"uint256"}],"name":"allTokens","outputs":[{"internalType":"address","name":"","type":"address"}],"stateMutability":"view","type":"function"},{"inputs":[{"internalType":"string","name":"name","type":"string"},{"internalType":"string","name":"symbol","type":"string"},{"internalType":"address","name":"tokenOwner","type":"address"},{"internalType":"string","name":"handle","type":"string"},{"internalType":"string","name":"platform","type":"string"},{"internalType":"string","name":"profileUrl","type":"string"}],"name":"deployToken","outputs":[{"internalType":"address","name":"","type":"address"}],"stateMutability":"payable","type":"function"},{"inputs":[],"name":"devAddress","outputs":[{"internalType":"address","name":"","type":"address"}],"stateMutability":"view","type":"function"},{"inputs":[],"name":"getAllTokens","outputs":[{"internalType":"address[]","name":"","type":"address[]"}],"stateMutability":"view","type":"function"},{"inputs":[],"name":"owner","outputs":[{"internalType":"address","name":"","type":"address"}],"stateMutability":"view","type":"function"},{"inputs":[],"name":"positionManager","outputs":[{"internalType":"contract INonfungiblePositionManager","name":"","type":"address"}],"stateMutability":"view","type":"function"},{"inputs":[],"name":"renounceOwnership","outputs":[],"stateMutability":"nonpayable","type":"function"},{"inputs":[],"name":"swapRouter","outputs":[{"internalType":"address","name":"","type":"address"}],"stateMutability":"view","type":"function"},{"inputs":[{"internalType":"address","name":"newOwner","type":"address"}],"name":"transferOwnership","outputs":[],"stateMutability":"nonpayable","type":"function"},{"inputs":[],"name":"uniswapV3Factory","outputs":[{"internalType":"contract IUniswapV3Factory","name":"","type":"address"}],"stateMutability":"view","type":"function"},{"inputs":[{"internalType":"address","name":"","type":"address"}],"name":"userToToken","outputs":[{"internalType":"address","name":"","type":"address"}],"stateMutability":"view","type":"function"},{"inputs":[],"name":"weth","outputs":[{"internalType":"address","name":"","type":"address"}],"stateMutability":"view","type":"function"},{"inputs":[],"name":"withdrawETH","outputs":[],"stateMutability":"nonpayable","type":"function"},{"stateMutability":"payable","type":"receive"}],"evm":{"bytecode":{"linkReferences":{},"object":"6080346200026557601f62004be538819003918201601f191683019291906001600160401b038411838510176200026a578160a092849260409687528339810103126200026557620000518162000280565b906020916200006283830162000280565b916200007085820162000280565b6200008c6080620000846060850162000280565b930162000280565b9133156200024d5760005460018060a01b031995338783161760005588519160018060a01b03968791823391167f8be0079c531659141344cd1fd0a4f28419497f9722a3daafe3b4186f6b6457e0600080a3169182156200020b57508516928315620001c9578516918215620001855785169687156200014257508560015416176001558460035416176003558360045416176004551681600554161760055560025416176002555161494f9081620002968239f35b60649089519062461bcd60e51b82526004820152601460248201527f496e76616c6964205745544820616464726573730000000000000000000000006044820152fd5b885162461bcd60e51b815260048101899052601760248201527f496e76616c696420666163746f727920616464726573730000000000000000006044820152606490fd5b6064888a519062461bcd60e51b825280600483015260248201527f496e76616c696420706f736974696f6e206d616e6167657220616464726573736044820152fd5b62461bcd60e51b815260048101899052601360248201527f496e76616c6964206465762061646472657373000000000000000000000000006044820152606490fd5b8651631e4fbdf760e01b815260006004820152602490fd5b600080fd5b634e487b7160e01b600052604160045260246000fd5b51906001600160a01b0382168203620002655756fe60808060405260043610156200001f575b5036156200001d57600080fd5b005b600090813560e01c90816328d249fe146200219d575080632a5c792a14620020cf5780633ad10ef614620020a45780633fc8cef314620020795780634c69a6c9146200205a5780635b549182146200202f578063634282af1462001fe6578063715018a61462001f88578063791b98bc1462001f5d5780638da5cb5b1462001f34578063c31c9c071462001f09578063e086e5ec1462001e8c578063f2fde38b1462001dff5763fe658a1703620000105760c036600319011262001c9f5760043567ffffffffffffffff811162000a38576200010090369060040162002277565b60243567ffffffffffffffff8111620016b4576200012390369060040162002277565b604435906001600160a01b0382168203620016295760643567ffffffffffffffff811162001650576200015b90369060040162002277565b9260843567ffffffffffffffff811162001dfb576200017f90369060040162002277565b9260a43567ffffffffffffffff811162001df757620001a390369060040162002277565b93620001ae620022d3565b600080516020620048fa8339815191526080604051604081526015604082015274436865636b696e6720726571756972656d656e747360581b6060820152346020820152a16001600160a01b038281168852600660205260408820541662001da7576001600160a01b0382161562001d6c57600080516020620048fa83398151915260806040516040815260156040820152742232b83637bcb4b7339029b7b1b4b0b62a37b5b2b760591b6060820152896020820152a1600154600454604051916001600160a01b03908116911667ffffffffffffffff61247384019081119084111762001d5857620003316200031a84936200034893612473620024878739610100612473870152620002e6620002cf6101006124738901018c62002325565b6124738801810360206124738a0101528c62002325565b91306040612473890101526060612473880101526080612473870101526124738501810360a0612473870101528b62002325565b6124738401810360c0612473860101528562002325565b6124738301810360e0612473850101528862002325565b039088f0801562001d4d576001600160a01b03838116895260066020526040892080546001600160a01b0319169290911691821790556007549096906801000000000000000081101562001d3957806001620003a89201600755620021f1565b81546001600160a01b0360039290921b91821b19169089901b1790556040516370a0823160e01b81523060048201526020816024818b5afa908115620015f957899162001cfd575b50600080516020620048fa8339815191526080604051604081526015604082015274496e697469616c20746f6b656e2062616c616e636560581b6060820152836020820152a1600080516020620048fa83398151915260a060405160408152602f60408201527f417070726f76696e6720746f6b656e7320666f72204e6f6e66756e6769626c6560608201526e2837b9b4ba34b7b726b0b730b3b2b960891b6080820152836020820152a16004805460405163095ea7b360e01b81526001600160a01b0390911691810191909152602481018290526020816044818d8d5af190811562001c7e578a9162001cd9575b501562001ca2576002546001600160a01b031689813b1562001c9f57604051630d0e30db60e41b8152918290600490829034905af1801562001c7e5762001c89575b506002546004805460405163095ea7b360e01b81526001600160a01b03918216928101929092523460248301529091602091839160449183918f91165af190811562001c7e578a9162001c48575b501562001c0c576003546040516322afcccb60e01b8152610bb8600482015291906001600160a01b0316602083602481845afa92831562001c01578b9362001bbc575b507f0f5d2cd60f752ff8ca00b1fc30ea4d78c233eca72c1ed58d0d62424e09f0951e608060405160408152600b60408201526a5469636b53706163696e6760a81b60608201528560020b6020820152a18260020b1562001ba8578260020b8360020b620d89b3190560020b0290818060020b03620016c1577f0f5d2cd60f752ff8ca00b1fc30ea4d78c233eca72c1ed58d0d62424e09f0951e608060405160408152600e60408201526d4d696e5469636b53706163696e6760901b60608201528460020b6020820152a17f0f5d2cd60f752ff8ca00b1fc30ea4d78c233eca72c1ed58d0d62424e09f0951e608060405160408152600e60408201526d4d61785469636b53706163696e6760901b6060820152868060020b620d89e8050260020b6020820152a18b8260020b1260001462001b9e57600282900b600160ff1b14620016c1578160020b8c035b620d89e8811162001b75578c91600182161562001b62576001600160881b036ffffcb933bd6fad37aa2d162d1a5940015b16916002811662001b2e575b6004811662001afa575b6008811662001ac6575b6010811662001a92575b6020811662001a5e575b6040811662001a2a575b60808116620019f6575b6101008116620019c2575b61020081166200198e575b61040081166200195a575b610800811662001926575b6110008116620018f2575b6120008116620018be575b61400081166200188a575b618000811662001856575b62010000811662001822575b620200008116620017ef575b620400008116620017a9575b620800001662001767575b828460020b136200173c575b600080516020620048fa833981519152608060405160408152600c60408201526b39b8b93a283934b1b2ac1c9b60a11b606082015260018060a01b038760020b151560e01b63ffffffff870160201c17166020820152a1600080516020620048fa833981519152608060405160408152601160408201527010dc99585d1a5b99c81b995dc81c1bdbdb607a1b6060820152856020820152a160208d606460018060a01b036002541686604051958694859363a167129560e01b855260048501526024840152610bb860448401525af1839181620016f1575b5062000a475782620008f262002366565b6308c379a0146200090a575b604051903d90823e3d90fd5b6200091462002385565b80620009215750620008fe565b60025482906001600160a01b0316803b1562000a38578190602460405180948193632e1a7d4d60e01b83523460048401525af1801562000a3c5762000a20575b50600080516020620048fa833981519152608062000a1c9360405190604082526014604083015273141bdbdb0818dc99585d1a5bdb8819985a5b195960621b60608301526020820152a1620009fb603660405180937502837b7b61031b932b0ba34b7b7103330b4b632b21d160551b6020830152620009ea815180926020868601910162002300565b810103601681018452018262002254565b60405162461bcd60e51b815260206004820152918291602483019062002325565b0390fd5b62000a2c83916200223f565b62000a38578262000961565b5080fd5b6040513d85823e3d90fd5b90600080516020620048fa833981519152608060405160408152601c60408201527f506f6f6c206372656174656420616e6420696e697469616c697a6564000000006060820152856020820152a1600080516020620048fa8339815191526080604051604081526012604082015271024b734ba34b0b634bd34b733903837b7b6160751b6060820152856020820152a16001600160a01b0382163b15620016b45760405163f637731d60e01b815263ffffffff90910160201c600285900b151560e01b176001600160a01b0390811660048301529092918291849160249183918591165af19182620016d5575b505062000c80578a62000b4662002366565b6308c379a01462000ba5575b600080516020620048fa8339815191529060405180916040825262000b7a60408301620023fd565b9060208301520390a160405162461bcd60e51b8152602060048201528062000a1c60248201620023fd565b62000baf62002385565b8062000bbc575062000b52565b620009fb603c62000a1c9360405190600080516020620048fa83398151915262000c4a7f506f6f6c20696e697469616c697a6174696f6e206661696c65643a20000000009384602082015287519362000c35878360208c019762000c24818484018b62002300565b810103601c81018552018362002254565b60405192839260408452604084019062002325565b9060208301520390a162000c6f60405195869360208501525180928585019062002300565b810103601c81018452018262002254565b600080516020620048fa833981519152608060405160408152601060408201526f141bdbdb081a5b9a5d1a585b1a5e995960821b60608201528d6020820152a1600080516020620048fa833981519152608060405160408152601a60408201527f4d696e74696e67206c697175696469747920706f736974696f6e0000000000006060820152346020820152a16002546001600160a01b03164261012c810110620016c157604051928361016081011067ffffffffffffffff6101608601111762001574578c94600080516020620048fa8339815191529360a093610160870160405286528d6020870152610bb8604087015260020b60608601528060020b620d89e8050260020b608085015234828501528060c08501528460e0850152846101008501523061012085015261012c42016101408501526040519060408252602260408301527f4d696e74696e6720706f736974696f6e207769746820746f6b656e20616d6f756060830152611b9d60f21b60808301526020820152a16004805460408051634418b22b60e11b815284516001600160a01b03908116948201949094526020850151841660248201529084015162ffffff1660448201526060840151600290810b606483015260808086015190910b608483015260a085015160a483015260c085015160c483015260e085015160e4830152610100850151610104830152610120850151841661012483015261014090940151610144820152929183916101649183918791165af182818493859362001654575b5062000ff0578362000ecb62002366565b6308c379a01462000f2a575b600080516020620048fa8339815191529060405180916040825262000eff6040830162002443565b9060208301520390a160405162461bcd60e51b8152602060048201528062000a1c6024820162002443565b62000f3462002385565b8062000f41575062000ed7565b620009fb603962000a1c9360405190600080516020620048fa83398151915262000fba7f506f736974696f6e206d696e74696e67206661696c65643a20000000000000009384602082015287519362000c35878360208c019762000fa9818484018b62002300565b810103601981018552018362002254565b9060208301520390a162000fdf60405195869360208501525180928585019062002300565b810103601981018452018262002254565b91600080516020620048fa833981519152608060405160408152601f60408201527f5472616e7366657272696e67204e465420746f20746f6b656e206f776e6572006060820152866020820152a16004546001600160a01b0316803b156200165057604051632142170760e11b81523060048201526001600160a01b0389166024820152604481018590529085908290606490829084905af1908115620016455785916200162d575b50508a3b15620016295783808c60246040518098819363f71b668160e01b83528960048401525af1948515620015b3578c9562001604575b5050916060917f64b83944e79c3ce8d4c297411de637c3e102d064677aac0c163976ebdcd6f50e9360405192835260208301526040820152a26040516370a0823160e01b81523060048201526020816024818b5afa908115620015f9578991620015c0575b506080600080516020620048fa833981519152916040519060408252601960408301527f52656d61696e696e6720746f6b656e73206166746572204c500000000000000060608301526020820152a1863b15620015af5760405163f2fde38b60e01b81526001600160a01b038416600482015294888087602481838d5af1968715620015b35789976200158a575b505092620012427f71367ae73260b1c5a8e707d05a95834f62c68d3275284ce234e59a685fa7dc299593620012336200125c94620012246200121598604051998a9960a08b5260a08b019062002325565b9089820360208b015262002325565b90878203604089015262002325565b90858203606087015262002325565b83810360808501526001600160a01b039091169662002325565b0390a3600080516020620048fa833981519152608060405160408152601a60408201527f52656d61696e696e672066756e647320666f7220746f6b656e730000000000006060820152346020820152a134620012be575b602090604051908152f35b600080516020620048fa83398151915260806040516040815260146040820152730457865637574696e6720746f6b656e20737761760641b6060820152846020820152a160025460405192906001600160a01b031667ffffffffffffffff60e0850190811190851117620015745760e0840160409081529084526020808501848152610bb88387019081523360608801908152346080890181815260a08a0188815260c08b0189815260055498516304e45aaf60e01b81529b516001600160a01b0390811660048e01529651871660248d0152945162ffffff1660448c01529251851660648b01525160848a0152905160a48901529051821660c48801529192869260e4928492165af180829162001534575b60209450620014ed57506001620013e762002366565b6308c379a01462001454575b62001400575b50620012b3565b6080600080516020620048fa833981519152916040519060408252601e60408301527f53776170206661696c6564207769746820756e6b6e6f776e206572726f720000606083015285820152a138620013f9565b6200145e62002385565b806200146c575b50620013f3565b9050600080516020620048fa833981519152620014de8392620014c9602d60405180936c029bbb0b8103330b4b632b21d1609d1b8b830152620014b8815180928d868601910162002300565b810103600d81018452018262002254565b60405191829160408352604083019062002325565b85888301520390a13862001465565b600080516020620048fa83398151915291506080906040519060408252600f60408301526e14ddd85c08185b5bdd5b9d081bdd5d608a1b606083015285820152a1620012b3565b90506020843d6020116200156b575b81620015526020938362002254565b8101031262001566576020935190620013d1565b600080fd5b3d915062001543565b634e487b7160e01b600052604160045260246000fd5b6200159c91929396949597506200223f565b620015af579286949291938838620011c4565b8780fd5b50604051903d90823e3d90fd5b90506020813d602011620015f0575b81620015de6020938362002254565b81010312620015665751608062001136565b3d9150620015cf565b6040513d8b823e3d90fd5b620016149192939495506200223f565b6200162557908992918b38620010d1565b8a80fd5b8380fd5b62001638906200223f565b6200162957833862001099565b6040513d87823e3d90fd5b8480fd5b93509150506080823d608011620016b8575b81620016756080938362002254565b81010312620016b45781519160208101516fffffffffffffffffffffffffffffffff811603620016295760606040820151910151929092913862000eba565b8280fd5b3d915062001666565b634e487b7160e01b8c52601160045260248cfd5b620016e0906200223f565b620016ed578b3862000b34565b8b80fd5b9091506020813d60201162001733575b81620017106020938362002254565b810103126200162957516001600160a01b038116810362001629579038620008e1565b3d915062001701565b915080156200175357908c91600019049062000809565b634e487b7160e01b8d52601260045260248dfd5b91506b048a170391f7dc42444e8fa290808281020482148115171562001795578d92910260801c90620007fd565b634e487b7160e01b8e52601160045260248efd5b9250906d2216e584f5fa1ea926041bedfe98908082810204821481151715620017db578e93910260801c9190620007f2565b634e487b7160e01b8f52601160045260248ffd5b9250906e5d6af8dedb81196699c329225ee604908082810204821481151715620017db578e93910260801c9190620007e6565b9250906f09aa508b5b7a84e1c677de54f3e99bc9908082810204821481151715620017db578e93910260801c9190620007da565b9250906f31be135f97d08fd981231505542fcfa6908082810204821481151715620017db578e93910260801c9190620007ce565b9250906f70d869a156d2a1b890bb3df62baf32f7908082810204821481151715620017db578e93910260801c9190620007c3565b9250906fa9f746462d870fdf8a65dc1f90e061e5908082810204821481151715620017db578e93910260801c9190620007b8565b9250906fd097f3bdfd2022b8845ad8f792aa5825908082810204821481151715620017db578e93910260801c9190620007ad565b9250906fe7159475a2c29b7443b29c7fa6e889d9908082810204821481151715620017db578e93910260801c9190620007a2565b9250906ff3392b0822b70005940c7a398e4b70f3908082810204821481151715620017db578e93910260801c919062000797565b9250906ff987a7253ac413176f2b074cf7815e54908082810204821481151715620017db578e93910260801c91906200078c565b9250906ffcbe86c7900a88aedcffc83b479aa3a4908082810204821481151715620017db578e93910260801c919062000781565b9250906ffe5dee046a99a2a811c461f1969c3053908082810204821481151715620017db578e93910260801c919062000776565b9250906fff2ea16466c96a3843ec78b326b52861908082810204821481151715620017db578e93910260801c91906200076c565b9250906fff973b41fa98c081472e6896dfb254c0908082810204821481151715620017db578e93910260801c919062000762565b9250906fffcb9843d60f6159c9db58835c926644908082810204821481151715620017db578e93910260801c919062000758565b9250906fffe5caca7e10e4e61c3624eaa0941cd0908082810204821481151715620017db578e93910260801c91906200074e565b9250906ffff2e50f5f656932ef12357cf3c7fdcc908082810204821481151715620017db578e93910260801c919062000744565b9250906ffff97272373d413259a46990580e213a908082810204821481151715620017db578e93910260801c91906200073a565b6001600160881b03600160801b6200072e565b60405162461bcd60e51b81526020600482015260016024820152601560fa1b6044820152606490fd5b8160020b620006fd565b634e487b7160e01b8b52601260045260248bfd5b9092506020813d60201162001bf8575b8162001bdb6020938362002254565b810103126200162557518060020b810362001625579138620005b2565b3d915062001bcc565b6040513d8d823e3d90fd5b60405162461bcd60e51b815260206004820152601460248201527315d1551208185c1c1c9bdd985b0819985a5b195960621b6044820152606490fd5b62001c6f915060203d60201162001c76575b62001c66818362002254565b8101906200234c565b386200056f565b503d62001c5a565b6040513d8c823e3d90fd5b62001c97909991996200223f565b973862000521565b80fd5b60405162461bcd60e51b815260206004820152600f60248201526e105c1c1c9bdd985b0819985a5b1959608a1b6044820152606490fd5b62001cf6915060203d60201162001c765762001c66818362002254565b38620004df565b90506020813d60201162001d30575b8162001d1b6020938362002254565b8101031262001d2c575138620003f0565b8880fd5b3d915062001d0c565b634e487b7160e01b89526041600452602489fd5b6040513d89823e3d90fd5b634e487b7160e01b8a52604160045260248afd5b60405162461bcd60e51b815260206004820152601360248201527224b73b30b634b2103a37b5b2b71037bbb732b960691b6044820152606490fd5b60405162461bcd60e51b815260206004820152602260248201527f546f6b656e20616c72656164792065786973747320666f72207468697320757360448201526132b960f11b6064820152608490fd5b8680fd5b8580fd5b503462001c9f57602036600319011262001c9f5762001e1d620021da565b62001e27620022d3565b6001600160a01b0390811690811562001e735782546001600160a01b0319811683178455167f8be0079c531659141344cd1fd0a4f28419497f9722a3daafe3b4186f6b6457e08380a380f35b604051631e4fbdf760e01b815260048101849052602490fd5b503462001c9f578060031936011262001c9f5762001ea9620022d3565b47801562001ecf57815482918291829182916001600160a01b031682f115620008fe5780f35b60405162461bcd60e51b81526020600482015260126024820152714e6f2045544820746f20776974686472617760701b6044820152606490fd5b503462001c9f578060031936011262001c9f576005546040516001600160a01b039091168152602090f35b503462001c9f578060031936011262001c9f57546040516001600160a01b039091168152602090f35b503462001c9f578060031936011262001c9f576004546040516001600160a01b039091168152602090f35b503462001c9f578060031936011262001c9f5762001fa5620022d3565b80546001600160a01b03198116825581906001600160a01b03167f8be0079c531659141344cd1fd0a4f28419497f9722a3daafe3b4186f6b6457e08280a380f35b503462001c9f57602036600319011262001c9f576004359060075482101562001c9f5760206200201683620021f1565b905460405160039290921b1c6001600160a01b03168152f35b503462001c9f578060031936011262001c9f576003546040516001600160a01b039091168152602090f35b503462001c9f578060031936011262001c9f576020604051610bb88152f35b503462001c9f578060031936011262001c9f576002546040516001600160a01b039091168152602090f35b503462001c9f578060031936011262001c9f576001546040516001600160a01b039091168152602090f35b503462001c9f578060031936011262001c9f5760405180916007549081835260208093018092600783527fa66cc928b5edb82af9bd49922954155ab7b0942694bea4ce44661d9a8736c68890835b8181106200217f57505050846200213691038562002254565b60405193838594850191818652518092526040850193925b8281106200215e57505050500390f35b83516001600160a01b0316855286955093810193928101926001016200214e565b82546001600160a01b0316845292860192600192830192016200211d565b90503462000a3857602036600319011262000a38576020916001600160a01b039060409082620021cc620021da565b168152600685522054168152f35b600435906001600160a01b03821682036200156657565b600754811015620022295760076000527fa66cc928b5edb82af9bd49922954155ab7b0942694bea4ce44661d9a8736c6880190600090565b634e487b7160e01b600052603260045260246000fd5b67ffffffffffffffff81116200157457604052565b90601f8019910116810190811067ffffffffffffffff8211176200157457604052565b81601f82011215620015665780359067ffffffffffffffff8211620015745760405192620022b0601f8401601f19166020018562002254565b828452602083830101116200156657816000926020809301838601378301015290565b6000546001600160a01b03163303620022e857565b60405163118cdaa760e01b8152336004820152602490fd5b60005b838110620023145750506000910152565b818101518382015260200162002303565b90602091620023408151809281855285808601910162002300565b601f01601f1916010190565b908160209103126200156657518015158103620015665790565b60009060033d116200237457565b905060046000803e60005160e01c90565b600060443d10620023e957604051600319913d83016004833e815167ffffffffffffffff918282113d602484011117620023ec57818401948551938411620023f4573d85010160208487010111620023ec5750620023e99291016020019062002254565b90565b949350505050565b50949350505050565b602d81527f506f6f6c20696e697469616c697a6174696f6e206661696c656420776974682060208201526c3ab735b737bbb71032b93937b960991b604082015260600190565b602a81527f506f736974696f6e206d696e74696e67206661696c6564207769746820756e6b6020820152693737bbb71032b93937b960b11b60408201526060019056fe6040608081523462000ac35762002473803803806200001e8162000ac8565b92833981016101008282031262000ac35781516001600160401b03811162000ac357816200004e91840162000b13565b60208301519091906001600160401b03811162000ac357816200007391850162000b13565b6200008085850162000b6a565b6200008e6060860162000b6a565b906200009d6080870162000b6a565b60a08701519093906001600160401b03811162000ac35785620000c291890162000b13565b60c08801519097906001600160401b03811162000ac35786620000e791830162000b13565b60e08201519096906001600160401b03811162000ac3576200010a920162000b13565b865190966001600160401b0382116200065d5760035490600182811c9216801562000ab8575b60208310146200063c5781601f84931162000a43575b50602090601f8311600114620009b857600092620009ac575b50508160011b916000199060031b1c1916176003555b8051906001600160401b0382116200065d5760045490600182811c92168015620009a1575b60208310146200063c5781601f8493116200092c575b50602090601f8311600114620008a15760009262000895575b50508160011b916000199060031b1c1916176004555b33156200087d57600580546001600160a01b031980821633908117909355946001600160a01b03948593919284929083167f8be0079c531659141344cd1fd0a4f28419497f9722a3daafe3b4186f6b6457e0600080a316856006541617600655168360075416176007556002546b033b2e3c9fd0803ce80000009081810180911162000867577f3c5ad147104e56be34a9176a6692f7df8d2f4b29a5af06bc6b98970d329d65779160809160025533600052600060205289600020818154019055895181815260007fddf252ad1be2c89b69c2b068fc378daa952ba7f163c4a11628f55a4df523b3ef60203393a38951908a825260158b8301527f4d696e74656420696e697469616c20737570706c79000000000000000000000060608301526020820152a11680600052600960205285600020600160ff19825416179055600a54680100000000000000008110156200065d576001810180600a558110156200085157600a6000527fc65a7bb8d6351c1cf70c95a316cc6a92839c986682d98bc35f958f4883f9d2a80180549092161790558351606081016001600160401b038111828210176200065d5785528381526020810182815290850183815284519091906001600160401b0381116200065d57600e54600181811c9116801562000846575b60208210146200063c57601f8111620007ed575b50806020601f8211600114620007745760009162000768575b508160011b916000199060031b1c191617600e555b518051906001600160401b0382116200065d57600f5490600182811c921680156200075d575b60208310146200063c5781601f849311620006f9575b50602090601f83116001146200067f5760009262000673575b50508160011b916000199060031b1c191617600f555b518051906001600160401b0382116200065d57601054600181811c9116801562000652575b60208210146200063c57601f8111620005e3575b50602090601f83116001146200054957600080516020620023f38339815191529593836200052c946200050f97946200051e946000926200053d575b50508160011b916000199060031b1c1916176010555b875195869560608752606087019062000b7f565b90858203602087015262000b7f565b908382038785015262000b7f565b0390a15161184c908162000ba78239f35b015190503880620004e5565b6010600090815260008051602062002433833981519152929190601f198516905b818110620005ca5750846200050f97946200051e94600080516020620023f38339815191529a98946200052c9860019510620005b0575b505050811b01601055620004fb565b015160001960f88460031b161c19169055388080620005a1565b929360206001819287860151815501950193016200056a565b601060005260008051602062002433833981519152601f840160051c8101916020851062000631575b601f0160051c01905b818110620006245750620004a9565b6000815560010162000615565b90915081906200060c565b634e487b7160e01b600052602260045260246000fd5b90607f169062000495565b634e487b7160e01b600052604160045260246000fd5b0151905038806200045a565b600f6000908152600080516020620024538339815191529350601f198516905b818110620006e05750908460019594939210620006c6575b505050811b01600f5562000470565b015160001960f88460031b161c19169055388080620006b7565b929360206001819287860151815501950193016200069f565b600f60005290915060008051602062002453833981519152601f840160051c8101916020851062000752575b90601f859493920160051c01905b81811062000742575062000441565b6000815584935060010162000733565b909150819062000725565b91607f16916200042b565b905086015138620003f0565b600e6000908152925060008051602062002413833981519152905b601f1983168410620007d4576001935082601f19811610620007ba575b5050811b01600e5562000405565b88015160001960f88460031b161c191690553880620007ac565b888101518255602093840193600190920191016200078f565b600e60005260008051602062002413833981519152601f830160051c810191602084106200083b575b601f0160051c01905b8181106200082e5750620003d7565b600081556001016200081f565b909150819062000816565b90607f1690620003c3565b634e487b7160e01b600052603260045260246000fd5b634e487b7160e01b600052601160045260246000fd5b8651631e4fbdf760e01b815260006004820152602490fd5b015190503880620001c9565b600460009081527f8a35acfbc15ff81a39ae7d344fd709f28e8600b4aa8c65c6b64bfe7fe36bd19b9350601f198516905b818110620009135750908460019594939210620008f9575b505050811b01600455620001df565b015160001960f88460031b161c19169055388080620008ea565b92936020600181928786015181550195019301620008d2565b60046000529091507f8a35acfbc15ff81a39ae7d344fd709f28e8600b4aa8c65c6b64bfe7fe36bd19b601f840160051c8101916020851062000996575b90601f859493920160051c01905b818110620009865750620001b0565b6000815584935060010162000977565b909150819062000969565b91607f16916200019a565b0151905038806200015f565b600360009081527fc2575a0e9e593c00f959f8c92f12db2869c3395a3b0502d05e2516446f71f85b9350601f198516905b81811062000a2a575090846001959493921062000a10575b505050811b0160035562000175565b015160001960f88460031b161c1916905538808062000a01565b92936020600181928786015181550195019301620009e9565b60036000529091507fc2575a0e9e593c00f959f8c92f12db2869c3395a3b0502d05e2516446f71f85b601f840160051c8101916020851062000aad575b90601f859493920160051c01905b81811062000a9d575062000146565b6000815584935060010162000a8e565b909150819062000a80565b91607f169162000130565b600080fd5b6040519190601f01601f191682016001600160401b038111838210176200065d57604052565b60005b83811062000b025750506000910152565b818101518382015260200162000af1565b81601f8201121562000ac35780516001600160401b0381116200065d5762000b45601f8201601f191660200162000ac8565b928184526020828401011162000ac35762000b67916020808501910162000aee565b90565b51906001600160a01b038216820362000ac357565b9060209162000b9a8151809281855285808601910162000aee565b601f01601f191601019056fe60806040818152600480361015610021575b505050361561001f57600080fd5b005b600091823560e01c93846306fdde031461114157508363095ea7b31461109857836318160ddd146110795783631adb84fd1461105a57836323b872dd14610f685783632a11ced014610f12578363313ce56714610ef6578363372500ab14610ce55783633ad10ef614610cbc578363436a88c114610ca05783634cecfbe614610c815783635dab0fe31461017f5783635f96684b1461093f57836367b9a2861461065557836370a082311461061e578363715018a6146105c0578363791b98bc146105975783638da5cb5b1461056e57836393427cd51461041557836395d89b4114610455578363a8fb7d4014610415578363a9059cbb146103e4578363bd834345146103ac578363ceefe5d11461038d578363d4d7b19a1461034f578363d73792a914610333578363dd62ed3e146102e1578363f2fde38b14610251578363f71b6681146101845750505063f963812d1461017f57388080610011565b611290565b3461024d57602036600319011261024d578135916101a061158d565b6008546102145782156101df5750816020917f0f32eddaeca0b96600faf4afdc67f1929ecfc35985aba1f8de8825d24b5e5d619360085551908152a180f35b6020606492519162461bcd60e51b8352820152601060248201526f125b9d985b1a59081d1bdad95b88125160821b6044820152fd5b6020606492519162461bcd60e51b83528201526014602482015273141bdcda5d1a5bdb88185b1c9958591e481cd95d60621b6044820152fd5b8280fd5b903461024d57602036600319011261024d5761026b61125f565b9061027461158d565b6001600160a01b039182169283156102cb575050600554826bffffffffffffffffffffffff60a01b821617600555167f8be0079c531659141344cd1fd0a4f28419497f9722a3daafe3b4186f6b6457e0600080a380f35b51631e4fbdf760e01b8152908101849052602490fd5b90503461032f578060031936011261032f576020916102fe61125f565b8261030761127a565b6001600160a01b03928316845260018652922091166000908152908352819020549051908152f35b5080fd5b90503461032f578160031936011261032f576020905160648152f35b90503461032f57602036600319011261032f5760209160ff9082906001600160a01b0361037a61125f565b1681526009855220541690519015158152f35b90503461032f578160031936011261032f576020906008549051908152f35b90503461032f57602036600319011261032f5760209181906001600160a01b036103d461125f565b168152600d845220549051908152f35b90503461032f578060031936011261032f5760209061040e61040461125f565b60243590336115b9565b5160018152f35b82346104525780600319360112610452575061042f61133a565b61044e61043a611425565b926104436114d9565b9051938493846112ac565b0390f35b80fd5b823461045257806003193601126104525750805190600090835491600183811c90808516948515610564575b6020958684108114610551579086889992858a98999a52918260001461052a5750506001146104cd575b50505061044e92916104be910385611318565b5192828493845283019061121f565b600090815286935091907f8a35acfbc15ff81a39ae7d344fd709f28e8600b4aa8c65c6b64bfe7fe36bd19b5b82841061051257505050820101816104be61044e6104ab565b8054848a0186015288955087949093019281016104f9565b60ff19168782015293151560051b860190930193508492506104be915061044e90506104ab565b634e487b7160e01b855260228952602485fd5b91607f1691610481565b90503461032f578160031936011261032f5760055490516001600160a01b039091168152602090f35b90503461032f578160031936011261032f5760075490516001600160a01b039091168152602090f35b82346104525780600319360112610452576105d961158d565b600580546001600160a01b031981169091556000906001600160a01b03167f8be0079c531659141344cd1fd0a4f28419497f9722a3daafe3b4186f6b6457e08280a380f35b90503461032f57602036600319011261032f5760209181906001600160a01b0361064661125f565b16815280845220549051908152f35b82903461032f578160031936011261032f5761066f61158d565b60085480156109045760018060a01b03600754169382519163133f757160e31b835280828401526101809560249387818681855afa97881561083a5787986108c9575b50506001600160801b0380971696871561088e5761012c420180421161087c5786519060a082019967ffffffffffffffff95838c10878d111761086a578a9b8a528352602083019081528883018a81528460608501928c8452608086019485528b5195630624e65f60e11b8752518a870152511689850152516044840152516064830152516084820152868160a4818b875af180156108605791879161079293610844575b5060085490825191610768836112e6565b82523360208301528083830152606082015281518093819263fc6f786560e01b83528883016116d0565b03818a865af1801561083a5761080e575b5060085490803b1561080a5784879287519889938492630852cd8d60e31b8452888401525af18015610800576107dc575b858060085580f35b84116107ef5750505281808080806107d4565b634e487b7160e01b85526041905283fd5b84513d88823e3d90fd5b8680fd5b61082d90863d8811610833575b6108258183611318565b8101906116ba565b506107a3565b503d61081b565b86513d89823e3d90fd5b61085a90833d8511610833576108258183611318565b50610757565b87513d8a823e3d90fd5b634e487b7160e01b8b5260418852888bfd5b634e487b7160e01b8852601185528588fd5b855162461bcd60e51b8152602081860152601681870152754e6f206c697175696469747920746f2072656d6f766560501b6044820152606490fd5b6108e9929850803d106108fd575b6108e18183611318565b810190611744565b5050505096505050505050509587806106b2565b503d6108d7565b815162461bcd60e51b815260208186015260156024820152742737903634b8bab4b234ba3c903837b9b4ba34b7b760591b6044820152606490fd5b903461024d578260031936011261024d5761095861158d565b600854908115610c4b576007548351926109b6926001600160a01b0392831691610981866112e6565b85528560209530878201526001600160801b038083830152606082015281518096819263fc6f786560e01b83528583016116d0565b03818a865af193841561083a5787908895610c29575b5080159485159081610c1f575b506109e2578780f35b600854875193849163133f757160e31b8352848301528160246101809687935afa938415610c15578994610bea575b505060288102818104602814861715610bd7576064900494601482029182046014141715610bc45760648891049385610b53575b84610a9d575b50505050907f312c5308f42848705a866c73dec11fd0783c2d64aac6a97e94467062ad3f40589360609392610a8283600c54611697565b600c55815193838552840152820152a1818080808080808780f35b600654885163a9059cbb60e01b81529082166001600160a01b0316938101938452602084018690529387938593919284929183906040010393165af18015610b4957917f312c5308f42848705a866c73dec11fd0783c2d64aac6a97e94467062ad3f405895916060959493610b1c575b82968294959650889150610a4b565b610b3b90853d8711610b42575b610b338183611318565b8101906117f1565b5087610b0d565b503d610b29565b85513d88823e3d90fd5b600554885163a9059cbb60e01b81529082166001600160a01b031684820190815260208101889052889082908190604001038186868a165af18015610bba57610b9d575b50610a45565b610bb390883d8a11610b4257610b338183611318565b5089610b97565b89513d85823e3d90fd5b634e487b7160e01b885260118252602488fd5b634e487b7160e01b895260118352602489fd5b610c01929450803d106108fd576108e18183611318565b505050505050505050915050918880610a11565b88513d8b823e3d90fd5b90501515896109d9565b9050610c43919450863d8811610833576108258183611318565b9390886109cc565b606490602084519162461bcd60e51b8352820152601060248201526f141bdcda5d1a5bdb881b9bdd081cd95d60821b6044820152fd5b90503461032f578160031936011261032f57602090600b549051908152f35b90503461032f578160031936011261032f576020905160148152f35b90503461032f578160031936011261032f5760065490516001600160a01b039091168152602090f35b3461024d578260031936011261024d573383526020908382528084205415610ec657600c548015610e8d576002543386528584528286205480830292830403610e7a578015610e675790610d4591338752600d8552838720549104611809565b928315610e3057338552600d8352818520610d61858254611697565b9055610d6f84600c54611809565b600c558480808087335af13d15610e2b573d67ffffffffffffffff8111610e1857835190610da6601f8201601f1916870183611318565b815286853d92013e5b15610de25750907ffc30cddea38e2bf4d6ea7d3f9ed3b6ad7f176419f4963bd81318067a4aee73fe91519283523392a280f35b82606492519162461bcd60e51b8352820152601260248201527108cc2d2d8cac840e8de40e6cadcc8408aa8960731b6044820152fd5b634e487b7160e01b875260418352602487fd5b610daf565b82606492519162461bcd60e51b835282015260136024820152724e6f207265776172647320746f20636c61696d60681b6044820152fd5b634e487b7160e01b865260128552602486fd5b634e487b7160e01b865260118552602486fd5b505162461bcd60e51b81529182015260146024820152734e6f207265776172647320617661696c61626c6560601b604482015260649150fd5b5162461bcd60e51b815291820152600c60248201526b2737ba1030903437b63232b960a11b604482015260649150fd5b90503461032f578160031936011261032f576020905160128152f35b903461024d57602036600319011261024d5735600a5481101561024d57600a6020935260018060a01b03907fc65a7bb8d6351c1cf70c95a316cc6a92839c986682d98bc35f958f4883f9d2a80154169051908152f35b913461045257606036600319011261045257610f8261125f565b610f8a61127a565b916044359360018060a01b038316808352600160205286832033845260205286832054916000198310610fc6575b60208861040e8989896115b9565b86831061102e5781156110175733156110005750825260016020908152868320338452815291869020908590039055829061040e87610fb8565b8751634a1406b160e11b8152908101849052602490fd5b875163e602df0560e01b8152908101849052602490fd5b8751637dc7a0d960e11b8152339181019182526020820193909352604081018790528291506060010390fd5b90503461032f578160031936011261032f57602090600c549051908152f35b90503461032f578160031936011261032f576020906002549051908152f35b903461024d578160031936011261024d576110b161125f565b60243590331561112a576001600160a01b031691821561111357508083602095338152600187528181208582528752205582519081527f8c5be1e5ebec7d5bd14f71427d1e84f3dd0314c0f7b2291e5b200ac8c7c3b925843392a35160018152f35b8351634a1406b160e11b8152908101859052602490fd5b835163e602df0560e01b8152808401869052602490fd5b9192903461032f578160031936011261032f578160035492600184811c91818616958615611215575b6020968785108114611202578899509688969785829a52918260001461052a5750506001146111a65750505061044e92916104be910385611318565b9190869350600383527fc2575a0e9e593c00f959f8c92f12db2869c3395a3b0502d05e2516446f71f85b5b8284106111ea57505050820101816104be61044e6104ab565b8054848a0186015288955087949093019281016111d1565b634e487b7160e01b835260228a52602483fd5b92607f169261116a565b919082519283825260005b84811061124b575050826000602080949584010152601f8019910116010190565b60208183018101518483018201520161122a565b600435906001600160a01b038216820361127557565b600080fd5b602435906001600160a01b038216820361127557565b3461127557600036600319011261127557602060405160288152f35b916112d5906112c76112e3959360608652606086019061121f565b90848203602086015261121f565b91604081840391015261121f565b90565b6080810190811067ffffffffffffffff82111761130257604052565b634e487b7160e01b600052604160045260246000fd5b90601f8019910116810190811067ffffffffffffffff82111761130257604052565b604051906000600e5490600182811c9080841693841561141b575b602094858410811461140757838852879493929181156113e75750600114611388575b505061138692500383611318565b565b90939150600e6000527fbb7b4a454dc3493923482f07822329ed19e8244eff582cc204f8554c3620c3fd936000915b8183106113cf57505061138693508201013880611378565b855488840185015294850194879450918301916113b7565b91505061138694925060ff191682840152151560051b8201013880611378565b634e487b7160e01b85526022600452602485fd5b91607f1691611355565b604051906000600f5490600182811c908084169384156114cf575b602094858410811461140757838852879493929181156113e7575060011461147057505061138692500383611318565b90939150600f6000527f8d1108e10bcb7c27dddfc02ed9d693a074039d026cf4ea4240b40f7d581ac802936000915b8183106114b757505061138693508201013880611378565b8554888401850152948501948794509183019161149f565b91607f1691611440565b60405190600060105490600182811c90808416938415611583575b602094858410811461140757838852879493929181156113e7575060011461152457505061138692500383611318565b9093915060106000527f1b6847dc741a1b0cd08d278845f9d819d87b734759afb55fe2de5cb82a9ae672936000915b81831061156b57505061138693508201013880611378565b85548884018501529485019487945091830191611553565b91607f16916114f4565b6005546001600160a01b031633036115a157565b60405163118cdaa760e01b8152336004820152602490fd5b916001600160a01b0380841692831561167e57169283156116655760009083825281602052604082205490838210611633575091604082827fddf252ad1be2c89b69c2b068fc378daa952ba7f163c4a11628f55a4df523b3ef958760209652828652038282205586815220818154019055604051908152a3565b60405163391434e360e21b81526001600160a01b03919091166004820152602481019190915260448101839052606490fd5b60405163ec442f0560e01b815260006004820152602490fd5b604051634b637e8f60e11b815260006004820152602490fd5b919082018092116116a457565b634e487b7160e01b600052601160045260246000fd5b9190826040910312611275576020825192015190565b919091606060808201938051835260018060a01b036020820151166020840152816001600160801b0391826040820151166040860152015116910152565b51906001600160a01b038216820361127557565b51908160020b820361127557565b51906001600160801b038216820361127557565b9190826101809103126112755781516bffffffffffffffffffffffff8116810361127557916117756020820161170e565b916117826040830161170e565b9161178f6060820161170e565b91608082015162ffffff8116810361127557916117ae60a08201611722565b916117bb60c08301611722565b916117c860e08201611730565b9161010082015191610120810151916112e36101606117ea6101408501611730565b9301611730565b90816020910312611275575180151581036112755790565b919082039182116116a45756fea2646970667358221220aa15ca00af9fc35f2baf2637a91d2490cb056671fd3b211099e773483cbf487064736f6c6343000814003341105f733c92e731673db8d7877f039f0cce3bc6436d38e5c37bce47f2a4b149bb7b4a454dc3493923482f07822329ed19e8244eff582cc204f8554c3620c3fd1b6847dc741a1b0cd08d278845f9d819d87b734759afb55fe2de5cb82a9ae6728d1108e10bcb7c27dddfc02ed9d693a074039d026cf4ea4240b40f7d581ac8023c5ad147104e56be34a9176a6692f7df8d2f4b29a5af06bc6b98970d329d6577a264697066735822122066890f98847b7d4ba83c020022919fb7d4e4ba97b0b1f56b6cb027b41556a62864736f6c63430008140033","opcodes":"PUSH1 0x80 CALLVALUE PUSH3 0x265 JUMPI PUSH1 0x1F PUSH3 0x4BE5 CODESIZE DUP2 SWAP1 SUB SWAP2 DUP3 ADD PUSH1 0x1F NOT AND DUP4 ADD SWAP3 SWAP2 SWAP1 PUSH1 0x1 PUSH1 0x1 PUSH1 0x40 SHL SUB DUP5 GT DUP4 DUP6 LT OR PUSH3 0x26A JUMPI DUP2 PUSH1 0xA0 SWAP3 DUP5 SWAP3 PUSH1 0x40 SWAP7 DUP8 MSTORE DUP4 CODECOPY DUP2 ADD SUB SLT PUSH3 0x265 JUMPI PUSH3 0x51 DUP2 PUSH3 0x280 JUMP JUMPDEST SWAP1 PUSH1 0x20 SWAP2 PUSH3 0x62 DUP4 DUP4 ADD PUSH3 0x280 JUMP JUMPDEST SWAP2 PUSH3 0x70 DUP6 DUP3 ADD PUSH3 0x280 JUMP JUMPDEST PUSH3 0x8C PUSH1 0x80 PUSH3 0x84 PUSH1 0x60 DUP6 ADD PUSH3 0x280 JUMP JUMPDEST SWAP4 ADD PUSH3 0x280 JUMP JUMPDEST SWAP2 CALLER ISZERO PUSH3 0x24D JUMPI PUSH1 0x0 SLOAD PUSH1 0x1 DUP1 PUSH1 0xA0 SHL SUB NOT SWAP6 CALLER DUP8 DUP4 AND OR PUSH1 0x0 SSTORE DUP9 MLOAD SWAP2 PUSH1 0x1 DUP1 PUSH1 0xA0 SHL SUB SWAP7 DUP8 SWAP2 DUP3 CALLER SWAP2 AND PUSH32 0x8BE0079C531659141344CD1FD0A4F28419497F9722A3DAAFE3B4186F6B6457E0 PUSH1 0x0 DUP1 LOG3 AND SWAP2 DUP3 ISZERO PUSH3 0x20B JUMPI POP DUP6 AND SWAP3 DUP4 ISZERO PUSH3 0x1C9 JUMPI DUP6 AND SWAP2 DUP3 ISZERO PUSH3 0x185 JUMPI DUP6 AND SWAP7 DUP8 ISZERO PUSH3 0x142 JUMPI POP DUP6 PUSH1 0x1 SLOAD AND OR PUSH1 0x1 SSTORE DUP5 PUSH1 0x3 SLOAD AND OR PUSH1 0x3 SSTORE DUP4 PUSH1 0x4 SLOAD AND OR PUSH1 0x4 SSTORE AND DUP2 PUSH1 0x5 SLOAD AND OR PUSH1 0x5 SSTORE PUSH1 0x2 SLOAD AND OR PUSH1 0x2 SSTORE MLOAD PUSH2 0x494F SWAP1 DUP2 PUSH3 0x296 DUP3 CODECOPY RETURN JUMPDEST PUSH1 0x64 SWAP1 DUP10 MLOAD SWAP1 PUSH3 0x461BCD PUSH1 0xE5 SHL DUP3 MSTORE PUSH1 0x4 DUP3 ADD MSTORE PUSH1 0x14 PUSH1 0x24 DUP3 ADD MSTORE PUSH32 0x496E76616C696420574554482061646472657373000000000000000000000000 PUSH1 0x44 DUP3 ADD MSTORE REVERT JUMPDEST DUP9 MLOAD PUSH3 0x461BCD PUSH1 0xE5 SHL DUP2 MSTORE PUSH1 0x4 DUP2 ADD DUP10 SWAP1 MSTORE PUSH1 0x17 PUSH1 0x24 DUP3 ADD MSTORE PUSH32 0x496E76616C696420666163746F72792061646472657373000000000000000000 PUSH1 0x44 DUP3 ADD MSTORE PUSH1 0x64 SWAP1 REVERT JUMPDEST PUSH1 0x64 DUP9 DUP11 MLOAD SWAP1 PUSH3 0x461BCD PUSH1 0xE5 SHL DUP3 MSTORE DUP1 PUSH1 0x4 DUP4 ADD MSTORE PUSH1 0x24 DUP3 ADD MSTORE PUSH32 0x496E76616C696420706F736974696F6E206D616E616765722061646472657373 PUSH1 0x44 DUP3 ADD MSTORE REVERT JUMPDEST PUSH3 0x461BCD PUSH1 0xE5 SHL DUP2 MSTORE PUSH1 0x4 DUP2 ADD DUP10 SWAP1 MSTORE PUSH1 0x13 PUSH1 0x24 DUP3 ADD MSTORE PUSH32 0x496E76616C696420646576206164647265737300000000000000000000000000 PUSH1 0x44 DUP3 ADD MSTORE PUSH1 0x64 SWAP1 REVERT JUMPDEST DUP7 MLOAD PUSH4 0x1E4FBDF7 PUSH1 0xE0 SHL DUP2 MSTORE PUSH1 0x0 PUSH1 0x4 DUP3 ADD MSTORE PUSH1 0x24 SWAP1 REVERT JUMPDEST PUSH1 0x0 DUP1 REVERT JUMPDEST PUSH4 0x4E487B71 PUSH1 0xE0 SHL PUSH1 0x0 MSTORE PUSH1 0x41 PUSH1 0x4 MSTORE PUSH1 0x24 PUSH1 0x0 REVERT JUMPDEST MLOAD SWAP1 PUSH1 0x1 PUSH1 0x1 PUSH1 0xA0 SHL SUB DUP3 AND DUP3 SUB PUSH3 0x265 JUMPI JUMP INVALID PUSH1 0x80 DUP1 PUSH1 0x40 MSTORE PUSH1 0x4 CALLDATASIZE LT ISZERO PUSH3 0x1F JUMPI JUMPDEST POP CALLDATASIZE ISZERO PUSH3 0x1D JUMPI PUSH1 0x0 DUP1 REVERT JUMPDEST STOP JUMPDEST PUSH1 0x0 SWAP1 DUP2 CALLDATALOAD PUSH1 0xE0 SHR SWAP1 DUP2 PUSH4 0x28D249FE EQ PUSH3 0x219D JUMPI POP DUP1 PUSH4 0x2A5C792A EQ PUSH3 0x20CF JUMPI DUP1 PUSH4 0x3AD10EF6 EQ PUSH3 0x20A4 JUMPI DUP1 PUSH4 0x3FC8CEF3 EQ PUSH3 0x2079 JUMPI DUP1 PUSH4 0x4C69A6C9 EQ PUSH3 0x205A JUMPI DUP1 PUSH4 0x5B549182 EQ PUSH3 0x202F JUMPI DUP1 PUSH4 0x634282AF EQ PUSH3 0x1FE6 JUMPI DUP1 PUSH4 0x715018A6 EQ PUSH3 0x1F88 JUMPI DUP1 PUSH4 0x791B98BC EQ PUSH3 0x1F5D JUMPI DUP1 PUSH4 0x8DA5CB5B EQ PUSH3 0x1F34 JUMPI DUP1 PUSH4 0xC31C9C07 EQ PUSH3 0x1F09 JUMPI DUP1 PUSH4 0xE086E5EC EQ PUSH3 0x1E8C JUMPI DUP1 PUSH4 0xF2FDE38B EQ PUSH3 0x1DFF JUMPI PUSH4 0xFE658A17 SUB PUSH3 0x10 JUMPI PUSH1 0xC0 CALLDATASIZE PUSH1 0x3 NOT ADD SLT PUSH3 0x1C9F JUMPI PUSH1 0x4 CALLDATALOAD PUSH8 0xFFFFFFFFFFFFFFFF DUP2 GT PUSH3 0xA38 JUMPI PUSH3 0x100 SWAP1 CALLDATASIZE SWAP1 PUSH1 0x4 ADD PUSH3 0x2277 JUMP JUMPDEST PUSH1 0x24 CALLDATALOAD PUSH8 0xFFFFFFFFFFFFFFFF DUP2 GT PUSH3 0x16B4 JUMPI PUSH3 0x123 SWAP1 CALLDATASIZE SWAP1 PUSH1 0x4 ADD PUSH3 0x2277 JUMP JUMPDEST PUSH1 0x44 CALLDATALOAD SWAP1 PUSH1 0x1 PUSH1 0x1 PUSH1 0xA0 SHL SUB DUP3 AND DUP3 SUB PUSH3 0x1629 JUMPI PUSH1 0x64 CALLDATALOAD PUSH8 0xFFFFFFFFFFFFFFFF DUP2 GT PUSH3 0x1650 JUMPI PUSH3 0x15B SWAP1 CALLDATASIZE SWAP1 PUSH1 0x4 ADD PUSH3 0x2277 JUMP JUMPDEST SWAP3 PUSH1 0x84 CALLDATALOAD PUSH8 0xFFFFFFFFFFFFFFFF DUP2 GT PUSH3 0x1DFB JUMPI PUSH3 0x17F SWAP1 CALLDATASIZE SWAP1 PUSH1 0x4 ADD PUSH3 0x2277 JUMP JUMPDEST SWAP3 PUSH1 0xA4 CALLDATALOAD PUSH8 0xFFFFFFFFFFFFFFFF DUP2 GT PUSH3 0x1DF7 JUMPI PUSH3 0x1A3 SWAP1 CALLDATASIZE SWAP1 PUSH1 0x4 ADD PUSH3 0x2277 JUMP JUMPDEST SWAP4 PUSH3 0x1AE PUSH3 0x22D3 JUMP JUMPDEST PUSH1 0x0 DUP1 MLOAD PUSH1 0x20 PUSH3 0x48FA DUP4 CODECOPY DUP2 MLOAD SWAP2 MSTORE PUSH1 0x80 PUSH1 0x40 MLOAD PUSH1 0x40 DUP2 MSTORE PUSH1 0x15 PUSH1 0x40 DUP3 ADD MSTORE PUSH21 0x436865636B696E6720726571756972656D656E7473 PUSH1 0x58 SHL PUSH1 0x60 DUP3 ADD MSTORE CALLVALUE PUSH1 0x20 DUP3 ADD MSTORE LOG1 PUSH1 0x1 PUSH1 0x1 PUSH1 0xA0 SHL SUB DUP3 DUP2 AND DUP9 MSTORE PUSH1 0x6 PUSH1 0x20 MSTORE PUSH1 0x40 DUP9 KECCAK256 SLOAD AND PUSH3 0x1DA7 JUMPI PUSH1 0x1 PUSH1 0x1 PUSH1 0xA0 SHL SUB DUP3 AND ISZERO PUSH3 0x1D6C JUMPI PUSH1 0x0 DUP1 MLOAD PUSH1 0x20 PUSH3 0x48FA DUP4 CODECOPY DUP2 MLOAD SWAP2 MSTORE PUSH1 0x80 PUSH1 0x40 MLOAD PUSH1 0x40 DUP2 MSTORE PUSH1 0x15 PUSH1 0x40 DUP3 ADD MSTORE PUSH21 0x2232B83637BCB4B7339029B7B1B4B0B62A37B5B2B7 PUSH1 0x59 SHL PUSH1 0x60 DUP3 ADD MSTORE DUP10 PUSH1 0x20 DUP3 ADD MSTORE LOG1 PUSH1 0x1 SLOAD PUSH1 0x4 SLOAD PUSH1 0x40 MLOAD SWAP2 PUSH1 0x1 PUSH1 0x1 PUSH1 0xA0 SHL SUB SWAP1 DUP2 AND SWAP2 AND PUSH8 0xFFFFFFFFFFFFFFFF PUSH2 0x2473 DUP5 ADD SWAP1 DUP2 GT SWAP1 DUP5 GT OR PUSH3 0x1D58 JUMPI PUSH3 0x331 PUSH3 0x31A DUP5 SWAP4 PUSH3 0x348 SWAP4 PUSH2 0x2473 PUSH3 0x2487 DUP8 CODECOPY PUSH2 0x100 PUSH2 0x2473 DUP8 ADD MSTORE PUSH3 0x2E6 PUSH3 0x2CF PUSH2 0x100 PUSH2 0x2473 DUP10 ADD ADD DUP13 PUSH3 0x2325 JUMP JUMPDEST PUSH2 0x2473 DUP9 ADD DUP2 SUB PUSH1 0x20 PUSH2 0x2473 DUP11 ADD ADD MSTORE DUP13 PUSH3 0x2325 JUMP JUMPDEST SWAP2 ADDRESS PUSH1 0x40 PUSH2 0x2473 DUP10 ADD ADD MSTORE PUSH1 0x60 PUSH2 0x2473 DUP9 ADD ADD MSTORE PUSH1 0x80 PUSH2 0x2473 DUP8 ADD ADD MSTORE PUSH2 0x2473 DUP6 ADD DUP2 SUB PUSH1 0xA0 PUSH2 0x2473 DUP8 ADD ADD MSTORE DUP12 PUSH3 0x2325 JUMP JUMPDEST PUSH2 0x2473 DUP5 ADD DUP2 SUB PUSH1 0xC0 PUSH2 0x2473 DUP7 ADD ADD MSTORE DUP6 PUSH3 0x2325 JUMP JUMPDEST PUSH2 0x2473 DUP4 ADD DUP2 SUB PUSH1 0xE0 PUSH2 0x2473 DUP6 ADD ADD MSTORE DUP9 PUSH3 0x2325 JUMP JUMPDEST SUB SWAP1 DUP9 CREATE DUP1 ISZERO PUSH3 0x1D4D JUMPI PUSH1 0x1 PUSH1 0x1 PUSH1 0xA0 SHL SUB DUP4 DUP2 AND DUP10 MSTORE PUSH1 0x6 PUSH1 0x20 MSTORE PUSH1 0x40 DUP10 KECCAK256 DUP1 SLOAD PUSH1 0x1 PUSH1 0x1 PUSH1 0xA0 SHL SUB NOT AND SWAP3 SWAP1 SWAP2 AND SWAP2 DUP3 OR SWAP1 SSTORE PUSH1 0x7 SLOAD SWAP1 SWAP7 SWAP1 PUSH9 0x10000000000000000 DUP2 LT ISZERO PUSH3 0x1D39 JUMPI DUP1 PUSH1 0x1 PUSH3 0x3A8 SWAP3 ADD PUSH1 0x7 SSTORE PUSH3 0x21F1 JUMP JUMPDEST DUP2 SLOAD PUSH1 0x1 PUSH1 0x1 PUSH1 0xA0 SHL SUB PUSH1 0x3 SWAP3 SWAP1 SWAP3 SHL SWAP2 DUP3 SHL NOT AND SWAP1 DUP10 SWAP1 SHL OR SWAP1 SSTORE PUSH1 0x40 MLOAD PUSH4 0x70A08231 PUSH1 0xE0 SHL DUP2 MSTORE ADDRESS PUSH1 0x4 DUP3 ADD MSTORE PUSH1 0x20 DUP2 PUSH1 0x24 DUP2 DUP12 GAS STATICCALL SWAP1 DUP2 ISZERO PUSH3 0x15F9 JUMPI DUP10 SWAP2 PUSH3 0x1CFD JUMPI JUMPDEST POP PUSH1 0x0 DUP1 MLOAD PUSH1 0x20 PUSH3 0x48FA DUP4 CODECOPY DUP2 MLOAD SWAP2 MSTORE PUSH1 0x80 PUSH1 0x40 MLOAD PUSH1 0x40 DUP2 MSTORE PUSH1 0x15 PUSH1 0x40 DUP3 ADD MSTORE PUSH21 0x496E697469616C20746F6B656E2062616C616E6365 PUSH1 0x58 SHL PUSH1 0x60 DUP3 ADD MSTORE DUP4 PUSH1 0x20 DUP3 ADD MSTORE LOG1 PUSH1 0x0 DUP1 MLOAD PUSH1 0x20 PUSH3 0x48FA DUP4 CODECOPY DUP2 MLOAD SWAP2 MSTORE PUSH1 0xA0 PUSH1 0x40 MLOAD PUSH1 0x40 DUP2 MSTORE PUSH1 0x2F PUSH1 0x40 DUP3 ADD MSTORE PUSH32 0x417070726F76696E6720746F6B656E7320666F72204E6F6E66756E6769626C65 PUSH1 0x60 DUP3 ADD MSTORE PUSH15 0x2837B9B4BA34B7B726B0B730B3B2B9 PUSH1 0x89 SHL PUSH1 0x80 DUP3 ADD MSTORE DUP4 PUSH1 0x20 DUP3 ADD MSTORE LOG1 PUSH1 0x4 DUP1 SLOAD PUSH1 0x40 MLOAD PUSH4 0x95EA7B3 PUSH1 0xE0 SHL DUP2 MSTORE PUSH1 0x1 PUSH1 0x1 PUSH1 0xA0 SHL SUB SWAP1 SWAP2 AND SWAP2 DUP2 ADD SWAP2 SWAP1 SWAP2 MSTORE PUSH1 0x24 DUP2 ADD DUP3 SWAP1 MSTORE PUSH1 0x20 DUP2 PUSH1 0x44 DUP2 DUP14 DUP14 GAS CALL SWAP1 DUP2 ISZERO PUSH3 0x1C7E JUMPI DUP11 SWAP2 PUSH3 0x1CD9 JUMPI JUMPDEST POP ISZERO PUSH3 0x1CA2 JUMPI PUSH1 0x2 SLOAD PUSH1 0x1 PUSH1 0x1 PUSH1 0xA0 SHL SUB AND DUP10 DUP2 EXTCODESIZE ISZERO PUSH3 0x1C9F JUMPI PUSH1 0x40 MLOAD PUSH4 0xD0E30DB PUSH1 0xE4 SHL DUP2 MSTORE SWAP2 DUP3 SWAP1 PUSH1 0x4 SWAP1 DUP3 SWAP1 CALLVALUE SWAP1 GAS CALL DUP1 ISZERO PUSH3 0x1C7E JUMPI PUSH3 0x1C89 JUMPI JUMPDEST POP PUSH1 0x2 SLOAD PUSH1 0x4 DUP1 SLOAD PUSH1 0x40 MLOAD PUSH4 0x95EA7B3 PUSH1 0xE0 SHL DUP2 MSTORE PUSH1 0x1 PUSH1 0x1 PUSH1 0xA0 SHL SUB SWAP2 DUP3 AND SWAP3 DUP2 ADD SWAP3 SWAP1 SWAP3 MSTORE CALLVALUE PUSH1 0x24 DUP4 ADD MSTORE SWAP1 SWAP2 PUSH1 0x20 SWAP2 DUP4 SWAP2 PUSH1 0x44 SWAP2 DUP4 SWAP2 DUP16 SWAP2 AND GAS CALL SWAP1 DUP2 ISZERO PUSH3 0x1C7E JUMPI DUP11 SWAP2 PUSH3 0x1C48 JUMPI JUMPDEST POP ISZERO PUSH3 0x1C0C JUMPI PUSH1 0x3 SLOAD PUSH1 0x40 MLOAD PUSH4 0x22AFCCCB PUSH1 0xE0 SHL DUP2 MSTORE PUSH2 0xBB8 PUSH1 0x4 DUP3 ADD MSTORE SWAP2 SWAP1 PUSH1 0x1 PUSH1 0x1 PUSH1 0xA0 SHL SUB AND PUSH1 0x20 DUP4 PUSH1 0x24 DUP2 DUP5 GAS STATICCALL SWAP3 DUP4 ISZERO PUSH3 0x1C01 JUMPI DUP12 SWAP4 PUSH3 0x1BBC JUMPI JUMPDEST POP PUSH32 0xF5D2CD60F752FF8CA00B1FC30EA4D78C233ECA72C1ED58D0D62424E09F0951E PUSH1 0x80 PUSH1 0x40 MLOAD PUSH1 0x40 DUP2 MSTORE PUSH1 0xB PUSH1 0x40 DUP3 ADD MSTORE PUSH11 0x5469636B53706163696E67 PUSH1 0xA8 SHL PUSH1 0x60 DUP3 ADD MSTORE DUP6 PUSH1 0x2 SIGNEXTEND PUSH1 0x20 DUP3 ADD MSTORE LOG1 DUP3 PUSH1 0x2 SIGNEXTEND ISZERO PUSH3 0x1BA8 JUMPI DUP3 PUSH1 0x2 SIGNEXTEND DUP4 PUSH1 0x2 SIGNEXTEND PUSH3 0xD89B3 NOT SDIV PUSH1 0x2 SIGNEXTEND MUL SWAP1 DUP2 DUP1 PUSH1 0x2 SIGNEXTEND SUB PUSH3 0x16C1 JUMPI PUSH32 0xF5D2CD60F752FF8CA00B1FC30EA4D78C233ECA72C1ED58D0D62424E09F0951E PUSH1 0x80 PUSH1 0x40 MLOAD PUSH1 0x40 DUP2 MSTORE PUSH1 0xE PUSH1 0x40 DUP3 ADD MSTORE PUSH14 0x4D696E5469636B53706163696E67 PUSH1 0x90 SHL PUSH1 0x60 DUP3 ADD MSTORE DUP5 PUSH1 0x2 SIGNEXTEND PUSH1 0x20 DUP3 ADD MSTORE LOG1 PUSH32 0xF5D2CD60F752FF8CA00B1FC30EA4D78C233ECA72C1ED58D0D62424E09F0951E PUSH1 0x80 PUSH1 0x40 MLOAD PUSH1 0x40 DUP2 MSTORE PUSH1 0xE PUSH1 0x40 DUP3 ADD MSTORE PUSH14 0x4D61785469636B53706163696E67 PUSH1 0x90 SHL PUSH1 0x60 DUP3 ADD MSTORE DUP7 DUP1 PUSH1 0x2 SIGNEXTEND PUSH3 0xD89E8 SDIV MUL PUSH1 0x2 SIGNEXTEND PUSH1 0x20 DUP3 ADD MSTORE LOG1 DUP12 DUP3 PUSH1 0x2 SIGNEXTEND SLT PUSH1 0x0 EQ PUSH3 0x1B9E JUMPI PUSH1 0x2 DUP3 SWAP1 SIGNEXTEND PUSH1 0x1 PUSH1 0xFF SHL EQ PUSH3 0x16C1 JUMPI DUP2 PUSH1 0x2 SIGNEXTEND DUP13 SUB JUMPDEST PUSH3 0xD89E8 DUP2 GT PUSH3 0x1B75 JUMPI DUP13 SWAP2 PUSH1 0x1 DUP3 AND ISZERO PUSH3 0x1B62 JUMPI PUSH1 0x1 PUSH1 0x1 PUSH1 0x88 SHL SUB PUSH16 0xFFFCB933BD6FAD37AA2D162D1A594001 JUMPDEST AND SWAP2 PUSH1 0x2 DUP2 AND PUSH3 0x1B2E JUMPI JUMPDEST PUSH1 0x4 DUP2 AND PUSH3 0x1AFA JUMPI JUMPDEST PUSH1 0x8 DUP2 AND PUSH3 0x1AC6 JUMPI JUMPDEST PUSH1 0x10 DUP2 AND PUSH3 0x1A92 JUMPI JUMPDEST PUSH1 0x20 DUP2 AND PUSH3 0x1A5E JUMPI JUMPDEST PUSH1 0x40 DUP2 AND PUSH3 0x1A2A JUMPI JUMPDEST PUSH1 0x80 DUP2 AND PUSH3 0x19F6 JUMPI JUMPDEST PUSH2 0x100 DUP2 AND PUSH3 0x19C2 JUMPI JUMPDEST PUSH2 0x200 DUP2 AND PUSH3 0x198E JUMPI JUMPDEST PUSH2 0x400 DUP2 AND PUSH3 0x195A JUMPI JUMPDEST PUSH2 0x800 DUP2 AND PUSH3 0x1926 JUMPI JUMPDEST PUSH2 0x1000 DUP2 AND PUSH3 0x18F2 JUMPI JUMPDEST PUSH2 0x2000 DUP2 AND PUSH3 0x18BE JUMPI JUMPDEST PUSH2 0x4000 DUP2 AND PUSH3 0x188A JUMPI JUMPDEST PUSH2 0x8000 DUP2 AND PUSH3 0x1856 JUMPI JUMPDEST PUSH3 0x10000 DUP2 AND PUSH3 0x1822 JUMPI JUMPDEST PUSH3 0x20000 DUP2 AND PUSH3 0x17EF JUMPI JUMPDEST PUSH3 0x40000 DUP2 AND PUSH3 0x17A9 JUMPI JUMPDEST PUSH3 0x80000 AND PUSH3 0x1767 JUMPI JUMPDEST DUP3 DUP5 PUSH1 0x2 SIGNEXTEND SGT PUSH3 0x173C JUMPI JUMPDEST PUSH1 0x0 DUP1 MLOAD PUSH1 0x20 PUSH3 0x48FA DUP4 CODECOPY DUP2 MLOAD SWAP2 MSTORE PUSH1 0x80 PUSH1 0x40 MLOAD PUSH1 0x40 DUP2 MSTORE PUSH1 0xC PUSH1 0x40 DUP3 ADD MSTORE PUSH12 0x39B8B93A283934B1B2AC1C9B PUSH1 0xA1 SHL PUSH1 0x60 DUP3 ADD MSTORE PUSH1 0x1 DUP1 PUSH1 0xA0 SHL SUB DUP8 PUSH1 0x2 SIGNEXTEND ISZERO ISZERO PUSH1 0xE0 SHL PUSH4 0xFFFFFFFF DUP8 ADD PUSH1 0x20 SHR OR AND PUSH1 0x20 DUP3 ADD MSTORE LOG1 PUSH1 0x0 DUP1 MLOAD PUSH1 0x20 PUSH3 0x48FA DUP4 CODECOPY DUP2 MLOAD SWAP2 MSTORE PUSH1 0x80 PUSH1 0x40 MLOAD PUSH1 0x40 DUP2 MSTORE PUSH1 0x11 PUSH1 0x40 DUP3 ADD MSTORE PUSH17 0x10DC99585D1A5B99C81B995DC81C1BDBDB PUSH1 0x7A SHL PUSH1 0x60 DUP3 ADD MSTORE DUP6 PUSH1 0x20 DUP3 ADD MSTORE LOG1 PUSH1 0x20 DUP14 PUSH1 0x64 PUSH1 0x1 DUP1 PUSH1 0xA0 SHL SUB PUSH1 0x2 SLOAD AND DUP7 PUSH1 0x40 MLOAD SWAP6 DUP7 SWAP5 DUP6 SWAP4 PUSH4 0xA1671295 PUSH1 0xE0 SHL DUP6 MSTORE PUSH1 0x4 DUP6 ADD MSTORE PUSH1 0x24 DUP5 ADD MSTORE PUSH2 0xBB8 PUSH1 0x44 DUP5 ADD MSTORE GAS CALL DUP4 SWAP2 DUP2 PUSH3 0x16F1 JUMPI JUMPDEST POP PUSH3 0xA47 JUMPI DUP3 PUSH3 0x8F2 PUSH3 0x2366 JUMP JUMPDEST PUSH4 0x8C379A0 EQ PUSH3 0x90A JUMPI JUMPDEST PUSH1 0x40 MLOAD SWAP1 RETURNDATASIZE SWAP1 DUP3 RETURNDATACOPY RETURNDATASIZE SWAP1 REVERT JUMPDEST PUSH3 0x914 PUSH3 0x2385 JUMP JUMPDEST DUP1 PUSH3 0x921 JUMPI POP PUSH3 0x8FE JUMP JUMPDEST PUSH1 0x2 SLOAD DUP3 SWAP1 PUSH1 0x1 PUSH1 0x1 PUSH1 0xA0 SHL SUB AND DUP1 EXTCODESIZE ISZERO PUSH3 0xA38 JUMPI DUP2 SWAP1 PUSH1 0x24 PUSH1 0x40 MLOAD DUP1 SWAP5 DUP2 SWAP4 PUSH4 0x2E1A7D4D PUSH1 0xE0 SHL DUP4 MSTORE CALLVALUE PUSH1 0x4 DUP5 ADD MSTORE GAS CALL DUP1 ISZERO PUSH3 0xA3C JUMPI PUSH3 0xA20 JUMPI JUMPDEST POP PUSH1 0x0 DUP1 MLOAD PUSH1 0x20 PUSH3 0x48FA DUP4 CODECOPY DUP2 MLOAD SWAP2 MSTORE PUSH1 0x80 PUSH3 0xA1C SWAP4 PUSH1 0x40 MLOAD SWAP1 PUSH1 0x40 DUP3 MSTORE PUSH1 0x14 PUSH1 0x40 DUP4 ADD MSTORE PUSH20 0x141BDBDB0818DC99585D1A5BDB8819985A5B1959 PUSH1 0x62 SHL PUSH1 0x60 DUP4 ADD MSTORE PUSH1 0x20 DUP3 ADD MSTORE LOG1 PUSH3 0x9FB PUSH1 0x36 PUSH1 0x40 MLOAD DUP1 SWAP4 PUSH22 0x2837B7B61031B932B0BA34B7B7103330B4B632B21D1 PUSH1 0x55 SHL PUSH1 0x20 DUP4 ADD MSTORE PUSH3 0x9EA DUP2 MLOAD DUP1 SWAP3 PUSH1 0x20 DUP7 DUP7 ADD SWAP2 ADD PUSH3 0x2300 JUMP JUMPDEST DUP2 ADD SUB PUSH1 0x16 DUP2 ADD DUP5 MSTORE ADD DUP3 PUSH3 0x2254 JUMP JUMPDEST PUSH1 0x40 MLOAD PUSH3 0x461BCD PUSH1 0xE5 SHL DUP2 MSTORE PUSH1 0x20 PUSH1 0x4 DUP3 ADD MSTORE SWAP2 DUP3 SWAP2 PUSH1 0x24 DUP4 ADD SWAP1 PUSH3 0x2325 JUMP JUMPDEST SUB SWAP1 REVERT JUMPDEST PUSH3 0xA2C DUP4 SWAP2 PUSH3 0x223F JUMP JUMPDEST PUSH3 0xA38 JUMPI DUP3 PUSH3 0x961 JUMP JUMPDEST POP DUP1 REVERT JUMPDEST PUSH1 0x40 MLOAD RETURNDATASIZE DUP6 DUP3 RETURNDATACOPY RETURNDATASIZE SWAP1 REVERT JUMPDEST SWAP1 PUSH1 0x0 DUP1 MLOAD PUSH1 0x20 PUSH3 0x48FA DUP4 CODECOPY DUP2 MLOAD SWAP2 MSTORE PUSH1 0x80 PUSH1 0x40 MLOAD PUSH1 0x40 DUP2 MSTORE PUSH1 0x1C PUSH1 0x40 DUP3 ADD MSTORE PUSH32 0x506F6F6C206372656174656420616E6420696E697469616C697A656400000000 PUSH1 0x60 DUP3 ADD MSTORE DUP6 PUSH1 0x20 DUP3 ADD MSTORE LOG1 PUSH1 0x0 DUP1 MLOAD PUSH1 0x20 PUSH3 0x48FA DUP4 CODECOPY DUP2 MLOAD SWAP2 MSTORE PUSH1 0x80 PUSH1 0x40 MLOAD PUSH1 0x40 DUP2 MSTORE PUSH1 0x12 PUSH1 0x40 DUP3 ADD MSTORE PUSH18 0x24B734BA34B0B634BD34B733903837B7B61 PUSH1 0x75 SHL PUSH1 0x60 DUP3 ADD MSTORE DUP6 PUSH1 0x20 DUP3 ADD MSTORE LOG1 PUSH1 0x1 PUSH1 0x1 PUSH1 0xA0 SHL SUB DUP3 AND EXTCODESIZE ISZERO PUSH3 0x16B4 JUMPI PUSH1 0x40 MLOAD PUSH4 0xF637731D PUSH1 0xE0 SHL DUP2 MSTORE PUSH4 0xFFFFFFFF SWAP1 SWAP2 ADD PUSH1 0x20 SHR PUSH1 0x2 DUP6 SWAP1 SIGNEXTEND ISZERO ISZERO PUSH1 0xE0 SHL OR PUSH1 0x1 PUSH1 0x1 PUSH1 0xA0 SHL SUB SWAP1 DUP2 AND PUSH1 0x4 DUP4 ADD MSTORE SWAP1 SWAP3 SWAP2 DUP3 SWAP2 DUP5 SWAP2 PUSH1 0x24 SWAP2 DUP4 SWAP2 DUP6 SWAP2 AND GAS CALL SWAP2 DUP3 PUSH3 0x16D5 JUMPI JUMPDEST POP POP PUSH3 0xC80 JUMPI DUP11 PUSH3 0xB46 PUSH3 0x2366 JUMP JUMPDEST PUSH4 0x8C379A0 EQ PUSH3 0xBA5 JUMPI JUMPDEST PUSH1 0x0 DUP1 MLOAD PUSH1 0x20 PUSH3 0x48FA DUP4 CODECOPY DUP2 MLOAD SWAP2 MSTORE SWAP1 PUSH1 0x40 MLOAD DUP1 SWAP2 PUSH1 0x40 DUP3 MSTORE PUSH3 0xB7A PUSH1 0x40 DUP4 ADD PUSH3 0x23FD JUMP JUMPDEST SWAP1 PUSH1 0x20 DUP4 ADD MSTORE SUB SWAP1 LOG1 PUSH1 0x40 MLOAD PUSH3 0x461BCD PUSH1 0xE5 SHL DUP2 MSTORE PUSH1 0x20 PUSH1 0x4 DUP3 ADD MSTORE DUP1 PUSH3 0xA1C PUSH1 0x24 DUP3 ADD PUSH3 0x23FD JUMP JUMPDEST PUSH3 0xBAF PUSH3 0x2385 JUMP JUMPDEST DUP1 PUSH3 0xBBC JUMPI POP PUSH3 0xB52 JUMP JUMPDEST PUSH3 0x9FB PUSH1 0x3C PUSH3 0xA1C SWAP4 PUSH1 0x40 MLOAD SWAP1 PUSH1 0x0 DUP1 MLOAD PUSH1 0x20 PUSH3 0x48FA DUP4 CODECOPY DUP2 MLOAD SWAP2 MSTORE PUSH3 0xC4A PUSH32 0x506F6F6C20696E697469616C697A6174696F6E206661696C65643A2000000000 SWAP4 DUP5 PUSH1 0x20 DUP3 ADD MSTORE DUP8 MLOAD SWAP4 PUSH3 0xC35 DUP8 DUP4 PUSH1 0x20 DUP13 ADD SWAP8 PUSH3 0xC24 DUP2 DUP5 DUP5 ADD DUP12 PUSH3 0x2300 JUMP JUMPDEST DUP2 ADD SUB PUSH1 0x1C DUP2 ADD DUP6 MSTORE ADD DUP4 PUSH3 0x2254 JUMP JUMPDEST PUSH1 0x40 MLOAD SWAP3 DUP4 SWAP3 PUSH1 0x40 DUP5 MSTORE PUSH1 0x40 DUP5 ADD SWAP1 PUSH3 0x2325 JUMP JUMPDEST SWAP1 PUSH1 0x20 DUP4 ADD MSTORE SUB SWAP1 LOG1 PUSH3 0xC6F PUSH1 0x40 MLOAD SWAP6 DUP7 SWAP4 PUSH1 0x20 DUP6 ADD MSTORE MLOAD DUP1 SWAP3 DUP6 DUP6 ADD SWAP1 PUSH3 0x2300 JUMP JUMPDEST DUP2 ADD SUB PUSH1 0x1C DUP2 ADD DUP5 MSTORE ADD DUP3 PUSH3 0x2254 JUMP JUMPDEST PUSH1 0x0 DUP1 MLOAD PUSH1 0x20 PUSH3 0x48FA DUP4 CODECOPY DUP2 MLOAD SWAP2 MSTORE PUSH1 0x80 PUSH1 0x40 MLOAD PUSH1 0x40 DUP2 MSTORE PUSH1 0x10 PUSH1 0x40 DUP3 ADD MSTORE PUSH16 0x141BDBDB081A5B9A5D1A585B1A5E9959 PUSH1 0x82 SHL PUSH1 0x60 DUP3 ADD MSTORE DUP14 PUSH1 0x20 DUP3 ADD MSTORE LOG1 PUSH1 0x0 DUP1 MLOAD PUSH1 0x20 PUSH3 0x48FA DUP4 CODECOPY DUP2 MLOAD SWAP2 MSTORE PUSH1 0x80 PUSH1 0x40 MLOAD PUSH1 0x40 DUP2 MSTORE PUSH1 0x1A PUSH1 0x40 DUP3 ADD MSTORE PUSH32 0x4D696E74696E67206C697175696469747920706F736974696F6E000000000000 PUSH1 0x60 DUP3 ADD MSTORE CALLVALUE PUSH1 0x20 DUP3 ADD MSTORE LOG1 PUSH1 0x2 SLOAD PUSH1 0x1 PUSH1 0x1 PUSH1 0xA0 SHL SUB AND TIMESTAMP PUSH2 0x12C DUP2 ADD LT PUSH3 0x16C1 JUMPI PUSH1 0x40 MLOAD SWAP3 DUP4 PUSH2 0x160 DUP2 ADD LT PUSH8 0xFFFFFFFFFFFFFFFF PUSH2 0x160 DUP7 ADD GT OR PUSH3 0x1574 JUMPI DUP13 SWAP5 PUSH1 0x0 DUP1 MLOAD PUSH1 0x20 PUSH3 0x48FA DUP4 CODECOPY DUP2 MLOAD SWAP2 MSTORE SWAP4 PUSH1 0xA0 SWAP4 PUSH2 0x160 DUP8 ADD PUSH1 0x40 MSTORE DUP7 MSTORE DUP14 PUSH1 0x20 DUP8 ADD MSTORE PUSH2 0xBB8 PUSH1 0x40 DUP8 ADD MSTORE PUSH1 0x2 SIGNEXTEND PUSH1 0x60 DUP7 ADD MSTORE DUP1 PUSH1 0x2 SIGNEXTEND PUSH3 0xD89E8 SDIV MUL PUSH1 0x2 SIGNEXTEND PUSH1 0x80 DUP6 ADD MSTORE CALLVALUE DUP3 DUP6 ADD MSTORE DUP1 PUSH1 0xC0 DUP6 ADD MSTORE DUP5 PUSH1 0xE0 DUP6 ADD MSTORE DUP5 PUSH2 0x100 DUP6 ADD MSTORE ADDRESS PUSH2 0x120 DUP6 ADD MSTORE PUSH2 0x12C TIMESTAMP ADD PUSH2 0x140 DUP6 ADD MSTORE PUSH1 0x40 MLOAD SWAP1 PUSH1 0x40 DUP3 MSTORE PUSH1 0x22 PUSH1 0x40 DUP4 ADD MSTORE PUSH32 0x4D696E74696E6720706F736974696F6E207769746820746F6B656E20616D6F75 PUSH1 0x60 DUP4 ADD MSTORE PUSH2 0x1B9D PUSH1 0xF2 SHL PUSH1 0x80 DUP4 ADD MSTORE PUSH1 0x20 DUP3 ADD MSTORE LOG1 PUSH1 0x4 DUP1 SLOAD PUSH1 0x40 DUP1 MLOAD PUSH4 0x4418B22B PUSH1 0xE1 SHL DUP2 MSTORE DUP5 MLOAD PUSH1 0x1 PUSH1 0x1 PUSH1 0xA0 SHL SUB SWAP1 DUP2 AND SWAP5 DUP3 ADD SWAP5 SWAP1 SWAP5 MSTORE PUSH1 0x20 DUP6 ADD MLOAD DUP5 AND PUSH1 0x24 DUP3 ADD MSTORE SWAP1 DUP5 ADD MLOAD PUSH3 0xFFFFFF AND PUSH1 0x44 DUP3 ADD MSTORE PUSH1 0x60 DUP5 ADD MLOAD PUSH1 0x2 SWAP1 DUP2 SIGNEXTEND PUSH1 0x64 DUP4 ADD MSTORE PUSH1 0x80 DUP1 DUP7 ADD MLOAD SWAP1 SWAP2 SIGNEXTEND PUSH1 0x84 DUP4 ADD MSTORE PUSH1 0xA0 DUP6 ADD MLOAD PUSH1 0xA4 DUP4 ADD MSTORE PUSH1 0xC0 DUP6 ADD MLOAD PUSH1 0xC4 DUP4 ADD MSTORE PUSH1 0xE0 DUP6 ADD MLOAD PUSH1 0xE4 DUP4 ADD MSTORE PUSH2 0x100 DUP6 ADD MLOAD PUSH2 0x104 DUP4 ADD MSTORE PUSH2 0x120 DUP6 ADD MLOAD DUP5 AND PUSH2 0x124 DUP4 ADD MSTORE PUSH2 0x140 SWAP1 SWAP5 ADD MLOAD PUSH2 0x144 DUP3 ADD MSTORE SWAP3 SWAP2 DUP4 SWAP2 PUSH2 0x164 SWAP2 DUP4 SWAP2 DUP8 SWAP2 AND GAS CALL DUP3 DUP2 DUP5 SWAP4 DUP6 SWAP4 PUSH3 0x1654 JUMPI JUMPDEST POP PUSH3 0xFF0 JUMPI DUP4 PUSH3 0xECB PUSH3 0x2366 JUMP JUMPDEST PUSH4 0x8C379A0 EQ PUSH3 0xF2A JUMPI JUMPDEST PUSH1 0x0 DUP1 MLOAD PUSH1 0x20 PUSH3 0x48FA DUP4 CODECOPY DUP2 MLOAD SWAP2 MSTORE SWAP1 PUSH1 0x40 MLOAD DUP1 SWAP2 PUSH1 0x40 DUP3 MSTORE PUSH3 0xEFF PUSH1 0x40 DUP4 ADD PUSH3 0x2443 JUMP JUMPDEST SWAP1 PUSH1 0x20 DUP4 ADD MSTORE SUB SWAP1 LOG1 PUSH1 0x40 MLOAD PUSH3 0x461BCD PUSH1 0xE5 SHL DUP2 MSTORE PUSH1 0x20 PUSH1 0x4 DUP3 ADD MSTORE DUP1 PUSH3 0xA1C PUSH1 0x24 DUP3 ADD PUSH3 0x2443 JUMP JUMPDEST PUSH3 0xF34 PUSH3 0x2385 JUMP JUMPDEST DUP1 PUSH3 0xF41 JUMPI POP PUSH3 0xED7 JUMP JUMPDEST PUSH3 0x9FB PUSH1 0x39 PUSH3 0xA1C SWAP4 PUSH1 0x40 MLOAD SWAP1 PUSH1 0x0 DUP1 MLOAD PUSH1 0x20 PUSH3 0x48FA DUP4 CODECOPY DUP2 MLOAD SWAP2 MSTORE PUSH3 0xFBA PUSH32 0x506F736974696F6E206D696E74696E67206661696C65643A2000000000000000 SWAP4 DUP5 PUSH1 0x20 DUP3 ADD MSTORE DUP8 MLOAD SWAP4 PUSH3 0xC35 DUP8 DUP4 PUSH1 0x20 DUP13 ADD SWAP8 PUSH3 0xFA9 DUP2 DUP5 DUP5 ADD DUP12 PUSH3 0x2300 JUMP JUMPDEST DUP2 ADD SUB PUSH1 0x19 DUP2 ADD DUP6 MSTORE ADD DUP4 PUSH3 0x2254 JUMP JUMPDEST SWAP1 PUSH1 0x20 DUP4 ADD MSTORE SUB SWAP1 LOG1 PUSH3 0xFDF PUSH1 0x40 MLOAD SWAP6 DUP7 SWAP4 PUSH1 0x20 DUP6 ADD MSTORE MLOAD DUP1 SWAP3 DUP6 DUP6 ADD SWAP1 PUSH3 0x2300 JUMP JUMPDEST DUP2 ADD SUB PUSH1 0x19 DUP2 ADD DUP5 MSTORE ADD DUP3 PUSH3 0x2254 JUMP JUMPDEST SWAP2 PUSH1 0x0 DUP1 MLOAD PUSH1 0x20 PUSH3 0x48FA DUP4 CODECOPY DUP2 MLOAD SWAP2 MSTORE PUSH1 0x80 PUSH1 0x40 MLOAD PUSH1 0x40 DUP2 MSTORE PUSH1 0x1F PUSH1 0x40 DUP3 ADD MSTORE PUSH32 0x5472616E7366657272696E67204E465420746F20746F6B656E206F776E657200 PUSH1 0x60 DUP3 ADD MSTORE DUP7 PUSH1 0x20 DUP3 ADD MSTORE LOG1 PUSH1 0x4 SLOAD PUSH1 0x1 PUSH1 0x1 PUSH1 0xA0 SHL SUB AND DUP1 EXTCODESIZE ISZERO PUSH3 0x1650 JUMPI PUSH1 0x40 MLOAD PUSH4 0x21421707 PUSH1 0xE1 SHL DUP2 MSTORE ADDRESS PUSH1 0x4 DUP3 ADD MSTORE PUSH1 0x1 PUSH1 0x1 PUSH1 0xA0 SHL SUB DUP10 AND PUSH1 0x24 DUP3 ADD MSTORE PUSH1 0x44 DUP2 ADD DUP6 SWAP1 MSTORE SWAP1 DUP6 SWAP1 DUP3 SWAP1 PUSH1 0x64 SWAP1 DUP3 SWAP1 DUP5 SWAP1 GAS CALL SWAP1 DUP2 ISZERO PUSH3 0x1645 JUMPI DUP6 SWAP2 PUSH3 0x162D JUMPI JUMPDEST POP POP DUP11 EXTCODESIZE ISZERO PUSH3 0x1629 JUMPI DUP4 DUP1 DUP13 PUSH1 0x24 PUSH1 0x40 MLOAD DUP1 SWAP9 DUP2 SWAP4 PUSH4 0xF71B6681 PUSH1 0xE0 SHL DUP4 MSTORE DUP10 PUSH1 0x4 DUP5 ADD MSTORE GAS CALL SWAP5 DUP6 ISZERO PUSH3 0x15B3 JUMPI DUP13 SWAP6 PUSH3 0x1604 JUMPI JUMPDEST POP POP SWAP2 PUSH1 0x60 SWAP2 PUSH32 0x64B83944E79C3CE8D4C297411DE637C3E102D064677AAC0C163976EBDCD6F50E SWAP4 PUSH1 0x40 MLOAD SWAP3 DUP4 MSTORE PUSH1 0x20 DUP4 ADD MSTORE PUSH1 0x40 DUP3 ADD MSTORE LOG2 PUSH1 0x40 MLOAD PUSH4 0x70A08231 PUSH1 0xE0 SHL DUP2 MSTORE ADDRESS PUSH1 0x4 DUP3 ADD MSTORE PUSH1 0x20 DUP2 PUSH1 0x24 DUP2 DUP12 GAS STATICCALL SWAP1 DUP2 ISZERO PUSH3 0x15F9 JUMPI DUP10 SWAP2 PUSH3 0x15C0 JUMPI JUMPDEST POP PUSH1 0x80 PUSH1 0x0 DUP1 MLOAD PUSH1 0x20 PUSH3 0x48FA DUP4 CODECOPY DUP2 MLOAD SWAP2 MSTORE SWAP2 PUSH1 0x40 MLOAD SWAP1 PUSH1 0x40 DUP3 MSTORE PUSH1 0x19 PUSH1 0x40 DUP4 ADD MSTORE PUSH32 0x52656D61696E696E6720746F6B656E73206166746572204C5000000000000000 PUSH1 0x60 DUP4 ADD MSTORE PUSH1 0x20 DUP3 ADD MSTORE LOG1 DUP7 EXTCODESIZE ISZERO PUSH3 0x15AF JUMPI PUSH1 0x40 MLOAD PUSH4 0xF2FDE38B PUSH1 0xE0 SHL DUP2 MSTORE PUSH1 0x1 PUSH1 0x1 PUSH1 0xA0 SHL SUB DUP5 AND PUSH1 0x4 DUP3 ADD MSTORE SWAP5 DUP9 DUP1 DUP8 PUSH1 0x24 DUP2 DUP4 DUP14 GAS CALL SWAP7 DUP8 ISZERO PUSH3 0x15B3 JUMPI DUP10 SWAP8 PUSH3 0x158A JUMPI JUMPDEST POP POP SWAP3 PUSH3 0x1242 PUSH32 0x71367AE73260B1C5A8E707D05A95834F62C68D3275284CE234E59A685FA7DC29 SWAP6 SWAP4 PUSH3 0x1233 PUSH3 0x125C SWAP5 PUSH3 0x1224 PUSH3 0x1215 SWAP9 PUSH1 0x40 MLOAD SWAP10 DUP11 SWAP10 PUSH1 0xA0 DUP12 MSTORE PUSH1 0xA0 DUP12 ADD SWAP1 PUSH3 0x2325 JUMP JUMPDEST SWAP1 DUP10 DUP3 SUB PUSH1 0x20 DUP12 ADD MSTORE PUSH3 0x2325 JUMP JUMPDEST SWAP1 DUP8 DUP3 SUB PUSH1 0x40 DUP10 ADD MSTORE PUSH3 0x2325 JUMP JUMPDEST SWAP1 DUP6 DUP3 SUB PUSH1 0x60 DUP8 ADD MSTORE PUSH3 0x2325 JUMP JUMPDEST DUP4 DUP2 SUB PUSH1 0x80 DUP6 ADD MSTORE PUSH1 0x1 PUSH1 0x1 PUSH1 0xA0 SHL SUB SWAP1 SWAP2 AND SWAP7 PUSH3 0x2325 JUMP JUMPDEST SUB SWAP1 LOG3 PUSH1 0x0 DUP1 MLOAD PUSH1 0x20 PUSH3 0x48FA DUP4 CODECOPY DUP2 MLOAD SWAP2 MSTORE PUSH1 0x80 PUSH1 0x40 MLOAD PUSH1 0x40 DUP2 MSTORE PUSH1 0x1A PUSH1 0x40 DUP3 ADD MSTORE PUSH32 0x52656D61696E696E672066756E647320666F7220746F6B656E73000000000000 PUSH1 0x60 DUP3 ADD MSTORE CALLVALUE PUSH1 0x20 DUP3 ADD MSTORE LOG1 CALLVALUE PUSH3 0x12BE JUMPI JUMPDEST PUSH1 0x20 SWAP1 PUSH1 0x40 MLOAD SWAP1 DUP2 MSTORE RETURN JUMPDEST PUSH1 0x0 DUP1 MLOAD PUSH1 0x20 PUSH3 0x48FA DUP4 CODECOPY DUP2 MLOAD SWAP2 MSTORE PUSH1 0x80 PUSH1 0x40 MLOAD PUSH1 0x40 DUP2 MSTORE PUSH1 0x14 PUSH1 0x40 DUP3 ADD MSTORE PUSH20 0x457865637574696E6720746F6B656E207377617 PUSH1 0x64 SHL PUSH1 0x60 DUP3 ADD MSTORE DUP5 PUSH1 0x20 DUP3 ADD MSTORE LOG1 PUSH1 0x2 SLOAD PUSH1 0x40 MLOAD SWAP3 SWAP1 PUSH1 0x1 PUSH1 0x1 PUSH1 0xA0 SHL SUB AND PUSH8 0xFFFFFFFFFFFFFFFF PUSH1 0xE0 DUP6 ADD SWAP1 DUP2 GT SWAP1 DUP6 GT OR PUSH3 0x1574 JUMPI PUSH1 0xE0 DUP5 ADD PUSH1 0x40 SWAP1 DUP2 MSTORE SWAP1 DUP5 MSTORE PUSH1 0x20 DUP1 DUP6 ADD DUP5 DUP2 MSTORE PUSH2 0xBB8 DUP4 DUP8 ADD SWAP1 DUP2 MSTORE CALLER PUSH1 0x60 DUP9 ADD SWAP1 DUP2 MSTORE CALLVALUE PUSH1 0x80 DUP10 ADD DUP2 DUP2 MSTORE PUSH1 0xA0 DUP11 ADD DUP9 DUP2 MSTORE PUSH1 0xC0 DUP12 ADD DUP10 DUP2 MSTORE PUSH1 0x5 SLOAD SWAP9 MLOAD PUSH4 0x4E45AAF PUSH1 0xE0 SHL DUP2 MSTORE SWAP12 MLOAD PUSH1 0x1 PUSH1 0x1 PUSH1 0xA0 SHL SUB SWAP1 DUP2 AND PUSH1 0x4 DUP15 ADD MSTORE SWAP7 MLOAD DUP8 AND PUSH1 0x24 DUP14 ADD MSTORE SWAP5 MLOAD PUSH3 0xFFFFFF AND PUSH1 0x44 DUP13 ADD MSTORE SWAP3 MLOAD DUP6 AND PUSH1 0x64 DUP12 ADD MSTORE MLOAD PUSH1 0x84 DUP11 ADD MSTORE SWAP1 MLOAD PUSH1 0xA4 DUP10 ADD MSTORE SWAP1 MLOAD DUP3 AND PUSH1 0xC4 DUP9 ADD MSTORE SWAP2 SWAP3 DUP7 SWAP3 PUSH1 0xE4 SWAP3 DUP5 SWAP3 AND GAS CALL DUP1 DUP3 SWAP2 PUSH3 0x1534 JUMPI JUMPDEST PUSH1 0x20 SWAP5 POP PUSH3 0x14ED JUMPI POP PUSH1 0x1 PUSH3 0x13E7 PUSH3 0x2366 JUMP JUMPDEST PUSH4 0x8C379A0 EQ PUSH3 0x1454 JUMPI JUMPDEST PUSH3 0x1400 JUMPI JUMPDEST POP PUSH3 0x12B3 JUMP JUMPDEST PUSH1 0x80 PUSH1 0x0 DUP1 MLOAD PUSH1 0x20 PUSH3 0x48FA DUP4 CODECOPY DUP2 MLOAD SWAP2 MSTORE SWAP2 PUSH1 0x40 MLOAD SWAP1 PUSH1 0x40 DUP3 MSTORE PUSH1 0x1E PUSH1 0x40 DUP4 ADD MSTORE PUSH32 0x53776170206661696C6564207769746820756E6B6E6F776E206572726F720000 PUSH1 0x60 DUP4 ADD MSTORE DUP6 DUP3 ADD MSTORE LOG1 CODESIZE PUSH3 0x13F9 JUMP JUMPDEST PUSH3 0x145E PUSH3 0x2385 JUMP JUMPDEST DUP1 PUSH3 0x146C JUMPI JUMPDEST POP PUSH3 0x13F3 JUMP JUMPDEST SWAP1 POP PUSH1 0x0 DUP1 MLOAD PUSH1 0x20 PUSH3 0x48FA DUP4 CODECOPY DUP2 MLOAD SWAP2 MSTORE PUSH3 0x14DE DUP4 SWAP3 PUSH3 0x14C9 PUSH1 0x2D PUSH1 0x40 MLOAD DUP1 SWAP4 PUSH13 0x29BBB0B8103330B4B632B21D1 PUSH1 0x9D SHL DUP12 DUP4 ADD MSTORE PUSH3 0x14B8 DUP2 MLOAD DUP1 SWAP3 DUP14 DUP7 DUP7 ADD SWAP2 ADD PUSH3 0x2300 JUMP JUMPDEST DUP2 ADD SUB PUSH1 0xD DUP2 ADD DUP5 MSTORE ADD DUP3 PUSH3 0x2254 JUMP JUMPDEST PUSH1 0x40 MLOAD SWAP2 DUP3 SWAP2 PUSH1 0x40 DUP4 MSTORE PUSH1 0x40 DUP4 ADD SWAP1 PUSH3 0x2325 JUMP JUMPDEST DUP6 DUP9 DUP4 ADD MSTORE SUB SWAP1 LOG1 CODESIZE PUSH3 0x1465 JUMP JUMPDEST PUSH1 0x0 DUP1 MLOAD PUSH1 0x20 PUSH3 0x48FA DUP4 CODECOPY DUP2 MLOAD SWAP2 MSTORE SWAP2 POP PUSH1 0x80 SWAP1 PUSH1 0x40 MLOAD SWAP1 PUSH1 0x40 DUP3 MSTORE PUSH1 0xF PUSH1 0x40 DUP4 ADD MSTORE PUSH15 0x14DDD85C08185B5BDD5B9D081BDD5D PUSH1 0x8A SHL PUSH1 0x60 DUP4 ADD MSTORE DUP6 DUP3 ADD MSTORE LOG1 PUSH3 0x12B3 JUMP JUMPDEST SWAP1 POP PUSH1 0x20 DUP5 RETURNDATASIZE PUSH1 0x20 GT PUSH3 0x156B JUMPI JUMPDEST DUP2 PUSH3 0x1552 PUSH1 0x20 SWAP4 DUP4 PUSH3 0x2254 JUMP JUMPDEST DUP2 ADD SUB SLT PUSH3 0x1566 JUMPI PUSH1 0x20 SWAP4 MLOAD SWAP1 PUSH3 0x13D1 JUMP JUMPDEST PUSH1 0x0 DUP1 REVERT JUMPDEST RETURNDATASIZE SWAP2 POP PUSH3 0x1543 JUMP JUMPDEST PUSH4 0x4E487B71 PUSH1 0xE0 SHL PUSH1 0x0 MSTORE PUSH1 0x41 PUSH1 0x4 MSTORE PUSH1 0x24 PUSH1 0x0 REVERT JUMPDEST PUSH3 0x159C SWAP2 SWAP3 SWAP4 SWAP7 SWAP5 SWAP6 SWAP8 POP PUSH3 0x223F JUMP JUMPDEST PUSH3 0x15AF JUMPI SWAP3 DUP7 SWAP5 SWAP3 SWAP2 SWAP4 DUP9 CODESIZE PUSH3 0x11C4 JUMP JUMPDEST DUP8 DUP1 REVERT JUMPDEST POP PUSH1 0x40 MLOAD SWAP1 RETURNDATASIZE SWAP1 DUP3 RETURNDATACOPY RETURNDATASIZE SWAP1 REVERT JUMPDEST SWAP1 POP PUSH1 0x20 DUP2 RETURNDATASIZE PUSH1 0x20 GT PUSH3 0x15F0 JUMPI JUMPDEST DUP2 PUSH3 0x15DE PUSH1 0x20 SWAP4 DUP4 PUSH3 0x2254 JUMP JUMPDEST DUP2 ADD SUB SLT PUSH3 0x1566 JUMPI MLOAD PUSH1 0x80 PUSH3 0x1136 JUMP JUMPDEST RETURNDATASIZE SWAP2 POP PUSH3 0x15CF JUMP JUMPDEST PUSH1 0x40 MLOAD RETURNDATASIZE DUP12 DUP3 RETURNDATACOPY RETURNDATASIZE SWAP1 REVERT JUMPDEST PUSH3 0x1614 SWAP2 SWAP3 SWAP4 SWAP5 SWAP6 POP PUSH3 0x223F JUMP JUMPDEST PUSH3 0x1625 JUMPI SWAP1 DUP10 SWAP3 SWAP2 DUP12 CODESIZE PUSH3 0x10D1 JUMP JUMPDEST DUP11 DUP1 REVERT JUMPDEST DUP4 DUP1 REVERT JUMPDEST PUSH3 0x1638 SWAP1 PUSH3 0x223F JUMP JUMPDEST PUSH3 0x1629 JUMPI DUP4 CODESIZE PUSH3 0x1099 JUMP JUMPDEST PUSH1 0x40 MLOAD RETURNDATASIZE DUP8 DUP3 RETURNDATACOPY RETURNDATASIZE SWAP1 REVERT JUMPDEST DUP5 DUP1 REVERT JUMPDEST SWAP4 POP SWAP2 POP POP PUSH1 0x80 DUP3 RETURNDATASIZE PUSH1 0x80 GT PUSH3 0x16B8 JUMPI JUMPDEST DUP2 PUSH3 0x1675 PUSH1 0x80 SWAP4 DUP4 PUSH3 0x2254 JUMP JUMPDEST DUP2 ADD SUB SLT PUSH3 0x16B4 JUMPI DUP2 MLOAD SWAP2 PUSH1 0x20 DUP2 ADD MLOAD PUSH16 0xFFFFFFFFFFFFFFFFFFFFFFFFFFFFFFFF DUP2 AND SUB PUSH3 0x1629 JUMPI PUSH1 0x60 PUSH1 0x40 DUP3 ADD MLOAD SWAP2 ADD MLOAD SWAP3 SWAP1 SWAP3 SWAP2 CODESIZE PUSH3 0xEBA JUMP JUMPDEST DUP3 DUP1 REVERT JUMPDEST RETURNDATASIZE SWAP2 POP PUSH3 0x1666 JUMP JUMPDEST PUSH4 0x4E487B71 PUSH1 0xE0 SHL DUP13 MSTORE PUSH1 0x11 PUSH1 0x4 MSTORE PUSH1 0x24 DUP13 REVERT JUMPDEST PUSH3 0x16E0 SWAP1 PUSH3 0x223F JUMP JUMPDEST PUSH3 0x16ED JUMPI DUP12 CODESIZE PUSH3 0xB34 JUMP JUMPDEST DUP12 DUP1 REVERT JUMPDEST SWAP1 SWAP2 POP PUSH1 0x20 DUP2 RETURNDATASIZE PUSH1 0x20 GT PUSH3 0x1733 JUMPI JUMPDEST DUP2 PUSH3 0x1710 PUSH1 0x20 SWAP4 DUP4 PUSH3 0x2254 JUMP JUMPDEST DUP2 ADD SUB SLT PUSH3 0x1629 JUMPI MLOAD PUSH1 0x1 PUSH1 0x1 PUSH1 0xA0 SHL SUB DUP2 AND DUP2 SUB PUSH3 0x1629 JUMPI SWAP1 CODESIZE PUSH3 0x8E1 JUMP JUMPDEST RETURNDATASIZE SWAP2 POP PUSH3 0x1701 JUMP JUMPDEST SWAP2 POP DUP1 ISZERO PUSH3 0x1753 JUMPI SWAP1 DUP13 SWAP2 PUSH1 0x0 NOT DIV SWAP1 PUSH3 0x809 JUMP JUMPDEST PUSH4 0x4E487B71 PUSH1 0xE0 SHL DUP14 MSTORE PUSH1 0x12 PUSH1 0x4 MSTORE PUSH1 0x24 DUP14 REVERT JUMPDEST SWAP2 POP PUSH12 0x48A170391F7DC42444E8FA2 SWAP1 DUP1 DUP3 DUP2 MUL DIV DUP3 EQ DUP2 ISZERO OR ISZERO PUSH3 0x1795 JUMPI DUP14 SWAP3 SWAP2 MUL PUSH1 0x80 SHR SWAP1 PUSH3 0x7FD JUMP JUMPDEST PUSH4 0x4E487B71 PUSH1 0xE0 SHL DUP15 MSTORE PUSH1 0x11 PUSH1 0x4 MSTORE PUSH1 0x24 DUP15 REVERT JUMPDEST SWAP3 POP SWAP1 PUSH14 0x2216E584F5FA1EA926041BEDFE98 SWAP1 DUP1 DUP3 DUP2 MUL DIV DUP3 EQ DUP2 ISZERO OR ISZERO PUSH3 0x17DB JUMPI DUP15 SWAP4 SWAP2 MUL PUSH1 0x80 SHR SWAP2 SWAP1 PUSH3 0x7F2 JUMP JUMPDEST PUSH4 0x4E487B71 PUSH1 0xE0 SHL DUP16 MSTORE PUSH1 0x11 PUSH1 0x4 MSTORE PUSH1 0x24 DUP16 REVERT JUMPDEST SWAP3 POP SWAP1 PUSH15 0x5D6AF8DEDB81196699C329225EE604 SWAP1 DUP1 DUP3 DUP2 MUL DIV DUP3 EQ DUP2 ISZERO OR ISZERO PUSH3 0x17DB JUMPI DUP15 SWAP4 SWAP2 MUL PUSH1 0x80 SHR SWAP2 SWAP1 PUSH3 0x7E6 JUMP JUMPDEST SWAP3 POP SWAP1 PUSH16 0x9AA508B5B7A84E1C677DE54F3E99BC9 SWAP1 DUP1 DUP3 DUP2 MUL DIV DUP3 EQ DUP2 ISZERO OR ISZERO PUSH3 0x17DB JUMPI DUP15 SWAP4 SWAP2 MUL PUSH1 0x80 SHR SWAP2 SWAP1 PUSH3 0x7DA JUMP JUMPDEST SWAP3 POP SWAP1 PUSH16 0x31BE135F97D08FD981231505542FCFA6 SWAP1 DUP1 DUP3 DUP2 MUL DIV DUP3 EQ DUP2 ISZERO OR ISZERO PUSH3 0x17DB JUMPI DUP15 SWAP4 SWAP2 MUL PUSH1 0x80 SHR SWAP2 SWAP1 PUSH3 0x7CE JUMP JUMPDEST SWAP3 POP SWAP1 PUSH16 0x70D869A156D2A1B890BB3DF62BAF32F7 SWAP1 DUP1 DUP3 DUP2 MUL DIV DUP3 EQ DUP2 ISZERO OR ISZERO PUSH3 0x17DB JUMPI DUP15 SWAP4 SWAP2 MUL PUSH1 0x80 SHR SWAP2 SWAP1 PUSH3 0x7C3 JUMP JUMPDEST SWAP3 POP SWAP1 PUSH16 0xA9F746462D870FDF8A65DC1F90E061E5 SWAP1 DUP1 DUP3 DUP2 MUL DIV DUP3 EQ DUP2 ISZERO OR ISZERO PUSH3 0x17DB JUMPI DUP15 SWAP4 SWAP2 MUL PUSH1 0x80 SHR SWAP2 SWAP1 PUSH3 0x7B8 JUMP JUMPDEST SWAP3 POP SWAP1 PUSH16 0xD097F3BDFD2022B8845AD8F792AA5825 SWAP1 DUP1 DUP3 DUP2 MUL DIV DUP3 EQ DUP2 ISZERO OR ISZERO PUSH3 0x17DB JUMPI DUP15 SWAP4 SWAP2 MUL PUSH1 0x80 SHR SWAP2 SWAP1 PUSH3 0x7AD JUMP JUMPDEST SWAP3 POP SWAP1 PUSH16 0xE7159475A2C29B7443B29C7FA6E889D9 SWAP1 DUP1 DUP3 DUP2 MUL DIV DUP3 EQ DUP2 ISZERO OR ISZERO PUSH3 0x17DB JUMPI DUP15 SWAP4 SWAP2 MUL PUSH1 0x80 SHR SWAP2 SWAP1 PUSH3 0x7A2 JUMP JUMPDEST SWAP3 POP SWAP1 PUSH16 0xF3392B0822B70005940C7A398E4B70F3 SWAP1 DUP1 DUP3 DUP2 MUL DIV DUP3 EQ DUP2 ISZERO OR ISZERO PUSH3 0x17DB JUMPI DUP15 SWAP4 SWAP2 MUL PUSH1 0x80 SHR SWAP2 SWAP1 PUSH3 0x797 JUMP JUMPDEST SWAP3 POP SWAP1 PUSH16 0xF987A7253AC413176F2B074CF7815E54 SWAP1 DUP1 DUP3 DUP2 MUL DIV DUP3 EQ DUP2 ISZERO OR ISZERO PUSH3 0x17DB JUMPI DUP15 SWAP4 SWAP2 MUL PUSH1 0x80 SHR SWAP2 SWAP1 PUSH3 0x78C JUMP JUMPDEST SWAP3 POP SWAP1 PUSH16 0xFCBE86C7900A88AEDCFFC83B479AA3A4 SWAP1 DUP1 DUP3 DUP2 MUL DIV DUP3 EQ DUP2 ISZERO OR ISZERO PUSH3 0x17DB JUMPI DUP15 SWAP4 SWAP2 MUL PUSH1 0x80 SHR SWAP2 SWAP1 PUSH3 0x781 JUMP JUMPDEST SWAP3 POP SWAP1 PUSH16 0xFE5DEE046A99A2A811C461F1969C3053 SWAP1 DUP1 DUP3 DUP2 MUL DIV DUP3 EQ DUP2 ISZERO OR ISZERO PUSH3 0x17DB JUMPI DUP15 SWAP4 SWAP2 MUL PUSH1 0x80 SHR SWAP2 SWAP1 PUSH3 0x776 JUMP JUMPDEST SWAP3 POP SWAP1 PUSH16 0xFF2EA16466C96A3843EC78B326B52861 SWAP1 DUP1 DUP3 DUP2 MUL DIV DUP3 EQ DUP2 ISZERO OR ISZERO PUSH3 0x17DB JUMPI DUP15 SWAP4 SWAP2 MUL PUSH1 0x80 SHR SWAP2 SWAP1 PUSH3 0x76C JUMP JUMPDEST SWAP3 POP SWAP1 PUSH16 0xFF973B41FA98C081472E6896DFB254C0 SWAP1 DUP1 DUP3 DUP2 MUL DIV DUP3 EQ DUP2 ISZERO OR ISZERO PUSH3 0x17DB JUMPI DUP15 SWAP4 SWAP2 MUL PUSH1 0x80 SHR SWAP2 SWAP1 PUSH3 0x762 JUMP JUMPDEST SWAP3 POP SWAP1 PUSH16 0xFFCB9843D60F6159C9DB58835C926644 SWAP1 DUP1 DUP3 DUP2 MUL DIV DUP3 EQ DUP2 ISZERO OR ISZERO PUSH3 0x17DB JUMPI DUP15 SWAP4 SWAP2 MUL PUSH1 0x80 SHR SWAP2 SWAP1 PUSH3 0x758 JUMP JUMPDEST SWAP3 POP SWAP1 PUSH16 0xFFE5CACA7E10E4E61C3624EAA0941CD0 SWAP1 DUP1 DUP3 DUP2 MUL DIV DUP3 EQ DUP2 ISZERO OR ISZERO PUSH3 0x17DB JUMPI DUP15 SWAP4 SWAP2 MUL PUSH1 0x80 SHR SWAP2 SWAP1 PUSH3 0x74E JUMP JUMPDEST SWAP3 POP SWAP1 PUSH16 0xFFF2E50F5F656932EF12357CF3C7FDCC SWAP1 DUP1 DUP3 DUP2 MUL DIV DUP3 EQ DUP2 ISZERO OR ISZERO PUSH3 0x17DB JUMPI DUP15 SWAP4 SWAP2 MUL PUSH1 0x80 SHR SWAP2 SWAP1 PUSH3 0x744 JUMP JUMPDEST SWAP3 POP SWAP1 PUSH16 0xFFF97272373D413259A46990580E213A SWAP1 DUP1 DUP3 DUP2 MUL DIV DUP3 EQ DUP2 ISZERO OR ISZERO PUSH3 0x17DB JUMPI DUP15 SWAP4 SWAP2 MUL PUSH1 0x80 SHR SWAP2 SWAP1 PUSH3 0x73A JUMP JUMPDEST PUSH1 0x1 PUSH1 0x1 PUSH1 0x88 SHL SUB PUSH1 0x1 PUSH1 0x80 SHL PUSH3 0x72E JUMP JUMPDEST PUSH1 0x40 MLOAD PUSH3 0x461BCD PUSH1 0xE5 SHL DUP2 MSTORE PUSH1 0x20 PUSH1 0x4 DUP3 ADD MSTORE PUSH1 0x1 PUSH1 0x24 DUP3 ADD MSTORE PUSH1 0x15 PUSH1 0xFA SHL PUSH1 0x44 DUP3 ADD MSTORE PUSH1 0x64 SWAP1 REVERT JUMPDEST DUP2 PUSH1 0x2 SIGNEXTEND PUSH3 0x6FD JUMP JUMPDEST PUSH4 0x4E487B71 PUSH1 0xE0 SHL DUP12 MSTORE PUSH1 0x12 PUSH1 0x4 MSTORE PUSH1 0x24 DUP12 REVERT JUMPDEST SWAP1 SWAP3 POP PUSH1 0x20 DUP2 RETURNDATASIZE PUSH1 0x20 GT PUSH3 0x1BF8 JUMPI JUMPDEST DUP2 PUSH3 0x1BDB PUSH1 0x20 SWAP4 DUP4 PUSH3 0x2254 JUMP JUMPDEST DUP2 ADD SUB SLT PUSH3 0x1625 JUMPI MLOAD DUP1 PUSH1 0x2 SIGNEXTEND DUP2 SUB PUSH3 0x1625 JUMPI SWAP2 CODESIZE PUSH3 0x5B2 JUMP JUMPDEST RETURNDATASIZE SWAP2 POP PUSH3 0x1BCC JUMP JUMPDEST PUSH1 0x40 MLOAD RETURNDATASIZE DUP14 DUP3 RETURNDATACOPY RETURNDATASIZE SWAP1 REVERT JUMPDEST PUSH1 0x40 MLOAD PUSH3 0x461BCD PUSH1 0xE5 SHL DUP2 MSTORE PUSH1 0x20 PUSH1 0x4 DUP3 ADD MSTORE PUSH1 0x14 PUSH1 0x24 DUP3 ADD MSTORE PUSH20 0x15D1551208185C1C1C9BDD985B0819985A5B1959 PUSH1 0x62 SHL PUSH1 0x44 DUP3 ADD MSTORE PUSH1 0x64 SWAP1 REVERT JUMPDEST PUSH3 0x1C6F SWAP2 POP PUSH1 0x20 RETURNDATASIZE PUSH1 0x20 GT PUSH3 0x1C76 JUMPI JUMPDEST PUSH3 0x1C66 DUP2 DUP4 PUSH3 0x2254 JUMP JUMPDEST DUP2 ADD SWAP1 PUSH3 0x234C JUMP JUMPDEST CODESIZE PUSH3 0x56F JUMP JUMPDEST POP RETURNDATASIZE PUSH3 0x1C5A JUMP JUMPDEST PUSH1 0x40 MLOAD RETURNDATASIZE DUP13 DUP3 RETURNDATACOPY RETURNDATASIZE SWAP1 REVERT JUMPDEST PUSH3 0x1C97 SWAP1 SWAP10 SWAP2 SWAP10 PUSH3 0x223F JUMP JUMPDEST SWAP8 CODESIZE PUSH3 0x521 JUMP JUMPDEST DUP1 REVERT JUMPDEST PUSH1 0x40 MLOAD PUSH3 0x461BCD PUSH1 0xE5 SHL DUP2 MSTORE PUSH1 0x20 PUSH1 0x4 DUP3 ADD MSTORE PUSH1 0xF PUSH1 0x24 DUP3 ADD MSTORE PUSH15 0x105C1C1C9BDD985B0819985A5B1959 PUSH1 0x8A SHL PUSH1 0x44 DUP3 ADD MSTORE PUSH1 0x64 SWAP1 REVERT JUMPDEST PUSH3 0x1CF6 SWAP2 POP PUSH1 0x20 RETURNDATASIZE PUSH1 0x20 GT PUSH3 0x1C76 JUMPI PUSH3 0x1C66 DUP2 DUP4 PUSH3 0x2254 JUMP JUMPDEST CODESIZE PUSH3 0x4DF JUMP JUMPDEST SWAP1 POP PUSH1 0x20 DUP2 RETURNDATASIZE PUSH1 0x20 GT PUSH3 0x1D30 JUMPI JUMPDEST DUP2 PUSH3 0x1D1B PUSH1 0x20 SWAP4 DUP4 PUSH3 0x2254 JUMP JUMPDEST DUP2 ADD SUB SLT PUSH3 0x1D2C JUMPI MLOAD CODESIZE PUSH3 0x3F0 JUMP JUMPDEST DUP9 DUP1 REVERT JUMPDEST RETURNDATASIZE SWAP2 POP PUSH3 0x1D0C JUMP JUMPDEST PUSH4 0x4E487B71 PUSH1 0xE0 SHL DUP10 MSTORE PUSH1 0x41 PUSH1 0x4 MSTORE PUSH1 0x24 DUP10 REVERT JUMPDEST PUSH1 0x40 MLOAD RETURNDATASIZE DUP10 DUP3 RETURNDATACOPY RETURNDATASIZE SWAP1 REVERT JUMPDEST PUSH4 0x4E487B71 PUSH1 0xE0 SHL DUP11 MSTORE PUSH1 0x41 PUSH1 0x4 MSTORE PUSH1 0x24 DUP11 REVERT JUMPDEST PUSH1 0x40 MLOAD PUSH3 0x461BCD PUSH1 0xE5 SHL DUP2 MSTORE PUSH1 0x20 PUSH1 0x4 DUP3 ADD MSTORE PUSH1 0x13 PUSH1 0x24 DUP3 ADD MSTORE PUSH19 0x24B73B30B634B2103A37B5B2B71037BBB732B9 PUSH1 0x69 SHL PUSH1 0x44 DUP3 ADD MSTORE PUSH1 0x64 SWAP1 REVERT JUMPDEST PUSH1 0x40 MLOAD PUSH3 0x461BCD PUSH1 0xE5 SHL DUP2 MSTORE PUSH1 0x20 PUSH1 0x4 DUP3 ADD MSTORE PUSH1 0x22 PUSH1 0x24 DUP3 ADD MSTORE PUSH32 0x546F6B656E20616C72656164792065786973747320666F722074686973207573 PUSH1 0x44 DUP3 ADD MSTORE PUSH2 0x32B9 PUSH1 0xF1 SHL PUSH1 0x64 DUP3 ADD MSTORE PUSH1 0x84 SWAP1 REVERT JUMPDEST DUP7 DUP1 REVERT JUMPDEST DUP6 DUP1 REVERT JUMPDEST POP CALLVALUE PUSH3 0x1C9F JUMPI PUSH1 0x20 CALLDATASIZE PUSH1 0x3 NOT ADD SLT PUSH3 0x1C9F JUMPI PUSH3 0x1E1D PUSH3 0x21DA JUMP JUMPDEST PUSH3 0x1E27 PUSH3 0x22D3 JUMP JUMPDEST PUSH1 0x1 PUSH1 0x1 PUSH1 0xA0 SHL SUB SWAP1 DUP2 AND SWAP1 DUP2 ISZERO PUSH3 0x1E73 JUMPI DUP3 SLOAD PUSH1 0x1 PUSH1 0x1 PUSH1 0xA0 SHL SUB NOT DUP2 AND DUP4 OR DUP5 SSTORE AND PUSH32 0x8BE0079C531659141344CD1FD0A4F28419497F9722A3DAAFE3B4186F6B6457E0 DUP4 DUP1 LOG3 DUP1 RETURN JUMPDEST PUSH1 0x40 MLOAD PUSH4 0x1E4FBDF7 PUSH1 0xE0 SHL DUP2 MSTORE PUSH1 0x4 DUP2 ADD DUP5 SWAP1 MSTORE PUSH1 0x24 SWAP1 REVERT JUMPDEST POP CALLVALUE PUSH3 0x1C9F JUMPI DUP1 PUSH1 0x3 NOT CALLDATASIZE ADD SLT PUSH3 0x1C9F JUMPI PUSH3 0x1EA9 PUSH3 0x22D3 JUMP JUMPDEST SELFBALANCE DUP1 ISZERO PUSH3 0x1ECF JUMPI DUP2 SLOAD DUP3 SWAP2 DUP3 SWAP2 DUP3 SWAP2 DUP3 SWAP2 PUSH1 0x1 PUSH1 0x1 PUSH1 0xA0 SHL SUB AND DUP3 CALL ISZERO PUSH3 0x8FE JUMPI DUP1 RETURN JUMPDEST PUSH1 0x40 MLOAD PUSH3 0x461BCD PUSH1 0xE5 SHL DUP2 MSTORE PUSH1 0x20 PUSH1 0x4 DUP3 ADD MSTORE PUSH1 0x12 PUSH1 0x24 DUP3 ADD MSTORE PUSH18 0x4E6F2045544820746F207769746864726177 PUSH1 0x70 SHL PUSH1 0x44 DUP3 ADD MSTORE PUSH1 0x64 SWAP1 REVERT JUMPDEST POP CALLVALUE PUSH3 0x1C9F JUMPI DUP1 PUSH1 0x3 NOT CALLDATASIZE ADD SLT PUSH3 0x1C9F JUMPI PUSH1 0x5 SLOAD PUSH1 0x40 MLOAD PUSH1 0x1 PUSH1 0x1 PUSH1 0xA0 SHL SUB SWAP1 SWAP2 AND DUP2 MSTORE PUSH1 0x20 SWAP1 RETURN JUMPDEST POP CALLVALUE PUSH3 0x1C9F JUMPI DUP1 PUSH1 0x3 NOT CALLDATASIZE ADD SLT PUSH3 0x1C9F JUMPI SLOAD PUSH1 0x40 MLOAD PUSH1 0x1 PUSH1 0x1 PUSH1 0xA0 SHL SUB SWAP1 SWAP2 AND DUP2 MSTORE PUSH1 0x20 SWAP1 RETURN JUMPDEST POP CALLVALUE PUSH3 0x1C9F JUMPI DUP1 PUSH1 0x3 NOT CALLDATASIZE ADD SLT PUSH3 0x1C9F JUMPI PUSH1 0x4 SLOAD PUSH1 0x40 MLOAD PUSH1 0x1 PUSH1 0x1 PUSH1 0xA0 SHL SUB SWAP1 SWAP2 AND DUP2 MSTORE PUSH1 0x20 SWAP1 RETURN JUMPDEST POP CALLVALUE PUSH3 0x1C9F JUMPI DUP1 PUSH1 0x3 NOT CALLDATASIZE ADD SLT PUSH3 0x1C9F JUMPI PUSH3 0x1FA5 PUSH3 0x22D3 JUMP JUMPDEST DUP1 SLOAD PUSH1 0x1 PUSH1 0x1 PUSH1 0xA0 SHL SUB NOT DUP2 AND DUP3 SSTORE DUP2 SWAP1 PUSH1 0x1 PUSH1 0x1 PUSH1 0xA0 SHL SUB AND PUSH32 0x8BE0079C531659141344CD1FD0A4F28419497F9722A3DAAFE3B4186F6B6457E0 DUP3 DUP1 LOG3 DUP1 RETURN JUMPDEST POP CALLVALUE PUSH3 0x1C9F JUMPI PUSH1 0x20 CALLDATASIZE PUSH1 0x3 NOT ADD SLT PUSH3 0x1C9F JUMPI PUSH1 0x4 CALLDATALOAD SWAP1 PUSH1 0x7 SLOAD DUP3 LT ISZERO PUSH3 0x1C9F JUMPI PUSH1 0x20 PUSH3 0x2016 DUP4 PUSH3 0x21F1 JUMP JUMPDEST SWAP1 SLOAD PUSH1 0x40 MLOAD PUSH1 0x3 SWAP3 SWAP1 SWAP3 SHL SHR PUSH1 0x1 PUSH1 0x1 PUSH1 0xA0 SHL SUB AND DUP2 MSTORE RETURN JUMPDEST POP CALLVALUE PUSH3 0x1C9F JUMPI DUP1 PUSH1 0x3 NOT CALLDATASIZE ADD SLT PUSH3 0x1C9F JUMPI PUSH1 0x3 SLOAD PUSH1 0x40 MLOAD PUSH1 0x1 PUSH1 0x1 PUSH1 0xA0 SHL SUB SWAP1 SWAP2 AND DUP2 MSTORE PUSH1 0x20 SWAP1 RETURN JUMPDEST POP CALLVALUE PUSH3 0x1C9F JUMPI DUP1 PUSH1 0x3 NOT CALLDATASIZE ADD SLT PUSH3 0x1C9F JUMPI PUSH1 0x20 PUSH1 0x40 MLOAD PUSH2 0xBB8 DUP2 MSTORE RETURN JUMPDEST POP CALLVALUE PUSH3 0x1C9F JUMPI DUP1 PUSH1 0x3 NOT CALLDATASIZE ADD SLT PUSH3 0x1C9F JUMPI PUSH1 0x2 SLOAD PUSH1 0x40 MLOAD PUSH1 0x1 PUSH1 0x1 PUSH1 0xA0 SHL SUB SWAP1 SWAP2 AND DUP2 MSTORE PUSH1 0x20 SWAP1 RETURN JUMPDEST POP CALLVALUE PUSH3 0x1C9F JUMPI DUP1 PUSH1 0x3 NOT CALLDATASIZE ADD SLT PUSH3 0x1C9F JUMPI PUSH1 0x1 SLOAD PUSH1 0x40 MLOAD PUSH1 0x1 PUSH1 0x1 PUSH1 0xA0 SHL SUB SWAP1 SWAP2 AND DUP2 MSTORE PUSH1 0x20 SWAP1 RETURN JUMPDEST POP CALLVALUE PUSH3 0x1C9F JUMPI DUP1 PUSH1 0x3 NOT CALLDATASIZE ADD SLT PUSH3 0x1C9F JUMPI PUSH1 0x40 MLOAD DUP1 SWAP2 PUSH1 0x7 SLOAD SWAP1 DUP2 DUP4 MSTORE PUSH1 0x20 DUP1 SWAP4 ADD DUP1 SWAP3 PUSH1 0x7 DUP4 MSTORE PUSH32 0xA66CC928B5EDB82AF9BD49922954155AB7B0942694BEA4CE44661D9A8736C688 SWAP1 DUP4 JUMPDEST DUP2 DUP2 LT PUSH3 0x217F JUMPI POP POP POP DUP5 PUSH3 0x2136 SWAP2 SUB DUP6 PUSH3 0x2254 JUMP JUMPDEST PUSH1 0x40 MLOAD SWAP4 DUP4 DUP6 SWAP5 DUP6 ADD SWAP2 DUP2 DUP7 MSTORE MLOAD DUP1 SWAP3 MSTORE PUSH1 0x40 DUP6 ADD SWAP4 SWAP3 JUMPDEST DUP3 DUP2 LT PUSH3 0x215E JUMPI POP POP POP POP SUB SWAP1 RETURN JUMPDEST DUP4 MLOAD PUSH1 0x1 PUSH1 0x1 PUSH1 0xA0 SHL SUB AND DUP6 MSTORE DUP7 SWAP6 POP SWAP4 DUP2 ADD SWAP4 SWAP3 DUP2 ADD SWAP3 PUSH1 0x1 ADD PUSH3 0x214E JUMP JUMPDEST DUP3 SLOAD PUSH1 0x1 PUSH1 0x1 PUSH1 0xA0 SHL SUB AND DUP5 MSTORE SWAP3 DUP7 ADD SWAP3 PUSH1 0x1 SWAP3 DUP4 ADD SWAP3 ADD PUSH3 0x211D JUMP JUMPDEST SWAP1 POP CALLVALUE PUSH3 0xA38 JUMPI PUSH1 0x20 CALLDATASIZE PUSH1 0x3 NOT ADD SLT PUSH3 0xA38 JUMPI PUSH1 0x20 SWAP2 PUSH1 0x1 PUSH1 0x1 PUSH1 0xA0 SHL SUB SWAP1 PUSH1 0x40 SWAP1 DUP3 PUSH3 0x21CC PUSH3 0x21DA JUMP JUMPDEST AND DUP2 MSTORE PUSH1 0x6 DUP6 MSTORE KECCAK256 SLOAD AND DUP2 MSTORE RETURN JUMPDEST PUSH1 0x4 CALLDATALOAD SWAP1 PUSH1 0x1 PUSH1 0x1 PUSH1 0xA0 SHL SUB DUP3 AND DUP3 SUB PUSH3 0x1566 JUMPI JUMP JUMPDEST PUSH1 0x7 SLOAD DUP2 LT ISZERO PUSH3 0x2229 JUMPI PUSH1 0x7 PUSH1 0x0 MSTORE PUSH32 0xA66CC928B5EDB82AF9BD49922954155AB7B0942694BEA4CE44661D9A8736C688 ADD SWAP1 PUSH1 0x0 SWAP1 JUMP JUMPDEST PUSH4 0x4E487B71 PUSH1 0xE0 SHL PUSH1 0x0 MSTORE PUSH1 0x32 PUSH1 0x4 MSTORE PUSH1 0x24 PUSH1 0x0 REVERT JUMPDEST PUSH8 0xFFFFFFFFFFFFFFFF DUP2 GT PUSH3 0x1574 JUMPI PUSH1 0x40 MSTORE JUMP JUMPDEST SWAP1 PUSH1 0x1F DUP1 NOT SWAP2 ADD AND DUP2 ADD SWAP1 DUP2 LT PUSH8 0xFFFFFFFFFFFFFFFF DUP3 GT OR PUSH3 0x1574 JUMPI PUSH1 0x40 MSTORE JUMP JUMPDEST DUP2 PUSH1 0x1F DUP3 ADD SLT ISZERO PUSH3 0x1566 JUMPI DUP1 CALLDATALOAD SWAP1 PUSH8 0xFFFFFFFFFFFFFFFF DUP3 GT PUSH3 0x1574 JUMPI PUSH1 0x40 MLOAD SWAP3 PUSH3 0x22B0 PUSH1 0x1F DUP5 ADD PUSH1 0x1F NOT AND PUSH1 0x20 ADD DUP6 PUSH3 0x2254 JUMP JUMPDEST DUP3 DUP5 MSTORE PUSH1 0x20 DUP4 DUP4 ADD ADD GT PUSH3 0x1566 JUMPI DUP2 PUSH1 0x0 SWAP3 PUSH1 0x20 DUP1 SWAP4 ADD DUP4 DUP7 ADD CALLDATACOPY DUP4 ADD ADD MSTORE SWAP1 JUMP JUMPDEST PUSH1 0x0 SLOAD PUSH1 0x1 PUSH1 0x1 PUSH1 0xA0 SHL SUB AND CALLER SUB PUSH3 0x22E8 JUMPI JUMP JUMPDEST PUSH1 0x40 MLOAD PUSH4 0x118CDAA7 PUSH1 0xE0 SHL DUP2 MSTORE CALLER PUSH1 0x4 DUP3 ADD MSTORE PUSH1 0x24 SWAP1 REVERT JUMPDEST PUSH1 0x0 JUMPDEST DUP4 DUP2 LT PUSH3 0x2314 JUMPI POP POP PUSH1 0x0 SWAP2 ADD MSTORE JUMP JUMPDEST DUP2 DUP2 ADD MLOAD DUP4 DUP3 ADD MSTORE PUSH1 0x20 ADD PUSH3 0x2303 JUMP JUMPDEST SWAP1 PUSH1 0x20 SWAP2 PUSH3 0x2340 DUP2 MLOAD DUP1 SWAP3 DUP2 DUP6 MSTORE DUP6 DUP1 DUP7 ADD SWAP2 ADD PUSH3 0x2300 JUMP JUMPDEST PUSH1 0x1F ADD PUSH1 0x1F NOT AND ADD ADD SWAP1 JUMP JUMPDEST SWAP1 DUP2 PUSH1 0x20 SWAP2 SUB SLT PUSH3 0x1566 JUMPI MLOAD DUP1 ISZERO ISZERO DUP2 SUB PUSH3 0x1566 JUMPI SWAP1 JUMP JUMPDEST PUSH1 0x0 SWAP1 PUSH1 0x3 RETURNDATASIZE GT PUSH3 0x2374 JUMPI JUMP JUMPDEST SWAP1 POP PUSH1 0x4 PUSH1 0x0 DUP1 RETURNDATACOPY PUSH1 0x0 MLOAD PUSH1 0xE0 SHR SWAP1 JUMP JUMPDEST PUSH1 0x0 PUSH1 0x44 RETURNDATASIZE LT PUSH3 0x23E9 JUMPI PUSH1 0x40 MLOAD PUSH1 0x3 NOT SWAP2 RETURNDATASIZE DUP4 ADD PUSH1 0x4 DUP4 RETURNDATACOPY DUP2 MLOAD PUSH8 0xFFFFFFFFFFFFFFFF SWAP2 DUP3 DUP3 GT RETURNDATASIZE PUSH1 0x24 DUP5 ADD GT OR PUSH3 0x23EC JUMPI DUP2 DUP5 ADD SWAP5 DUP6 MLOAD SWAP4 DUP5 GT PUSH3 0x23F4 JUMPI RETURNDATASIZE DUP6 ADD ADD PUSH1 0x20 DUP5 DUP8 ADD ADD GT PUSH3 0x23EC JUMPI POP PUSH3 0x23E9 SWAP3 SWAP2 ADD PUSH1 0x20 ADD SWAP1 PUSH3 0x2254 JUMP JUMPDEST SWAP1 JUMP JUMPDEST SWAP5 SWAP4 POP POP POP POP JUMP JUMPDEST POP SWAP5 SWAP4 POP POP POP POP JUMP JUMPDEST PUSH1 0x2D DUP2 MSTORE PUSH32 0x506F6F6C20696E697469616C697A6174696F6E206661696C6564207769746820 PUSH1 0x20 DUP3 ADD MSTORE PUSH13 0x3AB735B737BBB71032B93937B9 PUSH1 0x99 SHL PUSH1 0x40 DUP3 ADD MSTORE PUSH1 0x60 ADD SWAP1 JUMP JUMPDEST PUSH1 0x2A DUP2 MSTORE PUSH32 0x506F736974696F6E206D696E74696E67206661696C6564207769746820756E6B PUSH1 0x20 DUP3 ADD MSTORE PUSH10 0x3737BBB71032B93937B9 PUSH1 0xB1 SHL PUSH1 0x40 DUP3 ADD MSTORE PUSH1 0x60 ADD SWAP1 JUMP INVALID PUSH1 0x40 PUSH1 0x80 DUP2 MSTORE CALLVALUE PUSH3 0xAC3 JUMPI PUSH3 0x2473 DUP1 CODESIZE SUB DUP1 PUSH3 0x1E DUP2 PUSH3 0xAC8 JUMP JUMPDEST SWAP3 DUP4 CODECOPY DUP2 ADD PUSH2 0x100 DUP3 DUP3 SUB SLT PUSH3 0xAC3 JUMPI DUP2 MLOAD PUSH1 0x1 PUSH1 0x1 PUSH1 0x40 SHL SUB DUP2 GT PUSH3 0xAC3 JUMPI DUP2 PUSH3 0x4E SWAP2 DUP5 ADD PUSH3 0xB13 JUMP JUMPDEST PUSH1 0x20 DUP4 ADD MLOAD SWAP1 SWAP2 SWAP1 PUSH1 0x1 PUSH1 0x1 PUSH1 0x40 SHL SUB DUP2 GT PUSH3 0xAC3 JUMPI DUP2 PUSH3 0x73 SWAP2 DUP6 ADD PUSH3 0xB13 JUMP JUMPDEST PUSH3 0x80 DUP6 DUP6 ADD PUSH3 0xB6A JUMP JUMPDEST PUSH3 0x8E PUSH1 0x60 DUP7 ADD PUSH3 0xB6A JUMP JUMPDEST SWAP1 PUSH3 0x9D PUSH1 0x80 DUP8 ADD PUSH3 0xB6A JUMP JUMPDEST PUSH1 0xA0 DUP8 ADD MLOAD SWAP1 SWAP4 SWAP1 PUSH1 0x1 PUSH1 0x1 PUSH1 0x40 SHL SUB DUP2 GT PUSH3 0xAC3 JUMPI DUP6 PUSH3 0xC2 SWAP2 DUP10 ADD PUSH3 0xB13 JUMP JUMPDEST PUSH1 0xC0 DUP9 ADD MLOAD SWAP1 SWAP8 SWAP1 PUSH1 0x1 PUSH1 0x1 PUSH1 0x40 SHL SUB DUP2 GT PUSH3 0xAC3 JUMPI DUP7 PUSH3 0xE7 SWAP2 DUP4 ADD PUSH3 0xB13 JUMP JUMPDEST PUSH1 0xE0 DUP3 ADD MLOAD SWAP1 SWAP7 SWAP1 PUSH1 0x1 PUSH1 0x1 PUSH1 0x40 SHL SUB DUP2 GT PUSH3 0xAC3 JUMPI PUSH3 0x10A SWAP3 ADD PUSH3 0xB13 JUMP JUMPDEST DUP7 MLOAD SWAP1 SWAP7 PUSH1 0x1 PUSH1 0x1 PUSH1 0x40 SHL SUB DUP3 GT PUSH3 0x65D JUMPI PUSH1 0x3 SLOAD SWAP1 PUSH1 0x1 DUP3 DUP2 SHR SWAP3 AND DUP1 ISZERO PUSH3 0xAB8 JUMPI JUMPDEST PUSH1 0x20 DUP4 LT EQ PUSH3 0x63C JUMPI DUP2 PUSH1 0x1F DUP5 SWAP4 GT PUSH3 0xA43 JUMPI JUMPDEST POP PUSH1 0x20 SWAP1 PUSH1 0x1F DUP4 GT PUSH1 0x1 EQ PUSH3 0x9B8 JUMPI PUSH1 0x0 SWAP3 PUSH3 0x9AC JUMPI JUMPDEST POP POP DUP2 PUSH1 0x1 SHL SWAP2 PUSH1 0x0 NOT SWAP1 PUSH1 0x3 SHL SHR NOT AND OR PUSH1 0x3 SSTORE JUMPDEST DUP1 MLOAD SWAP1 PUSH1 0x1 PUSH1 0x1 PUSH1 0x40 SHL SUB DUP3 GT PUSH3 0x65D JUMPI PUSH1 0x4 SLOAD SWAP1 PUSH1 0x1 DUP3 DUP2 SHR SWAP3 AND DUP1 ISZERO PUSH3 0x9A1 JUMPI JUMPDEST PUSH1 0x20 DUP4 LT EQ PUSH3 0x63C JUMPI DUP2 PUSH1 0x1F DUP5 SWAP4 GT PUSH3 0x92C JUMPI JUMPDEST POP PUSH1 0x20 SWAP1 PUSH1 0x1F DUP4 GT PUSH1 0x1 EQ PUSH3 0x8A1 JUMPI PUSH1 0x0 SWAP3 PUSH3 0x895 JUMPI JUMPDEST POP POP DUP2 PUSH1 0x1 SHL SWAP2 PUSH1 0x0 NOT SWAP1 PUSH1 0x3 SHL SHR NOT AND OR PUSH1 0x4 SSTORE JUMPDEST CALLER ISZERO PUSH3 0x87D JUMPI PUSH1 0x5 DUP1 SLOAD PUSH1 0x1 PUSH1 0x1 PUSH1 0xA0 SHL SUB NOT DUP1 DUP3 AND CALLER SWAP1 DUP2 OR SWAP1 SWAP4 SSTORE SWAP5 PUSH1 0x1 PUSH1 0x1 PUSH1 0xA0 SHL SUB SWAP5 DUP6 SWAP4 SWAP2 SWAP3 DUP5 SWAP3 SWAP1 DUP4 AND PUSH32 0x8BE0079C531659141344CD1FD0A4F28419497F9722A3DAAFE3B4186F6B6457E0 PUSH1 0x0 DUP1 LOG3 AND DUP6 PUSH1 0x6 SLOAD AND OR PUSH1 0x6 SSTORE AND DUP4 PUSH1 0x7 SLOAD AND OR PUSH1 0x7 SSTORE PUSH1 0x2 SLOAD PUSH12 0x33B2E3C9FD0803CE8000000 SWAP1 DUP2 DUP2 ADD DUP1 SWAP2 GT PUSH3 0x867 JUMPI PUSH32 0x3C5AD147104E56BE34A9176A6692F7DF8D2F4B29A5AF06BC6B98970D329D6577 SWAP2 PUSH1 0x80 SWAP2 PUSH1 0x2 SSTORE CALLER PUSH1 0x0 MSTORE PUSH1 0x0 PUSH1 0x20 MSTORE DUP10 PUSH1 0x0 KECCAK256 DUP2 DUP2 SLOAD ADD SWAP1 SSTORE DUP10 MLOAD DUP2 DUP2 MSTORE PUSH1 0x0 PUSH32 0xDDF252AD1BE2C89B69C2B068FC378DAA952BA7F163C4A11628F55A4DF523B3EF PUSH1 0x20 CALLER SWAP4 LOG3 DUP10 MLOAD SWAP1 DUP11 DUP3 MSTORE PUSH1 0x15 DUP12 DUP4 ADD MSTORE PUSH32 0x4D696E74656420696E697469616C20737570706C790000000000000000000000 PUSH1 0x60 DUP4 ADD MSTORE PUSH1 0x20 DUP3 ADD MSTORE LOG1 AND DUP1 PUSH1 0x0 MSTORE PUSH1 0x9 PUSH1 0x20 MSTORE DUP6 PUSH1 0x0 KECCAK256 PUSH1 0x1 PUSH1 0xFF NOT DUP3 SLOAD AND OR SWAP1 SSTORE PUSH1 0xA SLOAD PUSH9 0x10000000000000000 DUP2 LT ISZERO PUSH3 0x65D JUMPI PUSH1 0x1 DUP2 ADD DUP1 PUSH1 0xA SSTORE DUP2 LT ISZERO PUSH3 0x851 JUMPI PUSH1 0xA PUSH1 0x0 MSTORE PUSH32 0xC65A7BB8D6351C1CF70C95A316CC6A92839C986682D98BC35F958F4883F9D2A8 ADD DUP1 SLOAD SWAP1 SWAP3 AND OR SWAP1 SSTORE DUP4 MLOAD PUSH1 0x60 DUP2 ADD PUSH1 0x1 PUSH1 0x1 PUSH1 0x40 SHL SUB DUP2 GT DUP3 DUP3 LT OR PUSH3 0x65D JUMPI DUP6 MSTORE DUP4 DUP2 MSTORE PUSH1 0x20 DUP2 ADD DUP3 DUP2 MSTORE SWAP1 DUP6 ADD DUP4 DUP2 MSTORE DUP5 MLOAD SWAP1 SWAP2 SWAP1 PUSH1 0x1 PUSH1 0x1 PUSH1 0x40 SHL SUB DUP2 GT PUSH3 0x65D JUMPI PUSH1 0xE SLOAD PUSH1 0x1 DUP2 DUP2 SHR SWAP2 AND DUP1 ISZERO PUSH3 0x846 JUMPI JUMPDEST PUSH1 0x20 DUP3 LT EQ PUSH3 0x63C JUMPI PUSH1 0x1F DUP2 GT PUSH3 0x7ED JUMPI JUMPDEST POP DUP1 PUSH1 0x20 PUSH1 0x1F DUP3 GT PUSH1 0x1 EQ PUSH3 0x774 JUMPI PUSH1 0x0 SWAP2 PUSH3 0x768 JUMPI JUMPDEST POP DUP2 PUSH1 0x1 SHL SWAP2 PUSH1 0x0 NOT SWAP1 PUSH1 0x3 SHL SHR NOT AND OR PUSH1 0xE SSTORE JUMPDEST MLOAD DUP1 MLOAD SWAP1 PUSH1 0x1 PUSH1 0x1 PUSH1 0x40 SHL SUB DUP3 GT PUSH3 0x65D JUMPI PUSH1 0xF SLOAD SWAP1 PUSH1 0x1 DUP3 DUP2 SHR SWAP3 AND DUP1 ISZERO PUSH3 0x75D JUMPI JUMPDEST PUSH1 0x20 DUP4 LT EQ PUSH3 0x63C JUMPI DUP2 PUSH1 0x1F DUP5 SWAP4 GT PUSH3 0x6F9 JUMPI JUMPDEST POP PUSH1 0x20 SWAP1 PUSH1 0x1F DUP4 GT PUSH1 0x1 EQ PUSH3 0x67F JUMPI PUSH1 0x0 SWAP3 PUSH3 0x673 JUMPI JUMPDEST POP POP DUP2 PUSH1 0x1 SHL SWAP2 PUSH1 0x0 NOT SWAP1 PUSH1 0x3 SHL SHR NOT AND OR PUSH1 0xF SSTORE JUMPDEST MLOAD DUP1 MLOAD SWAP1 PUSH1 0x1 PUSH1 0x1 PUSH1 0x40 SHL SUB DUP3 GT PUSH3 0x65D JUMPI PUSH1 0x10 SLOAD PUSH1 0x1 DUP2 DUP2 SHR SWAP2 AND DUP1 ISZERO PUSH3 0x652 JUMPI JUMPDEST PUSH1 0x20 DUP3 LT EQ PUSH3 0x63C JUMPI PUSH1 0x1F DUP2 GT PUSH3 0x5E3 JUMPI JUMPDEST POP PUSH1 0x20 SWAP1 PUSH1 0x1F DUP4 GT PUSH1 0x1 EQ PUSH3 0x549 JUMPI PUSH1 0x0 DUP1 MLOAD PUSH1 0x20 PUSH3 0x23F3 DUP4 CODECOPY DUP2 MLOAD SWAP2 MSTORE SWAP6 SWAP4 DUP4 PUSH3 0x52C SWAP5 PUSH3 0x50F SWAP8 SWAP5 PUSH3 0x51E SWAP5 PUSH1 0x0 SWAP3 PUSH3 0x53D JUMPI JUMPDEST POP POP DUP2 PUSH1 0x1 SHL SWAP2 PUSH1 0x0 NOT SWAP1 PUSH1 0x3 SHL SHR NOT AND OR PUSH1 0x10 SSTORE JUMPDEST DUP8 MLOAD SWAP6 DUP7 SWAP6 PUSH1 0x60 DUP8 MSTORE PUSH1 0x60 DUP8 ADD SWAP1 PUSH3 0xB7F JUMP JUMPDEST SWAP1 DUP6 DUP3 SUB PUSH1 0x20 DUP8 ADD MSTORE PUSH3 0xB7F JUMP JUMPDEST SWAP1 DUP4 DUP3 SUB DUP8 DUP6 ADD MSTORE PUSH3 0xB7F JUMP JUMPDEST SUB SWAP1 LOG1 MLOAD PUSH2 0x184C SWAP1 DUP2 PUSH3 0xBA7 DUP3 CODECOPY RETURN JUMPDEST ADD MLOAD SWAP1 POP CODESIZE DUP1 PUSH3 0x4E5 JUMP JUMPDEST PUSH1 0x10 PUSH1 0x0 SWAP1 DUP2 MSTORE PUSH1 0x0 DUP1 MLOAD PUSH1 0x20 PUSH3 0x2433 DUP4 CODECOPY DUP2 MLOAD SWAP2 MSTORE SWAP3 SWAP2 SWAP1 PUSH1 0x1F NOT DUP6 AND SWAP1 JUMPDEST DUP2 DUP2 LT PUSH3 0x5CA JUMPI POP DUP5 PUSH3 0x50F SWAP8 SWAP5 PUSH3 0x51E SWAP5 PUSH1 0x0 DUP1 MLOAD PUSH1 0x20 PUSH3 0x23F3 DUP4 CODECOPY DUP2 MLOAD SWAP2 MSTORE SWAP11 SWAP9 SWAP5 PUSH3 0x52C SWAP9 PUSH1 0x1 SWAP6 LT PUSH3 0x5B0 JUMPI JUMPDEST POP POP POP DUP2 SHL ADD PUSH1 0x10 SSTORE PUSH3 0x4FB JUMP JUMPDEST ADD MLOAD PUSH1 0x0 NOT PUSH1 0xF8 DUP5 PUSH1 0x3 SHL AND SHR NOT AND SWAP1 SSTORE CODESIZE DUP1 DUP1 PUSH3 0x5A1 JUMP JUMPDEST SWAP3 SWAP4 PUSH1 0x20 PUSH1 0x1 DUP2 SWAP3 DUP8 DUP7 ADD MLOAD DUP2 SSTORE ADD SWAP6 ADD SWAP4 ADD PUSH3 0x56A JUMP JUMPDEST PUSH1 0x10 PUSH1 0x0 MSTORE PUSH1 0x0 DUP1 MLOAD PUSH1 0x20 PUSH3 0x2433 DUP4 CODECOPY DUP2 MLOAD SWAP2 MSTORE PUSH1 0x1F DUP5 ADD PUSH1 0x5 SHR DUP2 ADD SWAP2 PUSH1 0x20 DUP6 LT PUSH3 0x631 JUMPI JUMPDEST PUSH1 0x1F ADD PUSH1 0x5 SHR ADD SWAP1 JUMPDEST DUP2 DUP2 LT PUSH3 0x624 JUMPI POP PUSH3 0x4A9 JUMP JUMPDEST PUSH1 0x0 DUP2 SSTORE PUSH1 0x1 ADD PUSH3 0x615 JUMP JUMPDEST SWAP1 SWAP2 POP DUP2 SWAP1 PUSH3 0x60C JUMP JUMPDEST PUSH4 0x4E487B71 PUSH1 0xE0 SHL PUSH1 0x0 MSTORE PUSH1 0x22 PUSH1 0x4 MSTORE PUSH1 0x24 PUSH1 0x0 REVERT JUMPDEST SWAP1 PUSH1 0x7F AND SWAP1 PUSH3 0x495 JUMP JUMPDEST PUSH4 0x4E487B71 PUSH1 0xE0 SHL PUSH1 0x0 MSTORE PUSH1 0x41 PUSH1 0x4 MSTORE PUSH1 0x24 PUSH1 0x0 REVERT JUMPDEST ADD MLOAD SWAP1 POP CODESIZE DUP1 PUSH3 0x45A JUMP JUMPDEST PUSH1 0xF PUSH1 0x0 SWAP1 DUP2 MSTORE PUSH1 0x0 DUP1 MLOAD PUSH1 0x20 PUSH3 0x2453 DUP4 CODECOPY DUP2 MLOAD SWAP2 MSTORE SWAP4 POP PUSH1 0x1F NOT DUP6 AND SWAP1 JUMPDEST DUP2 DUP2 LT PUSH3 0x6E0 JUMPI POP SWAP1 DUP5 PUSH1 0x1 SWAP6 SWAP5 SWAP4 SWAP3 LT PUSH3 0x6C6 JUMPI JUMPDEST POP POP POP DUP2 SHL ADD PUSH1 0xF SSTORE PUSH3 0x470 JUMP JUMPDEST ADD MLOAD PUSH1 0x0 NOT PUSH1 0xF8 DUP5 PUSH1 0x3 SHL AND SHR NOT AND SWAP1 SSTORE CODESIZE DUP1 DUP1 PUSH3 0x6B7 JUMP JUMPDEST SWAP3 SWAP4 PUSH1 0x20 PUSH1 0x1 DUP2 SWAP3 DUP8 DUP7 ADD MLOAD DUP2 SSTORE ADD SWAP6 ADD SWAP4 ADD PUSH3 0x69F JUMP JUMPDEST PUSH1 0xF PUSH1 0x0 MSTORE SWAP1 SWAP2 POP PUSH1 0x0 DUP1 MLOAD PUSH1 0x20 PUSH3 0x2453 DUP4 CODECOPY DUP2 MLOAD SWAP2 MSTORE PUSH1 0x1F DUP5 ADD PUSH1 0x5 SHR DUP2 ADD SWAP2 PUSH1 0x20 DUP6 LT PUSH3 0x752 JUMPI JUMPDEST SWAP1 PUSH1 0x1F DUP6 SWAP5 SWAP4 SWAP3 ADD PUSH1 0x5 SHR ADD SWAP1 JUMPDEST DUP2 DUP2 LT PUSH3 0x742 JUMPI POP PUSH3 0x441 JUMP JUMPDEST PUSH1 0x0 DUP2 SSTORE DUP5 SWAP4 POP PUSH1 0x1 ADD PUSH3 0x733 JUMP JUMPDEST SWAP1 SWAP2 POP DUP2 SWAP1 PUSH3 0x725 JUMP JUMPDEST SWAP2 PUSH1 0x7F AND SWAP2 PUSH3 0x42B JUMP JUMPDEST SWAP1 POP DUP7 ADD MLOAD CODESIZE PUSH3 0x3F0 JUMP JUMPDEST PUSH1 0xE PUSH1 0x0 SWAP1 DUP2 MSTORE SWAP3 POP PUSH1 0x0 DUP1 MLOAD PUSH1 0x20 PUSH3 0x2413 DUP4 CODECOPY DUP2 MLOAD SWAP2 MSTORE SWAP1 JUMPDEST PUSH1 0x1F NOT DUP4 AND DUP5 LT PUSH3 0x7D4 JUMPI PUSH1 0x1 SWAP4 POP DUP3 PUSH1 0x1F NOT DUP2 AND LT PUSH3 0x7BA JUMPI JUMPDEST POP POP DUP2 SHL ADD PUSH1 0xE SSTORE PUSH3 0x405 JUMP JUMPDEST DUP9 ADD MLOAD PUSH1 0x0 NOT PUSH1 0xF8 DUP5 PUSH1 0x3 SHL AND SHR NOT AND SWAP1 SSTORE CODESIZE DUP1 PUSH3 0x7AC JUMP JUMPDEST DUP9 DUP2 ADD MLOAD DUP3 SSTORE PUSH1 0x20 SWAP4 DUP5 ADD SWAP4 PUSH1 0x1 SWAP1 SWAP3 ADD SWAP2 ADD PUSH3 0x78F JUMP JUMPDEST PUSH1 0xE PUSH1 0x0 MSTORE PUSH1 0x0 DUP1 MLOAD PUSH1 0x20 PUSH3 0x2413 DUP4 CODECOPY DUP2 MLOAD SWAP2 MSTORE PUSH1 0x1F DUP4 ADD PUSH1 0x5 SHR DUP2 ADD SWAP2 PUSH1 0x20 DUP5 LT PUSH3 0x83B JUMPI JUMPDEST PUSH1 0x1F ADD PUSH1 0x5 SHR ADD SWAP1 JUMPDEST DUP2 DUP2 LT PUSH3 0x82E JUMPI POP PUSH3 0x3D7 JUMP JUMPDEST PUSH1 0x0 DUP2 SSTORE PUSH1 0x1 ADD PUSH3 0x81F JUMP JUMPDEST SWAP1 SWAP2 POP DUP2 SWAP1 PUSH3 0x816 JUMP JUMPDEST SWAP1 PUSH1 0x7F AND SWAP1 PUSH3 0x3C3 JUMP JUMPDEST PUSH4 0x4E487B71 PUSH1 0xE0 SHL PUSH1 0x0 MSTORE PUSH1 0x32 PUSH1 0x4 MSTORE PUSH1 0x24 PUSH1 0x0 REVERT JUMPDEST PUSH4 0x4E487B71 PUSH1 0xE0 SHL PUSH1 0x0 MSTORE PUSH1 0x11 PUSH1 0x4 MSTORE PUSH1 0x24 PUSH1 0x0 REVERT JUMPDEST DUP7 MLOAD PUSH4 0x1E4FBDF7 PUSH1 0xE0 SHL DUP2 MSTORE PUSH1 0x0 PUSH1 0x4 DUP3 ADD MSTORE PUSH1 0x24 SWAP1 REVERT JUMPDEST ADD MLOAD SWAP1 POP CODESIZE DUP1 PUSH3 0x1C9 JUMP JUMPDEST PUSH1 0x4 PUSH1 0x0 SWAP1 DUP2 MSTORE PUSH32 0x8A35ACFBC15FF81A39AE7D344FD709F28E8600B4AA8C65C6B64BFE7FE36BD19B SWAP4 POP PUSH1 0x1F NOT DUP6 AND SWAP1 JUMPDEST DUP2 DUP2 LT PUSH3 0x913 JUMPI POP SWAP1 DUP5 PUSH1 0x1 SWAP6 SWAP5 SWAP4 SWAP3 LT PUSH3 0x8F9 JUMPI JUMPDEST POP POP POP DUP2 SHL ADD PUSH1 0x4 SSTORE PUSH3 0x1DF JUMP JUMPDEST ADD MLOAD PUSH1 0x0 NOT PUSH1 0xF8 DUP5 PUSH1 0x3 SHL AND SHR NOT AND SWAP1 SSTORE CODESIZE DUP1 DUP1 PUSH3 0x8EA JUMP JUMPDEST SWAP3 SWAP4 PUSH1 0x20 PUSH1 0x1 DUP2 SWAP3 DUP8 DUP7 ADD MLOAD DUP2 SSTORE ADD SWAP6 ADD SWAP4 ADD PUSH3 0x8D2 JUMP JUMPDEST PUSH1 0x4 PUSH1 0x0 MSTORE SWAP1 SWAP2 POP PUSH32 0x8A35ACFBC15FF81A39AE7D344FD709F28E8600B4AA8C65C6B64BFE7FE36BD19B PUSH1 0x1F DUP5 ADD PUSH1 0x5 SHR DUP2 ADD SWAP2 PUSH1 0x20 DUP6 LT PUSH3 0x996 JUMPI JUMPDEST SWAP1 PUSH1 0x1F DUP6 SWAP5 SWAP4 SWAP3 ADD PUSH1 0x5 SHR ADD SWAP1 JUMPDEST DUP2 DUP2 LT PUSH3 0x986 JUMPI POP PUSH3 0x1B0 JUMP JUMPDEST PUSH1 0x0 DUP2 SSTORE DUP5 SWAP4 POP PUSH1 0x1 ADD PUSH3 0x977 JUMP JUMPDEST SWAP1 SWAP2 POP DUP2 SWAP1 PUSH3 0x969 JUMP JUMPDEST SWAP2 PUSH1 0x7F AND SWAP2 PUSH3 0x19A JUMP JUMPDEST ADD MLOAD SWAP1 POP CODESIZE DUP1 PUSH3 0x15F JUMP JUMPDEST PUSH1 0x3 PUSH1 0x0 SWAP1 DUP2 MSTORE PUSH32 0xC2575A0E9E593C00F959F8C92F12DB2869C3395A3B0502D05E2516446F71F85B SWAP4 POP PUSH1 0x1F NOT DUP6 AND SWAP1 JUMPDEST DUP2 DUP2 LT PUSH3 0xA2A JUMPI POP SWAP1 DUP5 PUSH1 0x1 SWAP6 SWAP5 SWAP4 SWAP3 LT PUSH3 0xA10 JUMPI JUMPDEST POP POP POP DUP2 SHL ADD PUSH1 0x3 SSTORE PUSH3 0x175 JUMP JUMPDEST ADD MLOAD PUSH1 0x0 NOT PUSH1 0xF8 DUP5 PUSH1 0x3 SHL AND SHR NOT AND SWAP1 SSTORE CODESIZE DUP1 DUP1 PUSH3 0xA01 JUMP JUMPDEST SWAP3 SWAP4 PUSH1 0x20 PUSH1 0x1 DUP2 SWAP3 DUP8 DUP7 ADD MLOAD DUP2 SSTORE ADD SWAP6 ADD SWAP4 ADD PUSH3 0x9E9 JUMP JUMPDEST PUSH1 0x3 PUSH1 0x0 MSTORE SWAP1 SWAP2 POP PUSH32 0xC2575A0E9E593C00F959F8C92F12DB2869C3395A3B0502D05E2516446F71F85B PUSH1 0x1F DUP5 ADD PUSH1 0x5 SHR DUP2 ADD SWAP2 PUSH1 0x20 DUP6 LT PUSH3 0xAAD JUMPI JUMPDEST SWAP1 PUSH1 0x1F DUP6 SWAP5 SWAP4 SWAP3 ADD PUSH1 0x5 SHR ADD SWAP1 JUMPDEST DUP2 DUP2 LT PUSH3 0xA9D JUMPI POP PUSH3 0x146 JUMP JUMPDEST PUSH1 0x0 DUP2 SSTORE DUP5 SWAP4 POP PUSH1 0x1 ADD PUSH3 0xA8E JUMP JUMPDEST SWAP1 SWAP2 POP DUP2 SWAP1 PUSH3 0xA80 JUMP JUMPDEST SWAP2 PUSH1 0x7F AND SWAP2 PUSH3 0x130 JUMP JUMPDEST PUSH1 0x0 DUP1 REVERT JUMPDEST PUSH1 0x40 MLOAD SWAP2 SWAP1 PUSH1 0x1F ADD PUSH1 0x1F NOT AND DUP3 ADD PUSH1 0x1 PUSH1 0x1 PUSH1 0x40 SHL SUB DUP2 GT DUP4 DUP3 LT OR PUSH3 0x65D JUMPI PUSH1 0x40 MSTORE JUMP JUMPDEST PUSH1 0x0 JUMPDEST DUP4 DUP2 LT PUSH3 0xB02 JUMPI POP POP PUSH1 0x0 SWAP2 ADD MSTORE JUMP JUMPDEST DUP2 DUP2 ADD MLOAD DUP4 DUP3 ADD MSTORE PUSH1 0x20 ADD PUSH3 0xAF1 JUMP JUMPDEST DUP2 PUSH1 0x1F DUP3 ADD SLT ISZERO PUSH3 0xAC3 JUMPI DUP1 MLOAD PUSH1 0x1 PUSH1 0x1 PUSH1 0x40 SHL SUB DUP2 GT PUSH3 0x65D JUMPI PUSH3 0xB45 PUSH1 0x1F DUP3 ADD PUSH1 0x1F NOT AND PUSH1 0x20 ADD PUSH3 0xAC8 JUMP JUMPDEST SWAP3 DUP2 DUP5 MSTORE PUSH1 0x20 DUP3 DUP5 ADD ADD GT PUSH3 0xAC3 JUMPI PUSH3 0xB67 SWAP2 PUSH1 0x20 DUP1 DUP6 ADD SWAP2 ADD PUSH3 0xAEE JUMP JUMPDEST SWAP1 JUMP JUMPDEST MLOAD SWAP1 PUSH1 0x1 PUSH1 0x1 PUSH1 0xA0 SHL SUB DUP3 AND DUP3 SUB PUSH3 0xAC3 JUMPI JUMP JUMPDEST SWAP1 PUSH1 0x20 SWAP2 PUSH3 0xB9A DUP2 MLOAD DUP1 SWAP3 DUP2 DUP6 MSTORE DUP6 DUP1 DUP7 ADD SWAP2 ADD PUSH3 0xAEE JUMP JUMPDEST PUSH1 0x1F ADD PUSH1 0x1F NOT AND ADD ADD SWAP1 JUMP INVALID PUSH1 0x80 PUSH1 0x40 DUP2 DUP2 MSTORE PUSH1 0x4 DUP1 CALLDATASIZE LT ISZERO PUSH2 0x21 JUMPI JUMPDEST POP POP POP CALLDATASIZE ISZERO PUSH2 0x1F JUMPI PUSH1 0x0 DUP1 REVERT JUMPDEST STOP JUMPDEST PUSH1 0x0 SWAP2 DUP3 CALLDATALOAD PUSH1 0xE0 SHR SWAP4 DUP5 PUSH4 0x6FDDE03 EQ PUSH2 0x1141 JUMPI POP DUP4 PUSH4 0x95EA7B3 EQ PUSH2 0x1098 JUMPI DUP4 PUSH4 0x18160DDD EQ PUSH2 0x1079 JUMPI DUP4 PUSH4 0x1ADB84FD EQ PUSH2 0x105A JUMPI DUP4 PUSH4 0x23B872DD EQ PUSH2 0xF68 JUMPI DUP4 PUSH4 0x2A11CED0 EQ PUSH2 0xF12 JUMPI DUP4 PUSH4 0x313CE567 EQ PUSH2 0xEF6 JUMPI DUP4 PUSH4 0x372500AB EQ PUSH2 0xCE5 JUMPI DUP4 PUSH4 0x3AD10EF6 EQ PUSH2 0xCBC JUMPI DUP4 PUSH4 0x436A88C1 EQ PUSH2 0xCA0 JUMPI DUP4 PUSH4 0x4CECFBE6 EQ PUSH2 0xC81 JUMPI DUP4 PUSH4 0x5DAB0FE3 EQ PUSH2 0x17F JUMPI DUP4 PUSH4 0x5F96684B EQ PUSH2 0x93F JUMPI DUP4 PUSH4 0x67B9A286 EQ PUSH2 0x655 JUMPI DUP4 PUSH4 0x70A08231 EQ PUSH2 0x61E JUMPI DUP4 PUSH4 0x715018A6 EQ PUSH2 0x5C0 JUMPI DUP4 PUSH4 0x791B98BC EQ PUSH2 0x597 JUMPI DUP4 PUSH4 0x8DA5CB5B EQ PUSH2 0x56E JUMPI DUP4 PUSH4 0x93427CD5 EQ PUSH2 0x415 JUMPI DUP4 PUSH4 0x95D89B41 EQ PUSH2 0x455 JUMPI DUP4 PUSH4 0xA8FB7D40 EQ PUSH2 0x415 JUMPI DUP4 PUSH4 0xA9059CBB EQ PUSH2 0x3E4 JUMPI DUP4 PUSH4 0xBD834345 EQ PUSH2 0x3AC JUMPI DUP4 PUSH4 0xCEEFE5D1 EQ PUSH2 0x38D JUMPI DUP4 PUSH4 0xD4D7B19A EQ PUSH2 0x34F JUMPI DUP4 PUSH4 0xD73792A9 EQ PUSH2 0x333 JUMPI DUP4 PUSH4 0xDD62ED3E EQ PUSH2 0x2E1 JUMPI DUP4 PUSH4 0xF2FDE38B EQ PUSH2 0x251 JUMPI DUP4 PUSH4 0xF71B6681 EQ PUSH2 0x184 JUMPI POP POP POP PUSH4 0xF963812D EQ PUSH2 0x17F JUMPI CODESIZE DUP1 DUP1 PUSH2 0x11 JUMP JUMPDEST PUSH2 0x1290 JUMP JUMPDEST CALLVALUE PUSH2 0x24D JUMPI PUSH1 0x20 CALLDATASIZE PUSH1 0x3 NOT ADD SLT PUSH2 0x24D JUMPI DUP2 CALLDATALOAD SWAP2 PUSH2 0x1A0 PUSH2 0x158D JUMP JUMPDEST PUSH1 0x8 SLOAD PUSH2 0x214 JUMPI DUP3 ISZERO PUSH2 0x1DF JUMPI POP DUP2 PUSH1 0x20 SWAP2 PUSH32 0xF32EDDAECA0B96600FAF4AFDC67F1929ECFC35985ABA1F8DE8825D24B5E5D61 SWAP4 PUSH1 0x8 SSTORE MLOAD SWAP1 DUP2 MSTORE LOG1 DUP1 RETURN JUMPDEST PUSH1 0x20 PUSH1 0x64 SWAP3 MLOAD SWAP2 PUSH3 0x461BCD PUSH1 0xE5 SHL DUP4 MSTORE DUP3 ADD MSTORE PUSH1 0x10 PUSH1 0x24 DUP3 ADD MSTORE PUSH16 0x125B9D985B1A59081D1BDAD95B881251 PUSH1 0x82 SHL PUSH1 0x44 DUP3 ADD MSTORE REVERT JUMPDEST PUSH1 0x20 PUSH1 0x64 SWAP3 MLOAD SWAP2 PUSH3 0x461BCD PUSH1 0xE5 SHL DUP4 MSTORE DUP3 ADD MSTORE PUSH1 0x14 PUSH1 0x24 DUP3 ADD MSTORE PUSH20 0x141BDCDA5D1A5BDB88185B1C9958591E481CD95D PUSH1 0x62 SHL PUSH1 0x44 DUP3 ADD MSTORE REVERT JUMPDEST DUP3 DUP1 REVERT JUMPDEST SWAP1 CALLVALUE PUSH2 0x24D JUMPI PUSH1 0x20 CALLDATASIZE PUSH1 0x3 NOT ADD SLT PUSH2 0x24D JUMPI PUSH2 0x26B PUSH2 0x125F JUMP JUMPDEST SWAP1 PUSH2 0x274 PUSH2 0x158D JUMP JUMPDEST PUSH1 0x1 PUSH1 0x1 PUSH1 0xA0 SHL SUB SWAP2 DUP3 AND SWAP3 DUP4 ISZERO PUSH2 0x2CB JUMPI POP POP PUSH1 0x5 SLOAD DUP3 PUSH12 0xFFFFFFFFFFFFFFFFFFFFFFFF PUSH1 0xA0 SHL DUP3 AND OR PUSH1 0x5 SSTORE AND PUSH32 0x8BE0079C531659141344CD1FD0A4F28419497F9722A3DAAFE3B4186F6B6457E0 PUSH1 0x0 DUP1 LOG3 DUP1 RETURN JUMPDEST MLOAD PUSH4 0x1E4FBDF7 PUSH1 0xE0 SHL DUP2 MSTORE SWAP1 DUP2 ADD DUP5 SWAP1 MSTORE PUSH1 0x24 SWAP1 REVERT JUMPDEST SWAP1 POP CALLVALUE PUSH2 0x32F JUMPI DUP1 PUSH1 0x3 NOT CALLDATASIZE ADD SLT PUSH2 0x32F JUMPI PUSH1 0x20 SWAP2 PUSH2 0x2FE PUSH2 0x125F JUMP JUMPDEST DUP3 PUSH2 0x307 PUSH2 0x127A JUMP JUMPDEST PUSH1 0x1 PUSH1 0x1 PUSH1 0xA0 SHL SUB SWAP3 DUP4 AND DUP5 MSTORE PUSH1 0x1 DUP7 MSTORE SWAP3 KECCAK256 SWAP2 AND PUSH1 0x0 SWAP1 DUP2 MSTORE SWAP1 DUP4 MSTORE DUP2 SWAP1 KECCAK256 SLOAD SWAP1 MLOAD SWAP1 DUP2 MSTORE RETURN JUMPDEST POP DUP1 REVERT JUMPDEST SWAP1 POP CALLVALUE PUSH2 0x32F JUMPI DUP2 PUSH1 0x3 NOT CALLDATASIZE ADD SLT PUSH2 0x32F JUMPI PUSH1 0x20 SWAP1 MLOAD PUSH1 0x64 DUP2 MSTORE RETURN JUMPDEST SWAP1 POP CALLVALUE PUSH2 0x32F JUMPI PUSH1 0x20 CALLDATASIZE PUSH1 0x3 NOT ADD SLT PUSH2 0x32F JUMPI PUSH1 0x20 SWAP2 PUSH1 0xFF SWAP1 DUP3 SWAP1 PUSH1 0x1 PUSH1 0x1 PUSH1 0xA0 SHL SUB PUSH2 0x37A PUSH2 0x125F JUMP JUMPDEST AND DUP2 MSTORE PUSH1 0x9 DUP6 MSTORE KECCAK256 SLOAD AND SWAP1 MLOAD SWAP1 ISZERO ISZERO DUP2 MSTORE RETURN JUMPDEST SWAP1 POP CALLVALUE PUSH2 0x32F JUMPI DUP2 PUSH1 0x3 NOT CALLDATASIZE ADD SLT PUSH2 0x32F JUMPI PUSH1 0x20 SWAP1 PUSH1 0x8 SLOAD SWAP1 MLOAD SWAP1 DUP2 MSTORE RETURN JUMPDEST SWAP1 POP CALLVALUE PUSH2 0x32F JUMPI PUSH1 0x20 CALLDATASIZE PUSH1 0x3 NOT ADD SLT PUSH2 0x32F JUMPI PUSH1 0x20 SWAP2 DUP2 SWAP1 PUSH1 0x1 PUSH1 0x1 PUSH1 0xA0 SHL SUB PUSH2 0x3D4 PUSH2 0x125F JUMP JUMPDEST AND DUP2 MSTORE PUSH1 0xD DUP5 MSTORE KECCAK256 SLOAD SWAP1 MLOAD SWAP1 DUP2 MSTORE RETURN JUMPDEST SWAP1 POP CALLVALUE PUSH2 0x32F JUMPI DUP1 PUSH1 0x3 NOT CALLDATASIZE ADD SLT PUSH2 0x32F JUMPI PUSH1 0x20 SWAP1 PUSH2 0x40E PUSH2 0x404 PUSH2 0x125F JUMP JUMPDEST PUSH1 0x24 CALLDATALOAD SWAP1 CALLER PUSH2 0x15B9 JUMP JUMPDEST MLOAD PUSH1 0x1 DUP2 MSTORE RETURN JUMPDEST DUP3 CALLVALUE PUSH2 0x452 JUMPI DUP1 PUSH1 0x3 NOT CALLDATASIZE ADD SLT PUSH2 0x452 JUMPI POP PUSH2 0x42F PUSH2 0x133A JUMP JUMPDEST PUSH2 0x44E PUSH2 0x43A PUSH2 0x1425 JUMP JUMPDEST SWAP3 PUSH2 0x443 PUSH2 0x14D9 JUMP JUMPDEST SWAP1 MLOAD SWAP4 DUP5 SWAP4 DUP5 PUSH2 0x12AC JUMP JUMPDEST SUB SWAP1 RETURN JUMPDEST DUP1 REVERT JUMPDEST DUP3 CALLVALUE PUSH2 0x452 JUMPI DUP1 PUSH1 0x3 NOT CALLDATASIZE ADD SLT PUSH2 0x452 JUMPI POP DUP1 MLOAD SWAP1 PUSH1 0x0 SWAP1 DUP4 SLOAD SWAP2 PUSH1 0x1 DUP4 DUP2 SHR SWAP1 DUP1 DUP6 AND SWAP5 DUP6 ISZERO PUSH2 0x564 JUMPI JUMPDEST PUSH1 0x20 SWAP6 DUP7 DUP5 LT DUP2 EQ PUSH2 0x551 JUMPI SWAP1 DUP7 DUP9 SWAP10 SWAP3 DUP6 DUP11 SWAP9 SWAP10 SWAP11 MSTORE SWAP2 DUP3 PUSH1 0x0 EQ PUSH2 0x52A JUMPI POP POP PUSH1 0x1 EQ PUSH2 0x4CD JUMPI JUMPDEST POP POP POP PUSH2 0x44E SWAP3 SWAP2 PUSH2 0x4BE SWAP2 SUB DUP6 PUSH2 0x1318 JUMP JUMPDEST MLOAD SWAP3 DUP3 DUP5 SWAP4 DUP5 MSTORE DUP4 ADD SWAP1 PUSH2 0x121F JUMP JUMPDEST PUSH1 0x0 SWAP1 DUP2 MSTORE DUP7 SWAP4 POP SWAP2 SWAP1 PUSH32 0x8A35ACFBC15FF81A39AE7D344FD709F28E8600B4AA8C65C6B64BFE7FE36BD19B JUMPDEST DUP3 DUP5 LT PUSH2 0x512 JUMPI POP POP POP DUP3 ADD ADD DUP2 PUSH2 0x4BE PUSH2 0x44E PUSH2 0x4AB JUMP JUMPDEST DUP1 SLOAD DUP5 DUP11 ADD DUP7 ADD MSTORE DUP9 SWAP6 POP DUP8 SWAP5 SWAP1 SWAP4 ADD SWAP3 DUP2 ADD PUSH2 0x4F9 JUMP JUMPDEST PUSH1 0xFF NOT AND DUP8 DUP3 ADD MSTORE SWAP4 ISZERO ISZERO PUSH1 0x5 SHL DUP7 ADD SWAP1 SWAP4 ADD SWAP4 POP DUP5 SWAP3 POP PUSH2 0x4BE SWAP2 POP PUSH2 0x44E SWAP1 POP PUSH2 0x4AB JUMP JUMPDEST PUSH4 0x4E487B71 PUSH1 0xE0 SHL DUP6 MSTORE PUSH1 0x22 DUP10 MSTORE PUSH1 0x24 DUP6 REVERT JUMPDEST SWAP2 PUSH1 0x7F AND SWAP2 PUSH2 0x481 JUMP JUMPDEST SWAP1 POP CALLVALUE PUSH2 0x32F JUMPI DUP2 PUSH1 0x3 NOT CALLDATASIZE ADD SLT PUSH2 0x32F JUMPI PUSH1 0x5 SLOAD SWAP1 MLOAD PUSH1 0x1 PUSH1 0x1 PUSH1 0xA0 SHL SUB SWAP1 SWAP2 AND DUP2 MSTORE PUSH1 0x20 SWAP1 RETURN JUMPDEST SWAP1 POP CALLVALUE PUSH2 0x32F JUMPI DUP2 PUSH1 0x3 NOT CALLDATASIZE ADD SLT PUSH2 0x32F JUMPI PUSH1 0x7 SLOAD SWAP1 MLOAD PUSH1 0x1 PUSH1 0x1 PUSH1 0xA0 SHL SUB SWAP1 SWAP2 AND DUP2 MSTORE PUSH1 0x20 SWAP1 RETURN JUMPDEST DUP3 CALLVALUE PUSH2 0x452 JUMPI DUP1 PUSH1 0x3 NOT CALLDATASIZE ADD SLT PUSH2 0x452 JUMPI PUSH2 0x5D9 PUSH2 0x158D JUMP JUMPDEST PUSH1 0x5 DUP1 SLOAD PUSH1 0x1 PUSH1 0x1 PUSH1 0xA0 SHL SUB NOT DUP2 AND SWAP1 SWAP2 SSTORE PUSH1 0x0 SWAP1 PUSH1 0x1 PUSH1 0x1 PUSH1 0xA0 SHL SUB AND PUSH32 0x8BE0079C531659141344CD1FD0A4F28419497F9722A3DAAFE3B4186F6B6457E0 DUP3 DUP1 LOG3 DUP1 RETURN JUMPDEST SWAP1 POP CALLVALUE PUSH2 0x32F JUMPI PUSH1 0x20 CALLDATASIZE PUSH1 0x3 NOT ADD SLT PUSH2 0x32F JUMPI PUSH1 0x20 SWAP2 DUP2 SWAP1 PUSH1 0x1 PUSH1 0x1 PUSH1 0xA0 SHL SUB PUSH2 0x646 PUSH2 0x125F JUMP JUMPDEST AND DUP2 MSTORE DUP1 DUP5 MSTORE KECCAK256 SLOAD SWAP1 MLOAD SWAP1 DUP2 MSTORE RETURN JUMPDEST DUP3 SWAP1 CALLVALUE PUSH2 0x32F JUMPI DUP2 PUSH1 0x3 NOT CALLDATASIZE ADD SLT PUSH2 0x32F JUMPI PUSH2 0x66F PUSH2 0x158D JUMP JUMPDEST PUSH1 0x8 SLOAD DUP1 ISZERO PUSH2 0x904 JUMPI PUSH1 0x1 DUP1 PUSH1 0xA0 SHL SUB PUSH1 0x7 SLOAD AND SWAP4 DUP3 MLOAD SWAP2 PUSH4 0x133F7571 PUSH1 0xE3 SHL DUP4 MSTORE DUP1 DUP3 DUP5 ADD MSTORE PUSH2 0x180 SWAP6 PUSH1 0x24 SWAP4 DUP8 DUP2 DUP7 DUP2 DUP6 GAS STATICCALL SWAP8 DUP9 ISZERO PUSH2 0x83A JUMPI DUP8 SWAP9 PUSH2 0x8C9 JUMPI JUMPDEST POP POP PUSH1 0x1 PUSH1 0x1 PUSH1 0x80 SHL SUB DUP1 SWAP8 AND SWAP7 DUP8 ISZERO PUSH2 0x88E JUMPI PUSH2 0x12C TIMESTAMP ADD DUP1 TIMESTAMP GT PUSH2 0x87C JUMPI DUP7 MLOAD SWAP1 PUSH1 0xA0 DUP3 ADD SWAP10 PUSH8 0xFFFFFFFFFFFFFFFF SWAP6 DUP4 DUP13 LT DUP8 DUP14 GT OR PUSH2 0x86A JUMPI DUP11 SWAP12 DUP11 MSTORE DUP4 MSTORE PUSH1 0x20 DUP4 ADD SWAP1 DUP2 MSTORE DUP9 DUP4 ADD DUP11 DUP2 MSTORE DUP5 PUSH1 0x60 DUP6 ADD SWAP3 DUP13 DUP5 MSTORE PUSH1 0x80 DUP7 ADD SWAP5 DUP6 MSTORE DUP12 MLOAD SWAP6 PUSH4 0x624E65F PUSH1 0xE1 SHL DUP8 MSTORE MLOAD DUP11 DUP8 ADD MSTORE MLOAD AND DUP10 DUP6 ADD MSTORE MLOAD PUSH1 0x44 DUP5 ADD MSTORE MLOAD PUSH1 0x64 DUP4 ADD MSTORE MLOAD PUSH1 0x84 DUP3 ADD MSTORE DUP7 DUP2 PUSH1 0xA4 DUP2 DUP12 DUP8 GAS CALL DUP1 ISZERO PUSH2 0x860 JUMPI SWAP2 DUP8 SWAP2 PUSH2 0x792 SWAP4 PUSH2 0x844 JUMPI JUMPDEST POP PUSH1 0x8 SLOAD SWAP1 DUP3 MLOAD SWAP2 PUSH2 0x768 DUP4 PUSH2 0x12E6 JUMP JUMPDEST DUP3 MSTORE CALLER PUSH1 0x20 DUP4 ADD MSTORE DUP1 DUP4 DUP4 ADD MSTORE PUSH1 0x60 DUP3 ADD MSTORE DUP2 MLOAD DUP1 SWAP4 DUP2 SWAP3 PUSH4 0xFC6F7865 PUSH1 0xE0 SHL DUP4 MSTORE DUP9 DUP4 ADD PUSH2 0x16D0 JUMP JUMPDEST SUB DUP2 DUP11 DUP7 GAS CALL DUP1 ISZERO PUSH2 0x83A JUMPI PUSH2 0x80E JUMPI JUMPDEST POP PUSH1 0x8 SLOAD SWAP1 DUP1 EXTCODESIZE ISZERO PUSH2 0x80A JUMPI DUP5 DUP8 SWAP3 DUP8 MLOAD SWAP9 DUP10 SWAP4 DUP5 SWAP3 PUSH4 0x852CD8D PUSH1 0xE3 SHL DUP5 MSTORE DUP9 DUP5 ADD MSTORE GAS CALL DUP1 ISZERO PUSH2 0x800 JUMPI PUSH2 0x7DC JUMPI JUMPDEST DUP6 DUP1 PUSH1 0x8 SSTORE DUP1 RETURN JUMPDEST DUP5 GT PUSH2 0x7EF JUMPI POP POP MSTORE DUP2 DUP1 DUP1 DUP1 DUP1 PUSH2 0x7D4 JUMP JUMPDEST PUSH4 0x4E487B71 PUSH1 0xE0 SHL DUP6 MSTORE PUSH1 0x41 SWAP1 MSTORE DUP4 REVERT JUMPDEST DUP5 MLOAD RETURNDATASIZE DUP9 DUP3 RETURNDATACOPY RETURNDATASIZE SWAP1 REVERT JUMPDEST DUP7 DUP1 REVERT JUMPDEST PUSH2 0x82D SWAP1 DUP7 RETURNDATASIZE DUP9 GT PUSH2 0x833 JUMPI JUMPDEST PUSH2 0x825 DUP2 DUP4 PUSH2 0x1318 JUMP JUMPDEST DUP2 ADD SWAP1 PUSH2 0x16BA JUMP JUMPDEST POP PUSH2 0x7A3 JUMP JUMPDEST POP RETURNDATASIZE PUSH2 0x81B JUMP JUMPDEST DUP7 MLOAD RETURNDATASIZE DUP10 DUP3 RETURNDATACOPY RETURNDATASIZE SWAP1 REVERT JUMPDEST PUSH2 0x85A SWAP1 DUP4 RETURNDATASIZE DUP6 GT PUSH2 0x833 JUMPI PUSH2 0x825 DUP2 DUP4 PUSH2 0x1318 JUMP JUMPDEST POP PUSH2 0x757 JUMP JUMPDEST DUP8 MLOAD RETURNDATASIZE DUP11 DUP3 RETURNDATACOPY RETURNDATASIZE SWAP1 REVERT JUMPDEST PUSH4 0x4E487B71 PUSH1 0xE0 SHL DUP12 MSTORE PUSH1 0x41 DUP9 MSTORE DUP9 DUP12 REVERT JUMPDEST PUSH4 0x4E487B71 PUSH1 0xE0 SHL DUP9 MSTORE PUSH1 0x11 DUP6 MSTORE DUP6 DUP9 REVERT JUMPDEST DUP6 MLOAD PUSH3 0x461BCD PUSH1 0xE5 SHL DUP2 MSTORE PUSH1 0x20 DUP2 DUP7 ADD MSTORE PUSH1 0x16 DUP2 DUP8 ADD MSTORE PUSH22 0x4E6F206C697175696469747920746F2072656D6F7665 PUSH1 0x50 SHL PUSH1 0x44 DUP3 ADD MSTORE PUSH1 0x64 SWAP1 REVERT JUMPDEST PUSH2 0x8E9 SWAP3 SWAP9 POP DUP1 RETURNDATASIZE LT PUSH2 0x8FD JUMPI JUMPDEST PUSH2 0x8E1 DUP2 DUP4 PUSH2 0x1318 JUMP JUMPDEST DUP2 ADD SWAP1 PUSH2 0x1744 JUMP JUMPDEST POP POP POP POP SWAP7 POP POP POP POP POP POP POP SWAP6 DUP8 DUP1 PUSH2 0x6B2 JUMP JUMPDEST POP RETURNDATASIZE PUSH2 0x8D7 JUMP JUMPDEST DUP2 MLOAD PUSH3 0x461BCD PUSH1 0xE5 SHL DUP2 MSTORE PUSH1 0x20 DUP2 DUP7 ADD MSTORE PUSH1 0x15 PUSH1 0x24 DUP3 ADD MSTORE PUSH21 0x2737903634B8BAB4B234BA3C903837B9B4BA34B7B7 PUSH1 0x59 SHL PUSH1 0x44 DUP3 ADD MSTORE PUSH1 0x64 SWAP1 REVERT JUMPDEST SWAP1 CALLVALUE PUSH2 0x24D JUMPI DUP3 PUSH1 0x3 NOT CALLDATASIZE ADD SLT PUSH2 0x24D JUMPI PUSH2 0x958 PUSH2 0x158D JUMP JUMPDEST PUSH1 0x8 SLOAD SWAP1 DUP2 ISZERO PUSH2 0xC4B JUMPI PUSH1 0x7 SLOAD DUP4 MLOAD SWAP3 PUSH2 0x9B6 SWAP3 PUSH1 0x1 PUSH1 0x1 PUSH1 0xA0 SHL SUB SWAP3 DUP4 AND SWAP2 PUSH2 0x981 DUP7 PUSH2 0x12E6 JUMP JUMPDEST DUP6 MSTORE DUP6 PUSH1 0x20 SWAP6 ADDRESS DUP8 DUP3 ADD MSTORE PUSH1 0x1 PUSH1 0x1 PUSH1 0x80 SHL SUB DUP1 DUP4 DUP4 ADD MSTORE PUSH1 0x60 DUP3 ADD MSTORE DUP2 MLOAD DUP1 SWAP7 DUP2 SWAP3 PUSH4 0xFC6F7865 PUSH1 0xE0 SHL DUP4 MSTORE DUP6 DUP4 ADD PUSH2 0x16D0 JUMP JUMPDEST SUB DUP2 DUP11 DUP7 GAS CALL SWAP4 DUP5 ISZERO PUSH2 0x83A JUMPI DUP8 SWAP1 DUP9 SWAP6 PUSH2 0xC29 JUMPI JUMPDEST POP DUP1 ISZERO SWAP5 DUP6 ISZERO SWAP1 DUP2 PUSH2 0xC1F JUMPI JUMPDEST POP PUSH2 0x9E2 JUMPI DUP8 DUP1 RETURN JUMPDEST PUSH1 0x8 SLOAD DUP8 MLOAD SWAP4 DUP5 SWAP2 PUSH4 0x133F7571 PUSH1 0xE3 SHL DUP4 MSTORE DUP5 DUP4 ADD MSTORE DUP2 PUSH1 0x24 PUSH2 0x180 SWAP7 DUP8 SWAP4 GAS STATICCALL SWAP4 DUP5 ISZERO PUSH2 0xC15 JUMPI DUP10 SWAP5 PUSH2 0xBEA JUMPI JUMPDEST POP POP PUSH1 0x28 DUP2 MUL DUP2 DUP2 DIV PUSH1 0x28 EQ DUP7 OR ISZERO PUSH2 0xBD7 JUMPI PUSH1 0x64 SWAP1 DIV SWAP5 PUSH1 0x14 DUP3 MUL SWAP2 DUP3 DIV PUSH1 0x14 EQ OR ISZERO PUSH2 0xBC4 JUMPI PUSH1 0x64 DUP9 SWAP2 DIV SWAP4 DUP6 PUSH2 0xB53 JUMPI JUMPDEST DUP5 PUSH2 0xA9D JUMPI JUMPDEST POP POP POP POP SWAP1 PUSH32 0x312C5308F42848705A866C73DEC11FD0783C2D64AAC6A97E94467062AD3F4058 SWAP4 PUSH1 0x60 SWAP4 SWAP3 PUSH2 0xA82 DUP4 PUSH1 0xC SLOAD PUSH2 0x1697 JUMP JUMPDEST PUSH1 0xC SSTORE DUP2 MLOAD SWAP4 DUP4 DUP6 MSTORE DUP5 ADD MSTORE DUP3 ADD MSTORE LOG1 DUP2 DUP1 DUP1 DUP1 DUP1 DUP1 DUP1 DUP8 DUP1 RETURN JUMPDEST PUSH1 0x6 SLOAD DUP9 MLOAD PUSH4 0xA9059CBB PUSH1 0xE0 SHL DUP2 MSTORE SWAP1 DUP3 AND PUSH1 0x1 PUSH1 0x1 PUSH1 0xA0 SHL SUB AND SWAP4 DUP2 ADD SWAP4 DUP5 MSTORE PUSH1 0x20 DUP5 ADD DUP7 SWAP1 MSTORE SWAP4 DUP8 SWAP4 DUP6 SWAP4 SWAP2 SWAP3 DUP5 SWAP3 SWAP2 DUP4 SWAP1 PUSH1 0x40 ADD SUB SWAP4 AND GAS CALL DUP1 ISZERO PUSH2 0xB49 JUMPI SWAP2 PUSH32 0x312C5308F42848705A866C73DEC11FD0783C2D64AAC6A97E94467062AD3F4058 SWAP6 SWAP2 PUSH1 0x60 SWAP6 SWAP5 SWAP4 PUSH2 0xB1C JUMPI JUMPDEST DUP3 SWAP7 DUP3 SWAP5 SWAP6 SWAP7 POP DUP9 SWAP2 POP PUSH2 0xA4B JUMP JUMPDEST PUSH2 0xB3B SWAP1 DUP6 RETURNDATASIZE DUP8 GT PUSH2 0xB42 JUMPI JUMPDEST PUSH2 0xB33 DUP2 DUP4 PUSH2 0x1318 JUMP JUMPDEST DUP2 ADD SWAP1 PUSH2 0x17F1 JUMP JUMPDEST POP DUP8 PUSH2 0xB0D JUMP JUMPDEST POP RETURNDATASIZE PUSH2 0xB29 JUMP JUMPDEST DUP6 MLOAD RETURNDATASIZE DUP9 DUP3 RETURNDATACOPY RETURNDATASIZE SWAP1 REVERT JUMPDEST PUSH1 0x5 SLOAD DUP9 MLOAD PUSH4 0xA9059CBB PUSH1 0xE0 SHL DUP2 MSTORE SWAP1 DUP3 AND PUSH1 0x1 PUSH1 0x1 PUSH1 0xA0 SHL SUB AND DUP5 DUP3 ADD SWAP1 DUP2 MSTORE PUSH1 0x20 DUP2 ADD DUP9 SWAP1 MSTORE DUP9 SWAP1 DUP3 SWAP1 DUP2 SWAP1 PUSH1 0x40 ADD SUB DUP2 DUP7 DUP7 DUP11 AND GAS CALL DUP1 ISZERO PUSH2 0xBBA JUMPI PUSH2 0xB9D JUMPI JUMPDEST POP PUSH2 0xA45 JUMP JUMPDEST PUSH2 0xBB3 SWAP1 DUP9 RETURNDATASIZE DUP11 GT PUSH2 0xB42 JUMPI PUSH2 0xB33 DUP2 DUP4 PUSH2 0x1318 JUMP JUMPDEST POP DUP10 PUSH2 0xB97 JUMP JUMPDEST DUP10 MLOAD RETURNDATASIZE DUP6 DUP3 RETURNDATACOPY RETURNDATASIZE SWAP1 REVERT JUMPDEST PUSH4 0x4E487B71 PUSH1 0xE0 SHL DUP9 MSTORE PUSH1 0x11 DUP3 MSTORE PUSH1 0x24 DUP9 REVERT JUMPDEST PUSH4 0x4E487B71 PUSH1 0xE0 SHL DUP10 MSTORE PUSH1 0x11 DUP4 MSTORE PUSH1 0x24 DUP10 REVERT JUMPDEST PUSH2 0xC01 SWAP3 SWAP5 POP DUP1 RETURNDATASIZE LT PUSH2 0x8FD JUMPI PUSH2 0x8E1 DUP2 DUP4 PUSH2 0x1318 JUMP JUMPDEST POP POP POP POP POP POP POP POP POP SWAP2 POP POP SWAP2 DUP9 DUP1 PUSH2 0xA11 JUMP JUMPDEST DUP9 MLOAD RETURNDATASIZE DUP12 DUP3 RETURNDATACOPY RETURNDATASIZE SWAP1 REVERT JUMPDEST SWAP1 POP ISZERO ISZERO DUP10 PUSH2 0x9D9 JUMP JUMPDEST SWAP1 POP PUSH2 0xC43 SWAP2 SWAP5 POP DUP7 RETURNDATASIZE DUP9 GT PUSH2 0x833 JUMPI PUSH2 0x825 DUP2 DUP4 PUSH2 0x1318 JUMP JUMPDEST SWAP4 SWAP1 DUP9 PUSH2 0x9CC JUMP JUMPDEST PUSH1 0x64 SWAP1 PUSH1 0x20 DUP5 MLOAD SWAP2 PUSH3 0x461BCD PUSH1 0xE5 SHL DUP4 MSTORE DUP3 ADD MSTORE PUSH1 0x10 PUSH1 0x24 DUP3 ADD MSTORE PUSH16 0x141BDCDA5D1A5BDB881B9BDD081CD95D PUSH1 0x82 SHL PUSH1 0x44 DUP3 ADD MSTORE REVERT JUMPDEST SWAP1 POP CALLVALUE PUSH2 0x32F JUMPI DUP2 PUSH1 0x3 NOT CALLDATASIZE ADD SLT PUSH2 0x32F JUMPI PUSH1 0x20 SWAP1 PUSH1 0xB SLOAD SWAP1 MLOAD SWAP1 DUP2 MSTORE RETURN JUMPDEST SWAP1 POP CALLVALUE PUSH2 0x32F JUMPI DUP2 PUSH1 0x3 NOT CALLDATASIZE ADD SLT PUSH2 0x32F JUMPI PUSH1 0x20 SWAP1 MLOAD PUSH1 0x14 DUP2 MSTORE RETURN JUMPDEST SWAP1 POP CALLVALUE PUSH2 0x32F JUMPI DUP2 PUSH1 0x3 NOT CALLDATASIZE ADD SLT PUSH2 0x32F JUMPI PUSH1 0x6 SLOAD SWAP1 MLOAD PUSH1 0x1 PUSH1 0x1 PUSH1 0xA0 SHL SUB SWAP1 SWAP2 AND DUP2 MSTORE PUSH1 0x20 SWAP1 RETURN JUMPDEST CALLVALUE PUSH2 0x24D JUMPI DUP3 PUSH1 0x3 NOT CALLDATASIZE ADD SLT PUSH2 0x24D JUMPI CALLER DUP4 MSTORE PUSH1 0x20 SWAP1 DUP4 DUP3 MSTORE DUP1 DUP5 KECCAK256 SLOAD ISZERO PUSH2 0xEC6 JUMPI PUSH1 0xC SLOAD DUP1 ISZERO PUSH2 0xE8D JUMPI PUSH1 0x2 SLOAD CALLER DUP7 MSTORE DUP6 DUP5 MSTORE DUP3 DUP7 KECCAK256 SLOAD DUP1 DUP4 MUL SWAP3 DUP4 DIV SUB PUSH2 0xE7A JUMPI DUP1 ISZERO PUSH2 0xE67 JUMPI SWAP1 PUSH2 0xD45 SWAP2 CALLER DUP8 MSTORE PUSH1 0xD DUP6 MSTORE DUP4 DUP8 KECCAK256 SLOAD SWAP2 DIV PUSH2 0x1809 JUMP JUMPDEST SWAP3 DUP4 ISZERO PUSH2 0xE30 JUMPI CALLER DUP6 MSTORE PUSH1 0xD DUP4 MSTORE DUP2 DUP6 KECCAK256 PUSH2 0xD61 DUP6 DUP3 SLOAD PUSH2 0x1697 JUMP JUMPDEST SWAP1 SSTORE PUSH2 0xD6F DUP5 PUSH1 0xC SLOAD PUSH2 0x1809 JUMP JUMPDEST PUSH1 0xC SSTORE DUP5 DUP1 DUP1 DUP1 DUP8 CALLER GAS CALL RETURNDATASIZE ISZERO PUSH2 0xE2B JUMPI RETURNDATASIZE PUSH8 0xFFFFFFFFFFFFFFFF DUP2 GT PUSH2 0xE18 JUMPI DUP4 MLOAD SWAP1 PUSH2 0xDA6 PUSH1 0x1F DUP3 ADD PUSH1 0x1F NOT AND DUP8 ADD DUP4 PUSH2 0x1318 JUMP JUMPDEST DUP2 MSTORE DUP7 DUP6 RETURNDATASIZE SWAP3 ADD RETURNDATACOPY JUMPDEST ISZERO PUSH2 0xDE2 JUMPI POP SWAP1 PUSH32 0xFC30CDDEA38E2BF4D6EA7D3F9ED3B6AD7F176419F4963BD81318067A4AEE73FE SWAP2 MLOAD SWAP3 DUP4 MSTORE CALLER SWAP3 LOG2 DUP1 RETURN JUMPDEST DUP3 PUSH1 0x64 SWAP3 MLOAD SWAP2 PUSH3 0x461BCD PUSH1 0xE5 SHL DUP4 MSTORE DUP3 ADD MSTORE PUSH1 0x12 PUSH1 0x24 DUP3 ADD MSTORE PUSH18 0x8CC2D2D8CAC840E8DE40E6CADCC8408AA89 PUSH1 0x73 SHL PUSH1 0x44 DUP3 ADD MSTORE REVERT JUMPDEST PUSH4 0x4E487B71 PUSH1 0xE0 SHL DUP8 MSTORE PUSH1 0x41 DUP4 MSTORE PUSH1 0x24 DUP8 REVERT JUMPDEST PUSH2 0xDAF JUMP JUMPDEST DUP3 PUSH1 0x64 SWAP3 MLOAD SWAP2 PUSH3 0x461BCD PUSH1 0xE5 SHL DUP4 MSTORE DUP3 ADD MSTORE PUSH1 0x13 PUSH1 0x24 DUP3 ADD MSTORE PUSH19 0x4E6F207265776172647320746F20636C61696D PUSH1 0x68 SHL PUSH1 0x44 DUP3 ADD MSTORE REVERT JUMPDEST PUSH4 0x4E487B71 PUSH1 0xE0 SHL DUP7 MSTORE PUSH1 0x12 DUP6 MSTORE PUSH1 0x24 DUP7 REVERT JUMPDEST PUSH4 0x4E487B71 PUSH1 0xE0 SHL DUP7 MSTORE PUSH1 0x11 DUP6 MSTORE PUSH1 0x24 DUP7 REVERT JUMPDEST POP MLOAD PUSH3 0x461BCD PUSH1 0xE5 SHL DUP2 MSTORE SWAP2 DUP3 ADD MSTORE PUSH1 0x14 PUSH1 0x24 DUP3 ADD MSTORE PUSH20 0x4E6F207265776172647320617661696C61626C65 PUSH1 0x60 SHL PUSH1 0x44 DUP3 ADD MSTORE PUSH1 0x64 SWAP2 POP REVERT JUMPDEST MLOAD PUSH3 0x461BCD PUSH1 0xE5 SHL DUP2 MSTORE SWAP2 DUP3 ADD MSTORE PUSH1 0xC PUSH1 0x24 DUP3 ADD MSTORE PUSH12 0x2737BA1030903437B63232B9 PUSH1 0xA1 SHL PUSH1 0x44 DUP3 ADD MSTORE PUSH1 0x64 SWAP2 POP REVERT JUMPDEST SWAP1 POP CALLVALUE PUSH2 0x32F JUMPI DUP2 PUSH1 0x3 NOT CALLDATASIZE ADD SLT PUSH2 0x32F JUMPI PUSH1 0x20 SWAP1 MLOAD PUSH1 0x12 DUP2 MSTORE RETURN JUMPDEST SWAP1 CALLVALUE PUSH2 0x24D JUMPI PUSH1 0x20 CALLDATASIZE PUSH1 0x3 NOT ADD SLT PUSH2 0x24D JUMPI CALLDATALOAD PUSH1 0xA SLOAD DUP2 LT ISZERO PUSH2 0x24D JUMPI PUSH1 0xA PUSH1 0x20 SWAP4 MSTORE PUSH1 0x1 DUP1 PUSH1 0xA0 SHL SUB SWAP1 PUSH32 0xC65A7BB8D6351C1CF70C95A316CC6A92839C986682D98BC35F958F4883F9D2A8 ADD SLOAD AND SWAP1 MLOAD SWAP1 DUP2 MSTORE RETURN JUMPDEST SWAP2 CALLVALUE PUSH2 0x452 JUMPI PUSH1 0x60 CALLDATASIZE PUSH1 0x3 NOT ADD SLT PUSH2 0x452 JUMPI PUSH2 0xF82 PUSH2 0x125F JUMP JUMPDEST PUSH2 0xF8A PUSH2 0x127A JUMP JUMPDEST SWAP2 PUSH1 0x44 CALLDATALOAD SWAP4 PUSH1 0x1 DUP1 PUSH1 0xA0 SHL SUB DUP4 AND DUP1 DUP4 MSTORE PUSH1 0x1 PUSH1 0x20 MSTORE DUP7 DUP4 KECCAK256 CALLER DUP5 MSTORE PUSH1 0x20 MSTORE DUP7 DUP4 KECCAK256 SLOAD SWAP2 PUSH1 0x0 NOT DUP4 LT PUSH2 0xFC6 JUMPI JUMPDEST PUSH1 0x20 DUP9 PUSH2 0x40E DUP10 DUP10 DUP10 PUSH2 0x15B9 JUMP JUMPDEST DUP7 DUP4 LT PUSH2 0x102E JUMPI DUP2 ISZERO PUSH2 0x1017 JUMPI CALLER ISZERO PUSH2 0x1000 JUMPI POP DUP3 MSTORE PUSH1 0x1 PUSH1 0x20 SWAP1 DUP2 MSTORE DUP7 DUP4 KECCAK256 CALLER DUP5 MSTORE DUP2 MSTORE SWAP2 DUP7 SWAP1 KECCAK256 SWAP1 DUP6 SWAP1 SUB SWAP1 SSTORE DUP3 SWAP1 PUSH2 0x40E DUP8 PUSH2 0xFB8 JUMP JUMPDEST DUP8 MLOAD PUSH4 0x4A1406B1 PUSH1 0xE1 SHL DUP2 MSTORE SWAP1 DUP2 ADD DUP5 SWAP1 MSTORE PUSH1 0x24 SWAP1 REVERT JUMPDEST DUP8 MLOAD PUSH4 0xE602DF05 PUSH1 0xE0 SHL DUP2 MSTORE SWAP1 DUP2 ADD DUP5 SWAP1 MSTORE PUSH1 0x24 SWAP1 REVERT JUMPDEST DUP8 MLOAD PUSH4 0x7DC7A0D9 PUSH1 0xE1 SHL DUP2 MSTORE CALLER SWAP2 DUP2 ADD SWAP2 DUP3 MSTORE PUSH1 0x20 DUP3 ADD SWAP4 SWAP1 SWAP4 MSTORE PUSH1 0x40 DUP2 ADD DUP8 SWAP1 MSTORE DUP3 SWAP2 POP PUSH1 0x60 ADD SUB SWAP1 REVERT JUMPDEST SWAP1 POP CALLVALUE PUSH2 0x32F JUMPI DUP2 PUSH1 0x3 NOT CALLDATASIZE ADD SLT PUSH2 0x32F JUMPI PUSH1 0x20 SWAP1 PUSH1 0xC SLOAD SWAP1 MLOAD SWAP1 DUP2 MSTORE RETURN JUMPDEST SWAP1 POP CALLVALUE PUSH2 0x32F JUMPI DUP2 PUSH1 0x3 NOT CALLDATASIZE ADD SLT PUSH2 0x32F JUMPI PUSH1 0x20 SWAP1 PUSH1 0x2 SLOAD SWAP1 MLOAD SWAP1 DUP2 MSTORE RETURN JUMPDEST SWAP1 CALLVALUE PUSH2 0x24D JUMPI DUP2 PUSH1 0x3 NOT CALLDATASIZE ADD SLT PUSH2 0x24D JUMPI PUSH2 0x10B1 PUSH2 0x125F JUMP JUMPDEST PUSH1 0x24 CALLDATALOAD SWAP1 CALLER ISZERO PUSH2 0x112A JUMPI PUSH1 0x1 PUSH1 0x1 PUSH1 0xA0 SHL SUB AND SWAP2 DUP3 ISZERO PUSH2 0x1113 JUMPI POP DUP1 DUP4 PUSH1 0x20 SWAP6 CALLER DUP2 MSTORE PUSH1 0x1 DUP8 MSTORE DUP2 DUP2 KECCAK256 DUP6 DUP3 MSTORE DUP8 MSTORE KECCAK256 SSTORE DUP3 MLOAD SWAP1 DUP2 MSTORE PUSH32 0x8C5BE1E5EBEC7D5BD14F71427D1E84F3DD0314C0F7B2291E5B200AC8C7C3B925 DUP5 CALLER SWAP3 LOG3 MLOAD PUSH1 0x1 DUP2 MSTORE RETURN JUMPDEST DUP4 MLOAD PUSH4 0x4A1406B1 PUSH1 0xE1 SHL DUP2 MSTORE SWAP1 DUP2 ADD DUP6 SWAP1 MSTORE PUSH1 0x24 SWAP1 REVERT JUMPDEST DUP4 MLOAD PUSH4 0xE602DF05 PUSH1 0xE0 SHL DUP2 MSTORE DUP1 DUP5 ADD DUP7 SWAP1 MSTORE PUSH1 0x24 SWAP1 REVERT JUMPDEST SWAP2 SWAP3 SWAP1 CALLVALUE PUSH2 0x32F JUMPI DUP2 PUSH1 0x3 NOT CALLDATASIZE ADD SLT PUSH2 0x32F JUMPI DUP2 PUSH1 0x3 SLOAD SWAP3 PUSH1 0x1 DUP5 DUP2 SHR SWAP2 DUP2 DUP7 AND SWAP6 DUP7 ISZERO PUSH2 0x1215 JUMPI JUMPDEST PUSH1 0x20 SWAP7 DUP8 DUP6 LT DUP2 EQ PUSH2 0x1202 JUMPI DUP9 SWAP10 POP SWAP7 DUP9 SWAP7 SWAP8 DUP6 DUP3 SWAP11 MSTORE SWAP2 DUP3 PUSH1 0x0 EQ PUSH2 0x52A JUMPI POP POP PUSH1 0x1 EQ PUSH2 0x11A6 JUMPI POP POP POP PUSH2 0x44E SWAP3 SWAP2 PUSH2 0x4BE SWAP2 SUB DUP6 PUSH2 0x1318 JUMP JUMPDEST SWAP2 SWAP1 DUP7 SWAP4 POP PUSH1 0x3 DUP4 MSTORE PUSH32 0xC2575A0E9E593C00F959F8C92F12DB2869C3395A3B0502D05E2516446F71F85B JUMPDEST DUP3 DUP5 LT PUSH2 0x11EA JUMPI POP POP POP DUP3 ADD ADD DUP2 PUSH2 0x4BE PUSH2 0x44E PUSH2 0x4AB JUMP JUMPDEST DUP1 SLOAD DUP5 DUP11 ADD DUP7 ADD MSTORE DUP9 SWAP6 POP DUP8 SWAP5 SWAP1 SWAP4 ADD SWAP3 DUP2 ADD PUSH2 0x11D1 JUMP JUMPDEST PUSH4 0x4E487B71 PUSH1 0xE0 SHL DUP4 MSTORE PUSH1 0x22 DUP11 MSTORE PUSH1 0x24 DUP4 REVERT JUMPDEST SWAP3 PUSH1 0x7F AND SWAP3 PUSH2 0x116A JUMP JUMPDEST SWAP2 SWAP1 DUP3 MLOAD SWAP3 DUP4 DUP3 MSTORE PUSH1 0x0 JUMPDEST DUP5 DUP2 LT PUSH2 0x124B JUMPI POP POP DUP3 PUSH1 0x0 PUSH1 0x20 DUP1 SWAP5 SWAP6 DUP5 ADD ADD MSTORE PUSH1 0x1F DUP1 NOT SWAP2 ADD AND ADD ADD SWAP1 JUMP JUMPDEST PUSH1 0x20 DUP2 DUP4 ADD DUP2 ADD MLOAD DUP5 DUP4 ADD DUP3 ADD MSTORE ADD PUSH2 0x122A JUMP JUMPDEST PUSH1 0x4 CALLDATALOAD SWAP1 PUSH1 0x1 PUSH1 0x1 PUSH1 0xA0 SHL SUB DUP3 AND DUP3 SUB PUSH2 0x1275 JUMPI JUMP JUMPDEST PUSH1 0x0 DUP1 REVERT JUMPDEST PUSH1 0x24 CALLDATALOAD SWAP1 PUSH1 0x1 PUSH1 0x1 PUSH1 0xA0 SHL SUB DUP3 AND DUP3 SUB PUSH2 0x1275 JUMPI JUMP JUMPDEST CALLVALUE PUSH2 0x1275 JUMPI PUSH1 0x0 CALLDATASIZE PUSH1 0x3 NOT ADD SLT PUSH2 0x1275 JUMPI PUSH1 0x20 PUSH1 0x40 MLOAD PUSH1 0x28 DUP2 MSTORE RETURN JUMPDEST SWAP2 PUSH2 0x12D5 SWAP1 PUSH2 0x12C7 PUSH2 0x12E3 SWAP6 SWAP4 PUSH1 0x60 DUP7 MSTORE PUSH1 0x60 DUP7 ADD SWAP1 PUSH2 0x121F JUMP JUMPDEST SWAP1 DUP5 DUP3 SUB PUSH1 0x20 DUP7 ADD MSTORE PUSH2 0x121F JUMP JUMPDEST SWAP2 PUSH1 0x40 DUP2 DUP5 SUB SWAP2 ADD MSTORE PUSH2 0x121F JUMP JUMPDEST SWAP1 JUMP JUMPDEST PUSH1 0x80 DUP2 ADD SWAP1 DUP2 LT PUSH8 0xFFFFFFFFFFFFFFFF DUP3 GT OR PUSH2 0x1302 JUMPI PUSH1 0x40 MSTORE JUMP JUMPDEST PUSH4 0x4E487B71 PUSH1 0xE0 SHL PUSH1 0x0 MSTORE PUSH1 0x41 PUSH1 0x4 MSTORE PUSH1 0x24 PUSH1 0x0 REVERT JUMPDEST SWAP1 PUSH1 0x1F DUP1 NOT SWAP2 ADD AND DUP2 ADD SWAP1 DUP2 LT PUSH8 0xFFFFFFFFFFFFFFFF DUP3 GT OR PUSH2 0x1302 JUMPI PUSH1 0x40 MSTORE JUMP JUMPDEST PUSH1 0x40 MLOAD SWAP1 PUSH1 0x0 PUSH1 0xE SLOAD SWAP1 PUSH1 0x1 DUP3 DUP2 SHR SWAP1 DUP1 DUP5 AND SWAP4 DUP5 ISZERO PUSH2 0x141B JUMPI JUMPDEST PUSH1 0x20 SWAP5 DUP6 DUP5 LT DUP2 EQ PUSH2 0x1407 JUMPI DUP4 DUP9 MSTORE DUP8 SWAP5 SWAP4 SWAP3 SWAP2 DUP2 ISZERO PUSH2 0x13E7 JUMPI POP PUSH1 0x1 EQ PUSH2 0x1388 JUMPI JUMPDEST POP POP PUSH2 0x1386 SWAP3 POP SUB DUP4 PUSH2 0x1318 JUMP JUMPDEST JUMP JUMPDEST SWAP1 SWAP4 SWAP2 POP PUSH1 0xE PUSH1 0x0 MSTORE PUSH32 0xBB7B4A454DC3493923482F07822329ED19E8244EFF582CC204F8554C3620C3FD SWAP4 PUSH1 0x0 SWAP2 JUMPDEST DUP2 DUP4 LT PUSH2 0x13CF JUMPI POP POP PUSH2 0x1386 SWAP4 POP DUP3 ADD ADD CODESIZE DUP1 PUSH2 0x1378 JUMP JUMPDEST DUP6 SLOAD DUP9 DUP5 ADD DUP6 ADD MSTORE SWAP5 DUP6 ADD SWAP5 DUP8 SWAP5 POP SWAP2 DUP4 ADD SWAP2 PUSH2 0x13B7 JUMP JUMPDEST SWAP2 POP POP PUSH2 0x1386 SWAP5 SWAP3 POP PUSH1 0xFF NOT AND DUP3 DUP5 ADD MSTORE ISZERO ISZERO PUSH1 0x5 SHL DUP3 ADD ADD CODESIZE DUP1 PUSH2 0x1378 JUMP JUMPDEST PUSH4 0x4E487B71 PUSH1 0xE0 SHL DUP6 MSTORE PUSH1 0x22 PUSH1 0x4 MSTORE PUSH1 0x24 DUP6 REVERT JUMPDEST SWAP2 PUSH1 0x7F AND SWAP2 PUSH2 0x1355 JUMP JUMPDEST PUSH1 0x40 MLOAD SWAP1 PUSH1 0x0 PUSH1 0xF SLOAD SWAP1 PUSH1 0x1 DUP3 DUP2 SHR SWAP1 DUP1 DUP5 AND SWAP4 DUP5 ISZERO PUSH2 0x14CF JUMPI JUMPDEST PUSH1 0x20 SWAP5 DUP6 DUP5 LT DUP2 EQ PUSH2 0x1407 JUMPI DUP4 DUP9 MSTORE DUP8 SWAP5 SWAP4 SWAP3 SWAP2 DUP2 ISZERO PUSH2 0x13E7 JUMPI POP PUSH1 0x1 EQ PUSH2 0x1470 JUMPI POP POP PUSH2 0x1386 SWAP3 POP SUB DUP4 PUSH2 0x1318 JUMP JUMPDEST SWAP1 SWAP4 SWAP2 POP PUSH1 0xF PUSH1 0x0 MSTORE PUSH32 0x8D1108E10BCB7C27DDDFC02ED9D693A074039D026CF4EA4240B40F7D581AC802 SWAP4 PUSH1 0x0 SWAP2 JUMPDEST DUP2 DUP4 LT PUSH2 0x14B7 JUMPI POP POP PUSH2 0x1386 SWAP4 POP DUP3 ADD ADD CODESIZE DUP1 PUSH2 0x1378 JUMP JUMPDEST DUP6 SLOAD DUP9 DUP5 ADD DUP6 ADD MSTORE SWAP5 DUP6 ADD SWAP5 DUP8 SWAP5 POP SWAP2 DUP4 ADD SWAP2 PUSH2 0x149F JUMP JUMPDEST SWAP2 PUSH1 0x7F AND SWAP2 PUSH2 0x1440 JUMP JUMPDEST PUSH1 0x40 MLOAD SWAP1 PUSH1 0x0 PUSH1 0x10 SLOAD SWAP1 PUSH1 0x1 DUP3 DUP2 SHR SWAP1 DUP1 DUP5 AND SWAP4 DUP5 ISZERO PUSH2 0x1583 JUMPI JUMPDEST PUSH1 0x20 SWAP5 DUP6 DUP5 LT DUP2 EQ PUSH2 0x1407 JUMPI DUP4 DUP9 MSTORE DUP8 SWAP5 SWAP4 SWAP3 SWAP2 DUP2 ISZERO PUSH2 0x13E7 JUMPI POP PUSH1 0x1 EQ PUSH2 0x1524 JUMPI POP POP PUSH2 0x1386 SWAP3 POP SUB DUP4 PUSH2 0x1318 JUMP JUMPDEST SWAP1 SWAP4 SWAP2 POP PUSH1 0x10 PUSH1 0x0 MSTORE PUSH32 0x1B6847DC741A1B0CD08D278845F9D819D87B734759AFB55FE2DE5CB82A9AE672 SWAP4 PUSH1 0x0 SWAP2 JUMPDEST DUP2 DUP4 LT PUSH2 0x156B JUMPI POP POP PUSH2 0x1386 SWAP4 POP DUP3 ADD ADD CODESIZE DUP1 PUSH2 0x1378 JUMP JUMPDEST DUP6 SLOAD DUP9 DUP5 ADD DUP6 ADD MSTORE SWAP5 DUP6 ADD SWAP5 DUP8 SWAP5 POP SWAP2 DUP4 ADD SWAP2 PUSH2 0x1553 JUMP JUMPDEST SWAP2 PUSH1 0x7F AND SWAP2 PUSH2 0x14F4 JUMP JUMPDEST PUSH1 0x5 SLOAD PUSH1 0x1 PUSH1 0x1 PUSH1 0xA0 SHL SUB AND CALLER SUB PUSH2 0x15A1 JUMPI JUMP JUMPDEST PUSH1 0x40 MLOAD PUSH4 0x118CDAA7 PUSH1 0xE0 SHL DUP2 MSTORE CALLER PUSH1 0x4 DUP3 ADD MSTORE PUSH1 0x24 SWAP1 REVERT JUMPDEST SWAP2 PUSH1 0x1 PUSH1 0x1 PUSH1 0xA0 SHL SUB DUP1 DUP5 AND SWAP3 DUP4 ISZERO PUSH2 0x167E JUMPI AND SWAP3 DUP4 ISZERO PUSH2 0x1665 JUMPI PUSH1 0x0 SWAP1 DUP4 DUP3 MSTORE DUP2 PUSH1 0x20 MSTORE PUSH1 0x40 DUP3 KECCAK256 SLOAD SWAP1 DUP4 DUP3 LT PUSH2 0x1633 JUMPI POP SWAP2 PUSH1 0x40 DUP3 DUP3 PUSH32 0xDDF252AD1BE2C89B69C2B068FC378DAA952BA7F163C4A11628F55A4DF523B3EF SWAP6 DUP8 PUSH1 0x20 SWAP7 MSTORE DUP3 DUP7 MSTORE SUB DUP3 DUP3 KECCAK256 SSTORE DUP7 DUP2 MSTORE KECCAK256 DUP2 DUP2 SLOAD ADD SWAP1 SSTORE PUSH1 0x40 MLOAD SWAP1 DUP2 MSTORE LOG3 JUMP JUMPDEST PUSH1 0x40 MLOAD PUSH4 0x391434E3 PUSH1 0xE2 SHL DUP2 MSTORE PUSH1 0x1 PUSH1 0x1 PUSH1 0xA0 SHL SUB SWAP2 SWAP1 SWAP2 AND PUSH1 0x4 DUP3 ADD MSTORE PUSH1 0x24 DUP2 ADD SWAP2 SWAP1 SWAP2 MSTORE PUSH1 0x44 DUP2 ADD DUP4 SWAP1 MSTORE PUSH1 0x64 SWAP1 REVERT JUMPDEST PUSH1 0x40 MLOAD PUSH4 0xEC442F05 PUSH1 0xE0 SHL DUP2 MSTORE PUSH1 0x0 PUSH1 0x4 DUP3 ADD MSTORE PUSH1 0x24 SWAP1 REVERT JUMPDEST PUSH1 0x40 MLOAD PUSH4 0x4B637E8F PUSH1 0xE1 SHL DUP2 MSTORE PUSH1 0x0 PUSH1 0x4 DUP3 ADD MSTORE PUSH1 0x24 SWAP1 REVERT JUMPDEST SWAP2 SWAP1 DUP3 ADD DUP1 SWAP3 GT PUSH2 0x16A4 JUMPI JUMP JUMPDEST PUSH4 0x4E487B71 PUSH1 0xE0 SHL PUSH1 0x0 MSTORE PUSH1 0x11 PUSH1 0x4 MSTORE PUSH1 0x24 PUSH1 0x0 REVERT JUMPDEST SWAP2 SWAP1 DUP3 PUSH1 0x40 SWAP2 SUB SLT PUSH2 0x1275 JUMPI PUSH1 0x20 DUP3 MLOAD SWAP3 ADD MLOAD SWAP1 JUMP JUMPDEST SWAP2 SWAP1 SWAP2 PUSH1 0x60 PUSH1 0x80 DUP3 ADD SWAP4 DUP1 MLOAD DUP4 MSTORE PUSH1 0x1 DUP1 PUSH1 0xA0 SHL SUB PUSH1 0x20 DUP3 ADD MLOAD AND PUSH1 0x20 DUP5 ADD MSTORE DUP2 PUSH1 0x1 PUSH1 0x1 PUSH1 0x80 SHL SUB SWAP2 DUP3 PUSH1 0x40 DUP3 ADD MLOAD AND PUSH1 0x40 DUP7 ADD MSTORE ADD MLOAD AND SWAP2 ADD MSTORE JUMP JUMPDEST MLOAD SWAP1 PUSH1 0x1 PUSH1 0x1 PUSH1 0xA0 SHL SUB DUP3 AND DUP3 SUB PUSH2 0x1275 JUMPI JUMP JUMPDEST MLOAD SWAP1 DUP2 PUSH1 0x2 SIGNEXTEND DUP3 SUB PUSH2 0x1275 JUMPI JUMP JUMPDEST MLOAD SWAP1 PUSH1 0x1 PUSH1 0x1 PUSH1 0x80 SHL SUB DUP3 AND DUP3 SUB PUSH2 0x1275 JUMPI JUMP JUMPDEST SWAP2 SWAP1 DUP3 PUSH2 0x180 SWAP2 SUB SLT PUSH2 0x1275 JUMPI DUP2 MLOAD PUSH12 0xFFFFFFFFFFFFFFFFFFFFFFFF DUP2 AND DUP2 SUB PUSH2 0x1275 JUMPI SWAP2 PUSH2 0x1775 PUSH1 0x20 DUP3 ADD PUSH2 0x170E JUMP JUMPDEST SWAP2 PUSH2 0x1782 PUSH1 0x40 DUP4 ADD PUSH2 0x170E JUMP JUMPDEST SWAP2 PUSH2 0x178F PUSH1 0x60 DUP3 ADD PUSH2 0x170E JUMP JUMPDEST SWAP2 PUSH1 0x80 DUP3 ADD MLOAD PUSH3 0xFFFFFF DUP2 AND DUP2 SUB PUSH2 0x1275 JUMPI SWAP2 PUSH2 0x17AE PUSH1 0xA0 DUP3 ADD PUSH2 0x1722 JUMP JUMPDEST SWAP2 PUSH2 0x17BB PUSH1 0xC0 DUP4 ADD PUSH2 0x1722 JUMP JUMPDEST SWAP2 PUSH2 0x17C8 PUSH1 0xE0 DUP3 ADD PUSH2 0x1730 JUMP JUMPDEST SWAP2 PUSH2 0x100 DUP3 ADD MLOAD SWAP2 PUSH2 0x120 DUP2 ADD MLOAD SWAP2 PUSH2 0x12E3 PUSH2 0x160 PUSH2 0x17EA PUSH2 0x140 DUP6 ADD PUSH2 0x1730 JUMP JUMPDEST SWAP4 ADD PUSH2 0x1730 JUMP JUMPDEST SWAP1 DUP2 PUSH1 0x20 SWAP2 SUB SLT PUSH2 0x1275 JUMPI MLOAD DUP1 ISZERO ISZERO DUP2 SUB PUSH2 0x1275 JUMPI SWAP1 JUMP JUMPDEST SWAP2 SWAP1 DUP3 SUB SWAP2 DUP3 GT PUSH2 0x16A4 JUMPI JUMP INVALID LOG2 PUSH5 0x6970667358 0x22 SLT KECCAK256 0xAA ISZERO 0xCA STOP 0xAF SWAP16 0xC3 PUSH0 0x2B 0xAF 0x26 CALLDATACOPY 0xA9 SAR 0x24 SWAP1 0xCB SDIV PUSH7 0x71FD3B211099E7 PUSH20 0x483CBF487064736F6C6343000814003341105F73 EXTCODECOPY SWAP3 0xE7 BALANCE PUSH8 0x3DB8D7877F039F0C 0xCE EXTCODESIZE 0xC6 NUMBER PUSH14 0x38E5C37BCE47F2A4B149BB7B4A45 0x4D 0xC3 0x49 CODECOPY 0x23 BASEFEE 0x2F SMOD DUP3 0x23 0x29 0xED NOT 0xE8 0x24 0x4E SELFDESTRUCT PC 0x2C 0xC2 DIV 0xF8 SSTORE 0x4C CALLDATASIZE KECCAK256 0xC3 REVERT SHL PUSH9 0x47DC741A1B0CD08D27 DUP9 GASLIMIT 0xF9 0xD8 NOT 0xD8 PUSH28 0x734759AFB55FE2DE5CB82A9AE6728D1108E10BCB7C27DDDFC02ED9D6 SWAP4 LOG0 PUSH21 0x39D026CF4EA4240B40F7D581AC8023C5AD147104E JUMP 0xBE CALLVALUE 0xA9 OR PUSH11 0x6692F7DF8D2F4B29A5AF06 0xBC PUSH12 0x98970D329D6577A264697066 PUSH20 0x5822122066890F98847B7D4BA83C020022919FB7 0xD4 0xE4 0xBA SWAP8 0xB0 0xB1 CREATE2 PUSH12 0x6CB027B41556A62864736F6C PUSH4 0x43000814 STOP CALLER "},"methodIdentifiers":{"FEE_TIER()":"4c69a6c9","allTokens(uint256)":"634282af","deployToken(string,string,address,string,string,string)":"fe658a17","devAddress()":"3ad10ef6","getAllTokens()":"2a5c792a","owner()":"8da5cb5b","positionManager()":"791b98bc","renounceOwnership()":"715018a6","swapRouter()":"c31c9c07","transferOwnership(address)":"f2fde38b","uniswapV3Factory()":"5b549182","userToToken(address)":"28d249fe","weth()":"3fc8cef3","withdrawETH()":"e086e5ec"}}}}}