{"contracts/SocialToken.sol":{"SocialToken":{"abi":[{"inputs":[{"internalType":"string","name":"name","type":"string"},{"internalType":"string","name":"symbol","type":"string"},{"internalType":"address","name":"initialOwner","type":"address"},{"internalType":"address","name":"_devAddress","type":"address"},{"internalType":"address","name":"_positionManager","type":"address"},{"internalType":"string","name":"_handle","type":"string"},{"internalType":"string","name":"_platform","type":"string"},{"internalType":"string","name":"_profileUrl","type":"string"}],"stateMutability":"nonpayable","type":"constructor"},{"inputs":[{"internalType":"address","name":"spender","type":"address"},{"internalType":"uint256","name":"allowance","type":"uint256"},{"internalType":"uint256","name":"needed","type":"uint256"}],"name":"ERC20InsufficientAllowance","type":"error"},{"inputs":[{"internalType":"address","name":"sender","type":"address"},{"internalType":"uint256","name":"balance","type":"uint256"},{"internalType":"uint256","name":"needed","type":"uint256"}],"name":"ERC20InsufficientBalance","type":"error"},{"inputs":[{"internalType":"address","name":"approver","type":"address"}],"name":"ERC20InvalidApprover","type":"error"},{"inputs":[{"internalType":"address","name":"receiver","type":"address"}],"name":"ERC20InvalidReceiver","type":"error"},{"inputs":[{"internalType":"address","name":"sender","type":"address"}],"name":"ERC20InvalidSender","type":"error"},{"inputs":[{"internalType":"address","name":"spender","type":"address"}],"name":"ERC20InvalidSpender","type":"error"},{"inputs":[{"internalType":"address","name":"owner","type":"address"}],"name":"OwnableInvalidOwner","type":"error"},{"inputs":[{"internalType":"address","name":"account","type":"address"}],"name":"OwnableUnauthorizedAccount","type":"error"},{"anonymous":false,"inputs":[{"indexed":true,"internalType":"address","name":"owner","type":"address"},{"indexed":true,"internalType":"address","name":"spender","type":"address"},{"indexed":false,"internalType":"uint256","name":"value","type":"uint256"}],"name":"Approval","type":"event"},{"anonymous":false,"inputs":[{"indexed":false,"internalType":"string","name":"message","type":"string"},{"indexed":false,"internalType":"uint256","name":"value","type":"uint256"}],"name":"Debug","type":"event"},{"anonymous":false,"inputs":[{"indexed":false,"internalType":"uint256","name":"ownerFee","type":"uint256"},{"indexed":false,"internalType":"uint256","name":"devFee","type":"uint256"},{"indexed":false,"internalType":"uint256","name":"holderFee","type":"uint256"}],"name":"FeesDistributed","type":"event"},{"anonymous":false,"inputs":[{"indexed":true,"internalType":"address","name":"previousOwner","type":"address"},{"indexed":true,"internalType":"address","name":"newOwner","type":"address"}],"name":"OwnershipTransferred","type":"event"},{"anonymous":false,"inputs":[{"indexed":false,"internalType":"uint256","name":"tokenId","type":"uint256"}],"name":"PositionSet","type":"event"},{"anonymous":false,"inputs":[{"indexed":true,"internalType":"address","name":"holder","type":"address"},{"indexed":false,"internalType":"uint256","name":"amount","type":"uint256"}],"name":"RewardsClaimed","type":"event"},{"anonymous":false,"inputs":[{"indexed":false,"internalType":"string","name":"handle","type":"string"},{"indexed":false,"internalType":"string","name":"platform","type":"string"},{"indexed":false,"internalType":"string","name":"profileUrl","type":"string"}],"name":"SocialProfileSet","type":"event"},{"anonymous":false,"inputs":[{"indexed":true,"internalType":"address","name":"from","type":"address"},{"indexed":true,"internalType":"address","name":"to","type":"address"},{"indexed":false,"internalType":"uint256","name":"value","type":"uint256"}],"name":"Transfer","type":"event"},{"inputs":[],"name":"DEV_FEE","outputs":[{"internalType":"uint256","name":"","type":"uint256"}],"stateMutability":"view","type":"function"},{"inputs":[],"name":"FEE_DENOMINATOR","outputs":[{"internalType":"uint256","name":"","type":"uint256"}],"stateMutability":"view","type":"function"},{"inputs":[],"name":"HOLDER_FEE","outputs":[{"internalType":"uint256","name":"","type":"uint256"}],"stateMutability":"view","type":"function"},{"inputs":[],"name":"OWNER_FEE","outputs":[{"internalType":"uint256","name":"","type":"uint256"}],"stateMutability":"view","type":"function"},{"inputs":[{"internalType":"address","name":"owner","type":"address"},{"internalType":"address","name":"spender","type":"address"}],"name":"allowance","outputs":[{"internalType":"uint256","name":"","type":"uint256"}],"stateMutability":"view","type":"function"},{"inputs":[{"internalType":"address","name":"spender","type":"address"},{"internalType":"uint256","name":"value","type":"uint256"}],"name":"approve","outputs":[{"internalType":"bool","name":"","type":"bool"}],"stateMutability":"nonpayable","type":"function"},{"inputs":[{"internalType":"address","name":"account","type":"address"}],"name":"balanceOf","outputs":[{"internalType":"uint256","name":"","type":"uint256"}],"stateMutability":"view","type":"function"},{"inputs":[],"name":"claimRewards","outputs":[],"stateMutability":"nonpayable","type":"function"},{"inputs":[{"internalType":"address","name":"","type":"address"}],"name":"claimedRewards","outputs":[{"internalType":"uint256","name":"","type":"uint256"}],"stateMutability":"view","type":"function"},{"inputs":[],"name":"decimals","outputs":[{"internalType":"uint8","name":"","type":"uint8"}],"stateMutability":"view","type":"function"},{"inputs":[],"name":"devAddress","outputs":[{"internalType":"address","name":"","type":"address"}],"stateMutability":"view","type":"function"},{"inputs":[],"name":"distributeLPFees","outputs":[],"stateMutability":"nonpayable","type":"function"},{"inputs":[],"name":"getSocialProfile","outputs":[{"internalType":"string","name":"handle","type":"string"},{"internalType":"string","name":"platform","type":"string"},{"internalType":"string","name":"profileUrl","type":"string"}],"stateMutability":"view","type":"function"},{"inputs":[{"internalType":"uint256","name":"","type":"uint256"}],"name":"holders","outputs":[{"internalType":"address","name":"","type":"address"}],"stateMutability":"view","type":"function"},{"inputs":[{"internalType":"address","name":"","type":"address"}],"name":"isHolder","outputs":[{"internalType":"bool","name":"","type":"bool"}],"stateMutability":"view","type":"function"},{"inputs":[],"name":"name","outputs":[{"internalType":"string","name":"","type":"string"}],"stateMutability":"view","type":"function"},{"inputs":[],"name":"owner","outputs":[{"internalType":"address","name":"","type":"address"}],"stateMutability":"view","type":"function"},{"inputs":[],"name":"positionManager","outputs":[{"internalType":"address","name":"","type":"address"}],"stateMutability":"view","type":"function"},{"inputs":[],"name":"positionTokenId","outputs":[{"internalType":"uint256","name":"","type":"uint256"}],"stateMutability":"view","type":"function"},{"inputs":[],"name":"removeLiquidity","outputs":[],"stateMutability":"nonpayable","type":"function"},{"inputs":[],"name":"renounceOwnership","outputs":[],"stateMutability":"nonpayable","type":"function"},{"inputs":[{"internalType":"uint256","name":"_tokenId","type":"uint256"}],"name":"setPositionTokenId","outputs":[],"stateMutability":"nonpayable","type":"function"},{"inputs":[],"name":"socialProfile","outputs":[{"internalType":"string","name":"handle","type":"string"},{"internalType":"string","name":"platform","type":"string"},{"internalType":"string","name":"profileUrl","type":"string"}],"stateMutability":"view","type":"function"},{"inputs":[],"name":"symbol","outputs":[{"internalType":"string","name":"","type":"string"}],"stateMutability":"view","type":"function"},{"inputs":[],"name":"totalHolderToken0Rewards","outputs":[{"internalType":"uint256","name":"","type":"uint256"}],"stateMutability":"view","type":"function"},{"inputs":[],"name":"totalHolderToken1Rewards","outputs":[{"internalType":"uint256","name":"","type":"uint256"}],"stateMutability":"view","type":"function"},{"inputs":[],"name":"totalSupply","outputs":[{"internalType":"uint256","name":"","type":"uint256"}],"stateMutability":"view","type":"function"},{"inputs":[{"internalType":"address","name":"to","type":"address"},{"internalType":"uint256","name":"value","type":"uint256"}],"name":"transfer","outputs":[{"internalType":"bool","name":"","type":"bool"}],"stateMutability":"nonpayable","type":"function"},{"inputs":[{"internalType":"address","name":"from","type":"address"},{"internalType":"address","name":"to","type":"address"},{"internalType":"uint256","name":"value","type":"uint256"}],"name":"transferFrom","outputs":[{"internalType":"bool","name":"","type":"bool"}],"stateMutability":"nonpayable","type":"function"},{"inputs":[{"internalType":"address","name":"newOwner","type":"address"}],"name":"transferOwnership","outputs":[],"stateMutability":"nonpayable","type":"function"},{"stateMutability":"payable","type":"receive"}],"evm":{"bytecode":{"linkReferences":{},"object":"6040608081523462000ac35762002473803803806200001e8162000ac8565b92833981016101008282031262000ac35781516001600160401b03811162000ac357816200004e91840162000b13565b60208301519091906001600160401b03811162000ac357816200007391850162000b13565b6200008085850162000b6a565b6200008e6060860162000b6a565b906200009d6080870162000b6a565b60a08701519093906001600160401b03811162000ac35785620000c291890162000b13565b60c08801519097906001600160401b03811162000ac35786620000e791830162000b13565b60e08201519096906001600160401b03811162000ac3576200010a920162000b13565b865190966001600160401b0382116200065d5760035490600182811c9216801562000ab8575b60208310146200063c5781601f84931162000a43575b50602090601f8311600114620009b857600092620009ac575b50508160011b916000199060031b1c1916176003555b8051906001600160401b0382116200065d5760045490600182811c92168015620009a1575b60208310146200063c5781601f8493116200092c575b50602090601f8311600114620008a15760009262000895575b50508160011b916000199060031b1c1916176004555b33156200087d57600580546001600160a01b031980821633908117909355946001600160a01b03948593919284929083167f8be0079c531659141344cd1fd0a4f28419497f9722a3daafe3b4186f6b6457e0600080a316856006541617600655168360075416176007556002546b033b2e3c9fd0803ce80000009081810180911162000867577f3c5ad147104e56be34a9176a6692f7df8d2f4b29a5af06bc6b98970d329d65779160809160025533600052600060205289600020818154019055895181815260007fddf252ad1be2c89b69c2b068fc378daa952ba7f163c4a11628f55a4df523b3ef60203393a38951908a825260158b8301527f4d696e74656420696e697469616c20737570706c79000000000000000000000060608301526020820152a11680600052600960205285600020600160ff19825416179055600a54680100000000000000008110156200065d576001810180600a558110156200085157600a6000527fc65a7bb8d6351c1cf70c95a316cc6a92839c986682d98bc35f958f4883f9d2a80180549092161790558351606081016001600160401b038111828210176200065d5785528381526020810182815290850183815284519091906001600160401b0381116200065d57600e54600181811c9116801562000846575b60208210146200063c57601f8111620007ed575b50806020601f8211600114620007745760009162000768575b508160011b916000199060031b1c191617600e555b518051906001600160401b0382116200065d57600f5490600182811c921680156200075d575b60208310146200063c5781601f849311620006f9575b50602090601f83116001146200067f5760009262000673575b50508160011b916000199060031b1c191617600f555b518051906001600160401b0382116200065d57601054600181811c9116801562000652575b60208210146200063c57601f8111620005e3575b50602090601f83116001146200054957600080516020620023f38339815191529593836200052c946200050f97946200051e946000926200053d575b50508160011b916000199060031b1c1916176010555b875195869560608752606087019062000b7f565b90858203602087015262000b7f565b908382038785015262000b7f565b0390a15161184c908162000ba78239f35b015190503880620004e5565b6010600090815260008051602062002433833981519152929190601f198516905b818110620005ca5750846200050f97946200051e94600080516020620023f38339815191529a98946200052c9860019510620005b0575b505050811b01601055620004fb565b015160001960f88460031b161c19169055388080620005a1565b929360206001819287860151815501950193016200056a565b601060005260008051602062002433833981519152601f840160051c8101916020851062000631575b601f0160051c01905b818110620006245750620004a9565b6000815560010162000615565b90915081906200060c565b634e487b7160e01b600052602260045260246000fd5b90607f169062000495565b634e487b7160e01b600052604160045260246000fd5b0151905038806200045a565b600f6000908152600080516020620024538339815191529350601f198516905b818110620006e05750908460019594939210620006c6575b505050811b01600f5562000470565b015160001960f88460031b161c19169055388080620006b7565b929360206001819287860151815501950193016200069f565b600f60005290915060008051602062002453833981519152601f840160051c8101916020851062000752575b90601f859493920160051c01905b81811062000742575062000441565b6000815584935060010162000733565b909150819062000725565b91607f16916200042b565b905086015138620003f0565b600e6000908152925060008051602062002413833981519152905b601f1983168410620007d4576001935082601f19811610620007ba575b5050811b01600e5562000405565b88015160001960f88460031b161c191690553880620007ac565b888101518255602093840193600190920191016200078f565b600e60005260008051602062002413833981519152601f830160051c810191602084106200083b575b601f0160051c01905b8181106200082e5750620003d7565b600081556001016200081f565b909150819062000816565b90607f1690620003c3565b634e487b7160e01b600052603260045260246000fd5b634e487b7160e01b600052601160045260246000fd5b8651631e4fbdf760e01b815260006004820152602490fd5b015190503880620001c9565b600460009081527f8a35acfbc15ff81a39ae7d344fd709f28e8600b4aa8c65c6b64bfe7fe36bd19b9350601f198516905b818110620009135750908460019594939210620008f9575b505050811b01600455620001df565b015160001960f88460031b161c19169055388080620008ea565b92936020600181928786015181550195019301620008d2565b60046000529091507f8a35acfbc15ff81a39ae7d344fd709f28e8600b4aa8c65c6b64bfe7fe36bd19b601f840160051c8101916020851062000996575b90601f859493920160051c01905b818110620009865750620001b0565b6000815584935060010162000977565b909150819062000969565b91607f16916200019a565b0151905038806200015f565b600360009081527fc2575a0e9e593c00f959f8c92f12db2869c3395a3b0502d05e2516446f71f85b9350601f198516905b81811062000a2a575090846001959493921062000a10575b505050811b0160035562000175565b015160001960f88460031b161c1916905538808062000a01565b92936020600181928786015181550195019301620009e9565b60036000529091507fc2575a0e9e593c00f959f8c92f12db2869c3395a3b0502d05e2516446f71f85b601f840160051c8101916020851062000aad575b90601f859493920160051c01905b81811062000a9d575062000146565b6000815584935060010162000a8e565b909150819062000a80565b91607f169162000130565b600080fd5b6040519190601f01601f191682016001600160401b038111838210176200065d57604052565b60005b83811062000b025750506000910152565b818101518382015260200162000af1565b81601f8201121562000ac35780516001600160401b0381116200065d5762000b45601f8201601f191660200162000ac8565b928184526020828401011162000ac35762000b67916020808501910162000aee565b90565b51906001600160a01b038216820362000ac357565b9060209162000b9a8151809281855285808601910162000aee565b601f01601f191601019056fe60806040818152600480361015610021575b505050361561001f57600080fd5b005b600091823560e01c93846306fdde031461114157508363095ea7b31461109857836318160ddd146110795783631adb84fd1461105a57836323b872dd14610f685783632a11ced014610f12578363313ce56714610ef6578363372500ab14610ce55783633ad10ef614610cbc578363436a88c114610ca05783634cecfbe614610c815783635dab0fe31461017f5783635f96684b1461093f57836367b9a2861461065557836370a082311461061e578363715018a6146105c0578363791b98bc146105975783638da5cb5b1461056e57836393427cd51461041557836395d89b4114610455578363a8fb7d4014610415578363a9059cbb146103e4578363bd834345146103ac578363ceefe5d11461038d578363d4d7b19a1461034f578363d73792a914610333578363dd62ed3e146102e1578363f2fde38b14610251578363f71b6681146101845750505063f963812d1461017f57388080610011565b611290565b3461024d57602036600319011261024d578135916101a061158d565b6008546102145782156101df5750816020917f0f32eddaeca0b96600faf4afdc67f1929ecfc35985aba1f8de8825d24b5e5d619360085551908152a180f35b6020606492519162461bcd60e51b8352820152601060248201526f125b9d985b1a59081d1bdad95b88125160821b6044820152fd5b6020606492519162461bcd60e51b83528201526014602482015273141bdcda5d1a5bdb88185b1c9958591e481cd95d60621b6044820152fd5b8280fd5b903461024d57602036600319011261024d5761026b61125f565b9061027461158d565b6001600160a01b039182169283156102cb575050600554826bffffffffffffffffffffffff60a01b821617600555167f8be0079c531659141344cd1fd0a4f28419497f9722a3daafe3b4186f6b6457e0600080a380f35b51631e4fbdf760e01b8152908101849052602490fd5b90503461032f578060031936011261032f576020916102fe61125f565b8261030761127a565b6001600160a01b03928316845260018652922091166000908152908352819020549051908152f35b5080fd5b90503461032f578160031936011261032f576020905160648152f35b90503461032f57602036600319011261032f5760209160ff9082906001600160a01b0361037a61125f565b1681526009855220541690519015158152f35b90503461032f578160031936011261032f576020906008549051908152f35b90503461032f57602036600319011261032f5760209181906001600160a01b036103d461125f565b168152600d845220549051908152f35b90503461032f578060031936011261032f5760209061040e61040461125f565b60243590336115b9565b5160018152f35b82346104525780600319360112610452575061042f61133a565b61044e61043a611425565b926104436114d9565b9051938493846112ac565b0390f35b80fd5b823461045257806003193601126104525750805190600090835491600183811c90808516948515610564575b6020958684108114610551579086889992858a98999a52918260001461052a5750506001146104cd575b50505061044e92916104be910385611318565b5192828493845283019061121f565b600090815286935091907f8a35acfbc15ff81a39ae7d344fd709f28e8600b4aa8c65c6b64bfe7fe36bd19b5b82841061051257505050820101816104be61044e6104ab565b8054848a0186015288955087949093019281016104f9565b60ff19168782015293151560051b860190930193508492506104be915061044e90506104ab565b634e487b7160e01b855260228952602485fd5b91607f1691610481565b90503461032f578160031936011261032f5760055490516001600160a01b039091168152602090f35b90503461032f578160031936011261032f5760075490516001600160a01b039091168152602090f35b82346104525780600319360112610452576105d961158d565b600580546001600160a01b031981169091556000906001600160a01b03167f8be0079c531659141344cd1fd0a4f28419497f9722a3daafe3b4186f6b6457e08280a380f35b90503461032f57602036600319011261032f5760209181906001600160a01b0361064661125f565b16815280845220549051908152f35b82903461032f578160031936011261032f5761066f61158d565b60085480156109045760018060a01b03600754169382519163133f757160e31b835280828401526101809560249387818681855afa97881561083a5787986108c9575b50506001600160801b0380971696871561088e5761012c420180421161087c5786519060a082019967ffffffffffffffff95838c10878d111761086a578a9b8a528352602083019081528883018a81528460608501928c8452608086019485528b5195630624e65f60e11b8752518a870152511689850152516044840152516064830152516084820152868160a4818b875af180156108605791879161079293610844575b5060085490825191610768836112e6565b82523360208301528083830152606082015281518093819263fc6f786560e01b83528883016116d0565b03818a865af1801561083a5761080e575b5060085490803b1561080a5784879287519889938492630852cd8d60e31b8452888401525af18015610800576107dc575b858060085580f35b84116107ef5750505281808080806107d4565b634e487b7160e01b85526041905283fd5b84513d88823e3d90fd5b8680fd5b61082d90863d8811610833575b6108258183611318565b8101906116ba565b506107a3565b503d61081b565b86513d89823e3d90fd5b61085a90833d8511610833576108258183611318565b50610757565b87513d8a823e3d90fd5b634e487b7160e01b8b5260418852888bfd5b634e487b7160e01b8852601185528588fd5b855162461bcd60e51b8152602081860152601681870152754e6f206c697175696469747920746f2072656d6f766560501b6044820152606490fd5b6108e9929850803d106108fd575b6108e18183611318565b810190611744565b5050505096505050505050509587806106b2565b503d6108d7565b815162461bcd60e51b815260208186015260156024820152742737903634b8bab4b234ba3c903837b9b4ba34b7b760591b6044820152606490fd5b903461024d578260031936011261024d5761095861158d565b600854908115610c4b576007548351926109b6926001600160a01b0392831691610981866112e6565b85528560209530878201526001600160801b038083830152606082015281518096819263fc6f786560e01b83528583016116d0565b03818a865af193841561083a5787908895610c29575b5080159485159081610c1f575b506109e2578780f35b600854875193849163133f757160e31b8352848301528160246101809687935afa938415610c15578994610bea575b505060288102818104602814861715610bd7576064900494601482029182046014141715610bc45760648891049385610b53575b84610a9d575b50505050907f312c5308f42848705a866c73dec11fd0783c2d64aac6a97e94467062ad3f40589360609392610a8283600c54611697565b600c55815193838552840152820152a1818080808080808780f35b600654885163a9059cbb60e01b81529082166001600160a01b0316938101938452602084018690529387938593919284929183906040010393165af18015610b4957917f312c5308f42848705a866c73dec11fd0783c2d64aac6a97e94467062ad3f405895916060959493610b1c575b82968294959650889150610a4b565b610b3b90853d8711610b42575b610b338183611318565b8101906117f1565b5087610b0d565b503d610b29565b85513d88823e3d90fd5b600554885163a9059cbb60e01b81529082166001600160a01b031684820190815260208101889052889082908190604001038186868a165af18015610bba57610b9d575b50610a45565b610bb390883d8a11610b4257610b338183611318565b5089610b97565b89513d85823e3d90fd5b634e487b7160e01b885260118252602488fd5b634e487b7160e01b895260118352602489fd5b610c01929450803d106108fd576108e18183611318565b505050505050505050915050918880610a11565b88513d8b823e3d90fd5b90501515896109d9565b9050610c43919450863d8811610833576108258183611318565b9390886109cc565b606490602084519162461bcd60e51b8352820152601060248201526f141bdcda5d1a5bdb881b9bdd081cd95d60821b6044820152fd5b90503461032f578160031936011261032f57602090600b549051908152f35b90503461032f578160031936011261032f576020905160148152f35b90503461032f578160031936011261032f5760065490516001600160a01b039091168152602090f35b3461024d578260031936011261024d573383526020908382528084205415610ec657600c548015610e8d576002543386528584528286205480830292830403610e7a578015610e675790610d4591338752600d8552838720549104611809565b928315610e3057338552600d8352818520610d61858254611697565b9055610d6f84600c54611809565b600c558480808087335af13d15610e2b573d67ffffffffffffffff8111610e1857835190610da6601f8201601f1916870183611318565b815286853d92013e5b15610de25750907ffc30cddea38e2bf4d6ea7d3f9ed3b6ad7f176419f4963bd81318067a4aee73fe91519283523392a280f35b82606492519162461bcd60e51b8352820152601260248201527108cc2d2d8cac840e8de40e6cadcc8408aa8960731b6044820152fd5b634e487b7160e01b875260418352602487fd5b610daf565b82606492519162461bcd60e51b835282015260136024820152724e6f207265776172647320746f20636c61696d60681b6044820152fd5b634e487b7160e01b865260128552602486fd5b634e487b7160e01b865260118552602486fd5b505162461bcd60e51b81529182015260146024820152734e6f207265776172647320617661696c61626c6560601b604482015260649150fd5b5162461bcd60e51b815291820152600c60248201526b2737ba1030903437b63232b960a11b604482015260649150fd5b90503461032f578160031936011261032f576020905160128152f35b903461024d57602036600319011261024d5735600a5481101561024d57600a6020935260018060a01b03907fc65a7bb8d6351c1cf70c95a316cc6a92839c986682d98bc35f958f4883f9d2a80154169051908152f35b913461045257606036600319011261045257610f8261125f565b610f8a61127a565b916044359360018060a01b038316808352600160205286832033845260205286832054916000198310610fc6575b60208861040e8989896115b9565b86831061102e5781156110175733156110005750825260016020908152868320338452815291869020908590039055829061040e87610fb8565b8751634a1406b160e11b8152908101849052602490fd5b875163e602df0560e01b8152908101849052602490fd5b8751637dc7a0d960e11b8152339181019182526020820193909352604081018790528291506060010390fd5b90503461032f578160031936011261032f57602090600c549051908152f35b90503461032f578160031936011261032f576020906002549051908152f35b903461024d578160031936011261024d576110b161125f565b60243590331561112a576001600160a01b031691821561111357508083602095338152600187528181208582528752205582519081527f8c5be1e5ebec7d5bd14f71427d1e84f3dd0314c0f7b2291e5b200ac8c7c3b925843392a35160018152f35b8351634a1406b160e11b8152908101859052602490fd5b835163e602df0560e01b8152808401869052602490fd5b9192903461032f578160031936011261032f578160035492600184811c91818616958615611215575b6020968785108114611202578899509688969785829a52918260001461052a5750506001146111a65750505061044e92916104be910385611318565b9190869350600383527fc2575a0e9e593c00f959f8c92f12db2869c3395a3b0502d05e2516446f71f85b5b8284106111ea57505050820101816104be61044e6104ab565b8054848a0186015288955087949093019281016111d1565b634e487b7160e01b835260228a52602483fd5b92607f169261116a565b919082519283825260005b84811061124b575050826000602080949584010152601f8019910116010190565b60208183018101518483018201520161122a565b600435906001600160a01b038216820361127557565b600080fd5b602435906001600160a01b038216820361127557565b3461127557600036600319011261127557602060405160288152f35b916112d5906112c76112e3959360608652606086019061121f565b90848203602086015261121f565b91604081840391015261121f565b90565b6080810190811067ffffffffffffffff82111761130257604052565b634e487b7160e01b600052604160045260246000fd5b90601f8019910116810190811067ffffffffffffffff82111761130257604052565b604051906000600e5490600182811c9080841693841561141b575b602094858410811461140757838852879493929181156113e75750600114611388575b505061138692500383611318565b565b90939150600e6000527fbb7b4a454dc3493923482f07822329ed19e8244eff582cc204f8554c3620c3fd936000915b8183106113cf57505061138693508201013880611378565b855488840185015294850194879450918301916113b7565b91505061138694925060ff191682840152151560051b8201013880611378565b634e487b7160e01b85526022600452602485fd5b91607f1691611355565b604051906000600f5490600182811c908084169384156114cf575b602094858410811461140757838852879493929181156113e7575060011461147057505061138692500383611318565b90939150600f6000527f8d1108e10bcb7c27dddfc02ed9d693a074039d026cf4ea4240b40f7d581ac802936000915b8183106114b757505061138693508201013880611378565b8554888401850152948501948794509183019161149f565b91607f1691611440565b60405190600060105490600182811c90808416938415611583575b602094858410811461140757838852879493929181156113e7575060011461152457505061138692500383611318565b9093915060106000527f1b6847dc741a1b0cd08d278845f9d819d87b734759afb55fe2de5cb82a9ae672936000915b81831061156b57505061138693508201013880611378565b85548884018501529485019487945091830191611553565b91607f16916114f4565b6005546001600160a01b031633036115a157565b60405163118cdaa760e01b8152336004820152602490fd5b916001600160a01b0380841692831561167e57169283156116655760009083825281602052604082205490838210611633575091604082827fddf252ad1be2c89b69c2b068fc378daa952ba7f163c4a11628f55a4df523b3ef958760209652828652038282205586815220818154019055604051908152a3565b60405163391434e360e21b81526001600160a01b03919091166004820152602481019190915260448101839052606490fd5b60405163ec442f0560e01b815260006004820152602490fd5b604051634b637e8f60e11b815260006004820152602490fd5b919082018092116116a457565b634e487b7160e01b600052601160045260246000fd5b9190826040910312611275576020825192015190565b919091606060808201938051835260018060a01b036020820151166020840152816001600160801b0391826040820151166040860152015116910152565b51906001600160a01b038216820361127557565b51908160020b820361127557565b51906001600160801b038216820361127557565b9190826101809103126112755781516bffffffffffffffffffffffff8116810361127557916117756020820161170e565b916117826040830161170e565b9161178f6060820161170e565b91608082015162ffffff8116810361127557916117ae60a08201611722565b916117bb60c08301611722565b916117c860e08201611730565b9161010082015191610120810151916112e36101606117ea6101408501611730565b9301611730565b90816020910312611275575180151581036112755790565b919082039182116116a45756fea2646970667358221220aa15ca00af9fc35f2baf2637a91d2490cb056671fd3b211099e773483cbf487064736f6c6343000814003341105f733c92e731673db8d7877f039f0cce3bc6436d38e5c37bce47f2a4b149bb7b4a454dc3493923482f07822329ed19e8244eff582cc204f8554c3620c3fd1b6847dc741a1b0cd08d278845f9d819d87b734759afb55fe2de5cb82a9ae6728d1108e10bcb7c27dddfc02ed9d693a074039d026cf4ea4240b40f7d581ac802","opcodes":"PUSH1 0x40 PUSH1 0x80 DUP2 MSTORE CALLVALUE PUSH3 0xAC3 JUMPI PUSH3 0x2473 DUP1 CODESIZE SUB DUP1 PUSH3 0x1E DUP2 PUSH3 0xAC8 JUMP JUMPDEST SWAP3 DUP4 CODECOPY DUP2 ADD PUSH2 0x100 DUP3 DUP3 SUB SLT PUSH3 0xAC3 JUMPI DUP2 MLOAD PUSH1 0x1 PUSH1 0x1 PUSH1 0x40 SHL SUB DUP2 GT PUSH3 0xAC3 JUMPI DUP2 PUSH3 0x4E SWAP2 DUP5 ADD PUSH3 0xB13 JUMP JUMPDEST PUSH1 0x20 DUP4 ADD MLOAD SWAP1 SWAP2 SWAP1 PUSH1 0x1 PUSH1 0x1 PUSH1 0x40 SHL SUB DUP2 GT PUSH3 0xAC3 JUMPI DUP2 PUSH3 0x73 SWAP2 DUP6 ADD PUSH3 0xB13 JUMP JUMPDEST PUSH3 0x80 DUP6 DUP6 ADD PUSH3 0xB6A JUMP JUMPDEST PUSH3 0x8E PUSH1 0x60 DUP7 ADD PUSH3 0xB6A JUMP JUMPDEST SWAP1 PUSH3 0x9D PUSH1 0x80 DUP8 ADD PUSH3 0xB6A JUMP JUMPDEST PUSH1 0xA0 DUP8 ADD MLOAD SWAP1 SWAP4 SWAP1 PUSH1 0x1 PUSH1 0x1 PUSH1 0x40 SHL SUB DUP2 GT PUSH3 0xAC3 JUMPI DUP6 PUSH3 0xC2 SWAP2 DUP10 ADD PUSH3 0xB13 JUMP JUMPDEST PUSH1 0xC0 DUP9 ADD MLOAD SWAP1 SWAP8 SWAP1 PUSH1 0x1 PUSH1 0x1 PUSH1 0x40 SHL SUB DUP2 GT PUSH3 0xAC3 JUMPI DUP7 PUSH3 0xE7 SWAP2 DUP4 ADD PUSH3 0xB13 JUMP JUMPDEST PUSH1 0xE0 DUP3 ADD MLOAD SWAP1 SWAP7 SWAP1 PUSH1 0x1 PUSH1 0x1 PUSH1 0x40 SHL SUB DUP2 GT PUSH3 0xAC3 JUMPI PUSH3 0x10A SWAP3 ADD PUSH3 0xB13 JUMP JUMPDEST DUP7 MLOAD SWAP1 SWAP7 PUSH1 0x1 PUSH1 0x1 PUSH1 0x40 SHL SUB DUP3 GT PUSH3 0x65D JUMPI PUSH1 0x3 SLOAD SWAP1 PUSH1 0x1 DUP3 DUP2 SHR SWAP3 AND DUP1 ISZERO PUSH3 0xAB8 JUMPI JUMPDEST PUSH1 0x20 DUP4 LT EQ PUSH3 0x63C JUMPI DUP2 PUSH1 0x1F DUP5 SWAP4 GT PUSH3 0xA43 JUMPI JUMPDEST POP PUSH1 0x20 SWAP1 PUSH1 0x1F DUP4 GT PUSH1 0x1 EQ PUSH3 0x9B8 JUMPI PUSH1 0x0 SWAP3 PUSH3 0x9AC JUMPI JUMPDEST POP POP DUP2 PUSH1 0x1 SHL SWAP2 PUSH1 0x0 NOT SWAP1 PUSH1 0x3 SHL SHR NOT AND OR PUSH1 0x3 SSTORE JUMPDEST DUP1 MLOAD SWAP1 PUSH1 0x1 PUSH1 0x1 PUSH1 0x40 SHL SUB DUP3 GT PUSH3 0x65D JUMPI PUSH1 0x4 SLOAD SWAP1 PUSH1 0x1 DUP3 DUP2 SHR SWAP3 AND DUP1 ISZERO PUSH3 0x9A1 JUMPI JUMPDEST PUSH1 0x20 DUP4 LT EQ PUSH3 0x63C JUMPI DUP2 PUSH1 0x1F DUP5 SWAP4 GT PUSH3 0x92C JUMPI JUMPDEST POP PUSH1 0x20 SWAP1 PUSH1 0x1F DUP4 GT PUSH1 0x1 EQ PUSH3 0x8A1 JUMPI PUSH1 0x0 SWAP3 PUSH3 0x895 JUMPI JUMPDEST POP POP DUP2 PUSH1 0x1 SHL SWAP2 PUSH1 0x0 NOT SWAP1 PUSH1 0x3 SHL SHR NOT AND OR PUSH1 0x4 SSTORE JUMPDEST CALLER ISZERO PUSH3 0x87D JUMPI PUSH1 0x5 DUP1 SLOAD PUSH1 0x1 PUSH1 0x1 PUSH1 0xA0 SHL SUB NOT DUP1 DUP3 AND CALLER SWAP1 DUP2 OR SWAP1 SWAP4 SSTORE SWAP5 PUSH1 0x1 PUSH1 0x1 PUSH1 0xA0 SHL SUB SWAP5 DUP6 SWAP4 SWAP2 SWAP3 DUP5 SWAP3 SWAP1 DUP4 AND PUSH32 0x8BE0079C531659141344CD1FD0A4F28419497F9722A3DAAFE3B4186F6B6457E0 PUSH1 0x0 DUP1 LOG3 AND DUP6 PUSH1 0x6 SLOAD AND OR PUSH1 0x6 SSTORE AND DUP4 PUSH1 0x7 SLOAD AND OR PUSH1 0x7 SSTORE PUSH1 0x2 SLOAD PUSH12 0x33B2E3C9FD0803CE8000000 SWAP1 DUP2 DUP2 ADD DUP1 SWAP2 GT PUSH3 0x867 JUMPI PUSH32 0x3C5AD147104E56BE34A9176A6692F7DF8D2F4B29A5AF06BC6B98970D329D6577 SWAP2 PUSH1 0x80 SWAP2 PUSH1 0x2 SSTORE CALLER PUSH1 0x0 MSTORE PUSH1 0x0 PUSH1 0x20 MSTORE DUP10 PUSH1 0x0 KECCAK256 DUP2 DUP2 SLOAD ADD SWAP1 SSTORE DUP10 MLOAD DUP2 DUP2 MSTORE PUSH1 0x0 PUSH32 0xDDF252AD1BE2C89B69C2B068FC378DAA952BA7F163C4A11628F55A4DF523B3EF PUSH1 0x20 CALLER SWAP4 LOG3 DUP10 MLOAD SWAP1 DUP11 DUP3 MSTORE PUSH1 0x15 DUP12 DUP4 ADD MSTORE PUSH32 0x4D696E74656420696E697469616C20737570706C790000000000000000000000 PUSH1 0x60 DUP4 ADD MSTORE PUSH1 0x20 DUP3 ADD MSTORE LOG1 AND DUP1 PUSH1 0x0 MSTORE PUSH1 0x9 PUSH1 0x20 MSTORE DUP6 PUSH1 0x0 KECCAK256 PUSH1 0x1 PUSH1 0xFF NOT DUP3 SLOAD AND OR SWAP1 SSTORE PUSH1 0xA SLOAD PUSH9 0x10000000000000000 DUP2 LT ISZERO PUSH3 0x65D JUMPI PUSH1 0x1 DUP2 ADD DUP1 PUSH1 0xA SSTORE DUP2 LT ISZERO PUSH3 0x851 JUMPI PUSH1 0xA PUSH1 0x0 MSTORE PUSH32 0xC65A7BB8D6351C1CF70C95A316CC6A92839C986682D98BC35F958F4883F9D2A8 ADD DUP1 SLOAD SWAP1 SWAP3 AND OR SWAP1 SSTORE DUP4 MLOAD PUSH1 0x60 DUP2 ADD PUSH1 0x1 PUSH1 0x1 PUSH1 0x40 SHL SUB DUP2 GT DUP3 DUP3 LT OR PUSH3 0x65D JUMPI DUP6 MSTORE DUP4 DUP2 MSTORE PUSH1 0x20 DUP2 ADD DUP3 DUP2 MSTORE SWAP1 DUP6 ADD DUP4 DUP2 MSTORE DUP5 MLOAD SWAP1 SWAP2 SWAP1 PUSH1 0x1 PUSH1 0x1 PUSH1 0x40 SHL SUB DUP2 GT PUSH3 0x65D JUMPI PUSH1 0xE SLOAD PUSH1 0x1 DUP2 DUP2 SHR SWAP2 AND DUP1 ISZERO PUSH3 0x846 JUMPI JUMPDEST PUSH1 0x20 DUP3 LT EQ PUSH3 0x63C JUMPI PUSH1 0x1F DUP2 GT PUSH3 0x7ED JUMPI JUMPDEST POP DUP1 PUSH1 0x20 PUSH1 0x1F DUP3 GT PUSH1 0x1 EQ PUSH3 0x774 JUMPI PUSH1 0x0 SWAP2 PUSH3 0x768 JUMPI JUMPDEST POP DUP2 PUSH1 0x1 SHL SWAP2 PUSH1 0x0 NOT SWAP1 PUSH1 0x3 SHL SHR NOT AND OR PUSH1 0xE SSTORE JUMPDEST MLOAD DUP1 MLOAD SWAP1 PUSH1 0x1 PUSH1 0x1 PUSH1 0x40 SHL SUB DUP3 GT PUSH3 0x65D JUMPI PUSH1 0xF SLOAD SWAP1 PUSH1 0x1 DUP3 DUP2 SHR SWAP3 AND DUP1 ISZERO PUSH3 0x75D JUMPI JUMPDEST PUSH1 0x20 DUP4 LT EQ PUSH3 0x63C JUMPI DUP2 PUSH1 0x1F DUP5 SWAP4 GT PUSH3 0x6F9 JUMPI JUMPDEST POP PUSH1 0x20 SWAP1 PUSH1 0x1F DUP4 GT PUSH1 0x1 EQ PUSH3 0x67F JUMPI PUSH1 0x0 SWAP3 PUSH3 0x673 JUMPI JUMPDEST POP POP DUP2 PUSH1 0x1 SHL SWAP2 PUSH1 0x0 NOT SWAP1 PUSH1 0x3 SHL SHR NOT AND OR PUSH1 0xF SSTORE JUMPDEST MLOAD DUP1 MLOAD SWAP1 PUSH1 0x1 PUSH1 0x1 PUSH1 0x40 SHL SUB DUP3 GT PUSH3 0x65D JUMPI PUSH1 0x10 SLOAD PUSH1 0x1 DUP2 DUP2 SHR SWAP2 AND DUP1 ISZERO PUSH3 0x652 JUMPI JUMPDEST PUSH1 0x20 DUP3 LT EQ PUSH3 0x63C JUMPI PUSH1 0x1F DUP2 GT PUSH3 0x5E3 JUMPI JUMPDEST POP PUSH1 0x20 SWAP1 PUSH1 0x1F DUP4 GT PUSH1 0x1 EQ PUSH3 0x549 JUMPI PUSH1 0x0 DUP1 MLOAD PUSH1 0x20 PUSH3 0x23F3 DUP4 CODECOPY DUP2 MLOAD SWAP2 MSTORE SWAP6 SWAP4 DUP4 PUSH3 0x52C SWAP5 PUSH3 0x50F SWAP8 SWAP5 PUSH3 0x51E SWAP5 PUSH1 0x0 SWAP3 PUSH3 0x53D JUMPI JUMPDEST POP POP DUP2 PUSH1 0x1 SHL SWAP2 PUSH1 0x0 NOT SWAP1 PUSH1 0x3 SHL SHR NOT AND OR PUSH1 0x10 SSTORE JUMPDEST DUP8 MLOAD SWAP6 DUP7 SWAP6 PUSH1 0x60 DUP8 MSTORE PUSH1 0x60 DUP8 ADD SWAP1 PUSH3 0xB7F JUMP JUMPDEST SWAP1 DUP6 DUP3 SUB PUSH1 0x20 DUP8 ADD MSTORE PUSH3 0xB7F JUMP JUMPDEST SWAP1 DUP4 DUP3 SUB DUP8 DUP6 ADD MSTORE PUSH3 0xB7F JUMP JUMPDEST SUB SWAP1 LOG1 MLOAD PUSH2 0x184C SWAP1 DUP2 PUSH3 0xBA7 DUP3 CODECOPY RETURN JUMPDEST ADD MLOAD SWAP1 POP CODESIZE DUP1 PUSH3 0x4E5 JUMP JUMPDEST PUSH1 0x10 PUSH1 0x0 SWAP1 DUP2 MSTORE PUSH1 0x0 DUP1 MLOAD PUSH1 0x20 PUSH3 0x2433 DUP4 CODECOPY DUP2 MLOAD SWAP2 MSTORE SWAP3 SWAP2 SWAP1 PUSH1 0x1F NOT DUP6 AND SWAP1 JUMPDEST DUP2 DUP2 LT PUSH3 0x5CA JUMPI POP DUP5 PUSH3 0x50F SWAP8 SWAP5 PUSH3 0x51E SWAP5 PUSH1 0x0 DUP1 MLOAD PUSH1 0x20 PUSH3 0x23F3 DUP4 CODECOPY DUP2 MLOAD SWAP2 MSTORE SWAP11 SWAP9 SWAP5 PUSH3 0x52C SWAP9 PUSH1 0x1 SWAP6 LT PUSH3 0x5B0 JUMPI JUMPDEST POP POP POP DUP2 SHL ADD PUSH1 0x10 SSTORE PUSH3 0x4FB JUMP JUMPDEST ADD MLOAD PUSH1 0x0 NOT PUSH1 0xF8 DUP5 PUSH1 0x3 SHL AND SHR NOT AND SWAP1 SSTORE CODESIZE DUP1 DUP1 PUSH3 0x5A1 JUMP JUMPDEST SWAP3 SWAP4 PUSH1 0x20 PUSH1 0x1 DUP2 SWAP3 DUP8 DUP7 ADD MLOAD DUP2 SSTORE ADD SWAP6 ADD SWAP4 ADD PUSH3 0x56A JUMP JUMPDEST PUSH1 0x10 PUSH1 0x0 MSTORE PUSH1 0x0 DUP1 MLOAD PUSH1 0x20 PUSH3 0x2433 DUP4 CODECOPY DUP2 MLOAD SWAP2 MSTORE PUSH1 0x1F DUP5 ADD PUSH1 0x5 SHR DUP2 ADD SWAP2 PUSH1 0x20 DUP6 LT PUSH3 0x631 JUMPI JUMPDEST PUSH1 0x1F ADD PUSH1 0x5 SHR ADD SWAP1 JUMPDEST DUP2 DUP2 LT PUSH3 0x624 JUMPI POP PUSH3 0x4A9 JUMP JUMPDEST PUSH1 0x0 DUP2 SSTORE PUSH1 0x1 ADD PUSH3 0x615 JUMP JUMPDEST SWAP1 SWAP2 POP DUP2 SWAP1 PUSH3 0x60C JUMP JUMPDEST PUSH4 0x4E487B71 PUSH1 0xE0 SHL PUSH1 0x0 MSTORE PUSH1 0x22 PUSH1 0x4 MSTORE PUSH1 0x24 PUSH1 0x0 REVERT JUMPDEST SWAP1 PUSH1 0x7F AND SWAP1 PUSH3 0x495 JUMP JUMPDEST PUSH4 0x4E487B71 PUSH1 0xE0 SHL PUSH1 0x0 MSTORE PUSH1 0x41 PUSH1 0x4 MSTORE PUSH1 0x24 PUSH1 0x0 REVERT JUMPDEST ADD MLOAD SWAP1 POP CODESIZE DUP1 PUSH3 0x45A JUMP JUMPDEST PUSH1 0xF PUSH1 0x0 SWAP1 DUP2 MSTORE PUSH1 0x0 DUP1 MLOAD PUSH1 0x20 PUSH3 0x2453 DUP4 CODECOPY DUP2 MLOAD SWAP2 MSTORE SWAP4 POP PUSH1 0x1F NOT DUP6 AND SWAP1 JUMPDEST DUP2 DUP2 LT PUSH3 0x6E0 JUMPI POP SWAP1 DUP5 PUSH1 0x1 SWAP6 SWAP5 SWAP4 SWAP3 LT PUSH3 0x6C6 JUMPI JUMPDEST POP POP POP DUP2 SHL ADD PUSH1 0xF SSTORE PUSH3 0x470 JUMP JUMPDEST ADD MLOAD PUSH1 0x0 NOT PUSH1 0xF8 DUP5 PUSH1 0x3 SHL AND SHR NOT AND SWAP1 SSTORE CODESIZE DUP1 DUP1 PUSH3 0x6B7 JUMP JUMPDEST SWAP3 SWAP4 PUSH1 0x20 PUSH1 0x1 DUP2 SWAP3 DUP8 DUP7 ADD MLOAD DUP2 SSTORE ADD SWAP6 ADD SWAP4 ADD PUSH3 0x69F JUMP JUMPDEST PUSH1 0xF PUSH1 0x0 MSTORE SWAP1 SWAP2 POP PUSH1 0x0 DUP1 MLOAD PUSH1 0x20 PUSH3 0x2453 DUP4 CODECOPY DUP2 MLOAD SWAP2 MSTORE PUSH1 0x1F DUP5 ADD PUSH1 0x5 SHR DUP2 ADD SWAP2 PUSH1 0x20 DUP6 LT PUSH3 0x752 JUMPI JUMPDEST SWAP1 PUSH1 0x1F DUP6 SWAP5 SWAP4 SWAP3 ADD PUSH1 0x5 SHR ADD SWAP1 JUMPDEST DUP2 DUP2 LT PUSH3 0x742 JUMPI POP PUSH3 0x441 JUMP JUMPDEST PUSH1 0x0 DUP2 SSTORE DUP5 SWAP4 POP PUSH1 0x1 ADD PUSH3 0x733 JUMP JUMPDEST SWAP1 SWAP2 POP DUP2 SWAP1 PUSH3 0x725 JUMP JUMPDEST SWAP2 PUSH1 0x7F AND SWAP2 PUSH3 0x42B JUMP JUMPDEST SWAP1 POP DUP7 ADD MLOAD CODESIZE PUSH3 0x3F0 JUMP JUMPDEST PUSH1 0xE PUSH1 0x0 SWAP1 DUP2 MSTORE SWAP3 POP PUSH1 0x0 DUP1 MLOAD PUSH1 0x20 PUSH3 0x2413 DUP4 CODECOPY DUP2 MLOAD SWAP2 MSTORE SWAP1 JUMPDEST PUSH1 0x1F NOT DUP4 AND DUP5 LT PUSH3 0x7D4 JUMPI PUSH1 0x1 SWAP4 POP DUP3 PUSH1 0x1F NOT DUP2 AND LT PUSH3 0x7BA JUMPI JUMPDEST POP POP DUP2 SHL ADD PUSH1 0xE SSTORE PUSH3 0x405 JUMP JUMPDEST DUP9 ADD MLOAD PUSH1 0x0 NOT PUSH1 0xF8 DUP5 PUSH1 0x3 SHL AND SHR NOT AND SWAP1 SSTORE CODESIZE DUP1 PUSH3 0x7AC JUMP JUMPDEST DUP9 DUP2 ADD MLOAD DUP3 SSTORE PUSH1 0x20 SWAP4 DUP5 ADD SWAP4 PUSH1 0x1 SWAP1 SWAP3 ADD SWAP2 ADD PUSH3 0x78F JUMP JUMPDEST PUSH1 0xE PUSH1 0x0 MSTORE PUSH1 0x0 DUP1 MLOAD PUSH1 0x20 PUSH3 0x2413 DUP4 CODECOPY DUP2 MLOAD SWAP2 MSTORE PUSH1 0x1F DUP4 ADD PUSH1 0x5 SHR DUP2 ADD SWAP2 PUSH1 0x20 DUP5 LT PUSH3 0x83B JUMPI JUMPDEST PUSH1 0x1F ADD PUSH1 0x5 SHR ADD SWAP1 JUMPDEST DUP2 DUP2 LT PUSH3 0x82E JUMPI POP PUSH3 0x3D7 JUMP JUMPDEST PUSH1 0x0 DUP2 SSTORE PUSH1 0x1 ADD PUSH3 0x81F JUMP JUMPDEST SWAP1 SWAP2 POP DUP2 SWAP1 PUSH3 0x816 JUMP JUMPDEST SWAP1 PUSH1 0x7F AND SWAP1 PUSH3 0x3C3 JUMP JUMPDEST PUSH4 0x4E487B71 PUSH1 0xE0 SHL PUSH1 0x0 MSTORE PUSH1 0x32 PUSH1 0x4 MSTORE PUSH1 0x24 PUSH1 0x0 REVERT JUMPDEST PUSH4 0x4E487B71 PUSH1 0xE0 SHL PUSH1 0x0 MSTORE PUSH1 0x11 PUSH1 0x4 MSTORE PUSH1 0x24 PUSH1 0x0 REVERT JUMPDEST DUP7 MLOAD PUSH4 0x1E4FBDF7 PUSH1 0xE0 SHL DUP2 MSTORE PUSH1 0x0 PUSH1 0x4 DUP3 ADD MSTORE PUSH1 0x24 SWAP1 REVERT JUMPDEST ADD MLOAD SWAP1 POP CODESIZE DUP1 PUSH3 0x1C9 JUMP JUMPDEST PUSH1 0x4 PUSH1 0x0 SWAP1 DUP2 MSTORE PUSH32 0x8A35ACFBC15FF81A39AE7D344FD709F28E8600B4AA8C65C6B64BFE7FE36BD19B SWAP4 POP PUSH1 0x1F NOT DUP6 AND SWAP1 JUMPDEST DUP2 DUP2 LT PUSH3 0x913 JUMPI POP SWAP1 DUP5 PUSH1 0x1 SWAP6 SWAP5 SWAP4 SWAP3 LT PUSH3 0x8F9 JUMPI JUMPDEST POP POP POP DUP2 SHL ADD PUSH1 0x4 SSTORE PUSH3 0x1DF JUMP JUMPDEST ADD MLOAD PUSH1 0x0 NOT PUSH1 0xF8 DUP5 PUSH1 0x3 SHL AND SHR NOT AND SWAP1 SSTORE CODESIZE DUP1 DUP1 PUSH3 0x8EA JUMP JUMPDEST SWAP3 SWAP4 PUSH1 0x20 PUSH1 0x1 DUP2 SWAP3 DUP8 DUP7 ADD MLOAD DUP2 SSTORE ADD SWAP6 ADD SWAP4 ADD PUSH3 0x8D2 JUMP JUMPDEST PUSH1 0x4 PUSH1 0x0 MSTORE SWAP1 SWAP2 POP PUSH32 0x8A35ACFBC15FF81A39AE7D344FD709F28E8600B4AA8C65C6B64BFE7FE36BD19B PUSH1 0x1F DUP5 ADD PUSH1 0x5 SHR DUP2 ADD SWAP2 PUSH1 0x20 DUP6 LT PUSH3 0x996 JUMPI JUMPDEST SWAP1 PUSH1 0x1F DUP6 SWAP5 SWAP4 SWAP3 ADD PUSH1 0x5 SHR ADD SWAP1 JUMPDEST DUP2 DUP2 LT PUSH3 0x986 JUMPI POP PUSH3 0x1B0 JUMP JUMPDEST PUSH1 0x0 DUP2 SSTORE DUP5 SWAP4 POP PUSH1 0x1 ADD PUSH3 0x977 JUMP JUMPDEST SWAP1 SWAP2 POP DUP2 SWAP1 PUSH3 0x969 JUMP JUMPDEST SWAP2 PUSH1 0x7F AND SWAP2 PUSH3 0x19A JUMP JUMPDEST ADD MLOAD SWAP1 POP CODESIZE DUP1 PUSH3 0x15F JUMP JUMPDEST PUSH1 0x3 PUSH1 0x0 SWAP1 DUP2 MSTORE PUSH32 0xC2575A0E9E593C00F959F8C92F12DB2869C3395A3B0502D05E2516446F71F85B SWAP4 POP PUSH1 0x1F NOT DUP6 AND SWAP1 JUMPDEST DUP2 DUP2 LT PUSH3 0xA2A JUMPI POP SWAP1 DUP5 PUSH1 0x1 SWAP6 SWAP5 SWAP4 SWAP3 LT PUSH3 0xA10 JUMPI JUMPDEST POP POP POP DUP2 SHL ADD PUSH1 0x3 SSTORE PUSH3 0x175 JUMP JUMPDEST ADD MLOAD PUSH1 0x0 NOT PUSH1 0xF8 DUP5 PUSH1 0x3 SHL AND SHR NOT AND SWAP1 SSTORE CODESIZE DUP1 DUP1 PUSH3 0xA01 JUMP JUMPDEST SWAP3 SWAP4 PUSH1 0x20 PUSH1 0x1 DUP2 SWAP3 DUP8 DUP7 ADD MLOAD DUP2 SSTORE ADD SWAP6 ADD SWAP4 ADD PUSH3 0x9E9 JUMP JUMPDEST PUSH1 0x3 PUSH1 0x0 MSTORE SWAP1 SWAP2 POP PUSH32 0xC2575A0E9E593C00F959F8C92F12DB2869C3395A3B0502D05E2516446F71F85B PUSH1 0x1F DUP5 ADD PUSH1 0x5 SHR DUP2 ADD SWAP2 PUSH1 0x20 DUP6 LT PUSH3 0xAAD JUMPI JUMPDEST SWAP1 PUSH1 0x1F DUP6 SWAP5 SWAP4 SWAP3 ADD PUSH1 0x5 SHR ADD SWAP1 JUMPDEST DUP2 DUP2 LT PUSH3 0xA9D JUMPI POP PUSH3 0x146 JUMP JUMPDEST PUSH1 0x0 DUP2 SSTORE DUP5 SWAP4 POP PUSH1 0x1 ADD PUSH3 0xA8E JUMP JUMPDEST SWAP1 SWAP2 POP DUP2 SWAP1 PUSH3 0xA80 JUMP JUMPDEST SWAP2 PUSH1 0x7F AND SWAP2 PUSH3 0x130 JUMP JUMPDEST PUSH1 0x0 DUP1 REVERT JUMPDEST PUSH1 0x40 MLOAD SWAP2 SWAP1 PUSH1 0x1F ADD PUSH1 0x1F NOT AND DUP3 ADD PUSH1 0x1 PUSH1 0x1 PUSH1 0x40 SHL SUB DUP2 GT DUP4 DUP3 LT OR PUSH3 0x65D JUMPI PUSH1 0x40 MSTORE JUMP JUMPDEST PUSH1 0x0 JUMPDEST DUP4 DUP2 LT PUSH3 0xB02 JUMPI POP POP PUSH1 0x0 SWAP2 ADD MSTORE JUMP JUMPDEST DUP2 DUP2 ADD MLOAD DUP4 DUP3 ADD MSTORE PUSH1 0x20 ADD PUSH3 0xAF1 JUMP JUMPDEST DUP2 PUSH1 0x1F DUP3 ADD SLT ISZERO PUSH3 0xAC3 JUMPI DUP1 MLOAD PUSH1 0x1 PUSH1 0x1 PUSH1 0x40 SHL SUB DUP2 GT PUSH3 0x65D JUMPI PUSH3 0xB45 PUSH1 0x1F DUP3 ADD PUSH1 0x1F NOT AND PUSH1 0x20 ADD PUSH3 0xAC8 JUMP JUMPDEST SWAP3 DUP2 DUP5 MSTORE PUSH1 0x20 DUP3 DUP5 ADD ADD GT PUSH3 0xAC3 JUMPI PUSH3 0xB67 SWAP2 PUSH1 0x20 DUP1 DUP6 ADD SWAP2 ADD PUSH3 0xAEE JUMP JUMPDEST SWAP1 JUMP JUMPDEST MLOAD SWAP1 PUSH1 0x1 PUSH1 0x1 PUSH1 0xA0 SHL SUB DUP3 AND DUP3 SUB PUSH3 0xAC3 JUMPI JUMP JUMPDEST SWAP1 PUSH1 0x20 SWAP2 PUSH3 0xB9A DUP2 MLOAD DUP1 SWAP3 DUP2 DUP6 MSTORE DUP6 DUP1 DUP7 ADD SWAP2 ADD PUSH3 0xAEE JUMP JUMPDEST PUSH1 0x1F ADD PUSH1 0x1F NOT AND ADD ADD SWAP1 JUMP INVALID PUSH1 0x80 PUSH1 0x40 DUP2 DUP2 MSTORE PUSH1 0x4 DUP1 CALLDATASIZE LT ISZERO PUSH2 0x21 JUMPI JUMPDEST POP POP POP CALLDATASIZE ISZERO PUSH2 0x1F JUMPI PUSH1 0x0 DUP1 REVERT JUMPDEST STOP JUMPDEST PUSH1 0x0 SWAP2 DUP3 CALLDATALOAD PUSH1 0xE0 SHR SWAP4 DUP5 PUSH4 0x6FDDE03 EQ PUSH2 0x1141 JUMPI POP DUP4 PUSH4 0x95EA7B3 EQ PUSH2 0x1098 JUMPI DUP4 PUSH4 0x18160DDD EQ PUSH2 0x1079 JUMPI DUP4 PUSH4 0x1ADB84FD EQ PUSH2 0x105A JUMPI DUP4 PUSH4 0x23B872DD EQ PUSH2 0xF68 JUMPI DUP4 PUSH4 0x2A11CED0 EQ PUSH2 0xF12 JUMPI DUP4 PUSH4 0x313CE567 EQ PUSH2 0xEF6 JUMPI DUP4 PUSH4 0x372500AB EQ PUSH2 0xCE5 JUMPI DUP4 PUSH4 0x3AD10EF6 EQ PUSH2 0xCBC JUMPI DUP4 PUSH4 0x436A88C1 EQ PUSH2 0xCA0 JUMPI DUP4 PUSH4 0x4CECFBE6 EQ PUSH2 0xC81 JUMPI DUP4 PUSH4 0x5DAB0FE3 EQ PUSH2 0x17F JUMPI DUP4 PUSH4 0x5F96684B EQ PUSH2 0x93F JUMPI DUP4 PUSH4 0x67B9A286 EQ PUSH2 0x655 JUMPI DUP4 PUSH4 0x70A08231 EQ PUSH2 0x61E JUMPI DUP4 PUSH4 0x715018A6 EQ PUSH2 0x5C0 JUMPI DUP4 PUSH4 0x791B98BC EQ PUSH2 0x597 JUMPI DUP4 PUSH4 0x8DA5CB5B EQ PUSH2 0x56E JUMPI DUP4 PUSH4 0x93427CD5 EQ PUSH2 0x415 JUMPI DUP4 PUSH4 0x95D89B41 EQ PUSH2 0x455 JUMPI DUP4 PUSH4 0xA8FB7D40 EQ PUSH2 0x415 JUMPI DUP4 PUSH4 0xA9059CBB EQ PUSH2 0x3E4 JUMPI DUP4 PUSH4 0xBD834345 EQ PUSH2 0x3AC JUMPI DUP4 PUSH4 0xCEEFE5D1 EQ PUSH2 0x38D JUMPI DUP4 PUSH4 0xD4D7B19A EQ PUSH2 0x34F JUMPI DUP4 PUSH4 0xD73792A9 EQ PUSH2 0x333 JUMPI DUP4 PUSH4 0xDD62ED3E EQ PUSH2 0x2E1 JUMPI DUP4 PUSH4 0xF2FDE38B EQ PUSH2 0x251 JUMPI DUP4 PUSH4 0xF71B6681 EQ PUSH2 0x184 JUMPI POP POP POP PUSH4 0xF963812D EQ PUSH2 0x17F JUMPI CODESIZE DUP1 DUP1 PUSH2 0x11 JUMP JUMPDEST PUSH2 0x1290 JUMP JUMPDEST CALLVALUE PUSH2 0x24D JUMPI PUSH1 0x20 CALLDATASIZE PUSH1 0x3 NOT ADD SLT PUSH2 0x24D JUMPI DUP2 CALLDATALOAD SWAP2 PUSH2 0x1A0 PUSH2 0x158D JUMP JUMPDEST PUSH1 0x8 SLOAD PUSH2 0x214 JUMPI DUP3 ISZERO PUSH2 0x1DF JUMPI POP DUP2 PUSH1 0x20 SWAP2 PUSH32 0xF32EDDAECA0B96600FAF4AFDC67F1929ECFC35985ABA1F8DE8825D24B5E5D61 SWAP4 PUSH1 0x8 SSTORE MLOAD SWAP1 DUP2 MSTORE LOG1 DUP1 RETURN JUMPDEST PUSH1 0x20 PUSH1 0x64 SWAP3 MLOAD SWAP2 PUSH3 0x461BCD PUSH1 0xE5 SHL DUP4 MSTORE DUP3 ADD MSTORE PUSH1 0x10 PUSH1 0x24 DUP3 ADD MSTORE PUSH16 0x125B9D985B1A59081D1BDAD95B881251 PUSH1 0x82 SHL PUSH1 0x44 DUP3 ADD MSTORE REVERT JUMPDEST PUSH1 0x20 PUSH1 0x64 SWAP3 MLOAD SWAP2 PUSH3 0x461BCD PUSH1 0xE5 SHL DUP4 MSTORE DUP3 ADD MSTORE PUSH1 0x14 PUSH1 0x24 DUP3 ADD MSTORE PUSH20 0x141BDCDA5D1A5BDB88185B1C9958591E481CD95D PUSH1 0x62 SHL PUSH1 0x44 DUP3 ADD MSTORE REVERT JUMPDEST DUP3 DUP1 REVERT JUMPDEST SWAP1 CALLVALUE PUSH2 0x24D JUMPI PUSH1 0x20 CALLDATASIZE PUSH1 0x3 NOT ADD SLT PUSH2 0x24D JUMPI PUSH2 0x26B PUSH2 0x125F JUMP JUMPDEST SWAP1 PUSH2 0x274 PUSH2 0x158D JUMP JUMPDEST PUSH1 0x1 PUSH1 0x1 PUSH1 0xA0 SHL SUB SWAP2 DUP3 AND SWAP3 DUP4 ISZERO PUSH2 0x2CB JUMPI POP POP PUSH1 0x5 SLOAD DUP3 PUSH12 0xFFFFFFFFFFFFFFFFFFFFFFFF PUSH1 0xA0 SHL DUP3 AND OR PUSH1 0x5 SSTORE AND PUSH32 0x8BE0079C531659141344CD1FD0A4F28419497F9722A3DAAFE3B4186F6B6457E0 PUSH1 0x0 DUP1 LOG3 DUP1 RETURN JUMPDEST MLOAD PUSH4 0x1E4FBDF7 PUSH1 0xE0 SHL DUP2 MSTORE SWAP1 DUP2 ADD DUP5 SWAP1 MSTORE PUSH1 0x24 SWAP1 REVERT JUMPDEST SWAP1 POP CALLVALUE PUSH2 0x32F JUMPI DUP1 PUSH1 0x3 NOT CALLDATASIZE ADD SLT PUSH2 0x32F JUMPI PUSH1 0x20 SWAP2 PUSH2 0x2FE PUSH2 0x125F JUMP JUMPDEST DUP3 PUSH2 0x307 PUSH2 0x127A JUMP JUMPDEST PUSH1 0x1 PUSH1 0x1 PUSH1 0xA0 SHL SUB SWAP3 DUP4 AND DUP5 MSTORE PUSH1 0x1 DUP7 MSTORE SWAP3 KECCAK256 SWAP2 AND PUSH1 0x0 SWAP1 DUP2 MSTORE SWAP1 DUP4 MSTORE DUP2 SWAP1 KECCAK256 SLOAD SWAP1 MLOAD SWAP1 DUP2 MSTORE RETURN JUMPDEST POP DUP1 REVERT JUMPDEST SWAP1 POP CALLVALUE PUSH2 0x32F JUMPI DUP2 PUSH1 0x3 NOT CALLDATASIZE ADD SLT PUSH2 0x32F JUMPI PUSH1 0x20 SWAP1 MLOAD PUSH1 0x64 DUP2 MSTORE RETURN JUMPDEST SWAP1 POP CALLVALUE PUSH2 0x32F JUMPI PUSH1 0x20 CALLDATASIZE PUSH1 0x3 NOT ADD SLT PUSH2 0x32F JUMPI PUSH1 0x20 SWAP2 PUSH1 0xFF SWAP1 DUP3 SWAP1 PUSH1 0x1 PUSH1 0x1 PUSH1 0xA0 SHL SUB PUSH2 0x37A PUSH2 0x125F JUMP JUMPDEST AND DUP2 MSTORE PUSH1 0x9 DUP6 MSTORE KECCAK256 SLOAD AND SWAP1 MLOAD SWAP1 ISZERO ISZERO DUP2 MSTORE RETURN JUMPDEST SWAP1 POP CALLVALUE PUSH2 0x32F JUMPI DUP2 PUSH1 0x3 NOT CALLDATASIZE ADD SLT PUSH2 0x32F JUMPI PUSH1 0x20 SWAP1 PUSH1 0x8 SLOAD SWAP1 MLOAD SWAP1 DUP2 MSTORE RETURN JUMPDEST SWAP1 POP CALLVALUE PUSH2 0x32F JUMPI PUSH1 0x20 CALLDATASIZE PUSH1 0x3 NOT ADD SLT PUSH2 0x32F JUMPI PUSH1 0x20 SWAP2 DUP2 SWAP1 PUSH1 0x1 PUSH1 0x1 PUSH1 0xA0 SHL SUB PUSH2 0x3D4 PUSH2 0x125F JUMP JUMPDEST AND DUP2 MSTORE PUSH1 0xD DUP5 MSTORE KECCAK256 SLOAD SWAP1 MLOAD SWAP1 DUP2 MSTORE RETURN JUMPDEST SWAP1 POP CALLVALUE PUSH2 0x32F JUMPI DUP1 PUSH1 0x3 NOT CALLDATASIZE ADD SLT PUSH2 0x32F JUMPI PUSH1 0x20 SWAP1 PUSH2 0x40E PUSH2 0x404 PUSH2 0x125F JUMP JUMPDEST PUSH1 0x24 CALLDATALOAD SWAP1 CALLER PUSH2 0x15B9 JUMP JUMPDEST MLOAD PUSH1 0x1 DUP2 MSTORE RETURN JUMPDEST DUP3 CALLVALUE PUSH2 0x452 JUMPI DUP1 PUSH1 0x3 NOT CALLDATASIZE ADD SLT PUSH2 0x452 JUMPI POP PUSH2 0x42F PUSH2 0x133A JUMP JUMPDEST PUSH2 0x44E PUSH2 0x43A PUSH2 0x1425 JUMP JUMPDEST SWAP3 PUSH2 0x443 PUSH2 0x14D9 JUMP JUMPDEST SWAP1 MLOAD SWAP4 DUP5 SWAP4 DUP5 PUSH2 0x12AC JUMP JUMPDEST SUB SWAP1 RETURN JUMPDEST DUP1 REVERT JUMPDEST DUP3 CALLVALUE PUSH2 0x452 JUMPI DUP1 PUSH1 0x3 NOT CALLDATASIZE ADD SLT PUSH2 0x452 JUMPI POP DUP1 MLOAD SWAP1 PUSH1 0x0 SWAP1 DUP4 SLOAD SWAP2 PUSH1 0x1 DUP4 DUP2 SHR SWAP1 DUP1 DUP6 AND SWAP5 DUP6 ISZERO PUSH2 0x564 JUMPI JUMPDEST PUSH1 0x20 SWAP6 DUP7 DUP5 LT DUP2 EQ PUSH2 0x551 JUMPI SWAP1 DUP7 DUP9 SWAP10 SWAP3 DUP6 DUP11 SWAP9 SWAP10 SWAP11 MSTORE SWAP2 DUP3 PUSH1 0x0 EQ PUSH2 0x52A JUMPI POP POP PUSH1 0x1 EQ PUSH2 0x4CD JUMPI JUMPDEST POP POP POP PUSH2 0x44E SWAP3 SWAP2 PUSH2 0x4BE SWAP2 SUB DUP6 PUSH2 0x1318 JUMP JUMPDEST MLOAD SWAP3 DUP3 DUP5 SWAP4 DUP5 MSTORE DUP4 ADD SWAP1 PUSH2 0x121F JUMP JUMPDEST PUSH1 0x0 SWAP1 DUP2 MSTORE DUP7 SWAP4 POP SWAP2 SWAP1 PUSH32 0x8A35ACFBC15FF81A39AE7D344FD709F28E8600B4AA8C65C6B64BFE7FE36BD19B JUMPDEST DUP3 DUP5 LT PUSH2 0x512 JUMPI POP POP POP DUP3 ADD ADD DUP2 PUSH2 0x4BE PUSH2 0x44E PUSH2 0x4AB JUMP JUMPDEST DUP1 SLOAD DUP5 DUP11 ADD DUP7 ADD MSTORE DUP9 SWAP6 POP DUP8 SWAP5 SWAP1 SWAP4 ADD SWAP3 DUP2 ADD PUSH2 0x4F9 JUMP JUMPDEST PUSH1 0xFF NOT AND DUP8 DUP3 ADD MSTORE SWAP4 ISZERO ISZERO PUSH1 0x5 SHL DUP7 ADD SWAP1 SWAP4 ADD SWAP4 POP DUP5 SWAP3 POP PUSH2 0x4BE SWAP2 POP PUSH2 0x44E SWAP1 POP PUSH2 0x4AB JUMP JUMPDEST PUSH4 0x4E487B71 PUSH1 0xE0 SHL DUP6 MSTORE PUSH1 0x22 DUP10 MSTORE PUSH1 0x24 DUP6 REVERT JUMPDEST SWAP2 PUSH1 0x7F AND SWAP2 PUSH2 0x481 JUMP JUMPDEST SWAP1 POP CALLVALUE PUSH2 0x32F JUMPI DUP2 PUSH1 0x3 NOT CALLDATASIZE ADD SLT PUSH2 0x32F JUMPI PUSH1 0x5 SLOAD SWAP1 MLOAD PUSH1 0x1 PUSH1 0x1 PUSH1 0xA0 SHL SUB SWAP1 SWAP2 AND DUP2 MSTORE PUSH1 0x20 SWAP1 RETURN JUMPDEST SWAP1 POP CALLVALUE PUSH2 0x32F JUMPI DUP2 PUSH1 0x3 NOT CALLDATASIZE ADD SLT PUSH2 0x32F JUMPI PUSH1 0x7 SLOAD SWAP1 MLOAD PUSH1 0x1 PUSH1 0x1 PUSH1 0xA0 SHL SUB SWAP1 SWAP2 AND DUP2 MSTORE PUSH1 0x20 SWAP1 RETURN JUMPDEST DUP3 CALLVALUE PUSH2 0x452 JUMPI DUP1 PUSH1 0x3 NOT CALLDATASIZE ADD SLT PUSH2 0x452 JUMPI PUSH2 0x5D9 PUSH2 0x158D JUMP JUMPDEST PUSH1 0x5 DUP1 SLOAD PUSH1 0x1 PUSH1 0x1 PUSH1 0xA0 SHL SUB NOT DUP2 AND SWAP1 SWAP2 SSTORE PUSH1 0x0 SWAP1 PUSH1 0x1 PUSH1 0x1 PUSH1 0xA0 SHL SUB AND PUSH32 0x8BE0079C531659141344CD1FD0A4F28419497F9722A3DAAFE3B4186F6B6457E0 DUP3 DUP1 LOG3 DUP1 RETURN JUMPDEST SWAP1 POP CALLVALUE PUSH2 0x32F JUMPI PUSH1 0x20 CALLDATASIZE PUSH1 0x3 NOT ADD SLT PUSH2 0x32F JUMPI PUSH1 0x20 SWAP2 DUP2 SWAP1 PUSH1 0x1 PUSH1 0x1 PUSH1 0xA0 SHL SUB PUSH2 0x646 PUSH2 0x125F JUMP JUMPDEST AND DUP2 MSTORE DUP1 DUP5 MSTORE KECCAK256 SLOAD SWAP1 MLOAD SWAP1 DUP2 MSTORE RETURN JUMPDEST DUP3 SWAP1 CALLVALUE PUSH2 0x32F JUMPI DUP2 PUSH1 0x3 NOT CALLDATASIZE ADD SLT PUSH2 0x32F JUMPI PUSH2 0x66F PUSH2 0x158D JUMP JUMPDEST PUSH1 0x8 SLOAD DUP1 ISZERO PUSH2 0x904 JUMPI PUSH1 0x1 DUP1 PUSH1 0xA0 SHL SUB PUSH1 0x7 SLOAD AND SWAP4 DUP3 MLOAD SWAP2 PUSH4 0x133F7571 PUSH1 0xE3 SHL DUP4 MSTORE DUP1 DUP3 DUP5 ADD MSTORE PUSH2 0x180 SWAP6 PUSH1 0x24 SWAP4 DUP8 DUP2 DUP7 DUP2 DUP6 GAS STATICCALL SWAP8 DUP9 ISZERO PUSH2 0x83A JUMPI DUP8 SWAP9 PUSH2 0x8C9 JUMPI JUMPDEST POP POP PUSH1 0x1 PUSH1 0x1 PUSH1 0x80 SHL SUB DUP1 SWAP8 AND SWAP7 DUP8 ISZERO PUSH2 0x88E JUMPI PUSH2 0x12C TIMESTAMP ADD DUP1 TIMESTAMP GT PUSH2 0x87C JUMPI DUP7 MLOAD SWAP1 PUSH1 0xA0 DUP3 ADD SWAP10 PUSH8 0xFFFFFFFFFFFFFFFF SWAP6 DUP4 DUP13 LT DUP8 DUP14 GT OR PUSH2 0x86A JUMPI DUP11 SWAP12 DUP11 MSTORE DUP4 MSTORE PUSH1 0x20 DUP4 ADD SWAP1 DUP2 MSTORE DUP9 DUP4 ADD DUP11 DUP2 MSTORE DUP5 PUSH1 0x60 DUP6 ADD SWAP3 DUP13 DUP5 MSTORE PUSH1 0x80 DUP7 ADD SWAP5 DUP6 MSTORE DUP12 MLOAD SWAP6 PUSH4 0x624E65F PUSH1 0xE1 SHL DUP8 MSTORE MLOAD DUP11 DUP8 ADD MSTORE MLOAD AND DUP10 DUP6 ADD MSTORE MLOAD PUSH1 0x44 DUP5 ADD MSTORE MLOAD PUSH1 0x64 DUP4 ADD MSTORE MLOAD PUSH1 0x84 DUP3 ADD MSTORE DUP7 DUP2 PUSH1 0xA4 DUP2 DUP12 DUP8 GAS CALL DUP1 ISZERO PUSH2 0x860 JUMPI SWAP2 DUP8 SWAP2 PUSH2 0x792 SWAP4 PUSH2 0x844 JUMPI JUMPDEST POP PUSH1 0x8 SLOAD SWAP1 DUP3 MLOAD SWAP2 PUSH2 0x768 DUP4 PUSH2 0x12E6 JUMP JUMPDEST DUP3 MSTORE CALLER PUSH1 0x20 DUP4 ADD MSTORE DUP1 DUP4 DUP4 ADD MSTORE PUSH1 0x60 DUP3 ADD MSTORE DUP2 MLOAD DUP1 SWAP4 DUP2 SWAP3 PUSH4 0xFC6F7865 PUSH1 0xE0 SHL DUP4 MSTORE DUP9 DUP4 ADD PUSH2 0x16D0 JUMP JUMPDEST SUB DUP2 DUP11 DUP7 GAS CALL DUP1 ISZERO PUSH2 0x83A JUMPI PUSH2 0x80E JUMPI JUMPDEST POP PUSH1 0x8 SLOAD SWAP1 DUP1 EXTCODESIZE ISZERO PUSH2 0x80A JUMPI DUP5 DUP8 SWAP3 DUP8 MLOAD SWAP9 DUP10 SWAP4 DUP5 SWAP3 PUSH4 0x852CD8D PUSH1 0xE3 SHL DUP5 MSTORE DUP9 DUP5 ADD MSTORE GAS CALL DUP1 ISZERO PUSH2 0x800 JUMPI PUSH2 0x7DC JUMPI JUMPDEST DUP6 DUP1 PUSH1 0x8 SSTORE DUP1 RETURN JUMPDEST DUP5 GT PUSH2 0x7EF JUMPI POP POP MSTORE DUP2 DUP1 DUP1 DUP1 DUP1 PUSH2 0x7D4 JUMP JUMPDEST PUSH4 0x4E487B71 PUSH1 0xE0 SHL DUP6 MSTORE PUSH1 0x41 SWAP1 MSTORE DUP4 REVERT JUMPDEST DUP5 MLOAD RETURNDATASIZE DUP9 DUP3 RETURNDATACOPY RETURNDATASIZE SWAP1 REVERT JUMPDEST DUP7 DUP1 REVERT JUMPDEST PUSH2 0x82D SWAP1 DUP7 RETURNDATASIZE DUP9 GT PUSH2 0x833 JUMPI JUMPDEST PUSH2 0x825 DUP2 DUP4 PUSH2 0x1318 JUMP JUMPDEST DUP2 ADD SWAP1 PUSH2 0x16BA JUMP JUMPDEST POP PUSH2 0x7A3 JUMP JUMPDEST POP RETURNDATASIZE PUSH2 0x81B JUMP JUMPDEST DUP7 MLOAD RETURNDATASIZE DUP10 DUP3 RETURNDATACOPY RETURNDATASIZE SWAP1 REVERT JUMPDEST PUSH2 0x85A SWAP1 DUP4 RETURNDATASIZE DUP6 GT PUSH2 0x833 JUMPI PUSH2 0x825 DUP2 DUP4 PUSH2 0x1318 JUMP JUMPDEST POP PUSH2 0x757 JUMP JUMPDEST DUP8 MLOAD RETURNDATASIZE DUP11 DUP3 RETURNDATACOPY RETURNDATASIZE SWAP1 REVERT JUMPDEST PUSH4 0x4E487B71 PUSH1 0xE0 SHL DUP12 MSTORE PUSH1 0x41 DUP9 MSTORE DUP9 DUP12 REVERT JUMPDEST PUSH4 0x4E487B71 PUSH1 0xE0 SHL DUP9 MSTORE PUSH1 0x11 DUP6 MSTORE DUP6 DUP9 REVERT JUMPDEST DUP6 MLOAD PUSH3 0x461BCD PUSH1 0xE5 SHL DUP2 MSTORE PUSH1 0x20 DUP2 DUP7 ADD MSTORE PUSH1 0x16 DUP2 DUP8 ADD MSTORE PUSH22 0x4E6F206C697175696469747920746F2072656D6F7665 PUSH1 0x50 SHL PUSH1 0x44 DUP3 ADD MSTORE PUSH1 0x64 SWAP1 REVERT JUMPDEST PUSH2 0x8E9 SWAP3 SWAP9 POP DUP1 RETURNDATASIZE LT PUSH2 0x8FD JUMPI JUMPDEST PUSH2 0x8E1 DUP2 DUP4 PUSH2 0x1318 JUMP JUMPDEST DUP2 ADD SWAP1 PUSH2 0x1744 JUMP JUMPDEST POP POP POP POP SWAP7 POP POP POP POP POP POP POP SWAP6 DUP8 DUP1 PUSH2 0x6B2 JUMP JUMPDEST POP RETURNDATASIZE PUSH2 0x8D7 JUMP JUMPDEST DUP2 MLOAD PUSH3 0x461BCD PUSH1 0xE5 SHL DUP2 MSTORE PUSH1 0x20 DUP2 DUP7 ADD MSTORE PUSH1 0x15 PUSH1 0x24 DUP3 ADD MSTORE PUSH21 0x2737903634B8BAB4B234BA3C903837B9B4BA34B7B7 PUSH1 0x59 SHL PUSH1 0x44 DUP3 ADD MSTORE PUSH1 0x64 SWAP1 REVERT JUMPDEST SWAP1 CALLVALUE PUSH2 0x24D JUMPI DUP3 PUSH1 0x3 NOT CALLDATASIZE ADD SLT PUSH2 0x24D JUMPI PUSH2 0x958 PUSH2 0x158D JUMP JUMPDEST PUSH1 0x8 SLOAD SWAP1 DUP2 ISZERO PUSH2 0xC4B JUMPI PUSH1 0x7 SLOAD DUP4 MLOAD SWAP3 PUSH2 0x9B6 SWAP3 PUSH1 0x1 PUSH1 0x1 PUSH1 0xA0 SHL SUB SWAP3 DUP4 AND SWAP2 PUSH2 0x981 DUP7 PUSH2 0x12E6 JUMP JUMPDEST DUP6 MSTORE DUP6 PUSH1 0x20 SWAP6 ADDRESS DUP8 DUP3 ADD MSTORE PUSH1 0x1 PUSH1 0x1 PUSH1 0x80 SHL SUB DUP1 DUP4 DUP4 ADD MSTORE PUSH1 0x60 DUP3 ADD MSTORE DUP2 MLOAD DUP1 SWAP7 DUP2 SWAP3 PUSH4 0xFC6F7865 PUSH1 0xE0 SHL DUP4 MSTORE DUP6 DUP4 ADD PUSH2 0x16D0 JUMP JUMPDEST SUB DUP2 DUP11 DUP7 GAS CALL SWAP4 DUP5 ISZERO PUSH2 0x83A JUMPI DUP8 SWAP1 DUP9 SWAP6 PUSH2 0xC29 JUMPI JUMPDEST POP DUP1 ISZERO SWAP5 DUP6 ISZERO SWAP1 DUP2 PUSH2 0xC1F JUMPI JUMPDEST POP PUSH2 0x9E2 JUMPI DUP8 DUP1 RETURN JUMPDEST PUSH1 0x8 SLOAD DUP8 MLOAD SWAP4 DUP5 SWAP2 PUSH4 0x133F7571 PUSH1 0xE3 SHL DUP4 MSTORE DUP5 DUP4 ADD MSTORE DUP2 PUSH1 0x24 PUSH2 0x180 SWAP7 DUP8 SWAP4 GAS STATICCALL SWAP4 DUP5 ISZERO PUSH2 0xC15 JUMPI DUP10 SWAP5 PUSH2 0xBEA JUMPI JUMPDEST POP POP PUSH1 0x28 DUP2 MUL DUP2 DUP2 DIV PUSH1 0x28 EQ DUP7 OR ISZERO PUSH2 0xBD7 JUMPI PUSH1 0x64 SWAP1 DIV SWAP5 PUSH1 0x14 DUP3 MUL SWAP2 DUP3 DIV PUSH1 0x14 EQ OR ISZERO PUSH2 0xBC4 JUMPI PUSH1 0x64 DUP9 SWAP2 DIV SWAP4 DUP6 PUSH2 0xB53 JUMPI JUMPDEST DUP5 PUSH2 0xA9D JUMPI JUMPDEST POP POP POP POP SWAP1 PUSH32 0x312C5308F42848705A866C73DEC11FD0783C2D64AAC6A97E94467062AD3F4058 SWAP4 PUSH1 0x60 SWAP4 SWAP3 PUSH2 0xA82 DUP4 PUSH1 0xC SLOAD PUSH2 0x1697 JUMP JUMPDEST PUSH1 0xC SSTORE DUP2 MLOAD SWAP4 DUP4 DUP6 MSTORE DUP5 ADD MSTORE DUP3 ADD MSTORE LOG1 DUP2 DUP1 DUP1 DUP1 DUP1 DUP1 DUP1 DUP8 DUP1 RETURN JUMPDEST PUSH1 0x6 SLOAD DUP9 MLOAD PUSH4 0xA9059CBB PUSH1 0xE0 SHL DUP2 MSTORE SWAP1 DUP3 AND PUSH1 0x1 PUSH1 0x1 PUSH1 0xA0 SHL SUB AND SWAP4 DUP2 ADD SWAP4 DUP5 MSTORE PUSH1 0x20 DUP5 ADD DUP7 SWAP1 MSTORE SWAP4 DUP8 SWAP4 DUP6 SWAP4 SWAP2 SWAP3 DUP5 SWAP3 SWAP2 DUP4 SWAP1 PUSH1 0x40 ADD SUB SWAP4 AND GAS CALL DUP1 ISZERO PUSH2 0xB49 JUMPI SWAP2 PUSH32 0x312C5308F42848705A866C73DEC11FD0783C2D64AAC6A97E94467062AD3F4058 SWAP6 SWAP2 PUSH1 0x60 SWAP6 SWAP5 SWAP4 PUSH2 0xB1C JUMPI JUMPDEST DUP3 SWAP7 DUP3 SWAP5 SWAP6 SWAP7 POP DUP9 SWAP2 POP PUSH2 0xA4B JUMP JUMPDEST PUSH2 0xB3B SWAP1 DUP6 RETURNDATASIZE DUP8 GT PUSH2 0xB42 JUMPI JUMPDEST PUSH2 0xB33 DUP2 DUP4 PUSH2 0x1318 JUMP JUMPDEST DUP2 ADD SWAP1 PUSH2 0x17F1 JUMP JUMPDEST POP DUP8 PUSH2 0xB0D JUMP JUMPDEST POP RETURNDATASIZE PUSH2 0xB29 JUMP JUMPDEST DUP6 MLOAD RETURNDATASIZE DUP9 DUP3 RETURNDATACOPY RETURNDATASIZE SWAP1 REVERT JUMPDEST PUSH1 0x5 SLOAD DUP9 MLOAD PUSH4 0xA9059CBB PUSH1 0xE0 SHL DUP2 MSTORE SWAP1 DUP3 AND PUSH1 0x1 PUSH1 0x1 PUSH1 0xA0 SHL SUB AND DUP5 DUP3 ADD SWAP1 DUP2 MSTORE PUSH1 0x20 DUP2 ADD DUP9 SWAP1 MSTORE DUP9 SWAP1 DUP3 SWAP1 DUP2 SWAP1 PUSH1 0x40 ADD SUB DUP2 DUP7 DUP7 DUP11 AND GAS CALL DUP1 ISZERO PUSH2 0xBBA JUMPI PUSH2 0xB9D JUMPI JUMPDEST POP PUSH2 0xA45 JUMP JUMPDEST PUSH2 0xBB3 SWAP1 DUP9 RETURNDATASIZE DUP11 GT PUSH2 0xB42 JUMPI PUSH2 0xB33 DUP2 DUP4 PUSH2 0x1318 JUMP JUMPDEST POP DUP10 PUSH2 0xB97 JUMP JUMPDEST DUP10 MLOAD RETURNDATASIZE DUP6 DUP3 RETURNDATACOPY RETURNDATASIZE SWAP1 REVERT JUMPDEST PUSH4 0x4E487B71 PUSH1 0xE0 SHL DUP9 MSTORE PUSH1 0x11 DUP3 MSTORE PUSH1 0x24 DUP9 REVERT JUMPDEST PUSH4 0x4E487B71 PUSH1 0xE0 SHL DUP10 MSTORE PUSH1 0x11 DUP4 MSTORE PUSH1 0x24 DUP10 REVERT JUMPDEST PUSH2 0xC01 SWAP3 SWAP5 POP DUP1 RETURNDATASIZE LT PUSH2 0x8FD JUMPI PUSH2 0x8E1 DUP2 DUP4 PUSH2 0x1318 JUMP JUMPDEST POP POP POP POP POP POP POP POP POP SWAP2 POP POP SWAP2 DUP9 DUP1 PUSH2 0xA11 JUMP JUMPDEST DUP9 MLOAD RETURNDATASIZE DUP12 DUP3 RETURNDATACOPY RETURNDATASIZE SWAP1 REVERT JUMPDEST SWAP1 POP ISZERO ISZERO DUP10 PUSH2 0x9D9 JUMP JUMPDEST SWAP1 POP PUSH2 0xC43 SWAP2 SWAP5 POP DUP7 RETURNDATASIZE DUP9 GT PUSH2 0x833 JUMPI PUSH2 0x825 DUP2 DUP4 PUSH2 0x1318 JUMP JUMPDEST SWAP4 SWAP1 DUP9 PUSH2 0x9CC JUMP JUMPDEST PUSH1 0x64 SWAP1 PUSH1 0x20 DUP5 MLOAD SWAP2 PUSH3 0x461BCD PUSH1 0xE5 SHL DUP4 MSTORE DUP3 ADD MSTORE PUSH1 0x10 PUSH1 0x24 DUP3 ADD MSTORE PUSH16 0x141BDCDA5D1A5BDB881B9BDD081CD95D PUSH1 0x82 SHL PUSH1 0x44 DUP3 ADD MSTORE REVERT JUMPDEST SWAP1 POP CALLVALUE PUSH2 0x32F JUMPI DUP2 PUSH1 0x3 NOT CALLDATASIZE ADD SLT PUSH2 0x32F JUMPI PUSH1 0x20 SWAP1 PUSH1 0xB SLOAD SWAP1 MLOAD SWAP1 DUP2 MSTORE RETURN JUMPDEST SWAP1 POP CALLVALUE PUSH2 0x32F JUMPI DUP2 PUSH1 0x3 NOT CALLDATASIZE ADD SLT PUSH2 0x32F JUMPI PUSH1 0x20 SWAP1 MLOAD PUSH1 0x14 DUP2 MSTORE RETURN JUMPDEST SWAP1 POP CALLVALUE PUSH2 0x32F JUMPI DUP2 PUSH1 0x3 NOT CALLDATASIZE ADD SLT PUSH2 0x32F JUMPI PUSH1 0x6 SLOAD SWAP1 MLOAD PUSH1 0x1 PUSH1 0x1 PUSH1 0xA0 SHL SUB SWAP1 SWAP2 AND DUP2 MSTORE PUSH1 0x20 SWAP1 RETURN JUMPDEST CALLVALUE PUSH2 0x24D JUMPI DUP3 PUSH1 0x3 NOT CALLDATASIZE ADD SLT PUSH2 0x24D JUMPI CALLER DUP4 MSTORE PUSH1 0x20 SWAP1 DUP4 DUP3 MSTORE DUP1 DUP5 KECCAK256 SLOAD ISZERO PUSH2 0xEC6 JUMPI PUSH1 0xC SLOAD DUP1 ISZERO PUSH2 0xE8D JUMPI PUSH1 0x2 SLOAD CALLER DUP7 MSTORE DUP6 DUP5 MSTORE DUP3 DUP7 KECCAK256 SLOAD DUP1 DUP4 MUL SWAP3 DUP4 DIV SUB PUSH2 0xE7A JUMPI DUP1 ISZERO PUSH2 0xE67 JUMPI SWAP1 PUSH2 0xD45 SWAP2 CALLER DUP8 MSTORE PUSH1 0xD DUP6 MSTORE DUP4 DUP8 KECCAK256 SLOAD SWAP2 DIV PUSH2 0x1809 JUMP JUMPDEST SWAP3 DUP4 ISZERO PUSH2 0xE30 JUMPI CALLER DUP6 MSTORE PUSH1 0xD DUP4 MSTORE DUP2 DUP6 KECCAK256 PUSH2 0xD61 DUP6 DUP3 SLOAD PUSH2 0x1697 JUMP JUMPDEST SWAP1 SSTORE PUSH2 0xD6F DUP5 PUSH1 0xC SLOAD PUSH2 0x1809 JUMP JUMPDEST PUSH1 0xC SSTORE DUP5 DUP1 DUP1 DUP1 DUP8 CALLER GAS CALL RETURNDATASIZE ISZERO PUSH2 0xE2B JUMPI RETURNDATASIZE PUSH8 0xFFFFFFFFFFFFFFFF DUP2 GT PUSH2 0xE18 JUMPI DUP4 MLOAD SWAP1 PUSH2 0xDA6 PUSH1 0x1F DUP3 ADD PUSH1 0x1F NOT AND DUP8 ADD DUP4 PUSH2 0x1318 JUMP JUMPDEST DUP2 MSTORE DUP7 DUP6 RETURNDATASIZE SWAP3 ADD RETURNDATACOPY JUMPDEST ISZERO PUSH2 0xDE2 JUMPI POP SWAP1 PUSH32 0xFC30CDDEA38E2BF4D6EA7D3F9ED3B6AD7F176419F4963BD81318067A4AEE73FE SWAP2 MLOAD SWAP3 DUP4 MSTORE CALLER SWAP3 LOG2 DUP1 RETURN JUMPDEST DUP3 PUSH1 0x64 SWAP3 MLOAD SWAP2 PUSH3 0x461BCD PUSH1 0xE5 SHL DUP4 MSTORE DUP3 ADD MSTORE PUSH1 0x12 PUSH1 0x24 DUP3 ADD MSTORE PUSH18 0x8CC2D2D8CAC840E8DE40E6CADCC8408AA89 PUSH1 0x73 SHL PUSH1 0x44 DUP3 ADD MSTORE REVERT JUMPDEST PUSH4 0x4E487B71 PUSH1 0xE0 SHL DUP8 MSTORE PUSH1 0x41 DUP4 MSTORE PUSH1 0x24 DUP8 REVERT JUMPDEST PUSH2 0xDAF JUMP JUMPDEST DUP3 PUSH1 0x64 SWAP3 MLOAD SWAP2 PUSH3 0x461BCD PUSH1 0xE5 SHL DUP4 MSTORE DUP3 ADD MSTORE PUSH1 0x13 PUSH1 0x24 DUP3 ADD MSTORE PUSH19 0x4E6F207265776172647320746F20636C61696D PUSH1 0x68 SHL PUSH1 0x44 DUP3 ADD MSTORE REVERT JUMPDEST PUSH4 0x4E487B71 PUSH1 0xE0 SHL DUP7 MSTORE PUSH1 0x12 DUP6 MSTORE PUSH1 0x24 DUP7 REVERT JUMPDEST PUSH4 0x4E487B71 PUSH1 0xE0 SHL DUP7 MSTORE PUSH1 0x11 DUP6 MSTORE PUSH1 0x24 DUP7 REVERT JUMPDEST POP MLOAD PUSH3 0x461BCD PUSH1 0xE5 SHL DUP2 MSTORE SWAP2 DUP3 ADD MSTORE PUSH1 0x14 PUSH1 0x24 DUP3 ADD MSTORE PUSH20 0x4E6F207265776172647320617661696C61626C65 PUSH1 0x60 SHL PUSH1 0x44 DUP3 ADD MSTORE PUSH1 0x64 SWAP2 POP REVERT JUMPDEST MLOAD PUSH3 0x461BCD PUSH1 0xE5 SHL DUP2 MSTORE SWAP2 DUP3 ADD MSTORE PUSH1 0xC PUSH1 0x24 DUP3 ADD MSTORE PUSH12 0x2737BA1030903437B63232B9 PUSH1 0xA1 SHL PUSH1 0x44 DUP3 ADD MSTORE PUSH1 0x64 SWAP2 POP REVERT JUMPDEST SWAP1 POP CALLVALUE PUSH2 0x32F JUMPI DUP2 PUSH1 0x3 NOT CALLDATASIZE ADD SLT PUSH2 0x32F JUMPI PUSH1 0x20 SWAP1 MLOAD PUSH1 0x12 DUP2 MSTORE RETURN JUMPDEST SWAP1 CALLVALUE PUSH2 0x24D JUMPI PUSH1 0x20 CALLDATASIZE PUSH1 0x3 NOT ADD SLT PUSH2 0x24D JUMPI CALLDATALOAD PUSH1 0xA SLOAD DUP2 LT ISZERO PUSH2 0x24D JUMPI PUSH1 0xA PUSH1 0x20 SWAP4 MSTORE PUSH1 0x1 DUP1 PUSH1 0xA0 SHL SUB SWAP1 PUSH32 0xC65A7BB8D6351C1CF70C95A316CC6A92839C986682D98BC35F958F4883F9D2A8 ADD SLOAD AND SWAP1 MLOAD SWAP1 DUP2 MSTORE RETURN JUMPDEST SWAP2 CALLVALUE PUSH2 0x452 JUMPI PUSH1 0x60 CALLDATASIZE PUSH1 0x3 NOT ADD SLT PUSH2 0x452 JUMPI PUSH2 0xF82 PUSH2 0x125F JUMP JUMPDEST PUSH2 0xF8A PUSH2 0x127A JUMP JUMPDEST SWAP2 PUSH1 0x44 CALLDATALOAD SWAP4 PUSH1 0x1 DUP1 PUSH1 0xA0 SHL SUB DUP4 AND DUP1 DUP4 MSTORE PUSH1 0x1 PUSH1 0x20 MSTORE DUP7 DUP4 KECCAK256 CALLER DUP5 MSTORE PUSH1 0x20 MSTORE DUP7 DUP4 KECCAK256 SLOAD SWAP2 PUSH1 0x0 NOT DUP4 LT PUSH2 0xFC6 JUMPI JUMPDEST PUSH1 0x20 DUP9 PUSH2 0x40E DUP10 DUP10 DUP10 PUSH2 0x15B9 JUMP JUMPDEST DUP7 DUP4 LT PUSH2 0x102E JUMPI DUP2 ISZERO PUSH2 0x1017 JUMPI CALLER ISZERO PUSH2 0x1000 JUMPI POP DUP3 MSTORE PUSH1 0x1 PUSH1 0x20 SWAP1 DUP2 MSTORE DUP7 DUP4 KECCAK256 CALLER DUP5 MSTORE DUP2 MSTORE SWAP2 DUP7 SWAP1 KECCAK256 SWAP1 DUP6 SWAP1 SUB SWAP1 SSTORE DUP3 SWAP1 PUSH2 0x40E DUP8 PUSH2 0xFB8 JUMP JUMPDEST DUP8 MLOAD PUSH4 0x4A1406B1 PUSH1 0xE1 SHL DUP2 MSTORE SWAP1 DUP2 ADD DUP5 SWAP1 MSTORE PUSH1 0x24 SWAP1 REVERT JUMPDEST DUP8 MLOAD PUSH4 0xE602DF05 PUSH1 0xE0 SHL DUP2 MSTORE SWAP1 DUP2 ADD DUP5 SWAP1 MSTORE PUSH1 0x24 SWAP1 REVERT JUMPDEST DUP8 MLOAD PUSH4 0x7DC7A0D9 PUSH1 0xE1 SHL DUP2 MSTORE CALLER SWAP2 DUP2 ADD SWAP2 DUP3 MSTORE PUSH1 0x20 DUP3 ADD SWAP4 SWAP1 SWAP4 MSTORE PUSH1 0x40 DUP2 ADD DUP8 SWAP1 MSTORE DUP3 SWAP2 POP PUSH1 0x60 ADD SUB SWAP1 REVERT JUMPDEST SWAP1 POP CALLVALUE PUSH2 0x32F JUMPI DUP2 PUSH1 0x3 NOT CALLDATASIZE ADD SLT PUSH2 0x32F JUMPI PUSH1 0x20 SWAP1 PUSH1 0xC SLOAD SWAP1 MLOAD SWAP1 DUP2 MSTORE RETURN JUMPDEST SWAP1 POP CALLVALUE PUSH2 0x32F JUMPI DUP2 PUSH1 0x3 NOT CALLDATASIZE ADD SLT PUSH2 0x32F JUMPI PUSH1 0x20 SWAP1 PUSH1 0x2 SLOAD SWAP1 MLOAD SWAP1 DUP2 MSTORE RETURN JUMPDEST SWAP1 CALLVALUE PUSH2 0x24D JUMPI DUP2 PUSH1 0x3 NOT CALLDATASIZE ADD SLT PUSH2 0x24D JUMPI PUSH2 0x10B1 PUSH2 0x125F JUMP JUMPDEST PUSH1 0x24 CALLDATALOAD SWAP1 CALLER ISZERO PUSH2 0x112A JUMPI PUSH1 0x1 PUSH1 0x1 PUSH1 0xA0 SHL SUB AND SWAP2 DUP3 ISZERO PUSH2 0x1113 JUMPI POP DUP1 DUP4 PUSH1 0x20 SWAP6 CALLER DUP2 MSTORE PUSH1 0x1 DUP8 MSTORE DUP2 DUP2 KECCAK256 DUP6 DUP3 MSTORE DUP8 MSTORE KECCAK256 SSTORE DUP3 MLOAD SWAP1 DUP2 MSTORE PUSH32 0x8C5BE1E5EBEC7D5BD14F71427D1E84F3DD0314C0F7B2291E5B200AC8C7C3B925 DUP5 CALLER SWAP3 LOG3 MLOAD PUSH1 0x1 DUP2 MSTORE RETURN JUMPDEST DUP4 MLOAD PUSH4 0x4A1406B1 PUSH1 0xE1 SHL DUP2 MSTORE SWAP1 DUP2 ADD DUP6 SWAP1 MSTORE PUSH1 0x24 SWAP1 REVERT JUMPDEST DUP4 MLOAD PUSH4 0xE602DF05 PUSH1 0xE0 SHL DUP2 MSTORE DUP1 DUP5 ADD DUP7 SWAP1 MSTORE PUSH1 0x24 SWAP1 REVERT JUMPDEST SWAP2 SWAP3 SWAP1 CALLVALUE PUSH2 0x32F JUMPI DUP2 PUSH1 0x3 NOT CALLDATASIZE ADD SLT PUSH2 0x32F JUMPI DUP2 PUSH1 0x3 SLOAD SWAP3 PUSH1 0x1 DUP5 DUP2 SHR SWAP2 DUP2 DUP7 AND SWAP6 DUP7 ISZERO PUSH2 0x1215 JUMPI JUMPDEST PUSH1 0x20 SWAP7 DUP8 DUP6 LT DUP2 EQ PUSH2 0x1202 JUMPI DUP9 SWAP10 POP SWAP7 DUP9 SWAP7 SWAP8 DUP6 DUP3 SWAP11 MSTORE SWAP2 DUP3 PUSH1 0x0 EQ PUSH2 0x52A JUMPI POP POP PUSH1 0x1 EQ PUSH2 0x11A6 JUMPI POP POP POP PUSH2 0x44E SWAP3 SWAP2 PUSH2 0x4BE SWAP2 SUB DUP6 PUSH2 0x1318 JUMP JUMPDEST SWAP2 SWAP1 DUP7 SWAP4 POP PUSH1 0x3 DUP4 MSTORE PUSH32 0xC2575A0E9E593C00F959F8C92F12DB2869C3395A3B0502D05E2516446F71F85B JUMPDEST DUP3 DUP5 LT PUSH2 0x11EA JUMPI POP POP POP DUP3 ADD ADD DUP2 PUSH2 0x4BE PUSH2 0x44E PUSH2 0x4AB JUMP JUMPDEST DUP1 SLOAD DUP5 DUP11 ADD DUP7 ADD MSTORE DUP9 SWAP6 POP DUP8 SWAP5 SWAP1 SWAP4 ADD SWAP3 DUP2 ADD PUSH2 0x11D1 JUMP JUMPDEST PUSH4 0x4E487B71 PUSH1 0xE0 SHL DUP4 MSTORE PUSH1 0x22 DUP11 MSTORE PUSH1 0x24 DUP4 REVERT JUMPDEST SWAP3 PUSH1 0x7F AND SWAP3 PUSH2 0x116A JUMP JUMPDEST SWAP2 SWAP1 DUP3 MLOAD SWAP3 DUP4 DUP3 MSTORE PUSH1 0x0 JUMPDEST DUP5 DUP2 LT PUSH2 0x124B JUMPI POP POP DUP3 PUSH1 0x0 PUSH1 0x20 DUP1 SWAP5 SWAP6 DUP5 ADD ADD MSTORE PUSH1 0x1F DUP1 NOT SWAP2 ADD AND ADD ADD SWAP1 JUMP JUMPDEST PUSH1 0x20 DUP2 DUP4 ADD DUP2 ADD MLOAD DUP5 DUP4 ADD DUP3 ADD MSTORE ADD PUSH2 0x122A JUMP JUMPDEST PUSH1 0x4 CALLDATALOAD SWAP1 PUSH1 0x1 PUSH1 0x1 PUSH1 0xA0 SHL SUB DUP3 AND DUP3 SUB PUSH2 0x1275 JUMPI JUMP JUMPDEST PUSH1 0x0 DUP1 REVERT JUMPDEST PUSH1 0x24 CALLDATALOAD SWAP1 PUSH1 0x1 PUSH1 0x1 PUSH1 0xA0 SHL SUB DUP3 AND DUP3 SUB PUSH2 0x1275 JUMPI JUMP JUMPDEST CALLVALUE PUSH2 0x1275 JUMPI PUSH1 0x0 CALLDATASIZE PUSH1 0x3 NOT ADD SLT PUSH2 0x1275 JUMPI PUSH1 0x20 PUSH1 0x40 MLOAD PUSH1 0x28 DUP2 MSTORE RETURN JUMPDEST SWAP2 PUSH2 0x12D5 SWAP1 PUSH2 0x12C7 PUSH2 0x12E3 SWAP6 SWAP4 PUSH1 0x60 DUP7 MSTORE PUSH1 0x60 DUP7 ADD SWAP1 PUSH2 0x121F JUMP JUMPDEST SWAP1 DUP5 DUP3 SUB PUSH1 0x20 DUP7 ADD MSTORE PUSH2 0x121F JUMP JUMPDEST SWAP2 PUSH1 0x40 DUP2 DUP5 SUB SWAP2 ADD MSTORE PUSH2 0x121F JUMP JUMPDEST SWAP1 JUMP JUMPDEST PUSH1 0x80 DUP2 ADD SWAP1 DUP2 LT PUSH8 0xFFFFFFFFFFFFFFFF DUP3 GT OR PUSH2 0x1302 JUMPI PUSH1 0x40 MSTORE JUMP JUMPDEST PUSH4 0x4E487B71 PUSH1 0xE0 SHL PUSH1 0x0 MSTORE PUSH1 0x41 PUSH1 0x4 MSTORE PUSH1 0x24 PUSH1 0x0 REVERT JUMPDEST SWAP1 PUSH1 0x1F DUP1 NOT SWAP2 ADD AND DUP2 ADD SWAP1 DUP2 LT PUSH8 0xFFFFFFFFFFFFFFFF DUP3 GT OR PUSH2 0x1302 JUMPI PUSH1 0x40 MSTORE JUMP JUMPDEST PUSH1 0x40 MLOAD SWAP1 PUSH1 0x0 PUSH1 0xE SLOAD SWAP1 PUSH1 0x1 DUP3 DUP2 SHR SWAP1 DUP1 DUP5 AND SWAP4 DUP5 ISZERO PUSH2 0x141B JUMPI JUMPDEST PUSH1 0x20 SWAP5 DUP6 DUP5 LT DUP2 EQ PUSH2 0x1407 JUMPI DUP4 DUP9 MSTORE DUP8 SWAP5 SWAP4 SWAP3 SWAP2 DUP2 ISZERO PUSH2 0x13E7 JUMPI POP PUSH1 0x1 EQ PUSH2 0x1388 JUMPI JUMPDEST POP POP PUSH2 0x1386 SWAP3 POP SUB DUP4 PUSH2 0x1318 JUMP JUMPDEST JUMP JUMPDEST SWAP1 SWAP4 SWAP2 POP PUSH1 0xE PUSH1 0x0 MSTORE PUSH32 0xBB7B4A454DC3493923482F07822329ED19E8244EFF582CC204F8554C3620C3FD SWAP4 PUSH1 0x0 SWAP2 JUMPDEST DUP2 DUP4 LT PUSH2 0x13CF JUMPI POP POP PUSH2 0x1386 SWAP4 POP DUP3 ADD ADD CODESIZE DUP1 PUSH2 0x1378 JUMP JUMPDEST DUP6 SLOAD DUP9 DUP5 ADD DUP6 ADD MSTORE SWAP5 DUP6 ADD SWAP5 DUP8 SWAP5 POP SWAP2 DUP4 ADD SWAP2 PUSH2 0x13B7 JUMP JUMPDEST SWAP2 POP POP PUSH2 0x1386 SWAP5 SWAP3 POP PUSH1 0xFF NOT AND DUP3 DUP5 ADD MSTORE ISZERO ISZERO PUSH1 0x5 SHL DUP3 ADD ADD CODESIZE DUP1 PUSH2 0x1378 JUMP JUMPDEST PUSH4 0x4E487B71 PUSH1 0xE0 SHL DUP6 MSTORE PUSH1 0x22 PUSH1 0x4 MSTORE PUSH1 0x24 DUP6 REVERT JUMPDEST SWAP2 PUSH1 0x7F AND SWAP2 PUSH2 0x1355 JUMP JUMPDEST PUSH1 0x40 MLOAD SWAP1 PUSH1 0x0 PUSH1 0xF SLOAD SWAP1 PUSH1 0x1 DUP3 DUP2 SHR SWAP1 DUP1 DUP5 AND SWAP4 DUP5 ISZERO PUSH2 0x14CF JUMPI JUMPDEST PUSH1 0x20 SWAP5 DUP6 DUP5 LT DUP2 EQ PUSH2 0x1407 JUMPI DUP4 DUP9 MSTORE DUP8 SWAP5 SWAP4 SWAP3 SWAP2 DUP2 ISZERO PUSH2 0x13E7 JUMPI POP PUSH1 0x1 EQ PUSH2 0x1470 JUMPI POP POP PUSH2 0x1386 SWAP3 POP SUB DUP4 PUSH2 0x1318 JUMP JUMPDEST SWAP1 SWAP4 SWAP2 POP PUSH1 0xF PUSH1 0x0 MSTORE PUSH32 0x8D1108E10BCB7C27DDDFC02ED9D693A074039D026CF4EA4240B40F7D581AC802 SWAP4 PUSH1 0x0 SWAP2 JUMPDEST DUP2 DUP4 LT PUSH2 0x14B7 JUMPI POP POP PUSH2 0x1386 SWAP4 POP DUP3 ADD ADD CODESIZE DUP1 PUSH2 0x1378 JUMP JUMPDEST DUP6 SLOAD DUP9 DUP5 ADD DUP6 ADD MSTORE SWAP5 DUP6 ADD SWAP5 DUP8 SWAP5 POP SWAP2 DUP4 ADD SWAP2 PUSH2 0x149F JUMP JUMPDEST SWAP2 PUSH1 0x7F AND SWAP2 PUSH2 0x1440 JUMP JUMPDEST PUSH1 0x40 MLOAD SWAP1 PUSH1 0x0 PUSH1 0x10 SLOAD SWAP1 PUSH1 0x1 DUP3 DUP2 SHR SWAP1 DUP1 DUP5 AND SWAP4 DUP5 ISZERO PUSH2 0x1583 JUMPI JUMPDEST PUSH1 0x20 SWAP5 DUP6 DUP5 LT DUP2 EQ PUSH2 0x1407 JUMPI DUP4 DUP9 MSTORE DUP8 SWAP5 SWAP4 SWAP3 SWAP2 DUP2 ISZERO PUSH2 0x13E7 JUMPI POP PUSH1 0x1 EQ PUSH2 0x1524 JUMPI POP POP PUSH2 0x1386 SWAP3 POP SUB DUP4 PUSH2 0x1318 JUMP JUMPDEST SWAP1 SWAP4 SWAP2 POP PUSH1 0x10 PUSH1 0x0 MSTORE PUSH32 0x1B6847DC741A1B0CD08D278845F9D819D87B734759AFB55FE2DE5CB82A9AE672 SWAP4 PUSH1 0x0 SWAP2 JUMPDEST DUP2 DUP4 LT PUSH2 0x156B JUMPI POP POP PUSH2 0x1386 SWAP4 POP DUP3 ADD ADD CODESIZE DUP1 PUSH2 0x1378 JUMP JUMPDEST DUP6 SLOAD DUP9 DUP5 ADD DUP6 ADD MSTORE SWAP5 DUP6 ADD SWAP5 DUP8 SWAP5 POP SWAP2 DUP4 ADD SWAP2 PUSH2 0x1553 JUMP JUMPDEST SWAP2 PUSH1 0x7F AND SWAP2 PUSH2 0x14F4 JUMP JUMPDEST PUSH1 0x5 SLOAD PUSH1 0x1 PUSH1 0x1 PUSH1 0xA0 SHL SUB AND CALLER SUB PUSH2 0x15A1 JUMPI JUMP JUMPDEST PUSH1 0x40 MLOAD PUSH4 0x118CDAA7 PUSH1 0xE0 SHL DUP2 MSTORE CALLER PUSH1 0x4 DUP3 ADD MSTORE PUSH1 0x24 SWAP1 REVERT JUMPDEST SWAP2 PUSH1 0x1 PUSH1 0x1 PUSH1 0xA0 SHL SUB DUP1 DUP5 AND SWAP3 DUP4 ISZERO PUSH2 0x167E JUMPI AND SWAP3 DUP4 ISZERO PUSH2 0x1665 JUMPI PUSH1 0x0 SWAP1 DUP4 DUP3 MSTORE DUP2 PUSH1 0x20 MSTORE PUSH1 0x40 DUP3 KECCAK256 SLOAD SWAP1 DUP4 DUP3 LT PUSH2 0x1633 JUMPI POP SWAP2 PUSH1 0x40 DUP3 DUP3 PUSH32 0xDDF252AD1BE2C89B69C2B068FC378DAA952BA7F163C4A11628F55A4DF523B3EF SWAP6 DUP8 PUSH1 0x20 SWAP7 MSTORE DUP3 DUP7 MSTORE SUB DUP3 DUP3 KECCAK256 SSTORE DUP7 DUP2 MSTORE KECCAK256 DUP2 DUP2 SLOAD ADD SWAP1 SSTORE PUSH1 0x40 MLOAD SWAP1 DUP2 MSTORE LOG3 JUMP JUMPDEST PUSH1 0x40 MLOAD PUSH4 0x391434E3 PUSH1 0xE2 SHL DUP2 MSTORE PUSH1 0x1 PUSH1 0x1 PUSH1 0xA0 SHL SUB SWAP2 SWAP1 SWAP2 AND PUSH1 0x4 DUP3 ADD MSTORE PUSH1 0x24 DUP2 ADD SWAP2 SWAP1 SWAP2 MSTORE PUSH1 0x44 DUP2 ADD DUP4 SWAP1 MSTORE PUSH1 0x64 SWAP1 REVERT JUMPDEST PUSH1 0x40 MLOAD PUSH4 0xEC442F05 PUSH1 0xE0 SHL DUP2 MSTORE PUSH1 0x0 PUSH1 0x4 DUP3 ADD MSTORE PUSH1 0x24 SWAP1 REVERT JUMPDEST PUSH1 0x40 MLOAD PUSH4 0x4B637E8F PUSH1 0xE1 SHL DUP2 MSTORE PUSH1 0x0 PUSH1 0x4 DUP3 ADD MSTORE PUSH1 0x24 SWAP1 REVERT JUMPDEST SWAP2 SWAP1 DUP3 ADD DUP1 SWAP3 GT PUSH2 0x16A4 JUMPI JUMP JUMPDEST PUSH4 0x4E487B71 PUSH1 0xE0 SHL PUSH1 0x0 MSTORE PUSH1 0x11 PUSH1 0x4 MSTORE PUSH1 0x24 PUSH1 0x0 REVERT JUMPDEST SWAP2 SWAP1 DUP3 PUSH1 0x40 SWAP2 SUB SLT PUSH2 0x1275 JUMPI PUSH1 0x20 DUP3 MLOAD SWAP3 ADD MLOAD SWAP1 JUMP JUMPDEST SWAP2 SWAP1 SWAP2 PUSH1 0x60 PUSH1 0x80 DUP3 ADD SWAP4 DUP1 MLOAD DUP4 MSTORE PUSH1 0x1 DUP1 PUSH1 0xA0 SHL SUB PUSH1 0x20 DUP3 ADD MLOAD AND PUSH1 0x20 DUP5 ADD MSTORE DUP2 PUSH1 0x1 PUSH1 0x1 PUSH1 0x80 SHL SUB SWAP2 DUP3 PUSH1 0x40 DUP3 ADD MLOAD AND PUSH1 0x40 DUP7 ADD MSTORE ADD MLOAD AND SWAP2 ADD MSTORE JUMP JUMPDEST MLOAD SWAP1 PUSH1 0x1 PUSH1 0x1 PUSH1 0xA0 SHL SUB DUP3 AND DUP3 SUB PUSH2 0x1275 JUMPI JUMP JUMPDEST MLOAD SWAP1 DUP2 PUSH1 0x2 SIGNEXTEND DUP3 SUB PUSH2 0x1275 JUMPI JUMP JUMPDEST MLOAD SWAP1 PUSH1 0x1 PUSH1 0x1 PUSH1 0x80 SHL SUB DUP3 AND DUP3 SUB PUSH2 0x1275 JUMPI JUMP JUMPDEST SWAP2 SWAP1 DUP3 PUSH2 0x180 SWAP2 SUB SLT PUSH2 0x1275 JUMPI DUP2 MLOAD PUSH12 0xFFFFFFFFFFFFFFFFFFFFFFFF DUP2 AND DUP2 SUB PUSH2 0x1275 JUMPI SWAP2 PUSH2 0x1775 PUSH1 0x20 DUP3 ADD PUSH2 0x170E JUMP JUMPDEST SWAP2 PUSH2 0x1782 PUSH1 0x40 DUP4 ADD PUSH2 0x170E JUMP JUMPDEST SWAP2 PUSH2 0x178F PUSH1 0x60 DUP3 ADD PUSH2 0x170E JUMP JUMPDEST SWAP2 PUSH1 0x80 DUP3 ADD MLOAD PUSH3 0xFFFFFF DUP2 AND DUP2 SUB PUSH2 0x1275 JUMPI SWAP2 PUSH2 0x17AE PUSH1 0xA0 DUP3 ADD PUSH2 0x1722 JUMP JUMPDEST SWAP2 PUSH2 0x17BB PUSH1 0xC0 DUP4 ADD PUSH2 0x1722 JUMP JUMPDEST SWAP2 PUSH2 0x17C8 PUSH1 0xE0 DUP3 ADD PUSH2 0x1730 JUMP JUMPDEST SWAP2 PUSH2 0x100 DUP3 ADD MLOAD SWAP2 PUSH2 0x120 DUP2 ADD MLOAD SWAP2 PUSH2 0x12E3 PUSH2 0x160 PUSH2 0x17EA PUSH2 0x140 DUP6 ADD PUSH2 0x1730 JUMP JUMPDEST SWAP4 ADD PUSH2 0x1730 JUMP JUMPDEST SWAP1 DUP2 PUSH1 0x20 SWAP2 SUB SLT PUSH2 0x1275 JUMPI MLOAD DUP1 ISZERO ISZERO DUP2 SUB PUSH2 0x1275 JUMPI SWAP1 JUMP JUMPDEST SWAP2 SWAP1 DUP3 SUB SWAP2 DUP3 GT PUSH2 0x16A4 JUMPI JUMP INVALID LOG2 PUSH5 0x6970667358 0x22 SLT KECCAK256 0xAA ISZERO 0xCA STOP 0xAF SWAP16 0xC3 PUSH0 0x2B 0xAF 0x26 CALLDATACOPY 0xA9 SAR 0x24 SWAP1 0xCB SDIV PUSH7 0x71FD3B211099E7 PUSH20 0x483CBF487064736F6C6343000814003341105F73 EXTCODECOPY SWAP3 0xE7 BALANCE PUSH8 0x3DB8D7877F039F0C 0xCE EXTCODESIZE 0xC6 NUMBER PUSH14 0x38E5C37BCE47F2A4B149BB7B4A45 0x4D 0xC3 0x49 CODECOPY 0x23 BASEFEE 0x2F SMOD DUP3 0x23 0x29 0xED NOT 0xE8 0x24 0x4E SELFDESTRUCT PC 0x2C 0xC2 DIV 0xF8 SSTORE 0x4C CALLDATASIZE KECCAK256 0xC3 REVERT SHL PUSH9 0x47DC741A1B0CD08D27 DUP9 GASLIMIT 0xF9 0xD8 NOT 0xD8 PUSH28 0x734759AFB55FE2DE5CB82A9AE6728D1108E10BCB7C27DDDFC02ED9D6 SWAP4 LOG0 PUSH21 0x39D026CF4EA4240B40F7D581AC802000000000000 "},"methodIdentifiers":{"DEV_FEE()":"436a88c1","FEE_DENOMINATOR()":"d73792a9","HOLDER_FEE()":"f963812d","OWNER_FEE()":"5dab0fe3","allowance(address,address)":"dd62ed3e","approve(address,uint256)":"095ea7b3","balanceOf(address)":"70a08231","claimRewards()":"372500ab","claimedRewards(address)":"bd834345","decimals()":"313ce567","devAddress()":"3ad10ef6","distributeLPFees()":"5f96684b","getSocialProfile()":"93427cd5","holders(uint256)":"2a11ced0","isHolder(address)":"d4d7b19a","name()":"06fdde03","owner()":"8da5cb5b","positionManager()":"791b98bc","positionTokenId()":"ceefe5d1","removeLiquidity()":"67b9a286","renounceOwnership()":"715018a6","setPositionTokenId(uint256)":"f71b6681","socialProfile()":"a8fb7d40","symbol()":"95d89b41","totalHolderToken0Rewards()":"4cecfbe6","totalHolderToken1Rewards()":"1adb84fd","totalSupply()":"18160ddd","transfer(address,uint256)":"a9059cbb","transferFrom(address,address,uint256)":"23b872dd","transferOwnership(address)":"f2fde38b"}}}}}