{"contracts/TokenizedProfileLauncher.sol":{"TokenizedProfileLauncher":{"abi":[{"inputs":[{"internalType":"address","name":"taxCollector_","type":"address"},{"internalType":"address","name":"weth_","type":"address"},{"internalType":"address","name":"locker_","type":"address"},{"internalType":"address","name":"uniswapV3Factory_","type":"address"},{"internalType":"address","name":"positionManager_","type":"address"},{"internalType":"address","name":"swapRouter_","type":"address"}],"stateMutability":"nonpayable","type":"constructor"},{"inputs":[{"internalType":"address","name":"owner","type":"address"}],"name":"OwnableInvalidOwner","type":"error"},{"inputs":[{"internalType":"address","name":"account","type":"address"}],"name":"OwnableUnauthorizedAccount","type":"error"},{"anonymous":false,"inputs":[{"indexed":false,"internalType":"string","name":"name","type":"string"},{"indexed":false,"internalType":"address","name":"addr","type":"address"}],"name":"DebugAddress","type":"event"},{"anonymous":false,"inputs":[{"indexed":false,"internalType":"string","name":"name","type":"string"},{"indexed":false,"internalType":"int256","name":"value","type":"int256"}],"name":"DebugIntValues","type":"event"},{"anonymous":false,"inputs":[{"indexed":false,"internalType":"string","name":"step","type":"string"}],"name":"DebugStep","type":"event"},{"anonymous":false,"inputs":[{"indexed":false,"internalType":"string","name":"name","type":"string"},{"indexed":false,"internalType":"uint256","name":"value","type":"uint256"}],"name":"DebugValues","type":"event"},{"anonymous":false,"inputs":[{"indexed":true,"internalType":"address","name":"previousOwner","type":"address"},{"indexed":true,"internalType":"address","name":"newOwner","type":"address"}],"name":"OwnershipTransferred","type":"event"},{"anonymous":false,"inputs":[{"indexed":false,"internalType":"address","name":"tokenAddress","type":"address"},{"indexed":false,"internalType":"uint256","name":"lpNftId","type":"uint256"},{"indexed":false,"internalType":"address","name":"deployer","type":"address"},{"indexed":false,"internalType":"string","name":"name","type":"string"},{"indexed":false,"internalType":"string","name":"symbol","type":"string"},{"indexed":false,"internalType":"uint256","name":"supply","type":"uint256"},{"indexed":false,"internalType":"address","name":"recipient","type":"address"},{"indexed":false,"internalType":"uint256","name":"recipientAmount","type":"uint256"}],"name":"TokenCreated","type":"event"},{"inputs":[],"name":"defaultLockingPeriod","outputs":[{"internalType":"uint64","name":"","type":"uint64"}],"stateMutability":"view","type":"function"},{"inputs":[{"internalType":"string","name":"_name","type":"string"},{"internalType":"string","name":"_symbol","type":"string"},{"internalType":"uint256","name":"_supply","type":"uint256"},{"internalType":"int24","name":"_initialTick","type":"int24"},{"internalType":"uint24","name":"_fee","type":"uint24"},{"internalType":"bytes32","name":"_salt","type":"bytes32"},{"internalType":"address","name":"_deployer","type":"address"},{"internalType":"address","name":"_recipient","type":"address"},{"internalType":"uint256","name":"_recipientAmount","type":"uint256"}],"name":"deployToken","outputs":[{"internalType":"address","name":"tokenAddress","type":"address"},{"internalType":"uint256","name":"tokenId","type":"uint256"}],"stateMutability":"payable","type":"function"},{"inputs":[{"internalType":"address","name":"deployer","type":"address"},{"internalType":"string","name":"name","type":"string"},{"internalType":"string","name":"symbol","type":"string"},{"internalType":"uint256","name":"supply","type":"uint256"}],"name":"generateSalt","outputs":[{"internalType":"bytes32","name":"salt","type":"bytes32"},{"internalType":"address","name":"token","type":"address"}],"stateMutability":"view","type":"function"},{"inputs":[{"internalType":"address","name":"token","type":"address"},{"internalType":"uint24","name":"_fee","type":"uint24"}],"name":"initialSwapTokens","outputs":[],"stateMutability":"payable","type":"function"},{"inputs":[],"name":"liquidityLocker","outputs":[{"internalType":"contract IMultiPositionLiquidityLocker","name":"","type":"address"}],"stateMutability":"view","type":"function"},{"inputs":[],"name":"lpFeesCut","outputs":[{"internalType":"uint16","name":"","type":"uint16"}],"stateMutability":"view","type":"function"},{"inputs":[],"name":"owner","outputs":[{"internalType":"address","name":"","type":"address"}],"stateMutability":"view","type":"function"},{"inputs":[],"name":"positionManager","outputs":[{"internalType":"contract INonfungiblePositionManager","name":"","type":"address"}],"stateMutability":"view","type":"function"},{"inputs":[{"internalType":"address","name":"deployer","type":"address"},{"internalType":"string","name":"name","type":"string"},{"internalType":"string","name":"symbol","type":"string"},{"internalType":"uint256","name":"supply","type":"uint256"},{"internalType":"bytes32","name":"salt","type":"bytes32"}],"name":"predictTokenAddress","outputs":[{"internalType":"address","name":"","type":"address"}],"stateMutability":"view","type":"function"},{"inputs":[],"name":"protocolCut","outputs":[{"internalType":"uint8","name":"","type":"uint8"}],"stateMutability":"view","type":"function"},{"inputs":[],"name":"renounceOwnership","outputs":[],"stateMutability":"nonpayable","type":"function"},{"inputs":[],"name":"swapRouter","outputs":[{"internalType":"address","name":"","type":"address"}],"stateMutability":"view","type":"function"},{"inputs":[],"name":"taxCollector","outputs":[{"internalType":"address","name":"","type":"address"}],"stateMutability":"view","type":"function"},{"inputs":[{"internalType":"address","name":"newOwner","type":"address"}],"name":"transferOwnership","outputs":[],"stateMutability":"nonpayable","type":"function"},{"inputs":[],"name":"uniswapV3Factory","outputs":[{"internalType":"contract IUniswapV3Factory","name":"","type":"address"}],"stateMutability":"view","type":"function"},{"inputs":[{"internalType":"address","name":"newLocker","type":"address"}],"name":"updateLiquidityLocker","outputs":[],"stateMutability":"nonpayable","type":"function"},{"inputs":[],"name":"weth","outputs":[{"internalType":"address","name":"","type":"address"}],"stateMutability":"view","type":"function"}],"evm":{"bytecode":{"linkReferences":{},"object":"6080346200016757601f6200383a38819003918201601f19168301916001600160401b038311848410176200016c5780849260c09460405283398101031262000167576200004d8162000182565b906200005c6020820162000182565b906200006b6040820162000182565b906200007a6060820162000182565b926200009760a06200008f6080850162000182565b930162000182565b9133156200014e576000549560018060a01b03199533878916176000556040519760018060a01b039687809681958294833391167f8be0079c531659141344cd1fd0a4f28419497f9722a3daafe3b4186f6b6457e0600080a360015483683e80000000003c30ab60a31b92169060ff60f81b16171760015516896003541617600355168760025416176002551685600454161760045516836005541617600555169060065416176006556136a29081620001988239f35b604051631e4fbdf760e01b815260006004820152602490fd5b600080fd5b634e487b7160e01b600052604160045260246000fd5b51906001600160a01b0382168203620001675756fe608060405260043610156200001357600080fd5b60003560e01c806310f3577e14620001495780633f4cc4ea14620001435780633fc8cef3146200013d57806357aa020114620001375780635b5491821462000131578063680c6354146200012b578063715018a61462000125578063791b98bc146200011f5780638da5cb5b14620001195780639759164a14620001135780639dbb8c9f146200010d578063aaf298501462000107578063bea1dcf81462000101578063c31c9c0714620000fb578063d406d75114620000f5578063de04f42e14620000ef5763f2fde38b14620000e957600080fd5b62000787565b62000761565b62000735565b6200070a565b620006df565b62000626565b620005cd565b620005a2565b62000577565b6200054c565b620004ea565b6200045f565b62000434565b6200040d565b620003e2565b6200034e565b62000199565b6001600160a01b038116036200016157565b600080fd5b60c4359062000175826200014f565b565b60e4359062000175826200014f565b6024359062ffffff821682036200016157565b60403660031901126200016157620002d56020600435620001ba816200014f565b62000220620001c862000186565b620001d5341515620022c0565b60035462000214906001600160a01b03165b9362000205620001f6620009ad565b6001600160a01b039096168652565b6001600160a01b031684860152565b62ffffff166040830152565b336060820152346080820152600060a0820181905260c08201526006546200025f9062000253906001600160a01b031681565b6001600160a01b031690565b604080516304e45aaf60e01b815283516001600160a01b0390811660048301526020850151811660248301529184015162ffffff1660448201526060840151821660648201526080840151608482015260a084015160a482015260c0909301511660c483015290928391908290819060e4820190565b039134905af180156200031857620002e957005b6200030e9060203d811162000310575b62000305818362000871565b81019062000df2565b005b503d620002f9565b620008ae565b9181601f8401121562000161578235916001600160401b0383116200016157602083818601950101116200016157565b34620001615760a036600319011262000161576004356200036f816200014f565b6001600160401b036024358181116200016157620003929036906004016200031e565b926044359283116200016157602093620003b5620003c49436906004016200031e565b9160843594606435946200230f565b6040516001600160a01b039091168152f35b60009103126200016157565b346200016157600036600319011262000161576003546040516001600160a01b039091168152602090f35b34620001615760003660031901126200016157602061ffff60015460e01c16604051908152f35b346200016157600036600319011262000161576004546040516001600160a01b039091168152602090f35b3462000161576080366003190112620001615760043562000480816200014f565b6001600160401b036024358181116200016157620004a39036906004016200031e565b6044939193359283116200016157604093620004c8620004d59436906004016200031e565b9290916064359462002432565b82519182526001600160a01b03166020820152f35b3462000161576000806003193601126200054957620005086200081a565b80546001600160a01b03198116825581906001600160a01b03167f8be0079c531659141344cd1fd0a4f28419497f9722a3daafe3b4186f6b6457e08280a380f35b80fd5b346200016157600036600319011262000161576005546040516001600160a01b039091168152602090f35b346200016157600036600319011262000161576000546040516001600160a01b039091168152602090f35b346200016157600036600319011262000161576002546040516001600160a01b039091168152602090f35b34620001615760203660031901126200016157600435620005ee816200014f565b620005f86200081a565b600280546001600160a01b0319166001600160a01b0392909216919091179055005b8060020b036200016157565b61012036600319011262000161576001600160401b036004358181116200016157620006579036906004016200031e565b916024359081116200016157620006739036906004016200031e565b90916064359362000684856200061a565b60843562ffffff811681036200016157620006c295620006a362000166565b93620006ae62000177565b95610104359760a435956044359362000e62565b604080516001600160a01b03939093168352602083019190915290f35b346200016157600036600319011262000161576001546040516001600160a01b039091168152602090f35b346200016157600036600319011262000161576006546040516001600160a01b039091168152602090f35b3462000161576000366003190112620001615760206001600160401b0360015460a01c16604051908152f35b34620001615760003660031901126200016157602060ff60015460f01c16604051908152f35b34620001615760203660031901126200016157600435620007a8816200014f565b620007b26200081a565b6001600160a01b0390811680156200080157600080546001600160a01b03198116831782559092167f8be0079c531659141344cd1fd0a4f28419497f9722a3daafe3b4186f6b6457e08380a380f35b604051631e4fbdf760e01b815260006004820152602490fd5b6000546001600160a01b031633036200082f57565b60405163118cdaa760e01b8152336004820152602490fd5b6001600160401b0381116200085b57604052565b634e487b7160e01b600052604160045260246000fd5b90601f801991011681019081106001600160401b038211176200085b57604052565b90816020910312620001615751620008ab816200061a565b90565b6040513d6000823e3d90fd5b634e487b7160e01b600052601260045260246000fd5b9060020b908115620008e35760020b0790565b620008ba565b15620008f157565b60405162461bcd60e51b815260206004820152601c60248201527f496e76616c6964207469636b206f72207469636b2073706163696e67000000006044820152606490fd5b156200093e57565b60405162461bcd60e51b815260206004820152601f60248201527f526563697069656e7420616d6f756e74206578636565647320737570706c79006044820152606490fd5b634e487b7160e01b600052601160045260246000fd5b91908203918211620009a757565b62000983565b6040519060e082018281106001600160401b038211176200085b57604052565b6040519061016082018281106001600160401b038211176200085b57604052565b9062000175604051928362000871565b908060209392818452848401376000828201840152601f01601f1916010190565b94969592909362000a4060609562000a4f94608089526080890191620009fe565b918683036020880152620009fe565b60408401959095526001600160a01b0316910152565b60005b83811062000a795750506000910152565b818101518382015260200162000a68565b9062000a9f6020928281519485920162000a65565b0190565b1562000aab57565b60405162461bcd60e51b815260206004820152602c60248201527f546f6b656e2061646472657373206d757374206265206c657373207468616e2060448201526b57455448206164647265737360a01b6064820152608490fd5b1562000b0d57565b60405162461bcd60e51b815260206004820152601760248201527f546f6b656e206465706c6f796d656e74206661696c65640000000000000000006044820152606490fd5b908160209103126200016157518015158103620001615790565b1562000b7457565b60405162461bcd60e51b8152602060048201526015602482015274151bdad95b881d1c985b9cd9995c8819985a5b1959605a1b6044820152606490fd5b90816020910312620001615751620008ab816200014f565b60009060033d1162000bd757565b905060046000803e60005160e01c90565b600060443d10620008ab57604051600319913d83016004833e81516001600160401b03918282113d60248401111762000c4b5781840194855193841162000c53573d8501016020848701011162000c4b5750620008ab9291016020019062000871565b949350505050565b50949350505050565b6040916020825262000c7e815180928160208601526020868601910162000a65565b601f01601f1916010190565b60809060208152602760208201527f506f6f6c206372656174696f6e206661696c6564207769746820756e6b6e6f77604082015266371032b93937b960c91b60608201520190565b60809060208152602d60208201527f506f6f6c20696e697469616c697a6174696f6e206661696c656420776974682060408201526c3ab735b737bbb71032b93937b960991b60608201520190565b1562000d2857565b60405162461bcd60e51b8152602060048201526015602482015274151bdad95b88185c1c1c9bdd985b0819985a5b1959605a1b6044820152606490fd5b9190826080910312620001615781519160208101516001600160801b03811681036200016157916060604083015192015190565b60809060208152602a60208201527f506f736974696f6e206d696e74696e67206661696c6564207769746820756e6b6040820152693737bbb71032b93937b960b11b60608201520190565b91908201809211620009a757565b9081602091031262000161575190565b969195929360e0989b9a999562000e439262000e529660018060a01b03998a8093168c5260208c01521660408a01526101008060608b0152890191620009fe565b918683036080880152620009fe565b9660a08401521660c08201520152565b959993918a98959b999391976000805160206200364d8339815191526040518062000eb68160609060208152601460208201527329ba30b93a34b733903232b83637bcaa37b5b2b760611b60408201520190565b0390a160045460209062000f009062000ed8906001600160a01b031662000253565b6040519e8f809381926322afcccb60e01b83526004830191909162ffffff6020820193169052565b03915afa801562000318578d9c6000916200228a575b5062000fcb8d828060020b6040517f0f5d2cd60f752ff8ca00b1fc30ea4d78c233eca72c1ed58d0d62424e09f0951e818062000f7a858495919060408352600b60408401526a7469636b53706163696e6760a81b6060840152602060808401930152565b0390a16040518062000fb68660020b82919060408352600b60408401526a696e697469616c5469636b60a81b6060840152602060808401930152565b0390a11515918262002269575b5050620008e9565b604051806200100581606090602081526016602082015275151a58dac81d985b1a59185d1a5bdb881c185cdcd95960521b60408201520190565b036000805160206200364d83398151915291a1620010268588111562000936565b8a62001033888762000999565b92604051806200106f8b82919060408352601060408401526f149958da5c1a595b9d08185b5bdd5b9d60821b6060840152602060808401930152565b036000805160206200362d83398151915291a160405180620010b686829190604083526009604084015268131408185b5bdd5b9d60ba1b6060840152602060808401930152565b036000805160206200362d83398151915291a160408051336020820152808201929092528152620010e960608262000871565b80519060200120610af2602081016200110290620009ee565b9080825262002b3b60208301398b8d6040519182918b8b8b309360208701956200112c9662000a1f565b03601f198101825262001140908262000871565b6040518091602082019384620011569162000a8a565b620011619162000a8a565b03601f198101825262001175908262000871565b805182206040516001600160f81b0319602082019081526bffffffffffffffffffffffff193060601b16602183015260358201869052605580830193909352918152620011c460758262000871565b519020600354620011e3916001600160a01b0391821691161062000aa3565b51906000f59e8f90620012016001600160a01b038316151562000b05565b6040805181815260119181019190915270151bdad95b8819195c1b1bde595908185d607a1b60608201526001600160a01b03831660208201527fb3f7d6c63a62ab0e6ae5263ef1deb9c5a64f4689288c380db949c116314a554090608090a1898015158062002256575b62002096575b5090602062001284620013749362002802565b60408051818152600c918101919091526b39b8b93a283934b1b2ac1c9b60a11b60608201526001600160a01b03821660208201529094906000805160206200362d83398151915290608090a16000805160206200364d83398151915260405180620013118160609060208152600d60208201526c10dc99585d1a5b99c81c1bdbdb609a1b60408201520190565b0390a1600454600093906200132f906001600160a01b031662000253565b60035460405163a167129560e01b81526001600160a01b0393841660048201529216602483015262ffffff929092166044820152938491908290859082906064820190565b03925af19091816200205e575b50620014bd576200139162000bc9565b6308c379a014620013de575b6000805160206200364d83398151915260405180620013bc8162000c8a565b0390a160405162461bcd60e51b815280620013da6004820162000c8a565b0390fd5b620013e862000be8565b80620013f557506200139d565b62001454620014a4620013da926000805160206200364d833981519152620014706040516200146381620014546200144d602083016016907502837b7b61031b932b0ba34b7b7103330b4b632b21d160551b81520190565b8762000a8a565b03601f19810183528262000871565b6040519182918262000c5c565b0390a16040517502837b7b61031b932b0ba34b7b7103330b4b632b21d160551b6020820152928391603683015b9062000a8a565b60405162461bcd60e51b81529182916004830162000c5c565b60408051818152600f918101919091526e141bdbdb0818dc99585d195908185d608a1b60608201526001600160a01b03821660208201527fb3f7d6c63a62ab0e6ae5263ef1deb9c5a64f4689288c380db949c116314a554090608090a16000805160206200364d833981519152604051806200155f81606090602081526011602082015270125b9a5d1a585b1a5e9a5b99c81c1bdbdb607a1b60408201520190565b0390a16001600160a01b0316803b15620001615760405163f637731d60e01b81526001600160a01b039290921660048301526000908290602490829084905af1908162002047575b50620016af57620015b762000bc9565b6308c379a01462001600575b6000805160206200364d83398151915260405180620015e28162000cd2565b0390a160405162461bcd60e51b815280620013da6004820162000cd2565b6200160a62000be8565b80620016175750620015c3565b62001454620014a4620013da926000805160206200364d833981519152620016766040516200146381620014546200144d60208301601c907f506f6f6c20696e697469616c697a6174696f6e206661696c65643a200000000081520190565b0390a16040517f506f6f6c20696e697469616c697a6174696f6e206661696c65643a20000000006020820152928391603c83016200149d565b8d9c6000805160206200364d83398151915260405180620016f58160609060208152601060208201526f141bdbdb081a5b9a5d1a585b1a5e995960821b60408201520190565b0390a16003546001600160a01b0316916200171081620022fd565b0260020b916200171f620009cd565b6001600160a01b03909f168f528e6001600160a01b039091166020919091015262ffffff8c1660408f01528d606001906200175c919060020b9052565b60020b60808d015260a08c01819052600060c08d0181905260e08d018190526101008d0152306101208d0152426101408d015260055460405163095ea7b360e01b81526001600160a01b03918216600482015260248101929092528d16816044815a602094600091f18015620003185760009c620017eb6200190e928f946080959162002011575b5062000d20565b6000805160206200364d83398151915260405180620018488160809060208152602360208201527f546f6b656e20617070726f76656420666f7220706f736974696f6e206d616e6160408201526233b2b960e91b60608201520190565b0390a160055462001862906001600160a01b031662000253565b60408051634418b22b60e11b815283516001600160a01b0390811660048301526020850151811660248301529184015162ffffff1660448201526060840151600290810b60648301526080850151900b608482015260a084015160a482015260c084015160c482015260e084015160e482015261010084015161010482015261012084015190911661012482015261014090920151610144830152909d8e928391908290610164820190565b03925af160009b8c828192829462001fd1575b5062001a21576200193162000bc9565b6308c379a0146200197a575b6000805160206200364d833981519152604051806200195c8162000d99565b0390a160405162461bcd60e51b815280620013da6004820162000d99565b6200198462000be8565b806200199157506200193d565b62001454620014a4620013da926000805160206200364d833981519152620019ec6040516200146381620014546200144d602083016019907802837b9b4ba34b7b71036b4b73a34b733903330b4b632b21d1603d1b81520190565b0390a16040517802837b9b4ba34b7b71036b4b73a34b733903330b4b632b21d1603d1b6020820152928391603983016200149d565b9c6040518062001a558160609060208152600f60208201526e141bdcda5d1a5bdb881b5a5b9d1959608a1b60408201520190565b036000805160206200364d83398151915291a16040516001600160801b0381921662001aa6908291906040835260096040840152684c697175696469747960b81b6060840152602060808401930152565b036000805160206200362d83398151915291a160405162001aeb81928291906040835260076040840152660416d6f756e74360cc1b6060840152602060808401930152565b036000805160206200362d83398151915291a160405162001b308192829190604083526007604084015266416d6f756e743160c81b6060840152602060808401930152565b036000805160206200362d83398151915291a16000805160206200364d8339815191526040518062001b948160609060208152601a60208201527f5472616e7366657272696e67204e465420746f206c6f636b657200000000000060408201520190565b0390a160055462001bae906001600160a01b031662000253565b60025462001bc5906001600160a01b031662000253565b90803b156200016157604051632142170760e11b81523060048201526001600160a01b03929092166024830152604482018d90526000908290606490829084905af18015620003185762001fba575b506000805160206200364d8339815191526040518062001c668160609060208152601f60208201527f496e697469616c697a696e6720706f736974696f6e20696e206c6f636b65720060408201520190565b0390a160025462001c80906001600160a01b031662000253565b956001549062001cad62001ca16001600160401b038460a01c164262000de4565b6001600160401b031690565b97803b1562000161576040516322614fd560e21b8152600481018f90526001600160a01b0390921660248301526001600160401b03909816604482015260e09190911c61ffff1660648201529560009087908183816084810103925af1801562000318577fdae899a394233ea0635e48cfc12126491c770b57e2ea82e0aaf258e023584dee9962001db5978e9262001f9c575b506000805160206200362d8339815191526040518062001d993482919060408352601a60408401527f52656d61696e696e672066756e647320666f7220746f6b656e730000000000006060840152602060808401930152565b0390a13462001dba575b5050604051978897338d8f8b62000e02565b0390a1565b62001e2891620002206020926000805160206200364d8339815191526040518062001e0e816060906020815260146020820152730457865637574696e6720746f6b656e20737761760641b60408201520190565b0390a160035462000214906001600160a01b0316620001e7565b039134905af16000918162001f76575b5062001f2a5750600162001e4b62000bc9565b6308c379a01462001ebf575b62001e65575b8b3862001da3565b6000805160206200364d8339815191526040518062001eb68160609060208152601e60208201527f53776170206661696c6564207769746820756e6b6e6f776e206572726f72000060408201520190565b0390a162001e5d565b62001ec962000be8565b8062001ed7575b5062001e57565b90506000805160206200364d83398151915262001f2062001454620014636000946040519283916200149d60208401600d906c029bbb0b8103330b4b632b21d1609d1b81520190565b0390a13862001ed0565b62001eb66000805160206200362d8339815191529160405191829182919060408352600f60408401526e14ddd85c08185b5bdd5b9d081bdd5d608a1b6060840152602060808401930152565b62001f9491925060203d602011620003105762000305818362000871565b903862001e38565b8062001fac62001fb39262000847565b80620003d6565b3862001d40565b8062001fac62001fca9262000847565b3862001c14565b92509d505062001ffc915060803d811162002009575b62001ff3818362000871565b81019062000d65565b919d919290913862001921565b503d62001fe7565b62002038915060203d6020116200203f575b6200202f818362000871565b81019062000b52565b38620017e4565b503d62002023565b8062001fac620020579262000847565b38620015a7565b6200208691925060203d6020116200208e575b6200207d818362000871565b81019062000bb1565b903862001381565b503d62002071565b90506200213692506020916000805160206200364d83398151915260405180620020fc8160809060208152602160208201527f5472616e7366657272696e6720726563697069656e7420616c6c6f636174696f6040820152603760f91b60608201520190565b0390a160405163a9059cbb60e01b81526001600160a01b038b16600482015260248101929092529092839190829060009082906044820190565b03926001600160a01b03165af190811562000318578f8f620012848f94916000805160206200362d833981519152620022258e7fb3f7d6c63a62ab0e6ae5263ef1deb9c5a64f4689288c380db949c116314a55408f620021e890620021ac602099620013749c60009162002234575b5062000b6c565b6040805181815260099181019190915268149958da5c1a595b9d60ba1b60608201526001600160a01b0390911660208201529081906080820190565b0390a1604051918291829190604083526012604084015271105b5bdd5b9d081d1c985b9cd9995c9c995960721b6060840152602060808401930152565b0390a192935050508962001271565b6200224f91508b3d8d116200203f576200202f818362000871565b38620021a5565b506001600160a01b038a1615156200126b565b620022819250906200227b91620008d0565b60020b90565b15828f62000fc3565b620022b1915060203d602011620022b8575b620022a8818362000871565b81019062000893565b3862000f16565b503d6200229c565b15620022c857565b60405162461bcd60e51b815260206004820152600d60248201526c09aeae6e840e6cadcc8408aa89609b1b6044820152606490fd5b60020b8015620008e357620d89e80590565b9092620023c7620023d46200242394620023b26200235e97620023a5620008ab9c620002539c604051998a60209d8e94858301938460209093929193604081019460018060a01b031681520152565b039a62002374601f199c8d810183528262000871565b5190209c610af29962002389848c01620009ee565b9a808c5262002b3b858d01396040519788963095880162000a1f565b0386810183528262000871565b6040519283916200149d898401809762000a8a565b0384810183528262000871565b5190206040516001600160f81b03199481019485523060601b6bffffffffffffffffffffffff191660018601526015850195909552603584015291929182605585010390810183528262000871565b5190206001600160a01b031690565b90919593929460009360018060a01b03968760035416955b6103e88110620024995760405162461bcd60e51b815260206004820152601c60248201527f436f756c64206e6f742066696e64207375697461626c652073616c74000000006044820152606490fd5b620024aa818585858e8b8b6200230f565b878a82161080620024dc575b620024cf57506000198114620009a7576001016200244a565b9099509750505050505050565b50803b15620024b6565b600160ff1b8114620009a75760000390565b156200250057565b60405162461bcd60e51b81526020600482015260016024820152601560fa1b6044820152606490fd5b906ffff97272373d413259a46990580e213a91828102928184041490151715620009a757565b906ffff2e50f5f656932ef12357cf3c7fdcc91828102928184041490151715620009a757565b906fffe5caca7e10e4e61c3624eaa0941cd091828102928184041490151715620009a757565b906fffcb9843d60f6159c9db58835c92664491828102928184041490151715620009a757565b906fff973b41fa98c081472e6896dfb254c091828102928184041490151715620009a757565b906fff2ea16466c96a3843ec78b326b5286191828102928184041490151715620009a757565b906ffe5dee046a99a2a811c461f1969c305391828102928184041490151715620009a757565b906ffcbe86c7900a88aedcffc83b479aa3a491828102928184041490151715620009a757565b906ff987a7253ac413176f2b074cf7815e5491828102928184041490151715620009a757565b906ff3392b0822b70005940c7a398e4b70f391828102928184041490151715620009a757565b906fe7159475a2c29b7443b29c7fa6e889d991828102928184041490151715620009a757565b906fd097f3bdfd2022b8845ad8f792aa582591828102928184041490151715620009a757565b906fa9f746462d870fdf8a65dc1f90e061e591828102928184041490151715620009a757565b906f70d869a156d2a1b890bb3df62baf32f791828102928184041490151715620009a757565b906f31be135f97d08fd981231505542fcfa691828102928184041490151715620009a757565b906f09aa508b5b7a84e1c677de54f3e99bc991828102928184041490151715620009a757565b906e5d6af8dedb81196699c329225ee60491828102928184041490151715620009a757565b906d2216e584f5fa1ea926041bedfe9891828102928184041490151715620009a757565b906b048a170391f7dc42444e8fa291828102928184041490151715620009a757565b8015620008e3576000190490565b8060020b906000821260001462002b33576200281e82620024e6565b915b62002831620d89e8841115620024f8565b600183161562002b20576001600160881b036ffffcb933bd6fad37aa2d162d1a5940015b16926002811662002b09575b6004811662002af2575b6008811662002adb575b6010811662002ac4575b6020811662002aad575b6040811662002a96575b6080811662002a7f575b610100811662002a68575b610200811662002a51575b610400811662002a3a575b610800811662002a23575b611000811662002a0c575b6120008116620029f5575b6140008116620029de575b6180008116620029c7575b620100008116620029b0575b62020000811662002999575b6204000081166200297c575b62080000166200295b575b60001262002941575b63ffffffff90151560e01b910160201c1790565b906200295263ffffffff91620027f4565b9190506200292d565b91620029736200296d600092620027d2565b60801c90565b92905062002924565b92620029906200296d6208000092620027ae565b93905062002919565b926200296d620029a99162002789565b926200290d565b926200296d620029c09162002763565b9262002901565b926200296d620029d7916200273d565b92620028f5565b926200296d620029ee9162002717565b92620028ea565b926200296d62002a0591620026f1565b92620028df565b926200296d62002a1c91620026cb565b92620028d4565b926200296d62002a3391620026a5565b92620028c9565b926200296d62002a4a916200267f565b92620028be565b926200296d62002a619162002659565b92620028b3565b926200296d62002a789162002633565b92620028a8565b926200296d62002a8f916200260d565b926200289d565b926200296d62002aa691620025e7565b9262002893565b926200296d62002abd91620025c1565b9262002889565b926200296d62002ad4916200259b565b926200287f565b926200296d62002aeb9162002575565b9262002875565b926200296d62002b02916200254f565b926200286b565b926200296d62002b199162002529565b9262002861565b6001600160881b03600160801b62002855565b816200282056fe60406080815234620003b55762000af2803803806200001e81620003ba565b9283398101608082820312620003b55781516001600160401b039290838111620003b5578262000050918301620003e0565b6020928383015190858211620003b5576200006d918401620003e0565b906060868401519301519460018060a01b038616809603620003b5578151818111620002b5576003908154906001948583811c93168015620003aa575b8984101462000394578190601f938481116200033e575b508990848311600114620002d757600092620002cb575b505060001982851b1c191690851b1782555b8451928311620002b55760049485548581811c91168015620002aa575b8982101462000295578281116200024a575b5087918411600114620001df57938394918492600095620001d3575b50501b92600019911b1c19161781555b8315620001bc5760025490828201809211620001a7575060025560008381528083528481208054830190558451918252917fddf252ad1be2c89b69c2b068fc378daa952ba7f163c4a11628f55a4df523b3ef91a35161069f9081620004538239f35b601190634e487b7160e01b6000525260246000fd5b602490600086519163ec442f0560e01b8352820152fd5b01519350388062000135565b9190601f198416928660005284896000209460005b8b8983831062000232575050501062000217575b50505050811b01815562000145565b01519060f884600019921b161c191690553880808062000208565b868601518955909701969485019488935001620001f4565b86600052886000208380870160051c8201928b88106200028b575b0160051c019086905b8281106200027e57505062000119565b600081550186906200026e565b9250819262000265565b602287634e487b7160e01b6000525260246000fd5b90607f169062000107565b634e487b7160e01b600052604160045260246000fd5b015190503880620000d8565b90879350601f19831691866000528b6000209260005b8d8282106200032757505084116200030e575b505050811b018255620000ea565b015160001983871b60f8161c1916905538808062000300565b8385015186558b97909501949384019301620002ed565b90915084600052896000208480850160051c8201928c86106200038a575b918991869594930160051c01915b8281106200037a575050620000c1565b600081558594508991016200036a565b925081926200035c565b634e487b7160e01b600052602260045260246000fd5b92607f1692620000aa565b600080fd5b6040519190601f01601f191682016001600160401b03811183821017620002b557604052565b919080601f84011215620003b55782516001600160401b038111620002b55760209062000416601f8201601f19168301620003ba565b92818452828287010111620003b55760005b8181106200043e57508260009394955001015290565b85810183015184820184015282016200042856fe608060408181526004918236101561001657600080fd5b600092833560e01c91826306fdde031461043957508163095ea7b31461038b57816318160ddd1461036c57816323b872dd14610275578163313ce5671461025957816370a082311461022257816395d89b411461010357508063a9059cbb146100d35763dd62ed3e1461008857600080fd5b346100cf57806003193601126100cf57806020926100a461055a565b6100ac610575565b6001600160a01b0391821683526001865283832091168252845220549051908152f35b5080fd5b50346100cf57806003193601126100cf576020906100fc6100f261055a565b602435903361058b565b5160018152f35b8383346100cf57816003193601126100cf57805190828454600181811c90808316928315610218575b6020938484108114610205578388529081156101e95750600114610194575b505050829003601f01601f191682019267ffffffffffffffff841183851017610181575082918261017d925282610511565b0390f35b634e487b7160e01b815260418552602490fd5b8787529192508591837f8a35acfbc15ff81a39ae7d344fd709f28e8600b4aa8c65c6b64bfe7fe36bd19b5b8385106101d5575050505083010185808061014b565b8054888601830152930192849082016101bf565b60ff1916878501525050151560051b840101905085808061014b565b634e487b7160e01b895260228a52602489fd5b91607f169161012c565b5050346100cf5760203660031901126100cf5760209181906001600160a01b0361024a61055a565b16815280845220549051908152f35b5050346100cf57816003193601126100cf576020905160128152f35b905082346103695760603660031901126103695761029161055a565b610299610575565b916044359360018060a01b0383168083526001602052868320338452602052868320549160001983106102d5575b6020886100fc89898961058b565b86831061033d57811561032657331561030f575082526001602090815286832033845281529186902090859003905582906100fc876102c7565b8751634a1406b160e11b8152908101849052602490fd5b875163e602df0560e01b8152908101849052602490fd5b8751637dc7a0d960e11b8152339181019182526020820193909352604081018790528291506060010390fd5b80fd5b5050346100cf57816003193601126100cf576020906002549051908152f35b9050346104355781600319360112610435576103a561055a565b60243590331561041e576001600160a01b031691821561040757508083602095338152600187528181208582528752205582519081527f8c5be1e5ebec7d5bd14f71427d1e84f3dd0314c0f7b2291e5b200ac8c7c3b925843392a35160018152f35b8351634a1406b160e11b8152908101859052602490fd5b835163e602df0560e01b8152808401869052602490fd5b8280fd5b8490843461043557826003193601126104355782600354600181811c90808316928315610507575b6020938484108114610205578388529081156101e957506001146104b157505050829003601f01601f191682019267ffffffffffffffff841183851017610181575082918261017d925282610511565b600387529192508591837fc2575a0e9e593c00f959f8c92f12db2869c3395a3b0502d05e2516446f71f85b5b8385106104f3575050505083010185808061014b565b8054888601830152930192849082016104dd565b91607f1691610461565b6020808252825181830181905290939260005b82811061054657505060409293506000838284010152601f8019910116010190565b818101860151848201604001528501610524565b600435906001600160a01b038216820361057057565b600080fd5b602435906001600160a01b038216820361057057565b916001600160a01b0380841692831561065057169283156106375760009083825281602052604082205490838210610605575091604082827fddf252ad1be2c89b69c2b068fc378daa952ba7f163c4a11628f55a4df523b3ef958760209652828652038282205586815220818154019055604051908152a3565b60405163391434e360e21b81526001600160a01b03919091166004820152602481019190915260448101839052606490fd5b60405163ec442f0560e01b815260006004820152602490fd5b604051634b637e8f60e11b815260006004820152602490fdfea26469706673582212202f55eaaa7ace0f677bd7bd5045f642a82921f0495d621d344784c61cf7ffe7f664736f6c634300081400335ecf02a05152036a1cb2b9f0494c73ec92a03bf28073c76dcb8530efc7194c1594ebca8d29d278a0288a52a710c11e928307b6f2e15fbaf4508cc4ceb3d21f8ba2646970667358221220e6ce6cc83c450e3dffa0713371bd51991bd5c21fa7626a1265b6caaeba7b1da464736f6c63430008140033","opcodes":"PUSH1 0x80 CALLVALUE PUSH3 0x167 JUMPI PUSH1 0x1F PUSH3 0x383A CODESIZE DUP2 SWAP1 SUB SWAP2 DUP3 ADD PUSH1 0x1F NOT AND DUP4 ADD SWAP2 PUSH1 0x1 PUSH1 0x1 PUSH1 0x40 SHL SUB DUP4 GT DUP5 DUP5 LT OR PUSH3 0x16C JUMPI DUP1 DUP5 SWAP3 PUSH1 0xC0 SWAP5 PUSH1 0x40 MSTORE DUP4 CODECOPY DUP2 ADD SUB SLT PUSH3 0x167 JUMPI PUSH3 0x4D DUP2 PUSH3 0x182 JUMP JUMPDEST SWAP1 PUSH3 0x5C PUSH1 0x20 DUP3 ADD PUSH3 0x182 JUMP JUMPDEST SWAP1 PUSH3 0x6B PUSH1 0x40 DUP3 ADD PUSH3 0x182 JUMP JUMPDEST SWAP1 PUSH3 0x7A PUSH1 0x60 DUP3 ADD PUSH3 0x182 JUMP JUMPDEST SWAP3 PUSH3 0x97 PUSH1 0xA0 PUSH3 0x8F PUSH1 0x80 DUP6 ADD PUSH3 0x182 JUMP JUMPDEST SWAP4 ADD PUSH3 0x182 JUMP JUMPDEST SWAP2 CALLER ISZERO PUSH3 0x14E JUMPI PUSH1 0x0 SLOAD SWAP6 PUSH1 0x1 DUP1 PUSH1 0xA0 SHL SUB NOT SWAP6 CALLER DUP8 DUP10 AND OR PUSH1 0x0 SSTORE PUSH1 0x40 MLOAD SWAP8 PUSH1 0x1 DUP1 PUSH1 0xA0 SHL SUB SWAP7 DUP8 DUP1 SWAP7 DUP2 SWAP6 DUP3 SWAP5 DUP4 CALLER SWAP2 AND PUSH32 0x8BE0079C531659141344CD1FD0A4F28419497F9722A3DAAFE3B4186F6B6457E0 PUSH1 0x0 DUP1 LOG3 PUSH1 0x1 SLOAD DUP4 PUSH9 0x3E80000000003C30AB PUSH1 0xA3 SHL SWAP3 AND SWAP1 PUSH1 0xFF PUSH1 0xF8 SHL AND OR OR PUSH1 0x1 SSTORE AND DUP10 PUSH1 0x3 SLOAD AND OR PUSH1 0x3 SSTORE AND DUP8 PUSH1 0x2 SLOAD AND OR PUSH1 0x2 SSTORE AND DUP6 PUSH1 0x4 SLOAD AND OR PUSH1 0x4 SSTORE AND DUP4 PUSH1 0x5 SLOAD AND OR PUSH1 0x5 SSTORE AND SWAP1 PUSH1 0x6 SLOAD AND OR PUSH1 0x6 SSTORE PUSH2 0x36A2 SWAP1 DUP2 PUSH3 0x198 DUP3 CODECOPY RETURN JUMPDEST PUSH1 0x40 MLOAD PUSH4 0x1E4FBDF7 PUSH1 0xE0 SHL DUP2 MSTORE PUSH1 0x0 PUSH1 0x4 DUP3 ADD MSTORE PUSH1 0x24 SWAP1 REVERT JUMPDEST PUSH1 0x0 DUP1 REVERT JUMPDEST PUSH4 0x4E487B71 PUSH1 0xE0 SHL PUSH1 0x0 MSTORE PUSH1 0x41 PUSH1 0x4 MSTORE PUSH1 0x24 PUSH1 0x0 REVERT JUMPDEST MLOAD SWAP1 PUSH1 0x1 PUSH1 0x1 PUSH1 0xA0 SHL SUB DUP3 AND DUP3 SUB PUSH3 0x167 JUMPI JUMP INVALID PUSH1 0x80 PUSH1 0x40 MSTORE PUSH1 0x4 CALLDATASIZE LT ISZERO PUSH3 0x13 JUMPI PUSH1 0x0 DUP1 REVERT JUMPDEST PUSH1 0x0 CALLDATALOAD PUSH1 0xE0 SHR DUP1 PUSH4 0x10F3577E EQ PUSH3 0x149 JUMPI DUP1 PUSH4 0x3F4CC4EA EQ PUSH3 0x143 JUMPI DUP1 PUSH4 0x3FC8CEF3 EQ PUSH3 0x13D JUMPI DUP1 PUSH4 0x57AA0201 EQ PUSH3 0x137 JUMPI DUP1 PUSH4 0x5B549182 EQ PUSH3 0x131 JUMPI DUP1 PUSH4 0x680C6354 EQ PUSH3 0x12B JUMPI DUP1 PUSH4 0x715018A6 EQ PUSH3 0x125 JUMPI DUP1 PUSH4 0x791B98BC EQ PUSH3 0x11F JUMPI DUP1 PUSH4 0x8DA5CB5B EQ PUSH3 0x119 JUMPI DUP1 PUSH4 0x9759164A EQ PUSH3 0x113 JUMPI DUP1 PUSH4 0x9DBB8C9F EQ PUSH3 0x10D JUMPI DUP1 PUSH4 0xAAF29850 EQ PUSH3 0x107 JUMPI DUP1 PUSH4 0xBEA1DCF8 EQ PUSH3 0x101 JUMPI DUP1 PUSH4 0xC31C9C07 EQ PUSH3 0xFB JUMPI DUP1 PUSH4 0xD406D751 EQ PUSH3 0xF5 JUMPI DUP1 PUSH4 0xDE04F42E EQ PUSH3 0xEF JUMPI PUSH4 0xF2FDE38B EQ PUSH3 0xE9 JUMPI PUSH1 0x0 DUP1 REVERT JUMPDEST PUSH3 0x787 JUMP JUMPDEST PUSH3 0x761 JUMP JUMPDEST PUSH3 0x735 JUMP JUMPDEST PUSH3 0x70A JUMP JUMPDEST PUSH3 0x6DF JUMP JUMPDEST PUSH3 0x626 JUMP JUMPDEST PUSH3 0x5CD JUMP JUMPDEST PUSH3 0x5A2 JUMP JUMPDEST PUSH3 0x577 JUMP JUMPDEST PUSH3 0x54C JUMP JUMPDEST PUSH3 0x4EA JUMP JUMPDEST PUSH3 0x45F JUMP JUMPDEST PUSH3 0x434 JUMP JUMPDEST PUSH3 0x40D JUMP JUMPDEST PUSH3 0x3E2 JUMP JUMPDEST PUSH3 0x34E JUMP JUMPDEST PUSH3 0x199 JUMP JUMPDEST PUSH1 0x1 PUSH1 0x1 PUSH1 0xA0 SHL SUB DUP2 AND SUB PUSH3 0x161 JUMPI JUMP JUMPDEST PUSH1 0x0 DUP1 REVERT JUMPDEST PUSH1 0xC4 CALLDATALOAD SWAP1 PUSH3 0x175 DUP3 PUSH3 0x14F JUMP JUMPDEST JUMP JUMPDEST PUSH1 0xE4 CALLDATALOAD SWAP1 PUSH3 0x175 DUP3 PUSH3 0x14F JUMP JUMPDEST PUSH1 0x24 CALLDATALOAD SWAP1 PUSH3 0xFFFFFF DUP3 AND DUP3 SUB PUSH3 0x161 JUMPI JUMP JUMPDEST PUSH1 0x40 CALLDATASIZE PUSH1 0x3 NOT ADD SLT PUSH3 0x161 JUMPI PUSH3 0x2D5 PUSH1 0x20 PUSH1 0x4 CALLDATALOAD PUSH3 0x1BA DUP2 PUSH3 0x14F JUMP JUMPDEST PUSH3 0x220 PUSH3 0x1C8 PUSH3 0x186 JUMP JUMPDEST PUSH3 0x1D5 CALLVALUE ISZERO ISZERO PUSH3 0x22C0 JUMP JUMPDEST PUSH1 0x3 SLOAD PUSH3 0x214 SWAP1 PUSH1 0x1 PUSH1 0x1 PUSH1 0xA0 SHL SUB AND JUMPDEST SWAP4 PUSH3 0x205 PUSH3 0x1F6 PUSH3 0x9AD JUMP JUMPDEST PUSH1 0x1 PUSH1 0x1 PUSH1 0xA0 SHL SUB SWAP1 SWAP7 AND DUP7 MSTORE JUMP JUMPDEST PUSH1 0x1 PUSH1 0x1 PUSH1 0xA0 SHL SUB AND DUP5 DUP7 ADD MSTORE JUMP JUMPDEST PUSH3 0xFFFFFF AND PUSH1 0x40 DUP4 ADD MSTORE JUMP JUMPDEST CALLER PUSH1 0x60 DUP3 ADD MSTORE CALLVALUE PUSH1 0x80 DUP3 ADD MSTORE PUSH1 0x0 PUSH1 0xA0 DUP3 ADD DUP2 SWAP1 MSTORE PUSH1 0xC0 DUP3 ADD MSTORE PUSH1 0x6 SLOAD PUSH3 0x25F SWAP1 PUSH3 0x253 SWAP1 PUSH1 0x1 PUSH1 0x1 PUSH1 0xA0 SHL SUB AND DUP2 JUMP JUMPDEST PUSH1 0x1 PUSH1 0x1 PUSH1 0xA0 SHL SUB AND SWAP1 JUMP JUMPDEST PUSH1 0x40 DUP1 MLOAD PUSH4 0x4E45AAF PUSH1 0xE0 SHL DUP2 MSTORE DUP4 MLOAD PUSH1 0x1 PUSH1 0x1 PUSH1 0xA0 SHL SUB SWAP1 DUP2 AND PUSH1 0x4 DUP4 ADD MSTORE PUSH1 0x20 DUP6 ADD MLOAD DUP2 AND PUSH1 0x24 DUP4 ADD MSTORE SWAP2 DUP5 ADD MLOAD PUSH3 0xFFFFFF AND PUSH1 0x44 DUP3 ADD MSTORE PUSH1 0x60 DUP5 ADD MLOAD DUP3 AND PUSH1 0x64 DUP3 ADD MSTORE PUSH1 0x80 DUP5 ADD MLOAD PUSH1 0x84 DUP3 ADD MSTORE PUSH1 0xA0 DUP5 ADD MLOAD PUSH1 0xA4 DUP3 ADD MSTORE PUSH1 0xC0 SWAP1 SWAP4 ADD MLOAD AND PUSH1 0xC4 DUP4 ADD MSTORE SWAP1 SWAP3 DUP4 SWAP2 SWAP1 DUP3 SWAP1 DUP2 SWAP1 PUSH1 0xE4 DUP3 ADD SWAP1 JUMP JUMPDEST SUB SWAP2 CALLVALUE SWAP1 GAS CALL DUP1 ISZERO PUSH3 0x318 JUMPI PUSH3 0x2E9 JUMPI STOP JUMPDEST PUSH3 0x30E SWAP1 PUSH1 0x20 RETURNDATASIZE DUP2 GT PUSH3 0x310 JUMPI JUMPDEST PUSH3 0x305 DUP2 DUP4 PUSH3 0x871 JUMP JUMPDEST DUP2 ADD SWAP1 PUSH3 0xDF2 JUMP JUMPDEST STOP JUMPDEST POP RETURNDATASIZE PUSH3 0x2F9 JUMP JUMPDEST PUSH3 0x8AE JUMP JUMPDEST SWAP2 DUP2 PUSH1 0x1F DUP5 ADD SLT ISZERO PUSH3 0x161 JUMPI DUP3 CALLDATALOAD SWAP2 PUSH1 0x1 PUSH1 0x1 PUSH1 0x40 SHL SUB DUP4 GT PUSH3 0x161 JUMPI PUSH1 0x20 DUP4 DUP2 DUP7 ADD SWAP6 ADD ADD GT PUSH3 0x161 JUMPI JUMP JUMPDEST CALLVALUE PUSH3 0x161 JUMPI PUSH1 0xA0 CALLDATASIZE PUSH1 0x3 NOT ADD SLT PUSH3 0x161 JUMPI PUSH1 0x4 CALLDATALOAD PUSH3 0x36F DUP2 PUSH3 0x14F JUMP JUMPDEST PUSH1 0x1 PUSH1 0x1 PUSH1 0x40 SHL SUB PUSH1 0x24 CALLDATALOAD DUP2 DUP2 GT PUSH3 0x161 JUMPI PUSH3 0x392 SWAP1 CALLDATASIZE SWAP1 PUSH1 0x4 ADD PUSH3 0x31E JUMP JUMPDEST SWAP3 PUSH1 0x44 CALLDATALOAD SWAP3 DUP4 GT PUSH3 0x161 JUMPI PUSH1 0x20 SWAP4 PUSH3 0x3B5 PUSH3 0x3C4 SWAP5 CALLDATASIZE SWAP1 PUSH1 0x4 ADD PUSH3 0x31E JUMP JUMPDEST SWAP2 PUSH1 0x84 CALLDATALOAD SWAP5 PUSH1 0x64 CALLDATALOAD SWAP5 PUSH3 0x230F JUMP JUMPDEST PUSH1 0x40 MLOAD PUSH1 0x1 PUSH1 0x1 PUSH1 0xA0 SHL SUB SWAP1 SWAP2 AND DUP2 MSTORE RETURN JUMPDEST PUSH1 0x0 SWAP2 SUB SLT PUSH3 0x161 JUMPI JUMP JUMPDEST CALLVALUE PUSH3 0x161 JUMPI PUSH1 0x0 CALLDATASIZE PUSH1 0x3 NOT ADD SLT PUSH3 0x161 JUMPI PUSH1 0x3 SLOAD PUSH1 0x40 MLOAD PUSH1 0x1 PUSH1 0x1 PUSH1 0xA0 SHL SUB SWAP1 SWAP2 AND DUP2 MSTORE PUSH1 0x20 SWAP1 RETURN JUMPDEST CALLVALUE PUSH3 0x161 JUMPI PUSH1 0x0 CALLDATASIZE PUSH1 0x3 NOT ADD SLT PUSH3 0x161 JUMPI PUSH1 0x20 PUSH2 0xFFFF PUSH1 0x1 SLOAD PUSH1 0xE0 SHR AND PUSH1 0x40 MLOAD SWAP1 DUP2 MSTORE RETURN JUMPDEST CALLVALUE PUSH3 0x161 JUMPI PUSH1 0x0 CALLDATASIZE PUSH1 0x3 NOT ADD SLT PUSH3 0x161 JUMPI PUSH1 0x4 SLOAD PUSH1 0x40 MLOAD PUSH1 0x1 PUSH1 0x1 PUSH1 0xA0 SHL SUB SWAP1 SWAP2 AND DUP2 MSTORE PUSH1 0x20 SWAP1 RETURN JUMPDEST CALLVALUE PUSH3 0x161 JUMPI PUSH1 0x80 CALLDATASIZE PUSH1 0x3 NOT ADD SLT PUSH3 0x161 JUMPI PUSH1 0x4 CALLDATALOAD PUSH3 0x480 DUP2 PUSH3 0x14F JUMP JUMPDEST PUSH1 0x1 PUSH1 0x1 PUSH1 0x40 SHL SUB PUSH1 0x24 CALLDATALOAD DUP2 DUP2 GT PUSH3 0x161 JUMPI PUSH3 0x4A3 SWAP1 CALLDATASIZE SWAP1 PUSH1 0x4 ADD PUSH3 0x31E JUMP JUMPDEST PUSH1 0x44 SWAP4 SWAP2 SWAP4 CALLDATALOAD SWAP3 DUP4 GT PUSH3 0x161 JUMPI PUSH1 0x40 SWAP4 PUSH3 0x4C8 PUSH3 0x4D5 SWAP5 CALLDATASIZE SWAP1 PUSH1 0x4 ADD PUSH3 0x31E JUMP JUMPDEST SWAP3 SWAP1 SWAP2 PUSH1 0x64 CALLDATALOAD SWAP5 PUSH3 0x2432 JUMP JUMPDEST DUP3 MLOAD SWAP2 DUP3 MSTORE PUSH1 0x1 PUSH1 0x1 PUSH1 0xA0 SHL SUB AND PUSH1 0x20 DUP3 ADD MSTORE RETURN JUMPDEST CALLVALUE PUSH3 0x161 JUMPI PUSH1 0x0 DUP1 PUSH1 0x3 NOT CALLDATASIZE ADD SLT PUSH3 0x549 JUMPI PUSH3 0x508 PUSH3 0x81A JUMP JUMPDEST DUP1 SLOAD PUSH1 0x1 PUSH1 0x1 PUSH1 0xA0 SHL SUB NOT DUP2 AND DUP3 SSTORE DUP2 SWAP1 PUSH1 0x1 PUSH1 0x1 PUSH1 0xA0 SHL SUB AND PUSH32 0x8BE0079C531659141344CD1FD0A4F28419497F9722A3DAAFE3B4186F6B6457E0 DUP3 DUP1 LOG3 DUP1 RETURN JUMPDEST DUP1 REVERT JUMPDEST CALLVALUE PUSH3 0x161 JUMPI PUSH1 0x0 CALLDATASIZE PUSH1 0x3 NOT ADD SLT PUSH3 0x161 JUMPI PUSH1 0x5 SLOAD PUSH1 0x40 MLOAD PUSH1 0x1 PUSH1 0x1 PUSH1 0xA0 SHL SUB SWAP1 SWAP2 AND DUP2 MSTORE PUSH1 0x20 SWAP1 RETURN JUMPDEST CALLVALUE PUSH3 0x161 JUMPI PUSH1 0x0 CALLDATASIZE PUSH1 0x3 NOT ADD SLT PUSH3 0x161 JUMPI PUSH1 0x0 SLOAD PUSH1 0x40 MLOAD PUSH1 0x1 PUSH1 0x1 PUSH1 0xA0 SHL SUB SWAP1 SWAP2 AND DUP2 MSTORE PUSH1 0x20 SWAP1 RETURN JUMPDEST CALLVALUE PUSH3 0x161 JUMPI PUSH1 0x0 CALLDATASIZE PUSH1 0x3 NOT ADD SLT PUSH3 0x161 JUMPI PUSH1 0x2 SLOAD PUSH1 0x40 MLOAD PUSH1 0x1 PUSH1 0x1 PUSH1 0xA0 SHL SUB SWAP1 SWAP2 AND DUP2 MSTORE PUSH1 0x20 SWAP1 RETURN JUMPDEST CALLVALUE PUSH3 0x161 JUMPI PUSH1 0x20 CALLDATASIZE PUSH1 0x3 NOT ADD SLT PUSH3 0x161 JUMPI PUSH1 0x4 CALLDATALOAD PUSH3 0x5EE DUP2 PUSH3 0x14F JUMP JUMPDEST PUSH3 0x5F8 PUSH3 0x81A JUMP JUMPDEST PUSH1 0x2 DUP1 SLOAD PUSH1 0x1 PUSH1 0x1 PUSH1 0xA0 SHL SUB NOT AND PUSH1 0x1 PUSH1 0x1 PUSH1 0xA0 SHL SUB SWAP3 SWAP1 SWAP3 AND SWAP2 SWAP1 SWAP2 OR SWAP1 SSTORE STOP JUMPDEST DUP1 PUSH1 0x2 SIGNEXTEND SUB PUSH3 0x161 JUMPI JUMP JUMPDEST PUSH2 0x120 CALLDATASIZE PUSH1 0x3 NOT ADD SLT PUSH3 0x161 JUMPI PUSH1 0x1 PUSH1 0x1 PUSH1 0x40 SHL SUB PUSH1 0x4 CALLDATALOAD DUP2 DUP2 GT PUSH3 0x161 JUMPI PUSH3 0x657 SWAP1 CALLDATASIZE SWAP1 PUSH1 0x4 ADD PUSH3 0x31E JUMP JUMPDEST SWAP2 PUSH1 0x24 CALLDATALOAD SWAP1 DUP2 GT PUSH3 0x161 JUMPI PUSH3 0x673 SWAP1 CALLDATASIZE SWAP1 PUSH1 0x4 ADD PUSH3 0x31E JUMP JUMPDEST SWAP1 SWAP2 PUSH1 0x64 CALLDATALOAD SWAP4 PUSH3 0x684 DUP6 PUSH3 0x61A JUMP JUMPDEST PUSH1 0x84 CALLDATALOAD PUSH3 0xFFFFFF DUP2 AND DUP2 SUB PUSH3 0x161 JUMPI PUSH3 0x6C2 SWAP6 PUSH3 0x6A3 PUSH3 0x166 JUMP JUMPDEST SWAP4 PUSH3 0x6AE PUSH3 0x177 JUMP JUMPDEST SWAP6 PUSH2 0x104 CALLDATALOAD SWAP8 PUSH1 0xA4 CALLDATALOAD SWAP6 PUSH1 0x44 CALLDATALOAD SWAP4 PUSH3 0xE62 JUMP JUMPDEST PUSH1 0x40 DUP1 MLOAD PUSH1 0x1 PUSH1 0x1 PUSH1 0xA0 SHL SUB SWAP4 SWAP1 SWAP4 AND DUP4 MSTORE PUSH1 0x20 DUP4 ADD SWAP2 SWAP1 SWAP2 MSTORE SWAP1 RETURN JUMPDEST CALLVALUE PUSH3 0x161 JUMPI PUSH1 0x0 CALLDATASIZE PUSH1 0x3 NOT ADD SLT PUSH3 0x161 JUMPI PUSH1 0x1 SLOAD PUSH1 0x40 MLOAD PUSH1 0x1 PUSH1 0x1 PUSH1 0xA0 SHL SUB SWAP1 SWAP2 AND DUP2 MSTORE PUSH1 0x20 SWAP1 RETURN JUMPDEST CALLVALUE PUSH3 0x161 JUMPI PUSH1 0x0 CALLDATASIZE PUSH1 0x3 NOT ADD SLT PUSH3 0x161 JUMPI PUSH1 0x6 SLOAD PUSH1 0x40 MLOAD PUSH1 0x1 PUSH1 0x1 PUSH1 0xA0 SHL SUB SWAP1 SWAP2 AND DUP2 MSTORE PUSH1 0x20 SWAP1 RETURN JUMPDEST CALLVALUE PUSH3 0x161 JUMPI PUSH1 0x0 CALLDATASIZE PUSH1 0x3 NOT ADD SLT PUSH3 0x161 JUMPI PUSH1 0x20 PUSH1 0x1 PUSH1 0x1 PUSH1 0x40 SHL SUB PUSH1 0x1 SLOAD PUSH1 0xA0 SHR AND PUSH1 0x40 MLOAD SWAP1 DUP2 MSTORE RETURN JUMPDEST CALLVALUE PUSH3 0x161 JUMPI PUSH1 0x0 CALLDATASIZE PUSH1 0x3 NOT ADD SLT PUSH3 0x161 JUMPI PUSH1 0x20 PUSH1 0xFF PUSH1 0x1 SLOAD PUSH1 0xF0 SHR AND PUSH1 0x40 MLOAD SWAP1 DUP2 MSTORE RETURN JUMPDEST CALLVALUE PUSH3 0x161 JUMPI PUSH1 0x20 CALLDATASIZE PUSH1 0x3 NOT ADD SLT PUSH3 0x161 JUMPI PUSH1 0x4 CALLDATALOAD PUSH3 0x7A8 DUP2 PUSH3 0x14F JUMP JUMPDEST PUSH3 0x7B2 PUSH3 0x81A JUMP JUMPDEST PUSH1 0x1 PUSH1 0x1 PUSH1 0xA0 SHL SUB SWAP1 DUP2 AND DUP1 ISZERO PUSH3 0x801 JUMPI PUSH1 0x0 DUP1 SLOAD PUSH1 0x1 PUSH1 0x1 PUSH1 0xA0 SHL SUB NOT DUP2 AND DUP4 OR DUP3 SSTORE SWAP1 SWAP3 AND PUSH32 0x8BE0079C531659141344CD1FD0A4F28419497F9722A3DAAFE3B4186F6B6457E0 DUP4 DUP1 LOG3 DUP1 RETURN JUMPDEST PUSH1 0x40 MLOAD PUSH4 0x1E4FBDF7 PUSH1 0xE0 SHL DUP2 MSTORE PUSH1 0x0 PUSH1 0x4 DUP3 ADD MSTORE PUSH1 0x24 SWAP1 REVERT JUMPDEST PUSH1 0x0 SLOAD PUSH1 0x1 PUSH1 0x1 PUSH1 0xA0 SHL SUB AND CALLER SUB PUSH3 0x82F JUMPI JUMP JUMPDEST PUSH1 0x40 MLOAD PUSH4 0x118CDAA7 PUSH1 0xE0 SHL DUP2 MSTORE CALLER PUSH1 0x4 DUP3 ADD MSTORE PUSH1 0x24 SWAP1 REVERT JUMPDEST PUSH1 0x1 PUSH1 0x1 PUSH1 0x40 SHL SUB DUP2 GT PUSH3 0x85B JUMPI PUSH1 0x40 MSTORE JUMP JUMPDEST PUSH4 0x4E487B71 PUSH1 0xE0 SHL PUSH1 0x0 MSTORE PUSH1 0x41 PUSH1 0x4 MSTORE PUSH1 0x24 PUSH1 0x0 REVERT JUMPDEST SWAP1 PUSH1 0x1F DUP1 NOT SWAP2 ADD AND DUP2 ADD SWAP1 DUP2 LT PUSH1 0x1 PUSH1 0x1 PUSH1 0x40 SHL SUB DUP3 GT OR PUSH3 0x85B JUMPI PUSH1 0x40 MSTORE JUMP JUMPDEST SWAP1 DUP2 PUSH1 0x20 SWAP2 SUB SLT PUSH3 0x161 JUMPI MLOAD PUSH3 0x8AB DUP2 PUSH3 0x61A JUMP JUMPDEST SWAP1 JUMP JUMPDEST PUSH1 0x40 MLOAD RETURNDATASIZE PUSH1 0x0 DUP3 RETURNDATACOPY RETURNDATASIZE SWAP1 REVERT JUMPDEST PUSH4 0x4E487B71 PUSH1 0xE0 SHL PUSH1 0x0 MSTORE PUSH1 0x12 PUSH1 0x4 MSTORE PUSH1 0x24 PUSH1 0x0 REVERT JUMPDEST SWAP1 PUSH1 0x2 SIGNEXTEND SWAP1 DUP2 ISZERO PUSH3 0x8E3 JUMPI PUSH1 0x2 SIGNEXTEND SMOD SWAP1 JUMP JUMPDEST PUSH3 0x8BA JUMP JUMPDEST ISZERO PUSH3 0x8F1 JUMPI JUMP JUMPDEST PUSH1 0x40 MLOAD PUSH3 0x461BCD PUSH1 0xE5 SHL DUP2 MSTORE PUSH1 0x20 PUSH1 0x4 DUP3 ADD MSTORE PUSH1 0x1C PUSH1 0x24 DUP3 ADD MSTORE PUSH32 0x496E76616C6964207469636B206F72207469636B2073706163696E6700000000 PUSH1 0x44 DUP3 ADD MSTORE PUSH1 0x64 SWAP1 REVERT JUMPDEST ISZERO PUSH3 0x93E JUMPI JUMP JUMPDEST PUSH1 0x40 MLOAD PUSH3 0x461BCD PUSH1 0xE5 SHL DUP2 MSTORE PUSH1 0x20 PUSH1 0x4 DUP3 ADD MSTORE PUSH1 0x1F PUSH1 0x24 DUP3 ADD MSTORE PUSH32 0x526563697069656E7420616D6F756E74206578636565647320737570706C7900 PUSH1 0x44 DUP3 ADD MSTORE PUSH1 0x64 SWAP1 REVERT JUMPDEST PUSH4 0x4E487B71 PUSH1 0xE0 SHL PUSH1 0x0 MSTORE PUSH1 0x11 PUSH1 0x4 MSTORE PUSH1 0x24 PUSH1 0x0 REVERT JUMPDEST SWAP2 SWAP1 DUP3 SUB SWAP2 DUP3 GT PUSH3 0x9A7 JUMPI JUMP JUMPDEST PUSH3 0x983 JUMP JUMPDEST PUSH1 0x40 MLOAD SWAP1 PUSH1 0xE0 DUP3 ADD DUP3 DUP2 LT PUSH1 0x1 PUSH1 0x1 PUSH1 0x40 SHL SUB DUP3 GT OR PUSH3 0x85B JUMPI PUSH1 0x40 MSTORE JUMP JUMPDEST PUSH1 0x40 MLOAD SWAP1 PUSH2 0x160 DUP3 ADD DUP3 DUP2 LT PUSH1 0x1 PUSH1 0x1 PUSH1 0x40 SHL SUB DUP3 GT OR PUSH3 0x85B JUMPI PUSH1 0x40 MSTORE JUMP JUMPDEST SWAP1 PUSH3 0x175 PUSH1 0x40 MLOAD SWAP3 DUP4 PUSH3 0x871 JUMP JUMPDEST SWAP1 DUP1 PUSH1 0x20 SWAP4 SWAP3 DUP2 DUP5 MSTORE DUP5 DUP5 ADD CALLDATACOPY PUSH1 0x0 DUP3 DUP3 ADD DUP5 ADD MSTORE PUSH1 0x1F ADD PUSH1 0x1F NOT AND ADD ADD SWAP1 JUMP JUMPDEST SWAP5 SWAP7 SWAP6 SWAP3 SWAP1 SWAP4 PUSH3 0xA40 PUSH1 0x60 SWAP6 PUSH3 0xA4F SWAP5 PUSH1 0x80 DUP10 MSTORE PUSH1 0x80 DUP10 ADD SWAP2 PUSH3 0x9FE JUMP JUMPDEST SWAP2 DUP7 DUP4 SUB PUSH1 0x20 DUP9 ADD MSTORE PUSH3 0x9FE JUMP JUMPDEST PUSH1 0x40 DUP5 ADD SWAP6 SWAP1 SWAP6 MSTORE PUSH1 0x1 PUSH1 0x1 PUSH1 0xA0 SHL SUB AND SWAP2 ADD MSTORE JUMP JUMPDEST PUSH1 0x0 JUMPDEST DUP4 DUP2 LT PUSH3 0xA79 JUMPI POP POP PUSH1 0x0 SWAP2 ADD MSTORE JUMP JUMPDEST DUP2 DUP2 ADD MLOAD DUP4 DUP3 ADD MSTORE PUSH1 0x20 ADD PUSH3 0xA68 JUMP JUMPDEST SWAP1 PUSH3 0xA9F PUSH1 0x20 SWAP3 DUP3 DUP2 MLOAD SWAP5 DUP6 SWAP3 ADD PUSH3 0xA65 JUMP JUMPDEST ADD SWAP1 JUMP JUMPDEST ISZERO PUSH3 0xAAB JUMPI JUMP JUMPDEST PUSH1 0x40 MLOAD PUSH3 0x461BCD PUSH1 0xE5 SHL DUP2 MSTORE PUSH1 0x20 PUSH1 0x4 DUP3 ADD MSTORE PUSH1 0x2C PUSH1 0x24 DUP3 ADD MSTORE PUSH32 0x546F6B656E2061646472657373206D757374206265206C657373207468616E20 PUSH1 0x44 DUP3 ADD MSTORE PUSH12 0x574554482061646472657373 PUSH1 0xA0 SHL PUSH1 0x64 DUP3 ADD MSTORE PUSH1 0x84 SWAP1 REVERT JUMPDEST ISZERO PUSH3 0xB0D JUMPI JUMP JUMPDEST PUSH1 0x40 MLOAD PUSH3 0x461BCD PUSH1 0xE5 SHL DUP2 MSTORE PUSH1 0x20 PUSH1 0x4 DUP3 ADD MSTORE PUSH1 0x17 PUSH1 0x24 DUP3 ADD MSTORE PUSH32 0x546F6B656E206465706C6F796D656E74206661696C6564000000000000000000 PUSH1 0x44 DUP3 ADD MSTORE PUSH1 0x64 SWAP1 REVERT JUMPDEST SWAP1 DUP2 PUSH1 0x20 SWAP2 SUB SLT PUSH3 0x161 JUMPI MLOAD DUP1 ISZERO ISZERO DUP2 SUB PUSH3 0x161 JUMPI SWAP1 JUMP JUMPDEST ISZERO PUSH3 0xB74 JUMPI JUMP JUMPDEST PUSH1 0x40 MLOAD PUSH3 0x461BCD PUSH1 0xE5 SHL DUP2 MSTORE PUSH1 0x20 PUSH1 0x4 DUP3 ADD MSTORE PUSH1 0x15 PUSH1 0x24 DUP3 ADD MSTORE PUSH21 0x151BDAD95B881D1C985B9CD9995C8819985A5B1959 PUSH1 0x5A SHL PUSH1 0x44 DUP3 ADD MSTORE PUSH1 0x64 SWAP1 REVERT JUMPDEST SWAP1 DUP2 PUSH1 0x20 SWAP2 SUB SLT PUSH3 0x161 JUMPI MLOAD PUSH3 0x8AB DUP2 PUSH3 0x14F JUMP JUMPDEST PUSH1 0x0 SWAP1 PUSH1 0x3 RETURNDATASIZE GT PUSH3 0xBD7 JUMPI JUMP JUMPDEST SWAP1 POP PUSH1 0x4 PUSH1 0x0 DUP1 RETURNDATACOPY PUSH1 0x0 MLOAD PUSH1 0xE0 SHR SWAP1 JUMP JUMPDEST PUSH1 0x0 PUSH1 0x44 RETURNDATASIZE LT PUSH3 0x8AB JUMPI PUSH1 0x40 MLOAD PUSH1 0x3 NOT SWAP2 RETURNDATASIZE DUP4 ADD PUSH1 0x4 DUP4 RETURNDATACOPY DUP2 MLOAD PUSH1 0x1 PUSH1 0x1 PUSH1 0x40 SHL SUB SWAP2 DUP3 DUP3 GT RETURNDATASIZE PUSH1 0x24 DUP5 ADD GT OR PUSH3 0xC4B JUMPI DUP2 DUP5 ADD SWAP5 DUP6 MLOAD SWAP4 DUP5 GT PUSH3 0xC53 JUMPI RETURNDATASIZE DUP6 ADD ADD PUSH1 0x20 DUP5 DUP8 ADD ADD GT PUSH3 0xC4B JUMPI POP PUSH3 0x8AB SWAP3 SWAP2 ADD PUSH1 0x20 ADD SWAP1 PUSH3 0x871 JUMP JUMPDEST SWAP5 SWAP4 POP POP POP POP JUMP JUMPDEST POP SWAP5 SWAP4 POP POP POP POP JUMP JUMPDEST PUSH1 0x40 SWAP2 PUSH1 0x20 DUP3 MSTORE PUSH3 0xC7E DUP2 MLOAD DUP1 SWAP3 DUP2 PUSH1 0x20 DUP7 ADD MSTORE PUSH1 0x20 DUP7 DUP7 ADD SWAP2 ADD PUSH3 0xA65 JUMP JUMPDEST PUSH1 0x1F ADD PUSH1 0x1F NOT AND ADD ADD SWAP1 JUMP JUMPDEST PUSH1 0x80 SWAP1 PUSH1 0x20 DUP2 MSTORE PUSH1 0x27 PUSH1 0x20 DUP3 ADD MSTORE PUSH32 0x506F6F6C206372656174696F6E206661696C6564207769746820756E6B6E6F77 PUSH1 0x40 DUP3 ADD MSTORE PUSH7 0x371032B93937B9 PUSH1 0xC9 SHL PUSH1 0x60 DUP3 ADD MSTORE ADD SWAP1 JUMP JUMPDEST PUSH1 0x80 SWAP1 PUSH1 0x20 DUP2 MSTORE PUSH1 0x2D PUSH1 0x20 DUP3 ADD MSTORE PUSH32 0x506F6F6C20696E697469616C697A6174696F6E206661696C6564207769746820 PUSH1 0x40 DUP3 ADD MSTORE PUSH13 0x3AB735B737BBB71032B93937B9 PUSH1 0x99 SHL PUSH1 0x60 DUP3 ADD MSTORE ADD SWAP1 JUMP JUMPDEST ISZERO PUSH3 0xD28 JUMPI JUMP JUMPDEST PUSH1 0x40 MLOAD PUSH3 0x461BCD PUSH1 0xE5 SHL DUP2 MSTORE PUSH1 0x20 PUSH1 0x4 DUP3 ADD MSTORE PUSH1 0x15 PUSH1 0x24 DUP3 ADD MSTORE PUSH21 0x151BDAD95B88185C1C1C9BDD985B0819985A5B1959 PUSH1 0x5A SHL PUSH1 0x44 DUP3 ADD MSTORE PUSH1 0x64 SWAP1 REVERT JUMPDEST SWAP2 SWAP1 DUP3 PUSH1 0x80 SWAP2 SUB SLT PUSH3 0x161 JUMPI DUP2 MLOAD SWAP2 PUSH1 0x20 DUP2 ADD MLOAD PUSH1 0x1 PUSH1 0x1 PUSH1 0x80 SHL SUB DUP2 AND DUP2 SUB PUSH3 0x161 JUMPI SWAP2 PUSH1 0x60 PUSH1 0x40 DUP4 ADD MLOAD SWAP3 ADD MLOAD SWAP1 JUMP JUMPDEST PUSH1 0x80 SWAP1 PUSH1 0x20 DUP2 MSTORE PUSH1 0x2A PUSH1 0x20 DUP3 ADD MSTORE PUSH32 0x506F736974696F6E206D696E74696E67206661696C6564207769746820756E6B PUSH1 0x40 DUP3 ADD MSTORE PUSH10 0x3737BBB71032B93937B9 PUSH1 0xB1 SHL PUSH1 0x60 DUP3 ADD MSTORE ADD SWAP1 JUMP JUMPDEST SWAP2 SWAP1 DUP3 ADD DUP1 SWAP3 GT PUSH3 0x9A7 JUMPI JUMP JUMPDEST SWAP1 DUP2 PUSH1 0x20 SWAP2 SUB SLT PUSH3 0x161 JUMPI MLOAD SWAP1 JUMP JUMPDEST SWAP7 SWAP2 SWAP6 SWAP3 SWAP4 PUSH1 0xE0 SWAP9 SWAP12 SWAP11 SWAP10 SWAP6 PUSH3 0xE43 SWAP3 PUSH3 0xE52 SWAP7 PUSH1 0x1 DUP1 PUSH1 0xA0 SHL SUB SWAP10 DUP11 DUP1 SWAP4 AND DUP13 MSTORE PUSH1 0x20 DUP13 ADD MSTORE AND PUSH1 0x40 DUP11 ADD MSTORE PUSH2 0x100 DUP1 PUSH1 0x60 DUP12 ADD MSTORE DUP10 ADD SWAP2 PUSH3 0x9FE JUMP JUMPDEST SWAP2 DUP7 DUP4 SUB PUSH1 0x80 DUP9 ADD MSTORE PUSH3 0x9FE JUMP JUMPDEST SWAP7 PUSH1 0xA0 DUP5 ADD MSTORE AND PUSH1 0xC0 DUP3 ADD MSTORE ADD MSTORE JUMP JUMPDEST SWAP6 SWAP10 SWAP4 SWAP2 DUP11 SWAP9 SWAP6 SWAP12 SWAP10 SWAP4 SWAP2 SWAP8 PUSH1 0x0 DUP1 MLOAD PUSH1 0x20 PUSH3 0x364D DUP4 CODECOPY DUP2 MLOAD SWAP2 MSTORE PUSH1 0x40 MLOAD DUP1 PUSH3 0xEB6 DUP2 PUSH1 0x60 SWAP1 PUSH1 0x20 DUP2 MSTORE PUSH1 0x14 PUSH1 0x20 DUP3 ADD MSTORE PUSH20 0x29BA30B93A34B733903232B83637BCAA37B5B2B7 PUSH1 0x61 SHL PUSH1 0x40 DUP3 ADD MSTORE ADD SWAP1 JUMP JUMPDEST SUB SWAP1 LOG1 PUSH1 0x4 SLOAD PUSH1 0x20 SWAP1 PUSH3 0xF00 SWAP1 PUSH3 0xED8 SWAP1 PUSH1 0x1 PUSH1 0x1 PUSH1 0xA0 SHL SUB AND PUSH3 0x253 JUMP JUMPDEST PUSH1 0x40 MLOAD SWAP15 DUP16 DUP1 SWAP4 DUP2 SWAP3 PUSH4 0x22AFCCCB PUSH1 0xE0 SHL DUP4 MSTORE PUSH1 0x4 DUP4 ADD SWAP2 SWAP1 SWAP2 PUSH3 0xFFFFFF PUSH1 0x20 DUP3 ADD SWAP4 AND SWAP1 MSTORE JUMP JUMPDEST SUB SWAP2 GAS STATICCALL DUP1 ISZERO PUSH3 0x318 JUMPI DUP14 SWAP13 PUSH1 0x0 SWAP2 PUSH3 0x228A JUMPI JUMPDEST POP PUSH3 0xFCB DUP14 DUP3 DUP1 PUSH1 0x2 SIGNEXTEND PUSH1 0x40 MLOAD PUSH32 0xF5D2CD60F752FF8CA00B1FC30EA4D78C233ECA72C1ED58D0D62424E09F0951E DUP2 DUP1 PUSH3 0xF7A DUP6 DUP5 SWAP6 SWAP2 SWAP1 PUSH1 0x40 DUP4 MSTORE PUSH1 0xB PUSH1 0x40 DUP5 ADD MSTORE PUSH11 0x7469636B53706163696E67 PUSH1 0xA8 SHL PUSH1 0x60 DUP5 ADD MSTORE PUSH1 0x20 PUSH1 0x80 DUP5 ADD SWAP4 ADD MSTORE JUMP JUMPDEST SUB SWAP1 LOG1 PUSH1 0x40 MLOAD DUP1 PUSH3 0xFB6 DUP7 PUSH1 0x2 SIGNEXTEND DUP3 SWAP2 SWAP1 PUSH1 0x40 DUP4 MSTORE PUSH1 0xB PUSH1 0x40 DUP5 ADD MSTORE PUSH11 0x696E697469616C5469636B PUSH1 0xA8 SHL PUSH1 0x60 DUP5 ADD MSTORE PUSH1 0x20 PUSH1 0x80 DUP5 ADD SWAP4 ADD MSTORE JUMP JUMPDEST SUB SWAP1 LOG1 ISZERO ISZERO SWAP2 DUP3 PUSH3 0x2269 JUMPI JUMPDEST POP POP PUSH3 0x8E9 JUMP JUMPDEST PUSH1 0x40 MLOAD DUP1 PUSH3 0x1005 DUP2 PUSH1 0x60 SWAP1 PUSH1 0x20 DUP2 MSTORE PUSH1 0x16 PUSH1 0x20 DUP3 ADD MSTORE PUSH22 0x151A58DAC81D985B1A59185D1A5BDB881C185CDCD959 PUSH1 0x52 SHL PUSH1 0x40 DUP3 ADD MSTORE ADD SWAP1 JUMP JUMPDEST SUB PUSH1 0x0 DUP1 MLOAD PUSH1 0x20 PUSH3 0x364D DUP4 CODECOPY DUP2 MLOAD SWAP2 MSTORE SWAP2 LOG1 PUSH3 0x1026 DUP6 DUP9 GT ISZERO PUSH3 0x936 JUMP JUMPDEST DUP11 PUSH3 0x1033 DUP9 DUP8 PUSH3 0x999 JUMP JUMPDEST SWAP3 PUSH1 0x40 MLOAD DUP1 PUSH3 0x106F DUP12 DUP3 SWAP2 SWAP1 PUSH1 0x40 DUP4 MSTORE PUSH1 0x10 PUSH1 0x40 DUP5 ADD MSTORE PUSH16 0x149958DA5C1A595B9D08185B5BDD5B9D PUSH1 0x82 SHL PUSH1 0x60 DUP5 ADD MSTORE PUSH1 0x20 PUSH1 0x80 DUP5 ADD SWAP4 ADD MSTORE JUMP JUMPDEST SUB PUSH1 0x0 DUP1 MLOAD PUSH1 0x20 PUSH3 0x362D DUP4 CODECOPY DUP2 MLOAD SWAP2 MSTORE SWAP2 LOG1 PUSH1 0x40 MLOAD DUP1 PUSH3 0x10B6 DUP7 DUP3 SWAP2 SWAP1 PUSH1 0x40 DUP4 MSTORE PUSH1 0x9 PUSH1 0x40 DUP5 ADD MSTORE PUSH9 0x131408185B5BDD5B9D PUSH1 0xBA SHL PUSH1 0x60 DUP5 ADD MSTORE PUSH1 0x20 PUSH1 0x80 DUP5 ADD SWAP4 ADD MSTORE JUMP JUMPDEST SUB PUSH1 0x0 DUP1 MLOAD PUSH1 0x20 PUSH3 0x362D DUP4 CODECOPY DUP2 MLOAD SWAP2 MSTORE SWAP2 LOG1 PUSH1 0x40 DUP1 MLOAD CALLER PUSH1 0x20 DUP3 ADD MSTORE DUP1 DUP3 ADD SWAP3 SWAP1 SWAP3 MSTORE DUP2 MSTORE PUSH3 0x10E9 PUSH1 0x60 DUP3 PUSH3 0x871 JUMP JUMPDEST DUP1 MLOAD SWAP1 PUSH1 0x20 ADD KECCAK256 PUSH2 0xAF2 PUSH1 0x20 DUP2 ADD PUSH3 0x1102 SWAP1 PUSH3 0x9EE JUMP JUMPDEST SWAP1 DUP1 DUP3 MSTORE PUSH3 0x2B3B PUSH1 0x20 DUP4 ADD CODECOPY DUP12 DUP14 PUSH1 0x40 MLOAD SWAP2 DUP3 SWAP2 DUP12 DUP12 DUP12 ADDRESS SWAP4 PUSH1 0x20 DUP8 ADD SWAP6 PUSH3 0x112C SWAP7 PUSH3 0xA1F JUMP JUMPDEST SUB PUSH1 0x1F NOT DUP2 ADD DUP3 MSTORE PUSH3 0x1140 SWAP1 DUP3 PUSH3 0x871 JUMP JUMPDEST PUSH1 0x40 MLOAD DUP1 SWAP2 PUSH1 0x20 DUP3 ADD SWAP4 DUP5 PUSH3 0x1156 SWAP2 PUSH3 0xA8A JUMP JUMPDEST PUSH3 0x1161 SWAP2 PUSH3 0xA8A JUMP JUMPDEST SUB PUSH1 0x1F NOT DUP2 ADD DUP3 MSTORE PUSH3 0x1175 SWAP1 DUP3 PUSH3 0x871 JUMP JUMPDEST DUP1 MLOAD DUP3 KECCAK256 PUSH1 0x40 MLOAD PUSH1 0x1 PUSH1 0x1 PUSH1 0xF8 SHL SUB NOT PUSH1 0x20 DUP3 ADD SWAP1 DUP2 MSTORE PUSH12 0xFFFFFFFFFFFFFFFFFFFFFFFF NOT ADDRESS PUSH1 0x60 SHL AND PUSH1 0x21 DUP4 ADD MSTORE PUSH1 0x35 DUP3 ADD DUP7 SWAP1 MSTORE PUSH1 0x55 DUP1 DUP4 ADD SWAP4 SWAP1 SWAP4 MSTORE SWAP2 DUP2 MSTORE PUSH3 0x11C4 PUSH1 0x75 DUP3 PUSH3 0x871 JUMP JUMPDEST MLOAD SWAP1 KECCAK256 PUSH1 0x3 SLOAD PUSH3 0x11E3 SWAP2 PUSH1 0x1 PUSH1 0x1 PUSH1 0xA0 SHL SUB SWAP2 DUP3 AND SWAP2 AND LT PUSH3 0xAA3 JUMP JUMPDEST MLOAD SWAP1 PUSH1 0x0 CREATE2 SWAP15 DUP16 SWAP1 PUSH3 0x1201 PUSH1 0x1 PUSH1 0x1 PUSH1 0xA0 SHL SUB DUP4 AND ISZERO ISZERO PUSH3 0xB05 JUMP JUMPDEST PUSH1 0x40 DUP1 MLOAD DUP2 DUP2 MSTORE PUSH1 0x11 SWAP2 DUP2 ADD SWAP2 SWAP1 SWAP2 MSTORE PUSH17 0x151BDAD95B8819195C1B1BDE595908185D PUSH1 0x7A SHL PUSH1 0x60 DUP3 ADD MSTORE PUSH1 0x1 PUSH1 0x1 PUSH1 0xA0 SHL SUB DUP4 AND PUSH1 0x20 DUP3 ADD MSTORE PUSH32 0xB3F7D6C63A62AB0E6AE5263EF1DEB9C5A64F4689288C380DB949C116314A5540 SWAP1 PUSH1 0x80 SWAP1 LOG1 DUP10 DUP1 ISZERO ISZERO DUP1 PUSH3 0x2256 JUMPI JUMPDEST PUSH3 0x2096 JUMPI JUMPDEST POP SWAP1 PUSH1 0x20 PUSH3 0x1284 PUSH3 0x1374 SWAP4 PUSH3 0x2802 JUMP JUMPDEST PUSH1 0x40 DUP1 MLOAD DUP2 DUP2 MSTORE PUSH1 0xC SWAP2 DUP2 ADD SWAP2 SWAP1 SWAP2 MSTORE PUSH12 0x39B8B93A283934B1B2AC1C9B PUSH1 0xA1 SHL PUSH1 0x60 DUP3 ADD MSTORE PUSH1 0x1 PUSH1 0x1 PUSH1 0xA0 SHL SUB DUP3 AND PUSH1 0x20 DUP3 ADD MSTORE SWAP1 SWAP5 SWAP1 PUSH1 0x0 DUP1 MLOAD PUSH1 0x20 PUSH3 0x362D DUP4 CODECOPY DUP2 MLOAD SWAP2 MSTORE SWAP1 PUSH1 0x80 SWAP1 LOG1 PUSH1 0x0 DUP1 MLOAD PUSH1 0x20 PUSH3 0x364D DUP4 CODECOPY DUP2 MLOAD SWAP2 MSTORE PUSH1 0x40 MLOAD DUP1 PUSH3 0x1311 DUP2 PUSH1 0x60 SWAP1 PUSH1 0x20 DUP2 MSTORE PUSH1 0xD PUSH1 0x20 DUP3 ADD MSTORE PUSH13 0x10DC99585D1A5B99C81C1BDBDB PUSH1 0x9A SHL PUSH1 0x40 DUP3 ADD MSTORE ADD SWAP1 JUMP JUMPDEST SUB SWAP1 LOG1 PUSH1 0x4 SLOAD PUSH1 0x0 SWAP4 SWAP1 PUSH3 0x132F SWAP1 PUSH1 0x1 PUSH1 0x1 PUSH1 0xA0 SHL SUB AND PUSH3 0x253 JUMP JUMPDEST PUSH1 0x3 SLOAD PUSH1 0x40 MLOAD PUSH4 0xA1671295 PUSH1 0xE0 SHL DUP2 MSTORE PUSH1 0x1 PUSH1 0x1 PUSH1 0xA0 SHL SUB SWAP4 DUP5 AND PUSH1 0x4 DUP3 ADD MSTORE SWAP3 AND PUSH1 0x24 DUP4 ADD MSTORE PUSH3 0xFFFFFF SWAP3 SWAP1 SWAP3 AND PUSH1 0x44 DUP3 ADD MSTORE SWAP4 DUP5 SWAP2 SWAP1 DUP3 SWAP1 DUP6 SWAP1 DUP3 SWAP1 PUSH1 0x64 DUP3 ADD SWAP1 JUMP JUMPDEST SUB SWAP3 GAS CALL SWAP1 SWAP2 DUP2 PUSH3 0x205E JUMPI JUMPDEST POP PUSH3 0x14BD JUMPI PUSH3 0x1391 PUSH3 0xBC9 JUMP JUMPDEST PUSH4 0x8C379A0 EQ PUSH3 0x13DE JUMPI JUMPDEST PUSH1 0x0 DUP1 MLOAD PUSH1 0x20 PUSH3 0x364D DUP4 CODECOPY DUP2 MLOAD SWAP2 MSTORE PUSH1 0x40 MLOAD DUP1 PUSH3 0x13BC DUP2 PUSH3 0xC8A JUMP JUMPDEST SUB SWAP1 LOG1 PUSH1 0x40 MLOAD PUSH3 0x461BCD PUSH1 0xE5 SHL DUP2 MSTORE DUP1 PUSH3 0x13DA PUSH1 0x4 DUP3 ADD PUSH3 0xC8A JUMP JUMPDEST SUB SWAP1 REVERT JUMPDEST PUSH3 0x13E8 PUSH3 0xBE8 JUMP JUMPDEST DUP1 PUSH3 0x13F5 JUMPI POP PUSH3 0x139D JUMP JUMPDEST PUSH3 0x1454 PUSH3 0x14A4 PUSH3 0x13DA SWAP3 PUSH1 0x0 DUP1 MLOAD PUSH1 0x20 PUSH3 0x364D DUP4 CODECOPY DUP2 MLOAD SWAP2 MSTORE PUSH3 0x1470 PUSH1 0x40 MLOAD PUSH3 0x1463 DUP2 PUSH3 0x1454 PUSH3 0x144D PUSH1 0x20 DUP4 ADD PUSH1 0x16 SWAP1 PUSH22 0x2837B7B61031B932B0BA34B7B7103330B4B632B21D1 PUSH1 0x55 SHL DUP2 MSTORE ADD SWAP1 JUMP JUMPDEST DUP8 PUSH3 0xA8A JUMP JUMPDEST SUB PUSH1 0x1F NOT DUP2 ADD DUP4 MSTORE DUP3 PUSH3 0x871 JUMP JUMPDEST PUSH1 0x40 MLOAD SWAP2 DUP3 SWAP2 DUP3 PUSH3 0xC5C JUMP JUMPDEST SUB SWAP1 LOG1 PUSH1 0x40 MLOAD PUSH22 0x2837B7B61031B932B0BA34B7B7103330B4B632B21D1 PUSH1 0x55 SHL PUSH1 0x20 DUP3 ADD MSTORE SWAP3 DUP4 SWAP2 PUSH1 0x36 DUP4 ADD JUMPDEST SWAP1 PUSH3 0xA8A JUMP JUMPDEST PUSH1 0x40 MLOAD PUSH3 0x461BCD PUSH1 0xE5 SHL DUP2 MSTORE SWAP2 DUP3 SWAP2 PUSH1 0x4 DUP4 ADD PUSH3 0xC5C JUMP JUMPDEST PUSH1 0x40 DUP1 MLOAD DUP2 DUP2 MSTORE PUSH1 0xF SWAP2 DUP2 ADD SWAP2 SWAP1 SWAP2 MSTORE PUSH15 0x141BDBDB0818DC99585D195908185D PUSH1 0x8A SHL PUSH1 0x60 DUP3 ADD MSTORE PUSH1 0x1 PUSH1 0x1 PUSH1 0xA0 SHL SUB DUP3 AND PUSH1 0x20 DUP3 ADD MSTORE PUSH32 0xB3F7D6C63A62AB0E6AE5263EF1DEB9C5A64F4689288C380DB949C116314A5540 SWAP1 PUSH1 0x80 SWAP1 LOG1 PUSH1 0x0 DUP1 MLOAD PUSH1 0x20 PUSH3 0x364D DUP4 CODECOPY DUP2 MLOAD SWAP2 MSTORE PUSH1 0x40 MLOAD DUP1 PUSH3 0x155F DUP2 PUSH1 0x60 SWAP1 PUSH1 0x20 DUP2 MSTORE PUSH1 0x11 PUSH1 0x20 DUP3 ADD MSTORE PUSH17 0x125B9A5D1A585B1A5E9A5B99C81C1BDBDB PUSH1 0x7A SHL PUSH1 0x40 DUP3 ADD MSTORE ADD SWAP1 JUMP JUMPDEST SUB SWAP1 LOG1 PUSH1 0x1 PUSH1 0x1 PUSH1 0xA0 SHL SUB AND DUP1 EXTCODESIZE ISZERO PUSH3 0x161 JUMPI PUSH1 0x40 MLOAD PUSH4 0xF637731D PUSH1 0xE0 SHL DUP2 MSTORE PUSH1 0x1 PUSH1 0x1 PUSH1 0xA0 SHL SUB SWAP3 SWAP1 SWAP3 AND PUSH1 0x4 DUP4 ADD MSTORE PUSH1 0x0 SWAP1 DUP3 SWAP1 PUSH1 0x24 SWAP1 DUP3 SWAP1 DUP5 SWAP1 GAS CALL SWAP1 DUP2 PUSH3 0x2047 JUMPI JUMPDEST POP PUSH3 0x16AF JUMPI PUSH3 0x15B7 PUSH3 0xBC9 JUMP JUMPDEST PUSH4 0x8C379A0 EQ PUSH3 0x1600 JUMPI JUMPDEST PUSH1 0x0 DUP1 MLOAD PUSH1 0x20 PUSH3 0x364D DUP4 CODECOPY DUP2 MLOAD SWAP2 MSTORE PUSH1 0x40 MLOAD DUP1 PUSH3 0x15E2 DUP2 PUSH3 0xCD2 JUMP JUMPDEST SUB SWAP1 LOG1 PUSH1 0x40 MLOAD PUSH3 0x461BCD PUSH1 0xE5 SHL DUP2 MSTORE DUP1 PUSH3 0x13DA PUSH1 0x4 DUP3 ADD PUSH3 0xCD2 JUMP JUMPDEST PUSH3 0x160A PUSH3 0xBE8 JUMP JUMPDEST DUP1 PUSH3 0x1617 JUMPI POP PUSH3 0x15C3 JUMP JUMPDEST PUSH3 0x1454 PUSH3 0x14A4 PUSH3 0x13DA SWAP3 PUSH1 0x0 DUP1 MLOAD PUSH1 0x20 PUSH3 0x364D DUP4 CODECOPY DUP2 MLOAD SWAP2 MSTORE PUSH3 0x1676 PUSH1 0x40 MLOAD PUSH3 0x1463 DUP2 PUSH3 0x1454 PUSH3 0x144D PUSH1 0x20 DUP4 ADD PUSH1 0x1C SWAP1 PUSH32 0x506F6F6C20696E697469616C697A6174696F6E206661696C65643A2000000000 DUP2 MSTORE ADD SWAP1 JUMP JUMPDEST SUB SWAP1 LOG1 PUSH1 0x40 MLOAD PUSH32 0x506F6F6C20696E697469616C697A6174696F6E206661696C65643A2000000000 PUSH1 0x20 DUP3 ADD MSTORE SWAP3 DUP4 SWAP2 PUSH1 0x3C DUP4 ADD PUSH3 0x149D JUMP JUMPDEST DUP14 SWAP13 PUSH1 0x0 DUP1 MLOAD PUSH1 0x20 PUSH3 0x364D DUP4 CODECOPY DUP2 MLOAD SWAP2 MSTORE PUSH1 0x40 MLOAD DUP1 PUSH3 0x16F5 DUP2 PUSH1 0x60 SWAP1 PUSH1 0x20 DUP2 MSTORE PUSH1 0x10 PUSH1 0x20 DUP3 ADD MSTORE PUSH16 0x141BDBDB081A5B9A5D1A585B1A5E9959 PUSH1 0x82 SHL PUSH1 0x40 DUP3 ADD MSTORE ADD SWAP1 JUMP JUMPDEST SUB SWAP1 LOG1 PUSH1 0x3 SLOAD PUSH1 0x1 PUSH1 0x1 PUSH1 0xA0 SHL SUB AND SWAP2 PUSH3 0x1710 DUP2 PUSH3 0x22FD JUMP JUMPDEST MUL PUSH1 0x2 SIGNEXTEND SWAP2 PUSH3 0x171F PUSH3 0x9CD JUMP JUMPDEST PUSH1 0x1 PUSH1 0x1 PUSH1 0xA0 SHL SUB SWAP1 SWAP16 AND DUP16 MSTORE DUP15 PUSH1 0x1 PUSH1 0x1 PUSH1 0xA0 SHL SUB SWAP1 SWAP2 AND PUSH1 0x20 SWAP2 SWAP1 SWAP2 ADD MSTORE PUSH3 0xFFFFFF DUP13 AND PUSH1 0x40 DUP16 ADD MSTORE DUP14 PUSH1 0x60 ADD SWAP1 PUSH3 0x175C SWAP2 SWAP1 PUSH1 0x2 SIGNEXTEND SWAP1 MSTORE JUMP JUMPDEST PUSH1 0x2 SIGNEXTEND PUSH1 0x80 DUP14 ADD MSTORE PUSH1 0xA0 DUP13 ADD DUP2 SWAP1 MSTORE PUSH1 0x0 PUSH1 0xC0 DUP14 ADD DUP2 SWAP1 MSTORE PUSH1 0xE0 DUP14 ADD DUP2 SWAP1 MSTORE PUSH2 0x100 DUP14 ADD MSTORE ADDRESS PUSH2 0x120 DUP14 ADD MSTORE TIMESTAMP PUSH2 0x140 DUP14 ADD MSTORE PUSH1 0x5 SLOAD PUSH1 0x40 MLOAD PUSH4 0x95EA7B3 PUSH1 0xE0 SHL DUP2 MSTORE PUSH1 0x1 PUSH1 0x1 PUSH1 0xA0 SHL SUB SWAP2 DUP3 AND PUSH1 0x4 DUP3 ADD MSTORE PUSH1 0x24 DUP2 ADD SWAP3 SWAP1 SWAP3 MSTORE DUP14 AND DUP2 PUSH1 0x44 DUP2 GAS PUSH1 0x20 SWAP5 PUSH1 0x0 SWAP2 CALL DUP1 ISZERO PUSH3 0x318 JUMPI PUSH1 0x0 SWAP13 PUSH3 0x17EB PUSH3 0x190E SWAP3 DUP16 SWAP5 PUSH1 0x80 SWAP6 SWAP2 PUSH3 0x2011 JUMPI JUMPDEST POP PUSH3 0xD20 JUMP JUMPDEST PUSH1 0x0 DUP1 MLOAD PUSH1 0x20 PUSH3 0x364D DUP4 CODECOPY DUP2 MLOAD SWAP2 MSTORE PUSH1 0x40 MLOAD DUP1 PUSH3 0x1848 DUP2 PUSH1 0x80 SWAP1 PUSH1 0x20 DUP2 MSTORE PUSH1 0x23 PUSH1 0x20 DUP3 ADD MSTORE PUSH32 0x546F6B656E20617070726F76656420666F7220706F736974696F6E206D616E61 PUSH1 0x40 DUP3 ADD MSTORE PUSH3 0x33B2B9 PUSH1 0xE9 SHL PUSH1 0x60 DUP3 ADD MSTORE ADD SWAP1 JUMP JUMPDEST SUB SWAP1 LOG1 PUSH1 0x5 SLOAD PUSH3 0x1862 SWAP1 PUSH1 0x1 PUSH1 0x1 PUSH1 0xA0 SHL SUB AND PUSH3 0x253 JUMP JUMPDEST PUSH1 0x40 DUP1 MLOAD PUSH4 0x4418B22B PUSH1 0xE1 SHL DUP2 MSTORE DUP4 MLOAD PUSH1 0x1 PUSH1 0x1 PUSH1 0xA0 SHL SUB SWAP1 DUP2 AND PUSH1 0x4 DUP4 ADD MSTORE PUSH1 0x20 DUP6 ADD MLOAD DUP2 AND PUSH1 0x24 DUP4 ADD MSTORE SWAP2 DUP5 ADD MLOAD PUSH3 0xFFFFFF AND PUSH1 0x44 DUP3 ADD MSTORE PUSH1 0x60 DUP5 ADD MLOAD PUSH1 0x2 SWAP1 DUP2 SIGNEXTEND PUSH1 0x64 DUP4 ADD MSTORE PUSH1 0x80 DUP6 ADD MLOAD SWAP1 SIGNEXTEND PUSH1 0x84 DUP3 ADD MSTORE PUSH1 0xA0 DUP5 ADD MLOAD PUSH1 0xA4 DUP3 ADD MSTORE PUSH1 0xC0 DUP5 ADD MLOAD PUSH1 0xC4 DUP3 ADD MSTORE PUSH1 0xE0 DUP5 ADD MLOAD PUSH1 0xE4 DUP3 ADD MSTORE PUSH2 0x100 DUP5 ADD MLOAD PUSH2 0x104 DUP3 ADD MSTORE PUSH2 0x120 DUP5 ADD MLOAD SWAP1 SWAP2 AND PUSH2 0x124 DUP3 ADD MSTORE PUSH2 0x140 SWAP1 SWAP3 ADD MLOAD PUSH2 0x144 DUP4 ADD MSTORE SWAP1 SWAP14 DUP15 SWAP3 DUP4 SWAP2 SWAP1 DUP3 SWAP1 PUSH2 0x164 DUP3 ADD SWAP1 JUMP JUMPDEST SUB SWAP3 GAS CALL PUSH1 0x0 SWAP12 DUP13 DUP3 DUP2 SWAP3 DUP3 SWAP5 PUSH3 0x1FD1 JUMPI JUMPDEST POP PUSH3 0x1A21 JUMPI PUSH3 0x1931 PUSH3 0xBC9 JUMP JUMPDEST PUSH4 0x8C379A0 EQ PUSH3 0x197A JUMPI JUMPDEST PUSH1 0x0 DUP1 MLOAD PUSH1 0x20 PUSH3 0x364D DUP4 CODECOPY DUP2 MLOAD SWAP2 MSTORE PUSH1 0x40 MLOAD DUP1 PUSH3 0x195C DUP2 PUSH3 0xD99 JUMP JUMPDEST SUB SWAP1 LOG1 PUSH1 0x40 MLOAD PUSH3 0x461BCD PUSH1 0xE5 SHL DUP2 MSTORE DUP1 PUSH3 0x13DA PUSH1 0x4 DUP3 ADD PUSH3 0xD99 JUMP JUMPDEST PUSH3 0x1984 PUSH3 0xBE8 JUMP JUMPDEST DUP1 PUSH3 0x1991 JUMPI POP PUSH3 0x193D JUMP JUMPDEST PUSH3 0x1454 PUSH3 0x14A4 PUSH3 0x13DA SWAP3 PUSH1 0x0 DUP1 MLOAD PUSH1 0x20 PUSH3 0x364D DUP4 CODECOPY DUP2 MLOAD SWAP2 MSTORE PUSH3 0x19EC PUSH1 0x40 MLOAD PUSH3 0x1463 DUP2 PUSH3 0x1454 PUSH3 0x144D PUSH1 0x20 DUP4 ADD PUSH1 0x19 SWAP1 PUSH25 0x2837B9B4BA34B7B71036B4B73A34B733903330B4B632B21D1 PUSH1 0x3D SHL DUP2 MSTORE ADD SWAP1 JUMP JUMPDEST SUB SWAP1 LOG1 PUSH1 0x40 MLOAD PUSH25 0x2837B9B4BA34B7B71036B4B73A34B733903330B4B632B21D1 PUSH1 0x3D SHL PUSH1 0x20 DUP3 ADD MSTORE SWAP3 DUP4 SWAP2 PUSH1 0x39 DUP4 ADD PUSH3 0x149D JUMP JUMPDEST SWAP13 PUSH1 0x40 MLOAD DUP1 PUSH3 0x1A55 DUP2 PUSH1 0x60 SWAP1 PUSH1 0x20 DUP2 MSTORE PUSH1 0xF PUSH1 0x20 DUP3 ADD MSTORE PUSH15 0x141BDCDA5D1A5BDB881B5A5B9D1959 PUSH1 0x8A SHL PUSH1 0x40 DUP3 ADD MSTORE ADD SWAP1 JUMP JUMPDEST SUB PUSH1 0x0 DUP1 MLOAD PUSH1 0x20 PUSH3 0x364D DUP4 CODECOPY DUP2 MLOAD SWAP2 MSTORE SWAP2 LOG1 PUSH1 0x40 MLOAD PUSH1 0x1 PUSH1 0x1 PUSH1 0x80 SHL SUB DUP2 SWAP3 AND PUSH3 0x1AA6 SWAP1 DUP3 SWAP2 SWAP1 PUSH1 0x40 DUP4 MSTORE PUSH1 0x9 PUSH1 0x40 DUP5 ADD MSTORE PUSH9 0x4C6971756964697479 PUSH1 0xB8 SHL PUSH1 0x60 DUP5 ADD MSTORE PUSH1 0x20 PUSH1 0x80 DUP5 ADD SWAP4 ADD MSTORE JUMP JUMPDEST SUB PUSH1 0x0 DUP1 MLOAD PUSH1 0x20 PUSH3 0x362D DUP4 CODECOPY DUP2 MLOAD SWAP2 MSTORE SWAP2 LOG1 PUSH1 0x40 MLOAD PUSH3 0x1AEB DUP2 SWAP3 DUP3 SWAP2 SWAP1 PUSH1 0x40 DUP4 MSTORE PUSH1 0x7 PUSH1 0x40 DUP5 ADD MSTORE PUSH7 0x416D6F756E743 PUSH1 0xCC SHL PUSH1 0x60 DUP5 ADD MSTORE PUSH1 0x20 PUSH1 0x80 DUP5 ADD SWAP4 ADD MSTORE JUMP JUMPDEST SUB PUSH1 0x0 DUP1 MLOAD PUSH1 0x20 PUSH3 0x362D DUP4 CODECOPY DUP2 MLOAD SWAP2 MSTORE SWAP2 LOG1 PUSH1 0x40 MLOAD PUSH3 0x1B30 DUP2 SWAP3 DUP3 SWAP2 SWAP1 PUSH1 0x40 DUP4 MSTORE PUSH1 0x7 PUSH1 0x40 DUP5 ADD MSTORE PUSH7 0x416D6F756E7431 PUSH1 0xC8 SHL PUSH1 0x60 DUP5 ADD MSTORE PUSH1 0x20 PUSH1 0x80 DUP5 ADD SWAP4 ADD MSTORE JUMP JUMPDEST SUB PUSH1 0x0 DUP1 MLOAD PUSH1 0x20 PUSH3 0x362D DUP4 CODECOPY DUP2 MLOAD SWAP2 MSTORE SWAP2 LOG1 PUSH1 0x0 DUP1 MLOAD PUSH1 0x20 PUSH3 0x364D DUP4 CODECOPY DUP2 MLOAD SWAP2 MSTORE PUSH1 0x40 MLOAD DUP1 PUSH3 0x1B94 DUP2 PUSH1 0x60 SWAP1 PUSH1 0x20 DUP2 MSTORE PUSH1 0x1A PUSH1 0x20 DUP3 ADD MSTORE PUSH32 0x5472616E7366657272696E67204E465420746F206C6F636B6572000000000000 PUSH1 0x40 DUP3 ADD MSTORE ADD SWAP1 JUMP JUMPDEST SUB SWAP1 LOG1 PUSH1 0x5 SLOAD PUSH3 0x1BAE SWAP1 PUSH1 0x1 PUSH1 0x1 PUSH1 0xA0 SHL SUB AND PUSH3 0x253 JUMP JUMPDEST PUSH1 0x2 SLOAD PUSH3 0x1BC5 SWAP1 PUSH1 0x1 PUSH1 0x1 PUSH1 0xA0 SHL SUB AND PUSH3 0x253 JUMP JUMPDEST SWAP1 DUP1 EXTCODESIZE ISZERO PUSH3 0x161 JUMPI PUSH1 0x40 MLOAD PUSH4 0x21421707 PUSH1 0xE1 SHL DUP2 MSTORE ADDRESS PUSH1 0x4 DUP3 ADD MSTORE PUSH1 0x1 PUSH1 0x1 PUSH1 0xA0 SHL SUB SWAP3 SWAP1 SWAP3 AND PUSH1 0x24 DUP4 ADD MSTORE PUSH1 0x44 DUP3 ADD DUP14 SWAP1 MSTORE PUSH1 0x0 SWAP1 DUP3 SWAP1 PUSH1 0x64 SWAP1 DUP3 SWAP1 DUP5 SWAP1 GAS CALL DUP1 ISZERO PUSH3 0x318 JUMPI PUSH3 0x1FBA JUMPI JUMPDEST POP PUSH1 0x0 DUP1 MLOAD PUSH1 0x20 PUSH3 0x364D DUP4 CODECOPY DUP2 MLOAD SWAP2 MSTORE PUSH1 0x40 MLOAD DUP1 PUSH3 0x1C66 DUP2 PUSH1 0x60 SWAP1 PUSH1 0x20 DUP2 MSTORE PUSH1 0x1F PUSH1 0x20 DUP3 ADD MSTORE PUSH32 0x496E697469616C697A696E6720706F736974696F6E20696E206C6F636B657200 PUSH1 0x40 DUP3 ADD MSTORE ADD SWAP1 JUMP JUMPDEST SUB SWAP1 LOG1 PUSH1 0x2 SLOAD PUSH3 0x1C80 SWAP1 PUSH1 0x1 PUSH1 0x1 PUSH1 0xA0 SHL SUB AND PUSH3 0x253 JUMP JUMPDEST SWAP6 PUSH1 0x1 SLOAD SWAP1 PUSH3 0x1CAD PUSH3 0x1CA1 PUSH1 0x1 PUSH1 0x1 PUSH1 0x40 SHL SUB DUP5 PUSH1 0xA0 SHR AND TIMESTAMP PUSH3 0xDE4 JUMP JUMPDEST PUSH1 0x1 PUSH1 0x1 PUSH1 0x40 SHL SUB AND SWAP1 JUMP JUMPDEST SWAP8 DUP1 EXTCODESIZE ISZERO PUSH3 0x161 JUMPI PUSH1 0x40 MLOAD PUSH4 0x22614FD5 PUSH1 0xE2 SHL DUP2 MSTORE PUSH1 0x4 DUP2 ADD DUP16 SWAP1 MSTORE PUSH1 0x1 PUSH1 0x1 PUSH1 0xA0 SHL SUB SWAP1 SWAP3 AND PUSH1 0x24 DUP4 ADD MSTORE PUSH1 0x1 PUSH1 0x1 PUSH1 0x40 SHL SUB SWAP1 SWAP9 AND PUSH1 0x44 DUP3 ADD MSTORE PUSH1 0xE0 SWAP2 SWAP1 SWAP2 SHR PUSH2 0xFFFF AND PUSH1 0x64 DUP3 ADD MSTORE SWAP6 PUSH1 0x0 SWAP1 DUP8 SWAP1 DUP2 DUP4 DUP2 PUSH1 0x84 DUP2 ADD SUB SWAP3 GAS CALL DUP1 ISZERO PUSH3 0x318 JUMPI PUSH32 0xDAE899A394233EA0635E48CFC12126491C770B57E2EA82E0AAF258E023584DEE SWAP10 PUSH3 0x1DB5 SWAP8 DUP15 SWAP3 PUSH3 0x1F9C JUMPI JUMPDEST POP PUSH1 0x0 DUP1 MLOAD PUSH1 0x20 PUSH3 0x362D DUP4 CODECOPY DUP2 MLOAD SWAP2 MSTORE PUSH1 0x40 MLOAD DUP1 PUSH3 0x1D99 CALLVALUE DUP3 SWAP2 SWAP1 PUSH1 0x40 DUP4 MSTORE PUSH1 0x1A PUSH1 0x40 DUP5 ADD MSTORE PUSH32 0x52656D61696E696E672066756E647320666F7220746F6B656E73000000000000 PUSH1 0x60 DUP5 ADD MSTORE PUSH1 0x20 PUSH1 0x80 DUP5 ADD SWAP4 ADD MSTORE JUMP JUMPDEST SUB SWAP1 LOG1 CALLVALUE PUSH3 0x1DBA JUMPI JUMPDEST POP POP PUSH1 0x40 MLOAD SWAP8 DUP9 SWAP8 CALLER DUP14 DUP16 DUP12 PUSH3 0xE02 JUMP JUMPDEST SUB SWAP1 LOG1 JUMP JUMPDEST PUSH3 0x1E28 SWAP2 PUSH3 0x220 PUSH1 0x20 SWAP3 PUSH1 0x0 DUP1 MLOAD PUSH1 0x20 PUSH3 0x364D DUP4 CODECOPY DUP2 MLOAD SWAP2 MSTORE PUSH1 0x40 MLOAD DUP1 PUSH3 0x1E0E DUP2 PUSH1 0x60 SWAP1 PUSH1 0x20 DUP2 MSTORE PUSH1 0x14 PUSH1 0x20 DUP3 ADD MSTORE PUSH20 0x457865637574696E6720746F6B656E207377617 PUSH1 0x64 SHL PUSH1 0x40 DUP3 ADD MSTORE ADD SWAP1 JUMP JUMPDEST SUB SWAP1 LOG1 PUSH1 0x3 SLOAD PUSH3 0x214 SWAP1 PUSH1 0x1 PUSH1 0x1 PUSH1 0xA0 SHL SUB AND PUSH3 0x1E7 JUMP JUMPDEST SUB SWAP2 CALLVALUE SWAP1 GAS CALL PUSH1 0x0 SWAP2 DUP2 PUSH3 0x1F76 JUMPI JUMPDEST POP PUSH3 0x1F2A JUMPI POP PUSH1 0x1 PUSH3 0x1E4B PUSH3 0xBC9 JUMP JUMPDEST PUSH4 0x8C379A0 EQ PUSH3 0x1EBF JUMPI JUMPDEST PUSH3 0x1E65 JUMPI JUMPDEST DUP12 CODESIZE PUSH3 0x1DA3 JUMP JUMPDEST PUSH1 0x0 DUP1 MLOAD PUSH1 0x20 PUSH3 0x364D DUP4 CODECOPY DUP2 MLOAD SWAP2 MSTORE PUSH1 0x40 MLOAD DUP1 PUSH3 0x1EB6 DUP2 PUSH1 0x60 SWAP1 PUSH1 0x20 DUP2 MSTORE PUSH1 0x1E PUSH1 0x20 DUP3 ADD MSTORE PUSH32 0x53776170206661696C6564207769746820756E6B6E6F776E206572726F720000 PUSH1 0x40 DUP3 ADD MSTORE ADD SWAP1 JUMP JUMPDEST SUB SWAP1 LOG1 PUSH3 0x1E5D JUMP JUMPDEST PUSH3 0x1EC9 PUSH3 0xBE8 JUMP JUMPDEST DUP1 PUSH3 0x1ED7 JUMPI JUMPDEST POP PUSH3 0x1E57 JUMP JUMPDEST SWAP1 POP PUSH1 0x0 DUP1 MLOAD PUSH1 0x20 PUSH3 0x364D DUP4 CODECOPY DUP2 MLOAD SWAP2 MSTORE PUSH3 0x1F20 PUSH3 0x1454 PUSH3 0x1463 PUSH1 0x0 SWAP5 PUSH1 0x40 MLOAD SWAP3 DUP4 SWAP2 PUSH3 0x149D PUSH1 0x20 DUP5 ADD PUSH1 0xD SWAP1 PUSH13 0x29BBB0B8103330B4B632B21D1 PUSH1 0x9D SHL DUP2 MSTORE ADD SWAP1 JUMP JUMPDEST SUB SWAP1 LOG1 CODESIZE PUSH3 0x1ED0 JUMP JUMPDEST PUSH3 0x1EB6 PUSH1 0x0 DUP1 MLOAD PUSH1 0x20 PUSH3 0x362D DUP4 CODECOPY DUP2 MLOAD SWAP2 MSTORE SWAP2 PUSH1 0x40 MLOAD SWAP2 DUP3 SWAP2 DUP3 SWAP2 SWAP1 PUSH1 0x40 DUP4 MSTORE PUSH1 0xF PUSH1 0x40 DUP5 ADD MSTORE PUSH15 0x14DDD85C08185B5BDD5B9D081BDD5D PUSH1 0x8A SHL PUSH1 0x60 DUP5 ADD MSTORE PUSH1 0x20 PUSH1 0x80 DUP5 ADD SWAP4 ADD MSTORE JUMP JUMPDEST PUSH3 0x1F94 SWAP2 SWAP3 POP PUSH1 0x20 RETURNDATASIZE PUSH1 0x20 GT PUSH3 0x310 JUMPI PUSH3 0x305 DUP2 DUP4 PUSH3 0x871 JUMP JUMPDEST SWAP1 CODESIZE PUSH3 0x1E38 JUMP JUMPDEST DUP1 PUSH3 0x1FAC PUSH3 0x1FB3 SWAP3 PUSH3 0x847 JUMP JUMPDEST DUP1 PUSH3 0x3D6 JUMP JUMPDEST CODESIZE PUSH3 0x1D40 JUMP JUMPDEST DUP1 PUSH3 0x1FAC PUSH3 0x1FCA SWAP3 PUSH3 0x847 JUMP JUMPDEST CODESIZE PUSH3 0x1C14 JUMP JUMPDEST SWAP3 POP SWAP14 POP POP PUSH3 0x1FFC SWAP2 POP PUSH1 0x80 RETURNDATASIZE DUP2 GT PUSH3 0x2009 JUMPI JUMPDEST PUSH3 0x1FF3 DUP2 DUP4 PUSH3 0x871 JUMP JUMPDEST DUP2 ADD SWAP1 PUSH3 0xD65 JUMP JUMPDEST SWAP2 SWAP14 SWAP2 SWAP3 SWAP1 SWAP2 CODESIZE PUSH3 0x1921 JUMP JUMPDEST POP RETURNDATASIZE PUSH3 0x1FE7 JUMP JUMPDEST PUSH3 0x2038 SWAP2 POP PUSH1 0x20 RETURNDATASIZE PUSH1 0x20 GT PUSH3 0x203F JUMPI JUMPDEST PUSH3 0x202F DUP2 DUP4 PUSH3 0x871 JUMP JUMPDEST DUP2 ADD SWAP1 PUSH3 0xB52 JUMP JUMPDEST CODESIZE PUSH3 0x17E4 JUMP JUMPDEST POP RETURNDATASIZE PUSH3 0x2023 JUMP JUMPDEST DUP1 PUSH3 0x1FAC PUSH3 0x2057 SWAP3 PUSH3 0x847 JUMP JUMPDEST CODESIZE PUSH3 0x15A7 JUMP JUMPDEST PUSH3 0x2086 SWAP2 SWAP3 POP PUSH1 0x20 RETURNDATASIZE PUSH1 0x20 GT PUSH3 0x208E JUMPI JUMPDEST PUSH3 0x207D DUP2 DUP4 PUSH3 0x871 JUMP JUMPDEST DUP2 ADD SWAP1 PUSH3 0xBB1 JUMP JUMPDEST SWAP1 CODESIZE PUSH3 0x1381 JUMP JUMPDEST POP RETURNDATASIZE PUSH3 0x2071 JUMP JUMPDEST SWAP1 POP PUSH3 0x2136 SWAP3 POP PUSH1 0x20 SWAP2 PUSH1 0x0 DUP1 MLOAD PUSH1 0x20 PUSH3 0x364D DUP4 CODECOPY DUP2 MLOAD SWAP2 MSTORE PUSH1 0x40 MLOAD DUP1 PUSH3 0x20FC DUP2 PUSH1 0x80 SWAP1 PUSH1 0x20 DUP2 MSTORE PUSH1 0x21 PUSH1 0x20 DUP3 ADD MSTORE PUSH32 0x5472616E7366657272696E6720726563697069656E7420616C6C6F636174696F PUSH1 0x40 DUP3 ADD MSTORE PUSH1 0x37 PUSH1 0xF9 SHL PUSH1 0x60 DUP3 ADD MSTORE ADD SWAP1 JUMP JUMPDEST SUB SWAP1 LOG1 PUSH1 0x40 MLOAD PUSH4 0xA9059CBB PUSH1 0xE0 SHL DUP2 MSTORE PUSH1 0x1 PUSH1 0x1 PUSH1 0xA0 SHL SUB DUP12 AND PUSH1 0x4 DUP3 ADD MSTORE PUSH1 0x24 DUP2 ADD SWAP3 SWAP1 SWAP3 MSTORE SWAP1 SWAP3 DUP4 SWAP2 SWAP1 DUP3 SWAP1 PUSH1 0x0 SWAP1 DUP3 SWAP1 PUSH1 0x44 DUP3 ADD SWAP1 JUMP JUMPDEST SUB SWAP3 PUSH1 0x1 PUSH1 0x1 PUSH1 0xA0 SHL SUB AND GAS CALL SWAP1 DUP2 ISZERO PUSH3 0x318 JUMPI DUP16 DUP16 PUSH3 0x1284 DUP16 SWAP5 SWAP2 PUSH1 0x0 DUP1 MLOAD PUSH1 0x20 PUSH3 0x362D DUP4 CODECOPY DUP2 MLOAD SWAP2 MSTORE PUSH3 0x2225 DUP15 PUSH32 0xB3F7D6C63A62AB0E6AE5263EF1DEB9C5A64F4689288C380DB949C116314A5540 DUP16 PUSH3 0x21E8 SWAP1 PUSH3 0x21AC PUSH1 0x20 SWAP10 PUSH3 0x1374 SWAP13 PUSH1 0x0 SWAP2 PUSH3 0x2234 JUMPI JUMPDEST POP PUSH3 0xB6C JUMP JUMPDEST PUSH1 0x40 DUP1 MLOAD DUP2 DUP2 MSTORE PUSH1 0x9 SWAP2 DUP2 ADD SWAP2 SWAP1 SWAP2 MSTORE PUSH9 0x149958DA5C1A595B9D PUSH1 0xBA SHL PUSH1 0x60 DUP3 ADD MSTORE PUSH1 0x1 PUSH1 0x1 PUSH1 0xA0 SHL SUB SWAP1 SWAP2 AND PUSH1 0x20 DUP3 ADD MSTORE SWAP1 DUP2 SWAP1 PUSH1 0x80 DUP3 ADD SWAP1 JUMP JUMPDEST SUB SWAP1 LOG1 PUSH1 0x40 MLOAD SWAP2 DUP3 SWAP2 DUP3 SWAP2 SWAP1 PUSH1 0x40 DUP4 MSTORE PUSH1 0x12 PUSH1 0x40 DUP5 ADD MSTORE PUSH18 0x105B5BDD5B9D081D1C985B9CD9995C9C9959 PUSH1 0x72 SHL PUSH1 0x60 DUP5 ADD MSTORE PUSH1 0x20 PUSH1 0x80 DUP5 ADD SWAP4 ADD MSTORE JUMP JUMPDEST SUB SWAP1 LOG1 SWAP3 SWAP4 POP POP POP DUP10 PUSH3 0x1271 JUMP JUMPDEST PUSH3 0x224F SWAP2 POP DUP12 RETURNDATASIZE DUP14 GT PUSH3 0x203F JUMPI PUSH3 0x202F DUP2 DUP4 PUSH3 0x871 JUMP JUMPDEST CODESIZE PUSH3 0x21A5 JUMP JUMPDEST POP PUSH1 0x1 PUSH1 0x1 PUSH1 0xA0 SHL SUB DUP11 AND ISZERO ISZERO PUSH3 0x126B JUMP JUMPDEST PUSH3 0x2281 SWAP3 POP SWAP1 PUSH3 0x227B SWAP2 PUSH3 0x8D0 JUMP JUMPDEST PUSH1 0x2 SIGNEXTEND SWAP1 JUMP JUMPDEST ISZERO DUP3 DUP16 PUSH3 0xFC3 JUMP JUMPDEST PUSH3 0x22B1 SWAP2 POP PUSH1 0x20 RETURNDATASIZE PUSH1 0x20 GT PUSH3 0x22B8 JUMPI JUMPDEST PUSH3 0x22A8 DUP2 DUP4 PUSH3 0x871 JUMP JUMPDEST DUP2 ADD SWAP1 PUSH3 0x893 JUMP JUMPDEST CODESIZE PUSH3 0xF16 JUMP JUMPDEST POP RETURNDATASIZE PUSH3 0x229C JUMP JUMPDEST ISZERO PUSH3 0x22C8 JUMPI JUMP JUMPDEST PUSH1 0x40 MLOAD PUSH3 0x461BCD PUSH1 0xE5 SHL DUP2 MSTORE PUSH1 0x20 PUSH1 0x4 DUP3 ADD MSTORE PUSH1 0xD PUSH1 0x24 DUP3 ADD MSTORE PUSH13 0x9AEAE6E840E6CADCC8408AA89 PUSH1 0x9B SHL PUSH1 0x44 DUP3 ADD MSTORE PUSH1 0x64 SWAP1 REVERT JUMPDEST PUSH1 0x2 SIGNEXTEND DUP1 ISZERO PUSH3 0x8E3 JUMPI PUSH3 0xD89E8 SDIV SWAP1 JUMP JUMPDEST SWAP1 SWAP3 PUSH3 0x23C7 PUSH3 0x23D4 PUSH3 0x2423 SWAP5 PUSH3 0x23B2 PUSH3 0x235E SWAP8 PUSH3 0x23A5 PUSH3 0x8AB SWAP13 PUSH3 0x253 SWAP13 PUSH1 0x40 MLOAD SWAP10 DUP11 PUSH1 0x20 SWAP14 DUP15 SWAP5 DUP6 DUP4 ADD SWAP4 DUP5 PUSH1 0x20 SWAP1 SWAP4 SWAP3 SWAP2 SWAP4 PUSH1 0x40 DUP2 ADD SWAP5 PUSH1 0x1 DUP1 PUSH1 0xA0 SHL SUB AND DUP2 MSTORE ADD MSTORE JUMP JUMPDEST SUB SWAP11 PUSH3 0x2374 PUSH1 0x1F NOT SWAP13 DUP14 DUP2 ADD DUP4 MSTORE DUP3 PUSH3 0x871 JUMP JUMPDEST MLOAD SWAP1 KECCAK256 SWAP13 PUSH2 0xAF2 SWAP10 PUSH3 0x2389 DUP5 DUP13 ADD PUSH3 0x9EE JUMP JUMPDEST SWAP11 DUP1 DUP13 MSTORE PUSH3 0x2B3B DUP6 DUP14 ADD CODECOPY PUSH1 0x40 MLOAD SWAP8 DUP9 SWAP7 ADDRESS SWAP6 DUP9 ADD PUSH3 0xA1F JUMP JUMPDEST SUB DUP7 DUP2 ADD DUP4 MSTORE DUP3 PUSH3 0x871 JUMP JUMPDEST PUSH1 0x40 MLOAD SWAP3 DUP4 SWAP2 PUSH3 0x149D DUP10 DUP5 ADD DUP1 SWAP8 PUSH3 0xA8A JUMP JUMPDEST SUB DUP5 DUP2 ADD DUP4 MSTORE DUP3 PUSH3 0x871 JUMP JUMPDEST MLOAD SWAP1 KECCAK256 PUSH1 0x40 MLOAD PUSH1 0x1 PUSH1 0x1 PUSH1 0xF8 SHL SUB NOT SWAP5 DUP2 ADD SWAP5 DUP6 MSTORE ADDRESS PUSH1 0x60 SHL PUSH12 0xFFFFFFFFFFFFFFFFFFFFFFFF NOT AND PUSH1 0x1 DUP7 ADD MSTORE PUSH1 0x15 DUP6 ADD SWAP6 SWAP1 SWAP6 MSTORE PUSH1 0x35 DUP5 ADD MSTORE SWAP2 SWAP3 SWAP2 DUP3 PUSH1 0x55 DUP6 ADD SUB SWAP1 DUP2 ADD DUP4 MSTORE DUP3 PUSH3 0x871 JUMP JUMPDEST MLOAD SWAP1 KECCAK256 PUSH1 0x1 PUSH1 0x1 PUSH1 0xA0 SHL SUB AND SWAP1 JUMP JUMPDEST SWAP1 SWAP2 SWAP6 SWAP4 SWAP3 SWAP5 PUSH1 0x0 SWAP4 PUSH1 0x1 DUP1 PUSH1 0xA0 SHL SUB SWAP7 DUP8 PUSH1 0x3 SLOAD AND SWAP6 JUMPDEST PUSH2 0x3E8 DUP2 LT PUSH3 0x2499 JUMPI PUSH1 0x40 MLOAD PUSH3 0x461BCD PUSH1 0xE5 SHL DUP2 MSTORE PUSH1 0x20 PUSH1 0x4 DUP3 ADD MSTORE PUSH1 0x1C PUSH1 0x24 DUP3 ADD MSTORE PUSH32 0x436F756C64206E6F742066696E64207375697461626C652073616C7400000000 PUSH1 0x44 DUP3 ADD MSTORE PUSH1 0x64 SWAP1 REVERT JUMPDEST PUSH3 0x24AA DUP2 DUP6 DUP6 DUP6 DUP15 DUP12 DUP12 PUSH3 0x230F JUMP JUMPDEST DUP8 DUP11 DUP3 AND LT DUP1 PUSH3 0x24DC JUMPI JUMPDEST PUSH3 0x24CF JUMPI POP PUSH1 0x0 NOT DUP2 EQ PUSH3 0x9A7 JUMPI PUSH1 0x1 ADD PUSH3 0x244A JUMP JUMPDEST SWAP1 SWAP10 POP SWAP8 POP POP POP POP POP POP POP JUMP JUMPDEST POP DUP1 EXTCODESIZE ISZERO PUSH3 0x24B6 JUMP JUMPDEST PUSH1 0x1 PUSH1 0xFF SHL DUP2 EQ PUSH3 0x9A7 JUMPI PUSH1 0x0 SUB SWAP1 JUMP JUMPDEST ISZERO PUSH3 0x2500 JUMPI JUMP JUMPDEST PUSH1 0x40 MLOAD PUSH3 0x461BCD PUSH1 0xE5 SHL DUP2 MSTORE PUSH1 0x20 PUSH1 0x4 DUP3 ADD MSTORE PUSH1 0x1 PUSH1 0x24 DUP3 ADD MSTORE PUSH1 0x15 PUSH1 0xFA SHL PUSH1 0x44 DUP3 ADD MSTORE PUSH1 0x64 SWAP1 REVERT JUMPDEST SWAP1 PUSH16 0xFFF97272373D413259A46990580E213A SWAP2 DUP3 DUP2 MUL SWAP3 DUP2 DUP5 DIV EQ SWAP1 ISZERO OR ISZERO PUSH3 0x9A7 JUMPI JUMP JUMPDEST SWAP1 PUSH16 0xFFF2E50F5F656932EF12357CF3C7FDCC SWAP2 DUP3 DUP2 MUL SWAP3 DUP2 DUP5 DIV EQ SWAP1 ISZERO OR ISZERO PUSH3 0x9A7 JUMPI JUMP JUMPDEST SWAP1 PUSH16 0xFFE5CACA7E10E4E61C3624EAA0941CD0 SWAP2 DUP3 DUP2 MUL SWAP3 DUP2 DUP5 DIV EQ SWAP1 ISZERO OR ISZERO PUSH3 0x9A7 JUMPI JUMP JUMPDEST SWAP1 PUSH16 0xFFCB9843D60F6159C9DB58835C926644 SWAP2 DUP3 DUP2 MUL SWAP3 DUP2 DUP5 DIV EQ SWAP1 ISZERO OR ISZERO PUSH3 0x9A7 JUMPI JUMP JUMPDEST SWAP1 PUSH16 0xFF973B41FA98C081472E6896DFB254C0 SWAP2 DUP3 DUP2 MUL SWAP3 DUP2 DUP5 DIV EQ SWAP1 ISZERO OR ISZERO PUSH3 0x9A7 JUMPI JUMP JUMPDEST SWAP1 PUSH16 0xFF2EA16466C96A3843EC78B326B52861 SWAP2 DUP3 DUP2 MUL SWAP3 DUP2 DUP5 DIV EQ SWAP1 ISZERO OR ISZERO PUSH3 0x9A7 JUMPI JUMP JUMPDEST SWAP1 PUSH16 0xFE5DEE046A99A2A811C461F1969C3053 SWAP2 DUP3 DUP2 MUL SWAP3 DUP2 DUP5 DIV EQ SWAP1 ISZERO OR ISZERO PUSH3 0x9A7 JUMPI JUMP JUMPDEST SWAP1 PUSH16 0xFCBE86C7900A88AEDCFFC83B479AA3A4 SWAP2 DUP3 DUP2 MUL SWAP3 DUP2 DUP5 DIV EQ SWAP1 ISZERO OR ISZERO PUSH3 0x9A7 JUMPI JUMP JUMPDEST SWAP1 PUSH16 0xF987A7253AC413176F2B074CF7815E54 SWAP2 DUP3 DUP2 MUL SWAP3 DUP2 DUP5 DIV EQ SWAP1 ISZERO OR ISZERO PUSH3 0x9A7 JUMPI JUMP JUMPDEST SWAP1 PUSH16 0xF3392B0822B70005940C7A398E4B70F3 SWAP2 DUP3 DUP2 MUL SWAP3 DUP2 DUP5 DIV EQ SWAP1 ISZERO OR ISZERO PUSH3 0x9A7 JUMPI JUMP JUMPDEST SWAP1 PUSH16 0xE7159475A2C29B7443B29C7FA6E889D9 SWAP2 DUP3 DUP2 MUL SWAP3 DUP2 DUP5 DIV EQ SWAP1 ISZERO OR ISZERO PUSH3 0x9A7 JUMPI JUMP JUMPDEST SWAP1 PUSH16 0xD097F3BDFD2022B8845AD8F792AA5825 SWAP2 DUP3 DUP2 MUL SWAP3 DUP2 DUP5 DIV EQ SWAP1 ISZERO OR ISZERO PUSH3 0x9A7 JUMPI JUMP JUMPDEST SWAP1 PUSH16 0xA9F746462D870FDF8A65DC1F90E061E5 SWAP2 DUP3 DUP2 MUL SWAP3 DUP2 DUP5 DIV EQ SWAP1 ISZERO OR ISZERO PUSH3 0x9A7 JUMPI JUMP JUMPDEST SWAP1 PUSH16 0x70D869A156D2A1B890BB3DF62BAF32F7 SWAP2 DUP3 DUP2 MUL SWAP3 DUP2 DUP5 DIV EQ SWAP1 ISZERO OR ISZERO PUSH3 0x9A7 JUMPI JUMP JUMPDEST SWAP1 PUSH16 0x31BE135F97D08FD981231505542FCFA6 SWAP2 DUP3 DUP2 MUL SWAP3 DUP2 DUP5 DIV EQ SWAP1 ISZERO OR ISZERO PUSH3 0x9A7 JUMPI JUMP JUMPDEST SWAP1 PUSH16 0x9AA508B5B7A84E1C677DE54F3E99BC9 SWAP2 DUP3 DUP2 MUL SWAP3 DUP2 DUP5 DIV EQ SWAP1 ISZERO OR ISZERO PUSH3 0x9A7 JUMPI JUMP JUMPDEST SWAP1 PUSH15 0x5D6AF8DEDB81196699C329225EE604 SWAP2 DUP3 DUP2 MUL SWAP3 DUP2 DUP5 DIV EQ SWAP1 ISZERO OR ISZERO PUSH3 0x9A7 JUMPI JUMP JUMPDEST SWAP1 PUSH14 0x2216E584F5FA1EA926041BEDFE98 SWAP2 DUP3 DUP2 MUL SWAP3 DUP2 DUP5 DIV EQ SWAP1 ISZERO OR ISZERO PUSH3 0x9A7 JUMPI JUMP JUMPDEST SWAP1 PUSH12 0x48A170391F7DC42444E8FA2 SWAP2 DUP3 DUP2 MUL SWAP3 DUP2 DUP5 DIV EQ SWAP1 ISZERO OR ISZERO PUSH3 0x9A7 JUMPI JUMP JUMPDEST DUP1 ISZERO PUSH3 0x8E3 JUMPI PUSH1 0x0 NOT DIV SWAP1 JUMP JUMPDEST DUP1 PUSH1 0x2 SIGNEXTEND SWAP1 PUSH1 0x0 DUP3 SLT PUSH1 0x0 EQ PUSH3 0x2B33 JUMPI PUSH3 0x281E DUP3 PUSH3 0x24E6 JUMP JUMPDEST SWAP2 JUMPDEST PUSH3 0x2831 PUSH3 0xD89E8 DUP5 GT ISZERO PUSH3 0x24F8 JUMP JUMPDEST PUSH1 0x1 DUP4 AND ISZERO PUSH3 0x2B20 JUMPI PUSH1 0x1 PUSH1 0x1 PUSH1 0x88 SHL SUB PUSH16 0xFFFCB933BD6FAD37AA2D162D1A594001 JUMPDEST AND SWAP3 PUSH1 0x2 DUP2 AND PUSH3 0x2B09 JUMPI JUMPDEST PUSH1 0x4 DUP2 AND PUSH3 0x2AF2 JUMPI JUMPDEST PUSH1 0x8 DUP2 AND PUSH3 0x2ADB JUMPI JUMPDEST PUSH1 0x10 DUP2 AND PUSH3 0x2AC4 JUMPI JUMPDEST PUSH1 0x20 DUP2 AND PUSH3 0x2AAD JUMPI JUMPDEST PUSH1 0x40 DUP2 AND PUSH3 0x2A96 JUMPI JUMPDEST PUSH1 0x80 DUP2 AND PUSH3 0x2A7F JUMPI JUMPDEST PUSH2 0x100 DUP2 AND PUSH3 0x2A68 JUMPI JUMPDEST PUSH2 0x200 DUP2 AND PUSH3 0x2A51 JUMPI JUMPDEST PUSH2 0x400 DUP2 AND PUSH3 0x2A3A JUMPI JUMPDEST PUSH2 0x800 DUP2 AND PUSH3 0x2A23 JUMPI JUMPDEST PUSH2 0x1000 DUP2 AND PUSH3 0x2A0C JUMPI JUMPDEST PUSH2 0x2000 DUP2 AND PUSH3 0x29F5 JUMPI JUMPDEST PUSH2 0x4000 DUP2 AND PUSH3 0x29DE JUMPI JUMPDEST PUSH2 0x8000 DUP2 AND PUSH3 0x29C7 JUMPI JUMPDEST PUSH3 0x10000 DUP2 AND PUSH3 0x29B0 JUMPI JUMPDEST PUSH3 0x20000 DUP2 AND PUSH3 0x2999 JUMPI JUMPDEST PUSH3 0x40000 DUP2 AND PUSH3 0x297C JUMPI JUMPDEST PUSH3 0x80000 AND PUSH3 0x295B JUMPI JUMPDEST PUSH1 0x0 SLT PUSH3 0x2941 JUMPI JUMPDEST PUSH4 0xFFFFFFFF SWAP1 ISZERO ISZERO PUSH1 0xE0 SHL SWAP2 ADD PUSH1 0x20 SHR OR SWAP1 JUMP JUMPDEST SWAP1 PUSH3 0x2952 PUSH4 0xFFFFFFFF SWAP2 PUSH3 0x27F4 JUMP JUMPDEST SWAP2 SWAP1 POP PUSH3 0x292D JUMP JUMPDEST SWAP2 PUSH3 0x2973 PUSH3 0x296D PUSH1 0x0 SWAP3 PUSH3 0x27D2 JUMP JUMPDEST PUSH1 0x80 SHR SWAP1 JUMP JUMPDEST SWAP3 SWAP1 POP PUSH3 0x2924 JUMP JUMPDEST SWAP3 PUSH3 0x2990 PUSH3 0x296D PUSH3 0x80000 SWAP3 PUSH3 0x27AE JUMP JUMPDEST SWAP4 SWAP1 POP PUSH3 0x2919 JUMP JUMPDEST SWAP3 PUSH3 0x296D PUSH3 0x29A9 SWAP2 PUSH3 0x2789 JUMP JUMPDEST SWAP3 PUSH3 0x290D JUMP JUMPDEST SWAP3 PUSH3 0x296D PUSH3 0x29C0 SWAP2 PUSH3 0x2763 JUMP JUMPDEST SWAP3 PUSH3 0x2901 JUMP JUMPDEST SWAP3 PUSH3 0x296D PUSH3 0x29D7 SWAP2 PUSH3 0x273D JUMP JUMPDEST SWAP3 PUSH3 0x28F5 JUMP JUMPDEST SWAP3 PUSH3 0x296D PUSH3 0x29EE SWAP2 PUSH3 0x2717 JUMP JUMPDEST SWAP3 PUSH3 0x28EA JUMP JUMPDEST SWAP3 PUSH3 0x296D PUSH3 0x2A05 SWAP2 PUSH3 0x26F1 JUMP JUMPDEST SWAP3 PUSH3 0x28DF JUMP JUMPDEST SWAP3 PUSH3 0x296D PUSH3 0x2A1C SWAP2 PUSH3 0x26CB JUMP JUMPDEST SWAP3 PUSH3 0x28D4 JUMP JUMPDEST SWAP3 PUSH3 0x296D PUSH3 0x2A33 SWAP2 PUSH3 0x26A5 JUMP JUMPDEST SWAP3 PUSH3 0x28C9 JUMP JUMPDEST SWAP3 PUSH3 0x296D PUSH3 0x2A4A SWAP2 PUSH3 0x267F JUMP JUMPDEST SWAP3 PUSH3 0x28BE JUMP JUMPDEST SWAP3 PUSH3 0x296D PUSH3 0x2A61 SWAP2 PUSH3 0x2659 JUMP JUMPDEST SWAP3 PUSH3 0x28B3 JUMP JUMPDEST SWAP3 PUSH3 0x296D PUSH3 0x2A78 SWAP2 PUSH3 0x2633 JUMP JUMPDEST SWAP3 PUSH3 0x28A8 JUMP JUMPDEST SWAP3 PUSH3 0x296D PUSH3 0x2A8F SWAP2 PUSH3 0x260D JUMP JUMPDEST SWAP3 PUSH3 0x289D JUMP JUMPDEST SWAP3 PUSH3 0x296D PUSH3 0x2AA6 SWAP2 PUSH3 0x25E7 JUMP JUMPDEST SWAP3 PUSH3 0x2893 JUMP JUMPDEST SWAP3 PUSH3 0x296D PUSH3 0x2ABD SWAP2 PUSH3 0x25C1 JUMP JUMPDEST SWAP3 PUSH3 0x2889 JUMP JUMPDEST SWAP3 PUSH3 0x296D PUSH3 0x2AD4 SWAP2 PUSH3 0x259B JUMP JUMPDEST SWAP3 PUSH3 0x287F JUMP JUMPDEST SWAP3 PUSH3 0x296D PUSH3 0x2AEB SWAP2 PUSH3 0x2575 JUMP JUMPDEST SWAP3 PUSH3 0x2875 JUMP JUMPDEST SWAP3 PUSH3 0x296D PUSH3 0x2B02 SWAP2 PUSH3 0x254F JUMP JUMPDEST SWAP3 PUSH3 0x286B JUMP JUMPDEST SWAP3 PUSH3 0x296D PUSH3 0x2B19 SWAP2 PUSH3 0x2529 JUMP JUMPDEST SWAP3 PUSH3 0x2861 JUMP JUMPDEST PUSH1 0x1 PUSH1 0x1 PUSH1 0x88 SHL SUB PUSH1 0x1 PUSH1 0x80 SHL PUSH3 0x2855 JUMP JUMPDEST DUP2 PUSH3 0x2820 JUMP INVALID PUSH1 0x40 PUSH1 0x80 DUP2 MSTORE CALLVALUE PUSH3 0x3B5 JUMPI PUSH3 0xAF2 DUP1 CODESIZE SUB DUP1 PUSH3 0x1E DUP2 PUSH3 0x3BA JUMP JUMPDEST SWAP3 DUP4 CODECOPY DUP2 ADD PUSH1 0x80 DUP3 DUP3 SUB SLT PUSH3 0x3B5 JUMPI DUP2 MLOAD PUSH1 0x1 PUSH1 0x1 PUSH1 0x40 SHL SUB SWAP3 SWAP1 DUP4 DUP2 GT PUSH3 0x3B5 JUMPI DUP3 PUSH3 0x50 SWAP2 DUP4 ADD PUSH3 0x3E0 JUMP JUMPDEST PUSH1 0x20 SWAP3 DUP4 DUP4 ADD MLOAD SWAP1 DUP6 DUP3 GT PUSH3 0x3B5 JUMPI PUSH3 0x6D SWAP2 DUP5 ADD PUSH3 0x3E0 JUMP JUMPDEST SWAP1 PUSH1 0x60 DUP7 DUP5 ADD MLOAD SWAP4 ADD MLOAD SWAP5 PUSH1 0x1 DUP1 PUSH1 0xA0 SHL SUB DUP7 AND DUP1 SWAP7 SUB PUSH3 0x3B5 JUMPI DUP2 MLOAD DUP2 DUP2 GT PUSH3 0x2B5 JUMPI PUSH1 0x3 SWAP1 DUP2 SLOAD SWAP1 PUSH1 0x1 SWAP5 DUP6 DUP4 DUP2 SHR SWAP4 AND DUP1 ISZERO PUSH3 0x3AA JUMPI JUMPDEST DUP10 DUP5 LT EQ PUSH3 0x394 JUMPI DUP2 SWAP1 PUSH1 0x1F SWAP4 DUP5 DUP2 GT PUSH3 0x33E JUMPI JUMPDEST POP DUP10 SWAP1 DUP5 DUP4 GT PUSH1 0x1 EQ PUSH3 0x2D7 JUMPI PUSH1 0x0 SWAP3 PUSH3 0x2CB JUMPI JUMPDEST POP POP PUSH1 0x0 NOT DUP3 DUP6 SHL SHR NOT AND SWAP1 DUP6 SHL OR DUP3 SSTORE JUMPDEST DUP5 MLOAD SWAP3 DUP4 GT PUSH3 0x2B5 JUMPI PUSH1 0x4 SWAP5 DUP6 SLOAD DUP6 DUP2 DUP2 SHR SWAP2 AND DUP1 ISZERO PUSH3 0x2AA JUMPI JUMPDEST DUP10 DUP3 LT EQ PUSH3 0x295 JUMPI DUP3 DUP2 GT PUSH3 0x24A JUMPI JUMPDEST POP DUP8 SWAP2 DUP5 GT PUSH1 0x1 EQ PUSH3 0x1DF JUMPI SWAP4 DUP4 SWAP5 SWAP2 DUP5 SWAP3 PUSH1 0x0 SWAP6 PUSH3 0x1D3 JUMPI JUMPDEST POP POP SHL SWAP3 PUSH1 0x0 NOT SWAP2 SHL SHR NOT AND OR DUP2 SSTORE JUMPDEST DUP4 ISZERO PUSH3 0x1BC JUMPI PUSH1 0x2 SLOAD SWAP1 DUP3 DUP3 ADD DUP1 SWAP3 GT PUSH3 0x1A7 JUMPI POP PUSH1 0x2 SSTORE PUSH1 0x0 DUP4 DUP2 MSTORE DUP1 DUP4 MSTORE DUP5 DUP2 KECCAK256 DUP1 SLOAD DUP4 ADD SWAP1 SSTORE DUP5 MLOAD SWAP2 DUP3 MSTORE SWAP2 PUSH32 0xDDF252AD1BE2C89B69C2B068FC378DAA952BA7F163C4A11628F55A4DF523B3EF SWAP2 LOG3 MLOAD PUSH2 0x69F SWAP1 DUP2 PUSH3 0x453 DUP3 CODECOPY RETURN JUMPDEST PUSH1 0x11 SWAP1 PUSH4 0x4E487B71 PUSH1 0xE0 SHL PUSH1 0x0 MSTORE MSTORE PUSH1 0x24 PUSH1 0x0 REVERT JUMPDEST PUSH1 0x24 SWAP1 PUSH1 0x0 DUP7 MLOAD SWAP2 PUSH4 0xEC442F05 PUSH1 0xE0 SHL DUP4 MSTORE DUP3 ADD MSTORE REVERT JUMPDEST ADD MLOAD SWAP4 POP CODESIZE DUP1 PUSH3 0x135 JUMP JUMPDEST SWAP2 SWAP1 PUSH1 0x1F NOT DUP5 AND SWAP3 DUP7 PUSH1 0x0 MSTORE DUP5 DUP10 PUSH1 0x0 KECCAK256 SWAP5 PUSH1 0x0 JUMPDEST DUP12 DUP10 DUP4 DUP4 LT PUSH3 0x232 JUMPI POP POP POP LT PUSH3 0x217 JUMPI JUMPDEST POP POP POP POP DUP2 SHL ADD DUP2 SSTORE PUSH3 0x145 JUMP JUMPDEST ADD MLOAD SWAP1 PUSH1 0xF8 DUP5 PUSH1 0x0 NOT SWAP3 SHL AND SHR NOT AND SWAP1 SSTORE CODESIZE DUP1 DUP1 DUP1 PUSH3 0x208 JUMP JUMPDEST DUP7 DUP7 ADD MLOAD DUP10 SSTORE SWAP1 SWAP8 ADD SWAP7 SWAP5 DUP6 ADD SWAP5 DUP9 SWAP4 POP ADD PUSH3 0x1F4 JUMP JUMPDEST DUP7 PUSH1 0x0 MSTORE DUP9 PUSH1 0x0 KECCAK256 DUP4 DUP1 DUP8 ADD PUSH1 0x5 SHR DUP3 ADD SWAP3 DUP12 DUP9 LT PUSH3 0x28B JUMPI JUMPDEST ADD PUSH1 0x5 SHR ADD SWAP1 DUP7 SWAP1 JUMPDEST DUP3 DUP2 LT PUSH3 0x27E JUMPI POP POP PUSH3 0x119 JUMP JUMPDEST PUSH1 0x0 DUP2 SSTORE ADD DUP7 SWAP1 PUSH3 0x26E JUMP JUMPDEST SWAP3 POP DUP2 SWAP3 PUSH3 0x265 JUMP JUMPDEST PUSH1 0x22 DUP8 PUSH4 0x4E487B71 PUSH1 0xE0 SHL PUSH1 0x0 MSTORE MSTORE PUSH1 0x24 PUSH1 0x0 REVERT JUMPDEST SWAP1 PUSH1 0x7F AND SWAP1 PUSH3 0x107 JUMP JUMPDEST PUSH4 0x4E487B71 PUSH1 0xE0 SHL PUSH1 0x0 MSTORE PUSH1 0x41 PUSH1 0x4 MSTORE PUSH1 0x24 PUSH1 0x0 REVERT JUMPDEST ADD MLOAD SWAP1 POP CODESIZE DUP1 PUSH3 0xD8 JUMP JUMPDEST SWAP1 DUP8 SWAP4 POP PUSH1 0x1F NOT DUP4 AND SWAP2 DUP7 PUSH1 0x0 MSTORE DUP12 PUSH1 0x0 KECCAK256 SWAP3 PUSH1 0x0 JUMPDEST DUP14 DUP3 DUP3 LT PUSH3 0x327 JUMPI POP POP DUP5 GT PUSH3 0x30E JUMPI JUMPDEST POP POP POP DUP2 SHL ADD DUP3 SSTORE PUSH3 0xEA JUMP JUMPDEST ADD MLOAD PUSH1 0x0 NOT DUP4 DUP8 SHL PUSH1 0xF8 AND SHR NOT AND SWAP1 SSTORE CODESIZE DUP1 DUP1 PUSH3 0x300 JUMP JUMPDEST DUP4 DUP6 ADD MLOAD DUP7 SSTORE DUP12 SWAP8 SWAP1 SWAP6 ADD SWAP5 SWAP4 DUP5 ADD SWAP4 ADD PUSH3 0x2ED JUMP JUMPDEST SWAP1 SWAP2 POP DUP5 PUSH1 0x0 MSTORE DUP10 PUSH1 0x0 KECCAK256 DUP5 DUP1 DUP6 ADD PUSH1 0x5 SHR DUP3 ADD SWAP3 DUP13 DUP7 LT PUSH3 0x38A JUMPI JUMPDEST SWAP2 DUP10 SWAP2 DUP7 SWAP6 SWAP5 SWAP4 ADD PUSH1 0x5 SHR ADD SWAP2 JUMPDEST DUP3 DUP2 LT PUSH3 0x37A JUMPI POP POP PUSH3 0xC1 JUMP JUMPDEST PUSH1 0x0 DUP2 SSTORE DUP6 SWAP5 POP DUP10 SWAP2 ADD PUSH3 0x36A JUMP JUMPDEST SWAP3 POP DUP2 SWAP3 PUSH3 0x35C JUMP JUMPDEST PUSH4 0x4E487B71 PUSH1 0xE0 SHL PUSH1 0x0 MSTORE PUSH1 0x22 PUSH1 0x4 MSTORE PUSH1 0x24 PUSH1 0x0 REVERT JUMPDEST SWAP3 PUSH1 0x7F AND SWAP3 PUSH3 0xAA JUMP JUMPDEST PUSH1 0x0 DUP1 REVERT JUMPDEST PUSH1 0x40 MLOAD SWAP2 SWAP1 PUSH1 0x1F ADD PUSH1 0x1F NOT AND DUP3 ADD PUSH1 0x1 PUSH1 0x1 PUSH1 0x40 SHL SUB DUP2 GT DUP4 DUP3 LT OR PUSH3 0x2B5 JUMPI PUSH1 0x40 MSTORE JUMP JUMPDEST SWAP2 SWAP1 DUP1 PUSH1 0x1F DUP5 ADD SLT ISZERO PUSH3 0x3B5 JUMPI DUP3 MLOAD PUSH1 0x1 PUSH1 0x1 PUSH1 0x40 SHL SUB DUP2 GT PUSH3 0x2B5 JUMPI PUSH1 0x20 SWAP1 PUSH3 0x416 PUSH1 0x1F DUP3 ADD PUSH1 0x1F NOT AND DUP4 ADD PUSH3 0x3BA JUMP JUMPDEST SWAP3 DUP2 DUP5 MSTORE DUP3 DUP3 DUP8 ADD ADD GT PUSH3 0x3B5 JUMPI PUSH1 0x0 JUMPDEST DUP2 DUP2 LT PUSH3 0x43E JUMPI POP DUP3 PUSH1 0x0 SWAP4 SWAP5 SWAP6 POP ADD ADD MSTORE SWAP1 JUMP JUMPDEST DUP6 DUP2 ADD DUP4 ADD MLOAD DUP5 DUP3 ADD DUP5 ADD MSTORE DUP3 ADD PUSH3 0x428 JUMP INVALID PUSH1 0x80 PUSH1 0x40 DUP2 DUP2 MSTORE PUSH1 0x4 SWAP2 DUP3 CALLDATASIZE LT ISZERO PUSH2 0x16 JUMPI PUSH1 0x0 DUP1 REVERT JUMPDEST PUSH1 0x0 SWAP3 DUP4 CALLDATALOAD PUSH1 0xE0 SHR SWAP2 DUP3 PUSH4 0x6FDDE03 EQ PUSH2 0x439 JUMPI POP DUP2 PUSH4 0x95EA7B3 EQ PUSH2 0x38B JUMPI DUP2 PUSH4 0x18160DDD EQ PUSH2 0x36C JUMPI DUP2 PUSH4 0x23B872DD EQ PUSH2 0x275 JUMPI DUP2 PUSH4 0x313CE567 EQ PUSH2 0x259 JUMPI DUP2 PUSH4 0x70A08231 EQ PUSH2 0x222 JUMPI DUP2 PUSH4 0x95D89B41 EQ PUSH2 0x103 JUMPI POP DUP1 PUSH4 0xA9059CBB EQ PUSH2 0xD3 JUMPI PUSH4 0xDD62ED3E EQ PUSH2 0x88 JUMPI PUSH1 0x0 DUP1 REVERT JUMPDEST CALLVALUE PUSH2 0xCF JUMPI DUP1 PUSH1 0x3 NOT CALLDATASIZE ADD SLT PUSH2 0xCF JUMPI DUP1 PUSH1 0x20 SWAP3 PUSH2 0xA4 PUSH2 0x55A JUMP JUMPDEST PUSH2 0xAC PUSH2 0x575 JUMP JUMPDEST PUSH1 0x1 PUSH1 0x1 PUSH1 0xA0 SHL SUB SWAP2 DUP3 AND DUP4 MSTORE PUSH1 0x1 DUP7 MSTORE DUP4 DUP4 KECCAK256 SWAP2 AND DUP3 MSTORE DUP5 MSTORE KECCAK256 SLOAD SWAP1 MLOAD SWAP1 DUP2 MSTORE RETURN JUMPDEST POP DUP1 REVERT JUMPDEST POP CALLVALUE PUSH2 0xCF JUMPI DUP1 PUSH1 0x3 NOT CALLDATASIZE ADD SLT PUSH2 0xCF JUMPI PUSH1 0x20 SWAP1 PUSH2 0xFC PUSH2 0xF2 PUSH2 0x55A JUMP JUMPDEST PUSH1 0x24 CALLDATALOAD SWAP1 CALLER PUSH2 0x58B JUMP JUMPDEST MLOAD PUSH1 0x1 DUP2 MSTORE RETURN JUMPDEST DUP4 DUP4 CALLVALUE PUSH2 0xCF JUMPI DUP2 PUSH1 0x3 NOT CALLDATASIZE ADD SLT PUSH2 0xCF JUMPI DUP1 MLOAD SWAP1 DUP3 DUP5 SLOAD PUSH1 0x1 DUP2 DUP2 SHR SWAP1 DUP1 DUP4 AND SWAP3 DUP4 ISZERO PUSH2 0x218 JUMPI JUMPDEST PUSH1 0x20 SWAP4 DUP5 DUP5 LT DUP2 EQ PUSH2 0x205 JUMPI DUP4 DUP9 MSTORE SWAP1 DUP2 ISZERO PUSH2 0x1E9 JUMPI POP PUSH1 0x1 EQ PUSH2 0x194 JUMPI JUMPDEST POP POP POP DUP3 SWAP1 SUB PUSH1 0x1F ADD PUSH1 0x1F NOT AND DUP3 ADD SWAP3 PUSH8 0xFFFFFFFFFFFFFFFF DUP5 GT DUP4 DUP6 LT OR PUSH2 0x181 JUMPI POP DUP3 SWAP2 DUP3 PUSH2 0x17D SWAP3 MSTORE DUP3 PUSH2 0x511 JUMP JUMPDEST SUB SWAP1 RETURN JUMPDEST PUSH4 0x4E487B71 PUSH1 0xE0 SHL DUP2 MSTORE PUSH1 0x41 DUP6 MSTORE PUSH1 0x24 SWAP1 REVERT JUMPDEST DUP8 DUP8 MSTORE SWAP2 SWAP3 POP DUP6 SWAP2 DUP4 PUSH32 0x8A35ACFBC15FF81A39AE7D344FD709F28E8600B4AA8C65C6B64BFE7FE36BD19B JUMPDEST DUP4 DUP6 LT PUSH2 0x1D5 JUMPI POP POP POP POP DUP4 ADD ADD DUP6 DUP1 DUP1 PUSH2 0x14B JUMP JUMPDEST DUP1 SLOAD DUP9 DUP7 ADD DUP4 ADD MSTORE SWAP4 ADD SWAP3 DUP5 SWAP1 DUP3 ADD PUSH2 0x1BF JUMP JUMPDEST PUSH1 0xFF NOT AND DUP8 DUP6 ADD MSTORE POP POP ISZERO ISZERO PUSH1 0x5 SHL DUP5 ADD ADD SWAP1 POP DUP6 DUP1 DUP1 PUSH2 0x14B JUMP JUMPDEST PUSH4 0x4E487B71 PUSH1 0xE0 SHL DUP10 MSTORE PUSH1 0x22 DUP11 MSTORE PUSH1 0x24 DUP10 REVERT JUMPDEST SWAP2 PUSH1 0x7F AND SWAP2 PUSH2 0x12C JUMP JUMPDEST POP POP CALLVALUE PUSH2 0xCF JUMPI PUSH1 0x20 CALLDATASIZE PUSH1 0x3 NOT ADD SLT PUSH2 0xCF JUMPI PUSH1 0x20 SWAP2 DUP2 SWAP1 PUSH1 0x1 PUSH1 0x1 PUSH1 0xA0 SHL SUB PUSH2 0x24A PUSH2 0x55A JUMP JUMPDEST AND DUP2 MSTORE DUP1 DUP5 MSTORE KECCAK256 SLOAD SWAP1 MLOAD SWAP1 DUP2 MSTORE RETURN JUMPDEST POP POP CALLVALUE PUSH2 0xCF JUMPI DUP2 PUSH1 0x3 NOT CALLDATASIZE ADD SLT PUSH2 0xCF JUMPI PUSH1 0x20 SWAP1 MLOAD PUSH1 0x12 DUP2 MSTORE RETURN JUMPDEST SWAP1 POP DUP3 CALLVALUE PUSH2 0x369 JUMPI PUSH1 0x60 CALLDATASIZE PUSH1 0x3 NOT ADD SLT PUSH2 0x369 JUMPI PUSH2 0x291 PUSH2 0x55A JUMP JUMPDEST PUSH2 0x299 PUSH2 0x575 JUMP JUMPDEST SWAP2 PUSH1 0x44 CALLDATALOAD SWAP4 PUSH1 0x1 DUP1 PUSH1 0xA0 SHL SUB DUP4 AND DUP1 DUP4 MSTORE PUSH1 0x1 PUSH1 0x20 MSTORE DUP7 DUP4 KECCAK256 CALLER DUP5 MSTORE PUSH1 0x20 MSTORE DUP7 DUP4 KECCAK256 SLOAD SWAP2 PUSH1 0x0 NOT DUP4 LT PUSH2 0x2D5 JUMPI JUMPDEST PUSH1 0x20 DUP9 PUSH2 0xFC DUP10 DUP10 DUP10 PUSH2 0x58B JUMP JUMPDEST DUP7 DUP4 LT PUSH2 0x33D JUMPI DUP2 ISZERO PUSH2 0x326 JUMPI CALLER ISZERO PUSH2 0x30F JUMPI POP DUP3 MSTORE PUSH1 0x1 PUSH1 0x20 SWAP1 DUP2 MSTORE DUP7 DUP4 KECCAK256 CALLER DUP5 MSTORE DUP2 MSTORE SWAP2 DUP7 SWAP1 KECCAK256 SWAP1 DUP6 SWAP1 SUB SWAP1 SSTORE DUP3 SWAP1 PUSH2 0xFC DUP8 PUSH2 0x2C7 JUMP JUMPDEST DUP8 MLOAD PUSH4 0x4A1406B1 PUSH1 0xE1 SHL DUP2 MSTORE SWAP1 DUP2 ADD DUP5 SWAP1 MSTORE PUSH1 0x24 SWAP1 REVERT JUMPDEST DUP8 MLOAD PUSH4 0xE602DF05 PUSH1 0xE0 SHL DUP2 MSTORE SWAP1 DUP2 ADD DUP5 SWAP1 MSTORE PUSH1 0x24 SWAP1 REVERT JUMPDEST DUP8 MLOAD PUSH4 0x7DC7A0D9 PUSH1 0xE1 SHL DUP2 MSTORE CALLER SWAP2 DUP2 ADD SWAP2 DUP3 MSTORE PUSH1 0x20 DUP3 ADD SWAP4 SWAP1 SWAP4 MSTORE PUSH1 0x40 DUP2 ADD DUP8 SWAP1 MSTORE DUP3 SWAP2 POP PUSH1 0x60 ADD SUB SWAP1 REVERT JUMPDEST DUP1 REVERT JUMPDEST POP POP CALLVALUE PUSH2 0xCF JUMPI DUP2 PUSH1 0x3 NOT CALLDATASIZE ADD SLT PUSH2 0xCF JUMPI PUSH1 0x20 SWAP1 PUSH1 0x2 SLOAD SWAP1 MLOAD SWAP1 DUP2 MSTORE RETURN JUMPDEST SWAP1 POP CALLVALUE PUSH2 0x435 JUMPI DUP2 PUSH1 0x3 NOT CALLDATASIZE ADD SLT PUSH2 0x435 JUMPI PUSH2 0x3A5 PUSH2 0x55A JUMP JUMPDEST PUSH1 0x24 CALLDATALOAD SWAP1 CALLER ISZERO PUSH2 0x41E JUMPI PUSH1 0x1 PUSH1 0x1 PUSH1 0xA0 SHL SUB AND SWAP2 DUP3 ISZERO PUSH2 0x407 JUMPI POP DUP1 DUP4 PUSH1 0x20 SWAP6 CALLER DUP2 MSTORE PUSH1 0x1 DUP8 MSTORE DUP2 DUP2 KECCAK256 DUP6 DUP3 MSTORE DUP8 MSTORE KECCAK256 SSTORE DUP3 MLOAD SWAP1 DUP2 MSTORE PUSH32 0x8C5BE1E5EBEC7D5BD14F71427D1E84F3DD0314C0F7B2291E5B200AC8C7C3B925 DUP5 CALLER SWAP3 LOG3 MLOAD PUSH1 0x1 DUP2 MSTORE RETURN JUMPDEST DUP4 MLOAD PUSH4 0x4A1406B1 PUSH1 0xE1 SHL DUP2 MSTORE SWAP1 DUP2 ADD DUP6 SWAP1 MSTORE PUSH1 0x24 SWAP1 REVERT JUMPDEST DUP4 MLOAD PUSH4 0xE602DF05 PUSH1 0xE0 SHL DUP2 MSTORE DUP1 DUP5 ADD DUP7 SWAP1 MSTORE PUSH1 0x24 SWAP1 REVERT JUMPDEST DUP3 DUP1 REVERT JUMPDEST DUP5 SWAP1 DUP5 CALLVALUE PUSH2 0x435 JUMPI DUP3 PUSH1 0x3 NOT CALLDATASIZE ADD SLT PUSH2 0x435 JUMPI DUP3 PUSH1 0x3 SLOAD PUSH1 0x1 DUP2 DUP2 SHR SWAP1 DUP1 DUP4 AND SWAP3 DUP4 ISZERO PUSH2 0x507 JUMPI JUMPDEST PUSH1 0x20 SWAP4 DUP5 DUP5 LT DUP2 EQ PUSH2 0x205 JUMPI DUP4 DUP9 MSTORE SWAP1 DUP2 ISZERO PUSH2 0x1E9 JUMPI POP PUSH1 0x1 EQ PUSH2 0x4B1 JUMPI POP POP POP DUP3 SWAP1 SUB PUSH1 0x1F ADD PUSH1 0x1F NOT AND DUP3 ADD SWAP3 PUSH8 0xFFFFFFFFFFFFFFFF DUP5 GT DUP4 DUP6 LT OR PUSH2 0x181 JUMPI POP DUP3 SWAP2 DUP3 PUSH2 0x17D SWAP3 MSTORE DUP3 PUSH2 0x511 JUMP JUMPDEST PUSH1 0x3 DUP8 MSTORE SWAP2 SWAP3 POP DUP6 SWAP2 DUP4 PUSH32 0xC2575A0E9E593C00F959F8C92F12DB2869C3395A3B0502D05E2516446F71F85B JUMPDEST DUP4 DUP6 LT PUSH2 0x4F3 JUMPI POP POP POP POP DUP4 ADD ADD DUP6 DUP1 DUP1 PUSH2 0x14B JUMP JUMPDEST DUP1 SLOAD DUP9 DUP7 ADD DUP4 ADD MSTORE SWAP4 ADD SWAP3 DUP5 SWAP1 DUP3 ADD PUSH2 0x4DD JUMP JUMPDEST SWAP2 PUSH1 0x7F AND SWAP2 PUSH2 0x461 JUMP JUMPDEST PUSH1 0x20 DUP1 DUP3 MSTORE DUP3 MLOAD DUP2 DUP4 ADD DUP2 SWAP1 MSTORE SWAP1 SWAP4 SWAP3 PUSH1 0x0 JUMPDEST DUP3 DUP2 LT PUSH2 0x546 JUMPI POP POP PUSH1 0x40 SWAP3 SWAP4 POP PUSH1 0x0 DUP4 DUP3 DUP5 ADD ADD MSTORE PUSH1 0x1F DUP1 NOT SWAP2 ADD AND ADD ADD SWAP1 JUMP JUMPDEST DUP2 DUP2 ADD DUP7 ADD MLOAD DUP5 DUP3 ADD PUSH1 0x40 ADD MSTORE DUP6 ADD PUSH2 0x524 JUMP JUMPDEST PUSH1 0x4 CALLDATALOAD SWAP1 PUSH1 0x1 PUSH1 0x1 PUSH1 0xA0 SHL SUB DUP3 AND DUP3 SUB PUSH2 0x570 JUMPI JUMP JUMPDEST PUSH1 0x0 DUP1 REVERT JUMPDEST PUSH1 0x24 CALLDATALOAD SWAP1 PUSH1 0x1 PUSH1 0x1 PUSH1 0xA0 SHL SUB DUP3 AND DUP3 SUB PUSH2 0x570 JUMPI JUMP JUMPDEST SWAP2 PUSH1 0x1 PUSH1 0x1 PUSH1 0xA0 SHL SUB DUP1 DUP5 AND SWAP3 DUP4 ISZERO PUSH2 0x650 JUMPI AND SWAP3 DUP4 ISZERO PUSH2 0x637 JUMPI PUSH1 0x0 SWAP1 DUP4 DUP3 MSTORE DUP2 PUSH1 0x20 MSTORE PUSH1 0x40 DUP3 KECCAK256 SLOAD SWAP1 DUP4 DUP3 LT PUSH2 0x605 JUMPI POP SWAP2 PUSH1 0x40 DUP3 DUP3 PUSH32 0xDDF252AD1BE2C89B69C2B068FC378DAA952BA7F163C4A11628F55A4DF523B3EF SWAP6 DUP8 PUSH1 0x20 SWAP7 MSTORE DUP3 DUP7 MSTORE SUB DUP3 DUP3 KECCAK256 SSTORE DUP7 DUP2 MSTORE KECCAK256 DUP2 DUP2 SLOAD ADD SWAP1 SSTORE PUSH1 0x40 MLOAD SWAP1 DUP2 MSTORE LOG3 JUMP JUMPDEST PUSH1 0x40 MLOAD PUSH4 0x391434E3 PUSH1 0xE2 SHL DUP2 MSTORE PUSH1 0x1 PUSH1 0x1 PUSH1 0xA0 SHL SUB SWAP2 SWAP1 SWAP2 AND PUSH1 0x4 DUP3 ADD MSTORE PUSH1 0x24 DUP2 ADD SWAP2 SWAP1 SWAP2 MSTORE PUSH1 0x44 DUP2 ADD DUP4 SWAP1 MSTORE PUSH1 0x64 SWAP1 REVERT JUMPDEST PUSH1 0x40 MLOAD PUSH4 0xEC442F05 PUSH1 0xE0 SHL DUP2 MSTORE PUSH1 0x0 PUSH1 0x4 DUP3 ADD MSTORE PUSH1 0x24 SWAP1 REVERT JUMPDEST PUSH1 0x40 MLOAD PUSH4 0x4B637E8F PUSH1 0xE1 SHL DUP2 MSTORE PUSH1 0x0 PUSH1 0x4 DUP3 ADD MSTORE PUSH1 0x24 SWAP1 REVERT INVALID LOG2 PUSH5 0x6970667358 0x22 SLT KECCAK256 0x2F SSTORE 0xEA 0xAA PUSH27 0xCE0F677BD7BD5045F642A82921F0495D621D344784C61CF7FFE7F6 PUSH5 0x736F6C6343 STOP ADDMOD EQ STOP CALLER 0x5E 0xCF MUL LOG0 MLOAD MSTORE SUB PUSH11 0x1CB2B9F0494C73EC92A03B CALLCODE DUP1 PUSH20 0xC76DCB8530EFC7194C1594EBCA8D29D278A0288A MSTORE 0xA7 LT 0xC1 0x1E SWAP3 DUP4 SMOD 0xB6 CALLCODE 0xE1 PUSH0 0xBA DELEGATECALL POP DUP13 0xC4 0xCE 0xB3 0xD2 0x1F DUP12 LOG2 PUSH5 0x6970667358 0x22 SLT KECCAK256 0xE6 0xCE PUSH13 0xC83C450E3DFFA0713371BD5199 SHL 0xD5 0xC2 0x1F 0xA7 PUSH3 0x6A1265 0xB6 0xCA 0xAE 0xBA PUSH28 0x1DA464736F6C63430008140033000000000000000000000000000000 "},"methodIdentifiers":{"defaultLockingPeriod()":"d406d751","deployToken(string,string,uint256,int24,uint24,bytes32,address,address,uint256)":"aaf29850","generateSalt(address,string,string,uint256)":"680c6354","initialSwapTokens(address,uint24)":"10f3577e","liquidityLocker()":"9759164a","lpFeesCut()":"57aa0201","owner()":"8da5cb5b","positionManager()":"791b98bc","predictTokenAddress(address,string,string,uint256,bytes32)":"3f4cc4ea","protocolCut()":"de04f42e","renounceOwnership()":"715018a6","swapRouter()":"c31c9c07","taxCollector()":"bea1dcf8","transferOwnership(address)":"f2fde38b","uniswapV3Factory()":"5b549182","updateLiquidityLocker(address)":"9dbb8c9f","weth()":"3fc8cef3"}}}}}