{"contracts/SocialToken.sol":{"SocialToken":{"abi":[{"inputs":[{"internalType":"string","name":"name","type":"string"},{"internalType":"string","name":"symbol","type":"string"},{"internalType":"string","name":"_handle","type":"string"},{"internalType":"string","name":"_platform","type":"string"},{"internalType":"string","name":"_profileUrl","type":"string"}],"stateMutability":"nonpayable","type":"constructor"},{"inputs":[{"internalType":"address","name":"spender","type":"address"},{"internalType":"uint256","name":"allowance","type":"uint256"},{"internalType":"uint256","name":"needed","type":"uint256"}],"name":"ERC20InsufficientAllowance","type":"error"},{"inputs":[{"internalType":"address","name":"sender","type":"address"},{"internalType":"uint256","name":"balance","type":"uint256"},{"internalType":"uint256","name":"needed","type":"uint256"}],"name":"ERC20InsufficientBalance","type":"error"},{"inputs":[{"internalType":"address","name":"approver","type":"address"}],"name":"ERC20InvalidApprover","type":"error"},{"inputs":[{"internalType":"address","name":"receiver","type":"address"}],"name":"ERC20InvalidReceiver","type":"error"},{"inputs":[{"internalType":"address","name":"sender","type":"address"}],"name":"ERC20InvalidSender","type":"error"},{"inputs":[{"internalType":"address","name":"spender","type":"address"}],"name":"ERC20InvalidSpender","type":"error"},{"anonymous":false,"inputs":[{"indexed":true,"internalType":"address","name":"owner","type":"address"},{"indexed":true,"internalType":"address","name":"spender","type":"address"},{"indexed":false,"internalType":"uint256","name":"value","type":"uint256"}],"name":"Approval","type":"event"},{"anonymous":false,"inputs":[{"indexed":false,"internalType":"string","name":"message","type":"string"},{"indexed":false,"internalType":"uint256","name":"value","type":"uint256"}],"name":"Debug","type":"event"},{"anonymous":false,"inputs":[{"indexed":false,"internalType":"string","name":"handle","type":"string"},{"indexed":false,"internalType":"string","name":"platform","type":"string"},{"indexed":false,"internalType":"string","name":"profileUrl","type":"string"}],"name":"SocialProfileSet","type":"event"},{"anonymous":false,"inputs":[{"indexed":true,"internalType":"address","name":"from","type":"address"},{"indexed":true,"internalType":"address","name":"to","type":"address"},{"indexed":false,"internalType":"uint256","name":"value","type":"uint256"}],"name":"Transfer","type":"event"},{"inputs":[{"internalType":"address","name":"owner","type":"address"},{"internalType":"address","name":"spender","type":"address"}],"name":"allowance","outputs":[{"internalType":"uint256","name":"","type":"uint256"}],"stateMutability":"view","type":"function"},{"inputs":[{"internalType":"address","name":"spender","type":"address"},{"internalType":"uint256","name":"value","type":"uint256"}],"name":"approve","outputs":[{"internalType":"bool","name":"","type":"bool"}],"stateMutability":"nonpayable","type":"function"},{"inputs":[{"internalType":"address","name":"account","type":"address"}],"name":"balanceOf","outputs":[{"internalType":"uint256","name":"","type":"uint256"}],"stateMutability":"view","type":"function"},{"inputs":[],"name":"decimals","outputs":[{"internalType":"uint8","name":"","type":"uint8"}],"stateMutability":"view","type":"function"},{"inputs":[],"name":"getSocialProfile","outputs":[{"internalType":"string","name":"handle","type":"string"},{"internalType":"string","name":"platform","type":"string"},{"internalType":"string","name":"profileUrl","type":"string"}],"stateMutability":"view","type":"function"},{"inputs":[],"name":"name","outputs":[{"internalType":"string","name":"","type":"string"}],"stateMutability":"view","type":"function"},{"inputs":[],"name":"socialProfile","outputs":[{"internalType":"string","name":"handle","type":"string"},{"internalType":"string","name":"platform","type":"string"},{"internalType":"string","name":"profileUrl","type":"string"}],"stateMutability":"view","type":"function"},{"inputs":[],"name":"symbol","outputs":[{"internalType":"string","name":"","type":"string"}],"stateMutability":"view","type":"function"},{"inputs":[],"name":"totalSupply","outputs":[{"internalType":"uint256","name":"","type":"uint256"}],"stateMutability":"view","type":"function"},{"inputs":[{"internalType":"address","name":"to","type":"address"},{"internalType":"uint256","name":"value","type":"uint256"}],"name":"transfer","outputs":[{"internalType":"bool","name":"","type":"bool"}],"stateMutability":"nonpayable","type":"function"},{"inputs":[{"internalType":"address","name":"from","type":"address"},{"internalType":"address","name":"to","type":"address"},{"internalType":"uint256","name":"value","type":"uint256"}],"name":"transferFrom","outputs":[{"internalType":"bool","name":"","type":"bool"}],"stateMutability":"nonpayable","type":"function"}],"evm":{"bytecode":{"linkReferences":{},"object":"60406080815234620009c05762001788803803806200001e81620009c5565b928339810160a082820312620009c05781516001600160401b038111620009c057816200004d91840162000a10565b60208301519091906001600160401b038111620009c057816200007291850162000a10565b838501516001600160401b038111620009c057826200009391860162000a10565b60608501519094906001600160401b038111620009c05783620000b891830162000a10565b60808201519093906001600160401b038111620009c057620000db920162000a10565b835190936001600160401b038211620005605760035490600182811c92168015620009b5575b60208310146200053f5781601f84931162000940575b50602090601f8311600114620008b557600092620008a9575b50508160011b916000199060031b1c1916176003555b8051906001600160401b038211620005605760045490600182811c921680156200089e575b60208310146200053f5781601f84931162000829575b50602090601f83116001146200079e5760009262000792575b50508160011b916000199060031b1c1916176004555b33156200077a576002546b033b2e3c9fd0803ce80000009081810180911162000764577f3c5ad147104e56be34a9176a6692f7df8d2f4b29a5af06bc6b98970d329d65779160809160025533600052600060205286600020818154019055865181815260007fddf252ad1be2c89b69c2b068fc378daa952ba7f163c4a11628f55a4df523b3ef60203393a38651908782526015888301527f4d696e74656420696e697469616c20737570706c79000000000000000000000060608301526020820152a18351606081016001600160401b03811182821017620005605785528381526020810182815281860184905284516001600160401b0381116200056057600554600181811c9116801562000759575b60208210146200053f57601f81116200070b575b50806020601f8211600114620006815760009162000675575b508160011b916000199060031b1c1916176005555b5180519091906001600160401b038111620005605760065492600184811c941680156200066a575b60208510146200053f5783601f89951162000602575b50602090601f83116001146200058257600091908362000576575b50508160011b916000199060031b1c1916176006555b01518051906001600160401b0382116200056057600754600181811c9116801562000555575b60208210146200053f57601f8111620004e6575b50602090601f83116001146200044c57600080516020620017288339815191529593836200042f94620004129794620004219460009262000440575b50508160011b916000199060031b1c1916176007555b875195869560608752606087019062000a67565b90858203602087015262000a67565b908382038785015262000a67565b0390a151610c99908162000a8f8239f35b015190503880620003e8565b6007600090815260008051602062001748833981519152929190601f198516905b818110620004cd5750846200041297946200042194600080516020620017288339815191529a98946200042f9860019510620004b3575b505050811b01600755620003fe565b015160001960f88460031b161c19169055388080620004a4565b929360206001819287860151815501950193016200046d565b600760005260008051602062001748833981519152601f840160051c8101916020851062000534575b601f0160051c01905b818110620005275750620003ac565b6000815560010162000518565b90915081906200050f565b634e487b7160e01b600052602260045260246000fd5b90607f169062000398565b634e487b7160e01b600052604160045260246000fd5b0151905038806200035c565b6006600090815290949392916000805160206200176883398151915291601f198416905b818110620005e657509583600195969710620005cc575b505050811b0160065562000372565b015160001960f88460031b161c19169055388080620005bd565b8783015184558b965060019093019260209283019201620005a6565b6006600052929350909160008051602062001768833981519152601f840160051c810191602085106200065f575b90601f8a96959493920160051c01905b8181106200064f575062000341565b6000815589955060010162000640565b909150819062000630565b93607f16936200032b565b905086015138620002ee565b6005600090815292507f036b6384b5eca791c62761152d0c79bb0604c104a5fb6f4eb0703f3154bb3db0905b601f1983168410620006f2576001935082601f19811610620006d8575b5050811b0160055562000303565b88015160001960f88460031b161c191690553880620006ca565b88810151825560209384019360019092019101620006ad565b60056000526020600020601f830160051c810191602084106200074e575b601f0160051c01905b818110620007415750620002d5565b6000815560010162000732565b909150819062000729565b90607f1690620002c1565b634e487b7160e01b600052601160045260246000fd5b835163ec442f0560e01b815260006004820152602490fd5b0151905038806200019a565b600460009081527f8a35acfbc15ff81a39ae7d344fd709f28e8600b4aa8c65c6b64bfe7fe36bd19b9350601f198516905b818110620008105750908460019594939210620007f6575b505050811b01600455620001b0565b015160001960f88460031b161c19169055388080620007e7565b92936020600181928786015181550195019301620007cf565b60046000529091507f8a35acfbc15ff81a39ae7d344fd709f28e8600b4aa8c65c6b64bfe7fe36bd19b601f840160051c8101916020851062000893575b90601f859493920160051c01905b81811062000883575062000181565b6000815584935060010162000874565b909150819062000866565b91607f16916200016b565b01519050388062000130565b600360009081527fc2575a0e9e593c00f959f8c92f12db2869c3395a3b0502d05e2516446f71f85b9350601f198516905b8181106200092757509084600195949392106200090d575b505050811b0160035562000146565b015160001960f88460031b161c19169055388080620008fe565b92936020600181928786015181550195019301620008e6565b60036000529091507fc2575a0e9e593c00f959f8c92f12db2869c3395a3b0502d05e2516446f71f85b601f840160051c81019160208510620009aa575b90601f859493920160051c01905b8181106200099a575062000117565b600081558493506001016200098b565b90915081906200097d565b91607f169162000101565b600080fd5b6040519190601f01601f191682016001600160401b038111838210176200056057604052565b60005b838110620009ff5750506000910152565b8181015183820152602001620009ee565b81601f82011215620009c05780516001600160401b038111620005605762000a42601f8201601f1916602001620009c5565b9281845260208284010111620009c05762000a649160208085019101620009eb565b90565b9060209162000a8281518092818552858086019101620009eb565b601f01601f191601019056fe608060408181526004918236101561001657600080fd5b600092833560e01c91826306fdde03146109f957508163095ea7b31461094b57816318160ddd1461092c57816323b872dd14610835578163313ce5671461081957816370a08231146107e257816393427cd51461055b57816395d89b4114610437578163a8fb7d401461011957508063a9059cbb146100e95763dd62ed3e1461009e57600080fd5b346100e557806003193601126100e557806020926100ba610b1a565b6100c2610b35565b6001600160a01b0391821683526001865283832091168252845220549051908152f35b5080fd5b50346100e557806003193601126100e557602090610112610108610b1a565b6024359033610b85565b5160018152f35b8383346100e557816003193601126100e557805182916005549360019385851c85871696871561042d575b602097888310811461041a57828752869594939291899082156104005750506001146103a8575b50601f801995869203011683019367ffffffffffffffff968486108887111761039557826006549081891c91898116801561038b575b848410811461037857918991858794868552918260001461035a5750506001146102fa575b03601f01168701979050888811878910176102e757600754849181811c9180821680156102dd575b85841081146102c957838c528b9493929181156102aa575060011461024d575b5050601f92500301168501958587109087111761023a57509184939184610236945284610b4b565b0390f35b634e487b7160e01b815260418752602490fd5b600787527fa66cc928b5edb82af9bd49922954155ab7b0942694bea4ce44661d9a8736c6889492508691905b818310610290575050601f93508201018b8061020e565b8554948301840194909452938301938a9391830191610279565b915050601f94925060ff191682840152151560051b8201018b8061020e565b50634e487b7160e01b875260228d52602487fd5b92607f16926101ee565b634e487b7160e01b845260418a52602484fd5b50506006855250828783868b7ff652222313e28459528d920b65115c16c04f3efc82aaedc97be59f3f377c0d3f5b86831061033e57509394508493508201016101c6565b919450919250805483858d0101520191018389918b8794610328565b60ff1916848201529394859490151560051b84010191506101c69050565b634e487b7160e01b875260228d52602487fd5b92607f16926101a1565b634e487b7160e01b835260418952602483fd5b600583528791508290877f036b6384b5eca791c62761152d0c79bb0604c104a5fb6f4eb0703f3154bb3db05b8284106103e7575050508401018861016b565b8054848a018601528897508a94909301928991016103d4565b9150925060ff191682860152151560051b8401018861016b565b634e487b7160e01b855260228a52602485fd5b90607f1690610144565b8383346100e557816003193601126100e5578051908290845491600183811c90808516948515610551575b602095868410811461053e5783885290869082156105225750506001146104ce575b5050839003601f01601f191683019367ffffffffffffffff8511848610176104bb5750916102369184809452808452830190610ada565b634e487b7160e01b815260418652602490fd5b8787528492508691907f8a35acfbc15ff81a39ae7d344fd709f28e8600b4aa8c65c6b64bfe7fe36bd19b5b82841061050d575050508401018680610484565b805488850186015286949093019281016104f9565b925093505060ff191682860152151560051b8401018680610484565b634e487b7160e01b895260228a52602489fd5b91607f1691610462565b8383346100e557816003193601126100e557805182916005549360019385851c8587169687156107d8575b602097888310811461041a57828752869594939291899082156107be575050600114610766575b50601f801995869203011683019367ffffffffffffffff968486108887111761039557826006549081891c91898116801561075c575b848410811461037857918991858794868552918260001461073e5750506001146106de575b03601f01168701979050888811878910176102e757600754849181811c9180821680156106d4575b85841081146102c957838c528b9493929181156102aa5750600114610677575050601f92500301168501958587109087111761023a57509184939184610236945284610b4b565b600787527fa66cc928b5edb82af9bd49922954155ab7b0942694bea4ce44661d9a8736c6889492508691905b8183106106ba575050601f93508201018b8061020e565b8554948301840194909452938301938a93918301916106a3565b92607f1692610630565b50506006855250828783868b7ff652222313e28459528d920b65115c16c04f3efc82aaedc97be59f3f377c0d3f5b8683106107225750939450849350820101610608565b919450919250805483858d0101520191018389918b879461070c565b60ff1916848201529394859490151560051b84010191506106089050565b92607f16926105e3565b600583528791508290877f036b6384b5eca791c62761152d0c79bb0604c104a5fb6f4eb0703f3154bb3db05b8284106107a557505050840101886105ad565b8054848a018601528897508a9490930192899101610792565b9150925060ff191682860152151560051b840101886105ad565b90607f1690610586565b5050346100e55760203660031901126100e55760209181906001600160a01b0361080a610b1a565b16815280845220549051908152f35b5050346100e557816003193601126100e5576020905160128152f35b9050823461092957606036600319011261092957610851610b1a565b610859610b35565b916044359360018060a01b038316808352600160205286832033845260205286832054916000198310610895575b602088610112898989610b85565b8683106108fd5781156108e65733156108cf5750825260016020908152868320338452815291869020908590039055829061011287610887565b8751634a1406b160e11b8152908101849052602490fd5b875163e602df0560e01b8152908101849052602490fd5b8751637dc7a0d960e11b8152339181019182526020820193909352604081018790528291506060010390fd5b80fd5b5050346100e557816003193601126100e5576020906002549051908152f35b9050346109f557816003193601126109f557610965610b1a565b6024359033156109de576001600160a01b03169182156109c757508083602095338152600187528181208582528752205582519081527f8c5be1e5ebec7d5bd14f71427d1e84f3dd0314c0f7b2291e5b200ac8c7c3b925843392a35160018152f35b8351634a1406b160e11b8152908101859052602490fd5b835163e602df0560e01b8152808401869052602490fd5b8280fd5b849084346109f557826003193601126109f557829060035491600183811c90808516948515610ad0575b602095868410811461053e578388529086908215610522575050600114610a7b575050839003601f01601f191683019367ffffffffffffffff8511848610176104bb5750916102369184809452808452830190610ada565b600387528492508691907fc2575a0e9e593c00f959f8c92f12db2869c3395a3b0502d05e2516446f71f85b5b828410610abb575050508401018680610484565b80548885018601528694909301928101610aa7565b91607f1691610a23565b919082519283825260005b848110610b06575050826000602080949584010152601f8019910116010190565b602081830181015184830182015201610ae5565b600435906001600160a01b0382168203610b3057565b600080fd5b602435906001600160a01b0382168203610b3057565b91610b7490610b66610b829593606086526060860190610ada565b908482036020860152610ada565b916040818403910152610ada565b90565b916001600160a01b03808416928315610c4a5716928315610c315760009083825281602052604082205490838210610bff575091604082827fddf252ad1be2c89b69c2b068fc378daa952ba7f163c4a11628f55a4df523b3ef958760209652828652038282205586815220818154019055604051908152a3565b60405163391434e360e21b81526001600160a01b03919091166004820152602481019190915260448101839052606490fd5b60405163ec442f0560e01b815260006004820152602490fd5b604051634b637e8f60e11b815260006004820152602490fdfea2646970667358221220dcff1c9bd46f97ced925c4851c735f0252c1494c872e393af4b59b98fadb1a9b64736f6c6343000814003341105f733c92e731673db8d7877f039f0cce3bc6436d38e5c37bce47f2a4b149a66cc928b5edb82af9bd49922954155ab7b0942694bea4ce44661d9a8736c688f652222313e28459528d920b65115c16c04f3efc82aaedc97be59f3f377c0d3f","opcodes":"PUSH1 0x40 PUSH1 0x80 DUP2 MSTORE CALLVALUE PUSH3 0x9C0 JUMPI PUSH3 0x1788 DUP1 CODESIZE SUB DUP1 PUSH3 0x1E DUP2 PUSH3 0x9C5 JUMP JUMPDEST SWAP3 DUP4 CODECOPY DUP2 ADD PUSH1 0xA0 DUP3 DUP3 SUB SLT PUSH3 0x9C0 JUMPI DUP2 MLOAD PUSH1 0x1 PUSH1 0x1 PUSH1 0x40 SHL SUB DUP2 GT PUSH3 0x9C0 JUMPI DUP2 PUSH3 0x4D SWAP2 DUP5 ADD PUSH3 0xA10 JUMP JUMPDEST PUSH1 0x20 DUP4 ADD MLOAD SWAP1 SWAP2 SWAP1 PUSH1 0x1 PUSH1 0x1 PUSH1 0x40 SHL SUB DUP2 GT PUSH3 0x9C0 JUMPI DUP2 PUSH3 0x72 SWAP2 DUP6 ADD PUSH3 0xA10 JUMP JUMPDEST DUP4 DUP6 ADD MLOAD PUSH1 0x1 PUSH1 0x1 PUSH1 0x40 SHL SUB DUP2 GT PUSH3 0x9C0 JUMPI DUP3 PUSH3 0x93 SWAP2 DUP7 ADD PUSH3 0xA10 JUMP JUMPDEST PUSH1 0x60 DUP6 ADD MLOAD SWAP1 SWAP5 SWAP1 PUSH1 0x1 PUSH1 0x1 PUSH1 0x40 SHL SUB DUP2 GT PUSH3 0x9C0 JUMPI DUP4 PUSH3 0xB8 SWAP2 DUP4 ADD PUSH3 0xA10 JUMP JUMPDEST PUSH1 0x80 DUP3 ADD MLOAD SWAP1 SWAP4 SWAP1 PUSH1 0x1 PUSH1 0x1 PUSH1 0x40 SHL SUB DUP2 GT PUSH3 0x9C0 JUMPI PUSH3 0xDB SWAP3 ADD PUSH3 0xA10 JUMP JUMPDEST DUP4 MLOAD SWAP1 SWAP4 PUSH1 0x1 PUSH1 0x1 PUSH1 0x40 SHL SUB DUP3 GT PUSH3 0x560 JUMPI PUSH1 0x3 SLOAD SWAP1 PUSH1 0x1 DUP3 DUP2 SHR SWAP3 AND DUP1 ISZERO PUSH3 0x9B5 JUMPI JUMPDEST PUSH1 0x20 DUP4 LT EQ PUSH3 0x53F JUMPI DUP2 PUSH1 0x1F DUP5 SWAP4 GT PUSH3 0x940 JUMPI JUMPDEST POP PUSH1 0x20 SWAP1 PUSH1 0x1F DUP4 GT PUSH1 0x1 EQ PUSH3 0x8B5 JUMPI PUSH1 0x0 SWAP3 PUSH3 0x8A9 JUMPI JUMPDEST POP POP DUP2 PUSH1 0x1 SHL SWAP2 PUSH1 0x0 NOT SWAP1 PUSH1 0x3 SHL SHR NOT AND OR PUSH1 0x3 SSTORE JUMPDEST DUP1 MLOAD SWAP1 PUSH1 0x1 PUSH1 0x1 PUSH1 0x40 SHL SUB DUP3 GT PUSH3 0x560 JUMPI PUSH1 0x4 SLOAD SWAP1 PUSH1 0x1 DUP3 DUP2 SHR SWAP3 AND DUP1 ISZERO PUSH3 0x89E JUMPI JUMPDEST PUSH1 0x20 DUP4 LT EQ PUSH3 0x53F JUMPI DUP2 PUSH1 0x1F DUP5 SWAP4 GT PUSH3 0x829 JUMPI JUMPDEST POP PUSH1 0x20 SWAP1 PUSH1 0x1F DUP4 GT PUSH1 0x1 EQ PUSH3 0x79E JUMPI PUSH1 0x0 SWAP3 PUSH3 0x792 JUMPI JUMPDEST POP POP DUP2 PUSH1 0x1 SHL SWAP2 PUSH1 0x0 NOT SWAP1 PUSH1 0x3 SHL SHR NOT AND OR PUSH1 0x4 SSTORE JUMPDEST CALLER ISZERO PUSH3 0x77A JUMPI PUSH1 0x2 SLOAD PUSH12 0x33B2E3C9FD0803CE8000000 SWAP1 DUP2 DUP2 ADD DUP1 SWAP2 GT PUSH3 0x764 JUMPI PUSH32 0x3C5AD147104E56BE34A9176A6692F7DF8D2F4B29A5AF06BC6B98970D329D6577 SWAP2 PUSH1 0x80 SWAP2 PUSH1 0x2 SSTORE CALLER PUSH1 0x0 MSTORE PUSH1 0x0 PUSH1 0x20 MSTORE DUP7 PUSH1 0x0 KECCAK256 DUP2 DUP2 SLOAD ADD SWAP1 SSTORE DUP7 MLOAD DUP2 DUP2 MSTORE PUSH1 0x0 PUSH32 0xDDF252AD1BE2C89B69C2B068FC378DAA952BA7F163C4A11628F55A4DF523B3EF PUSH1 0x20 CALLER SWAP4 LOG3 DUP7 MLOAD SWAP1 DUP8 DUP3 MSTORE PUSH1 0x15 DUP9 DUP4 ADD MSTORE PUSH32 0x4D696E74656420696E697469616C20737570706C790000000000000000000000 PUSH1 0x60 DUP4 ADD MSTORE PUSH1 0x20 DUP3 ADD MSTORE LOG1 DUP4 MLOAD PUSH1 0x60 DUP2 ADD PUSH1 0x1 PUSH1 0x1 PUSH1 0x40 SHL SUB DUP2 GT DUP3 DUP3 LT OR PUSH3 0x560 JUMPI DUP6 MSTORE DUP4 DUP2 MSTORE PUSH1 0x20 DUP2 ADD DUP3 DUP2 MSTORE DUP2 DUP7 ADD DUP5 SWAP1 MSTORE DUP5 MLOAD PUSH1 0x1 PUSH1 0x1 PUSH1 0x40 SHL SUB DUP2 GT PUSH3 0x560 JUMPI PUSH1 0x5 SLOAD PUSH1 0x1 DUP2 DUP2 SHR SWAP2 AND DUP1 ISZERO PUSH3 0x759 JUMPI JUMPDEST PUSH1 0x20 DUP3 LT EQ PUSH3 0x53F JUMPI PUSH1 0x1F DUP2 GT PUSH3 0x70B JUMPI JUMPDEST POP DUP1 PUSH1 0x20 PUSH1 0x1F DUP3 GT PUSH1 0x1 EQ PUSH3 0x681 JUMPI PUSH1 0x0 SWAP2 PUSH3 0x675 JUMPI JUMPDEST POP DUP2 PUSH1 0x1 SHL SWAP2 PUSH1 0x0 NOT SWAP1 PUSH1 0x3 SHL SHR NOT AND OR PUSH1 0x5 SSTORE JUMPDEST MLOAD DUP1 MLOAD SWAP1 SWAP2 SWAP1 PUSH1 0x1 PUSH1 0x1 PUSH1 0x40 SHL SUB DUP2 GT PUSH3 0x560 JUMPI PUSH1 0x6 SLOAD SWAP3 PUSH1 0x1 DUP5 DUP2 SHR SWAP5 AND DUP1 ISZERO PUSH3 0x66A JUMPI JUMPDEST PUSH1 0x20 DUP6 LT EQ PUSH3 0x53F JUMPI DUP4 PUSH1 0x1F DUP10 SWAP6 GT PUSH3 0x602 JUMPI JUMPDEST POP PUSH1 0x20 SWAP1 PUSH1 0x1F DUP4 GT PUSH1 0x1 EQ PUSH3 0x582 JUMPI PUSH1 0x0 SWAP2 SWAP1 DUP4 PUSH3 0x576 JUMPI JUMPDEST POP POP DUP2 PUSH1 0x1 SHL SWAP2 PUSH1 0x0 NOT SWAP1 PUSH1 0x3 SHL SHR NOT AND OR PUSH1 0x6 SSTORE JUMPDEST ADD MLOAD DUP1 MLOAD SWAP1 PUSH1 0x1 PUSH1 0x1 PUSH1 0x40 SHL SUB DUP3 GT PUSH3 0x560 JUMPI PUSH1 0x7 SLOAD PUSH1 0x1 DUP2 DUP2 SHR SWAP2 AND DUP1 ISZERO PUSH3 0x555 JUMPI JUMPDEST PUSH1 0x20 DUP3 LT EQ PUSH3 0x53F JUMPI PUSH1 0x1F DUP2 GT PUSH3 0x4E6 JUMPI JUMPDEST POP PUSH1 0x20 SWAP1 PUSH1 0x1F DUP4 GT PUSH1 0x1 EQ PUSH3 0x44C JUMPI PUSH1 0x0 DUP1 MLOAD PUSH1 0x20 PUSH3 0x1728 DUP4 CODECOPY DUP2 MLOAD SWAP2 MSTORE SWAP6 SWAP4 DUP4 PUSH3 0x42F SWAP5 PUSH3 0x412 SWAP8 SWAP5 PUSH3 0x421 SWAP5 PUSH1 0x0 SWAP3 PUSH3 0x440 JUMPI JUMPDEST POP POP DUP2 PUSH1 0x1 SHL SWAP2 PUSH1 0x0 NOT SWAP1 PUSH1 0x3 SHL SHR NOT AND OR PUSH1 0x7 SSTORE JUMPDEST DUP8 MLOAD SWAP6 DUP7 SWAP6 PUSH1 0x60 DUP8 MSTORE PUSH1 0x60 DUP8 ADD SWAP1 PUSH3 0xA67 JUMP JUMPDEST SWAP1 DUP6 DUP3 SUB PUSH1 0x20 DUP8 ADD MSTORE PUSH3 0xA67 JUMP JUMPDEST SWAP1 DUP4 DUP3 SUB DUP8 DUP6 ADD MSTORE PUSH3 0xA67 JUMP JUMPDEST SUB SWAP1 LOG1 MLOAD PUSH2 0xC99 SWAP1 DUP2 PUSH3 0xA8F DUP3 CODECOPY RETURN JUMPDEST ADD MLOAD SWAP1 POP CODESIZE DUP1 PUSH3 0x3E8 JUMP JUMPDEST PUSH1 0x7 PUSH1 0x0 SWAP1 DUP2 MSTORE PUSH1 0x0 DUP1 MLOAD PUSH1 0x20 PUSH3 0x1748 DUP4 CODECOPY DUP2 MLOAD SWAP2 MSTORE SWAP3 SWAP2 SWAP1 PUSH1 0x1F NOT DUP6 AND SWAP1 JUMPDEST DUP2 DUP2 LT PUSH3 0x4CD JUMPI POP DUP5 PUSH3 0x412 SWAP8 SWAP5 PUSH3 0x421 SWAP5 PUSH1 0x0 DUP1 MLOAD PUSH1 0x20 PUSH3 0x1728 DUP4 CODECOPY DUP2 MLOAD SWAP2 MSTORE SWAP11 SWAP9 SWAP5 PUSH3 0x42F SWAP9 PUSH1 0x1 SWAP6 LT PUSH3 0x4B3 JUMPI JUMPDEST POP POP POP DUP2 SHL ADD PUSH1 0x7 SSTORE PUSH3 0x3FE JUMP JUMPDEST ADD MLOAD PUSH1 0x0 NOT PUSH1 0xF8 DUP5 PUSH1 0x3 SHL AND SHR NOT AND SWAP1 SSTORE CODESIZE DUP1 DUP1 PUSH3 0x4A4 JUMP JUMPDEST SWAP3 SWAP4 PUSH1 0x20 PUSH1 0x1 DUP2 SWAP3 DUP8 DUP7 ADD MLOAD DUP2 SSTORE ADD SWAP6 ADD SWAP4 ADD PUSH3 0x46D JUMP JUMPDEST PUSH1 0x7 PUSH1 0x0 MSTORE PUSH1 0x0 DUP1 MLOAD PUSH1 0x20 PUSH3 0x1748 DUP4 CODECOPY DUP2 MLOAD SWAP2 MSTORE PUSH1 0x1F DUP5 ADD PUSH1 0x5 SHR DUP2 ADD SWAP2 PUSH1 0x20 DUP6 LT PUSH3 0x534 JUMPI JUMPDEST PUSH1 0x1F ADD PUSH1 0x5 SHR ADD SWAP1 JUMPDEST DUP2 DUP2 LT PUSH3 0x527 JUMPI POP PUSH3 0x3AC JUMP JUMPDEST PUSH1 0x0 DUP2 SSTORE PUSH1 0x1 ADD PUSH3 0x518 JUMP JUMPDEST SWAP1 SWAP2 POP DUP2 SWAP1 PUSH3 0x50F JUMP JUMPDEST PUSH4 0x4E487B71 PUSH1 0xE0 SHL PUSH1 0x0 MSTORE PUSH1 0x22 PUSH1 0x4 MSTORE PUSH1 0x24 PUSH1 0x0 REVERT JUMPDEST SWAP1 PUSH1 0x7F AND SWAP1 PUSH3 0x398 JUMP JUMPDEST PUSH4 0x4E487B71 PUSH1 0xE0 SHL PUSH1 0x0 MSTORE PUSH1 0x41 PUSH1 0x4 MSTORE PUSH1 0x24 PUSH1 0x0 REVERT JUMPDEST ADD MLOAD SWAP1 POP CODESIZE DUP1 PUSH3 0x35C JUMP JUMPDEST PUSH1 0x6 PUSH1 0x0 SWAP1 DUP2 MSTORE SWAP1 SWAP5 SWAP4 SWAP3 SWAP2 PUSH1 0x0 DUP1 MLOAD PUSH1 0x20 PUSH3 0x1768 DUP4 CODECOPY DUP2 MLOAD SWAP2 MSTORE SWAP2 PUSH1 0x1F NOT DUP5 AND SWAP1 JUMPDEST DUP2 DUP2 LT PUSH3 0x5E6 JUMPI POP SWAP6 DUP4 PUSH1 0x1 SWAP6 SWAP7 SWAP8 LT PUSH3 0x5CC JUMPI JUMPDEST POP POP POP DUP2 SHL ADD PUSH1 0x6 SSTORE PUSH3 0x372 JUMP JUMPDEST ADD MLOAD PUSH1 0x0 NOT PUSH1 0xF8 DUP5 PUSH1 0x3 SHL AND SHR NOT AND SWAP1 SSTORE CODESIZE DUP1 DUP1 PUSH3 0x5BD JUMP JUMPDEST DUP8 DUP4 ADD MLOAD DUP5 SSTORE DUP12 SWAP7 POP PUSH1 0x1 SWAP1 SWAP4 ADD SWAP3 PUSH1 0x20 SWAP3 DUP4 ADD SWAP3 ADD PUSH3 0x5A6 JUMP JUMPDEST PUSH1 0x6 PUSH1 0x0 MSTORE SWAP3 SWAP4 POP SWAP1 SWAP2 PUSH1 0x0 DUP1 MLOAD PUSH1 0x20 PUSH3 0x1768 DUP4 CODECOPY DUP2 MLOAD SWAP2 MSTORE PUSH1 0x1F DUP5 ADD PUSH1 0x5 SHR DUP2 ADD SWAP2 PUSH1 0x20 DUP6 LT PUSH3 0x65F JUMPI JUMPDEST SWAP1 PUSH1 0x1F DUP11 SWAP7 SWAP6 SWAP5 SWAP4 SWAP3 ADD PUSH1 0x5 SHR ADD SWAP1 JUMPDEST DUP2 DUP2 LT PUSH3 0x64F JUMPI POP PUSH3 0x341 JUMP JUMPDEST PUSH1 0x0 DUP2 SSTORE DUP10 SWAP6 POP PUSH1 0x1 ADD PUSH3 0x640 JUMP JUMPDEST SWAP1 SWAP2 POP DUP2 SWAP1 PUSH3 0x630 JUMP JUMPDEST SWAP4 PUSH1 0x7F AND SWAP4 PUSH3 0x32B JUMP JUMPDEST SWAP1 POP DUP7 ADD MLOAD CODESIZE PUSH3 0x2EE JUMP JUMPDEST PUSH1 0x5 PUSH1 0x0 SWAP1 DUP2 MSTORE SWAP3 POP PUSH32 0x36B6384B5ECA791C62761152D0C79BB0604C104A5FB6F4EB0703F3154BB3DB0 SWAP1 JUMPDEST PUSH1 0x1F NOT DUP4 AND DUP5 LT PUSH3 0x6F2 JUMPI PUSH1 0x1 SWAP4 POP DUP3 PUSH1 0x1F NOT DUP2 AND LT PUSH3 0x6D8 JUMPI JUMPDEST POP POP DUP2 SHL ADD PUSH1 0x5 SSTORE PUSH3 0x303 JUMP JUMPDEST DUP9 ADD MLOAD PUSH1 0x0 NOT PUSH1 0xF8 DUP5 PUSH1 0x3 SHL AND SHR NOT AND SWAP1 SSTORE CODESIZE DUP1 PUSH3 0x6CA JUMP JUMPDEST DUP9 DUP2 ADD MLOAD DUP3 SSTORE PUSH1 0x20 SWAP4 DUP5 ADD SWAP4 PUSH1 0x1 SWAP1 SWAP3 ADD SWAP2 ADD PUSH3 0x6AD JUMP JUMPDEST PUSH1 0x5 PUSH1 0x0 MSTORE PUSH1 0x20 PUSH1 0x0 KECCAK256 PUSH1 0x1F DUP4 ADD PUSH1 0x5 SHR DUP2 ADD SWAP2 PUSH1 0x20 DUP5 LT PUSH3 0x74E JUMPI JUMPDEST PUSH1 0x1F ADD PUSH1 0x5 SHR ADD SWAP1 JUMPDEST DUP2 DUP2 LT PUSH3 0x741 JUMPI POP PUSH3 0x2D5 JUMP JUMPDEST PUSH1 0x0 DUP2 SSTORE PUSH1 0x1 ADD PUSH3 0x732 JUMP JUMPDEST SWAP1 SWAP2 POP DUP2 SWAP1 PUSH3 0x729 JUMP JUMPDEST SWAP1 PUSH1 0x7F AND SWAP1 PUSH3 0x2C1 JUMP JUMPDEST PUSH4 0x4E487B71 PUSH1 0xE0 SHL PUSH1 0x0 MSTORE PUSH1 0x11 PUSH1 0x4 MSTORE PUSH1 0x24 PUSH1 0x0 REVERT JUMPDEST DUP4 MLOAD PUSH4 0xEC442F05 PUSH1 0xE0 SHL DUP2 MSTORE PUSH1 0x0 PUSH1 0x4 DUP3 ADD MSTORE PUSH1 0x24 SWAP1 REVERT JUMPDEST ADD MLOAD SWAP1 POP CODESIZE DUP1 PUSH3 0x19A JUMP JUMPDEST PUSH1 0x4 PUSH1 0x0 SWAP1 DUP2 MSTORE PUSH32 0x8A35ACFBC15FF81A39AE7D344FD709F28E8600B4AA8C65C6B64BFE7FE36BD19B SWAP4 POP PUSH1 0x1F NOT DUP6 AND SWAP1 JUMPDEST DUP2 DUP2 LT PUSH3 0x810 JUMPI POP SWAP1 DUP5 PUSH1 0x1 SWAP6 SWAP5 SWAP4 SWAP3 LT PUSH3 0x7F6 JUMPI JUMPDEST POP POP POP DUP2 SHL ADD PUSH1 0x4 SSTORE PUSH3 0x1B0 JUMP JUMPDEST ADD MLOAD PUSH1 0x0 NOT PUSH1 0xF8 DUP5 PUSH1 0x3 SHL AND SHR NOT AND SWAP1 SSTORE CODESIZE DUP1 DUP1 PUSH3 0x7E7 JUMP JUMPDEST SWAP3 SWAP4 PUSH1 0x20 PUSH1 0x1 DUP2 SWAP3 DUP8 DUP7 ADD MLOAD DUP2 SSTORE ADD SWAP6 ADD SWAP4 ADD PUSH3 0x7CF JUMP JUMPDEST PUSH1 0x4 PUSH1 0x0 MSTORE SWAP1 SWAP2 POP PUSH32 0x8A35ACFBC15FF81A39AE7D344FD709F28E8600B4AA8C65C6B64BFE7FE36BD19B PUSH1 0x1F DUP5 ADD PUSH1 0x5 SHR DUP2 ADD SWAP2 PUSH1 0x20 DUP6 LT PUSH3 0x893 JUMPI JUMPDEST SWAP1 PUSH1 0x1F DUP6 SWAP5 SWAP4 SWAP3 ADD PUSH1 0x5 SHR ADD SWAP1 JUMPDEST DUP2 DUP2 LT PUSH3 0x883 JUMPI POP PUSH3 0x181 JUMP JUMPDEST PUSH1 0x0 DUP2 SSTORE DUP5 SWAP4 POP PUSH1 0x1 ADD PUSH3 0x874 JUMP JUMPDEST SWAP1 SWAP2 POP DUP2 SWAP1 PUSH3 0x866 JUMP JUMPDEST SWAP2 PUSH1 0x7F AND SWAP2 PUSH3 0x16B JUMP JUMPDEST ADD MLOAD SWAP1 POP CODESIZE DUP1 PUSH3 0x130 JUMP JUMPDEST PUSH1 0x3 PUSH1 0x0 SWAP1 DUP2 MSTORE PUSH32 0xC2575A0E9E593C00F959F8C92F12DB2869C3395A3B0502D05E2516446F71F85B SWAP4 POP PUSH1 0x1F NOT DUP6 AND SWAP1 JUMPDEST DUP2 DUP2 LT PUSH3 0x927 JUMPI POP SWAP1 DUP5 PUSH1 0x1 SWAP6 SWAP5 SWAP4 SWAP3 LT PUSH3 0x90D JUMPI JUMPDEST POP POP POP DUP2 SHL ADD PUSH1 0x3 SSTORE PUSH3 0x146 JUMP JUMPDEST ADD MLOAD PUSH1 0x0 NOT PUSH1 0xF8 DUP5 PUSH1 0x3 SHL AND SHR NOT AND SWAP1 SSTORE CODESIZE DUP1 DUP1 PUSH3 0x8FE JUMP JUMPDEST SWAP3 SWAP4 PUSH1 0x20 PUSH1 0x1 DUP2 SWAP3 DUP8 DUP7 ADD MLOAD DUP2 SSTORE ADD SWAP6 ADD SWAP4 ADD PUSH3 0x8E6 JUMP JUMPDEST PUSH1 0x3 PUSH1 0x0 MSTORE SWAP1 SWAP2 POP PUSH32 0xC2575A0E9E593C00F959F8C92F12DB2869C3395A3B0502D05E2516446F71F85B PUSH1 0x1F DUP5 ADD PUSH1 0x5 SHR DUP2 ADD SWAP2 PUSH1 0x20 DUP6 LT PUSH3 0x9AA JUMPI JUMPDEST SWAP1 PUSH1 0x1F DUP6 SWAP5 SWAP4 SWAP3 ADD PUSH1 0x5 SHR ADD SWAP1 JUMPDEST DUP2 DUP2 LT PUSH3 0x99A JUMPI POP PUSH3 0x117 JUMP JUMPDEST PUSH1 0x0 DUP2 SSTORE DUP5 SWAP4 POP PUSH1 0x1 ADD PUSH3 0x98B JUMP JUMPDEST SWAP1 SWAP2 POP DUP2 SWAP1 PUSH3 0x97D JUMP JUMPDEST SWAP2 PUSH1 0x7F AND SWAP2 PUSH3 0x101 JUMP JUMPDEST PUSH1 0x0 DUP1 REVERT JUMPDEST PUSH1 0x40 MLOAD SWAP2 SWAP1 PUSH1 0x1F ADD PUSH1 0x1F NOT AND DUP3 ADD PUSH1 0x1 PUSH1 0x1 PUSH1 0x40 SHL SUB DUP2 GT DUP4 DUP3 LT OR PUSH3 0x560 JUMPI PUSH1 0x40 MSTORE JUMP JUMPDEST PUSH1 0x0 JUMPDEST DUP4 DUP2 LT PUSH3 0x9FF JUMPI POP POP PUSH1 0x0 SWAP2 ADD MSTORE JUMP JUMPDEST DUP2 DUP2 ADD MLOAD DUP4 DUP3 ADD MSTORE PUSH1 0x20 ADD PUSH3 0x9EE JUMP JUMPDEST DUP2 PUSH1 0x1F DUP3 ADD SLT ISZERO PUSH3 0x9C0 JUMPI DUP1 MLOAD PUSH1 0x1 PUSH1 0x1 PUSH1 0x40 SHL SUB DUP2 GT PUSH3 0x560 JUMPI PUSH3 0xA42 PUSH1 0x1F DUP3 ADD PUSH1 0x1F NOT AND PUSH1 0x20 ADD PUSH3 0x9C5 JUMP JUMPDEST SWAP3 DUP2 DUP5 MSTORE PUSH1 0x20 DUP3 DUP5 ADD ADD GT PUSH3 0x9C0 JUMPI PUSH3 0xA64 SWAP2 PUSH1 0x20 DUP1 DUP6 ADD SWAP2 ADD PUSH3 0x9EB JUMP JUMPDEST SWAP1 JUMP JUMPDEST SWAP1 PUSH1 0x20 SWAP2 PUSH3 0xA82 DUP2 MLOAD DUP1 SWAP3 DUP2 DUP6 MSTORE DUP6 DUP1 DUP7 ADD SWAP2 ADD PUSH3 0x9EB JUMP JUMPDEST PUSH1 0x1F ADD PUSH1 0x1F NOT AND ADD ADD SWAP1 JUMP INVALID PUSH1 0x80 PUSH1 0x40 DUP2 DUP2 MSTORE PUSH1 0x4 SWAP2 DUP3 CALLDATASIZE LT ISZERO PUSH2 0x16 JUMPI PUSH1 0x0 DUP1 REVERT JUMPDEST PUSH1 0x0 SWAP3 DUP4 CALLDATALOAD PUSH1 0xE0 SHR SWAP2 DUP3 PUSH4 0x6FDDE03 EQ PUSH2 0x9F9 JUMPI POP DUP2 PUSH4 0x95EA7B3 EQ PUSH2 0x94B JUMPI DUP2 PUSH4 0x18160DDD EQ PUSH2 0x92C JUMPI DUP2 PUSH4 0x23B872DD EQ PUSH2 0x835 JUMPI DUP2 PUSH4 0x313CE567 EQ PUSH2 0x819 JUMPI DUP2 PUSH4 0x70A08231 EQ PUSH2 0x7E2 JUMPI DUP2 PUSH4 0x93427CD5 EQ PUSH2 0x55B JUMPI DUP2 PUSH4 0x95D89B41 EQ PUSH2 0x437 JUMPI DUP2 PUSH4 0xA8FB7D40 EQ PUSH2 0x119 JUMPI POP DUP1 PUSH4 0xA9059CBB EQ PUSH2 0xE9 JUMPI PUSH4 0xDD62ED3E EQ PUSH2 0x9E JUMPI PUSH1 0x0 DUP1 REVERT JUMPDEST CALLVALUE PUSH2 0xE5 JUMPI DUP1 PUSH1 0x3 NOT CALLDATASIZE ADD SLT PUSH2 0xE5 JUMPI DUP1 PUSH1 0x20 SWAP3 PUSH2 0xBA PUSH2 0xB1A JUMP JUMPDEST PUSH2 0xC2 PUSH2 0xB35 JUMP JUMPDEST PUSH1 0x1 PUSH1 0x1 PUSH1 0xA0 SHL SUB SWAP2 DUP3 AND DUP4 MSTORE PUSH1 0x1 DUP7 MSTORE DUP4 DUP4 KECCAK256 SWAP2 AND DUP3 MSTORE DUP5 MSTORE KECCAK256 SLOAD SWAP1 MLOAD SWAP1 DUP2 MSTORE RETURN JUMPDEST POP DUP1 REVERT JUMPDEST POP CALLVALUE PUSH2 0xE5 JUMPI DUP1 PUSH1 0x3 NOT CALLDATASIZE ADD SLT PUSH2 0xE5 JUMPI PUSH1 0x20 SWAP1 PUSH2 0x112 PUSH2 0x108 PUSH2 0xB1A JUMP JUMPDEST PUSH1 0x24 CALLDATALOAD SWAP1 CALLER PUSH2 0xB85 JUMP JUMPDEST MLOAD PUSH1 0x1 DUP2 MSTORE RETURN JUMPDEST DUP4 DUP4 CALLVALUE PUSH2 0xE5 JUMPI DUP2 PUSH1 0x3 NOT CALLDATASIZE ADD SLT PUSH2 0xE5 JUMPI DUP1 MLOAD DUP3 SWAP2 PUSH1 0x5 SLOAD SWAP4 PUSH1 0x1 SWAP4 DUP6 DUP6 SHR DUP6 DUP8 AND SWAP7 DUP8 ISZERO PUSH2 0x42D JUMPI JUMPDEST PUSH1 0x20 SWAP8 DUP9 DUP4 LT DUP2 EQ PUSH2 0x41A JUMPI DUP3 DUP8 MSTORE DUP7 SWAP6 SWAP5 SWAP4 SWAP3 SWAP2 DUP10 SWAP1 DUP3 ISZERO PUSH2 0x400 JUMPI POP POP PUSH1 0x1 EQ PUSH2 0x3A8 JUMPI JUMPDEST POP PUSH1 0x1F DUP1 NOT SWAP6 DUP7 SWAP3 SUB ADD AND DUP4 ADD SWAP4 PUSH8 0xFFFFFFFFFFFFFFFF SWAP7 DUP5 DUP7 LT DUP9 DUP8 GT OR PUSH2 0x395 JUMPI DUP3 PUSH1 0x6 SLOAD SWAP1 DUP2 DUP10 SHR SWAP2 DUP10 DUP2 AND DUP1 ISZERO PUSH2 0x38B JUMPI JUMPDEST DUP5 DUP5 LT DUP2 EQ PUSH2 0x378 JUMPI SWAP2 DUP10 SWAP2 DUP6 DUP8 SWAP5 DUP7 DUP6 MSTORE SWAP2 DUP3 PUSH1 0x0 EQ PUSH2 0x35A JUMPI POP POP PUSH1 0x1 EQ PUSH2 0x2FA JUMPI JUMPDEST SUB PUSH1 0x1F ADD AND DUP8 ADD SWAP8 SWAP1 POP DUP9 DUP9 GT DUP8 DUP10 LT OR PUSH2 0x2E7 JUMPI PUSH1 0x7 SLOAD DUP5 SWAP2 DUP2 DUP2 SHR SWAP2 DUP1 DUP3 AND DUP1 ISZERO PUSH2 0x2DD JUMPI JUMPDEST DUP6 DUP5 LT DUP2 EQ PUSH2 0x2C9 JUMPI DUP4 DUP13 MSTORE DUP12 SWAP5 SWAP4 SWAP3 SWAP2 DUP2 ISZERO PUSH2 0x2AA JUMPI POP PUSH1 0x1 EQ PUSH2 0x24D JUMPI JUMPDEST POP POP PUSH1 0x1F SWAP3 POP SUB ADD AND DUP6 ADD SWAP6 DUP6 DUP8 LT SWAP1 DUP8 GT OR PUSH2 0x23A JUMPI POP SWAP2 DUP5 SWAP4 SWAP2 DUP5 PUSH2 0x236 SWAP5 MSTORE DUP5 PUSH2 0xB4B JUMP JUMPDEST SUB SWAP1 RETURN JUMPDEST PUSH4 0x4E487B71 PUSH1 0xE0 SHL DUP2 MSTORE PUSH1 0x41 DUP8 MSTORE PUSH1 0x24 SWAP1 REVERT JUMPDEST PUSH1 0x7 DUP8 MSTORE PUSH32 0xA66CC928B5EDB82AF9BD49922954155AB7B0942694BEA4CE44661D9A8736C688 SWAP5 SWAP3 POP DUP7 SWAP2 SWAP1 JUMPDEST DUP2 DUP4 LT PUSH2 0x290 JUMPI POP POP PUSH1 0x1F SWAP4 POP DUP3 ADD ADD DUP12 DUP1 PUSH2 0x20E JUMP JUMPDEST DUP6 SLOAD SWAP5 DUP4 ADD DUP5 ADD SWAP5 SWAP1 SWAP5 MSTORE SWAP4 DUP4 ADD SWAP4 DUP11 SWAP4 SWAP2 DUP4 ADD SWAP2 PUSH2 0x279 JUMP JUMPDEST SWAP2 POP POP PUSH1 0x1F SWAP5 SWAP3 POP PUSH1 0xFF NOT AND DUP3 DUP5 ADD MSTORE ISZERO ISZERO PUSH1 0x5 SHL DUP3 ADD ADD DUP12 DUP1 PUSH2 0x20E JUMP JUMPDEST POP PUSH4 0x4E487B71 PUSH1 0xE0 SHL DUP8 MSTORE PUSH1 0x22 DUP14 MSTORE PUSH1 0x24 DUP8 REVERT JUMPDEST SWAP3 PUSH1 0x7F AND SWAP3 PUSH2 0x1EE JUMP JUMPDEST PUSH4 0x4E487B71 PUSH1 0xE0 SHL DUP5 MSTORE PUSH1 0x41 DUP11 MSTORE PUSH1 0x24 DUP5 REVERT JUMPDEST POP POP PUSH1 0x6 DUP6 MSTORE POP DUP3 DUP8 DUP4 DUP7 DUP12 PUSH32 0xF652222313E28459528D920B65115C16C04F3EFC82AAEDC97BE59F3F377C0D3F JUMPDEST DUP7 DUP4 LT PUSH2 0x33E JUMPI POP SWAP4 SWAP5 POP DUP5 SWAP4 POP DUP3 ADD ADD PUSH2 0x1C6 JUMP JUMPDEST SWAP2 SWAP5 POP SWAP2 SWAP3 POP DUP1 SLOAD DUP4 DUP6 DUP14 ADD ADD MSTORE ADD SWAP2 ADD DUP4 DUP10 SWAP2 DUP12 DUP8 SWAP5 PUSH2 0x328 JUMP JUMPDEST PUSH1 0xFF NOT AND DUP5 DUP3 ADD MSTORE SWAP4 SWAP5 DUP6 SWAP5 SWAP1 ISZERO ISZERO PUSH1 0x5 SHL DUP5 ADD ADD SWAP2 POP PUSH2 0x1C6 SWAP1 POP JUMP JUMPDEST PUSH4 0x4E487B71 PUSH1 0xE0 SHL DUP8 MSTORE PUSH1 0x22 DUP14 MSTORE PUSH1 0x24 DUP8 REVERT JUMPDEST SWAP3 PUSH1 0x7F AND SWAP3 PUSH2 0x1A1 JUMP JUMPDEST PUSH4 0x4E487B71 PUSH1 0xE0 SHL DUP4 MSTORE PUSH1 0x41 DUP10 MSTORE PUSH1 0x24 DUP4 REVERT JUMPDEST PUSH1 0x5 DUP4 MSTORE DUP8 SWAP2 POP DUP3 SWAP1 DUP8 PUSH32 0x36B6384B5ECA791C62761152D0C79BB0604C104A5FB6F4EB0703F3154BB3DB0 JUMPDEST DUP3 DUP5 LT PUSH2 0x3E7 JUMPI POP POP POP DUP5 ADD ADD DUP9 PUSH2 0x16B JUMP JUMPDEST DUP1 SLOAD DUP5 DUP11 ADD DUP7 ADD MSTORE DUP9 SWAP8 POP DUP11 SWAP5 SWAP1 SWAP4 ADD SWAP3 DUP10 SWAP2 ADD PUSH2 0x3D4 JUMP JUMPDEST SWAP2 POP SWAP3 POP PUSH1 0xFF NOT AND DUP3 DUP7 ADD MSTORE ISZERO ISZERO PUSH1 0x5 SHL DUP5 ADD ADD DUP9 PUSH2 0x16B JUMP JUMPDEST PUSH4 0x4E487B71 PUSH1 0xE0 SHL DUP6 MSTORE PUSH1 0x22 DUP11 MSTORE PUSH1 0x24 DUP6 REVERT JUMPDEST SWAP1 PUSH1 0x7F AND SWAP1 PUSH2 0x144 JUMP JUMPDEST DUP4 DUP4 CALLVALUE PUSH2 0xE5 JUMPI DUP2 PUSH1 0x3 NOT CALLDATASIZE ADD SLT PUSH2 0xE5 JUMPI DUP1 MLOAD SWAP1 DUP3 SWAP1 DUP5 SLOAD SWAP2 PUSH1 0x1 DUP4 DUP2 SHR SWAP1 DUP1 DUP6 AND SWAP5 DUP6 ISZERO PUSH2 0x551 JUMPI JUMPDEST PUSH1 0x20 SWAP6 DUP7 DUP5 LT DUP2 EQ PUSH2 0x53E JUMPI DUP4 DUP9 MSTORE SWAP1 DUP7 SWAP1 DUP3 ISZERO PUSH2 0x522 JUMPI POP POP PUSH1 0x1 EQ PUSH2 0x4CE JUMPI JUMPDEST POP POP DUP4 SWAP1 SUB PUSH1 0x1F ADD PUSH1 0x1F NOT AND DUP4 ADD SWAP4 PUSH8 0xFFFFFFFFFFFFFFFF DUP6 GT DUP5 DUP7 LT OR PUSH2 0x4BB JUMPI POP SWAP2 PUSH2 0x236 SWAP2 DUP5 DUP1 SWAP5 MSTORE DUP1 DUP5 MSTORE DUP4 ADD SWAP1 PUSH2 0xADA JUMP JUMPDEST PUSH4 0x4E487B71 PUSH1 0xE0 SHL DUP2 MSTORE PUSH1 0x41 DUP7 MSTORE PUSH1 0x24 SWAP1 REVERT JUMPDEST DUP8 DUP8 MSTORE DUP5 SWAP3 POP DUP7 SWAP2 SWAP1 PUSH32 0x8A35ACFBC15FF81A39AE7D344FD709F28E8600B4AA8C65C6B64BFE7FE36BD19B JUMPDEST DUP3 DUP5 LT PUSH2 0x50D JUMPI POP POP POP DUP5 ADD ADD DUP7 DUP1 PUSH2 0x484 JUMP JUMPDEST DUP1 SLOAD DUP9 DUP6 ADD DUP7 ADD MSTORE DUP7 SWAP5 SWAP1 SWAP4 ADD SWAP3 DUP2 ADD PUSH2 0x4F9 JUMP JUMPDEST SWAP3 POP SWAP4 POP POP PUSH1 0xFF NOT AND DUP3 DUP7 ADD MSTORE ISZERO ISZERO PUSH1 0x5 SHL DUP5 ADD ADD DUP7 DUP1 PUSH2 0x484 JUMP JUMPDEST PUSH4 0x4E487B71 PUSH1 0xE0 SHL DUP10 MSTORE PUSH1 0x22 DUP11 MSTORE PUSH1 0x24 DUP10 REVERT JUMPDEST SWAP2 PUSH1 0x7F AND SWAP2 PUSH2 0x462 JUMP JUMPDEST DUP4 DUP4 CALLVALUE PUSH2 0xE5 JUMPI DUP2 PUSH1 0x3 NOT CALLDATASIZE ADD SLT PUSH2 0xE5 JUMPI DUP1 MLOAD DUP3 SWAP2 PUSH1 0x5 SLOAD SWAP4 PUSH1 0x1 SWAP4 DUP6 DUP6 SHR DUP6 DUP8 AND SWAP7 DUP8 ISZERO PUSH2 0x7D8 JUMPI JUMPDEST PUSH1 0x20 SWAP8 DUP9 DUP4 LT DUP2 EQ PUSH2 0x41A JUMPI DUP3 DUP8 MSTORE DUP7 SWAP6 SWAP5 SWAP4 SWAP3 SWAP2 DUP10 SWAP1 DUP3 ISZERO PUSH2 0x7BE JUMPI POP POP PUSH1 0x1 EQ PUSH2 0x766 JUMPI JUMPDEST POP PUSH1 0x1F DUP1 NOT SWAP6 DUP7 SWAP3 SUB ADD AND DUP4 ADD SWAP4 PUSH8 0xFFFFFFFFFFFFFFFF SWAP7 DUP5 DUP7 LT DUP9 DUP8 GT OR PUSH2 0x395 JUMPI DUP3 PUSH1 0x6 SLOAD SWAP1 DUP2 DUP10 SHR SWAP2 DUP10 DUP2 AND DUP1 ISZERO PUSH2 0x75C JUMPI JUMPDEST DUP5 DUP5 LT DUP2 EQ PUSH2 0x378 JUMPI SWAP2 DUP10 SWAP2 DUP6 DUP8 SWAP5 DUP7 DUP6 MSTORE SWAP2 DUP3 PUSH1 0x0 EQ PUSH2 0x73E JUMPI POP POP PUSH1 0x1 EQ PUSH2 0x6DE JUMPI JUMPDEST SUB PUSH1 0x1F ADD AND DUP8 ADD SWAP8 SWAP1 POP DUP9 DUP9 GT DUP8 DUP10 LT OR PUSH2 0x2E7 JUMPI PUSH1 0x7 SLOAD DUP5 SWAP2 DUP2 DUP2 SHR SWAP2 DUP1 DUP3 AND DUP1 ISZERO PUSH2 0x6D4 JUMPI JUMPDEST DUP6 DUP5 LT DUP2 EQ PUSH2 0x2C9 JUMPI DUP4 DUP13 MSTORE DUP12 SWAP5 SWAP4 SWAP3 SWAP2 DUP2 ISZERO PUSH2 0x2AA JUMPI POP PUSH1 0x1 EQ PUSH2 0x677 JUMPI POP POP PUSH1 0x1F SWAP3 POP SUB ADD AND DUP6 ADD SWAP6 DUP6 DUP8 LT SWAP1 DUP8 GT OR PUSH2 0x23A JUMPI POP SWAP2 DUP5 SWAP4 SWAP2 DUP5 PUSH2 0x236 SWAP5 MSTORE DUP5 PUSH2 0xB4B JUMP JUMPDEST PUSH1 0x7 DUP8 MSTORE PUSH32 0xA66CC928B5EDB82AF9BD49922954155AB7B0942694BEA4CE44661D9A8736C688 SWAP5 SWAP3 POP DUP7 SWAP2 SWAP1 JUMPDEST DUP2 DUP4 LT PUSH2 0x6BA JUMPI POP POP PUSH1 0x1F SWAP4 POP DUP3 ADD ADD DUP12 DUP1 PUSH2 0x20E JUMP JUMPDEST DUP6 SLOAD SWAP5 DUP4 ADD DUP5 ADD SWAP5 SWAP1 SWAP5 MSTORE SWAP4 DUP4 ADD SWAP4 DUP11 SWAP4 SWAP2 DUP4 ADD SWAP2 PUSH2 0x6A3 JUMP JUMPDEST SWAP3 PUSH1 0x7F AND SWAP3 PUSH2 0x630 JUMP JUMPDEST POP POP PUSH1 0x6 DUP6 MSTORE POP DUP3 DUP8 DUP4 DUP7 DUP12 PUSH32 0xF652222313E28459528D920B65115C16C04F3EFC82AAEDC97BE59F3F377C0D3F JUMPDEST DUP7 DUP4 LT PUSH2 0x722 JUMPI POP SWAP4 SWAP5 POP DUP5 SWAP4 POP DUP3 ADD ADD PUSH2 0x608 JUMP JUMPDEST SWAP2 SWAP5 POP SWAP2 SWAP3 POP DUP1 SLOAD DUP4 DUP6 DUP14 ADD ADD MSTORE ADD SWAP2 ADD DUP4 DUP10 SWAP2 DUP12 DUP8 SWAP5 PUSH2 0x70C JUMP JUMPDEST PUSH1 0xFF NOT AND DUP5 DUP3 ADD MSTORE SWAP4 SWAP5 DUP6 SWAP5 SWAP1 ISZERO ISZERO PUSH1 0x5 SHL DUP5 ADD ADD SWAP2 POP PUSH2 0x608 SWAP1 POP JUMP JUMPDEST SWAP3 PUSH1 0x7F AND SWAP3 PUSH2 0x5E3 JUMP JUMPDEST PUSH1 0x5 DUP4 MSTORE DUP8 SWAP2 POP DUP3 SWAP1 DUP8 PUSH32 0x36B6384B5ECA791C62761152D0C79BB0604C104A5FB6F4EB0703F3154BB3DB0 JUMPDEST DUP3 DUP5 LT PUSH2 0x7A5 JUMPI POP POP POP DUP5 ADD ADD DUP9 PUSH2 0x5AD JUMP JUMPDEST DUP1 SLOAD DUP5 DUP11 ADD DUP7 ADD MSTORE DUP9 SWAP8 POP DUP11 SWAP5 SWAP1 SWAP4 ADD SWAP3 DUP10 SWAP2 ADD PUSH2 0x792 JUMP JUMPDEST SWAP2 POP SWAP3 POP PUSH1 0xFF NOT AND DUP3 DUP7 ADD MSTORE ISZERO ISZERO PUSH1 0x5 SHL DUP5 ADD ADD DUP9 PUSH2 0x5AD JUMP JUMPDEST SWAP1 PUSH1 0x7F AND SWAP1 PUSH2 0x586 JUMP JUMPDEST POP POP CALLVALUE PUSH2 0xE5 JUMPI PUSH1 0x20 CALLDATASIZE PUSH1 0x3 NOT ADD SLT PUSH2 0xE5 JUMPI PUSH1 0x20 SWAP2 DUP2 SWAP1 PUSH1 0x1 PUSH1 0x1 PUSH1 0xA0 SHL SUB PUSH2 0x80A PUSH2 0xB1A JUMP JUMPDEST AND DUP2 MSTORE DUP1 DUP5 MSTORE KECCAK256 SLOAD SWAP1 MLOAD SWAP1 DUP2 MSTORE RETURN JUMPDEST POP POP CALLVALUE PUSH2 0xE5 JUMPI DUP2 PUSH1 0x3 NOT CALLDATASIZE ADD SLT PUSH2 0xE5 JUMPI PUSH1 0x20 SWAP1 MLOAD PUSH1 0x12 DUP2 MSTORE RETURN JUMPDEST SWAP1 POP DUP3 CALLVALUE PUSH2 0x929 JUMPI PUSH1 0x60 CALLDATASIZE PUSH1 0x3 NOT ADD SLT PUSH2 0x929 JUMPI PUSH2 0x851 PUSH2 0xB1A JUMP JUMPDEST PUSH2 0x859 PUSH2 0xB35 JUMP JUMPDEST SWAP2 PUSH1 0x44 CALLDATALOAD SWAP4 PUSH1 0x1 DUP1 PUSH1 0xA0 SHL SUB DUP4 AND DUP1 DUP4 MSTORE PUSH1 0x1 PUSH1 0x20 MSTORE DUP7 DUP4 KECCAK256 CALLER DUP5 MSTORE PUSH1 0x20 MSTORE DUP7 DUP4 KECCAK256 SLOAD SWAP2 PUSH1 0x0 NOT DUP4 LT PUSH2 0x895 JUMPI JUMPDEST PUSH1 0x20 DUP9 PUSH2 0x112 DUP10 DUP10 DUP10 PUSH2 0xB85 JUMP JUMPDEST DUP7 DUP4 LT PUSH2 0x8FD JUMPI DUP2 ISZERO PUSH2 0x8E6 JUMPI CALLER ISZERO PUSH2 0x8CF JUMPI POP DUP3 MSTORE PUSH1 0x1 PUSH1 0x20 SWAP1 DUP2 MSTORE DUP7 DUP4 KECCAK256 CALLER DUP5 MSTORE DUP2 MSTORE SWAP2 DUP7 SWAP1 KECCAK256 SWAP1 DUP6 SWAP1 SUB SWAP1 SSTORE DUP3 SWAP1 PUSH2 0x112 DUP8 PUSH2 0x887 JUMP JUMPDEST DUP8 MLOAD PUSH4 0x4A1406B1 PUSH1 0xE1 SHL DUP2 MSTORE SWAP1 DUP2 ADD DUP5 SWAP1 MSTORE PUSH1 0x24 SWAP1 REVERT JUMPDEST DUP8 MLOAD PUSH4 0xE602DF05 PUSH1 0xE0 SHL DUP2 MSTORE SWAP1 DUP2 ADD DUP5 SWAP1 MSTORE PUSH1 0x24 SWAP1 REVERT JUMPDEST DUP8 MLOAD PUSH4 0x7DC7A0D9 PUSH1 0xE1 SHL DUP2 MSTORE CALLER SWAP2 DUP2 ADD SWAP2 DUP3 MSTORE PUSH1 0x20 DUP3 ADD SWAP4 SWAP1 SWAP4 MSTORE PUSH1 0x40 DUP2 ADD DUP8 SWAP1 MSTORE DUP3 SWAP2 POP PUSH1 0x60 ADD SUB SWAP1 REVERT JUMPDEST DUP1 REVERT JUMPDEST POP POP CALLVALUE PUSH2 0xE5 JUMPI DUP2 PUSH1 0x3 NOT CALLDATASIZE ADD SLT PUSH2 0xE5 JUMPI PUSH1 0x20 SWAP1 PUSH1 0x2 SLOAD SWAP1 MLOAD SWAP1 DUP2 MSTORE RETURN JUMPDEST SWAP1 POP CALLVALUE PUSH2 0x9F5 JUMPI DUP2 PUSH1 0x3 NOT CALLDATASIZE ADD SLT PUSH2 0x9F5 JUMPI PUSH2 0x965 PUSH2 0xB1A JUMP JUMPDEST PUSH1 0x24 CALLDATALOAD SWAP1 CALLER ISZERO PUSH2 0x9DE JUMPI PUSH1 0x1 PUSH1 0x1 PUSH1 0xA0 SHL SUB AND SWAP2 DUP3 ISZERO PUSH2 0x9C7 JUMPI POP DUP1 DUP4 PUSH1 0x20 SWAP6 CALLER DUP2 MSTORE PUSH1 0x1 DUP8 MSTORE DUP2 DUP2 KECCAK256 DUP6 DUP3 MSTORE DUP8 MSTORE KECCAK256 SSTORE DUP3 MLOAD SWAP1 DUP2 MSTORE PUSH32 0x8C5BE1E5EBEC7D5BD14F71427D1E84F3DD0314C0F7B2291E5B200AC8C7C3B925 DUP5 CALLER SWAP3 LOG3 MLOAD PUSH1 0x1 DUP2 MSTORE RETURN JUMPDEST DUP4 MLOAD PUSH4 0x4A1406B1 PUSH1 0xE1 SHL DUP2 MSTORE SWAP1 DUP2 ADD DUP6 SWAP1 MSTORE PUSH1 0x24 SWAP1 REVERT JUMPDEST DUP4 MLOAD PUSH4 0xE602DF05 PUSH1 0xE0 SHL DUP2 MSTORE DUP1 DUP5 ADD DUP7 SWAP1 MSTORE PUSH1 0x24 SWAP1 REVERT JUMPDEST DUP3 DUP1 REVERT JUMPDEST DUP5 SWAP1 DUP5 CALLVALUE PUSH2 0x9F5 JUMPI DUP3 PUSH1 0x3 NOT CALLDATASIZE ADD SLT PUSH2 0x9F5 JUMPI DUP3 SWAP1 PUSH1 0x3 SLOAD SWAP2 PUSH1 0x1 DUP4 DUP2 SHR SWAP1 DUP1 DUP6 AND SWAP5 DUP6 ISZERO PUSH2 0xAD0 JUMPI JUMPDEST PUSH1 0x20 SWAP6 DUP7 DUP5 LT DUP2 EQ PUSH2 0x53E JUMPI DUP4 DUP9 MSTORE SWAP1 DUP7 SWAP1 DUP3 ISZERO PUSH2 0x522 JUMPI POP POP PUSH1 0x1 EQ PUSH2 0xA7B JUMPI POP POP DUP4 SWAP1 SUB PUSH1 0x1F ADD PUSH1 0x1F NOT AND DUP4 ADD SWAP4 PUSH8 0xFFFFFFFFFFFFFFFF DUP6 GT DUP5 DUP7 LT OR PUSH2 0x4BB JUMPI POP SWAP2 PUSH2 0x236 SWAP2 DUP5 DUP1 SWAP5 MSTORE DUP1 DUP5 MSTORE DUP4 ADD SWAP1 PUSH2 0xADA JUMP JUMPDEST PUSH1 0x3 DUP8 MSTORE DUP5 SWAP3 POP DUP7 SWAP2 SWAP1 PUSH32 0xC2575A0E9E593C00F959F8C92F12DB2869C3395A3B0502D05E2516446F71F85B JUMPDEST DUP3 DUP5 LT PUSH2 0xABB JUMPI POP POP POP DUP5 ADD ADD DUP7 DUP1 PUSH2 0x484 JUMP JUMPDEST DUP1 SLOAD DUP9 DUP6 ADD DUP7 ADD MSTORE DUP7 SWAP5 SWAP1 SWAP4 ADD SWAP3 DUP2 ADD PUSH2 0xAA7 JUMP JUMPDEST SWAP2 PUSH1 0x7F AND SWAP2 PUSH2 0xA23 JUMP JUMPDEST SWAP2 SWAP1 DUP3 MLOAD SWAP3 DUP4 DUP3 MSTORE PUSH1 0x0 JUMPDEST DUP5 DUP2 LT PUSH2 0xB06 JUMPI POP POP DUP3 PUSH1 0x0 PUSH1 0x20 DUP1 SWAP5 SWAP6 DUP5 ADD ADD MSTORE PUSH1 0x1F DUP1 NOT SWAP2 ADD AND ADD ADD SWAP1 JUMP JUMPDEST PUSH1 0x20 DUP2 DUP4 ADD DUP2 ADD MLOAD DUP5 DUP4 ADD DUP3 ADD MSTORE ADD PUSH2 0xAE5 JUMP JUMPDEST PUSH1 0x4 CALLDATALOAD SWAP1 PUSH1 0x1 PUSH1 0x1 PUSH1 0xA0 SHL SUB DUP3 AND DUP3 SUB PUSH2 0xB30 JUMPI JUMP JUMPDEST PUSH1 0x0 DUP1 REVERT JUMPDEST PUSH1 0x24 CALLDATALOAD SWAP1 PUSH1 0x1 PUSH1 0x1 PUSH1 0xA0 SHL SUB DUP3 AND DUP3 SUB PUSH2 0xB30 JUMPI JUMP JUMPDEST SWAP2 PUSH2 0xB74 SWAP1 PUSH2 0xB66 PUSH2 0xB82 SWAP6 SWAP4 PUSH1 0x60 DUP7 MSTORE PUSH1 0x60 DUP7 ADD SWAP1 PUSH2 0xADA JUMP JUMPDEST SWAP1 DUP5 DUP3 SUB PUSH1 0x20 DUP7 ADD MSTORE PUSH2 0xADA JUMP JUMPDEST SWAP2 PUSH1 0x40 DUP2 DUP5 SUB SWAP2 ADD MSTORE PUSH2 0xADA JUMP JUMPDEST SWAP1 JUMP JUMPDEST SWAP2 PUSH1 0x1 PUSH1 0x1 PUSH1 0xA0 SHL SUB DUP1 DUP5 AND SWAP3 DUP4 ISZERO PUSH2 0xC4A JUMPI AND SWAP3 DUP4 ISZERO PUSH2 0xC31 JUMPI PUSH1 0x0 SWAP1 DUP4 DUP3 MSTORE DUP2 PUSH1 0x20 MSTORE PUSH1 0x40 DUP3 KECCAK256 SLOAD SWAP1 DUP4 DUP3 LT PUSH2 0xBFF JUMPI POP SWAP2 PUSH1 0x40 DUP3 DUP3 PUSH32 0xDDF252AD1BE2C89B69C2B068FC378DAA952BA7F163C4A11628F55A4DF523B3EF SWAP6 DUP8 PUSH1 0x20 SWAP7 MSTORE DUP3 DUP7 MSTORE SUB DUP3 DUP3 KECCAK256 SSTORE DUP7 DUP2 MSTORE KECCAK256 DUP2 DUP2 SLOAD ADD SWAP1 SSTORE PUSH1 0x40 MLOAD SWAP1 DUP2 MSTORE LOG3 JUMP JUMPDEST PUSH1 0x40 MLOAD PUSH4 0x391434E3 PUSH1 0xE2 SHL DUP2 MSTORE PUSH1 0x1 PUSH1 0x1 PUSH1 0xA0 SHL SUB SWAP2 SWAP1 SWAP2 AND PUSH1 0x4 DUP3 ADD MSTORE PUSH1 0x24 DUP2 ADD SWAP2 SWAP1 SWAP2 MSTORE PUSH1 0x44 DUP2 ADD DUP4 SWAP1 MSTORE PUSH1 0x64 SWAP1 REVERT JUMPDEST PUSH1 0x40 MLOAD PUSH4 0xEC442F05 PUSH1 0xE0 SHL DUP2 MSTORE PUSH1 0x0 PUSH1 0x4 DUP3 ADD MSTORE PUSH1 0x24 SWAP1 REVERT JUMPDEST PUSH1 0x40 MLOAD PUSH4 0x4B637E8F PUSH1 0xE1 SHL DUP2 MSTORE PUSH1 0x0 PUSH1 0x4 DUP3 ADD MSTORE PUSH1 0x24 SWAP1 REVERT INVALID LOG2 PUSH5 0x6970667358 0x22 SLT KECCAK256 0xDC SELFDESTRUCT SHR SWAP12 0xD4 PUSH16 0x97CED925C4851C735F0252C1494C872E CODECOPY GASPRICE DELEGATECALL 0xB5 SWAP12 SWAP9 STATICCALL 0xDB BYTE SWAP12 PUSH5 0x736F6C6343 STOP ADDMOD EQ STOP CALLER COINBASE LT PUSH0 PUSH20 0x3C92E731673DB8D7877F039F0CCE3BC6436D38E5 0xC3 PUSH28 0xCE47F2A4B149A66CC928B5EDB82AF9BD49922954155AB7B0942694BE LOG4 0xCE PREVRANDAO PUSH7 0x1D9A8736C688F6 MSTORE 0x22 0x23 SGT 0xE2 DUP5 MSIZE MSTORE DUP14 SWAP3 SIGNEXTEND PUSH6 0x115C16C04F3E 0xFC DUP3 0xAA 0xED 0xC9 PUSH28 0xE59F3F377C0D3F000000000000000000000000000000000000000000 "},"methodIdentifiers":{"allowance(address,address)":"dd62ed3e","approve(address,uint256)":"095ea7b3","balanceOf(address)":"70a08231","decimals()":"313ce567","getSocialProfile()":"93427cd5","name()":"06fdde03","socialProfile()":"a8fb7d40","symbol()":"95d89b41","totalSupply()":"18160ddd","transfer(address,uint256)":"a9059cbb","transferFrom(address,address,uint256)":"23b872dd"}}}}}