{"contracts/TokenizedProfileDex.sol":{"TokenizedProfileDex":{"abi":[{"inputs":[{"internalType":"address","name":"_swapRouter","type":"address"},{"internalType":"address","name":"_weth","type":"address"}],"stateMutability":"nonpayable","type":"constructor"},{"anonymous":false,"inputs":[{"indexed":true,"internalType":"address","name":"user","type":"address"},{"indexed":false,"internalType":"address","name":"tokenOut","type":"address"},{"indexed":false,"internalType":"uint256","name":"amountIn","type":"uint256"},{"indexed":false,"internalType":"uint256","name":"amountOut","type":"uint256"}],"name":"SwapETHForTokens","type":"event"},{"anonymous":false,"inputs":[{"indexed":true,"internalType":"address","name":"user","type":"address"},{"indexed":false,"internalType":"address","name":"tokenIn","type":"address"},{"indexed":false,"internalType":"uint256","name":"amountIn","type":"uint256"},{"indexed":false,"internalType":"uint256","name":"amountOut","type":"uint256"}],"name":"SwapTokensForETH","type":"event"},{"anonymous":false,"inputs":[{"indexed":true,"internalType":"address","name":"user","type":"address"},{"indexed":false,"internalType":"address","name":"tokenIn","type":"address"},{"indexed":false,"internalType":"address","name":"tokenOut","type":"address"},{"indexed":false,"internalType":"uint256","name":"amountIn","type":"uint256"},{"indexed":false,"internalType":"uint256","name":"amountOut","type":"uint256"}],"name":"SwapTokensForTokens","type":"event"},{"inputs":[],"name":"WETH","outputs":[{"internalType":"address","name":"","type":"address"}],"stateMutability":"view","type":"function"},{"inputs":[{"internalType":"address","name":"tokenOut","type":"address"},{"internalType":"uint256","name":"amountOutMin","type":"uint256"},{"internalType":"uint24","name":"fee","type":"uint24"}],"name":"swapETHForTokens","outputs":[{"internalType":"uint256","name":"amountOut","type":"uint256"}],"stateMutability":"payable","type":"function"},{"inputs":[],"name":"swapRouter","outputs":[{"internalType":"address","name":"","type":"address"}],"stateMutability":"view","type":"function"},{"inputs":[{"internalType":"address","name":"tokenIn","type":"address"},{"internalType":"uint256","name":"amountIn","type":"uint256"},{"internalType":"uint256","name":"amountOutMin","type":"uint256"},{"internalType":"uint24","name":"fee","type":"uint24"}],"name":"swapTokensForETH","outputs":[{"internalType":"uint256","name":"amountOut","type":"uint256"}],"stateMutability":"nonpayable","type":"function"},{"inputs":[{"internalType":"address","name":"tokenIn","type":"address"},{"internalType":"address","name":"tokenOut","type":"address"},{"internalType":"uint256","name":"amountIn","type":"uint256"},{"internalType":"uint256","name":"amountOutMin","type":"uint256"},{"internalType":"uint24","name":"fee","type":"uint24"}],"name":"swapTokensForTokens","outputs":[{"internalType":"uint256","name":"amountOut","type":"uint256"}],"stateMutability":"nonpayable","type":"function"},{"stateMutability":"payable","type":"receive"}],"evm":{"bytecode":{"linkReferences":{},"object":"60c03461014357601f610d7138819003918201601f19168301916001600160401b0383118484101761014857808492604094855283398101031261014357610052602061004b8361015e565b920161015e565b906001600160a01b03808216156100fe578216156100b95760805260a052604051610bfe9081610173823960805181818160730152818161019c0152818161056a01526107cb015260a05181818160ba015281816102230152818161051001526108390152f35b60405162461bcd60e51b815260206004820152601460248201527f496e76616c6964205745544820616464726573730000000000000000000000006044820152606490fd5b60405162461bcd60e51b815260206004820152601660248201527f496e76616c696420726f757465722061646472657373000000000000000000006044820152606490fd5b600080fd5b634e487b7160e01b600052604160045260246000fd5b51906001600160a01b03821682036101435756fe60406080815260049081361015610020575b5050361561001e57600080fd5b005b600091823560e01c9081635288839f146107275781637d2f8b31146104c757816387111a50146100e957508063ad5c4648146100a65763c31c9c070361001157346100a257816003193601126100a257517f00000000000000000000000000000000000000000000000000000000000000006001600160a01b03168152602090f35b5080fd5b50346100a257816003193601126100a257517f00000000000000000000000000000000000000000000000000000000000000006001600160a01b03168152602090f35b8383346100a25760a03660031901126100a257610104610a53565b926001600160a01b03602435808216900361038e576044359062ffffff608435166084350361038e57610138821515610b89565b808616928315610484578160243516156104415784516323b872dd60e01b815233828201908152306020828101919091526040820186905298919089908290819060600103818b8a5af180156104375761041a575b50855163095ea7b360e01b81527f00000000000000000000000000000000000000000000000000000000000000006001600160a01b03811684830190815260208101879052909291908a908290819060400103818c8b5af18015610410576103e3575b508651906bffffffffffffffffffffffff19809160601b168a83015262ffffff60e81b60843560e81b16806034840152817f000000000000000000000000000000000000000000000000000000000000000060601b166037840152604b83015260243560601b16604e820152604281526080810167ffffffffffffffff828210818311176103ce576101008301908111828210176103ce57858b95938695938c938c5281815260a082019133835260e060c08201918c8352019160643583528d51998a9863b858183f60e01b8a528901525192608060248901528351938460a48a015289875b8681106103a5575050509260c49288969594928588948887868801015251166044850152516064840152516084830152601f80199101168101030193165af195861561039a5795610366575b5083519283526024351685830152828201528260608201527f6c60dfa77621202c19886a83d996f4a7c764b2200c5f7cad231798add53179c260803392a251908152f35b9094508581813d8311610393575b61037e8183610af3565b8101031261038e57519386610322565b600080fd5b503d610374565b8551903d90823e3d90fd5b929598995092955092955081818401015160c4828c0101520192889695928e9592898c966102d6565b604185634e487b7160e01b6000525260246000fd5b610402908a3d8c11610409575b6103fa8183610af3565b810190610b15565b50896101f0565b503d6103f0565b88513d8b823e3d90fd5b61043090893d8b11610409576103fa8183610af3565b508861018d565b87513d8a823e3d90fd5b606490602086519162461bcd60e51b8352820152601860248201527f496e76616c696420746f6b656e4f7574206164647265737300000000000000006044820152fd5b606490602086519162461bcd60e51b8352820152601760248201527f496e76616c696420746f6b656e496e20616464726573730000000000000000006044820152fd5b838360603660031901126100a2576104dd610a53565b60443562ffffff811680910361038e5734156106f4576001600160a01b038281169590919061050d871515610a69565b827f00000000000000000000000000000000000000000000000000000000000000001692833b156106f0578551630d0e30db60e41b81528781848134895af18015610437579088916106dc575b5050855163095ea7b360e01b81527f00000000000000000000000000000000000000000000000000000000000000006001600160a01b038116848301908152346020808301919091529a919592908b908290819060400103818d8b5af180156106d257928a928c9795926106199997956106b5575b508a51966105dc88610aad565b8752878701528986015233606086015234608086015260243560a08601528160c086015288518097819682956304e45aaf60e01b84528301610b2d565b0393165af19384156106aa579361067b575b5081516001600160a01b0390911681523460208201526040810183905233907f4c8d20e37a3970898f750fee782c21410aa4fe6513487f5b3abc91b59be074479080606081015b0390a251908152f35b9092508381813d83116106a3575b6106938183610af3565b8101031261038e5751918461062b565b503d610689565b8351903d90823e3d90fd5b6106cb90893d8b11610409576103fa8183610af3565b508d6105cf565b89513d8c823e3d90fd5b6106e590610adf565b6106f057868961055a565b8680fd5b825162461bcd60e51b8152602081870152600d60248201526c09aeae6e840e6cadcc8408aa89609b1b6044820152606490fd5b8383346100a25760803660031901126100a257610742610a53565b6024356064359462ffffff8616809603610a4f57610761821515610b89565b6001600160a01b038381169690959061077b881515610a69565b85516323b872dd60e01b81523384820190815230602082810191909152604082018790529991908a9082908190606001038187865af18015610a4557610a28575b50865163095ea7b360e01b81527f00000000000000000000000000000000000000000000000000000000000000006001600160a01b03811686830190815260208101889052909291908b9082908190604001038188865af18015610a1e57918b939161089893610a01575b5089519061083482610aad565b81528a7f0000000000000000000000000000000000000000000000000000000000000000169485858301528a82015230606082015287608082015260443560a08201528560c0820152858a519b8c809581946304e45aaf60e01b83528b8301610b2d565b0393165af19687156109c85782976109d2575b50803b156100a2578180916024885180948193632e1a7d4d60e01b83528c898401525af180156109c8576109b9575b508080808089335af1903d156109b3573d9067ffffffffffffffff82116109a057865191610911601f8201601f19168b0184610af3565b8252883d92013e5b15610968575082516001600160a01b03909216825260208201526040810183905233907ff648388853a921938c2f7c68a5576a93c70cef958c5f13b690650711ed498248908060608101610672565b835162461bcd60e51b8152908101869052601260248201527108cc2d2d8cac840e8de40e6cadcc8408aa8960731b6044820152606490fd5b634e487b7160e01b815260418452602490fd5b50610919565b6109c290610adf565b876108da565b86513d84823e3d90fd5b9096508781813d83116109fa575b6109ea8183610af3565b810103126100a2575195886108ab565b503d6109e0565b610a1790853d8711610409576103fa8183610af3565b508c610827565b89513d87823e3d90fd5b610a3e908a3d8c11610409576103fa8183610af3565b50896107bc565b88513d86823e3d90fd5b8480fd5b600435906001600160a01b038216820361038e57565b15610a7057565b60405162461bcd60e51b8152602060048201526015602482015274496e76616c696420746f6b656e206164647265737360581b6044820152606490fd5b60e0810190811067ffffffffffffffff821117610ac957604052565b634e487b7160e01b600052604160045260246000fd5b67ffffffffffffffff8111610ac957604052565b90601f8019910116810190811067ffffffffffffffff821117610ac957604052565b9081602091031261038e5751801515810361038e5790565b91909160c060e08201938160018060a01b039182815116855282602082015116602086015262ffffff60408201511660408601528260608201511660608601526080810151608086015260a081015160a0860152015116910152565b15610b9057565b60405162461bcd60e51b815260206004820152601060248201526f4d7573742073656e6420746f6b656e7360801b6044820152606490fdfea26469706673582212205b52e058e9d9acd30060135fb64d13748514203496bd449b1472d19b6b7c286964736f6c63430008140033","opcodes":"PUSH1 0xC0 CALLVALUE PUSH2 0x143 JUMPI PUSH1 0x1F PUSH2 0xD71 CODESIZE DUP2 SWAP1 SUB SWAP2 DUP3 ADD PUSH1 0x1F NOT AND DUP4 ADD SWAP2 PUSH1 0x1 PUSH1 0x1 PUSH1 0x40 SHL SUB DUP4 GT DUP5 DUP5 LT OR PUSH2 0x148 JUMPI DUP1 DUP5 SWAP3 PUSH1 0x40 SWAP5 DUP6 MSTORE DUP4 CODECOPY DUP2 ADD SUB SLT PUSH2 0x143 JUMPI PUSH2 0x52 PUSH1 0x20 PUSH2 0x4B DUP4 PUSH2 0x15E JUMP JUMPDEST SWAP3 ADD PUSH2 0x15E JUMP JUMPDEST SWAP1 PUSH1 0x1 PUSH1 0x1 PUSH1 0xA0 SHL SUB DUP1 DUP3 AND ISZERO PUSH2 0xFE JUMPI DUP3 AND ISZERO PUSH2 0xB9 JUMPI PUSH1 0x80 MSTORE PUSH1 0xA0 MSTORE PUSH1 0x40 MLOAD PUSH2 0xBFE SWAP1 DUP2 PUSH2 0x173 DUP3 CODECOPY PUSH1 0x80 MLOAD DUP2 DUP2 DUP2 PUSH1 0x73 ADD MSTORE DUP2 DUP2 PUSH2 0x19C ADD MSTORE DUP2 DUP2 PUSH2 0x56A ADD MSTORE PUSH2 0x7CB ADD MSTORE PUSH1 0xA0 MLOAD DUP2 DUP2 DUP2 PUSH1 0xBA ADD MSTORE DUP2 DUP2 PUSH2 0x223 ADD MSTORE DUP2 DUP2 PUSH2 0x510 ADD MSTORE PUSH2 0x839 ADD MSTORE RETURN JUMPDEST PUSH1 0x40 MLOAD PUSH3 0x461BCD PUSH1 0xE5 SHL DUP2 MSTORE PUSH1 0x20 PUSH1 0x4 DUP3 ADD MSTORE PUSH1 0x14 PUSH1 0x24 DUP3 ADD MSTORE PUSH32 0x496E76616C696420574554482061646472657373000000000000000000000000 PUSH1 0x44 DUP3 ADD MSTORE PUSH1 0x64 SWAP1 REVERT JUMPDEST PUSH1 0x40 MLOAD PUSH3 0x461BCD PUSH1 0xE5 SHL DUP2 MSTORE PUSH1 0x20 PUSH1 0x4 DUP3 ADD MSTORE PUSH1 0x16 PUSH1 0x24 DUP3 ADD MSTORE PUSH32 0x496E76616C696420726F75746572206164647265737300000000000000000000 PUSH1 0x44 DUP3 ADD MSTORE PUSH1 0x64 SWAP1 REVERT JUMPDEST PUSH1 0x0 DUP1 REVERT JUMPDEST PUSH4 0x4E487B71 PUSH1 0xE0 SHL PUSH1 0x0 MSTORE PUSH1 0x41 PUSH1 0x4 MSTORE PUSH1 0x24 PUSH1 0x0 REVERT JUMPDEST MLOAD SWAP1 PUSH1 0x1 PUSH1 0x1 PUSH1 0xA0 SHL SUB DUP3 AND DUP3 SUB PUSH2 0x143 JUMPI JUMP INVALID PUSH1 0x40 PUSH1 0x80 DUP2 MSTORE PUSH1 0x4 SWAP1 DUP2 CALLDATASIZE LT ISZERO PUSH2 0x20 JUMPI JUMPDEST POP POP CALLDATASIZE ISZERO PUSH2 0x1E JUMPI PUSH1 0x0 DUP1 REVERT JUMPDEST STOP JUMPDEST PUSH1 0x0 SWAP2 DUP3 CALLDATALOAD PUSH1 0xE0 SHR SWAP1 DUP2 PUSH4 0x5288839F EQ PUSH2 0x727 JUMPI DUP2 PUSH4 0x7D2F8B31 EQ PUSH2 0x4C7 JUMPI DUP2 PUSH4 0x87111A50 EQ PUSH2 0xE9 JUMPI POP DUP1 PUSH4 0xAD5C4648 EQ PUSH2 0xA6 JUMPI PUSH4 0xC31C9C07 SUB PUSH2 0x11 JUMPI CALLVALUE PUSH2 0xA2 JUMPI DUP2 PUSH1 0x3 NOT CALLDATASIZE ADD SLT PUSH2 0xA2 JUMPI MLOAD PUSH32 0x0 PUSH1 0x1 PUSH1 0x1 PUSH1 0xA0 SHL SUB AND DUP2 MSTORE PUSH1 0x20 SWAP1 RETURN JUMPDEST POP DUP1 REVERT JUMPDEST POP CALLVALUE PUSH2 0xA2 JUMPI DUP2 PUSH1 0x3 NOT CALLDATASIZE ADD SLT PUSH2 0xA2 JUMPI MLOAD PUSH32 0x0 PUSH1 0x1 PUSH1 0x1 PUSH1 0xA0 SHL SUB AND DUP2 MSTORE PUSH1 0x20 SWAP1 RETURN JUMPDEST DUP4 DUP4 CALLVALUE PUSH2 0xA2 JUMPI PUSH1 0xA0 CALLDATASIZE PUSH1 0x3 NOT ADD SLT PUSH2 0xA2 JUMPI PUSH2 0x104 PUSH2 0xA53 JUMP JUMPDEST SWAP3 PUSH1 0x1 PUSH1 0x1 PUSH1 0xA0 SHL SUB PUSH1 0x24 CALLDATALOAD DUP1 DUP3 AND SWAP1 SUB PUSH2 0x38E JUMPI PUSH1 0x44 CALLDATALOAD SWAP1 PUSH3 0xFFFFFF PUSH1 0x84 CALLDATALOAD AND PUSH1 0x84 CALLDATALOAD SUB PUSH2 0x38E JUMPI PUSH2 0x138 DUP3 ISZERO ISZERO PUSH2 0xB89 JUMP JUMPDEST DUP1 DUP7 AND SWAP3 DUP4 ISZERO PUSH2 0x484 JUMPI DUP2 PUSH1 0x24 CALLDATALOAD AND ISZERO PUSH2 0x441 JUMPI DUP5 MLOAD PUSH4 0x23B872DD PUSH1 0xE0 SHL DUP2 MSTORE CALLER DUP3 DUP3 ADD SWAP1 DUP2 MSTORE ADDRESS PUSH1 0x20 DUP3 DUP2 ADD SWAP2 SWAP1 SWAP2 MSTORE PUSH1 0x40 DUP3 ADD DUP7 SWAP1 MSTORE SWAP9 SWAP2 SWAP1 DUP10 SWAP1 DUP3 SWAP1 DUP2 SWAP1 PUSH1 0x60 ADD SUB DUP2 DUP12 DUP11 GAS CALL DUP1 ISZERO PUSH2 0x437 JUMPI PUSH2 0x41A JUMPI JUMPDEST POP DUP6 MLOAD PUSH4 0x95EA7B3 PUSH1 0xE0 SHL DUP2 MSTORE PUSH32 0x0 PUSH1 0x1 PUSH1 0x1 PUSH1 0xA0 SHL SUB DUP2 AND DUP5 DUP4 ADD SWAP1 DUP2 MSTORE PUSH1 0x20 DUP2 ADD DUP8 SWAP1 MSTORE SWAP1 SWAP3 SWAP2 SWAP1 DUP11 SWAP1 DUP3 SWAP1 DUP2 SWAP1 PUSH1 0x40 ADD SUB DUP2 DUP13 DUP12 GAS CALL DUP1 ISZERO PUSH2 0x410 JUMPI PUSH2 0x3E3 JUMPI JUMPDEST POP DUP7 MLOAD SWAP1 PUSH12 0xFFFFFFFFFFFFFFFFFFFFFFFF NOT DUP1 SWAP2 PUSH1 0x60 SHL AND DUP11 DUP4 ADD MSTORE PUSH3 0xFFFFFF PUSH1 0xE8 SHL PUSH1 0x84 CALLDATALOAD PUSH1 0xE8 SHL AND DUP1 PUSH1 0x34 DUP5 ADD MSTORE DUP2 PUSH32 0x0 PUSH1 0x60 SHL AND PUSH1 0x37 DUP5 ADD MSTORE PUSH1 0x4B DUP4 ADD MSTORE PUSH1 0x24 CALLDATALOAD PUSH1 0x60 SHL AND PUSH1 0x4E DUP3 ADD MSTORE PUSH1 0x42 DUP2 MSTORE PUSH1 0x80 DUP2 ADD PUSH8 0xFFFFFFFFFFFFFFFF DUP3 DUP3 LT DUP2 DUP4 GT OR PUSH2 0x3CE JUMPI PUSH2 0x100 DUP4 ADD SWAP1 DUP2 GT DUP3 DUP3 LT OR PUSH2 0x3CE JUMPI DUP6 DUP12 SWAP6 SWAP4 DUP7 SWAP6 SWAP4 DUP13 SWAP4 DUP13 MSTORE DUP2 DUP2 MSTORE PUSH1 0xA0 DUP3 ADD SWAP2 CALLER DUP4 MSTORE PUSH1 0xE0 PUSH1 0xC0 DUP3 ADD SWAP2 DUP13 DUP4 MSTORE ADD SWAP2 PUSH1 0x64 CALLDATALOAD DUP4 MSTORE DUP14 MLOAD SWAP10 DUP11 SWAP9 PUSH4 0xB858183F PUSH1 0xE0 SHL DUP11 MSTORE DUP10 ADD MSTORE MLOAD SWAP3 PUSH1 0x80 PUSH1 0x24 DUP10 ADD MSTORE DUP4 MLOAD SWAP4 DUP5 PUSH1 0xA4 DUP11 ADD MSTORE DUP10 DUP8 JUMPDEST DUP7 DUP2 LT PUSH2 0x3A5 JUMPI POP POP POP SWAP3 PUSH1 0xC4 SWAP3 DUP9 SWAP7 SWAP6 SWAP5 SWAP3 DUP6 DUP9 SWAP5 DUP9 DUP8 DUP7 DUP9 ADD ADD MSTORE MLOAD AND PUSH1 0x44 DUP6 ADD MSTORE MLOAD PUSH1 0x64 DUP5 ADD MSTORE MLOAD PUSH1 0x84 DUP4 ADD MSTORE PUSH1 0x1F DUP1 NOT SWAP2 ADD AND DUP2 ADD SUB ADD SWAP4 AND GAS CALL SWAP6 DUP7 ISZERO PUSH2 0x39A JUMPI SWAP6 PUSH2 0x366 JUMPI JUMPDEST POP DUP4 MLOAD SWAP3 DUP4 MSTORE PUSH1 0x24 CALLDATALOAD AND DUP6 DUP4 ADD MSTORE DUP3 DUP3 ADD MSTORE DUP3 PUSH1 0x60 DUP3 ADD MSTORE PUSH32 0x6C60DFA77621202C19886A83D996F4A7C764B2200C5F7CAD231798ADD53179C2 PUSH1 0x80 CALLER SWAP3 LOG2 MLOAD SWAP1 DUP2 MSTORE RETURN JUMPDEST SWAP1 SWAP5 POP DUP6 DUP2 DUP2 RETURNDATASIZE DUP4 GT PUSH2 0x393 JUMPI JUMPDEST PUSH2 0x37E DUP2 DUP4 PUSH2 0xAF3 JUMP JUMPDEST DUP2 ADD SUB SLT PUSH2 0x38E JUMPI MLOAD SWAP4 DUP7 PUSH2 0x322 JUMP JUMPDEST PUSH1 0x0 DUP1 REVERT JUMPDEST POP RETURNDATASIZE PUSH2 0x374 JUMP JUMPDEST DUP6 MLOAD SWAP1 RETURNDATASIZE SWAP1 DUP3 RETURNDATACOPY RETURNDATASIZE SWAP1 REVERT JUMPDEST SWAP3 SWAP6 SWAP9 SWAP10 POP SWAP3 SWAP6 POP SWAP3 SWAP6 POP DUP2 DUP2 DUP5 ADD ADD MLOAD PUSH1 0xC4 DUP3 DUP13 ADD ADD MSTORE ADD SWAP3 DUP9 SWAP7 SWAP6 SWAP3 DUP15 SWAP6 SWAP3 DUP10 DUP13 SWAP7 PUSH2 0x2D6 JUMP JUMPDEST PUSH1 0x41 DUP6 PUSH4 0x4E487B71 PUSH1 0xE0 SHL PUSH1 0x0 MSTORE MSTORE PUSH1 0x24 PUSH1 0x0 REVERT JUMPDEST PUSH2 0x402 SWAP1 DUP11 RETURNDATASIZE DUP13 GT PUSH2 0x409 JUMPI JUMPDEST PUSH2 0x3FA DUP2 DUP4 PUSH2 0xAF3 JUMP JUMPDEST DUP2 ADD SWAP1 PUSH2 0xB15 JUMP JUMPDEST POP DUP10 PUSH2 0x1F0 JUMP JUMPDEST POP RETURNDATASIZE PUSH2 0x3F0 JUMP JUMPDEST DUP9 MLOAD RETURNDATASIZE DUP12 DUP3 RETURNDATACOPY RETURNDATASIZE SWAP1 REVERT JUMPDEST PUSH2 0x430 SWAP1 DUP10 RETURNDATASIZE DUP12 GT PUSH2 0x409 JUMPI PUSH2 0x3FA DUP2 DUP4 PUSH2 0xAF3 JUMP JUMPDEST POP DUP9 PUSH2 0x18D JUMP JUMPDEST DUP8 MLOAD RETURNDATASIZE DUP11 DUP3 RETURNDATACOPY RETURNDATASIZE SWAP1 REVERT JUMPDEST PUSH1 0x64 SWAP1 PUSH1 0x20 DUP7 MLOAD SWAP2 PUSH3 0x461BCD PUSH1 0xE5 SHL DUP4 MSTORE DUP3 ADD MSTORE PUSH1 0x18 PUSH1 0x24 DUP3 ADD MSTORE PUSH32 0x496E76616C696420746F6B656E4F757420616464726573730000000000000000 PUSH1 0x44 DUP3 ADD MSTORE REVERT JUMPDEST PUSH1 0x64 SWAP1 PUSH1 0x20 DUP7 MLOAD SWAP2 PUSH3 0x461BCD PUSH1 0xE5 SHL DUP4 MSTORE DUP3 ADD MSTORE PUSH1 0x17 PUSH1 0x24 DUP3 ADD MSTORE PUSH32 0x496E76616C696420746F6B656E496E2061646472657373000000000000000000 PUSH1 0x44 DUP3 ADD MSTORE REVERT JUMPDEST DUP4 DUP4 PUSH1 0x60 CALLDATASIZE PUSH1 0x3 NOT ADD SLT PUSH2 0xA2 JUMPI PUSH2 0x4DD PUSH2 0xA53 JUMP JUMPDEST PUSH1 0x44 CALLDATALOAD PUSH3 0xFFFFFF DUP2 AND DUP1 SWAP2 SUB PUSH2 0x38E JUMPI CALLVALUE ISZERO PUSH2 0x6F4 JUMPI PUSH1 0x1 PUSH1 0x1 PUSH1 0xA0 SHL SUB DUP3 DUP2 AND SWAP6 SWAP1 SWAP2 SWAP1 PUSH2 0x50D DUP8 ISZERO ISZERO PUSH2 0xA69 JUMP JUMPDEST DUP3 PUSH32 0x0 AND SWAP3 DUP4 EXTCODESIZE ISZERO PUSH2 0x6F0 JUMPI DUP6 MLOAD PUSH4 0xD0E30DB PUSH1 0xE4 SHL DUP2 MSTORE DUP8 DUP2 DUP5 DUP2 CALLVALUE DUP10 GAS CALL DUP1 ISZERO PUSH2 0x437 JUMPI SWAP1 DUP9 SWAP2 PUSH2 0x6DC JUMPI JUMPDEST POP POP DUP6 MLOAD PUSH4 0x95EA7B3 PUSH1 0xE0 SHL DUP2 MSTORE PUSH32 0x0 PUSH1 0x1 PUSH1 0x1 PUSH1 0xA0 SHL SUB DUP2 AND DUP5 DUP4 ADD SWAP1 DUP2 MSTORE CALLVALUE PUSH1 0x20 DUP1 DUP4 ADD SWAP2 SWAP1 SWAP2 MSTORE SWAP11 SWAP2 SWAP6 SWAP3 SWAP1 DUP12 SWAP1 DUP3 SWAP1 DUP2 SWAP1 PUSH1 0x40 ADD SUB DUP2 DUP14 DUP12 GAS CALL DUP1 ISZERO PUSH2 0x6D2 JUMPI SWAP3 DUP11 SWAP3 DUP13 SWAP8 SWAP6 SWAP3 PUSH2 0x619 SWAP10 SWAP8 SWAP6 PUSH2 0x6B5 JUMPI JUMPDEST POP DUP11 MLOAD SWAP7 PUSH2 0x5DC DUP9 PUSH2 0xAAD JUMP JUMPDEST DUP8 MSTORE DUP8 DUP8 ADD MSTORE DUP10 DUP7 ADD MSTORE CALLER PUSH1 0x60 DUP7 ADD MSTORE CALLVALUE PUSH1 0x80 DUP7 ADD MSTORE PUSH1 0x24 CALLDATALOAD PUSH1 0xA0 DUP7 ADD MSTORE DUP2 PUSH1 0xC0 DUP7 ADD MSTORE DUP9 MLOAD DUP1 SWAP8 DUP2 SWAP7 DUP3 SWAP6 PUSH4 0x4E45AAF PUSH1 0xE0 SHL DUP5 MSTORE DUP4 ADD PUSH2 0xB2D JUMP JUMPDEST SUB SWAP4 AND GAS CALL SWAP4 DUP5 ISZERO PUSH2 0x6AA JUMPI SWAP4 PUSH2 0x67B JUMPI JUMPDEST POP DUP2 MLOAD PUSH1 0x1 PUSH1 0x1 PUSH1 0xA0 SHL SUB SWAP1 SWAP2 AND DUP2 MSTORE CALLVALUE PUSH1 0x20 DUP3 ADD MSTORE PUSH1 0x40 DUP2 ADD DUP4 SWAP1 MSTORE CALLER SWAP1 PUSH32 0x4C8D20E37A3970898F750FEE782C21410AA4FE6513487F5B3ABC91B59BE07447 SWAP1 DUP1 PUSH1 0x60 DUP2 ADD JUMPDEST SUB SWAP1 LOG2 MLOAD SWAP1 DUP2 MSTORE RETURN JUMPDEST SWAP1 SWAP3 POP DUP4 DUP2 DUP2 RETURNDATASIZE DUP4 GT PUSH2 0x6A3 JUMPI JUMPDEST PUSH2 0x693 DUP2 DUP4 PUSH2 0xAF3 JUMP JUMPDEST DUP2 ADD SUB SLT PUSH2 0x38E JUMPI MLOAD SWAP2 DUP5 PUSH2 0x62B JUMP JUMPDEST POP RETURNDATASIZE PUSH2 0x689 JUMP JUMPDEST DUP4 MLOAD SWAP1 RETURNDATASIZE SWAP1 DUP3 RETURNDATACOPY RETURNDATASIZE SWAP1 REVERT JUMPDEST PUSH2 0x6CB SWAP1 DUP10 RETURNDATASIZE DUP12 GT PUSH2 0x409 JUMPI PUSH2 0x3FA DUP2 DUP4 PUSH2 0xAF3 JUMP JUMPDEST POP DUP14 PUSH2 0x5CF JUMP JUMPDEST DUP10 MLOAD RETURNDATASIZE DUP13 DUP3 RETURNDATACOPY RETURNDATASIZE SWAP1 REVERT JUMPDEST PUSH2 0x6E5 SWAP1 PUSH2 0xADF JUMP JUMPDEST PUSH2 0x6F0 JUMPI DUP7 DUP10 PUSH2 0x55A JUMP JUMPDEST DUP7 DUP1 REVERT JUMPDEST DUP3 MLOAD PUSH3 0x461BCD PUSH1 0xE5 SHL DUP2 MSTORE PUSH1 0x20 DUP2 DUP8 ADD MSTORE PUSH1 0xD PUSH1 0x24 DUP3 ADD MSTORE PUSH13 0x9AEAE6E840E6CADCC8408AA89 PUSH1 0x9B SHL PUSH1 0x44 DUP3 ADD MSTORE PUSH1 0x64 SWAP1 REVERT JUMPDEST DUP4 DUP4 CALLVALUE PUSH2 0xA2 JUMPI PUSH1 0x80 CALLDATASIZE PUSH1 0x3 NOT ADD SLT PUSH2 0xA2 JUMPI PUSH2 0x742 PUSH2 0xA53 JUMP JUMPDEST PUSH1 0x24 CALLDATALOAD PUSH1 0x64 CALLDATALOAD SWAP5 PUSH3 0xFFFFFF DUP7 AND DUP1 SWAP7 SUB PUSH2 0xA4F JUMPI PUSH2 0x761 DUP3 ISZERO ISZERO PUSH2 0xB89 JUMP JUMPDEST PUSH1 0x1 PUSH1 0x1 PUSH1 0xA0 SHL SUB DUP4 DUP2 AND SWAP7 SWAP1 SWAP6 SWAP1 PUSH2 0x77B DUP9 ISZERO ISZERO PUSH2 0xA69 JUMP JUMPDEST DUP6 MLOAD PUSH4 0x23B872DD PUSH1 0xE0 SHL DUP2 MSTORE CALLER DUP5 DUP3 ADD SWAP1 DUP2 MSTORE ADDRESS PUSH1 0x20 DUP3 DUP2 ADD SWAP2 SWAP1 SWAP2 MSTORE PUSH1 0x40 DUP3 ADD DUP8 SWAP1 MSTORE SWAP10 SWAP2 SWAP1 DUP11 SWAP1 DUP3 SWAP1 DUP2 SWAP1 PUSH1 0x60 ADD SUB DUP2 DUP8 DUP7 GAS CALL DUP1 ISZERO PUSH2 0xA45 JUMPI PUSH2 0xA28 JUMPI JUMPDEST POP DUP7 MLOAD PUSH4 0x95EA7B3 PUSH1 0xE0 SHL DUP2 MSTORE PUSH32 0x0 PUSH1 0x1 PUSH1 0x1 PUSH1 0xA0 SHL SUB DUP2 AND DUP7 DUP4 ADD SWAP1 DUP2 MSTORE PUSH1 0x20 DUP2 ADD DUP9 SWAP1 MSTORE SWAP1 SWAP3 SWAP2 SWAP1 DUP12 SWAP1 DUP3 SWAP1 DUP2 SWAP1 PUSH1 0x40 ADD SUB DUP2 DUP9 DUP7 GAS CALL DUP1 ISZERO PUSH2 0xA1E JUMPI SWAP2 DUP12 SWAP4 SWAP2 PUSH2 0x898 SWAP4 PUSH2 0xA01 JUMPI JUMPDEST POP DUP10 MLOAD SWAP1 PUSH2 0x834 DUP3 PUSH2 0xAAD JUMP JUMPDEST DUP2 MSTORE DUP11 PUSH32 0x0 AND SWAP5 DUP6 DUP6 DUP4 ADD MSTORE DUP11 DUP3 ADD MSTORE ADDRESS PUSH1 0x60 DUP3 ADD MSTORE DUP8 PUSH1 0x80 DUP3 ADD MSTORE PUSH1 0x44 CALLDATALOAD PUSH1 0xA0 DUP3 ADD MSTORE DUP6 PUSH1 0xC0 DUP3 ADD MSTORE DUP6 DUP11 MLOAD SWAP12 DUP13 DUP1 SWAP6 DUP2 SWAP5 PUSH4 0x4E45AAF PUSH1 0xE0 SHL DUP4 MSTORE DUP12 DUP4 ADD PUSH2 0xB2D JUMP JUMPDEST SUB SWAP4 AND GAS CALL SWAP7 DUP8 ISZERO PUSH2 0x9C8 JUMPI DUP3 SWAP8 PUSH2 0x9D2 JUMPI JUMPDEST POP DUP1 EXTCODESIZE ISZERO PUSH2 0xA2 JUMPI DUP2 DUP1 SWAP2 PUSH1 0x24 DUP9 MLOAD DUP1 SWAP5 DUP2 SWAP4 PUSH4 0x2E1A7D4D PUSH1 0xE0 SHL DUP4 MSTORE DUP13 DUP10 DUP5 ADD MSTORE GAS CALL DUP1 ISZERO PUSH2 0x9C8 JUMPI PUSH2 0x9B9 JUMPI JUMPDEST POP DUP1 DUP1 DUP1 DUP1 DUP10 CALLER GAS CALL SWAP1 RETURNDATASIZE ISZERO PUSH2 0x9B3 JUMPI RETURNDATASIZE SWAP1 PUSH8 0xFFFFFFFFFFFFFFFF DUP3 GT PUSH2 0x9A0 JUMPI DUP7 MLOAD SWAP2 PUSH2 0x911 PUSH1 0x1F DUP3 ADD PUSH1 0x1F NOT AND DUP12 ADD DUP5 PUSH2 0xAF3 JUMP JUMPDEST DUP3 MSTORE DUP9 RETURNDATASIZE SWAP3 ADD RETURNDATACOPY JUMPDEST ISZERO PUSH2 0x968 JUMPI POP DUP3 MLOAD PUSH1 0x1 PUSH1 0x1 PUSH1 0xA0 SHL SUB SWAP1 SWAP3 AND DUP3 MSTORE PUSH1 0x20 DUP3 ADD MSTORE PUSH1 0x40 DUP2 ADD DUP4 SWAP1 MSTORE CALLER SWAP1 PUSH32 0xF648388853A921938C2F7C68A5576A93C70CEF958C5F13B690650711ED498248 SWAP1 DUP1 PUSH1 0x60 DUP2 ADD PUSH2 0x672 JUMP JUMPDEST DUP4 MLOAD PUSH3 0x461BCD PUSH1 0xE5 SHL DUP2 MSTORE SWAP1 DUP2 ADD DUP7 SWAP1 MSTORE PUSH1 0x12 PUSH1 0x24 DUP3 ADD MSTORE PUSH18 0x8CC2D2D8CAC840E8DE40E6CADCC8408AA89 PUSH1 0x73 SHL PUSH1 0x44 DUP3 ADD MSTORE PUSH1 0x64 SWAP1 REVERT JUMPDEST PUSH4 0x4E487B71 PUSH1 0xE0 SHL DUP2 MSTORE PUSH1 0x41 DUP5 MSTORE PUSH1 0x24 SWAP1 REVERT JUMPDEST POP PUSH2 0x919 JUMP JUMPDEST PUSH2 0x9C2 SWAP1 PUSH2 0xADF JUMP JUMPDEST DUP8 PUSH2 0x8DA JUMP JUMPDEST DUP7 MLOAD RETURNDATASIZE DUP5 DUP3 RETURNDATACOPY RETURNDATASIZE SWAP1 REVERT JUMPDEST SWAP1 SWAP7 POP DUP8 DUP2 DUP2 RETURNDATASIZE DUP4 GT PUSH2 0x9FA JUMPI JUMPDEST PUSH2 0x9EA DUP2 DUP4 PUSH2 0xAF3 JUMP JUMPDEST DUP2 ADD SUB SLT PUSH2 0xA2 JUMPI MLOAD SWAP6 DUP9 PUSH2 0x8AB JUMP JUMPDEST POP RETURNDATASIZE PUSH2 0x9E0 JUMP JUMPDEST PUSH2 0xA17 SWAP1 DUP6 RETURNDATASIZE DUP8 GT PUSH2 0x409 JUMPI PUSH2 0x3FA DUP2 DUP4 PUSH2 0xAF3 JUMP JUMPDEST POP DUP13 PUSH2 0x827 JUMP JUMPDEST DUP10 MLOAD RETURNDATASIZE DUP8 DUP3 RETURNDATACOPY RETURNDATASIZE SWAP1 REVERT JUMPDEST PUSH2 0xA3E SWAP1 DUP11 RETURNDATASIZE DUP13 GT PUSH2 0x409 JUMPI PUSH2 0x3FA DUP2 DUP4 PUSH2 0xAF3 JUMP JUMPDEST POP DUP10 PUSH2 0x7BC JUMP JUMPDEST DUP9 MLOAD RETURNDATASIZE DUP7 DUP3 RETURNDATACOPY RETURNDATASIZE SWAP1 REVERT JUMPDEST DUP5 DUP1 REVERT JUMPDEST PUSH1 0x4 CALLDATALOAD SWAP1 PUSH1 0x1 PUSH1 0x1 PUSH1 0xA0 SHL SUB DUP3 AND DUP3 SUB PUSH2 0x38E JUMPI JUMP JUMPDEST ISZERO PUSH2 0xA70 JUMPI JUMP JUMPDEST PUSH1 0x40 MLOAD PUSH3 0x461BCD PUSH1 0xE5 SHL DUP2 MSTORE PUSH1 0x20 PUSH1 0x4 DUP3 ADD MSTORE PUSH1 0x15 PUSH1 0x24 DUP3 ADD MSTORE PUSH21 0x496E76616C696420746F6B656E2061646472657373 PUSH1 0x58 SHL PUSH1 0x44 DUP3 ADD MSTORE PUSH1 0x64 SWAP1 REVERT JUMPDEST PUSH1 0xE0 DUP2 ADD SWAP1 DUP2 LT PUSH8 0xFFFFFFFFFFFFFFFF DUP3 GT OR PUSH2 0xAC9 JUMPI PUSH1 0x40 MSTORE JUMP JUMPDEST PUSH4 0x4E487B71 PUSH1 0xE0 SHL PUSH1 0x0 MSTORE PUSH1 0x41 PUSH1 0x4 MSTORE PUSH1 0x24 PUSH1 0x0 REVERT JUMPDEST PUSH8 0xFFFFFFFFFFFFFFFF DUP2 GT PUSH2 0xAC9 JUMPI PUSH1 0x40 MSTORE JUMP JUMPDEST SWAP1 PUSH1 0x1F DUP1 NOT SWAP2 ADD AND DUP2 ADD SWAP1 DUP2 LT PUSH8 0xFFFFFFFFFFFFFFFF DUP3 GT OR PUSH2 0xAC9 JUMPI PUSH1 0x40 MSTORE JUMP JUMPDEST SWAP1 DUP2 PUSH1 0x20 SWAP2 SUB SLT PUSH2 0x38E JUMPI MLOAD DUP1 ISZERO ISZERO DUP2 SUB PUSH2 0x38E JUMPI SWAP1 JUMP JUMPDEST SWAP2 SWAP1 SWAP2 PUSH1 0xC0 PUSH1 0xE0 DUP3 ADD SWAP4 DUP2 PUSH1 0x1 DUP1 PUSH1 0xA0 SHL SUB SWAP2 DUP3 DUP2 MLOAD AND DUP6 MSTORE DUP3 PUSH1 0x20 DUP3 ADD MLOAD AND PUSH1 0x20 DUP7 ADD MSTORE PUSH3 0xFFFFFF PUSH1 0x40 DUP3 ADD MLOAD AND PUSH1 0x40 DUP7 ADD MSTORE DUP3 PUSH1 0x60 DUP3 ADD MLOAD AND PUSH1 0x60 DUP7 ADD MSTORE PUSH1 0x80 DUP2 ADD MLOAD PUSH1 0x80 DUP7 ADD MSTORE PUSH1 0xA0 DUP2 ADD MLOAD PUSH1 0xA0 DUP7 ADD MSTORE ADD MLOAD AND SWAP2 ADD MSTORE JUMP JUMPDEST ISZERO PUSH2 0xB90 JUMPI JUMP JUMPDEST PUSH1 0x40 MLOAD PUSH3 0x461BCD PUSH1 0xE5 SHL DUP2 MSTORE PUSH1 0x20 PUSH1 0x4 DUP3 ADD MSTORE PUSH1 0x10 PUSH1 0x24 DUP3 ADD MSTORE PUSH16 0x4D7573742073656E6420746F6B656E73 PUSH1 0x80 SHL PUSH1 0x44 DUP3 ADD MSTORE PUSH1 0x64 SWAP1 REVERT INVALID LOG2 PUSH5 0x6970667358 0x22 SLT KECCAK256 JUMPDEST MSTORE 0xE0 PC 0xE9 0xD9 0xAC 0xD3 STOP PUSH1 0x13 PUSH0 0xB6 0x4D SGT PUSH21 0x8514203496BD449B1472D19B6B7C286964736F6C63 NUMBER STOP ADDMOD EQ STOP CALLER "},"methodIdentifiers":{"WETH()":"ad5c4648","swapETHForTokens(address,uint256,uint24)":"7d2f8b31","swapRouter()":"c31c9c07","swapTokensForETH(address,uint256,uint256,uint24)":"5288839f","swapTokensForTokens(address,address,uint256,uint256,uint24)":"87111a50"}}}}}