{
  "_format": "hh-sol-artifact-1",
  "contractName": "MockNonfungiblePositionManager",
  "sourceName": "contracts/mock/MockNonfungiblePositionManager.sol",
  "abi": [
    {
      "inputs": [
        {
          "internalType": "address",
          "name": "_WETH9",
          "type": "address"
        }
      ],
      "stateMutability": "nonpayable",
      "type": "constructor"
    },
    {
      "inputs": [
        {
          "internalType": "address",
          "name": "sender",
          "type": "address"
        },
        {
          "internalType": "uint256",
          "name": "tokenId",
          "type": "uint256"
        },
        {
          "internalType": "address",
          "name": "owner",
          "type": "address"
        }
      ],
      "name": "ERC721IncorrectOwner",
      "type": "error"
    },
    {
      "inputs": [
        {
          "internalType": "address",
          "name": "operator",
          "type": "address"
        },
        {
          "internalType": "uint256",
          "name": "tokenId",
          "type": "uint256"
        }
      ],
      "name": "ERC721InsufficientApproval",
      "type": "error"
    },
    {
      "inputs": [
        {
          "internalType": "address",
          "name": "approver",
          "type": "address"
        }
      ],
      "name": "ERC721InvalidApprover",
      "type": "error"
    },
    {
      "inputs": [
        {
          "internalType": "address",
          "name": "operator",
          "type": "address"
        }
      ],
      "name": "ERC721InvalidOperator",
      "type": "error"
    },
    {
      "inputs": [
        {
          "internalType": "address",
          "name": "owner",
          "type": "address"
        }
      ],
      "name": "ERC721InvalidOwner",
      "type": "error"
    },
    {
      "inputs": [
        {
          "internalType": "address",
          "name": "receiver",
          "type": "address"
        }
      ],
      "name": "ERC721InvalidReceiver",
      "type": "error"
    },
    {
      "inputs": [
        {
          "internalType": "address",
          "name": "sender",
          "type": "address"
        }
      ],
      "name": "ERC721InvalidSender",
      "type": "error"
    },
    {
      "inputs": [
        {
          "internalType": "uint256",
          "name": "tokenId",
          "type": "uint256"
        }
      ],
      "name": "ERC721NonexistentToken",
      "type": "error"
    },
    {
      "anonymous": false,
      "inputs": [
        {
          "indexed": true,
          "internalType": "address",
          "name": "owner",
          "type": "address"
        },
        {
          "indexed": true,
          "internalType": "address",
          "name": "approved",
          "type": "address"
        },
        {
          "indexed": true,
          "internalType": "uint256",
          "name": "tokenId",
          "type": "uint256"
        }
      ],
      "name": "Approval",
      "type": "event"
    },
    {
      "anonymous": false,
      "inputs": [
        {
          "indexed": true,
          "internalType": "address",
          "name": "owner",
          "type": "address"
        },
        {
          "indexed": true,
          "internalType": "address",
          "name": "operator",
          "type": "address"
        },
        {
          "indexed": false,
          "internalType": "bool",
          "name": "approved",
          "type": "bool"
        }
      ],
      "name": "ApprovalForAll",
      "type": "event"
    },
    {
      "anonymous": false,
      "inputs": [
        {
          "indexed": true,
          "internalType": "uint256",
          "name": "tokenId",
          "type": "uint256"
        },
        {
          "indexed": false,
          "internalType": "address",
          "name": "recipient",
          "type": "address"
        },
        {
          "indexed": false,
          "internalType": "uint256",
          "name": "amount0",
          "type": "uint256"
        },
        {
          "indexed": false,
          "internalType": "uint256",
          "name": "amount1",
          "type": "uint256"
        }
      ],
      "name": "Collect",
      "type": "event"
    },
    {
      "anonymous": false,
      "inputs": [
        {
          "indexed": true,
          "internalType": "uint256",
          "name": "tokenId",
          "type": "uint256"
        },
        {
          "indexed": false,
          "internalType": "uint128",
          "name": "liquidity",
          "type": "uint128"
        },
        {
          "indexed": false,
          "internalType": "uint256",
          "name": "amount0",
          "type": "uint256"
        },
        {
          "indexed": false,
          "internalType": "uint256",
          "name": "amount1",
          "type": "uint256"
        }
      ],
      "name": "DecreaseLiquidity",
      "type": "event"
    },
    {
      "anonymous": false,
      "inputs": [
        {
          "indexed": true,
          "internalType": "uint256",
          "name": "tokenId",
          "type": "uint256"
        },
        {
          "indexed": false,
          "internalType": "uint128",
          "name": "liquidity",
          "type": "uint128"
        },
        {
          "indexed": false,
          "internalType": "uint256",
          "name": "amount0",
          "type": "uint256"
        },
        {
          "indexed": false,
          "internalType": "uint256",
          "name": "amount1",
          "type": "uint256"
        }
      ],
      "name": "IncreaseLiquidity",
      "type": "event"
    },
    {
      "anonymous": false,
      "inputs": [
        {
          "indexed": true,
          "internalType": "address",
          "name": "from",
          "type": "address"
        },
        {
          "indexed": true,
          "internalType": "address",
          "name": "to",
          "type": "address"
        },
        {
          "indexed": true,
          "internalType": "uint256",
          "name": "tokenId",
          "type": "uint256"
        }
      ],
      "name": "Transfer",
      "type": "event"
    },
    {
      "inputs": [],
      "name": "DOMAIN_SEPARATOR",
      "outputs": [
        {
          "internalType": "bytes32",
          "name": "",
          "type": "bytes32"
        }
      ],
      "stateMutability": "view",
      "type": "function"
    },
    {
      "inputs": [],
      "name": "PERMIT_TYPEHASH",
      "outputs": [
        {
          "internalType": "bytes32",
          "name": "",
          "type": "bytes32"
        }
      ],
      "stateMutability": "pure",
      "type": "function"
    },
    {
      "inputs": [],
      "name": "WETH9",
      "outputs": [
        {
          "internalType": "address",
          "name": "",
          "type": "address"
        }
      ],
      "stateMutability": "view",
      "type": "function"
    },
    {
      "inputs": [
        {
          "internalType": "address",
          "name": "to",
          "type": "address"
        },
        {
          "internalType": "uint256",
          "name": "tokenId",
          "type": "uint256"
        }
      ],
      "name": "approve",
      "outputs": [],
      "stateMutability": "nonpayable",
      "type": "function"
    },
    {
      "inputs": [
        {
          "internalType": "address",
          "name": "owner",
          "type": "address"
        }
      ],
      "name": "balanceOf",
      "outputs": [
        {
          "internalType": "uint256",
          "name": "",
          "type": "uint256"
        }
      ],
      "stateMutability": "view",
      "type": "function"
    },
    {
      "inputs": [
        {
          "internalType": "uint256",
          "name": "",
          "type": "uint256"
        }
      ],
      "name": "burn",
      "outputs": [],
      "stateMutability": "payable",
      "type": "function"
    },
    {
      "inputs": [
        {
          "components": [
            {
              "internalType": "uint256",
              "name": "tokenId",
              "type": "uint256"
            },
            {
              "internalType": "address",
              "name": "recipient",
              "type": "address"
            },
            {
              "internalType": "uint128",
              "name": "amount0Max",
              "type": "uint128"
            },
            {
              "internalType": "uint128",
              "name": "amount1Max",
              "type": "uint128"
            }
          ],
          "internalType": "struct INonfungiblePositionManager.CollectParams",
          "name": "",
          "type": "tuple"
        }
      ],
      "name": "collect",
      "outputs": [
        {
          "internalType": "uint256",
          "name": "amount0",
          "type": "uint256"
        },
        {
          "internalType": "uint256",
          "name": "amount1",
          "type": "uint256"
        }
      ],
      "stateMutability": "payable",
      "type": "function"
    },
    {
      "inputs": [
        {
          "internalType": "address",
          "name": "token0",
          "type": "address"
        },
        {
          "internalType": "address",
          "name": "token1",
          "type": "address"
        },
        {
          "internalType": "uint24",
          "name": "fee",
          "type": "uint24"
        },
        {
          "internalType": "uint160",
          "name": "sqrtPriceX96",
          "type": "uint160"
        }
      ],
      "name": "createAndInitializePoolIfNecessary",
      "outputs": [
        {
          "internalType": "address",
          "name": "pool",
          "type": "address"
        }
      ],
      "stateMutability": "payable",
      "type": "function"
    },
    {
      "inputs": [
        {
          "components": [
            {
              "internalType": "uint256",
              "name": "tokenId",
              "type": "uint256"
            },
            {
              "internalType": "uint128",
              "name": "liquidity",
              "type": "uint128"
            },
            {
              "internalType": "uint256",
              "name": "amount0Min",
              "type": "uint256"
            },
            {
              "internalType": "uint256",
              "name": "amount1Min",
              "type": "uint256"
            },
            {
              "internalType": "uint256",
              "name": "deadline",
              "type": "uint256"
            }
          ],
          "internalType": "struct INonfungiblePositionManager.DecreaseLiquidityParams",
          "name": "",
          "type": "tuple"
        }
      ],
      "name": "decreaseLiquidity",
      "outputs": [
        {
          "internalType": "uint256",
          "name": "",
          "type": "uint256"
        },
        {
          "internalType": "uint256",
          "name": "",
          "type": "uint256"
        }
      ],
      "stateMutability": "payable",
      "type": "function"
    },
    {
      "inputs": [],
      "name": "factory",
      "outputs": [
        {
          "internalType": "address",
          "name": "",
          "type": "address"
        }
      ],
      "stateMutability": "view",
      "type": "function"
    },
    {
      "inputs": [
        {
          "internalType": "uint256",
          "name": "tokenId",
          "type": "uint256"
        }
      ],
      "name": "getApproved",
      "outputs": [
        {
          "internalType": "address",
          "name": "",
          "type": "address"
        }
      ],
      "stateMutability": "view",
      "type": "function"
    },
    {
      "inputs": [
        {
          "components": [
            {
              "internalType": "uint256",
              "name": "tokenId",
              "type": "uint256"
            },
            {
              "internalType": "uint256",
              "name": "amount0Desired",
              "type": "uint256"
            },
            {
              "internalType": "uint256",
              "name": "amount1Desired",
              "type": "uint256"
            },
            {
              "internalType": "uint256",
              "name": "amount0Min",
              "type": "uint256"
            },
            {
              "internalType": "uint256",
              "name": "amount1Min",
              "type": "uint256"
            },
            {
              "internalType": "uint256",
              "name": "deadline",
              "type": "uint256"
            }
          ],
          "internalType": "struct INonfungiblePositionManager.IncreaseLiquidityParams",
          "name": "",
          "type": "tuple"
        }
      ],
      "name": "increaseLiquidity",
      "outputs": [
        {
          "internalType": "uint128",
          "name": "",
          "type": "uint128"
        },
        {
          "internalType": "uint256",
          "name": "",
          "type": "uint256"
        },
        {
          "internalType": "uint256",
          "name": "",
          "type": "uint256"
        }
      ],
      "stateMutability": "payable",
      "type": "function"
    },
    {
      "inputs": [
        {
          "internalType": "address",
          "name": "owner",
          "type": "address"
        },
        {
          "internalType": "address",
          "name": "operator",
          "type": "address"
        }
      ],
      "name": "isApprovedForAll",
      "outputs": [
        {
          "internalType": "bool",
          "name": "",
          "type": "bool"
        }
      ],
      "stateMutability": "view",
      "type": "function"
    },
    {
      "inputs": [
        {
          "components": [
            {
              "internalType": "address",
              "name": "token0",
              "type": "address"
            },
            {
              "internalType": "address",
              "name": "token1",
              "type": "address"
            },
            {
              "internalType": "uint24",
              "name": "fee",
              "type": "uint24"
            },
            {
              "internalType": "int24",
              "name": "tickLower",
              "type": "int24"
            },
            {
              "internalType": "int24",
              "name": "tickUpper",
              "type": "int24"
            },
            {
              "internalType": "uint256",
              "name": "amount0Desired",
              "type": "uint256"
            },
            {
              "internalType": "uint256",
              "name": "amount1Desired",
              "type": "uint256"
            },
            {
              "internalType": "uint256",
              "name": "amount0Min",
              "type": "uint256"
            },
            {
              "internalType": "uint256",
              "name": "amount1Min",
              "type": "uint256"
            },
            {
              "internalType": "address",
              "name": "recipient",
              "type": "address"
            },
            {
              "internalType": "uint256",
              "name": "deadline",
              "type": "uint256"
            }
          ],
          "internalType": "struct INonfungiblePositionManager.MintParams",
          "name": "params",
          "type": "tuple"
        }
      ],
      "name": "mint",
      "outputs": [
        {
          "internalType": "uint256",
          "name": "tokenId",
          "type": "uint256"
        },
        {
          "internalType": "uint128",
          "name": "liquidity",
          "type": "uint128"
        },
        {
          "internalType": "uint256",
          "name": "amount0",
          "type": "uint256"
        },
        {
          "internalType": "uint256",
          "name": "amount1",
          "type": "uint256"
        }
      ],
      "stateMutability": "payable",
      "type": "function"
    },
    {
      "inputs": [],
      "name": "name",
      "outputs": [
        {
          "internalType": "string",
          "name": "",
          "type": "string"
        }
      ],
      "stateMutability": "view",
      "type": "function"
    },
    {
      "inputs": [
        {
          "internalType": "uint256",
          "name": "",
          "type": "uint256"
        }
      ],
      "name": "nonces",
      "outputs": [
        {
          "internalType": "uint256",
          "name": "",
          "type": "uint256"
        }
      ],
      "stateMutability": "view",
      "type": "function"
    },
    {
      "inputs": [
        {
          "internalType": "uint256",
          "name": "tokenId",
          "type": "uint256"
        }
      ],
      "name": "ownerOf",
      "outputs": [
        {
          "internalType": "address",
          "name": "",
          "type": "address"
        }
      ],
      "stateMutability": "view",
      "type": "function"
    },
    {
      "inputs": [
        {
          "internalType": "address",
          "name": "spender",
          "type": "address"
        },
        {
          "internalType": "uint256",
          "name": "tokenId",
          "type": "uint256"
        },
        {
          "internalType": "uint256",
          "name": "deadline",
          "type": "uint256"
        },
        {
          "internalType": "uint8",
          "name": "v",
          "type": "uint8"
        },
        {
          "internalType": "bytes32",
          "name": "r",
          "type": "bytes32"
        },
        {
          "internalType": "bytes32",
          "name": "s",
          "type": "bytes32"
        }
      ],
      "name": "permit",
      "outputs": [],
      "stateMutability": "payable",
      "type": "function"
    },
    {
      "inputs": [
        {
          "internalType": "uint256",
          "name": "",
          "type": "uint256"
        }
      ],
      "name": "positions",
      "outputs": [
        {
          "internalType": "uint96",
          "name": "",
          "type": "uint96"
        },
        {
          "internalType": "address",
          "name": "",
          "type": "address"
        },
        {
          "internalType": "address",
          "name": "",
          "type": "address"
        },
        {
          "internalType": "address",
          "name": "",
          "type": "address"
        },
        {
          "internalType": "uint24",
          "name": "",
          "type": "uint24"
        },
        {
          "internalType": "int24",
          "name": "",
          "type": "int24"
        },
        {
          "internalType": "int24",
          "name": "",
          "type": "int24"
        },
        {
          "internalType": "uint128",
          "name": "",
          "type": "uint128"
        },
        {
          "internalType": "uint256",
          "name": "",
          "type": "uint256"
        },
        {
          "internalType": "uint256",
          "name": "",
          "type": "uint256"
        },
        {
          "internalType": "uint128",
          "name": "",
          "type": "uint128"
        },
        {
          "internalType": "uint128",
          "name": "",
          "type": "uint128"
        }
      ],
      "stateMutability": "view",
      "type": "function"
    },
    {
      "inputs": [],
      "name": "refundETH",
      "outputs": [],
      "stateMutability": "payable",
      "type": "function"
    },
    {
      "inputs": [
        {
          "internalType": "address",
          "name": "from",
          "type": "address"
        },
        {
          "internalType": "address",
          "name": "to",
          "type": "address"
        },
        {
          "internalType": "uint256",
          "name": "tokenId",
          "type": "uint256"
        }
      ],
      "name": "safeTransferFrom",
      "outputs": [],
      "stateMutability": "nonpayable",
      "type": "function"
    },
    {
      "inputs": [
        {
          "internalType": "address",
          "name": "from",
          "type": "address"
        },
        {
          "internalType": "address",
          "name": "to",
          "type": "address"
        },
        {
          "internalType": "uint256",
          "name": "tokenId",
          "type": "uint256"
        },
        {
          "internalType": "bytes",
          "name": "data",
          "type": "bytes"
        }
      ],
      "name": "safeTransferFrom",
      "outputs": [],
      "stateMutability": "nonpayable",
      "type": "function"
    },
    {
      "inputs": [
        {
          "internalType": "address",
          "name": "operator",
          "type": "address"
        },
        {
          "internalType": "bool",
          "name": "approved",
          "type": "bool"
        }
      ],
      "name": "setApprovalForAll",
      "outputs": [],
      "stateMutability": "nonpayable",
      "type": "function"
    },
    {
      "inputs": [
        {
          "internalType": "bytes4",
          "name": "interfaceId",
          "type": "bytes4"
        }
      ],
      "name": "supportsInterface",
      "outputs": [
        {
          "internalType": "bool",
          "name": "",
          "type": "bool"
        }
      ],
      "stateMutability": "view",
      "type": "function"
    },
    {
      "inputs": [
        {
          "internalType": "address",
          "name": "token",
          "type": "address"
        },
        {
          "internalType": "uint256",
          "name": "amountMinimum",
          "type": "uint256"
        },
        {
          "internalType": "address",
          "name": "recipient",
          "type": "address"
        }
      ],
      "name": "sweepToken",
      "outputs": [],
      "stateMutability": "payable",
      "type": "function"
    },
    {
      "inputs": [],
      "name": "symbol",
      "outputs": [
        {
          "internalType": "string",
          "name": "",
          "type": "string"
        }
      ],
      "stateMutability": "view",
      "type": "function"
    },
    {
      "inputs": [
        {
          "internalType": "uint256",
          "name": "",
          "type": "uint256"
        }
      ],
      "name": "tokenByIndex",
      "outputs": [
        {
          "internalType": "uint256",
          "name": "",
          "type": "uint256"
        }
      ],
      "stateMutability": "pure",
      "type": "function"
    },
    {
      "inputs": [],
      "name": "tokenIdCounter",
      "outputs": [
        {
          "internalType": "uint256",
          "name": "",
          "type": "uint256"
        }
      ],
      "stateMutability": "view",
      "type": "function"
    },
    {
      "inputs": [
        {
          "internalType": "address",
          "name": "",
          "type": "address"
        },
        {
          "internalType": "uint256",
          "name": "",
          "type": "uint256"
        }
      ],
      "name": "tokenOfOwnerByIndex",
      "outputs": [
        {
          "internalType": "uint256",
          "name": "",
          "type": "uint256"
        }
      ],
      "stateMutability": "pure",
      "type": "function"
    },
    {
      "inputs": [
        {
          "internalType": "uint256",
          "name": "tokenId",
          "type": "uint256"
        }
      ],
      "name": "tokenURI",
      "outputs": [
        {
          "internalType": "string",
          "name": "",
          "type": "string"
        }
      ],
      "stateMutability": "pure",
      "type": "function"
    },
    {
      "inputs": [],
      "name": "totalSupply",
      "outputs": [
        {
          "internalType": "uint256",
          "name": "",
          "type": "uint256"
        }
      ],
      "stateMutability": "view",
      "type": "function"
    },
    {
      "inputs": [
        {
          "internalType": "address",
          "name": "from",
          "type": "address"
        },
        {
          "internalType": "address",
          "name": "to",
          "type": "address"
        },
        {
          "internalType": "uint256",
          "name": "tokenId",
          "type": "uint256"
        }
      ],
      "name": "transferFrom",
      "outputs": [],
      "stateMutability": "nonpayable",
      "type": "function"
    },
    {
      "inputs": [
        {
          "internalType": "uint256",
          "name": "amountMinimum",
          "type": "uint256"
        },
        {
          "internalType": "address",
          "name": "recipient",
          "type": "address"
        }
      ],
      "name": "unwrapWETH9",
      "outputs": [],
      "stateMutability": "payable",
      "type": "function"
    }
  ],
  "bytecode": "0x60c03462000364576001600160401b03601f19601f620016293881900382810184168601858111878210176200034e57869282916040528339602095869181010312620003645751926001600160a01b038416840362000364576200006362000369565b916011835270135bd8dac8141bdcda5d1a5bdb88139195607a1b868401526200008b62000369565b956005875264135413919560da1b818801528351948386116200034e576000958654956001968781811c9116801562000343575b858210146200032f57908186849311620002dc575b5084908683116001146200027b5789926200026f575b5050600019600383901b1c191690861b1786555b87519384116200025b5784548581811c9116801562000250575b838210146200023c57838111620001f4575b50819284116001146200018e5750508394958293949262000182575b5050600019600383901b1c191690821b1790555b60805260a05260405161129f90816200038a82396080518161027b015260a05181610a700152f35b01519050388062000146565b8392919216968486528286209286905b898210620001dc575050838596979810620001c2575b505050811b0190556200015a565b015160001960f88460031b161c19169055388080620001b4565b8087859682949686015181550195019301906200019e565b8587528287208480870160051c82019285881062000232575b0160051c019086905b828110620002265750506200012a565b88815501869062000216565b925081926200020d565b634e487b7160e01b87526022600452602487fd5b90607f169062000118565b634e487b7160e01b86526041600452602486fd5b015190503880620000ea565b9084899416918a8052868b20928b5b88828210620002c55750508411620002ab575b505050811b018655620000fe565b015160001960f88460031b161c191690553880806200029d565b8385015186558c979095019493840193016200028a565b9091508880528489208680850160051c82019287861062000325575b918a91869594930160051c01915b82811062000316575050620000d4565b8b81558594508a910162000306565b92508192620002f8565b634e487b7160e01b89526022600452602489fd5b90607f1690620000bf565b634e487b7160e01b600052604160045260246000fd5b600080fd5b60408051919082016001600160401b038111838210176200034e5760405256fe60806040908082526004908136101561001757600080fd5b600091823560e01c91826301ffc9a714610e925750816306fdde0314610dc7578163081812fc14610d8a578163095ea7b314610cad5781630c49ccbe14610c9257816312210e8a14610c8357816313ead56214610c3a578163141a468c14610a5657816318160ddd1461057d578163219f5d1714610c1857816323b872dd14610bfd5781632f745c5914610bd857816330adf81f14610bd35781633644e51514610bd357816342842e0e14610ac757816342966c6814610ab757816349404b7c14610a9f5781634aa4a4fc14610a5b5781634f6ccce714610a565781636352211e14610a2557816370a08231146109d05781637ac2ff7b146109ab57816388316456146106b257816395d89b411461059c57816398bdf6f51461057d57816399fbab881461051b578163a22cb46514610479578163b88d4fde146102aa57508063c45a015514610266578063c87b56dd1461022a578063df2ab5bb146101ff578063e985e9c5146101ad5763fc6f78651461019157600080fd5b60803660031901126101aa578151908082526020820152f35b80fd5b5090346101fb57806003193601126101fb5760ff816020936101cd610f3d565b6101d5610f58565b6001600160a01b0391821683526005875283832091168252855220549151911615158152f35b5080fd5b5060603660031901126101aa57610214610f3d565b506044356001600160a01b038116036101aa5780f35b5090346101fb5760203660031901126101fb57908161026292519161024e83610fdb565b825251918291602083526020830190610efd565b0390f35b5090346101fb57816003193601126101fb57517f00000000000000000000000000000000000000000000000000000000000000006001600160a01b03168152602090f35b83915034610475576080366003190112610475576102c6610f3d565b916102cf610f58565b906044359360643567ffffffffffffffff81116104715736602382011215610471578085013595876103008861102f565b9261030d8651948561100d565b8884523660248a830101116101fb578860249960209a8b9301838701378401015261033981868561104b565b843b610343578780f35b9580979394959660018060a01b038097169661038d87519485938493630a85bd0160e11b988986528d33908701521660248501526044840152608060648401526084830190610efd565b038186895af183918161042d575b506103f65750503d156103ee573d6103b28161102f565b906103bf8451928361100d565b81528091863d92013e5b805194856103e857505051633250574960e11b81529182015260249150fd5b85925001fd5b5060606103c9565b9195506001600160e01b03199091160361041857505050818080808080808780f35b51633250574960e11b81529182015260249150fd5b9091508781813d831161046a575b610445818361100d565b8101031261046657516001600160e01b03198116810361046657908861039b565b8380fd5b503d61043b565b8680fd5b8280fd5b90508234610475578060031936011261047557610494610f3d565b9060243591821515809303610517576001600160a01b03169283156105025750338452600560205280842083855260205280842060ff1981541660ff8416179055519081527f17307eab39ab6107e8899845ad3d59bd9653f200f220920489ca2b5937696c3160203392a380f35b836024925191630b61174360e31b8352820152fd5b8480fd5b8284346101fb5760203660031901126101fb5781610180928251928184528160208501528301528060608301528060808301528060a08301528060c08301528060e0830152806101008301528061012083015280610140830152610160820152f35b8284346101fb57816003193601126101fb576020906006549051908152f35b8383346101aa57806003193601126101aa578151918160019283549384811c918186169586156106a8575b6020968785108114610695578899509688969785829a52918260001461066e575050600114610613575b505050610262929161060491038561100d565b51928284938452830190610efd565b91908693508083527fb10e2d527612073b26eecdfd717e6a320cf44b4afac2b0732d9fcbe2b7fa0cf65b82841061065657505050820101816106046102626105f1565b8054848a01860152889550879490930192810161063d565b60ff19168782015293151560051b86019093019350849250610604915061026290506105f1565b634e487b7160e01b835260228a52602483fd5b92607f16926105c7565b9190506101603660031901126101aa57426101443510610975576106d4611225565b6001600160a01b03929083806106e861123b565b169116101561093c5760a43590816108c1575b60c4359283610836575b60065460001990818114610823576001019586600655610124359080821680920361046657811561080c579087918285526002602052898520541680151593846107d9575b508185526003602052898520600181540190558285526002602052898520826bffffffffffffffffffffffff60a01b8254161790557fddf252ad1be2c89b69c2b068fc378daa952ba7f163c4a11628f55a4df523b3ef8580a46107c357505083608094519384526103e860208501528301526060820152f35b85516339e3563760e11b81529182015260249150fd5b600084815260046020526040902080546001600160a01b031916905581865260036020528a86209081540190553861074a565b8851633250574960e11b8152808601859052602490fd5b634e487b7160e01b835260118452602483fd5b8461083f61123b565b87516323b872dd60e01b8152338582019081523060208281019190915260408201899052919391928492169082908690829060600103925af180156108b757610889575b50610705565b6108a99060203d81116108b0575b6108a1818361100d565b810190611251565b5038610883565b503d610897565b87513d84823e3d90fd5b836108ca611225565b86516323b872dd60e01b8152338482019081523060208281019190915260408201879052919391928492169082908890829060600103925af1801561093257610914575b506106fb565b61092b9060203d81116108b0576108a1818361100d565b503861090e565b86513d86823e3d90fd5b606490602085519162461bcd60e51b8352820152601360248201527224b73b30b634b2103a37b5b2b71037b93232b960691b6044820152fd5b506020606492519162461bcd60e51b8352820152601060248201526f111958591b1a5b9948195e1c1a5c995960821b6044820152fd5b8260c03660031901126101aa576109c0610f3d565b5060643560ff8116036101aa5780f35b8383346101aa5760203660031901126101aa576001600160a01b036109f3610f3d565b16928315610a105750806020938392526003845220549051908152f35b91516322718ad960e21b815291820152602490fd5b8383346101aa5760203660031901126101aa5750610a45602092356111ea565b90516001600160a01b039091168152f35b610f6e565b8284346101fb57816003193601126101fb57517f00000000000000000000000000000000000000000000000000000000000000006001600160a01b03168152602090f35b82846003193601126101aa57610ab3610f58565b5080f35b8260203660031901126101aa5780f35b9050823461047557610ad836610f8a565b9291908251610ae681610fdb565b868152610af485838561104b565b813b610afe578680f35b8351630a85bd0160e11b80825233888301526001600160a01b03948516602483015260448201969096526080606482015260209793909216949190879082908190610b4d906084830190610efd565b038186895af1839181610b93575b50610b725750503d156103ee573d6103b28161102f565b9195506001600160e01b031990911603610418575050508180808080808680f35b9091508781813d8311610bcc575b610bab818361100d565b8101031261046657516001600160e01b031981168103610466579088610b5b565b503d610ba1565b610fbf565b8284346101fb57806003193601126101fb5790602091610bf6610f3d565b5051908152f35b82346101aa57610c15610c0f36610f8a565b9161104b565b80f35b828460c03660031901126101fb57606091815191818352816020840152820152f35b828460803660031901126101fb57610c50610f3d565b50610c59610f58565b5060443562ffffff8116036101fb576064356001600160a01b038116036101fb5751908152602090f35b82806003193601126101aa5780f35b505060a03660031901126101aa578151908082526020820152f35b90508234610475578060031936011261047557610cc8610f3d565b91602435610cd5816111ea565b33151580610d77575b80610d4e575b610d38576001600160a01b039485169482918691167f8c5be1e5ebec7d5bd14f71427d1e84f3dd0314c0f7b2291e5b200ac8c7c3b9258880a48452602052822080546001600160a01b031916909117905580f35b835163a9fbf51f60e01b81523381850152602490fd5b506001600160a01b03811686526005602090815284872033885290528386205460ff1615610ce4565b506001600160a01b038116331415610cde565b8391503461047557602036600319011261047557918260209335610dad816111ea565b50825283528190205490516001600160a01b039091168152f35b8383346101aa57806003193601126101aa5781519181825492600184811c91818616958615610e88575b6020968785108114610695578899509688969785829a52918260001461066e575050600114610e2d57505050610262929161060491038561100d565b91908693508280527f290decd9548b62a8d60345a988386fc84ba6bc95484008f6362f93160ef3e5635b828410610e7057505050820101816106046102626105f1565b8054848a018601528895508794909301928101610e57565b92607f1692610df1565b915034610475576020366003190112610475573563ffffffff60e01b811680910361047557602092506380ac58cd60e01b8114908115610eec575b8115610edb575b5015158152f35b6301ffc9a760e01b14905083610ed4565b635b5e139f60e01b81149150610ecd565b919082519283825260005b848110610f29575050826000602080949584010152601f8019910116010190565b602081830181015184830182015201610f08565b600435906001600160a01b0382168203610f5357565b600080fd5b602435906001600160a01b0382168203610f5357565b34610f53576020366003190112610f5357602060405160008152f35b6060906003190112610f53576001600160a01b03906004358281168103610f5357916024359081168103610f53579060443590565b34610f53576000366003190112610f5357602060405160008152f35b6020810190811067ffffffffffffffff821117610ff757604052565b634e487b7160e01b600052604160045260246000fd5b90601f8019910116810190811067ffffffffffffffff821117610ff757604052565b67ffffffffffffffff8111610ff757601f01601f191660200190565b6001600160a01b0391821692909183156111d15760009282845282602095600287526040968488882054169687913315158061113b575b509060027fddf252ad1be2c89b69c2b068fc378daa952ba7f163c4a11628f55a4df523b3ef9284611108575b858352600381528b8320805460010190558683525289812080546001600160a01b0319168517905580a416928383036110e75750505050565b6064945051926364283d7b60e01b8452600484015260248301526044820152fd5b600087815260046020526040902080546001600160a01b0319169055848352600381528b832080546000190190556110ae565b91939450915080611190575b1561115757859291879138611082565b878688611174576024915190637e27328960e01b82526004820152fd5b604491519063177e802f60e01b82523360048301526024820152fd5b5033871480156111b5575b806111475750858252600481523385898420541614611147565b5086825260058152878220338352815260ff888320541661119b565b604051633250574960e11b815260006004820152602490fd5b6000818152600260205260409020546001600160a01b031690811561120d575090565b60249060405190637e27328960e01b82526004820152fd5b6004356001600160a01b0381168103610f535790565b6024356001600160a01b0381168103610f535790565b90816020910312610f5357518015158103610f53579056fea264697066735822122080bd1991a0ea65cf1913fdfe76e1903deb345de530e78e3118318c3e6e131edc64736f6c63430008140033",
  "linkReferences": {},
  "deployedLinkReferences": {}
}